{
	"data": {
		"bytecode": {
			"linkReferences": {},
			"object": "608060405260056000556003600155600060025566038d7ea4c6800060065534801561002a57600080fd5b506103728061003a6000396000f3fe6080604052600436106100345760003560e01c80632c67a8e5146100395780634315399f146100765780636f44215414610092575b600080fd5b34801561004557600080fd5b50610060600480360381019061005b919061018a565b6100cf565b60405161006d919061027f565b60405180910390f35b610090600480360381019061008b91906102cd565b6100d6565b005b34801561009e57600080fd5b506100b960048036038101906100b4919061018a565b610120565b6040516100c6919061027f565b60405180910390f35b6060919050565b60065434146100e457600080fd5b60015481106100f257600080fd5b80600483815481106101075761010661030d565b5b9060005260206000209060020201600101819055505050565b6060919050565b600080fd5b600073ffffffffffffffffffffffffffffffffffffffff82169050919050565b60006101578261012c565b9050919050565b6101678161014c565b811461017257600080fd5b50565b6000813590506101848161015e565b92915050565b6000602082840312156101a05761019f610127565b5b60006101ae84828501610175565b91505092915050565b600081519050919050565b600082825260208201905092915050565b6000819050602082019050919050565b6000819050919050565b6101f6816101e3565b82525050565b600061020883836101ed565b60208301905092915050565b6000602082019050919050565b600061022c826101b7565b61023681856101c2565b9350610241836101d3565b8060005b8381101561027257815161025988826101fc565b975061026483610214565b925050600181019050610245565b5085935050505092915050565b600060208201905081810360008301526102998184610221565b905092915050565b6102aa816101e3565b81146102b557600080fd5b50565b6000813590506102c7816102a1565b92915050565b600080604083850312156102e4576102e3610127565b5b60006102f2858286016102b8565b9250506020610303858286016102b8565b9150509250929050565b7f4e487b7100000000000000000000000000000000000000000000000000000000600052603260045260246000fdfea2646970667358221220c64278daff8d8d683ea9086360930365b2f03830df449cf822ea8dd1e38227b664736f6c63430008120033",
			"opcodes": "PUSH1 0x80 PUSH1 0x40 MSTORE PUSH1 0x5 PUSH1 0x0 SSTORE PUSH1 0x3 PUSH1 0x1 SSTORE PUSH1 0x0 PUSH1 0x2 SSTORE PUSH7 0x38D7EA4C68000 PUSH1 0x6 SSTORE CALLVALUE DUP1 ISZERO PUSH2 0x2A JUMPI PUSH1 0x0 DUP1 REVERT JUMPDEST POP PUSH2 0x372 DUP1 PUSH2 0x3A PUSH1 0x0 CODECOPY PUSH1 0x0 RETURN INVALID PUSH1 0x80 PUSH1 0x40 MSTORE PUSH1 0x4 CALLDATASIZE LT PUSH2 0x34 JUMPI PUSH1 0x0 CALLDATALOAD PUSH1 0xE0 SHR DUP1 PUSH4 0x2C67A8E5 EQ PUSH2 0x39 JUMPI DUP1 PUSH4 0x4315399F EQ PUSH2 0x76 JUMPI DUP1 PUSH4 0x6F442154 EQ PUSH2 0x92 JUMPI JUMPDEST PUSH1 0x0 DUP1 REVERT JUMPDEST CALLVALUE DUP1 ISZERO PUSH2 0x45 JUMPI PUSH1 0x0 DUP1 REVERT JUMPDEST POP PUSH2 0x60 PUSH1 0x4 DUP1 CALLDATASIZE SUB DUP2 ADD SWAP1 PUSH2 0x5B SWAP2 SWAP1 PUSH2 0x18A JUMP JUMPDEST PUSH2 0xCF JUMP JUMPDEST PUSH1 0x40 MLOAD PUSH2 0x6D SWAP2 SWAP1 PUSH2 0x27F JUMP JUMPDEST PUSH1 0x40 MLOAD DUP1 SWAP2 SUB SWAP1 RETURN JUMPDEST PUSH2 0x90 PUSH1 0x4 DUP1 CALLDATASIZE SUB DUP2 ADD SWAP1 PUSH2 0x8B SWAP2 SWAP1 PUSH2 0x2CD JUMP JUMPDEST PUSH2 0xD6 JUMP JUMPDEST STOP JUMPDEST CALLVALUE DUP1 ISZERO PUSH2 0x9E JUMPI PUSH1 0x0 DUP1 REVERT JUMPDEST POP PUSH2 0xB9 PUSH1 0x4 DUP1 CALLDATASIZE SUB DUP2 ADD SWAP1 PUSH2 0xB4 SWAP2 SWAP1 PUSH2 0x18A JUMP JUMPDEST PUSH2 0x120 JUMP JUMPDEST PUSH1 0x40 MLOAD PUSH2 0xC6 SWAP2 SWAP1 PUSH2 0x27F JUMP JUMPDEST PUSH1 0x40 MLOAD DUP1 SWAP2 SUB SWAP1 RETURN JUMPDEST PUSH1 0x60 SWAP2 SWAP1 POP JUMP JUMPDEST PUSH1 0x6 SLOAD CALLVALUE EQ PUSH2 0xE4 JUMPI PUSH1 0x0 DUP1 REVERT JUMPDEST PUSH1 0x1 SLOAD DUP2 LT PUSH2 0xF2 JUMPI PUSH1 0x0 DUP1 REVERT JUMPDEST DUP1 PUSH1 0x4 DUP4 DUP2 SLOAD DUP2 LT PUSH2 0x107 JUMPI PUSH2 0x106 PUSH2 0x30D JUMP JUMPDEST JUMPDEST SWAP1 PUSH1 0x0 MSTORE PUSH1 0x20 PUSH1 0x0 KECCAK256 SWAP1 PUSH1 0x2 MUL ADD PUSH1 0x1 ADD DUP2 SWAP1 SSTORE POP POP POP JUMP JUMPDEST PUSH1 0x60 SWAP2 SWAP1 POP JUMP JUMPDEST PUSH1 0x0 DUP1 REVERT JUMPDEST PUSH1 0x0 PUSH20 0xFFFFFFFFFFFFFFFFFFFFFFFFFFFFFFFFFFFFFFFF DUP3 AND SWAP1 POP SWAP2 SWAP1 POP JUMP JUMPDEST PUSH1 0x0 PUSH2 0x157 DUP3 PUSH2 0x12C JUMP JUMPDEST SWAP1 POP SWAP2 SWAP1 POP JUMP JUMPDEST PUSH2 0x167 DUP2 PUSH2 0x14C JUMP JUMPDEST DUP2 EQ PUSH2 0x172 JUMPI PUSH1 0x0 DUP1 REVERT JUMPDEST POP JUMP JUMPDEST PUSH1 0x0 DUP2 CALLDATALOAD SWAP1 POP PUSH2 0x184 DUP2 PUSH2 0x15E JUMP JUMPDEST SWAP3 SWAP2 POP POP JUMP JUMPDEST PUSH1 0x0 PUSH1 0x20 DUP3 DUP5 SUB SLT ISZERO PUSH2 0x1A0 JUMPI PUSH2 0x19F PUSH2 0x127 JUMP JUMPDEST JUMPDEST PUSH1 0x0 PUSH2 0x1AE DUP5 DUP3 DUP6 ADD PUSH2 0x175 JUMP JUMPDEST SWAP2 POP POP SWAP3 SWAP2 POP POP JUMP JUMPDEST PUSH1 0x0 DUP2 MLOAD SWAP1 POP SWAP2 SWAP1 POP JUMP JUMPDEST PUSH1 0x0 DUP3 DUP3 MSTORE PUSH1 0x20 DUP3 ADD SWAP1 POP SWAP3 SWAP2 POP POP JUMP JUMPDEST PUSH1 0x0 DUP2 SWAP1 POP PUSH1 0x20 DUP3 ADD SWAP1 POP SWAP2 SWAP1 POP JUMP JUMPDEST PUSH1 0x0 DUP2 SWAP1 POP SWAP2 SWAP1 POP JUMP JUMPDEST PUSH2 0x1F6 DUP2 PUSH2 0x1E3 JUMP JUMPDEST DUP3 MSTORE POP POP JUMP JUMPDEST PUSH1 0x0 PUSH2 0x208 DUP4 DUP4 PUSH2 0x1ED JUMP JUMPDEST PUSH1 0x20 DUP4 ADD SWAP1 POP SWAP3 SWAP2 POP POP JUMP JUMPDEST PUSH1 0x0 PUSH1 0x20 DUP3 ADD SWAP1 POP SWAP2 SWAP1 POP JUMP JUMPDEST PUSH1 0x0 PUSH2 0x22C DUP3 PUSH2 0x1B7 JUMP JUMPDEST PUSH2 0x236 DUP2 DUP6 PUSH2 0x1C2 JUMP JUMPDEST SWAP4 POP PUSH2 0x241 DUP4 PUSH2 0x1D3 JUMP JUMPDEST DUP1 PUSH1 0x0 JUMPDEST DUP4 DUP2 LT ISZERO PUSH2 0x272 JUMPI DUP2 MLOAD PUSH2 0x259 DUP9 DUP3 PUSH2 0x1FC JUMP JUMPDEST SWAP8 POP PUSH2 0x264 DUP4 PUSH2 0x214 JUMP JUMPDEST SWAP3 POP POP PUSH1 0x1 DUP2 ADD SWAP1 POP PUSH2 0x245 JUMP JUMPDEST POP DUP6 SWAP4 POP POP POP POP SWAP3 SWAP2 POP POP JUMP JUMPDEST PUSH1 0x0 PUSH1 0x20 DUP3 ADD SWAP1 POP DUP2 DUP2 SUB PUSH1 0x0 DUP4 ADD MSTORE PUSH2 0x299 DUP2 DUP5 PUSH2 0x221 JUMP JUMPDEST SWAP1 POP SWAP3 SWAP2 POP POP JUMP JUMPDEST PUSH2 0x2AA DUP2 PUSH2 0x1E3 JUMP JUMPDEST DUP2 EQ PUSH2 0x2B5 JUMPI PUSH1 0x0 DUP1 REVERT JUMPDEST POP JUMP JUMPDEST PUSH1 0x0 DUP2 CALLDATALOAD SWAP1 POP PUSH2 0x2C7 DUP2 PUSH2 0x2A1 JUMP JUMPDEST SWAP3 SWAP2 POP POP JUMP JUMPDEST PUSH1 0x0 DUP1 PUSH1 0x40 DUP4 DUP6 SUB SLT ISZERO PUSH2 0x2E4 JUMPI PUSH2 0x2E3 PUSH2 0x127 JUMP JUMPDEST JUMPDEST PUSH1 0x0 PUSH2 0x2F2 DUP6 DUP3 DUP7 ADD PUSH2 0x2B8 JUMP JUMPDEST SWAP3 POP POP PUSH1 0x20 PUSH2 0x303 DUP6 DUP3 DUP7 ADD PUSH2 0x2B8 JUMP JUMPDEST SWAP2 POP POP SWAP3 POP SWAP3 SWAP1 POP JUMP JUMPDEST PUSH32 0x4E487B7100000000000000000000000000000000000000000000000000000000 PUSH1 0x0 MSTORE PUSH1 0x32 PUSH1 0x4 MSTORE PUSH1 0x24 PUSH1 0x0 REVERT INVALID LOG2 PUSH5 0x6970667358 0x22 SLT KECCAK256 0xC6 TIMESTAMP PUSH25 0xDAFF8D8D683EA9086360930365B2F03830DF449CF822EA8DD1 0xE3 DUP3 0x27 0xB6 PUSH5 0x736F6C6343 STOP ADDMOD SLT STOP CALLER "
		},
		"gasEstimates": {
			"creation": {
				"codeDepositCost": "176400",
				"executionCost": "71544",
				"totalCost": "247944"
			},
			"external": {
				"changeColorPalette(uint256,uint256)": "infinite",
				"getItemsByOwner(address)": "infinite",
				"getOwnerByAddress(address)": "infinite"
			}
		},
		"methodIdentifiers": {
			"changeColorPalette(uint256,uint256)": "4315399f",
			"getItemsByOwner(address)": "2c67a8e5",
			"getOwnerByAddress(address)": "6f442154"
		}
	},
	"abi": [
		{
			"anonymous": false,
			"inputs": [
				{
					"indexed": false,
					"internalType": "uint256",
					"name": "",
					"type": "uint256"
				},
				{
					"indexed": false,
					"internalType": "string",
					"name": "",
					"type": "string"
				}
			],
			"name": "DonorCreated",
			"type": "event"
		},
		{
			"inputs": [
				{
					"internalType": "uint256",
					"name": "_donorId",
					"type": "uint256"
				},
				{
					"internalType": "uint256",
					"name": "_paletteId",
					"type": "uint256"
				}
			],
			"name": "changeColorPalette",
			"outputs": [],
			"stateMutability": "payable",
			"type": "function"
		},
		{
			"inputs": [
				{
					"internalType": "address",
					"name": "_owner",
					"type": "address"
				}
			],
			"name": "getItemsByOwner",
			"outputs": [
				{
					"internalType": "uint256[]",
					"name": "",
					"type": "uint256[]"
				}
			],
			"stateMutability": "view",
			"type": "function"
		},
		{
			"inputs": [
				{
					"internalType": "address",
					"name": "_owner",
					"type": "address"
				}
			],
			"name": "getOwnerByAddress",
			"outputs": [
				{
					"internalType": "uint256[]",
					"name": "",
					"type": "uint256[]"
				}
			],
			"stateMutability": "view",
			"type": "function"
		}
	]
}