{
	"data": {
		"bytecode": {
			"linkReferences": {},
			"object": "60806040526005600155600060025566038d7ea4c680006006553480156200002657600080fd5b50336000806101000a81548173ffffffffffffffffffffffffffffffffffffffff021916908373ffffffffffffffffffffffffffffffffffffffff16021790555060008054906101000a900473ffffffffffffffffffffffffffffffffffffffff1673ffffffffffffffffffffffffffffffffffffffff16600073ffffffffffffffffffffffffffffffffffffffff167f8be0079c531659141344cd1fd0a4f28419497f9722a3daafe3b4186f6b6457e060405160405180910390a3620002226040518060a001604052806040518060400160405280600881526020017f307838343545433200000000000000000000000000000000000000000000000081525081526020016040518060400160405280600881526020017f307834423434353300000000000000000000000000000000000000000000000081525081526020016040518060400160405280600881526020017f307842304138423900000000000000000000000000000000000000000000000081525081526020016040518060400160405280600881526020017f307843333441333600000000000000000000000000000000000000000000000081525081526020016040518060400160405280600881526020017f3078464638303636000000000000000000000000000000000000000000000000815250815250620005e860201b60201c565b620003626040518060a001604052806040518060400160405280600881526020017f307836393936373400000000000000000000000000000000000000000000000081525081526020016040518060400160405280600881526020017f307833423441334600000000000000000000000000000000000000000000000081525081526020016040518060400160405280600881526020017f307839454146413200000000000000000000000000000000000000000000000081525081526020016040518060400160405280600881526020017f307834453934423300000000000000000000000000000000000000000000000081525081526020016040518060400160405280600881526020017f3078303336313745000000000000000000000000000000000000000000000000815250815250620005e860201b60201c565b620004a26040518060a001604052806040518060400160405280600881526020017f307832374236443800000000000000000000000000000000000000000000000081525081526020016040518060400160405280600881526020017f307833333441353200000000000000000000000000000000000000000000000081525081526020016040518060400160405280600881526020017f307839364146423800000000000000000000000000000000000000000000000081525081526020016040518060400160405280600881526020017f307843343938443400000000000000000000000000000000000000000000000081525081526020016040518060400160405280600881526020017f3078384536343944000000000000000000000000000000000000000000000000815250815250620005e860201b60201c565b620005e26040518060a001604052806040518060400160405280600881526020017f307835414135354200000000000000000000000000000000000000000000000081525081526020016040518060400160405280600881526020017f307832343935364400000000000000000000000000000000000000000000000081525081526020016040518060400160405280600881526020017f307830303833373700000000000000000000000000000000000000000000000081525081526020016040518060400160405280600881526020017f307830303646373700000000000000000000000000000000000000000000000081525081526020016040518060400160405280600881526020017f3078314335423643000000000000000000000000000000000000000000000000815250815250620005e860201b60201c565b62000bf3565b620005f8620006b660201b60201c565b6200060257600080fd5b6003808054905090806001815401808255809150506001900390600052602060002001600090919091909150558060046000600160038054905062000648919062000833565b8152602001908152602001600020906005620006669291906200070d565b507fe1c7c98cdeded3a25c1c7ada5b85013b2c7c9879f1678129a413ea685d0fcc7860016003805490506200069c919062000833565b604051620006ab91906200087f565b60405180910390a150565b60008060009054906101000a900473ffffffffffffffffffffffffffffffffffffffff1673ffffffffffffffffffffffffffffffffffffffff163373ffffffffffffffffffffffffffffffffffffffff1614905090565b8280548282559060005260206000209081019282156200075a579160200282015b828111156200075957825182908162000748919062000b0c565b50916020019190600101906200072e565b5b5090506200076991906200076d565b5090565b5b8082111562000791576000818162000787919062000795565b506001016200076e565b5090565b508054620007a39062000905565b6000825580601f10620007b75750620007d8565b601f016020900490600052602060002090810190620007d79190620007db565b5b50565b5b80821115620007f6576000816000905550600101620007dc565b5090565b6000819050919050565b7f4e487b7100000000000000000000000000000000000000000000000000000000600052601160045260246000fd5b60006200084082620007fa565b91506200084d83620007fa565b925082820390508181111562000868576200086762000804565b5b92915050565b6200087981620007fa565b82525050565b60006020820190506200089660008301846200086e565b92915050565b600081519050919050565b7f4e487b7100000000000000000000000000000000000000000000000000000000600052604160045260246000fd5b7f4e487b7100000000000000000000000000000000000000000000000000000000600052602260045260246000fd5b600060028204905060018216806200091e57607f821691505b602082108103620009345762000933620008d6565b5b50919050565b60008190508160005260206000209050919050565b60006020601f8301049050919050565b600082821b905092915050565b6000600883026200099e7fffffffffffffffffffffffffffffffffffffffffffffffffffffffffffffffff826200095f565b620009aa86836200095f565b95508019841693508086168417925050509392505050565b6000819050919050565b6000620009ed620009e7620009e184620007fa565b620009c2565b620007fa565b9050919050565b6000819050919050565b62000a0983620009cc565b62000a2162000a1882620009f4565b8484546200096c565b825550505050565b600090565b62000a3862000a29565b62000a45818484620009fe565b505050565b5b8181101562000a6d5762000a6160008262000a2e565b60018101905062000a4b565b5050565b601f82111562000abc5762000a86816200093a565b62000a91846200094f565b8101602085101562000aa1578190505b62000ab962000ab0856200094f565b83018262000a4a565b50505b505050565b600082821c905092915050565b600062000ae16000198460080262000ac1565b1980831691505092915050565b600062000afc838362000ace565b9150826002028217905092915050565b62000b17826200089c565b67ffffffffffffffff81111562000b335762000b32620008a7565b5b62000b3f825462000905565b62000b4c82828562000a71565b600060209050601f83116001811462000b84576000841562000b6f578287015190505b62000b7b858262000aee565b86555062000beb565b601f19841662000b94866200093a565b60005b8281101562000bbe5784890151825560018201915060208501945060208101905062000b97565b8683101562000bde578489015162000bda601f89168262000ace565b8355505b6001600288020188555050505b505050505050565b6113798062000c036000396000f3fe6080604052600436106100915760003560e01c80638da5cb5b116100595780638da5cb5b1461015a5780638f32d59b14610185578063b8f7f42a146101b0578063dcf7eefe146101d9578063f2fde38b1461021657610091565b8063109c1238146100965780634315399f146100c15780636f442154146100dd578063715018a61461011a57806380cef3cc14610131575b600080fd5b3480156100a257600080fd5b506100ab61023f565b6040516100b891906109b0565b60405180910390f35b6100db60048036038101906100d69190610a0b565b610245565b005b3480156100e957600080fd5b5061010460048036038101906100ff9190610aa9565b610311565b60405161011191906109b0565b60405180910390f35b34801561012657600080fd5b5061012f61035a565b005b34801561013d57600080fd5b5061015860048036038101906101539190610aa9565b610429565b005b34801561016657600080fd5b5061016f61057d565b60405161017c9190610ae5565b60405180910390f35b34801561019157600080fd5b5061019a6105a6565b6040516101a79190610b1b565b60405180910390f35b3480156101bc57600080fd5b506101d760048036038101906101d29190610d50565b6105fd565b005b3480156101e557600080fd5b5061020060048036038101906101fb9190610d99565b6106ba565b60405161020d91906109b0565b60405180910390f35b34801561022257600080fd5b5061023d60048036038101906102389190610aa9565b6106de565b005b60015481565b6006543414610289576040517f08c379a000000000000000000000000000000000000000000000000000000000815260040161028090610e49565b60405180910390fd5b60038054905081106102e35760016003805490506102a79190610e98565b6040517fd8b14a010000000000000000000000000000000000000000000000000000000081526004016102da91906109b0565b60405180910390fd5b80600783815481106102f8576102f7610ecc565b5b9060005260206000209060020201600001819055505050565b6000600860008373ffffffffffffffffffffffffffffffffffffffff1673ffffffffffffffffffffffffffffffffffffffff168152602001908152602001600020549050919050565b6103626105a6565b61036b57600080fd5b600073ffffffffffffffffffffffffffffffffffffffff1660008054906101000a900473ffffffffffffffffffffffffffffffffffffffff1673ffffffffffffffffffffffffffffffffffffffff167f8be0079c531659141344cd1fd0a4f28419497f9722a3daafe3b4186f6b6457e060405160405180910390a360008060006101000a81548173ffffffffffffffffffffffffffffffffffffffff021916908373ffffffffffffffffffffffffffffffffffffffff160217905550565b6000600167ffffffffffffffff81111561044657610445610b4c565b5b6040519080825280602002602001820160405280156104745781602001602082028036833780820191505090505b5090506007604051806040016040528061048c6106fb565b81526020018381525090806001815401808255809150506001900390600052602060002090600202016000909190919091506000820151816000015560208201518160010190805190602001906104e4929190610870565b505050600060016007805490506104fb9190610e98565b905080600860008573ffffffffffffffffffffffffffffffffffffffff1673ffffffffffffffffffffffffffffffffffffffff168152602001908152602001600020819055507faf101d6eb202a80391aeb3bccfdf77a63a9dd196386bf69ae819408c466875b68160405161057091906109b0565b60405180910390a1505050565b60008060009054906101000a900473ffffffffffffffffffffffffffffffffffffffff16905090565b60008060009054906101000a900473ffffffffffffffffffffffffffffffffffffffff1673ffffffffffffffffffffffffffffffffffffffff163373ffffffffffffffffffffffffffffffffffffffff1614905090565b6106056105a6565b61060e57600080fd5b600380805490509080600181540180825580915050600190039060005260206000200160009091909190915055806004600060016003805490506106529190610e98565b815260200190815260200160002090600561066e9291906108bd565b507fe1c7c98cdeded3a25c1c7ada5b85013b2c7c9879f1678129a413ea685d0fcc7860016003805490506106a29190610e98565b6040516106af91906109b0565b60405180910390a150565b600381815481106106ca57600080fd5b906000526020600020016000915090505481565b6106e66105a6565b6106ef57600080fd5b6106f88161071c565b50565b600061071760016003805490506107129190610e98565b610812565b905090565b600073ffffffffffffffffffffffffffffffffffffffff168173ffffffffffffffffffffffffffffffffffffffff160361075557600080fd5b8073ffffffffffffffffffffffffffffffffffffffff1660008054906101000a900473ffffffffffffffffffffffffffffffffffffffff1673ffffffffffffffffffffffffffffffffffffffff167f8be0079c531659141344cd1fd0a4f28419497f9722a3daafe3b4186f6b6457e060405160405180910390a3806000806101000a81548173ffffffffffffffffffffffffffffffffffffffff021916908373ffffffffffffffffffffffffffffffffffffffff16021790555050565b60006002600081548092919061082790610efb565b9190505550814244336002546040516020016108469493929190610fac565b6040516020818303038152906040528051906020012060001c6108699190611029565b9050919050565b8280548282559060005260206000209081019282156108ac579160200282015b828111156108ab578251825591602001919060010190610890565b5b5090506108b99190610916565b5090565b828054828255906000526020600020908101928215610905579160200282015b828111156109045782518290816108f49190611271565b50916020019190600101906108dd565b5b5090506109129190610933565b5090565b5b8082111561092f576000816000905550600101610917565b5090565b5b80821115610953576000818161094a9190610957565b50600101610934565b5090565b50805461096390611094565b6000825580601f106109755750610994565b601f0160209004906000526020600020908101906109939190610916565b5b50565b6000819050919050565b6109aa81610997565b82525050565b60006020820190506109c560008301846109a1565b92915050565b6000604051905090565b600080fd5b600080fd5b6109e881610997565b81146109f357600080fd5b50565b600081359050610a05816109df565b92915050565b60008060408385031215610a2257610a216109d5565b5b6000610a30858286016109f6565b9250506020610a41858286016109f6565b9150509250929050565b600073ffffffffffffffffffffffffffffffffffffffff82169050919050565b6000610a7682610a4b565b9050919050565b610a8681610a6b565b8114610a9157600080fd5b50565b600081359050610aa381610a7d565b92915050565b600060208284031215610abf57610abe6109d5565b5b6000610acd84828501610a94565b91505092915050565b610adf81610a6b565b82525050565b6000602082019050610afa6000830184610ad6565b92915050565b60008115159050919050565b610b1581610b00565b82525050565b6000602082019050610b306000830184610b0c565b92915050565b600080fd5b6000601f19601f8301169050919050565b7f4e487b7100000000000000000000000000000000000000000000000000000000600052604160045260246000fd5b610b8482610b3b565b810181811067ffffffffffffffff82111715610ba357610ba2610b4c565b5b80604052505050565b6000610bb66109cb565b9050610bc28282610b7b565b919050565b600067ffffffffffffffff821115610be257610be1610b4c565b5b602082029050919050565b600080fd5b600080fd5b600067ffffffffffffffff821115610c1257610c11610b4c565b5b610c1b82610b3b565b9050602081019050919050565b82818337600083830152505050565b6000610c4a610c4584610bf7565b610bac565b905082815260208101848484011115610c6657610c65610bf2565b5b610c71848285610c28565b509392505050565b600082601f830112610c8e57610c8d610b36565b5b8135610c9e848260208601610c37565b91505092915050565b6000610cba610cb584610bc7565b610bac565b90508060208402830185811115610cd457610cd3610bed565b5b835b81811015610d1b57803567ffffffffffffffff811115610cf957610cf8610b36565b5b808601610d068982610c79565b85526020850194505050602081019050610cd6565b5050509392505050565b600082601f830112610d3a57610d39610b36565b5b6005610d47848285610ca7565b91505092915050565b600060208284031215610d6657610d656109d5565b5b600082013567ffffffffffffffff811115610d8457610d836109da565b5b610d9084828501610d25565b91505092915050565b600060208284031215610daf57610dae6109d5565b5b6000610dbd848285016109f6565b91505092915050565b600082825260208201905092915050565b7f53747261776265727279446f6e6f72466163746f72793a205748595f534f5f4360008201527f484541503f000000000000000000000000000000000000000000000000000000602082015250565b6000610e33602583610dc6565b9150610e3e82610dd7565b604082019050919050565b60006020820190508181036000830152610e6281610e26565b9050919050565b7f4e487b7100000000000000000000000000000000000000000000000000000000600052601160045260246000fd5b6000610ea382610997565b9150610eae83610997565b9250828203905081811115610ec657610ec5610e69565b5b92915050565b7f4e487b7100000000000000000000000000000000000000000000000000000000600052603260045260246000fd5b6000610f0682610997565b91507fffffffffffffffffffffffffffffffffffffffffffffffffffffffffffffffff8203610f3857610f37610e69565b5b600182019050919050565b6000819050919050565b610f5e610f5982610997565b610f43565b82525050565b60008160601b9050919050565b6000610f7c82610f64565b9050919050565b6000610f8e82610f71565b9050919050565b610fa6610fa182610a6b565b610f83565b82525050565b6000610fb88287610f4d565b602082019150610fc88286610f4d565b602082019150610fd88285610f95565b601482019150610fe88284610f4d565b60208201915081905095945050505050565b7f4e487b7100000000000000000000000000000000000000000000000000000000600052601260045260246000fd5b600061103482610997565b915061103f83610997565b92508261104f5761104e610ffa565b5b828206905092915050565b600081519050919050565b7f4e487b7100000000000000000000000000000000000000000000000000000000600052602260045260246000fd5b600060028204905060018216806110ac57607f821691505b6020821081036110bf576110be611065565b5b50919050565b60008190508160005260206000209050919050565b60006020601f8301049050919050565b600082821b905092915050565b6000600883026111277fffffffffffffffffffffffffffffffffffffffffffffffffffffffffffffffff826110ea565b61113186836110ea565b95508019841693508086168417925050509392505050565b6000819050919050565b600061116e61116961116484610997565b611149565b610997565b9050919050565b6000819050919050565b61118883611153565b61119c61119482611175565b8484546110f7565b825550505050565b600090565b6111b16111a4565b6111bc81848461117f565b505050565b5b818110156111e0576111d56000826111a9565b6001810190506111c2565b5050565b601f821115611225576111f6816110c5565b6111ff846110da565b8101602085101561120e578190505b61122261121a856110da565b8301826111c1565b50505b505050565b600082821c905092915050565b60006112486000198460080261122a565b1980831691505092915050565b60006112618383611237565b9150826002028217905092915050565b61127a8261105a565b67ffffffffffffffff81111561129357611292610b4c565b5b61129d8254611094565b6112a88282856111e4565b600060209050601f8311600181146112db57600084156112c9578287015190505b6112d38582611255565b86555061133b565b601f1984166112e9866110c5565b60005b82811015611311578489015182556001820191506020850194506020810190506112ec565b8683101561132e578489015161132a601f891682611237565b8355505b6001600288020188555050505b50505050505056fea2646970667358221220f3cd16fdaf095808b91ac219663dbb256fcf14614bd67296c0b2022c5711711a64736f6c63430008120033",
			"opcodes": "PUSH1 0x80 PUSH1 0x40 MSTORE PUSH1 0x5 PUSH1 0x1 SSTORE PUSH1 0x0 PUSH1 0x2 SSTORE PUSH7 0x38D7EA4C68000 PUSH1 0x6 SSTORE CALLVALUE DUP1 ISZERO PUSH3 0x26 JUMPI PUSH1 0x0 DUP1 REVERT JUMPDEST POP CALLER PUSH1 0x0 DUP1 PUSH2 0x100 EXP DUP2 SLOAD DUP2 PUSH20 0xFFFFFFFFFFFFFFFFFFFFFFFFFFFFFFFFFFFFFFFF MUL NOT AND SWAP1 DUP4 PUSH20 0xFFFFFFFFFFFFFFFFFFFFFFFFFFFFFFFFFFFFFFFF AND MUL OR SWAP1 SSTORE POP PUSH1 0x0 DUP1 SLOAD SWAP1 PUSH2 0x100 EXP SWAP1 DIV PUSH20 0xFFFFFFFFFFFFFFFFFFFFFFFFFFFFFFFFFFFFFFFF AND PUSH20 0xFFFFFFFFFFFFFFFFFFFFFFFFFFFFFFFFFFFFFFFF AND PUSH1 0x0 PUSH20 0xFFFFFFFFFFFFFFFFFFFFFFFFFFFFFFFFFFFFFFFF AND PUSH32 0x8BE0079C531659141344CD1FD0A4F28419497F9722A3DAAFE3B4186F6B6457E0 PUSH1 0x40 MLOAD PUSH1 0x40 MLOAD DUP1 SWAP2 SUB SWAP1 LOG3 PUSH3 0x222 PUSH1 0x40 MLOAD DUP1 PUSH1 0xA0 ADD PUSH1 0x40 MSTORE DUP1 PUSH1 0x40 MLOAD DUP1 PUSH1 0x40 ADD PUSH1 0x40 MSTORE DUP1 PUSH1 0x8 DUP2 MSTORE PUSH1 0x20 ADD PUSH32 0x3078383435454332000000000000000000000000000000000000000000000000 DUP2 MSTORE POP DUP2 MSTORE PUSH1 0x20 ADD PUSH1 0x40 MLOAD DUP1 PUSH1 0x40 ADD PUSH1 0x40 MSTORE DUP1 PUSH1 0x8 DUP2 MSTORE PUSH1 0x20 ADD PUSH32 0x3078344234343533000000000000000000000000000000000000000000000000 DUP2 MSTORE POP DUP2 MSTORE PUSH1 0x20 ADD PUSH1 0x40 MLOAD DUP1 PUSH1 0x40 ADD PUSH1 0x40 MSTORE DUP1 PUSH1 0x8 DUP2 MSTORE PUSH1 0x20 ADD PUSH32 0x3078423041384239000000000000000000000000000000000000000000000000 DUP2 MSTORE POP DUP2 MSTORE PUSH1 0x20 ADD PUSH1 0x40 MLOAD DUP1 PUSH1 0x40 ADD PUSH1 0x40 MSTORE DUP1 PUSH1 0x8 DUP2 MSTORE PUSH1 0x20 ADD PUSH32 0x3078433334413336000000000000000000000000000000000000000000000000 DUP2 MSTORE POP DUP2 MSTORE PUSH1 0x20 ADD PUSH1 0x40 MLOAD DUP1 PUSH1 0x40 ADD PUSH1 0x40 MSTORE DUP1 PUSH1 0x8 DUP2 MSTORE PUSH1 0x20 ADD PUSH32 0x3078464638303636000000000000000000000000000000000000000000000000 DUP2 MSTORE POP DUP2 MSTORE POP PUSH3 0x5E8 PUSH1 0x20 SHL PUSH1 0x20 SHR JUMP JUMPDEST PUSH3 0x362 PUSH1 0x40 MLOAD DUP1 PUSH1 0xA0 ADD PUSH1 0x40 MSTORE DUP1 PUSH1 0x40 MLOAD DUP1 PUSH1 0x40 ADD PUSH1 0x40 MSTORE DUP1 PUSH1 0x8 DUP2 MSTORE PUSH1 0x20 ADD PUSH32 0x3078363939363734000000000000000000000000000000000000000000000000 DUP2 MSTORE POP DUP2 MSTORE PUSH1 0x20 ADD PUSH1 0x40 MLOAD DUP1 PUSH1 0x40 ADD PUSH1 0x40 MSTORE DUP1 PUSH1 0x8 DUP2 MSTORE PUSH1 0x20 ADD PUSH32 0x3078334234413346000000000000000000000000000000000000000000000000 DUP2 MSTORE POP DUP2 MSTORE PUSH1 0x20 ADD PUSH1 0x40 MLOAD DUP1 PUSH1 0x40 ADD PUSH1 0x40 MSTORE DUP1 PUSH1 0x8 DUP2 MSTORE PUSH1 0x20 ADD PUSH32 0x3078394541464132000000000000000000000000000000000000000000000000 DUP2 MSTORE POP DUP2 MSTORE PUSH1 0x20 ADD PUSH1 0x40 MLOAD DUP1 PUSH1 0x40 ADD PUSH1 0x40 MSTORE DUP1 PUSH1 0x8 DUP2 MSTORE PUSH1 0x20 ADD PUSH32 0x3078344539344233000000000000000000000000000000000000000000000000 DUP2 MSTORE POP DUP2 MSTORE PUSH1 0x20 ADD PUSH1 0x40 MLOAD DUP1 PUSH1 0x40 ADD PUSH1 0x40 MSTORE DUP1 PUSH1 0x8 DUP2 MSTORE PUSH1 0x20 ADD PUSH32 0x3078303336313745000000000000000000000000000000000000000000000000 DUP2 MSTORE POP DUP2 MSTORE POP PUSH3 0x5E8 PUSH1 0x20 SHL PUSH1 0x20 SHR JUMP JUMPDEST PUSH3 0x4A2 PUSH1 0x40 MLOAD DUP1 PUSH1 0xA0 ADD PUSH1 0x40 MSTORE DUP1 PUSH1 0x40 MLOAD DUP1 PUSH1 0x40 ADD PUSH1 0x40 MSTORE DUP1 PUSH1 0x8 DUP2 MSTORE PUSH1 0x20 ADD PUSH32 0x3078323742364438000000000000000000000000000000000000000000000000 DUP2 MSTORE POP DUP2 MSTORE PUSH1 0x20 ADD PUSH1 0x40 MLOAD DUP1 PUSH1 0x40 ADD PUSH1 0x40 MSTORE DUP1 PUSH1 0x8 DUP2 MSTORE PUSH1 0x20 ADD PUSH32 0x3078333334413532000000000000000000000000000000000000000000000000 DUP2 MSTORE POP DUP2 MSTORE PUSH1 0x20 ADD PUSH1 0x40 MLOAD DUP1 PUSH1 0x40 ADD PUSH1 0x40 MSTORE DUP1 PUSH1 0x8 DUP2 MSTORE PUSH1 0x20 ADD PUSH32 0x3078393641464238000000000000000000000000000000000000000000000000 DUP2 MSTORE POP DUP2 MSTORE PUSH1 0x20 ADD PUSH1 0x40 MLOAD DUP1 PUSH1 0x40 ADD PUSH1 0x40 MSTORE DUP1 PUSH1 0x8 DUP2 MSTORE PUSH1 0x20 ADD PUSH32 0x3078433439384434000000000000000000000000000000000000000000000000 DUP2 MSTORE POP DUP2 MSTORE PUSH1 0x20 ADD PUSH1 0x40 MLOAD DUP1 PUSH1 0x40 ADD PUSH1 0x40 MSTORE DUP1 PUSH1 0x8 DUP2 MSTORE PUSH1 0x20 ADD PUSH32 0x3078384536343944000000000000000000000000000000000000000000000000 DUP2 MSTORE POP DUP2 MSTORE POP PUSH3 0x5E8 PUSH1 0x20 SHL PUSH1 0x20 SHR JUMP JUMPDEST PUSH3 0x5E2 PUSH1 0x40 MLOAD DUP1 PUSH1 0xA0 ADD PUSH1 0x40 MSTORE DUP1 PUSH1 0x40 MLOAD DUP1 PUSH1 0x40 ADD PUSH1 0x40 MSTORE DUP1 PUSH1 0x8 DUP2 MSTORE PUSH1 0x20 ADD PUSH32 0x3078354141353542000000000000000000000000000000000000000000000000 DUP2 MSTORE POP DUP2 MSTORE PUSH1 0x20 ADD PUSH1 0x40 MLOAD DUP1 PUSH1 0x40 ADD PUSH1 0x40 MSTORE DUP1 PUSH1 0x8 DUP2 MSTORE PUSH1 0x20 ADD PUSH32 0x3078323439353644000000000000000000000000000000000000000000000000 DUP2 MSTORE POP DUP2 MSTORE PUSH1 0x20 ADD PUSH1 0x40 MLOAD DUP1 PUSH1 0x40 ADD PUSH1 0x40 MSTORE DUP1 PUSH1 0x8 DUP2 MSTORE PUSH1 0x20 ADD PUSH32 0x3078303038333737000000000000000000000000000000000000000000000000 DUP2 MSTORE POP DUP2 MSTORE PUSH1 0x20 ADD PUSH1 0x40 MLOAD DUP1 PUSH1 0x40 ADD PUSH1 0x40 MSTORE DUP1 PUSH1 0x8 DUP2 MSTORE PUSH1 0x20 ADD PUSH32 0x3078303036463737000000000000000000000000000000000000000000000000 DUP2 MSTORE POP DUP2 MSTORE PUSH1 0x20 ADD PUSH1 0x40 MLOAD DUP1 PUSH1 0x40 ADD PUSH1 0x40 MSTORE DUP1 PUSH1 0x8 DUP2 MSTORE PUSH1 0x20 ADD PUSH32 0x3078314335423643000000000000000000000000000000000000000000000000 DUP2 MSTORE POP DUP2 MSTORE POP PUSH3 0x5E8 PUSH1 0x20 SHL PUSH1 0x20 SHR JUMP JUMPDEST PUSH3 0xBF3 JUMP JUMPDEST PUSH3 0x5F8 PUSH3 0x6B6 PUSH1 0x20 SHL PUSH1 0x20 SHR JUMP JUMPDEST PUSH3 0x602 JUMPI PUSH1 0x0 DUP1 REVERT JUMPDEST PUSH1 0x3 DUP1 DUP1 SLOAD SWAP1 POP SWAP1 DUP1 PUSH1 0x1 DUP2 SLOAD ADD DUP1 DUP3 SSTORE DUP1 SWAP2 POP POP PUSH1 0x1 SWAP1 SUB SWAP1 PUSH1 0x0 MSTORE PUSH1 0x20 PUSH1 0x0 KECCAK256 ADD PUSH1 0x0 SWAP1 SWAP2 SWAP1 SWAP2 SWAP1 SWAP2 POP SSTORE DUP1 PUSH1 0x4 PUSH1 0x0 PUSH1 0x1 PUSH1 0x3 DUP1 SLOAD SWAP1 POP PUSH3 0x648 SWAP2 SWAP1 PUSH3 0x833 JUMP JUMPDEST DUP2 MSTORE PUSH1 0x20 ADD SWAP1 DUP2 MSTORE PUSH1 0x20 ADD PUSH1 0x0 KECCAK256 SWAP1 PUSH1 0x5 PUSH3 0x666 SWAP3 SWAP2 SWAP1 PUSH3 0x70D JUMP JUMPDEST POP PUSH32 0xE1C7C98CDEDED3A25C1C7ADA5B85013B2C7C9879F1678129A413EA685D0FCC78 PUSH1 0x1 PUSH1 0x3 DUP1 SLOAD SWAP1 POP PUSH3 0x69C SWAP2 SWAP1 PUSH3 0x833 JUMP JUMPDEST PUSH1 0x40 MLOAD PUSH3 0x6AB SWAP2 SWAP1 PUSH3 0x87F JUMP JUMPDEST PUSH1 0x40 MLOAD DUP1 SWAP2 SUB SWAP1 LOG1 POP JUMP JUMPDEST PUSH1 0x0 DUP1 PUSH1 0x0 SWAP1 SLOAD SWAP1 PUSH2 0x100 EXP SWAP1 DIV PUSH20 0xFFFFFFFFFFFFFFFFFFFFFFFFFFFFFFFFFFFFFFFF AND PUSH20 0xFFFFFFFFFFFFFFFFFFFFFFFFFFFFFFFFFFFFFFFF AND CALLER PUSH20 0xFFFFFFFFFFFFFFFFFFFFFFFFFFFFFFFFFFFFFFFF AND EQ SWAP1 POP SWAP1 JUMP JUMPDEST DUP3 DUP1 SLOAD DUP3 DUP3 SSTORE SWAP1 PUSH1 0x0 MSTORE PUSH1 0x20 PUSH1 0x0 KECCAK256 SWAP1 DUP2 ADD SWAP3 DUP3 ISZERO PUSH3 0x75A JUMPI SWAP2 PUSH1 0x20 MUL DUP3 ADD JUMPDEST DUP3 DUP2 GT ISZERO PUSH3 0x759 JUMPI DUP3 MLOAD DUP3 SWAP1 DUP2 PUSH3 0x748 SWAP2 SWAP1 PUSH3 0xB0C JUMP JUMPDEST POP SWAP2 PUSH1 0x20 ADD SWAP2 SWAP1 PUSH1 0x1 ADD SWAP1 PUSH3 0x72E JUMP JUMPDEST JUMPDEST POP SWAP1 POP PUSH3 0x769 SWAP2 SWAP1 PUSH3 0x76D JUMP JUMPDEST POP SWAP1 JUMP JUMPDEST JUMPDEST DUP1 DUP3 GT ISZERO PUSH3 0x791 JUMPI PUSH1 0x0 DUP2 DUP2 PUSH3 0x787 SWAP2 SWAP1 PUSH3 0x795 JUMP JUMPDEST POP PUSH1 0x1 ADD PUSH3 0x76E JUMP JUMPDEST POP SWAP1 JUMP JUMPDEST POP DUP1 SLOAD PUSH3 0x7A3 SWAP1 PUSH3 0x905 JUMP JUMPDEST PUSH1 0x0 DUP3 SSTORE DUP1 PUSH1 0x1F LT PUSH3 0x7B7 JUMPI POP PUSH3 0x7D8 JUMP JUMPDEST PUSH1 0x1F ADD PUSH1 0x20 SWAP1 DIV SWAP1 PUSH1 0x0 MSTORE PUSH1 0x20 PUSH1 0x0 KECCAK256 SWAP1 DUP2 ADD SWAP1 PUSH3 0x7D7 SWAP2 SWAP1 PUSH3 0x7DB JUMP JUMPDEST JUMPDEST POP JUMP JUMPDEST JUMPDEST DUP1 DUP3 GT ISZERO PUSH3 0x7F6 JUMPI PUSH1 0x0 DUP2 PUSH1 0x0 SWAP1 SSTORE POP PUSH1 0x1 ADD PUSH3 0x7DC JUMP JUMPDEST POP SWAP1 JUMP JUMPDEST PUSH1 0x0 DUP2 SWAP1 POP SWAP2 SWAP1 POP JUMP JUMPDEST PUSH32 0x4E487B7100000000000000000000000000000000000000000000000000000000 PUSH1 0x0 MSTORE PUSH1 0x11 PUSH1 0x4 MSTORE PUSH1 0x24 PUSH1 0x0 REVERT JUMPDEST PUSH1 0x0 PUSH3 0x840 DUP3 PUSH3 0x7FA JUMP JUMPDEST SWAP2 POP PUSH3 0x84D DUP4 PUSH3 0x7FA JUMP JUMPDEST SWAP3 POP DUP3 DUP3 SUB SWAP1 POP DUP2 DUP2 GT ISZERO PUSH3 0x868 JUMPI PUSH3 0x867 PUSH3 0x804 JUMP JUMPDEST JUMPDEST SWAP3 SWAP2 POP POP JUMP JUMPDEST PUSH3 0x879 DUP2 PUSH3 0x7FA JUMP JUMPDEST DUP3 MSTORE POP POP JUMP JUMPDEST PUSH1 0x0 PUSH1 0x20 DUP3 ADD SWAP1 POP PUSH3 0x896 PUSH1 0x0 DUP4 ADD DUP5 PUSH3 0x86E JUMP JUMPDEST SWAP3 SWAP2 POP POP JUMP JUMPDEST PUSH1 0x0 DUP2 MLOAD SWAP1 POP SWAP2 SWAP1 POP JUMP JUMPDEST PUSH32 0x4E487B7100000000000000000000000000000000000000000000000000000000 PUSH1 0x0 MSTORE PUSH1 0x41 PUSH1 0x4 MSTORE PUSH1 0x24 PUSH1 0x0 REVERT JUMPDEST PUSH32 0x4E487B7100000000000000000000000000000000000000000000000000000000 PUSH1 0x0 MSTORE PUSH1 0x22 PUSH1 0x4 MSTORE PUSH1 0x24 PUSH1 0x0 REVERT JUMPDEST PUSH1 0x0 PUSH1 0x2 DUP3 DIV SWAP1 POP PUSH1 0x1 DUP3 AND DUP1 PUSH3 0x91E JUMPI PUSH1 0x7F DUP3 AND SWAP2 POP JUMPDEST PUSH1 0x20 DUP3 LT DUP2 SUB PUSH3 0x934 JUMPI PUSH3 0x933 PUSH3 0x8D6 JUMP JUMPDEST JUMPDEST POP SWAP2 SWAP1 POP JUMP JUMPDEST PUSH1 0x0 DUP2 SWAP1 POP DUP2 PUSH1 0x0 MSTORE PUSH1 0x20 PUSH1 0x0 KECCAK256 SWAP1 POP SWAP2 SWAP1 POP JUMP JUMPDEST PUSH1 0x0 PUSH1 0x20 PUSH1 0x1F DUP4 ADD DIV SWAP1 POP SWAP2 SWAP1 POP JUMP JUMPDEST PUSH1 0x0 DUP3 DUP3 SHL SWAP1 POP SWAP3 SWAP2 POP POP JUMP JUMPDEST PUSH1 0x0 PUSH1 0x8 DUP4 MUL PUSH3 0x99E PUSH32 0xFFFFFFFFFFFFFFFFFFFFFFFFFFFFFFFFFFFFFFFFFFFFFFFFFFFFFFFFFFFFFFFF DUP3 PUSH3 0x95F JUMP JUMPDEST PUSH3 0x9AA DUP7 DUP4 PUSH3 0x95F JUMP JUMPDEST SWAP6 POP DUP1 NOT DUP5 AND SWAP4 POP DUP1 DUP7 AND DUP5 OR SWAP3 POP POP POP SWAP4 SWAP3 POP POP POP JUMP JUMPDEST PUSH1 0x0 DUP2 SWAP1 POP SWAP2 SWAP1 POP JUMP JUMPDEST PUSH1 0x0 PUSH3 0x9ED PUSH3 0x9E7 PUSH3 0x9E1 DUP5 PUSH3 0x7FA JUMP JUMPDEST PUSH3 0x9C2 JUMP JUMPDEST PUSH3 0x7FA JUMP JUMPDEST SWAP1 POP SWAP2 SWAP1 POP JUMP JUMPDEST PUSH1 0x0 DUP2 SWAP1 POP SWAP2 SWAP1 POP JUMP JUMPDEST PUSH3 0xA09 DUP4 PUSH3 0x9CC JUMP JUMPDEST PUSH3 0xA21 PUSH3 0xA18 DUP3 PUSH3 0x9F4 JUMP JUMPDEST DUP5 DUP5 SLOAD PUSH3 0x96C JUMP JUMPDEST DUP3 SSTORE POP POP POP POP JUMP JUMPDEST PUSH1 0x0 SWAP1 JUMP JUMPDEST PUSH3 0xA38 PUSH3 0xA29 JUMP JUMPDEST PUSH3 0xA45 DUP2 DUP5 DUP5 PUSH3 0x9FE JUMP JUMPDEST POP POP POP JUMP JUMPDEST JUMPDEST DUP2 DUP2 LT ISZERO PUSH3 0xA6D JUMPI PUSH3 0xA61 PUSH1 0x0 DUP3 PUSH3 0xA2E JUMP JUMPDEST PUSH1 0x1 DUP2 ADD SWAP1 POP PUSH3 0xA4B JUMP JUMPDEST POP POP JUMP JUMPDEST PUSH1 0x1F DUP3 GT ISZERO PUSH3 0xABC JUMPI PUSH3 0xA86 DUP2 PUSH3 0x93A JUMP JUMPDEST PUSH3 0xA91 DUP5 PUSH3 0x94F JUMP JUMPDEST DUP2 ADD PUSH1 0x20 DUP6 LT ISZERO PUSH3 0xAA1 JUMPI DUP2 SWAP1 POP JUMPDEST PUSH3 0xAB9 PUSH3 0xAB0 DUP6 PUSH3 0x94F JUMP JUMPDEST DUP4 ADD DUP3 PUSH3 0xA4A JUMP JUMPDEST POP POP JUMPDEST POP POP POP JUMP JUMPDEST PUSH1 0x0 DUP3 DUP3 SHR SWAP1 POP SWAP3 SWAP2 POP POP JUMP JUMPDEST PUSH1 0x0 PUSH3 0xAE1 PUSH1 0x0 NOT DUP5 PUSH1 0x8 MUL PUSH3 0xAC1 JUMP JUMPDEST NOT DUP1 DUP4 AND SWAP2 POP POP SWAP3 SWAP2 POP POP JUMP JUMPDEST PUSH1 0x0 PUSH3 0xAFC DUP4 DUP4 PUSH3 0xACE JUMP JUMPDEST SWAP2 POP DUP3 PUSH1 0x2 MUL DUP3 OR SWAP1 POP SWAP3 SWAP2 POP POP JUMP JUMPDEST PUSH3 0xB17 DUP3 PUSH3 0x89C JUMP JUMPDEST PUSH8 0xFFFFFFFFFFFFFFFF DUP2 GT ISZERO PUSH3 0xB33 JUMPI PUSH3 0xB32 PUSH3 0x8A7 JUMP JUMPDEST JUMPDEST PUSH3 0xB3F DUP3 SLOAD PUSH3 0x905 JUMP JUMPDEST PUSH3 0xB4C DUP3 DUP3 DUP6 PUSH3 0xA71 JUMP JUMPDEST PUSH1 0x0 PUSH1 0x20 SWAP1 POP PUSH1 0x1F DUP4 GT PUSH1 0x1 DUP2 EQ PUSH3 0xB84 JUMPI PUSH1 0x0 DUP5 ISZERO PUSH3 0xB6F JUMPI DUP3 DUP8 ADD MLOAD SWAP1 POP JUMPDEST PUSH3 0xB7B DUP6 DUP3 PUSH3 0xAEE JUMP JUMPDEST DUP7 SSTORE POP PUSH3 0xBEB JUMP JUMPDEST PUSH1 0x1F NOT DUP5 AND PUSH3 0xB94 DUP7 PUSH3 0x93A JUMP JUMPDEST PUSH1 0x0 JUMPDEST DUP3 DUP2 LT ISZERO PUSH3 0xBBE JUMPI DUP5 DUP10 ADD MLOAD DUP3 SSTORE PUSH1 0x1 DUP3 ADD SWAP2 POP PUSH1 0x20 DUP6 ADD SWAP5 POP PUSH1 0x20 DUP2 ADD SWAP1 POP PUSH3 0xB97 JUMP JUMPDEST DUP7 DUP4 LT ISZERO PUSH3 0xBDE JUMPI DUP5 DUP10 ADD MLOAD PUSH3 0xBDA PUSH1 0x1F DUP10 AND DUP3 PUSH3 0xACE JUMP JUMPDEST DUP4 SSTORE POP JUMPDEST PUSH1 0x1 PUSH1 0x2 DUP9 MUL ADD DUP9 SSTORE POP POP POP JUMPDEST POP POP POP POP POP POP JUMP JUMPDEST PUSH2 0x1379 DUP1 PUSH3 0xC03 PUSH1 0x0 CODECOPY PUSH1 0x0 RETURN INVALID PUSH1 0x80 PUSH1 0x40 MSTORE PUSH1 0x4 CALLDATASIZE LT PUSH2 0x91 JUMPI PUSH1 0x0 CALLDATALOAD PUSH1 0xE0 SHR DUP1 PUSH4 0x8DA5CB5B GT PUSH2 0x59 JUMPI DUP1 PUSH4 0x8DA5CB5B EQ PUSH2 0x15A JUMPI DUP1 PUSH4 0x8F32D59B EQ PUSH2 0x185 JUMPI DUP1 PUSH4 0xB8F7F42A EQ PUSH2 0x1B0 JUMPI DUP1 PUSH4 0xDCF7EEFE EQ PUSH2 0x1D9 JUMPI DUP1 PUSH4 0xF2FDE38B EQ PUSH2 0x216 JUMPI PUSH2 0x91 JUMP JUMPDEST DUP1 PUSH4 0x109C1238 EQ PUSH2 0x96 JUMPI DUP1 PUSH4 0x4315399F EQ PUSH2 0xC1 JUMPI DUP1 PUSH4 0x6F442154 EQ PUSH2 0xDD JUMPI DUP1 PUSH4 0x715018A6 EQ PUSH2 0x11A JUMPI DUP1 PUSH4 0x80CEF3CC EQ PUSH2 0x131 JUMPI JUMPDEST PUSH1 0x0 DUP1 REVERT JUMPDEST CALLVALUE DUP1 ISZERO PUSH2 0xA2 JUMPI PUSH1 0x0 DUP1 REVERT JUMPDEST POP PUSH2 0xAB PUSH2 0x23F JUMP JUMPDEST PUSH1 0x40 MLOAD PUSH2 0xB8 SWAP2 SWAP1 PUSH2 0x9B0 JUMP JUMPDEST PUSH1 0x40 MLOAD DUP1 SWAP2 SUB SWAP1 RETURN JUMPDEST PUSH2 0xDB PUSH1 0x4 DUP1 CALLDATASIZE SUB DUP2 ADD SWAP1 PUSH2 0xD6 SWAP2 SWAP1 PUSH2 0xA0B JUMP JUMPDEST PUSH2 0x245 JUMP JUMPDEST STOP JUMPDEST CALLVALUE DUP1 ISZERO PUSH2 0xE9 JUMPI PUSH1 0x0 DUP1 REVERT JUMPDEST POP PUSH2 0x104 PUSH1 0x4 DUP1 CALLDATASIZE SUB DUP2 ADD SWAP1 PUSH2 0xFF SWAP2 SWAP1 PUSH2 0xAA9 JUMP JUMPDEST PUSH2 0x311 JUMP JUMPDEST PUSH1 0x40 MLOAD PUSH2 0x111 SWAP2 SWAP1 PUSH2 0x9B0 JUMP JUMPDEST PUSH1 0x40 MLOAD DUP1 SWAP2 SUB SWAP1 RETURN JUMPDEST CALLVALUE DUP1 ISZERO PUSH2 0x126 JUMPI PUSH1 0x0 DUP1 REVERT JUMPDEST POP PUSH2 0x12F PUSH2 0x35A JUMP JUMPDEST STOP JUMPDEST CALLVALUE DUP1 ISZERO PUSH2 0x13D JUMPI PUSH1 0x0 DUP1 REVERT JUMPDEST POP PUSH2 0x158 PUSH1 0x4 DUP1 CALLDATASIZE SUB DUP2 ADD SWAP1 PUSH2 0x153 SWAP2 SWAP1 PUSH2 0xAA9 JUMP JUMPDEST PUSH2 0x429 JUMP JUMPDEST STOP JUMPDEST CALLVALUE DUP1 ISZERO PUSH2 0x166 JUMPI PUSH1 0x0 DUP1 REVERT JUMPDEST POP PUSH2 0x16F PUSH2 0x57D JUMP JUMPDEST PUSH1 0x40 MLOAD PUSH2 0x17C SWAP2 SWAP1 PUSH2 0xAE5 JUMP JUMPDEST PUSH1 0x40 MLOAD DUP1 SWAP2 SUB SWAP1 RETURN JUMPDEST CALLVALUE DUP1 ISZERO PUSH2 0x191 JUMPI PUSH1 0x0 DUP1 REVERT JUMPDEST POP PUSH2 0x19A PUSH2 0x5A6 JUMP JUMPDEST PUSH1 0x40 MLOAD PUSH2 0x1A7 SWAP2 SWAP1 PUSH2 0xB1B JUMP JUMPDEST PUSH1 0x40 MLOAD DUP1 SWAP2 SUB SWAP1 RETURN JUMPDEST CALLVALUE DUP1 ISZERO PUSH2 0x1BC JUMPI PUSH1 0x0 DUP1 REVERT JUMPDEST POP PUSH2 0x1D7 PUSH1 0x4 DUP1 CALLDATASIZE SUB DUP2 ADD SWAP1 PUSH2 0x1D2 SWAP2 SWAP1 PUSH2 0xD50 JUMP JUMPDEST PUSH2 0x5FD JUMP JUMPDEST STOP JUMPDEST CALLVALUE DUP1 ISZERO PUSH2 0x1E5 JUMPI PUSH1 0x0 DUP1 REVERT JUMPDEST POP PUSH2 0x200 PUSH1 0x4 DUP1 CALLDATASIZE SUB DUP2 ADD SWAP1 PUSH2 0x1FB SWAP2 SWAP1 PUSH2 0xD99 JUMP JUMPDEST PUSH2 0x6BA JUMP JUMPDEST PUSH1 0x40 MLOAD PUSH2 0x20D SWAP2 SWAP1 PUSH2 0x9B0 JUMP JUMPDEST PUSH1 0x40 MLOAD DUP1 SWAP2 SUB SWAP1 RETURN JUMPDEST CALLVALUE DUP1 ISZERO PUSH2 0x222 JUMPI PUSH1 0x0 DUP1 REVERT JUMPDEST POP PUSH2 0x23D PUSH1 0x4 DUP1 CALLDATASIZE SUB DUP2 ADD SWAP1 PUSH2 0x238 SWAP2 SWAP1 PUSH2 0xAA9 JUMP JUMPDEST PUSH2 0x6DE JUMP JUMPDEST STOP JUMPDEST PUSH1 0x1 SLOAD DUP2 JUMP JUMPDEST PUSH1 0x6 SLOAD CALLVALUE EQ PUSH2 0x289 JUMPI PUSH1 0x40 MLOAD PUSH32 0x8C379A000000000000000000000000000000000000000000000000000000000 DUP2 MSTORE PUSH1 0x4 ADD PUSH2 0x280 SWAP1 PUSH2 0xE49 JUMP JUMPDEST PUSH1 0x40 MLOAD DUP1 SWAP2 SUB SWAP1 REVERT JUMPDEST PUSH1 0x3 DUP1 SLOAD SWAP1 POP DUP2 LT PUSH2 0x2E3 JUMPI PUSH1 0x1 PUSH1 0x3 DUP1 SLOAD SWAP1 POP PUSH2 0x2A7 SWAP2 SWAP1 PUSH2 0xE98 JUMP JUMPDEST PUSH1 0x40 MLOAD PUSH32 0xD8B14A0100000000000000000000000000000000000000000000000000000000 DUP2 MSTORE PUSH1 0x4 ADD PUSH2 0x2DA SWAP2 SWAP1 PUSH2 0x9B0 JUMP JUMPDEST PUSH1 0x40 MLOAD DUP1 SWAP2 SUB SWAP1 REVERT JUMPDEST DUP1 PUSH1 0x7 DUP4 DUP2 SLOAD DUP2 LT PUSH2 0x2F8 JUMPI PUSH2 0x2F7 PUSH2 0xECC JUMP JUMPDEST JUMPDEST SWAP1 PUSH1 0x0 MSTORE PUSH1 0x20 PUSH1 0x0 KECCAK256 SWAP1 PUSH1 0x2 MUL ADD PUSH1 0x0 ADD DUP2 SWAP1 SSTORE POP POP POP JUMP JUMPDEST PUSH1 0x0 PUSH1 0x8 PUSH1 0x0 DUP4 PUSH20 0xFFFFFFFFFFFFFFFFFFFFFFFFFFFFFFFFFFFFFFFF AND PUSH20 0xFFFFFFFFFFFFFFFFFFFFFFFFFFFFFFFFFFFFFFFF AND DUP2 MSTORE PUSH1 0x20 ADD SWAP1 DUP2 MSTORE PUSH1 0x20 ADD PUSH1 0x0 KECCAK256 SLOAD SWAP1 POP SWAP2 SWAP1 POP JUMP JUMPDEST PUSH2 0x362 PUSH2 0x5A6 JUMP JUMPDEST PUSH2 0x36B JUMPI PUSH1 0x0 DUP1 REVERT JUMPDEST PUSH1 0x0 PUSH20 0xFFFFFFFFFFFFFFFFFFFFFFFFFFFFFFFFFFFFFFFF AND PUSH1 0x0 DUP1 SLOAD SWAP1 PUSH2 0x100 EXP SWAP1 DIV PUSH20 0xFFFFFFFFFFFFFFFFFFFFFFFFFFFFFFFFFFFFFFFF AND PUSH20 0xFFFFFFFFFFFFFFFFFFFFFFFFFFFFFFFFFFFFFFFF AND PUSH32 0x8BE0079C531659141344CD1FD0A4F28419497F9722A3DAAFE3B4186F6B6457E0 PUSH1 0x40 MLOAD PUSH1 0x40 MLOAD DUP1 SWAP2 SUB SWAP1 LOG3 PUSH1 0x0 DUP1 PUSH1 0x0 PUSH2 0x100 EXP DUP2 SLOAD DUP2 PUSH20 0xFFFFFFFFFFFFFFFFFFFFFFFFFFFFFFFFFFFFFFFF MUL NOT AND SWAP1 DUP4 PUSH20 0xFFFFFFFFFFFFFFFFFFFFFFFFFFFFFFFFFFFFFFFF AND MUL OR SWAP1 SSTORE POP JUMP JUMPDEST PUSH1 0x0 PUSH1 0x1 PUSH8 0xFFFFFFFFFFFFFFFF DUP2 GT ISZERO PUSH2 0x446 JUMPI PUSH2 0x445 PUSH2 0xB4C JUMP JUMPDEST JUMPDEST PUSH1 0x40 MLOAD SWAP1 DUP1 DUP3 MSTORE DUP1 PUSH1 0x20 MUL PUSH1 0x20 ADD DUP3 ADD PUSH1 0x40 MSTORE DUP1 ISZERO PUSH2 0x474 JUMPI DUP2 PUSH1 0x20 ADD PUSH1 0x20 DUP3 MUL DUP1 CALLDATASIZE DUP4 CALLDATACOPY DUP1 DUP3 ADD SWAP2 POP POP SWAP1 POP JUMPDEST POP SWAP1 POP PUSH1 0x7 PUSH1 0x40 MLOAD DUP1 PUSH1 0x40 ADD PUSH1 0x40 MSTORE DUP1 PUSH2 0x48C PUSH2 0x6FB JUMP JUMPDEST DUP2 MSTORE PUSH1 0x20 ADD DUP4 DUP2 MSTORE POP SWAP1 DUP1 PUSH1 0x1 DUP2 SLOAD ADD DUP1 DUP3 SSTORE DUP1 SWAP2 POP POP PUSH1 0x1 SWAP1 SUB SWAP1 PUSH1 0x0 MSTORE PUSH1 0x20 PUSH1 0x0 KECCAK256 SWAP1 PUSH1 0x2 MUL ADD PUSH1 0x0 SWAP1 SWAP2 SWAP1 SWAP2 SWAP1 SWAP2 POP PUSH1 0x0 DUP3 ADD MLOAD DUP2 PUSH1 0x0 ADD SSTORE PUSH1 0x20 DUP3 ADD MLOAD DUP2 PUSH1 0x1 ADD SWAP1 DUP1 MLOAD SWAP1 PUSH1 0x20 ADD SWAP1 PUSH2 0x4E4 SWAP3 SWAP2 SWAP1 PUSH2 0x870 JUMP JUMPDEST POP POP POP PUSH1 0x0 PUSH1 0x1 PUSH1 0x7 DUP1 SLOAD SWAP1 POP PUSH2 0x4FB SWAP2 SWAP1 PUSH2 0xE98 JUMP JUMPDEST SWAP1 POP DUP1 PUSH1 0x8 PUSH1 0x0 DUP6 PUSH20 0xFFFFFFFFFFFFFFFFFFFFFFFFFFFFFFFFFFFFFFFF AND PUSH20 0xFFFFFFFFFFFFFFFFFFFFFFFFFFFFFFFFFFFFFFFF AND DUP2 MSTORE PUSH1 0x20 ADD SWAP1 DUP2 MSTORE PUSH1 0x20 ADD PUSH1 0x0 KECCAK256 DUP2 SWAP1 SSTORE POP PUSH32 0xAF101D6EB202A80391AEB3BCCFDF77A63A9DD196386BF69AE819408C466875B6 DUP2 PUSH1 0x40 MLOAD PUSH2 0x570 SWAP2 SWAP1 PUSH2 0x9B0 JUMP JUMPDEST PUSH1 0x40 MLOAD DUP1 SWAP2 SUB SWAP1 LOG1 POP POP POP JUMP JUMPDEST PUSH1 0x0 DUP1 PUSH1 0x0 SWAP1 SLOAD SWAP1 PUSH2 0x100 EXP SWAP1 DIV PUSH20 0xFFFFFFFFFFFFFFFFFFFFFFFFFFFFFFFFFFFFFFFF AND SWAP1 POP SWAP1 JUMP JUMPDEST PUSH1 0x0 DUP1 PUSH1 0x0 SWAP1 SLOAD SWAP1 PUSH2 0x100 EXP SWAP1 DIV PUSH20 0xFFFFFFFFFFFFFFFFFFFFFFFFFFFFFFFFFFFFFFFF AND PUSH20 0xFFFFFFFFFFFFFFFFFFFFFFFFFFFFFFFFFFFFFFFF AND CALLER PUSH20 0xFFFFFFFFFFFFFFFFFFFFFFFFFFFFFFFFFFFFFFFF AND EQ SWAP1 POP SWAP1 JUMP JUMPDEST PUSH2 0x605 PUSH2 0x5A6 JUMP JUMPDEST PUSH2 0x60E JUMPI PUSH1 0x0 DUP1 REVERT JUMPDEST PUSH1 0x3 DUP1 DUP1 SLOAD SWAP1 POP SWAP1 DUP1 PUSH1 0x1 DUP2 SLOAD ADD DUP1 DUP3 SSTORE DUP1 SWAP2 POP POP PUSH1 0x1 SWAP1 SUB SWAP1 PUSH1 0x0 MSTORE PUSH1 0x20 PUSH1 0x0 KECCAK256 ADD PUSH1 0x0 SWAP1 SWAP2 SWAP1 SWAP2 SWAP1 SWAP2 POP SSTORE DUP1 PUSH1 0x4 PUSH1 0x0 PUSH1 0x1 PUSH1 0x3 DUP1 SLOAD SWAP1 POP PUSH2 0x652 SWAP2 SWAP1 PUSH2 0xE98 JUMP JUMPDEST DUP2 MSTORE PUSH1 0x20 ADD SWAP1 DUP2 MSTORE PUSH1 0x20 ADD PUSH1 0x0 KECCAK256 SWAP1 PUSH1 0x5 PUSH2 0x66E SWAP3 SWAP2 SWAP1 PUSH2 0x8BD JUMP JUMPDEST POP PUSH32 0xE1C7C98CDEDED3A25C1C7ADA5B85013B2C7C9879F1678129A413EA685D0FCC78 PUSH1 0x1 PUSH1 0x3 DUP1 SLOAD SWAP1 POP PUSH2 0x6A2 SWAP2 SWAP1 PUSH2 0xE98 JUMP JUMPDEST PUSH1 0x40 MLOAD PUSH2 0x6AF SWAP2 SWAP1 PUSH2 0x9B0 JUMP JUMPDEST PUSH1 0x40 MLOAD DUP1 SWAP2 SUB SWAP1 LOG1 POP JUMP JUMPDEST PUSH1 0x3 DUP2 DUP2 SLOAD DUP2 LT PUSH2 0x6CA JUMPI PUSH1 0x0 DUP1 REVERT JUMPDEST SWAP1 PUSH1 0x0 MSTORE PUSH1 0x20 PUSH1 0x0 KECCAK256 ADD PUSH1 0x0 SWAP2 POP SWAP1 POP SLOAD DUP2 JUMP JUMPDEST PUSH2 0x6E6 PUSH2 0x5A6 JUMP JUMPDEST PUSH2 0x6EF JUMPI PUSH1 0x0 DUP1 REVERT JUMPDEST PUSH2 0x6F8 DUP2 PUSH2 0x71C JUMP JUMPDEST POP JUMP JUMPDEST PUSH1 0x0 PUSH2 0x717 PUSH1 0x1 PUSH1 0x3 DUP1 SLOAD SWAP1 POP PUSH2 0x712 SWAP2 SWAP1 PUSH2 0xE98 JUMP JUMPDEST PUSH2 0x812 JUMP JUMPDEST SWAP1 POP SWAP1 JUMP JUMPDEST PUSH1 0x0 PUSH20 0xFFFFFFFFFFFFFFFFFFFFFFFFFFFFFFFFFFFFFFFF AND DUP2 PUSH20 0xFFFFFFFFFFFFFFFFFFFFFFFFFFFFFFFFFFFFFFFF AND SUB PUSH2 0x755 JUMPI PUSH1 0x0 DUP1 REVERT JUMPDEST DUP1 PUSH20 0xFFFFFFFFFFFFFFFFFFFFFFFFFFFFFFFFFFFFFFFF AND PUSH1 0x0 DUP1 SLOAD SWAP1 PUSH2 0x100 EXP SWAP1 DIV PUSH20 0xFFFFFFFFFFFFFFFFFFFFFFFFFFFFFFFFFFFFFFFF AND PUSH20 0xFFFFFFFFFFFFFFFFFFFFFFFFFFFFFFFFFFFFFFFF AND PUSH32 0x8BE0079C531659141344CD1FD0A4F28419497F9722A3DAAFE3B4186F6B6457E0 PUSH1 0x40 MLOAD PUSH1 0x40 MLOAD DUP1 SWAP2 SUB SWAP1 LOG3 DUP1 PUSH1 0x0 DUP1 PUSH2 0x100 EXP DUP2 SLOAD DUP2 PUSH20 0xFFFFFFFFFFFFFFFFFFFFFFFFFFFFFFFFFFFFFFFF MUL NOT AND SWAP1 DUP4 PUSH20 0xFFFFFFFFFFFFFFFFFFFFFFFFFFFFFFFFFFFFFFFF AND MUL OR SWAP1 SSTORE POP POP JUMP JUMPDEST PUSH1 0x0 PUSH1 0x2 PUSH1 0x0 DUP2 SLOAD DUP1 SWAP3 SWAP2 SWAP1 PUSH2 0x827 SWAP1 PUSH2 0xEFB JUMP JUMPDEST SWAP2 SWAP1 POP SSTORE POP DUP2 TIMESTAMP PREVRANDAO CALLER PUSH1 0x2 SLOAD PUSH1 0x40 MLOAD PUSH1 0x20 ADD PUSH2 0x846 SWAP5 SWAP4 SWAP3 SWAP2 SWAP1 PUSH2 0xFAC JUMP JUMPDEST PUSH1 0x40 MLOAD PUSH1 0x20 DUP2 DUP4 SUB SUB DUP2 MSTORE SWAP1 PUSH1 0x40 MSTORE DUP1 MLOAD SWAP1 PUSH1 0x20 ADD KECCAK256 PUSH1 0x0 SHR PUSH2 0x869 SWAP2 SWAP1 PUSH2 0x1029 JUMP JUMPDEST SWAP1 POP SWAP2 SWAP1 POP JUMP JUMPDEST DUP3 DUP1 SLOAD DUP3 DUP3 SSTORE SWAP1 PUSH1 0x0 MSTORE PUSH1 0x20 PUSH1 0x0 KECCAK256 SWAP1 DUP2 ADD SWAP3 DUP3 ISZERO PUSH2 0x8AC JUMPI SWAP2 PUSH1 0x20 MUL DUP3 ADD JUMPDEST DUP3 DUP2 GT ISZERO PUSH2 0x8AB JUMPI DUP3 MLOAD DUP3 SSTORE SWAP2 PUSH1 0x20 ADD SWAP2 SWAP1 PUSH1 0x1 ADD SWAP1 PUSH2 0x890 JUMP JUMPDEST JUMPDEST POP SWAP1 POP PUSH2 0x8B9 SWAP2 SWAP1 PUSH2 0x916 JUMP JUMPDEST POP SWAP1 JUMP JUMPDEST DUP3 DUP1 SLOAD DUP3 DUP3 SSTORE SWAP1 PUSH1 0x0 MSTORE PUSH1 0x20 PUSH1 0x0 KECCAK256 SWAP1 DUP2 ADD SWAP3 DUP3 ISZERO PUSH2 0x905 JUMPI SWAP2 PUSH1 0x20 MUL DUP3 ADD JUMPDEST DUP3 DUP2 GT ISZERO PUSH2 0x904 JUMPI DUP3 MLOAD DUP3 SWAP1 DUP2 PUSH2 0x8F4 SWAP2 SWAP1 PUSH2 0x1271 JUMP JUMPDEST POP SWAP2 PUSH1 0x20 ADD SWAP2 SWAP1 PUSH1 0x1 ADD SWAP1 PUSH2 0x8DD JUMP JUMPDEST JUMPDEST POP SWAP1 POP PUSH2 0x912 SWAP2 SWAP1 PUSH2 0x933 JUMP JUMPDEST POP SWAP1 JUMP JUMPDEST JUMPDEST DUP1 DUP3 GT ISZERO PUSH2 0x92F JUMPI PUSH1 0x0 DUP2 PUSH1 0x0 SWAP1 SSTORE POP PUSH1 0x1 ADD PUSH2 0x917 JUMP JUMPDEST POP SWAP1 JUMP JUMPDEST JUMPDEST DUP1 DUP3 GT ISZERO PUSH2 0x953 JUMPI PUSH1 0x0 DUP2 DUP2 PUSH2 0x94A SWAP2 SWAP1 PUSH2 0x957 JUMP JUMPDEST POP PUSH1 0x1 ADD PUSH2 0x934 JUMP JUMPDEST POP SWAP1 JUMP JUMPDEST POP DUP1 SLOAD PUSH2 0x963 SWAP1 PUSH2 0x1094 JUMP JUMPDEST PUSH1 0x0 DUP3 SSTORE DUP1 PUSH1 0x1F LT PUSH2 0x975 JUMPI POP PUSH2 0x994 JUMP JUMPDEST PUSH1 0x1F ADD PUSH1 0x20 SWAP1 DIV SWAP1 PUSH1 0x0 MSTORE PUSH1 0x20 PUSH1 0x0 KECCAK256 SWAP1 DUP2 ADD SWAP1 PUSH2 0x993 SWAP2 SWAP1 PUSH2 0x916 JUMP JUMPDEST JUMPDEST POP JUMP JUMPDEST PUSH1 0x0 DUP2 SWAP1 POP SWAP2 SWAP1 POP JUMP JUMPDEST PUSH2 0x9AA DUP2 PUSH2 0x997 JUMP JUMPDEST DUP3 MSTORE POP POP JUMP JUMPDEST PUSH1 0x0 PUSH1 0x20 DUP3 ADD SWAP1 POP PUSH2 0x9C5 PUSH1 0x0 DUP4 ADD DUP5 PUSH2 0x9A1 JUMP JUMPDEST SWAP3 SWAP2 POP POP JUMP JUMPDEST PUSH1 0x0 PUSH1 0x40 MLOAD SWAP1 POP SWAP1 JUMP JUMPDEST PUSH1 0x0 DUP1 REVERT JUMPDEST PUSH1 0x0 DUP1 REVERT JUMPDEST PUSH2 0x9E8 DUP2 PUSH2 0x997 JUMP JUMPDEST DUP2 EQ PUSH2 0x9F3 JUMPI PUSH1 0x0 DUP1 REVERT JUMPDEST POP JUMP JUMPDEST PUSH1 0x0 DUP2 CALLDATALOAD SWAP1 POP PUSH2 0xA05 DUP2 PUSH2 0x9DF JUMP JUMPDEST SWAP3 SWAP2 POP POP JUMP JUMPDEST PUSH1 0x0 DUP1 PUSH1 0x40 DUP4 DUP6 SUB SLT ISZERO PUSH2 0xA22 JUMPI PUSH2 0xA21 PUSH2 0x9D5 JUMP JUMPDEST JUMPDEST PUSH1 0x0 PUSH2 0xA30 DUP6 DUP3 DUP7 ADD PUSH2 0x9F6 JUMP JUMPDEST SWAP3 POP POP PUSH1 0x20 PUSH2 0xA41 DUP6 DUP3 DUP7 ADD PUSH2 0x9F6 JUMP JUMPDEST SWAP2 POP POP SWAP3 POP SWAP3 SWAP1 POP JUMP JUMPDEST PUSH1 0x0 PUSH20 0xFFFFFFFFFFFFFFFFFFFFFFFFFFFFFFFFFFFFFFFF DUP3 AND SWAP1 POP SWAP2 SWAP1 POP JUMP JUMPDEST PUSH1 0x0 PUSH2 0xA76 DUP3 PUSH2 0xA4B JUMP JUMPDEST SWAP1 POP SWAP2 SWAP1 POP JUMP JUMPDEST PUSH2 0xA86 DUP2 PUSH2 0xA6B JUMP JUMPDEST DUP2 EQ PUSH2 0xA91 JUMPI PUSH1 0x0 DUP1 REVERT JUMPDEST POP JUMP JUMPDEST PUSH1 0x0 DUP2 CALLDATALOAD SWAP1 POP PUSH2 0xAA3 DUP2 PUSH2 0xA7D JUMP JUMPDEST SWAP3 SWAP2 POP POP JUMP JUMPDEST PUSH1 0x0 PUSH1 0x20 DUP3 DUP5 SUB SLT ISZERO PUSH2 0xABF JUMPI PUSH2 0xABE PUSH2 0x9D5 JUMP JUMPDEST JUMPDEST PUSH1 0x0 PUSH2 0xACD DUP5 DUP3 DUP6 ADD PUSH2 0xA94 JUMP JUMPDEST SWAP2 POP POP SWAP3 SWAP2 POP POP JUMP JUMPDEST PUSH2 0xADF DUP2 PUSH2 0xA6B JUMP JUMPDEST DUP3 MSTORE POP POP JUMP JUMPDEST PUSH1 0x0 PUSH1 0x20 DUP3 ADD SWAP1 POP PUSH2 0xAFA PUSH1 0x0 DUP4 ADD DUP5 PUSH2 0xAD6 JUMP JUMPDEST SWAP3 SWAP2 POP POP JUMP JUMPDEST PUSH1 0x0 DUP2 ISZERO ISZERO SWAP1 POP SWAP2 SWAP1 POP JUMP JUMPDEST PUSH2 0xB15 DUP2 PUSH2 0xB00 JUMP JUMPDEST DUP3 MSTORE POP POP JUMP JUMPDEST PUSH1 0x0 PUSH1 0x20 DUP3 ADD SWAP1 POP PUSH2 0xB30 PUSH1 0x0 DUP4 ADD DUP5 PUSH2 0xB0C JUMP JUMPDEST SWAP3 SWAP2 POP POP JUMP JUMPDEST PUSH1 0x0 DUP1 REVERT JUMPDEST PUSH1 0x0 PUSH1 0x1F NOT PUSH1 0x1F DUP4 ADD AND SWAP1 POP SWAP2 SWAP1 POP JUMP JUMPDEST PUSH32 0x4E487B7100000000000000000000000000000000000000000000000000000000 PUSH1 0x0 MSTORE PUSH1 0x41 PUSH1 0x4 MSTORE PUSH1 0x24 PUSH1 0x0 REVERT JUMPDEST PUSH2 0xB84 DUP3 PUSH2 0xB3B JUMP JUMPDEST DUP2 ADD DUP2 DUP2 LT PUSH8 0xFFFFFFFFFFFFFFFF DUP3 GT OR ISZERO PUSH2 0xBA3 JUMPI PUSH2 0xBA2 PUSH2 0xB4C JUMP JUMPDEST JUMPDEST DUP1 PUSH1 0x40 MSTORE POP POP POP JUMP JUMPDEST PUSH1 0x0 PUSH2 0xBB6 PUSH2 0x9CB JUMP JUMPDEST SWAP1 POP PUSH2 0xBC2 DUP3 DUP3 PUSH2 0xB7B JUMP JUMPDEST SWAP2 SWAP1 POP JUMP JUMPDEST PUSH1 0x0 PUSH8 0xFFFFFFFFFFFFFFFF DUP3 GT ISZERO PUSH2 0xBE2 JUMPI PUSH2 0xBE1 PUSH2 0xB4C JUMP JUMPDEST JUMPDEST PUSH1 0x20 DUP3 MUL SWAP1 POP SWAP2 SWAP1 POP JUMP JUMPDEST PUSH1 0x0 DUP1 REVERT JUMPDEST PUSH1 0x0 DUP1 REVERT JUMPDEST PUSH1 0x0 PUSH8 0xFFFFFFFFFFFFFFFF DUP3 GT ISZERO PUSH2 0xC12 JUMPI PUSH2 0xC11 PUSH2 0xB4C JUMP JUMPDEST JUMPDEST PUSH2 0xC1B DUP3 PUSH2 0xB3B JUMP JUMPDEST SWAP1 POP PUSH1 0x20 DUP2 ADD SWAP1 POP SWAP2 SWAP1 POP JUMP JUMPDEST DUP3 DUP2 DUP4 CALLDATACOPY PUSH1 0x0 DUP4 DUP4 ADD MSTORE POP POP POP JUMP JUMPDEST PUSH1 0x0 PUSH2 0xC4A PUSH2 0xC45 DUP5 PUSH2 0xBF7 JUMP JUMPDEST PUSH2 0xBAC JUMP JUMPDEST SWAP1 POP DUP3 DUP2 MSTORE PUSH1 0x20 DUP2 ADD DUP5 DUP5 DUP5 ADD GT ISZERO PUSH2 0xC66 JUMPI PUSH2 0xC65 PUSH2 0xBF2 JUMP JUMPDEST JUMPDEST PUSH2 0xC71 DUP5 DUP3 DUP6 PUSH2 0xC28 JUMP JUMPDEST POP SWAP4 SWAP3 POP POP POP JUMP JUMPDEST PUSH1 0x0 DUP3 PUSH1 0x1F DUP4 ADD SLT PUSH2 0xC8E JUMPI PUSH2 0xC8D PUSH2 0xB36 JUMP JUMPDEST JUMPDEST DUP2 CALLDATALOAD PUSH2 0xC9E DUP5 DUP3 PUSH1 0x20 DUP7 ADD PUSH2 0xC37 JUMP JUMPDEST SWAP2 POP POP SWAP3 SWAP2 POP POP JUMP JUMPDEST PUSH1 0x0 PUSH2 0xCBA PUSH2 0xCB5 DUP5 PUSH2 0xBC7 JUMP JUMPDEST PUSH2 0xBAC JUMP JUMPDEST SWAP1 POP DUP1 PUSH1 0x20 DUP5 MUL DUP4 ADD DUP6 DUP2 GT ISZERO PUSH2 0xCD4 JUMPI PUSH2 0xCD3 PUSH2 0xBED JUMP JUMPDEST JUMPDEST DUP4 JUMPDEST DUP2 DUP2 LT ISZERO PUSH2 0xD1B JUMPI DUP1 CALLDATALOAD PUSH8 0xFFFFFFFFFFFFFFFF DUP2 GT ISZERO PUSH2 0xCF9 JUMPI PUSH2 0xCF8 PUSH2 0xB36 JUMP JUMPDEST JUMPDEST DUP1 DUP7 ADD PUSH2 0xD06 DUP10 DUP3 PUSH2 0xC79 JUMP JUMPDEST DUP6 MSTORE PUSH1 0x20 DUP6 ADD SWAP5 POP POP POP PUSH1 0x20 DUP2 ADD SWAP1 POP PUSH2 0xCD6 JUMP JUMPDEST POP POP POP SWAP4 SWAP3 POP POP POP JUMP JUMPDEST PUSH1 0x0 DUP3 PUSH1 0x1F DUP4 ADD SLT PUSH2 0xD3A JUMPI PUSH2 0xD39 PUSH2 0xB36 JUMP JUMPDEST JUMPDEST PUSH1 0x5 PUSH2 0xD47 DUP5 DUP3 DUP6 PUSH2 0xCA7 JUMP JUMPDEST SWAP2 POP POP SWAP3 SWAP2 POP POP JUMP JUMPDEST PUSH1 0x0 PUSH1 0x20 DUP3 DUP5 SUB SLT ISZERO PUSH2 0xD66 JUMPI PUSH2 0xD65 PUSH2 0x9D5 JUMP JUMPDEST JUMPDEST PUSH1 0x0 DUP3 ADD CALLDATALOAD PUSH8 0xFFFFFFFFFFFFFFFF DUP2 GT ISZERO PUSH2 0xD84 JUMPI PUSH2 0xD83 PUSH2 0x9DA JUMP JUMPDEST JUMPDEST PUSH2 0xD90 DUP5 DUP3 DUP6 ADD PUSH2 0xD25 JUMP JUMPDEST SWAP2 POP POP SWAP3 SWAP2 POP POP JUMP JUMPDEST PUSH1 0x0 PUSH1 0x20 DUP3 DUP5 SUB SLT ISZERO PUSH2 0xDAF JUMPI PUSH2 0xDAE PUSH2 0x9D5 JUMP JUMPDEST JUMPDEST PUSH1 0x0 PUSH2 0xDBD DUP5 DUP3 DUP6 ADD PUSH2 0x9F6 JUMP JUMPDEST SWAP2 POP POP SWAP3 SWAP2 POP POP JUMP JUMPDEST PUSH1 0x0 DUP3 DUP3 MSTORE PUSH1 0x20 DUP3 ADD SWAP1 POP SWAP3 SWAP2 POP POP JUMP JUMPDEST PUSH32 0x53747261776265727279446F6E6F72466163746F72793A205748595F534F5F43 PUSH1 0x0 DUP3 ADD MSTORE PUSH32 0x484541503F000000000000000000000000000000000000000000000000000000 PUSH1 0x20 DUP3 ADD MSTORE POP JUMP JUMPDEST PUSH1 0x0 PUSH2 0xE33 PUSH1 0x25 DUP4 PUSH2 0xDC6 JUMP JUMPDEST SWAP2 POP PUSH2 0xE3E DUP3 PUSH2 0xDD7 JUMP JUMPDEST PUSH1 0x40 DUP3 ADD SWAP1 POP SWAP2 SWAP1 POP JUMP JUMPDEST PUSH1 0x0 PUSH1 0x20 DUP3 ADD SWAP1 POP DUP2 DUP2 SUB PUSH1 0x0 DUP4 ADD MSTORE PUSH2 0xE62 DUP2 PUSH2 0xE26 JUMP JUMPDEST SWAP1 POP SWAP2 SWAP1 POP JUMP JUMPDEST PUSH32 0x4E487B7100000000000000000000000000000000000000000000000000000000 PUSH1 0x0 MSTORE PUSH1 0x11 PUSH1 0x4 MSTORE PUSH1 0x24 PUSH1 0x0 REVERT JUMPDEST PUSH1 0x0 PUSH2 0xEA3 DUP3 PUSH2 0x997 JUMP JUMPDEST SWAP2 POP PUSH2 0xEAE DUP4 PUSH2 0x997 JUMP JUMPDEST SWAP3 POP DUP3 DUP3 SUB SWAP1 POP DUP2 DUP2 GT ISZERO PUSH2 0xEC6 JUMPI PUSH2 0xEC5 PUSH2 0xE69 JUMP JUMPDEST JUMPDEST SWAP3 SWAP2 POP POP JUMP JUMPDEST PUSH32 0x4E487B7100000000000000000000000000000000000000000000000000000000 PUSH1 0x0 MSTORE PUSH1 0x32 PUSH1 0x4 MSTORE PUSH1 0x24 PUSH1 0x0 REVERT JUMPDEST PUSH1 0x0 PUSH2 0xF06 DUP3 PUSH2 0x997 JUMP JUMPDEST SWAP2 POP PUSH32 0xFFFFFFFFFFFFFFFFFFFFFFFFFFFFFFFFFFFFFFFFFFFFFFFFFFFFFFFFFFFFFFFF DUP3 SUB PUSH2 0xF38 JUMPI PUSH2 0xF37 PUSH2 0xE69 JUMP JUMPDEST JUMPDEST PUSH1 0x1 DUP3 ADD SWAP1 POP SWAP2 SWAP1 POP JUMP JUMPDEST PUSH1 0x0 DUP2 SWAP1 POP SWAP2 SWAP1 POP JUMP JUMPDEST PUSH2 0xF5E PUSH2 0xF59 DUP3 PUSH2 0x997 JUMP JUMPDEST PUSH2 0xF43 JUMP JUMPDEST DUP3 MSTORE POP POP JUMP JUMPDEST PUSH1 0x0 DUP2 PUSH1 0x60 SHL SWAP1 POP SWAP2 SWAP1 POP JUMP JUMPDEST PUSH1 0x0 PUSH2 0xF7C DUP3 PUSH2 0xF64 JUMP JUMPDEST SWAP1 POP SWAP2 SWAP1 POP JUMP JUMPDEST PUSH1 0x0 PUSH2 0xF8E DUP3 PUSH2 0xF71 JUMP JUMPDEST SWAP1 POP SWAP2 SWAP1 POP JUMP JUMPDEST PUSH2 0xFA6 PUSH2 0xFA1 DUP3 PUSH2 0xA6B JUMP JUMPDEST PUSH2 0xF83 JUMP JUMPDEST DUP3 MSTORE POP POP JUMP JUMPDEST PUSH1 0x0 PUSH2 0xFB8 DUP3 DUP8 PUSH2 0xF4D JUMP JUMPDEST PUSH1 0x20 DUP3 ADD SWAP2 POP PUSH2 0xFC8 DUP3 DUP7 PUSH2 0xF4D JUMP JUMPDEST PUSH1 0x20 DUP3 ADD SWAP2 POP PUSH2 0xFD8 DUP3 DUP6 PUSH2 0xF95 JUMP JUMPDEST PUSH1 0x14 DUP3 ADD SWAP2 POP PUSH2 0xFE8 DUP3 DUP5 PUSH2 0xF4D JUMP JUMPDEST PUSH1 0x20 DUP3 ADD SWAP2 POP DUP2 SWAP1 POP SWAP6 SWAP5 POP POP POP POP POP JUMP JUMPDEST PUSH32 0x4E487B7100000000000000000000000000000000000000000000000000000000 PUSH1 0x0 MSTORE PUSH1 0x12 PUSH1 0x4 MSTORE PUSH1 0x24 PUSH1 0x0 REVERT JUMPDEST PUSH1 0x0 PUSH2 0x1034 DUP3 PUSH2 0x997 JUMP JUMPDEST SWAP2 POP PUSH2 0x103F DUP4 PUSH2 0x997 JUMP JUMPDEST SWAP3 POP DUP3 PUSH2 0x104F JUMPI PUSH2 0x104E PUSH2 0xFFA JUMP JUMPDEST JUMPDEST DUP3 DUP3 MOD SWAP1 POP SWAP3 SWAP2 POP POP JUMP JUMPDEST PUSH1 0x0 DUP2 MLOAD SWAP1 POP SWAP2 SWAP1 POP JUMP JUMPDEST PUSH32 0x4E487B7100000000000000000000000000000000000000000000000000000000 PUSH1 0x0 MSTORE PUSH1 0x22 PUSH1 0x4 MSTORE PUSH1 0x24 PUSH1 0x0 REVERT JUMPDEST PUSH1 0x0 PUSH1 0x2 DUP3 DIV SWAP1 POP PUSH1 0x1 DUP3 AND DUP1 PUSH2 0x10AC JUMPI PUSH1 0x7F DUP3 AND SWAP2 POP JUMPDEST PUSH1 0x20 DUP3 LT DUP2 SUB PUSH2 0x10BF JUMPI PUSH2 0x10BE PUSH2 0x1065 JUMP JUMPDEST JUMPDEST POP SWAP2 SWAP1 POP JUMP JUMPDEST PUSH1 0x0 DUP2 SWAP1 POP DUP2 PUSH1 0x0 MSTORE PUSH1 0x20 PUSH1 0x0 KECCAK256 SWAP1 POP SWAP2 SWAP1 POP JUMP JUMPDEST PUSH1 0x0 PUSH1 0x20 PUSH1 0x1F DUP4 ADD DIV SWAP1 POP SWAP2 SWAP1 POP JUMP JUMPDEST PUSH1 0x0 DUP3 DUP3 SHL SWAP1 POP SWAP3 SWAP2 POP POP JUMP JUMPDEST PUSH1 0x0 PUSH1 0x8 DUP4 MUL PUSH2 0x1127 PUSH32 0xFFFFFFFFFFFFFFFFFFFFFFFFFFFFFFFFFFFFFFFFFFFFFFFFFFFFFFFFFFFFFFFF DUP3 PUSH2 0x10EA JUMP JUMPDEST PUSH2 0x1131 DUP7 DUP4 PUSH2 0x10EA JUMP JUMPDEST SWAP6 POP DUP1 NOT DUP5 AND SWAP4 POP DUP1 DUP7 AND DUP5 OR SWAP3 POP POP POP SWAP4 SWAP3 POP POP POP JUMP JUMPDEST PUSH1 0x0 DUP2 SWAP1 POP SWAP2 SWAP1 POP JUMP JUMPDEST PUSH1 0x0 PUSH2 0x116E PUSH2 0x1169 PUSH2 0x1164 DUP5 PUSH2 0x997 JUMP JUMPDEST PUSH2 0x1149 JUMP JUMPDEST PUSH2 0x997 JUMP JUMPDEST SWAP1 POP SWAP2 SWAP1 POP JUMP JUMPDEST PUSH1 0x0 DUP2 SWAP1 POP SWAP2 SWAP1 POP JUMP JUMPDEST PUSH2 0x1188 DUP4 PUSH2 0x1153 JUMP JUMPDEST PUSH2 0x119C PUSH2 0x1194 DUP3 PUSH2 0x1175 JUMP JUMPDEST DUP5 DUP5 SLOAD PUSH2 0x10F7 JUMP JUMPDEST DUP3 SSTORE POP POP POP POP JUMP JUMPDEST PUSH1 0x0 SWAP1 JUMP JUMPDEST PUSH2 0x11B1 PUSH2 0x11A4 JUMP JUMPDEST PUSH2 0x11BC DUP2 DUP5 DUP5 PUSH2 0x117F JUMP JUMPDEST POP POP POP JUMP JUMPDEST JUMPDEST DUP2 DUP2 LT ISZERO PUSH2 0x11E0 JUMPI PUSH2 0x11D5 PUSH1 0x0 DUP3 PUSH2 0x11A9 JUMP JUMPDEST PUSH1 0x1 DUP2 ADD SWAP1 POP PUSH2 0x11C2 JUMP JUMPDEST POP POP JUMP JUMPDEST PUSH1 0x1F DUP3 GT ISZERO PUSH2 0x1225 JUMPI PUSH2 0x11F6 DUP2 PUSH2 0x10C5 JUMP JUMPDEST PUSH2 0x11FF DUP5 PUSH2 0x10DA JUMP JUMPDEST DUP2 ADD PUSH1 0x20 DUP6 LT ISZERO PUSH2 0x120E JUMPI DUP2 SWAP1 POP JUMPDEST PUSH2 0x1222 PUSH2 0x121A DUP6 PUSH2 0x10DA JUMP JUMPDEST DUP4 ADD DUP3 PUSH2 0x11C1 JUMP JUMPDEST POP POP JUMPDEST POP POP POP JUMP JUMPDEST PUSH1 0x0 DUP3 DUP3 SHR SWAP1 POP SWAP3 SWAP2 POP POP JUMP JUMPDEST PUSH1 0x0 PUSH2 0x1248 PUSH1 0x0 NOT DUP5 PUSH1 0x8 MUL PUSH2 0x122A JUMP JUMPDEST NOT DUP1 DUP4 AND SWAP2 POP POP SWAP3 SWAP2 POP POP JUMP JUMPDEST PUSH1 0x0 PUSH2 0x1261 DUP4 DUP4 PUSH2 0x1237 JUMP JUMPDEST SWAP2 POP DUP3 PUSH1 0x2 MUL DUP3 OR SWAP1 POP SWAP3 SWAP2 POP POP JUMP JUMPDEST PUSH2 0x127A DUP3 PUSH2 0x105A JUMP JUMPDEST PUSH8 0xFFFFFFFFFFFFFFFF DUP2 GT ISZERO PUSH2 0x1293 JUMPI PUSH2 0x1292 PUSH2 0xB4C JUMP JUMPDEST JUMPDEST PUSH2 0x129D DUP3 SLOAD PUSH2 0x1094 JUMP JUMPDEST PUSH2 0x12A8 DUP3 DUP3 DUP6 PUSH2 0x11E4 JUMP JUMPDEST PUSH1 0x0 PUSH1 0x20 SWAP1 POP PUSH1 0x1F DUP4 GT PUSH1 0x1 DUP2 EQ PUSH2 0x12DB JUMPI PUSH1 0x0 DUP5 ISZERO PUSH2 0x12C9 JUMPI DUP3 DUP8 ADD MLOAD SWAP1 POP JUMPDEST PUSH2 0x12D3 DUP6 DUP3 PUSH2 0x1255 JUMP JUMPDEST DUP7 SSTORE POP PUSH2 0x133B JUMP JUMPDEST PUSH1 0x1F NOT DUP5 AND PUSH2 0x12E9 DUP7 PUSH2 0x10C5 JUMP JUMPDEST PUSH1 0x0 JUMPDEST DUP3 DUP2 LT ISZERO PUSH2 0x1311 JUMPI DUP5 DUP10 ADD MLOAD DUP3 SSTORE PUSH1 0x1 DUP3 ADD SWAP2 POP PUSH1 0x20 DUP6 ADD SWAP5 POP PUSH1 0x20 DUP2 ADD SWAP1 POP PUSH2 0x12EC JUMP JUMPDEST DUP7 DUP4 LT ISZERO PUSH2 0x132E JUMPI DUP5 DUP10 ADD MLOAD PUSH2 0x132A PUSH1 0x1F DUP10 AND DUP3 PUSH2 0x1237 JUMP JUMPDEST DUP4 SSTORE POP JUMPDEST PUSH1 0x1 PUSH1 0x2 DUP9 MUL ADD DUP9 SSTORE POP POP POP JUMPDEST POP POP POP POP POP POP JUMP INVALID LOG2 PUSH5 0x6970667358 0x22 SLT KECCAK256 RETURN 0xCD AND REVERT 0xAF MULMOD PC ADDMOD 0xB9 BYTE 0xC2 NOT PUSH7 0x3DBB256FCF1461 0x4B 0xD6 PUSH19 0x96C0B2022C5711711A64736F6C634300081200 CALLER "
		},
		"gasEstimates": {
			"creation": {
				"codeDepositCost": "997000",
				"executionCost": "infinite",
				"totalCost": "infinite"
			},
			"external": {
				"_createDonor(address)": "infinite",
				"addPalette(string[5])": "infinite",
				"changeColorPalette(uint256,uint256)": "infinite",
				"colorAmountPerPalette()": "2430",
				"getOwnerByAddress(address)": "2886",
				"isOwner()": "2518",
				"owner()": "2522",
				"palettes(uint256)": "infinite",
				"renounceOwnership()": "30361",
				"transferOwnership(address)": "30757"
			},
			"internal": {
				"_addItem(uint256)": "infinite"
			}
		},
		"methodIdentifiers": {
			"_createDonor(address)": "80cef3cc",
			"addPalette(string[5])": "b8f7f42a",
			"changeColorPalette(uint256,uint256)": "4315399f",
			"colorAmountPerPalette()": "109c1238",
			"getOwnerByAddress(address)": "6f442154",
			"isOwner()": "8f32d59b",
			"owner()": "8da5cb5b",
			"palettes(uint256)": "dcf7eefe",
			"renounceOwnership()": "715018a6",
			"transferOwnership(address)": "f2fde38b"
		}
	},
	"abi": [
		{
			"inputs": [
				{
					"internalType": "uint256",
					"name": "correctIndex",
					"type": "uint256"
				}
			],
			"name": "InvalidData",
			"type": "error"
		},
		{
			"anonymous": false,
			"inputs": [
				{
					"indexed": false,
					"internalType": "uint256",
					"name": "donorId",
					"type": "uint256"
				}
			],
			"name": "DonorCreated",
			"type": "event"
		},
		{
			"anonymous": false,
			"inputs": [
				{
					"indexed": false,
					"internalType": "uint256",
					"name": "itemId",
					"type": "uint256"
				},
				{
					"indexed": false,
					"internalType": "uint256",
					"name": "itemColorId",
					"type": "uint256"
				}
			],
			"name": "ItemAdded",
			"type": "event"
		},
		{
			"anonymous": false,
			"inputs": [
				{
					"indexed": true,
					"internalType": "address",
					"name": "previousOwner",
					"type": "address"
				},
				{
					"indexed": true,
					"internalType": "address",
					"name": "newOwner",
					"type": "address"
				}
			],
			"name": "OwnershipTransferred",
			"type": "event"
		},
		{
			"anonymous": false,
			"inputs": [
				{
					"indexed": false,
					"internalType": "uint256",
					"name": "paletteId",
					"type": "uint256"
				}
			],
			"name": "PaletteCreated",
			"type": "event"
		},
		{
			"inputs": [
				{
					"internalType": "address",
					"name": "_donorAddress",
					"type": "address"
				}
			],
			"name": "_createDonor",
			"outputs": [],
			"stateMutability": "nonpayable",
			"type": "function"
		},
		{
			"inputs": [
				{
					"internalType": "string[5]",
					"name": "_colors",
					"type": "string[5]"
				}
			],
			"name": "addPalette",
			"outputs": [],
			"stateMutability": "nonpayable",
			"type": "function"
		},
		{
			"inputs": [
				{
					"internalType": "uint256",
					"name": "_donorId",
					"type": "uint256"
				},
				{
					"internalType": "uint256",
					"name": "_paletteId",
					"type": "uint256"
				}
			],
			"name": "changeColorPalette",
			"outputs": [],
			"stateMutability": "payable",
			"type": "function"
		},
		{
			"inputs": [],
			"name": "colorAmountPerPalette",
			"outputs": [
				{
					"internalType": "uint256",
					"name": "",
					"type": "uint256"
				}
			],
			"stateMutability": "view",
			"type": "function"
		},
		{
			"inputs": [
				{
					"internalType": "address",
					"name": "_owner",
					"type": "address"
				}
			],
			"name": "getOwnerByAddress",
			"outputs": [
				{
					"internalType": "uint256",
					"name": "",
					"type": "uint256"
				}
			],
			"stateMutability": "view",
			"type": "function"
		},
		{
			"inputs": [],
			"name": "isOwner",
			"outputs": [
				{
					"internalType": "bool",
					"name": "",
					"type": "bool"
				}
			],
			"stateMutability": "view",
			"type": "function"
		},
		{
			"inputs": [],
			"name": "owner",
			"outputs": [
				{
					"internalType": "address",
					"name": "",
					"type": "address"
				}
			],
			"stateMutability": "view",
			"type": "function"
		},
		{
			"inputs": [
				{
					"internalType": "uint256",
					"name": "",
					"type": "uint256"
				}
			],
			"name": "palettes",
			"outputs": [
				{
					"internalType": "uint256",
					"name": "",
					"type": "uint256"
				}
			],
			"stateMutability": "view",
			"type": "function"
		},
		{
			"inputs": [],
			"name": "renounceOwnership",
			"outputs": [],
			"stateMutability": "nonpayable",
			"type": "function"
		},
		{
			"inputs": [
				{
					"internalType": "address",
					"name": "newOwner",
					"type": "address"
				}
			],
			"name": "transferOwnership",
			"outputs": [],
			"stateMutability": "nonpayable",
			"type": "function"
		}
	]
}