{
	"data": {
		"bytecode": {
			"linkReferences": {},
			"object": "6080604052600560015560006002553480156200001b57600080fd5b50620000686040518060400160405280601b81526020017f4f776e657220636f6e7472616374206465706c6f7965642062793a0000000000815250336200062960201b620003d81760201c565b336000806101000a81548173ffffffffffffffffffffffffffffffffffffffff021916908373ffffffffffffffffffffffffffffffffffffffff16021790555060008054906101000a900473ffffffffffffffffffffffffffffffffffffffff1673ffffffffffffffffffffffffffffffffffffffff16600073ffffffffffffffffffffffffffffffffffffffff167f342827c97908e5e2f71151c08502a66d44b6f758e3ac2f1de95f02eb95f0a73560405160405180910390a3620002636040518060a001604052806040518060400160405280600881526020017f307838343545433200000000000000000000000000000000000000000000000081525081526020016040518060400160405280600881526020017f307834423434353300000000000000000000000000000000000000000000000081525081526020016040518060400160405280600881526020017f307842304138423900000000000000000000000000000000000000000000000081525081526020016040518060400160405280600881526020017f307843333441333600000000000000000000000000000000000000000000000081525081526020016040518060400160405280600881526020017f3078464638303636000000000000000000000000000000000000000000000000815250815250620006cf60201b60201c565b620003a36040518060a001604052806040518060400160405280600881526020017f307836393936373400000000000000000000000000000000000000000000000081525081526020016040518060400160405280600881526020017f307833423441334600000000000000000000000000000000000000000000000081525081526020016040518060400160405280600881526020017f307839454146413200000000000000000000000000000000000000000000000081525081526020016040518060400160405280600881526020017f307834453934423300000000000000000000000000000000000000000000000081525081526020016040518060400160405280600881526020017f3078303336313745000000000000000000000000000000000000000000000000815250815250620006cf60201b60201c565b620004e36040518060a001604052806040518060400160405280600881526020017f307832374236443800000000000000000000000000000000000000000000000081525081526020016040518060400160405280600881526020017f307833333441353200000000000000000000000000000000000000000000000081525081526020016040518060400160405280600881526020017f307839364146423800000000000000000000000000000000000000000000000081525081526020016040518060400160405280600881526020017f307843343938443400000000000000000000000000000000000000000000000081525081526020016040518060400160405280600881526020017f3078384536343944000000000000000000000000000000000000000000000000815250815250620006cf60201b60201c565b620006236040518060a001604052806040518060400160405280600881526020017f307835414135354200000000000000000000000000000000000000000000000081525081526020016040518060400160405280600881526020017f307832343935364400000000000000000000000000000000000000000000000081525081526020016040518060400160405280600881526020017f307830303833373700000000000000000000000000000000000000000000000081525081526020016040518060400160405280600881526020017f307830303646373700000000000000000000000000000000000000000000000081525081526020016040518060400160405280600881526020017f3078314335423643000000000000000000000000000000000000000000000000815250815250620006cf60201b60201c565b62000e9d565b620006cb82826040516024016200064292919062000a09565b6040516020818303038152906040527f319af333000000000000000000000000000000000000000000000000000000007bffffffffffffffffffffffffffffffffffffffffffffffffffffffff19166020820180517bffffffffffffffffffffffffffffffffffffffffffffffffffffffff83818316178352505050506200081460201b60201c565b5050565b60008054906101000a900473ffffffffffffffffffffffffffffffffffffffff1673ffffffffffffffffffffffffffffffffffffffff163373ffffffffffffffffffffffffffffffffffffffff161462000760576040517f08c379a0000000000000000000000000000000000000000000000000000000008152600401620007579062000a8d565b60405180910390fd5b60038080549050908060018154018082558091505060019003906000526020600020016000909190919091505580600460006001600380549050620007a6919062000ae8565b8152602001908152602001600020906005620007c49291906200083d565b507fe1c7c98cdeded3a25c1c7ada5b85013b2c7c9879f1678129a413ea685d0fcc786001600380549050620007fa919062000ae8565b60405162000809919062000b34565b60405180910390a150565b60008151905060006a636f6e736f6c652e6c6f679050602083016000808483855afa5050505050565b8280548282559060005260206000209081019282156200088a579160200282015b828111156200088957825182908162000878919062000db6565b50916020019190600101906200085e565b5b5090506200089991906200089d565b5090565b5b80821115620008c15760008181620008b79190620008c5565b506001016200089e565b5090565b508054620008d39062000baf565b6000825580601f10620008e7575062000908565b601f0160209004906000526020600020908101906200090791906200090b565b5b50565b5b80821115620009265760008160009055506001016200090c565b5090565b600081519050919050565b600082825260208201905092915050565b60005b838110156200096657808201518184015260208101905062000949565b60008484015250505050565b6000601f19601f8301169050919050565b600062000990826200092a565b6200099c818562000935565b9350620009ae81856020860162000946565b620009b98162000972565b840191505092915050565b600073ffffffffffffffffffffffffffffffffffffffff82169050919050565b6000620009f182620009c4565b9050919050565b62000a0381620009e4565b82525050565b6000604082019050818103600083015262000a25818562000983565b905062000a366020830184620009f8565b9392505050565b7f43616c6c6572206973206e6f74206f776e657200000000000000000000000000600082015250565b600062000a7560138362000935565b915062000a828262000a3d565b602082019050919050565b6000602082019050818103600083015262000aa88162000a66565b9050919050565b6000819050919050565b7f4e487b7100000000000000000000000000000000000000000000000000000000600052601160045260246000fd5b600062000af58262000aaf565b915062000b028362000aaf565b925082820390508181111562000b1d5762000b1c62000ab9565b5b92915050565b62000b2e8162000aaf565b82525050565b600060208201905062000b4b600083018462000b23565b92915050565b7f4e487b7100000000000000000000000000000000000000000000000000000000600052604160045260246000fd5b7f4e487b7100000000000000000000000000000000000000000000000000000000600052602260045260246000fd5b6000600282049050600182168062000bc857607f821691505b60208210810362000bde5762000bdd62000b80565b5b50919050565b60008190508160005260206000209050919050565b60006020601f8301049050919050565b600082821b905092915050565b60006008830262000c487fffffffffffffffffffffffffffffffffffffffffffffffffffffffffffffffff8262000c09565b62000c54868362000c09565b95508019841693508086168417925050509392505050565b6000819050919050565b600062000c9762000c9162000c8b8462000aaf565b62000c6c565b62000aaf565b9050919050565b6000819050919050565b62000cb38362000c76565b62000ccb62000cc28262000c9e565b84845462000c16565b825550505050565b600090565b62000ce262000cd3565b62000cef81848462000ca8565b505050565b5b8181101562000d175762000d0b60008262000cd8565b60018101905062000cf5565b5050565b601f82111562000d665762000d308162000be4565b62000d3b8462000bf9565b8101602085101562000d4b578190505b62000d6362000d5a8562000bf9565b83018262000cf4565b50505b505050565b600082821c905092915050565b600062000d8b6000198460080262000d6b565b1980831691505092915050565b600062000da6838362000d78565b9150826002028217905092915050565b62000dc1826200092a565b67ffffffffffffffff81111562000ddd5762000ddc62000b51565b5b62000de9825462000baf565b62000df682828562000d1b565b600060209050601f83116001811462000e2e576000841562000e19578287015190505b62000e25858262000d98565b86555062000e95565b601f19841662000e3e8662000be4565b60005b8281101562000e685784890151825560018201915060208501945060208101905062000e41565b8683101562000e88578489015162000e84601f89168262000d78565b8355505b6001600288020188555050505b505050505050565b610dc28062000ead6000396000f3fe608060405234801561001057600080fd5b50600436106100575760003560e01c8063109c12381461005c578063893d20e81461007a578063a6f9dae114610098578063b8f7f42a146100b4578063dcf7eefe146100d0575b600080fd5b610064610100565b6040516100719190610590565b60405180910390f35b610082610106565b60405161008f91906105ec565b60405180910390f35b6100b260048036038101906100ad9190610647565b61012f565b005b6100ce60048036038101906100c9919061088e565b61027a565b005b6100ea60048036038101906100e59190610903565b6103b4565b6040516100f79190610590565b60405180910390f35b60015481565b60008060009054906101000a900473ffffffffffffffffffffffffffffffffffffffff16905090565b60008054906101000a900473ffffffffffffffffffffffffffffffffffffffff1673ffffffffffffffffffffffffffffffffffffffff163373ffffffffffffffffffffffffffffffffffffffff16146101bd576040517f08c379a00000000000000000000000000000000000000000000000000000000081526004016101b49061098d565b60405180910390fd5b8073ffffffffffffffffffffffffffffffffffffffff1660008054906101000a900473ffffffffffffffffffffffffffffffffffffffff1673ffffffffffffffffffffffffffffffffffffffff167f342827c97908e5e2f71151c08502a66d44b6f758e3ac2f1de95f02eb95f0a73560405160405180910390a3806000806101000a81548173ffffffffffffffffffffffffffffffffffffffff021916908373ffffffffffffffffffffffffffffffffffffffff16021790555050565b60008054906101000a900473ffffffffffffffffffffffffffffffffffffffff1673ffffffffffffffffffffffffffffffffffffffff163373ffffffffffffffffffffffffffffffffffffffff1614610308576040517f08c379a00000000000000000000000000000000000000000000000000000000081526004016102ff9061098d565b60405180910390fd5b6003808054905090806001815401808255809150506001900390600052602060002001600090919091909150558060046000600160038054905061034c91906109dc565b815260200190815260200160002090600561036892919061049d565b507fe1c7c98cdeded3a25c1c7ada5b85013b2c7c9879f1678129a413ea685d0fcc78600160038054905061039c91906109dc565b6040516103a99190610590565b60405180910390a150565b600381815481106103c457600080fd5b906000526020600020016000915090505481565b61047082826040516024016103ee929190610a7e565b6040516020818303038152906040527f319af333000000000000000000000000000000000000000000000000000000007bffffffffffffffffffffffffffffffffffffffffffffffffffffffff19166020820180517bffffffffffffffffffffffffffffffffffffffffffffffffffffffff8381831617835250505050610474565b5050565b60008151905060006a636f6e736f6c652e6c6f679050602083016000808483855afa5050505050565b8280548282559060005260206000209081019282156104e5579160200282015b828111156104e45782518290816104d49190610cba565b50916020019190600101906104bd565b5b5090506104f291906104f6565b5090565b5b80821115610516576000818161050d919061051a565b506001016104f7565b5090565b50805461052690610add565b6000825580601f106105385750610557565b601f016020900490600052602060002090810190610556919061055a565b5b50565b5b8082111561057357600081600090555060010161055b565b5090565b6000819050919050565b61058a81610577565b82525050565b60006020820190506105a56000830184610581565b92915050565b600073ffffffffffffffffffffffffffffffffffffffff82169050919050565b60006105d6826105ab565b9050919050565b6105e6816105cb565b82525050565b600060208201905061060160008301846105dd565b92915050565b6000604051905090565b600080fd5b600080fd5b610624816105cb565b811461062f57600080fd5b50565b6000813590506106418161061b565b92915050565b60006020828403121561065d5761065c610611565b5b600061066b84828501610632565b91505092915050565b600080fd5b6000601f19601f8301169050919050565b7f4e487b7100000000000000000000000000000000000000000000000000000000600052604160045260246000fd5b6106c282610679565b810181811067ffffffffffffffff821117156106e1576106e061068a565b5b80604052505050565b60006106f4610607565b905061070082826106b9565b919050565b600067ffffffffffffffff8211156107205761071f61068a565b5b602082029050919050565b600080fd5b600080fd5b600067ffffffffffffffff8211156107505761074f61068a565b5b61075982610679565b9050602081019050919050565b82818337600083830152505050565b600061078861078384610735565b6106ea565b9050828152602081018484840111156107a4576107a3610730565b5b6107af848285610766565b509392505050565b600082601f8301126107cc576107cb610674565b5b81356107dc848260208601610775565b91505092915050565b60006107f86107f384610705565b6106ea565b905080602084028301858111156108125761081161072b565b5b835b8181101561085957803567ffffffffffffffff81111561083757610836610674565b5b80860161084489826107b7565b85526020850194505050602081019050610814565b5050509392505050565b600082601f83011261087857610877610674565b5b60056108858482856107e5565b91505092915050565b6000602082840312156108a4576108a3610611565b5b600082013567ffffffffffffffff8111156108c2576108c1610616565b5b6108ce84828501610863565b91505092915050565b6108e081610577565b81146108eb57600080fd5b50565b6000813590506108fd816108d7565b92915050565b60006020828403121561091957610918610611565b5b6000610927848285016108ee565b91505092915050565b600082825260208201905092915050565b7f43616c6c6572206973206e6f74206f776e657200000000000000000000000000600082015250565b6000610977601383610930565b915061098282610941565b602082019050919050565b600060208201905081810360008301526109a68161096a565b9050919050565b7f4e487b7100000000000000000000000000000000000000000000000000000000600052601160045260246000fd5b60006109e782610577565b91506109f283610577565b9250828203905081811115610a0a57610a096109ad565b5b92915050565b600081519050919050565b60005b83811015610a39578082015181840152602081019050610a1e565b60008484015250505050565b6000610a5082610a10565b610a5a8185610930565b9350610a6a818560208601610a1b565b610a7381610679565b840191505092915050565b60006040820190508181036000830152610a988185610a45565b9050610aa760208301846105dd565b9392505050565b7f4e487b7100000000000000000000000000000000000000000000000000000000600052602260045260246000fd5b60006002820490506001821680610af557607f821691505b602082108103610b0857610b07610aae565b5b50919050565b60008190508160005260206000209050919050565b60006020601f8301049050919050565b600082821b905092915050565b600060088302610b707fffffffffffffffffffffffffffffffffffffffffffffffffffffffffffffffff82610b33565b610b7a8683610b33565b95508019841693508086168417925050509392505050565b6000819050919050565b6000610bb7610bb2610bad84610577565b610b92565b610577565b9050919050565b6000819050919050565b610bd183610b9c565b610be5610bdd82610bbe565b848454610b40565b825550505050565b600090565b610bfa610bed565b610c05818484610bc8565b505050565b5b81811015610c2957610c1e600082610bf2565b600181019050610c0b565b5050565b601f821115610c6e57610c3f81610b0e565b610c4884610b23565b81016020851015610c57578190505b610c6b610c6385610b23565b830182610c0a565b50505b505050565b600082821c905092915050565b6000610c9160001984600802610c73565b1980831691505092915050565b6000610caa8383610c80565b9150826002028217905092915050565b610cc382610a10565b67ffffffffffffffff811115610cdc57610cdb61068a565b5b610ce68254610add565b610cf1828285610c2d565b600060209050601f831160018114610d245760008415610d12578287015190505b610d1c8582610c9e565b865550610d84565b601f198416610d3286610b0e565b60005b82811015610d5a57848901518255600182019150602085019450602081019050610d35565b86831015610d775784890151610d73601f891682610c80565b8355505b6001600288020188555050505b50505050505056fea26469706673582212204fe606b04d0cb5dff355677c6e2675b5d38014e05ce7a1963d4403d6f51eb14c64736f6c63430008120033",
			"opcodes": "PUSH1 0x80 PUSH1 0x40 MSTORE PUSH1 0x5 PUSH1 0x1 SSTORE PUSH1 0x0 PUSH1 0x2 SSTORE CALLVALUE DUP1 ISZERO PUSH3 0x1B JUMPI PUSH1 0x0 DUP1 REVERT JUMPDEST POP PUSH3 0x68 PUSH1 0x40 MLOAD DUP1 PUSH1 0x40 ADD PUSH1 0x40 MSTORE DUP1 PUSH1 0x1B DUP2 MSTORE PUSH1 0x20 ADD PUSH32 0x4F776E657220636F6E7472616374206465706C6F7965642062793A0000000000 DUP2 MSTORE POP CALLER PUSH3 0x629 PUSH1 0x20 SHL PUSH3 0x3D8 OR PUSH1 0x20 SHR JUMP JUMPDEST CALLER PUSH1 0x0 DUP1 PUSH2 0x100 EXP DUP2 SLOAD DUP2 PUSH20 0xFFFFFFFFFFFFFFFFFFFFFFFFFFFFFFFFFFFFFFFF MUL NOT AND SWAP1 DUP4 PUSH20 0xFFFFFFFFFFFFFFFFFFFFFFFFFFFFFFFFFFFFFFFF AND MUL OR SWAP1 SSTORE POP PUSH1 0x0 DUP1 SLOAD SWAP1 PUSH2 0x100 EXP SWAP1 DIV PUSH20 0xFFFFFFFFFFFFFFFFFFFFFFFFFFFFFFFFFFFFFFFF AND PUSH20 0xFFFFFFFFFFFFFFFFFFFFFFFFFFFFFFFFFFFFFFFF AND PUSH1 0x0 PUSH20 0xFFFFFFFFFFFFFFFFFFFFFFFFFFFFFFFFFFFFFFFF AND PUSH32 0x342827C97908E5E2F71151C08502A66D44B6F758E3AC2F1DE95F02EB95F0A735 PUSH1 0x40 MLOAD PUSH1 0x40 MLOAD DUP1 SWAP2 SUB SWAP1 LOG3 PUSH3 0x263 PUSH1 0x40 MLOAD DUP1 PUSH1 0xA0 ADD PUSH1 0x40 MSTORE DUP1 PUSH1 0x40 MLOAD DUP1 PUSH1 0x40 ADD PUSH1 0x40 MSTORE DUP1 PUSH1 0x8 DUP2 MSTORE PUSH1 0x20 ADD PUSH32 0x3078383435454332000000000000000000000000000000000000000000000000 DUP2 MSTORE POP DUP2 MSTORE PUSH1 0x20 ADD PUSH1 0x40 MLOAD DUP1 PUSH1 0x40 ADD PUSH1 0x40 MSTORE DUP1 PUSH1 0x8 DUP2 MSTORE PUSH1 0x20 ADD PUSH32 0x3078344234343533000000000000000000000000000000000000000000000000 DUP2 MSTORE POP DUP2 MSTORE PUSH1 0x20 ADD PUSH1 0x40 MLOAD DUP1 PUSH1 0x40 ADD PUSH1 0x40 MSTORE DUP1 PUSH1 0x8 DUP2 MSTORE PUSH1 0x20 ADD PUSH32 0x3078423041384239000000000000000000000000000000000000000000000000 DUP2 MSTORE POP DUP2 MSTORE PUSH1 0x20 ADD PUSH1 0x40 MLOAD DUP1 PUSH1 0x40 ADD PUSH1 0x40 MSTORE DUP1 PUSH1 0x8 DUP2 MSTORE PUSH1 0x20 ADD PUSH32 0x3078433334413336000000000000000000000000000000000000000000000000 DUP2 MSTORE POP DUP2 MSTORE PUSH1 0x20 ADD PUSH1 0x40 MLOAD DUP1 PUSH1 0x40 ADD PUSH1 0x40 MSTORE DUP1 PUSH1 0x8 DUP2 MSTORE PUSH1 0x20 ADD PUSH32 0x3078464638303636000000000000000000000000000000000000000000000000 DUP2 MSTORE POP DUP2 MSTORE POP PUSH3 0x6CF PUSH1 0x20 SHL PUSH1 0x20 SHR JUMP JUMPDEST PUSH3 0x3A3 PUSH1 0x40 MLOAD DUP1 PUSH1 0xA0 ADD PUSH1 0x40 MSTORE DUP1 PUSH1 0x40 MLOAD DUP1 PUSH1 0x40 ADD PUSH1 0x40 MSTORE DUP1 PUSH1 0x8 DUP2 MSTORE PUSH1 0x20 ADD PUSH32 0x3078363939363734000000000000000000000000000000000000000000000000 DUP2 MSTORE POP DUP2 MSTORE PUSH1 0x20 ADD PUSH1 0x40 MLOAD DUP1 PUSH1 0x40 ADD PUSH1 0x40 MSTORE DUP1 PUSH1 0x8 DUP2 MSTORE PUSH1 0x20 ADD PUSH32 0x3078334234413346000000000000000000000000000000000000000000000000 DUP2 MSTORE POP DUP2 MSTORE PUSH1 0x20 ADD PUSH1 0x40 MLOAD DUP1 PUSH1 0x40 ADD PUSH1 0x40 MSTORE DUP1 PUSH1 0x8 DUP2 MSTORE PUSH1 0x20 ADD PUSH32 0x3078394541464132000000000000000000000000000000000000000000000000 DUP2 MSTORE POP DUP2 MSTORE PUSH1 0x20 ADD PUSH1 0x40 MLOAD DUP1 PUSH1 0x40 ADD PUSH1 0x40 MSTORE DUP1 PUSH1 0x8 DUP2 MSTORE PUSH1 0x20 ADD PUSH32 0x3078344539344233000000000000000000000000000000000000000000000000 DUP2 MSTORE POP DUP2 MSTORE PUSH1 0x20 ADD PUSH1 0x40 MLOAD DUP1 PUSH1 0x40 ADD PUSH1 0x40 MSTORE DUP1 PUSH1 0x8 DUP2 MSTORE PUSH1 0x20 ADD PUSH32 0x3078303336313745000000000000000000000000000000000000000000000000 DUP2 MSTORE POP DUP2 MSTORE POP PUSH3 0x6CF PUSH1 0x20 SHL PUSH1 0x20 SHR JUMP JUMPDEST PUSH3 0x4E3 PUSH1 0x40 MLOAD DUP1 PUSH1 0xA0 ADD PUSH1 0x40 MSTORE DUP1 PUSH1 0x40 MLOAD DUP1 PUSH1 0x40 ADD PUSH1 0x40 MSTORE DUP1 PUSH1 0x8 DUP2 MSTORE PUSH1 0x20 ADD PUSH32 0x3078323742364438000000000000000000000000000000000000000000000000 DUP2 MSTORE POP DUP2 MSTORE PUSH1 0x20 ADD PUSH1 0x40 MLOAD DUP1 PUSH1 0x40 ADD PUSH1 0x40 MSTORE DUP1 PUSH1 0x8 DUP2 MSTORE PUSH1 0x20 ADD PUSH32 0x3078333334413532000000000000000000000000000000000000000000000000 DUP2 MSTORE POP DUP2 MSTORE PUSH1 0x20 ADD PUSH1 0x40 MLOAD DUP1 PUSH1 0x40 ADD PUSH1 0x40 MSTORE DUP1 PUSH1 0x8 DUP2 MSTORE PUSH1 0x20 ADD PUSH32 0x3078393641464238000000000000000000000000000000000000000000000000 DUP2 MSTORE POP DUP2 MSTORE PUSH1 0x20 ADD PUSH1 0x40 MLOAD DUP1 PUSH1 0x40 ADD PUSH1 0x40 MSTORE DUP1 PUSH1 0x8 DUP2 MSTORE PUSH1 0x20 ADD PUSH32 0x3078433439384434000000000000000000000000000000000000000000000000 DUP2 MSTORE POP DUP2 MSTORE PUSH1 0x20 ADD PUSH1 0x40 MLOAD DUP1 PUSH1 0x40 ADD PUSH1 0x40 MSTORE DUP1 PUSH1 0x8 DUP2 MSTORE PUSH1 0x20 ADD PUSH32 0x3078384536343944000000000000000000000000000000000000000000000000 DUP2 MSTORE POP DUP2 MSTORE POP PUSH3 0x6CF PUSH1 0x20 SHL PUSH1 0x20 SHR JUMP JUMPDEST PUSH3 0x623 PUSH1 0x40 MLOAD DUP1 PUSH1 0xA0 ADD PUSH1 0x40 MSTORE DUP1 PUSH1 0x40 MLOAD DUP1 PUSH1 0x40 ADD PUSH1 0x40 MSTORE DUP1 PUSH1 0x8 DUP2 MSTORE PUSH1 0x20 ADD PUSH32 0x3078354141353542000000000000000000000000000000000000000000000000 DUP2 MSTORE POP DUP2 MSTORE PUSH1 0x20 ADD PUSH1 0x40 MLOAD DUP1 PUSH1 0x40 ADD PUSH1 0x40 MSTORE DUP1 PUSH1 0x8 DUP2 MSTORE PUSH1 0x20 ADD PUSH32 0x3078323439353644000000000000000000000000000000000000000000000000 DUP2 MSTORE POP DUP2 MSTORE PUSH1 0x20 ADD PUSH1 0x40 MLOAD DUP1 PUSH1 0x40 ADD PUSH1 0x40 MSTORE DUP1 PUSH1 0x8 DUP2 MSTORE PUSH1 0x20 ADD PUSH32 0x3078303038333737000000000000000000000000000000000000000000000000 DUP2 MSTORE POP DUP2 MSTORE PUSH1 0x20 ADD PUSH1 0x40 MLOAD DUP1 PUSH1 0x40 ADD PUSH1 0x40 MSTORE DUP1 PUSH1 0x8 DUP2 MSTORE PUSH1 0x20 ADD PUSH32 0x3078303036463737000000000000000000000000000000000000000000000000 DUP2 MSTORE POP DUP2 MSTORE PUSH1 0x20 ADD PUSH1 0x40 MLOAD DUP1 PUSH1 0x40 ADD PUSH1 0x40 MSTORE DUP1 PUSH1 0x8 DUP2 MSTORE PUSH1 0x20 ADD PUSH32 0x3078314335423643000000000000000000000000000000000000000000000000 DUP2 MSTORE POP DUP2 MSTORE POP PUSH3 0x6CF PUSH1 0x20 SHL PUSH1 0x20 SHR JUMP JUMPDEST PUSH3 0xE9D JUMP JUMPDEST PUSH3 0x6CB DUP3 DUP3 PUSH1 0x40 MLOAD PUSH1 0x24 ADD PUSH3 0x642 SWAP3 SWAP2 SWAP1 PUSH3 0xA09 JUMP JUMPDEST PUSH1 0x40 MLOAD PUSH1 0x20 DUP2 DUP4 SUB SUB DUP2 MSTORE SWAP1 PUSH1 0x40 MSTORE PUSH32 0x319AF33300000000000000000000000000000000000000000000000000000000 PUSH28 0xFFFFFFFFFFFFFFFFFFFFFFFFFFFFFFFFFFFFFFFFFFFFFFFFFFFFFFFF NOT AND PUSH1 0x20 DUP3 ADD DUP1 MLOAD PUSH28 0xFFFFFFFFFFFFFFFFFFFFFFFFFFFFFFFFFFFFFFFFFFFFFFFFFFFFFFFF DUP4 DUP2 DUP4 AND OR DUP4 MSTORE POP POP POP POP PUSH3 0x814 PUSH1 0x20 SHL PUSH1 0x20 SHR JUMP JUMPDEST POP POP JUMP JUMPDEST PUSH1 0x0 DUP1 SLOAD SWAP1 PUSH2 0x100 EXP SWAP1 DIV PUSH20 0xFFFFFFFFFFFFFFFFFFFFFFFFFFFFFFFFFFFFFFFF AND PUSH20 0xFFFFFFFFFFFFFFFFFFFFFFFFFFFFFFFFFFFFFFFF AND CALLER PUSH20 0xFFFFFFFFFFFFFFFFFFFFFFFFFFFFFFFFFFFFFFFF AND EQ PUSH3 0x760 JUMPI PUSH1 0x40 MLOAD PUSH32 0x8C379A000000000000000000000000000000000000000000000000000000000 DUP2 MSTORE PUSH1 0x4 ADD PUSH3 0x757 SWAP1 PUSH3 0xA8D JUMP JUMPDEST PUSH1 0x40 MLOAD DUP1 SWAP2 SUB SWAP1 REVERT JUMPDEST PUSH1 0x3 DUP1 DUP1 SLOAD SWAP1 POP SWAP1 DUP1 PUSH1 0x1 DUP2 SLOAD ADD DUP1 DUP3 SSTORE DUP1 SWAP2 POP POP PUSH1 0x1 SWAP1 SUB SWAP1 PUSH1 0x0 MSTORE PUSH1 0x20 PUSH1 0x0 KECCAK256 ADD PUSH1 0x0 SWAP1 SWAP2 SWAP1 SWAP2 SWAP1 SWAP2 POP SSTORE DUP1 PUSH1 0x4 PUSH1 0x0 PUSH1 0x1 PUSH1 0x3 DUP1 SLOAD SWAP1 POP PUSH3 0x7A6 SWAP2 SWAP1 PUSH3 0xAE8 JUMP JUMPDEST DUP2 MSTORE PUSH1 0x20 ADD SWAP1 DUP2 MSTORE PUSH1 0x20 ADD PUSH1 0x0 KECCAK256 SWAP1 PUSH1 0x5 PUSH3 0x7C4 SWAP3 SWAP2 SWAP1 PUSH3 0x83D JUMP JUMPDEST POP PUSH32 0xE1C7C98CDEDED3A25C1C7ADA5B85013B2C7C9879F1678129A413EA685D0FCC78 PUSH1 0x1 PUSH1 0x3 DUP1 SLOAD SWAP1 POP PUSH3 0x7FA SWAP2 SWAP1 PUSH3 0xAE8 JUMP JUMPDEST PUSH1 0x40 MLOAD PUSH3 0x809 SWAP2 SWAP1 PUSH3 0xB34 JUMP JUMPDEST PUSH1 0x40 MLOAD DUP1 SWAP2 SUB SWAP1 LOG1 POP JUMP JUMPDEST PUSH1 0x0 DUP2 MLOAD SWAP1 POP PUSH1 0x0 PUSH11 0x636F6E736F6C652E6C6F67 SWAP1 POP PUSH1 0x20 DUP4 ADD PUSH1 0x0 DUP1 DUP5 DUP4 DUP6 GAS STATICCALL POP POP POP POP POP JUMP JUMPDEST DUP3 DUP1 SLOAD DUP3 DUP3 SSTORE SWAP1 PUSH1 0x0 MSTORE PUSH1 0x20 PUSH1 0x0 KECCAK256 SWAP1 DUP2 ADD SWAP3 DUP3 ISZERO PUSH3 0x88A JUMPI SWAP2 PUSH1 0x20 MUL DUP3 ADD JUMPDEST DUP3 DUP2 GT ISZERO PUSH3 0x889 JUMPI DUP3 MLOAD DUP3 SWAP1 DUP2 PUSH3 0x878 SWAP2 SWAP1 PUSH3 0xDB6 JUMP JUMPDEST POP SWAP2 PUSH1 0x20 ADD SWAP2 SWAP1 PUSH1 0x1 ADD SWAP1 PUSH3 0x85E JUMP JUMPDEST JUMPDEST POP SWAP1 POP PUSH3 0x899 SWAP2 SWAP1 PUSH3 0x89D JUMP JUMPDEST POP SWAP1 JUMP JUMPDEST JUMPDEST DUP1 DUP3 GT ISZERO PUSH3 0x8C1 JUMPI PUSH1 0x0 DUP2 DUP2 PUSH3 0x8B7 SWAP2 SWAP1 PUSH3 0x8C5 JUMP JUMPDEST POP PUSH1 0x1 ADD PUSH3 0x89E JUMP JUMPDEST POP SWAP1 JUMP JUMPDEST POP DUP1 SLOAD PUSH3 0x8D3 SWAP1 PUSH3 0xBAF JUMP JUMPDEST PUSH1 0x0 DUP3 SSTORE DUP1 PUSH1 0x1F LT PUSH3 0x8E7 JUMPI POP PUSH3 0x908 JUMP JUMPDEST PUSH1 0x1F ADD PUSH1 0x20 SWAP1 DIV SWAP1 PUSH1 0x0 MSTORE PUSH1 0x20 PUSH1 0x0 KECCAK256 SWAP1 DUP2 ADD SWAP1 PUSH3 0x907 SWAP2 SWAP1 PUSH3 0x90B JUMP JUMPDEST JUMPDEST POP JUMP JUMPDEST JUMPDEST DUP1 DUP3 GT ISZERO PUSH3 0x926 JUMPI PUSH1 0x0 DUP2 PUSH1 0x0 SWAP1 SSTORE POP PUSH1 0x1 ADD PUSH3 0x90C JUMP JUMPDEST POP SWAP1 JUMP JUMPDEST PUSH1 0x0 DUP2 MLOAD SWAP1 POP SWAP2 SWAP1 POP JUMP JUMPDEST PUSH1 0x0 DUP3 DUP3 MSTORE PUSH1 0x20 DUP3 ADD SWAP1 POP SWAP3 SWAP2 POP POP JUMP JUMPDEST PUSH1 0x0 JUMPDEST DUP4 DUP2 LT ISZERO PUSH3 0x966 JUMPI DUP1 DUP3 ADD MLOAD DUP2 DUP5 ADD MSTORE PUSH1 0x20 DUP2 ADD SWAP1 POP PUSH3 0x949 JUMP JUMPDEST PUSH1 0x0 DUP5 DUP5 ADD MSTORE POP POP POP POP JUMP JUMPDEST PUSH1 0x0 PUSH1 0x1F NOT PUSH1 0x1F DUP4 ADD AND SWAP1 POP SWAP2 SWAP1 POP JUMP JUMPDEST PUSH1 0x0 PUSH3 0x990 DUP3 PUSH3 0x92A JUMP JUMPDEST PUSH3 0x99C DUP2 DUP6 PUSH3 0x935 JUMP JUMPDEST SWAP4 POP PUSH3 0x9AE DUP2 DUP6 PUSH1 0x20 DUP7 ADD PUSH3 0x946 JUMP JUMPDEST PUSH3 0x9B9 DUP2 PUSH3 0x972 JUMP JUMPDEST DUP5 ADD SWAP2 POP POP SWAP3 SWAP2 POP POP JUMP JUMPDEST PUSH1 0x0 PUSH20 0xFFFFFFFFFFFFFFFFFFFFFFFFFFFFFFFFFFFFFFFF DUP3 AND SWAP1 POP SWAP2 SWAP1 POP JUMP JUMPDEST PUSH1 0x0 PUSH3 0x9F1 DUP3 PUSH3 0x9C4 JUMP JUMPDEST SWAP1 POP SWAP2 SWAP1 POP JUMP JUMPDEST PUSH3 0xA03 DUP2 PUSH3 0x9E4 JUMP JUMPDEST DUP3 MSTORE POP POP JUMP JUMPDEST PUSH1 0x0 PUSH1 0x40 DUP3 ADD SWAP1 POP DUP2 DUP2 SUB PUSH1 0x0 DUP4 ADD MSTORE PUSH3 0xA25 DUP2 DUP6 PUSH3 0x983 JUMP JUMPDEST SWAP1 POP PUSH3 0xA36 PUSH1 0x20 DUP4 ADD DUP5 PUSH3 0x9F8 JUMP JUMPDEST SWAP4 SWAP3 POP POP POP JUMP JUMPDEST PUSH32 0x43616C6C6572206973206E6F74206F776E657200000000000000000000000000 PUSH1 0x0 DUP3 ADD MSTORE POP JUMP JUMPDEST PUSH1 0x0 PUSH3 0xA75 PUSH1 0x13 DUP4 PUSH3 0x935 JUMP JUMPDEST SWAP2 POP PUSH3 0xA82 DUP3 PUSH3 0xA3D JUMP JUMPDEST PUSH1 0x20 DUP3 ADD SWAP1 POP SWAP2 SWAP1 POP JUMP JUMPDEST PUSH1 0x0 PUSH1 0x20 DUP3 ADD SWAP1 POP DUP2 DUP2 SUB PUSH1 0x0 DUP4 ADD MSTORE PUSH3 0xAA8 DUP2 PUSH3 0xA66 JUMP JUMPDEST SWAP1 POP SWAP2 SWAP1 POP JUMP JUMPDEST PUSH1 0x0 DUP2 SWAP1 POP SWAP2 SWAP1 POP JUMP JUMPDEST PUSH32 0x4E487B7100000000000000000000000000000000000000000000000000000000 PUSH1 0x0 MSTORE PUSH1 0x11 PUSH1 0x4 MSTORE PUSH1 0x24 PUSH1 0x0 REVERT JUMPDEST PUSH1 0x0 PUSH3 0xAF5 DUP3 PUSH3 0xAAF JUMP JUMPDEST SWAP2 POP PUSH3 0xB02 DUP4 PUSH3 0xAAF JUMP JUMPDEST SWAP3 POP DUP3 DUP3 SUB SWAP1 POP DUP2 DUP2 GT ISZERO PUSH3 0xB1D JUMPI PUSH3 0xB1C PUSH3 0xAB9 JUMP JUMPDEST JUMPDEST SWAP3 SWAP2 POP POP JUMP JUMPDEST PUSH3 0xB2E DUP2 PUSH3 0xAAF JUMP JUMPDEST DUP3 MSTORE POP POP JUMP JUMPDEST PUSH1 0x0 PUSH1 0x20 DUP3 ADD SWAP1 POP PUSH3 0xB4B PUSH1 0x0 DUP4 ADD DUP5 PUSH3 0xB23 JUMP JUMPDEST SWAP3 SWAP2 POP POP JUMP JUMPDEST PUSH32 0x4E487B7100000000000000000000000000000000000000000000000000000000 PUSH1 0x0 MSTORE PUSH1 0x41 PUSH1 0x4 MSTORE PUSH1 0x24 PUSH1 0x0 REVERT JUMPDEST PUSH32 0x4E487B7100000000000000000000000000000000000000000000000000000000 PUSH1 0x0 MSTORE PUSH1 0x22 PUSH1 0x4 MSTORE PUSH1 0x24 PUSH1 0x0 REVERT JUMPDEST PUSH1 0x0 PUSH1 0x2 DUP3 DIV SWAP1 POP PUSH1 0x1 DUP3 AND DUP1 PUSH3 0xBC8 JUMPI PUSH1 0x7F DUP3 AND SWAP2 POP JUMPDEST PUSH1 0x20 DUP3 LT DUP2 SUB PUSH3 0xBDE JUMPI PUSH3 0xBDD PUSH3 0xB80 JUMP JUMPDEST JUMPDEST POP SWAP2 SWAP1 POP JUMP JUMPDEST PUSH1 0x0 DUP2 SWAP1 POP DUP2 PUSH1 0x0 MSTORE PUSH1 0x20 PUSH1 0x0 KECCAK256 SWAP1 POP SWAP2 SWAP1 POP JUMP JUMPDEST PUSH1 0x0 PUSH1 0x20 PUSH1 0x1F DUP4 ADD DIV SWAP1 POP SWAP2 SWAP1 POP JUMP JUMPDEST PUSH1 0x0 DUP3 DUP3 SHL SWAP1 POP SWAP3 SWAP2 POP POP JUMP JUMPDEST PUSH1 0x0 PUSH1 0x8 DUP4 MUL PUSH3 0xC48 PUSH32 0xFFFFFFFFFFFFFFFFFFFFFFFFFFFFFFFFFFFFFFFFFFFFFFFFFFFFFFFFFFFFFFFF DUP3 PUSH3 0xC09 JUMP JUMPDEST PUSH3 0xC54 DUP7 DUP4 PUSH3 0xC09 JUMP JUMPDEST SWAP6 POP DUP1 NOT DUP5 AND SWAP4 POP DUP1 DUP7 AND DUP5 OR SWAP3 POP POP POP SWAP4 SWAP3 POP POP POP JUMP JUMPDEST PUSH1 0x0 DUP2 SWAP1 POP SWAP2 SWAP1 POP JUMP JUMPDEST PUSH1 0x0 PUSH3 0xC97 PUSH3 0xC91 PUSH3 0xC8B DUP5 PUSH3 0xAAF JUMP JUMPDEST PUSH3 0xC6C JUMP JUMPDEST PUSH3 0xAAF JUMP JUMPDEST SWAP1 POP SWAP2 SWAP1 POP JUMP JUMPDEST PUSH1 0x0 DUP2 SWAP1 POP SWAP2 SWAP1 POP JUMP JUMPDEST PUSH3 0xCB3 DUP4 PUSH3 0xC76 JUMP JUMPDEST PUSH3 0xCCB PUSH3 0xCC2 DUP3 PUSH3 0xC9E JUMP JUMPDEST DUP5 DUP5 SLOAD PUSH3 0xC16 JUMP JUMPDEST DUP3 SSTORE POP POP POP POP JUMP JUMPDEST PUSH1 0x0 SWAP1 JUMP JUMPDEST PUSH3 0xCE2 PUSH3 0xCD3 JUMP JUMPDEST PUSH3 0xCEF DUP2 DUP5 DUP5 PUSH3 0xCA8 JUMP JUMPDEST POP POP POP JUMP JUMPDEST JUMPDEST DUP2 DUP2 LT ISZERO PUSH3 0xD17 JUMPI PUSH3 0xD0B PUSH1 0x0 DUP3 PUSH3 0xCD8 JUMP JUMPDEST PUSH1 0x1 DUP2 ADD SWAP1 POP PUSH3 0xCF5 JUMP JUMPDEST POP POP JUMP JUMPDEST PUSH1 0x1F DUP3 GT ISZERO PUSH3 0xD66 JUMPI PUSH3 0xD30 DUP2 PUSH3 0xBE4 JUMP JUMPDEST PUSH3 0xD3B DUP5 PUSH3 0xBF9 JUMP JUMPDEST DUP2 ADD PUSH1 0x20 DUP6 LT ISZERO PUSH3 0xD4B JUMPI DUP2 SWAP1 POP JUMPDEST PUSH3 0xD63 PUSH3 0xD5A DUP6 PUSH3 0xBF9 JUMP JUMPDEST DUP4 ADD DUP3 PUSH3 0xCF4 JUMP JUMPDEST POP POP JUMPDEST POP POP POP JUMP JUMPDEST PUSH1 0x0 DUP3 DUP3 SHR SWAP1 POP SWAP3 SWAP2 POP POP JUMP JUMPDEST PUSH1 0x0 PUSH3 0xD8B PUSH1 0x0 NOT DUP5 PUSH1 0x8 MUL PUSH3 0xD6B JUMP JUMPDEST NOT DUP1 DUP4 AND SWAP2 POP POP SWAP3 SWAP2 POP POP JUMP JUMPDEST PUSH1 0x0 PUSH3 0xDA6 DUP4 DUP4 PUSH3 0xD78 JUMP JUMPDEST SWAP2 POP DUP3 PUSH1 0x2 MUL DUP3 OR SWAP1 POP SWAP3 SWAP2 POP POP JUMP JUMPDEST PUSH3 0xDC1 DUP3 PUSH3 0x92A JUMP JUMPDEST PUSH8 0xFFFFFFFFFFFFFFFF DUP2 GT ISZERO PUSH3 0xDDD JUMPI PUSH3 0xDDC PUSH3 0xB51 JUMP JUMPDEST JUMPDEST PUSH3 0xDE9 DUP3 SLOAD PUSH3 0xBAF JUMP JUMPDEST PUSH3 0xDF6 DUP3 DUP3 DUP6 PUSH3 0xD1B JUMP JUMPDEST PUSH1 0x0 PUSH1 0x20 SWAP1 POP PUSH1 0x1F DUP4 GT PUSH1 0x1 DUP2 EQ PUSH3 0xE2E JUMPI PUSH1 0x0 DUP5 ISZERO PUSH3 0xE19 JUMPI DUP3 DUP8 ADD MLOAD SWAP1 POP JUMPDEST PUSH3 0xE25 DUP6 DUP3 PUSH3 0xD98 JUMP JUMPDEST DUP7 SSTORE POP PUSH3 0xE95 JUMP JUMPDEST PUSH1 0x1F NOT DUP5 AND PUSH3 0xE3E DUP7 PUSH3 0xBE4 JUMP JUMPDEST PUSH1 0x0 JUMPDEST DUP3 DUP2 LT ISZERO PUSH3 0xE68 JUMPI DUP5 DUP10 ADD MLOAD DUP3 SSTORE PUSH1 0x1 DUP3 ADD SWAP2 POP PUSH1 0x20 DUP6 ADD SWAP5 POP PUSH1 0x20 DUP2 ADD SWAP1 POP PUSH3 0xE41 JUMP JUMPDEST DUP7 DUP4 LT ISZERO PUSH3 0xE88 JUMPI DUP5 DUP10 ADD MLOAD PUSH3 0xE84 PUSH1 0x1F DUP10 AND DUP3 PUSH3 0xD78 JUMP JUMPDEST DUP4 SSTORE POP JUMPDEST PUSH1 0x1 PUSH1 0x2 DUP9 MUL ADD DUP9 SSTORE POP POP POP JUMPDEST POP POP POP POP POP POP JUMP JUMPDEST PUSH2 0xDC2 DUP1 PUSH3 0xEAD PUSH1 0x0 CODECOPY PUSH1 0x0 RETURN INVALID PUSH1 0x80 PUSH1 0x40 MSTORE CALLVALUE DUP1 ISZERO PUSH2 0x10 JUMPI PUSH1 0x0 DUP1 REVERT JUMPDEST POP PUSH1 0x4 CALLDATASIZE LT PUSH2 0x57 JUMPI PUSH1 0x0 CALLDATALOAD PUSH1 0xE0 SHR DUP1 PUSH4 0x109C1238 EQ PUSH2 0x5C JUMPI DUP1 PUSH4 0x893D20E8 EQ PUSH2 0x7A JUMPI DUP1 PUSH4 0xA6F9DAE1 EQ PUSH2 0x98 JUMPI DUP1 PUSH4 0xB8F7F42A EQ PUSH2 0xB4 JUMPI DUP1 PUSH4 0xDCF7EEFE EQ PUSH2 0xD0 JUMPI JUMPDEST PUSH1 0x0 DUP1 REVERT JUMPDEST PUSH2 0x64 PUSH2 0x100 JUMP JUMPDEST PUSH1 0x40 MLOAD PUSH2 0x71 SWAP2 SWAP1 PUSH2 0x590 JUMP JUMPDEST PUSH1 0x40 MLOAD DUP1 SWAP2 SUB SWAP1 RETURN JUMPDEST PUSH2 0x82 PUSH2 0x106 JUMP JUMPDEST PUSH1 0x40 MLOAD PUSH2 0x8F SWAP2 SWAP1 PUSH2 0x5EC JUMP JUMPDEST PUSH1 0x40 MLOAD DUP1 SWAP2 SUB SWAP1 RETURN JUMPDEST PUSH2 0xB2 PUSH1 0x4 DUP1 CALLDATASIZE SUB DUP2 ADD SWAP1 PUSH2 0xAD SWAP2 SWAP1 PUSH2 0x647 JUMP JUMPDEST PUSH2 0x12F JUMP JUMPDEST STOP JUMPDEST PUSH2 0xCE PUSH1 0x4 DUP1 CALLDATASIZE SUB DUP2 ADD SWAP1 PUSH2 0xC9 SWAP2 SWAP1 PUSH2 0x88E JUMP JUMPDEST PUSH2 0x27A JUMP JUMPDEST STOP JUMPDEST PUSH2 0xEA PUSH1 0x4 DUP1 CALLDATASIZE SUB DUP2 ADD SWAP1 PUSH2 0xE5 SWAP2 SWAP1 PUSH2 0x903 JUMP JUMPDEST PUSH2 0x3B4 JUMP JUMPDEST PUSH1 0x40 MLOAD PUSH2 0xF7 SWAP2 SWAP1 PUSH2 0x590 JUMP JUMPDEST PUSH1 0x40 MLOAD DUP1 SWAP2 SUB SWAP1 RETURN JUMPDEST PUSH1 0x1 SLOAD DUP2 JUMP JUMPDEST PUSH1 0x0 DUP1 PUSH1 0x0 SWAP1 SLOAD SWAP1 PUSH2 0x100 EXP SWAP1 DIV PUSH20 0xFFFFFFFFFFFFFFFFFFFFFFFFFFFFFFFFFFFFFFFF AND SWAP1 POP SWAP1 JUMP JUMPDEST PUSH1 0x0 DUP1 SLOAD SWAP1 PUSH2 0x100 EXP SWAP1 DIV PUSH20 0xFFFFFFFFFFFFFFFFFFFFFFFFFFFFFFFFFFFFFFFF AND PUSH20 0xFFFFFFFFFFFFFFFFFFFFFFFFFFFFFFFFFFFFFFFF AND CALLER PUSH20 0xFFFFFFFFFFFFFFFFFFFFFFFFFFFFFFFFFFFFFFFF AND EQ PUSH2 0x1BD JUMPI PUSH1 0x40 MLOAD PUSH32 0x8C379A000000000000000000000000000000000000000000000000000000000 DUP2 MSTORE PUSH1 0x4 ADD PUSH2 0x1B4 SWAP1 PUSH2 0x98D JUMP JUMPDEST PUSH1 0x40 MLOAD DUP1 SWAP2 SUB SWAP1 REVERT JUMPDEST DUP1 PUSH20 0xFFFFFFFFFFFFFFFFFFFFFFFFFFFFFFFFFFFFFFFF AND PUSH1 0x0 DUP1 SLOAD SWAP1 PUSH2 0x100 EXP SWAP1 DIV PUSH20 0xFFFFFFFFFFFFFFFFFFFFFFFFFFFFFFFFFFFFFFFF AND PUSH20 0xFFFFFFFFFFFFFFFFFFFFFFFFFFFFFFFFFFFFFFFF AND PUSH32 0x342827C97908E5E2F71151C08502A66D44B6F758E3AC2F1DE95F02EB95F0A735 PUSH1 0x40 MLOAD PUSH1 0x40 MLOAD DUP1 SWAP2 SUB SWAP1 LOG3 DUP1 PUSH1 0x0 DUP1 PUSH2 0x100 EXP DUP2 SLOAD DUP2 PUSH20 0xFFFFFFFFFFFFFFFFFFFFFFFFFFFFFFFFFFFFFFFF MUL NOT AND SWAP1 DUP4 PUSH20 0xFFFFFFFFFFFFFFFFFFFFFFFFFFFFFFFFFFFFFFFF AND MUL OR SWAP1 SSTORE POP POP JUMP JUMPDEST PUSH1 0x0 DUP1 SLOAD SWAP1 PUSH2 0x100 EXP SWAP1 DIV PUSH20 0xFFFFFFFFFFFFFFFFFFFFFFFFFFFFFFFFFFFFFFFF AND PUSH20 0xFFFFFFFFFFFFFFFFFFFFFFFFFFFFFFFFFFFFFFFF AND CALLER PUSH20 0xFFFFFFFFFFFFFFFFFFFFFFFFFFFFFFFFFFFFFFFF AND EQ PUSH2 0x308 JUMPI PUSH1 0x40 MLOAD PUSH32 0x8C379A000000000000000000000000000000000000000000000000000000000 DUP2 MSTORE PUSH1 0x4 ADD PUSH2 0x2FF SWAP1 PUSH2 0x98D JUMP JUMPDEST PUSH1 0x40 MLOAD DUP1 SWAP2 SUB SWAP1 REVERT JUMPDEST PUSH1 0x3 DUP1 DUP1 SLOAD SWAP1 POP SWAP1 DUP1 PUSH1 0x1 DUP2 SLOAD ADD DUP1 DUP3 SSTORE DUP1 SWAP2 POP POP PUSH1 0x1 SWAP1 SUB SWAP1 PUSH1 0x0 MSTORE PUSH1 0x20 PUSH1 0x0 KECCAK256 ADD PUSH1 0x0 SWAP1 SWAP2 SWAP1 SWAP2 SWAP1 SWAP2 POP SSTORE DUP1 PUSH1 0x4 PUSH1 0x0 PUSH1 0x1 PUSH1 0x3 DUP1 SLOAD SWAP1 POP PUSH2 0x34C SWAP2 SWAP1 PUSH2 0x9DC JUMP JUMPDEST DUP2 MSTORE PUSH1 0x20 ADD SWAP1 DUP2 MSTORE PUSH1 0x20 ADD PUSH1 0x0 KECCAK256 SWAP1 PUSH1 0x5 PUSH2 0x368 SWAP3 SWAP2 SWAP1 PUSH2 0x49D JUMP JUMPDEST POP PUSH32 0xE1C7C98CDEDED3A25C1C7ADA5B85013B2C7C9879F1678129A413EA685D0FCC78 PUSH1 0x1 PUSH1 0x3 DUP1 SLOAD SWAP1 POP PUSH2 0x39C SWAP2 SWAP1 PUSH2 0x9DC JUMP JUMPDEST PUSH1 0x40 MLOAD PUSH2 0x3A9 SWAP2 SWAP1 PUSH2 0x590 JUMP JUMPDEST PUSH1 0x40 MLOAD DUP1 SWAP2 SUB SWAP1 LOG1 POP JUMP JUMPDEST PUSH1 0x3 DUP2 DUP2 SLOAD DUP2 LT PUSH2 0x3C4 JUMPI PUSH1 0x0 DUP1 REVERT JUMPDEST SWAP1 PUSH1 0x0 MSTORE PUSH1 0x20 PUSH1 0x0 KECCAK256 ADD PUSH1 0x0 SWAP2 POP SWAP1 POP SLOAD DUP2 JUMP JUMPDEST PUSH2 0x470 DUP3 DUP3 PUSH1 0x40 MLOAD PUSH1 0x24 ADD PUSH2 0x3EE SWAP3 SWAP2 SWAP1 PUSH2 0xA7E JUMP JUMPDEST PUSH1 0x40 MLOAD PUSH1 0x20 DUP2 DUP4 SUB SUB DUP2 MSTORE SWAP1 PUSH1 0x40 MSTORE PUSH32 0x319AF33300000000000000000000000000000000000000000000000000000000 PUSH28 0xFFFFFFFFFFFFFFFFFFFFFFFFFFFFFFFFFFFFFFFFFFFFFFFFFFFFFFFF NOT AND PUSH1 0x20 DUP3 ADD DUP1 MLOAD PUSH28 0xFFFFFFFFFFFFFFFFFFFFFFFFFFFFFFFFFFFFFFFFFFFFFFFFFFFFFFFF DUP4 DUP2 DUP4 AND OR DUP4 MSTORE POP POP POP POP PUSH2 0x474 JUMP JUMPDEST POP POP JUMP JUMPDEST PUSH1 0x0 DUP2 MLOAD SWAP1 POP PUSH1 0x0 PUSH11 0x636F6E736F6C652E6C6F67 SWAP1 POP PUSH1 0x20 DUP4 ADD PUSH1 0x0 DUP1 DUP5 DUP4 DUP6 GAS STATICCALL POP POP POP POP POP JUMP JUMPDEST DUP3 DUP1 SLOAD DUP3 DUP3 SSTORE SWAP1 PUSH1 0x0 MSTORE PUSH1 0x20 PUSH1 0x0 KECCAK256 SWAP1 DUP2 ADD SWAP3 DUP3 ISZERO PUSH2 0x4E5 JUMPI SWAP2 PUSH1 0x20 MUL DUP3 ADD JUMPDEST DUP3 DUP2 GT ISZERO PUSH2 0x4E4 JUMPI DUP3 MLOAD DUP3 SWAP1 DUP2 PUSH2 0x4D4 SWAP2 SWAP1 PUSH2 0xCBA JUMP JUMPDEST POP SWAP2 PUSH1 0x20 ADD SWAP2 SWAP1 PUSH1 0x1 ADD SWAP1 PUSH2 0x4BD JUMP JUMPDEST JUMPDEST POP SWAP1 POP PUSH2 0x4F2 SWAP2 SWAP1 PUSH2 0x4F6 JUMP JUMPDEST POP SWAP1 JUMP JUMPDEST JUMPDEST DUP1 DUP3 GT ISZERO PUSH2 0x516 JUMPI PUSH1 0x0 DUP2 DUP2 PUSH2 0x50D SWAP2 SWAP1 PUSH2 0x51A JUMP JUMPDEST POP PUSH1 0x1 ADD PUSH2 0x4F7 JUMP JUMPDEST POP SWAP1 JUMP JUMPDEST POP DUP1 SLOAD PUSH2 0x526 SWAP1 PUSH2 0xADD JUMP JUMPDEST PUSH1 0x0 DUP3 SSTORE DUP1 PUSH1 0x1F LT PUSH2 0x538 JUMPI POP PUSH2 0x557 JUMP JUMPDEST PUSH1 0x1F ADD PUSH1 0x20 SWAP1 DIV SWAP1 PUSH1 0x0 MSTORE PUSH1 0x20 PUSH1 0x0 KECCAK256 SWAP1 DUP2 ADD SWAP1 PUSH2 0x556 SWAP2 SWAP1 PUSH2 0x55A JUMP JUMPDEST JUMPDEST POP JUMP JUMPDEST JUMPDEST DUP1 DUP3 GT ISZERO PUSH2 0x573 JUMPI PUSH1 0x0 DUP2 PUSH1 0x0 SWAP1 SSTORE POP PUSH1 0x1 ADD PUSH2 0x55B JUMP JUMPDEST POP SWAP1 JUMP JUMPDEST PUSH1 0x0 DUP2 SWAP1 POP SWAP2 SWAP1 POP JUMP JUMPDEST PUSH2 0x58A DUP2 PUSH2 0x577 JUMP JUMPDEST DUP3 MSTORE POP POP JUMP JUMPDEST PUSH1 0x0 PUSH1 0x20 DUP3 ADD SWAP1 POP PUSH2 0x5A5 PUSH1 0x0 DUP4 ADD DUP5 PUSH2 0x581 JUMP JUMPDEST SWAP3 SWAP2 POP POP JUMP JUMPDEST PUSH1 0x0 PUSH20 0xFFFFFFFFFFFFFFFFFFFFFFFFFFFFFFFFFFFFFFFF DUP3 AND SWAP1 POP SWAP2 SWAP1 POP JUMP JUMPDEST PUSH1 0x0 PUSH2 0x5D6 DUP3 PUSH2 0x5AB JUMP JUMPDEST SWAP1 POP SWAP2 SWAP1 POP JUMP JUMPDEST PUSH2 0x5E6 DUP2 PUSH2 0x5CB JUMP JUMPDEST DUP3 MSTORE POP POP JUMP JUMPDEST PUSH1 0x0 PUSH1 0x20 DUP3 ADD SWAP1 POP PUSH2 0x601 PUSH1 0x0 DUP4 ADD DUP5 PUSH2 0x5DD JUMP JUMPDEST SWAP3 SWAP2 POP POP JUMP JUMPDEST PUSH1 0x0 PUSH1 0x40 MLOAD SWAP1 POP SWAP1 JUMP JUMPDEST PUSH1 0x0 DUP1 REVERT JUMPDEST PUSH1 0x0 DUP1 REVERT JUMPDEST PUSH2 0x624 DUP2 PUSH2 0x5CB JUMP JUMPDEST DUP2 EQ PUSH2 0x62F JUMPI PUSH1 0x0 DUP1 REVERT JUMPDEST POP JUMP JUMPDEST PUSH1 0x0 DUP2 CALLDATALOAD SWAP1 POP PUSH2 0x641 DUP2 PUSH2 0x61B JUMP JUMPDEST SWAP3 SWAP2 POP POP JUMP JUMPDEST PUSH1 0x0 PUSH1 0x20 DUP3 DUP5 SUB SLT ISZERO PUSH2 0x65D JUMPI PUSH2 0x65C PUSH2 0x611 JUMP JUMPDEST JUMPDEST PUSH1 0x0 PUSH2 0x66B DUP5 DUP3 DUP6 ADD PUSH2 0x632 JUMP JUMPDEST SWAP2 POP POP SWAP3 SWAP2 POP POP JUMP JUMPDEST PUSH1 0x0 DUP1 REVERT JUMPDEST PUSH1 0x0 PUSH1 0x1F NOT PUSH1 0x1F DUP4 ADD AND SWAP1 POP SWAP2 SWAP1 POP JUMP JUMPDEST PUSH32 0x4E487B7100000000000000000000000000000000000000000000000000000000 PUSH1 0x0 MSTORE PUSH1 0x41 PUSH1 0x4 MSTORE PUSH1 0x24 PUSH1 0x0 REVERT JUMPDEST PUSH2 0x6C2 DUP3 PUSH2 0x679 JUMP JUMPDEST DUP2 ADD DUP2 DUP2 LT PUSH8 0xFFFFFFFFFFFFFFFF DUP3 GT OR ISZERO PUSH2 0x6E1 JUMPI PUSH2 0x6E0 PUSH2 0x68A JUMP JUMPDEST JUMPDEST DUP1 PUSH1 0x40 MSTORE POP POP POP JUMP JUMPDEST PUSH1 0x0 PUSH2 0x6F4 PUSH2 0x607 JUMP JUMPDEST SWAP1 POP PUSH2 0x700 DUP3 DUP3 PUSH2 0x6B9 JUMP JUMPDEST SWAP2 SWAP1 POP JUMP JUMPDEST PUSH1 0x0 PUSH8 0xFFFFFFFFFFFFFFFF DUP3 GT ISZERO PUSH2 0x720 JUMPI PUSH2 0x71F PUSH2 0x68A JUMP JUMPDEST JUMPDEST PUSH1 0x20 DUP3 MUL SWAP1 POP SWAP2 SWAP1 POP JUMP JUMPDEST PUSH1 0x0 DUP1 REVERT JUMPDEST PUSH1 0x0 DUP1 REVERT JUMPDEST PUSH1 0x0 PUSH8 0xFFFFFFFFFFFFFFFF DUP3 GT ISZERO PUSH2 0x750 JUMPI PUSH2 0x74F PUSH2 0x68A JUMP JUMPDEST JUMPDEST PUSH2 0x759 DUP3 PUSH2 0x679 JUMP JUMPDEST SWAP1 POP PUSH1 0x20 DUP2 ADD SWAP1 POP SWAP2 SWAP1 POP JUMP JUMPDEST DUP3 DUP2 DUP4 CALLDATACOPY PUSH1 0x0 DUP4 DUP4 ADD MSTORE POP POP POP JUMP JUMPDEST PUSH1 0x0 PUSH2 0x788 PUSH2 0x783 DUP5 PUSH2 0x735 JUMP JUMPDEST PUSH2 0x6EA JUMP JUMPDEST SWAP1 POP DUP3 DUP2 MSTORE PUSH1 0x20 DUP2 ADD DUP5 DUP5 DUP5 ADD GT ISZERO PUSH2 0x7A4 JUMPI PUSH2 0x7A3 PUSH2 0x730 JUMP JUMPDEST JUMPDEST PUSH2 0x7AF DUP5 DUP3 DUP6 PUSH2 0x766 JUMP JUMPDEST POP SWAP4 SWAP3 POP POP POP JUMP JUMPDEST PUSH1 0x0 DUP3 PUSH1 0x1F DUP4 ADD SLT PUSH2 0x7CC JUMPI PUSH2 0x7CB PUSH2 0x674 JUMP JUMPDEST JUMPDEST DUP2 CALLDATALOAD PUSH2 0x7DC DUP5 DUP3 PUSH1 0x20 DUP7 ADD PUSH2 0x775 JUMP JUMPDEST SWAP2 POP POP SWAP3 SWAP2 POP POP JUMP JUMPDEST PUSH1 0x0 PUSH2 0x7F8 PUSH2 0x7F3 DUP5 PUSH2 0x705 JUMP JUMPDEST PUSH2 0x6EA JUMP JUMPDEST SWAP1 POP DUP1 PUSH1 0x20 DUP5 MUL DUP4 ADD DUP6 DUP2 GT ISZERO PUSH2 0x812 JUMPI PUSH2 0x811 PUSH2 0x72B JUMP JUMPDEST JUMPDEST DUP4 JUMPDEST DUP2 DUP2 LT ISZERO PUSH2 0x859 JUMPI DUP1 CALLDATALOAD PUSH8 0xFFFFFFFFFFFFFFFF DUP2 GT ISZERO PUSH2 0x837 JUMPI PUSH2 0x836 PUSH2 0x674 JUMP JUMPDEST JUMPDEST DUP1 DUP7 ADD PUSH2 0x844 DUP10 DUP3 PUSH2 0x7B7 JUMP JUMPDEST DUP6 MSTORE PUSH1 0x20 DUP6 ADD SWAP5 POP POP POP PUSH1 0x20 DUP2 ADD SWAP1 POP PUSH2 0x814 JUMP JUMPDEST POP POP POP SWAP4 SWAP3 POP POP POP JUMP JUMPDEST PUSH1 0x0 DUP3 PUSH1 0x1F DUP4 ADD SLT PUSH2 0x878 JUMPI PUSH2 0x877 PUSH2 0x674 JUMP JUMPDEST JUMPDEST PUSH1 0x5 PUSH2 0x885 DUP5 DUP3 DUP6 PUSH2 0x7E5 JUMP JUMPDEST SWAP2 POP POP SWAP3 SWAP2 POP POP JUMP JUMPDEST PUSH1 0x0 PUSH1 0x20 DUP3 DUP5 SUB SLT ISZERO PUSH2 0x8A4 JUMPI PUSH2 0x8A3 PUSH2 0x611 JUMP JUMPDEST JUMPDEST PUSH1 0x0 DUP3 ADD CALLDATALOAD PUSH8 0xFFFFFFFFFFFFFFFF DUP2 GT ISZERO PUSH2 0x8C2 JUMPI PUSH2 0x8C1 PUSH2 0x616 JUMP JUMPDEST JUMPDEST PUSH2 0x8CE DUP5 DUP3 DUP6 ADD PUSH2 0x863 JUMP JUMPDEST SWAP2 POP POP SWAP3 SWAP2 POP POP JUMP JUMPDEST PUSH2 0x8E0 DUP2 PUSH2 0x577 JUMP JUMPDEST DUP2 EQ PUSH2 0x8EB JUMPI PUSH1 0x0 DUP1 REVERT JUMPDEST POP JUMP JUMPDEST PUSH1 0x0 DUP2 CALLDATALOAD SWAP1 POP PUSH2 0x8FD DUP2 PUSH2 0x8D7 JUMP JUMPDEST SWAP3 SWAP2 POP POP JUMP JUMPDEST PUSH1 0x0 PUSH1 0x20 DUP3 DUP5 SUB SLT ISZERO PUSH2 0x919 JUMPI PUSH2 0x918 PUSH2 0x611 JUMP JUMPDEST JUMPDEST PUSH1 0x0 PUSH2 0x927 DUP5 DUP3 DUP6 ADD PUSH2 0x8EE JUMP JUMPDEST SWAP2 POP POP SWAP3 SWAP2 POP POP JUMP JUMPDEST PUSH1 0x0 DUP3 DUP3 MSTORE PUSH1 0x20 DUP3 ADD SWAP1 POP SWAP3 SWAP2 POP POP JUMP JUMPDEST PUSH32 0x43616C6C6572206973206E6F74206F776E657200000000000000000000000000 PUSH1 0x0 DUP3 ADD MSTORE POP JUMP JUMPDEST PUSH1 0x0 PUSH2 0x977 PUSH1 0x13 DUP4 PUSH2 0x930 JUMP JUMPDEST SWAP2 POP PUSH2 0x982 DUP3 PUSH2 0x941 JUMP JUMPDEST PUSH1 0x20 DUP3 ADD SWAP1 POP SWAP2 SWAP1 POP JUMP JUMPDEST PUSH1 0x0 PUSH1 0x20 DUP3 ADD SWAP1 POP DUP2 DUP2 SUB PUSH1 0x0 DUP4 ADD MSTORE PUSH2 0x9A6 DUP2 PUSH2 0x96A JUMP JUMPDEST SWAP1 POP SWAP2 SWAP1 POP JUMP JUMPDEST PUSH32 0x4E487B7100000000000000000000000000000000000000000000000000000000 PUSH1 0x0 MSTORE PUSH1 0x11 PUSH1 0x4 MSTORE PUSH1 0x24 PUSH1 0x0 REVERT JUMPDEST PUSH1 0x0 PUSH2 0x9E7 DUP3 PUSH2 0x577 JUMP JUMPDEST SWAP2 POP PUSH2 0x9F2 DUP4 PUSH2 0x577 JUMP JUMPDEST SWAP3 POP DUP3 DUP3 SUB SWAP1 POP DUP2 DUP2 GT ISZERO PUSH2 0xA0A JUMPI PUSH2 0xA09 PUSH2 0x9AD JUMP JUMPDEST JUMPDEST SWAP3 SWAP2 POP POP JUMP JUMPDEST PUSH1 0x0 DUP2 MLOAD SWAP1 POP SWAP2 SWAP1 POP JUMP JUMPDEST PUSH1 0x0 JUMPDEST DUP4 DUP2 LT ISZERO PUSH2 0xA39 JUMPI DUP1 DUP3 ADD MLOAD DUP2 DUP5 ADD MSTORE PUSH1 0x20 DUP2 ADD SWAP1 POP PUSH2 0xA1E JUMP JUMPDEST PUSH1 0x0 DUP5 DUP5 ADD MSTORE POP POP POP POP JUMP JUMPDEST PUSH1 0x0 PUSH2 0xA50 DUP3 PUSH2 0xA10 JUMP JUMPDEST PUSH2 0xA5A DUP2 DUP6 PUSH2 0x930 JUMP JUMPDEST SWAP4 POP PUSH2 0xA6A DUP2 DUP6 PUSH1 0x20 DUP7 ADD PUSH2 0xA1B JUMP JUMPDEST PUSH2 0xA73 DUP2 PUSH2 0x679 JUMP JUMPDEST DUP5 ADD SWAP2 POP POP SWAP3 SWAP2 POP POP JUMP JUMPDEST PUSH1 0x0 PUSH1 0x40 DUP3 ADD SWAP1 POP DUP2 DUP2 SUB PUSH1 0x0 DUP4 ADD MSTORE PUSH2 0xA98 DUP2 DUP6 PUSH2 0xA45 JUMP JUMPDEST SWAP1 POP PUSH2 0xAA7 PUSH1 0x20 DUP4 ADD DUP5 PUSH2 0x5DD JUMP JUMPDEST SWAP4 SWAP3 POP POP POP JUMP JUMPDEST PUSH32 0x4E487B7100000000000000000000000000000000000000000000000000000000 PUSH1 0x0 MSTORE PUSH1 0x22 PUSH1 0x4 MSTORE PUSH1 0x24 PUSH1 0x0 REVERT JUMPDEST PUSH1 0x0 PUSH1 0x2 DUP3 DIV SWAP1 POP PUSH1 0x1 DUP3 AND DUP1 PUSH2 0xAF5 JUMPI PUSH1 0x7F DUP3 AND SWAP2 POP JUMPDEST PUSH1 0x20 DUP3 LT DUP2 SUB PUSH2 0xB08 JUMPI PUSH2 0xB07 PUSH2 0xAAE JUMP JUMPDEST JUMPDEST POP SWAP2 SWAP1 POP JUMP JUMPDEST PUSH1 0x0 DUP2 SWAP1 POP DUP2 PUSH1 0x0 MSTORE PUSH1 0x20 PUSH1 0x0 KECCAK256 SWAP1 POP SWAP2 SWAP1 POP JUMP JUMPDEST PUSH1 0x0 PUSH1 0x20 PUSH1 0x1F DUP4 ADD DIV SWAP1 POP SWAP2 SWAP1 POP JUMP JUMPDEST PUSH1 0x0 DUP3 DUP3 SHL SWAP1 POP SWAP3 SWAP2 POP POP JUMP JUMPDEST PUSH1 0x0 PUSH1 0x8 DUP4 MUL PUSH2 0xB70 PUSH32 0xFFFFFFFFFFFFFFFFFFFFFFFFFFFFFFFFFFFFFFFFFFFFFFFFFFFFFFFFFFFFFFFF DUP3 PUSH2 0xB33 JUMP JUMPDEST PUSH2 0xB7A DUP7 DUP4 PUSH2 0xB33 JUMP JUMPDEST SWAP6 POP DUP1 NOT DUP5 AND SWAP4 POP DUP1 DUP7 AND DUP5 OR SWAP3 POP POP POP SWAP4 SWAP3 POP POP POP JUMP JUMPDEST PUSH1 0x0 DUP2 SWAP1 POP SWAP2 SWAP1 POP JUMP JUMPDEST PUSH1 0x0 PUSH2 0xBB7 PUSH2 0xBB2 PUSH2 0xBAD DUP5 PUSH2 0x577 JUMP JUMPDEST PUSH2 0xB92 JUMP JUMPDEST PUSH2 0x577 JUMP JUMPDEST SWAP1 POP SWAP2 SWAP1 POP JUMP JUMPDEST PUSH1 0x0 DUP2 SWAP1 POP SWAP2 SWAP1 POP JUMP JUMPDEST PUSH2 0xBD1 DUP4 PUSH2 0xB9C JUMP JUMPDEST PUSH2 0xBE5 PUSH2 0xBDD DUP3 PUSH2 0xBBE JUMP JUMPDEST DUP5 DUP5 SLOAD PUSH2 0xB40 JUMP JUMPDEST DUP3 SSTORE POP POP POP POP JUMP JUMPDEST PUSH1 0x0 SWAP1 JUMP JUMPDEST PUSH2 0xBFA PUSH2 0xBED JUMP JUMPDEST PUSH2 0xC05 DUP2 DUP5 DUP5 PUSH2 0xBC8 JUMP JUMPDEST POP POP POP JUMP JUMPDEST JUMPDEST DUP2 DUP2 LT ISZERO PUSH2 0xC29 JUMPI PUSH2 0xC1E PUSH1 0x0 DUP3 PUSH2 0xBF2 JUMP JUMPDEST PUSH1 0x1 DUP2 ADD SWAP1 POP PUSH2 0xC0B JUMP JUMPDEST POP POP JUMP JUMPDEST PUSH1 0x1F DUP3 GT ISZERO PUSH2 0xC6E JUMPI PUSH2 0xC3F DUP2 PUSH2 0xB0E JUMP JUMPDEST PUSH2 0xC48 DUP5 PUSH2 0xB23 JUMP JUMPDEST DUP2 ADD PUSH1 0x20 DUP6 LT ISZERO PUSH2 0xC57 JUMPI DUP2 SWAP1 POP JUMPDEST PUSH2 0xC6B PUSH2 0xC63 DUP6 PUSH2 0xB23 JUMP JUMPDEST DUP4 ADD DUP3 PUSH2 0xC0A JUMP JUMPDEST POP POP JUMPDEST POP POP POP JUMP JUMPDEST PUSH1 0x0 DUP3 DUP3 SHR SWAP1 POP SWAP3 SWAP2 POP POP JUMP JUMPDEST PUSH1 0x0 PUSH2 0xC91 PUSH1 0x0 NOT DUP5 PUSH1 0x8 MUL PUSH2 0xC73 JUMP JUMPDEST NOT DUP1 DUP4 AND SWAP2 POP POP SWAP3 SWAP2 POP POP JUMP JUMPDEST PUSH1 0x0 PUSH2 0xCAA DUP4 DUP4 PUSH2 0xC80 JUMP JUMPDEST SWAP2 POP DUP3 PUSH1 0x2 MUL DUP3 OR SWAP1 POP SWAP3 SWAP2 POP POP JUMP JUMPDEST PUSH2 0xCC3 DUP3 PUSH2 0xA10 JUMP JUMPDEST PUSH8 0xFFFFFFFFFFFFFFFF DUP2 GT ISZERO PUSH2 0xCDC JUMPI PUSH2 0xCDB PUSH2 0x68A JUMP JUMPDEST JUMPDEST PUSH2 0xCE6 DUP3 SLOAD PUSH2 0xADD JUMP JUMPDEST PUSH2 0xCF1 DUP3 DUP3 DUP6 PUSH2 0xC2D JUMP JUMPDEST PUSH1 0x0 PUSH1 0x20 SWAP1 POP PUSH1 0x1F DUP4 GT PUSH1 0x1 DUP2 EQ PUSH2 0xD24 JUMPI PUSH1 0x0 DUP5 ISZERO PUSH2 0xD12 JUMPI DUP3 DUP8 ADD MLOAD SWAP1 POP JUMPDEST PUSH2 0xD1C DUP6 DUP3 PUSH2 0xC9E JUMP JUMPDEST DUP7 SSTORE POP PUSH2 0xD84 JUMP JUMPDEST PUSH1 0x1F NOT DUP5 AND PUSH2 0xD32 DUP7 PUSH2 0xB0E JUMP JUMPDEST PUSH1 0x0 JUMPDEST DUP3 DUP2 LT ISZERO PUSH2 0xD5A JUMPI DUP5 DUP10 ADD MLOAD DUP3 SSTORE PUSH1 0x1 DUP3 ADD SWAP2 POP PUSH1 0x20 DUP6 ADD SWAP5 POP PUSH1 0x20 DUP2 ADD SWAP1 POP PUSH2 0xD35 JUMP JUMPDEST DUP7 DUP4 LT ISZERO PUSH2 0xD77 JUMPI DUP5 DUP10 ADD MLOAD PUSH2 0xD73 PUSH1 0x1F DUP10 AND DUP3 PUSH2 0xC80 JUMP JUMPDEST DUP4 SSTORE POP JUMPDEST PUSH1 0x1 PUSH1 0x2 DUP9 MUL ADD DUP9 SSTORE POP POP POP JUMPDEST POP POP POP POP POP POP JUMP INVALID LOG2 PUSH5 0x6970667358 0x22 SLT KECCAK256 0x4F 0xE6 MOD 0xB0 0x4D 0xC 0xB5 0xDF RETURN SSTORE PUSH8 0x7C6E2675B5D38014 0xE0 0x5C 0xE7 LOG1 SWAP7 RETURNDATASIZE PREVRANDAO SUB 0xD6 CREATE2 0x1E 0xB1 0x4C PUSH5 0x736F6C6343 STOP ADDMOD SLT STOP CALLER "
		},
		"gasEstimates": {
			"creation": {
				"codeDepositCost": "704400",
				"executionCost": "infinite",
				"totalCost": "infinite"
			},
			"external": {
				"addPalette(string[5])": "infinite",
				"changeOwner(address)": "30589",
				"colorAmountPerPalette()": "2407",
				"getOwner()": "2522",
				"palettes(uint256)": "infinite"
			},
			"internal": {
				"_getRandomColorIndex()": "infinite",
				"_getRandomPalleteIndex()": "infinite",
				"_random(uint256)": "infinite"
			}
		},
		"methodIdentifiers": {
			"addPalette(string[5])": "b8f7f42a",
			"changeOwner(address)": "a6f9dae1",
			"colorAmountPerPalette()": "109c1238",
			"getOwner()": "893d20e8",
			"palettes(uint256)": "dcf7eefe"
		}
	},
	"abi": [
		{
			"inputs": [],
			"stateMutability": "nonpayable",
			"type": "constructor"
		},
		{
			"anonymous": false,
			"inputs": [
				{
					"indexed": true,
					"internalType": "address",
					"name": "oldOwner",
					"type": "address"
				},
				{
					"indexed": true,
					"internalType": "address",
					"name": "newOwner",
					"type": "address"
				}
			],
			"name": "OwnerSet",
			"type": "event"
		},
		{
			"anonymous": false,
			"inputs": [
				{
					"indexed": false,
					"internalType": "uint256",
					"name": "paletteId",
					"type": "uint256"
				}
			],
			"name": "PaletteCreated",
			"type": "event"
		},
		{
			"inputs": [
				{
					"internalType": "string[5]",
					"name": "_colors",
					"type": "string[5]"
				}
			],
			"name": "addPalette",
			"outputs": [],
			"stateMutability": "nonpayable",
			"type": "function"
		},
		{
			"inputs": [
				{
					"internalType": "address",
					"name": "newOwner",
					"type": "address"
				}
			],
			"name": "changeOwner",
			"outputs": [],
			"stateMutability": "nonpayable",
			"type": "function"
		},
		{
			"inputs": [],
			"name": "colorAmountPerPalette",
			"outputs": [
				{
					"internalType": "uint256",
					"name": "",
					"type": "uint256"
				}
			],
			"stateMutability": "view",
			"type": "function"
		},
		{
			"inputs": [],
			"name": "getOwner",
			"outputs": [
				{
					"internalType": "address",
					"name": "",
					"type": "address"
				}
			],
			"stateMutability": "view",
			"type": "function"
		},
		{
			"inputs": [
				{
					"internalType": "uint256",
					"name": "",
					"type": "uint256"
				}
			],
			"name": "palettes",
			"outputs": [
				{
					"internalType": "uint256",
					"name": "",
					"type": "uint256"
				}
			],
			"stateMutability": "view",
			"type": "function"
		}
	]
}