{
	"data": {
		"bytecode": {
			"linkReferences": {},
			"object": "60806040526005600155600060025566038d7ea4c680006006556000600e553480156200002b57600080fd5b5060405162002c9e38038062002c9e833981810160405281019062000051919062000be5565b336000806101000a81548173ffffffffffffffffffffffffffffffffffffffff021916908373ffffffffffffffffffffffffffffffffffffffff16021790555060008054906101000a900473ffffffffffffffffffffffffffffffffffffffff1673ffffffffffffffffffffffffffffffffffffffff16600073ffffffffffffffffffffffffffffffffffffffff167f8be0079c531659141344cd1fd0a4f28419497f9722a3daafe3b4186f6b6457e060405160405180910390a36200024c6040518060a001604052806040518060400160405280600881526020017f307838343545433200000000000000000000000000000000000000000000000081525081526020016040518060400160405280600881526020017f307834423434353300000000000000000000000000000000000000000000000081525081526020016040518060400160405280600881526020017f307842304138423900000000000000000000000000000000000000000000000081525081526020016040518060400160405280600881526020017f307843333441333600000000000000000000000000000000000000000000000081525081526020016040518060400160405280600881526020017f30784646383036360000000000000000000000000000000000000000000000008152508152506200069f60201b60201c565b6200038c6040518060a001604052806040518060400160405280600881526020017f307836393936373400000000000000000000000000000000000000000000000081525081526020016040518060400160405280600881526020017f307833423441334600000000000000000000000000000000000000000000000081525081526020016040518060400160405280600881526020017f307839454146413200000000000000000000000000000000000000000000000081525081526020016040518060400160405280600881526020017f307834453934423300000000000000000000000000000000000000000000000081525081526020016040518060400160405280600881526020017f30783033363137450000000000000000000000000000000000000000000000008152508152506200069f60201b60201c565b620004cc6040518060a001604052806040518060400160405280600881526020017f307832374236443800000000000000000000000000000000000000000000000081525081526020016040518060400160405280600881526020017f307833333441353200000000000000000000000000000000000000000000000081525081526020016040518060400160405280600881526020017f307839364146423800000000000000000000000000000000000000000000000081525081526020016040518060400160405280600881526020017f307843343938443400000000000000000000000000000000000000000000000081525081526020016040518060400160405280600881526020017f30783845363439440000000000000000000000000000000000000000000000008152508152506200069f60201b60201c565b6200060c6040518060a001604052806040518060400160405280600881526020017f307835414135354200000000000000000000000000000000000000000000000081525081526020016040518060400160405280600881526020017f307832343935364400000000000000000000000000000000000000000000000081525081526020016040518060400160405280600881526020017f307830303833373700000000000000000000000000000000000000000000000081525081526020016040518060400160405280600881526020017f307830303646373700000000000000000000000000000000000000000000000081525081526020016040518060400160405280600881526020017f30783143354236430000000000000000000000000000000000000000000000008152508152506200069f60201b60201c565b84600a90816200061d919062000f15565b5083600b90816200062f919062000f15565b5082600c908162000641919062000f15565b5081600d60006101000a81548173ffffffffffffffffffffffffffffffffffffffff021916908373ffffffffffffffffffffffffffffffffffffffff16021790555062000694816200076d60201b60201c565b505050505062001094565b620006af6200086460201b60201c565b620006b957600080fd5b60038080549050908060018154018082558091505060019003906000526020600020016000909190919091505580600460006001600380549050620006ff91906200102b565b81526020019081526020016000209060056200071d929190620008bb565b507fe1c7c98cdeded3a25c1c7ada5b85013b2c7c9879f1678129a413ea685d0fcc7860016003805490506200075391906200102b565b60405162000762919062001077565b60405180910390a150565b600073ffffffffffffffffffffffffffffffffffffffff168173ffffffffffffffffffffffffffffffffffffffff1603620007a757600080fd5b8073ffffffffffffffffffffffffffffffffffffffff1660008054906101000a900473ffffffffffffffffffffffffffffffffffffffff1673ffffffffffffffffffffffffffffffffffffffff167f8be0079c531659141344cd1fd0a4f28419497f9722a3daafe3b4186f6b6457e060405160405180910390a3806000806101000a81548173ffffffffffffffffffffffffffffffffffffffff021916908373ffffffffffffffffffffffffffffffffffffffff16021790555050565b60008060009054906101000a900473ffffffffffffffffffffffffffffffffffffffff1673ffffffffffffffffffffffffffffffffffffffff163373ffffffffffffffffffffffffffffffffffffffff1614905090565b82805482825590600052602060002090810192821562000908579160200282015b8281111562000907578251829081620008f6919062000f15565b5091602001919060010190620008dc565b5b5090506200091791906200091b565b5090565b5b808211156200093f576000818162000935919062000943565b506001016200091c565b5090565b508054620009519062000d04565b6000825580601f1062000965575062000986565b601f01602090049060005260206000209081019062000985919062000989565b5b50565b5b80821115620009a45760008160009055506001016200098a565b5090565b6000604051905090565b600080fd5b600080fd5b600080fd5b600080fd5b6000601f19601f8301169050919050565b7f4e487b7100000000000000000000000000000000000000000000000000000000600052604160045260246000fd5b62000a1182620009c6565b810181811067ffffffffffffffff8211171562000a335762000a32620009d7565b5b80604052505050565b600062000a48620009a8565b905062000a56828262000a06565b919050565b600067ffffffffffffffff82111562000a795762000a78620009d7565b5b62000a8482620009c6565b9050602081019050919050565b60005b8381101562000ab157808201518184015260208101905062000a94565b60008484015250505050565b600062000ad462000ace8462000a5b565b62000a3c565b90508281526020810184848401111562000af35762000af2620009c1565b5b62000b0084828562000a91565b509392505050565b600082601f83011262000b205762000b1f620009bc565b5b815162000b3284826020860162000abd565b91505092915050565b600073ffffffffffffffffffffffffffffffffffffffff82169050919050565b600062000b688262000b3b565b9050919050565b62000b7a8162000b5b565b811462000b8657600080fd5b50565b60008151905062000b9a8162000b6f565b92915050565b600062000bad8262000b3b565b9050919050565b62000bbf8162000ba0565b811462000bcb57600080fd5b50565b60008151905062000bdf8162000bb4565b92915050565b600080600080600060a0868803121562000c045762000c03620009b2565b5b600086015167ffffffffffffffff81111562000c255762000c24620009b7565b5b62000c338882890162000b08565b955050602086015167ffffffffffffffff81111562000c575762000c56620009b7565b5b62000c658882890162000b08565b945050604086015167ffffffffffffffff81111562000c895762000c88620009b7565b5b62000c978882890162000b08565b935050606062000caa8882890162000b89565b925050608062000cbd8882890162000bce565b9150509295509295909350565b600081519050919050565b7f4e487b7100000000000000000000000000000000000000000000000000000000600052602260045260246000fd5b6000600282049050600182168062000d1d57607f821691505b60208210810362000d335762000d3262000cd5565b5b50919050565b60008190508160005260206000209050919050565b60006020601f8301049050919050565b600082821b905092915050565b60006008830262000d9d7fffffffffffffffffffffffffffffffffffffffffffffffffffffffffffffffff8262000d5e565b62000da9868362000d5e565b95508019841693508086168417925050509392505050565b6000819050919050565b6000819050919050565b600062000df662000df062000dea8462000dc1565b62000dcb565b62000dc1565b9050919050565b6000819050919050565b62000e128362000dd5565b62000e2a62000e218262000dfd565b84845462000d6b565b825550505050565b600090565b62000e4162000e32565b62000e4e81848462000e07565b505050565b5b8181101562000e765762000e6a60008262000e37565b60018101905062000e54565b5050565b601f82111562000ec55762000e8f8162000d39565b62000e9a8462000d4e565b8101602085101562000eaa578190505b62000ec262000eb98562000d4e565b83018262000e53565b50505b505050565b600082821c905092915050565b600062000eea6000198460080262000eca565b1980831691505092915050565b600062000f05838362000ed7565b9150826002028217905092915050565b62000f208262000cca565b67ffffffffffffffff81111562000f3c5762000f3b620009d7565b5b62000f48825462000d04565b62000f5582828562000e7a565b600060209050601f83116001811462000f8d576000841562000f78578287015190505b62000f84858262000ef7565b86555062000ff4565b601f19841662000f9d8662000d39565b60005b8281101562000fc75784890151825560018201915060208501945060208101905062000fa0565b8683101562000fe7578489015162000fe3601f89168262000ed7565b8355505b6001600288020188555050505b505050505050565b7f4e487b7100000000000000000000000000000000000000000000000000000000600052601160045260246000fd5b6000620010388262000dc1565b9150620010458362000dc1565b925082820390508181111562001060576200105f62000ffc565b5b92915050565b620010718162000dc1565b82525050565b60006020820190506200108e600083018462001066565b92915050565b611bfa80620010a46000396000f3fe6080604052600436106101145760003560e01c806380cef3cc116100a0578063dc07065711610064578063dc0706571461035d578063dcf7eefe14610386578063ed88c68e146103c3578063f2fde38b146103cd578063f3ccaac0146103f657610114565b806380cef3cc146102775780638da5cb5b146102a05780638f32d59b146102cb578063b8f7f42a146102f6578063dc0661be1461031f57610114565b80633ccfd60b116100e75780633ccfd60b146101c55780634315399f146101dc5780636f442154146101f8578063715018a6146102355780637284e4161461024c57610114565b806306fdde0314610119578063109c1238146101445780631f5225951461016f57806338af3eed1461019a575b600080fd5b34801561012557600080fd5b5061012e610421565b60405161013b91906111b7565b60405180910390f35b34801561015057600080fd5b506101596104af565b60405161016691906111f2565b60405180910390f35b34801561017b57600080fd5b506101846104b5565b60405161019191906111f2565b60405180910390f35b3480156101a657600080fd5b506101af6104bb565b6040516101bc919061124e565b60405180910390f35b3480156101d157600080fd5b506101da6104e1565b005b6101f660048036038101906101f191906112a9565b61059a565b005b34801561020457600080fd5b5061021f600480360381019061021a9190611327565b6105e7565b60405161022c91906111f2565b60405180910390f35b34801561024157600080fd5b5061024a610630565b005b34801561025857600080fd5b506102616106ff565b60405161026e91906111b7565b60405180910390f35b34801561028357600080fd5b5061029e60048036038101906102999190611327565b61078d565b005b3480156102ac57600080fd5b506102b56108e1565b6040516102c29190611363565b60405180910390f35b3480156102d757600080fd5b506102e061090a565b6040516102ed9190611399565b60405180910390f35b34801561030257600080fd5b5061031d600480360381019061031891906115bd565b610961565b005b34801561032b57600080fd5b5061034660048036038101906103419190611606565b610a1e565b604051610354929190611646565b60405180910390f35b34801561036957600080fd5b50610384600480360381019061037f919061169b565b610a5f565b005b34801561039257600080fd5b506103ad60048036038101906103a891906116c8565b610ab4565b6040516103ba91906111f2565b60405180910390f35b6103cb610ad8565b005b3480156103d957600080fd5b506103f460048036038101906103ef9190611327565b610c82565b005b34801561040257600080fd5b5061040b610c9f565b60405161041891906111b7565b60405180910390f35b600a805461042e90611724565b80601f016020809104026020016040519081016040528092919081815260200182805461045a90611724565b80156104a75780601f1061047c576101008083540402835291602001916104a7565b820191906000526020600020905b81548152906001019060200180831161048a57829003601f168201915b505050505081565b60015481565b600e5481565b600d60009054906101000a900473ffffffffffffffffffffffffffffffffffffffff1681565b6104e961090a565b6104f257600080fd5b6000479050600d60009054906101000a900473ffffffffffffffffffffffffffffffffffffffff1673ffffffffffffffffffffffffffffffffffffffff166108fc829081150290604051600060405180830381858888f1935050505015801561055f573d6000803e3d6000fd5b507f5b6b431d4476a211bb7d41c20d1aab9ae2321deee0d20be3d9fc9b1093fa6e3d8160405161058f91906111f2565b60405180910390a150565b60065434146105a857600080fd5b60038054905081106105b957600080fd5b80600783815481106105ce576105cd611755565b5b9060005260206000209060020201600001819055505050565b6000600860008373ffffffffffffffffffffffffffffffffffffffff1673ffffffffffffffffffffffffffffffffffffffff168152602001908152602001600020549050919050565b61063861090a565b61064157600080fd5b600073ffffffffffffffffffffffffffffffffffffffff1660008054906101000a900473ffffffffffffffffffffffffffffffffffffffff1673ffffffffffffffffffffffffffffffffffffffff167f8be0079c531659141344cd1fd0a4f28419497f9722a3daafe3b4186f6b6457e060405160405180910390a360008060006101000a81548173ffffffffffffffffffffffffffffffffffffffff021916908373ffffffffffffffffffffffffffffffffffffffff160217905550565b600c805461070c90611724565b80601f016020809104026020016040519081016040528092919081815260200182805461073890611724565b80156107855780601f1061075a57610100808354040283529160200191610785565b820191906000526020600020905b81548152906001019060200180831161076857829003601f168201915b505050505081565b6000600167ffffffffffffffff8111156107aa576107a96113b9565b5b6040519080825280602002602001820160405280156107d85781602001602082028036833780820191505090505b509050600760405180604001604052806107f0610d2d565b8152602001838152509080600181540180825580915050600190039060005260206000209060020201600090919091909150600082015181600001556020820151816001019080519060200190610848929190611000565b5050506000600160078054905061085f91906117b3565b905080600860008573ffffffffffffffffffffffffffffffffffffffff1673ffffffffffffffffffffffffffffffffffffffff168152602001908152602001600020819055507faf101d6eb202a80391aeb3bccfdf77a63a9dd196386bf69ae819408c466875b6816040516108d491906111f2565b60405180910390a1505050565b60008060009054906101000a900473ffffffffffffffffffffffffffffffffffffffff16905090565b60008060009054906101000a900473ffffffffffffffffffffffffffffffffffffffff1673ffffffffffffffffffffffffffffffffffffffff163373ffffffffffffffffffffffffffffffffffffffff1614905090565b61096961090a565b61097257600080fd5b600380805490509080600181540180825580915050600190039060005260206000200160009091909190915055806004600060016003805490506109b691906117b3565b81526020019081526020016000209060056109d292919061104d565b507fe1c7c98cdeded3a25c1c7ada5b85013b2c7c9879f1678129a413ea685d0fcc786001600380549050610a0691906117b3565b604051610a1391906111f2565b60405180910390a150565b600f6020528160005260406000208181548110610a3a57600080fd5b9060005260206000209060020201600091509150508060000154908060010154905082565b610a6761090a565b610a7057600080fd5b80600d60006101000a81548173ffffffffffffffffffffffffffffffffffffffff021916908373ffffffffffffffffffffffffffffffffffffffff16021790555050565b60038181548110610ac457600080fd5b906000526020600020016000915090505481565b60006040518060400160405280348152602001428152509050600f60003373ffffffffffffffffffffffffffffffffffffffff1673ffffffffffffffffffffffffffffffffffffffff16815260200190815260200160002081908060018154018082558091505060019003906000526020600020906002020160009091909190915060008201518160000155602082015181600101555050600e6000815480929190610b83906117e7565b9190505550600960003373ffffffffffffffffffffffffffffffffffffffff1673ffffffffffffffffffffffffffffffffffffffff16815260200190815260200160002060009054906101000a900460ff16610be357610be23361078d565b5b6000600860003373ffffffffffffffffffffffffffffffffffffffff1673ffffffffffffffffffffffffffffffffffffffff168152602001908152602001600020549050610c3081610d4e565b3373ffffffffffffffffffffffffffffffffffffffff167f264f630d9efa0d07053a31163641d9fcc0adafc9d9e76f1c37c2ce3a558d2c5234604051610c7691906111f2565b60405180910390a25050565b610c8a61090a565b610c9357600080fd5b610c9c81610db4565b50565b600b8054610cac90611724565b80601f0160208091040260200160405190810160405280929190818152602001828054610cd890611724565b8015610d255780601f10610cfa57610100808354040283529160200191610d25565b820191906000526020600020905b815481529060010190602001808311610d0857829003601f168201915b505050505081565b6000610d496001600380549050610d4491906117b3565b610eaa565b905090565b6000610d62610d5b610f08565b6000610f25565b905060078281548110610d7857610d77611755565b5b90600052602060002090600202016001018190806001815401808255809150506001900390600052602060002001600090919091909150555050565b600073ffffffffffffffffffffffffffffffffffffffff168173ffffffffffffffffffffffffffffffffffffffff1603610ded57600080fd5b8073ffffffffffffffffffffffffffffffffffffffff1660008054906101000a900473ffffffffffffffffffffffffffffffffffffffff1673ffffffffffffffffffffffffffffffffffffffff167f8be0079c531659141344cd1fd0a4f28419497f9722a3daafe3b4186f6b6457e060405160405180910390a3806000806101000a81548173ffffffffffffffffffffffffffffffffffffffff021916908373ffffffffffffffffffffffffffffffffffffffff16021790555050565b600060026000815480929190610ebf906117e7565b919050555081424433600254604051602001610ede9493929190611898565b6040516020818303038152906040528051906020012060001c610f019190611915565b9050919050565b6000610f2060018054610f1b91906117b3565b610eaa565b905090565b6000600560405180606001604052803373ffffffffffffffffffffffffffffffffffffffff16815260200185815260200184815250908060018154018082558091505060019003906000526020600020906003020160009091909190915060008201518160000160006101000a81548173ffffffffffffffffffffffffffffffffffffffff021916908373ffffffffffffffffffffffffffffffffffffffff1602179055506020820151816001015560408201518160020155505060006001600580549050610ff491906117b3565b90508091505092915050565b82805482825590600052602060002090810192821561103c579160200282015b8281111561103b578251825591602001919060010190611020565b5b50905061104991906110a6565b5090565b828054828255906000526020600020908101928215611095579160200282015b828111156110945782518290816110849190611af2565b509160200191906001019061106d565b5b5090506110a291906110c3565b5090565b5b808211156110bf5760008160009055506001016110a7565b5090565b5b808211156110e357600081816110da91906110e7565b506001016110c4565b5090565b5080546110f390611724565b6000825580601f106111055750611124565b601f01602090049060005260206000209081019061112391906110a6565b5b50565b600081519050919050565b600082825260208201905092915050565b60005b83811015611161578082015181840152602081019050611146565b60008484015250505050565b6000601f19601f8301169050919050565b600061118982611127565b6111938185611132565b93506111a3818560208601611143565b6111ac8161116d565b840191505092915050565b600060208201905081810360008301526111d1818461117e565b905092915050565b6000819050919050565b6111ec816111d9565b82525050565b600060208201905061120760008301846111e3565b92915050565b600073ffffffffffffffffffffffffffffffffffffffff82169050919050565b60006112388261120d565b9050919050565b6112488161122d565b82525050565b6000602082019050611263600083018461123f565b92915050565b6000604051905090565b600080fd5b600080fd5b611286816111d9565b811461129157600080fd5b50565b6000813590506112a38161127d565b92915050565b600080604083850312156112c0576112bf611273565b5b60006112ce85828601611294565b92505060206112df85828601611294565b9150509250929050565b60006112f48261120d565b9050919050565b611304816112e9565b811461130f57600080fd5b50565b600081359050611321816112fb565b92915050565b60006020828403121561133d5761133c611273565b5b600061134b84828501611312565b91505092915050565b61135d816112e9565b82525050565b60006020820190506113786000830184611354565b92915050565b60008115159050919050565b6113938161137e565b82525050565b60006020820190506113ae600083018461138a565b92915050565b600080fd5b7f4e487b7100000000000000000000000000000000000000000000000000000000600052604160045260246000fd5b6113f18261116d565b810181811067ffffffffffffffff821117156114105761140f6113b9565b5b80604052505050565b6000611423611269565b905061142f82826113e8565b919050565b600067ffffffffffffffff82111561144f5761144e6113b9565b5b602082029050919050565b600080fd5b600080fd5b600067ffffffffffffffff82111561147f5761147e6113b9565b5b6114888261116d565b9050602081019050919050565b82818337600083830152505050565b60006114b76114b284611464565b611419565b9050828152602081018484840111156114d3576114d261145f565b5b6114de848285611495565b509392505050565b600082601f8301126114fb576114fa6113b4565b5b813561150b8482602086016114a4565b91505092915050565b600061152761152284611434565b611419565b905080602084028301858111156115415761154061145a565b5b835b8181101561158857803567ffffffffffffffff811115611566576115656113b4565b5b80860161157389826114e6565b85526020850194505050602081019050611543565b5050509392505050565b600082601f8301126115a7576115a66113b4565b5b60056115b4848285611514565b91505092915050565b6000602082840312156115d3576115d2611273565b5b600082013567ffffffffffffffff8111156115f1576115f0611278565b5b6115fd84828501611592565b91505092915050565b6000806040838503121561161d5761161c611273565b5b600061162b85828601611312565b925050602061163c85828601611294565b9150509250929050565b600060408201905061165b60008301856111e3565b61166860208301846111e3565b9392505050565b6116788161122d565b811461168357600080fd5b50565b6000813590506116958161166f565b92915050565b6000602082840312156116b1576116b0611273565b5b60006116bf84828501611686565b91505092915050565b6000602082840312156116de576116dd611273565b5b60006116ec84828501611294565b91505092915050565b7f4e487b7100000000000000000000000000000000000000000000000000000000600052602260045260246000fd5b6000600282049050600182168061173c57607f821691505b60208210810361174f5761174e6116f5565b5b50919050565b7f4e487b7100000000000000000000000000000000000000000000000000000000600052603260045260246000fd5b7f4e487b7100000000000000000000000000000000000000000000000000000000600052601160045260246000fd5b60006117be826111d9565b91506117c9836111d9565b92508282039050818111156117e1576117e0611784565b5b92915050565b60006117f2826111d9565b91507fffffffffffffffffffffffffffffffffffffffffffffffffffffffffffffffff820361182457611823611784565b5b600182019050919050565b6000819050919050565b61184a611845826111d9565b61182f565b82525050565b60008160601b9050919050565b600061186882611850565b9050919050565b600061187a8261185d565b9050919050565b61189261188d826112e9565b61186f565b82525050565b60006118a48287611839565b6020820191506118b48286611839565b6020820191506118c48285611881565b6014820191506118d48284611839565b60208201915081905095945050505050565b7f4e487b7100000000000000000000000000000000000000000000000000000000600052601260045260246000fd5b6000611920826111d9565b915061192b836111d9565b92508261193b5761193a6118e6565b5b828206905092915050565b60008190508160005260206000209050919050565b60006020601f8301049050919050565b600082821b905092915050565b6000600883026119a87fffffffffffffffffffffffffffffffffffffffffffffffffffffffffffffffff8261196b565b6119b2868361196b565b95508019841693508086168417925050509392505050565b6000819050919050565b60006119ef6119ea6119e5846111d9565b6119ca565b6111d9565b9050919050565b6000819050919050565b611a09836119d4565b611a1d611a15826119f6565b848454611978565b825550505050565b600090565b611a32611a25565b611a3d818484611a00565b505050565b5b81811015611a6157611a56600082611a2a565b600181019050611a43565b5050565b601f821115611aa657611a7781611946565b611a808461195b565b81016020851015611a8f578190505b611aa3611a9b8561195b565b830182611a42565b50505b505050565b600082821c905092915050565b6000611ac960001984600802611aab565b1980831691505092915050565b6000611ae28383611ab8565b9150826002028217905092915050565b611afb82611127565b67ffffffffffffffff811115611b1457611b136113b9565b5b611b1e8254611724565b611b29828285611a65565b600060209050601f831160018114611b5c5760008415611b4a578287015190505b611b548582611ad6565b865550611bbc565b601f198416611b6a86611946565b60005b82811015611b9257848901518255600182019150602085019450602081019050611b6d565b86831015611baf5784890151611bab601f891682611ab8565b8355505b6001600288020188555050505b50505050505056fea26469706673582212205f36a3f5f9ef2818f3af3cdc47fd501675366a902a560e7bccff570a896e784364736f6c63430008120033",
			"opcodes": "PUSH1 0x80 PUSH1 0x40 MSTORE PUSH1 0x5 PUSH1 0x1 SSTORE PUSH1 0x0 PUSH1 0x2 SSTORE PUSH7 0x38D7EA4C68000 PUSH1 0x6 SSTORE PUSH1 0x0 PUSH1 0xE SSTORE CALLVALUE DUP1 ISZERO PUSH3 0x2B JUMPI PUSH1 0x0 DUP1 REVERT JUMPDEST POP PUSH1 0x40 MLOAD PUSH3 0x2C9E CODESIZE SUB DUP1 PUSH3 0x2C9E DUP4 CODECOPY DUP2 DUP2 ADD PUSH1 0x40 MSTORE DUP2 ADD SWAP1 PUSH3 0x51 SWAP2 SWAP1 PUSH3 0xBE5 JUMP JUMPDEST CALLER PUSH1 0x0 DUP1 PUSH2 0x100 EXP DUP2 SLOAD DUP2 PUSH20 0xFFFFFFFFFFFFFFFFFFFFFFFFFFFFFFFFFFFFFFFF MUL NOT AND SWAP1 DUP4 PUSH20 0xFFFFFFFFFFFFFFFFFFFFFFFFFFFFFFFFFFFFFFFF AND MUL OR SWAP1 SSTORE POP PUSH1 0x0 DUP1 SLOAD SWAP1 PUSH2 0x100 EXP SWAP1 DIV PUSH20 0xFFFFFFFFFFFFFFFFFFFFFFFFFFFFFFFFFFFFFFFF AND PUSH20 0xFFFFFFFFFFFFFFFFFFFFFFFFFFFFFFFFFFFFFFFF AND PUSH1 0x0 PUSH20 0xFFFFFFFFFFFFFFFFFFFFFFFFFFFFFFFFFFFFFFFF AND PUSH32 0x8BE0079C531659141344CD1FD0A4F28419497F9722A3DAAFE3B4186F6B6457E0 PUSH1 0x40 MLOAD PUSH1 0x40 MLOAD DUP1 SWAP2 SUB SWAP1 LOG3 PUSH3 0x24C PUSH1 0x40 MLOAD DUP1 PUSH1 0xA0 ADD PUSH1 0x40 MSTORE DUP1 PUSH1 0x40 MLOAD DUP1 PUSH1 0x40 ADD PUSH1 0x40 MSTORE DUP1 PUSH1 0x8 DUP2 MSTORE PUSH1 0x20 ADD PUSH32 0x3078383435454332000000000000000000000000000000000000000000000000 DUP2 MSTORE POP DUP2 MSTORE PUSH1 0x20 ADD PUSH1 0x40 MLOAD DUP1 PUSH1 0x40 ADD PUSH1 0x40 MSTORE DUP1 PUSH1 0x8 DUP2 MSTORE PUSH1 0x20 ADD PUSH32 0x3078344234343533000000000000000000000000000000000000000000000000 DUP2 MSTORE POP DUP2 MSTORE PUSH1 0x20 ADD PUSH1 0x40 MLOAD DUP1 PUSH1 0x40 ADD PUSH1 0x40 MSTORE DUP1 PUSH1 0x8 DUP2 MSTORE PUSH1 0x20 ADD PUSH32 0x3078423041384239000000000000000000000000000000000000000000000000 DUP2 MSTORE POP DUP2 MSTORE PUSH1 0x20 ADD PUSH1 0x40 MLOAD DUP1 PUSH1 0x40 ADD PUSH1 0x40 MSTORE DUP1 PUSH1 0x8 DUP2 MSTORE PUSH1 0x20 ADD PUSH32 0x3078433334413336000000000000000000000000000000000000000000000000 DUP2 MSTORE POP DUP2 MSTORE PUSH1 0x20 ADD PUSH1 0x40 MLOAD DUP1 PUSH1 0x40 ADD PUSH1 0x40 MSTORE DUP1 PUSH1 0x8 DUP2 MSTORE PUSH1 0x20 ADD PUSH32 0x3078464638303636000000000000000000000000000000000000000000000000 DUP2 MSTORE POP DUP2 MSTORE POP PUSH3 0x69F PUSH1 0x20 SHL PUSH1 0x20 SHR JUMP JUMPDEST PUSH3 0x38C PUSH1 0x40 MLOAD DUP1 PUSH1 0xA0 ADD PUSH1 0x40 MSTORE DUP1 PUSH1 0x40 MLOAD DUP1 PUSH1 0x40 ADD PUSH1 0x40 MSTORE DUP1 PUSH1 0x8 DUP2 MSTORE PUSH1 0x20 ADD PUSH32 0x3078363939363734000000000000000000000000000000000000000000000000 DUP2 MSTORE POP DUP2 MSTORE PUSH1 0x20 ADD PUSH1 0x40 MLOAD DUP1 PUSH1 0x40 ADD PUSH1 0x40 MSTORE DUP1 PUSH1 0x8 DUP2 MSTORE PUSH1 0x20 ADD PUSH32 0x3078334234413346000000000000000000000000000000000000000000000000 DUP2 MSTORE POP DUP2 MSTORE PUSH1 0x20 ADD PUSH1 0x40 MLOAD DUP1 PUSH1 0x40 ADD PUSH1 0x40 MSTORE DUP1 PUSH1 0x8 DUP2 MSTORE PUSH1 0x20 ADD PUSH32 0x3078394541464132000000000000000000000000000000000000000000000000 DUP2 MSTORE POP DUP2 MSTORE PUSH1 0x20 ADD PUSH1 0x40 MLOAD DUP1 PUSH1 0x40 ADD PUSH1 0x40 MSTORE DUP1 PUSH1 0x8 DUP2 MSTORE PUSH1 0x20 ADD PUSH32 0x3078344539344233000000000000000000000000000000000000000000000000 DUP2 MSTORE POP DUP2 MSTORE PUSH1 0x20 ADD PUSH1 0x40 MLOAD DUP1 PUSH1 0x40 ADD PUSH1 0x40 MSTORE DUP1 PUSH1 0x8 DUP2 MSTORE PUSH1 0x20 ADD PUSH32 0x3078303336313745000000000000000000000000000000000000000000000000 DUP2 MSTORE POP DUP2 MSTORE POP PUSH3 0x69F PUSH1 0x20 SHL PUSH1 0x20 SHR JUMP JUMPDEST PUSH3 0x4CC PUSH1 0x40 MLOAD DUP1 PUSH1 0xA0 ADD PUSH1 0x40 MSTORE DUP1 PUSH1 0x40 MLOAD DUP1 PUSH1 0x40 ADD PUSH1 0x40 MSTORE DUP1 PUSH1 0x8 DUP2 MSTORE PUSH1 0x20 ADD PUSH32 0x3078323742364438000000000000000000000000000000000000000000000000 DUP2 MSTORE POP DUP2 MSTORE PUSH1 0x20 ADD PUSH1 0x40 MLOAD DUP1 PUSH1 0x40 ADD PUSH1 0x40 MSTORE DUP1 PUSH1 0x8 DUP2 MSTORE PUSH1 0x20 ADD PUSH32 0x3078333334413532000000000000000000000000000000000000000000000000 DUP2 MSTORE POP DUP2 MSTORE PUSH1 0x20 ADD PUSH1 0x40 MLOAD DUP1 PUSH1 0x40 ADD PUSH1 0x40 MSTORE DUP1 PUSH1 0x8 DUP2 MSTORE PUSH1 0x20 ADD PUSH32 0x3078393641464238000000000000000000000000000000000000000000000000 DUP2 MSTORE POP DUP2 MSTORE PUSH1 0x20 ADD PUSH1 0x40 MLOAD DUP1 PUSH1 0x40 ADD PUSH1 0x40 MSTORE DUP1 PUSH1 0x8 DUP2 MSTORE PUSH1 0x20 ADD PUSH32 0x3078433439384434000000000000000000000000000000000000000000000000 DUP2 MSTORE POP DUP2 MSTORE PUSH1 0x20 ADD PUSH1 0x40 MLOAD DUP1 PUSH1 0x40 ADD PUSH1 0x40 MSTORE DUP1 PUSH1 0x8 DUP2 MSTORE PUSH1 0x20 ADD PUSH32 0x3078384536343944000000000000000000000000000000000000000000000000 DUP2 MSTORE POP DUP2 MSTORE POP PUSH3 0x69F PUSH1 0x20 SHL PUSH1 0x20 SHR JUMP JUMPDEST PUSH3 0x60C PUSH1 0x40 MLOAD DUP1 PUSH1 0xA0 ADD PUSH1 0x40 MSTORE DUP1 PUSH1 0x40 MLOAD DUP1 PUSH1 0x40 ADD PUSH1 0x40 MSTORE DUP1 PUSH1 0x8 DUP2 MSTORE PUSH1 0x20 ADD PUSH32 0x3078354141353542000000000000000000000000000000000000000000000000 DUP2 MSTORE POP DUP2 MSTORE PUSH1 0x20 ADD PUSH1 0x40 MLOAD DUP1 PUSH1 0x40 ADD PUSH1 0x40 MSTORE DUP1 PUSH1 0x8 DUP2 MSTORE PUSH1 0x20 ADD PUSH32 0x3078323439353644000000000000000000000000000000000000000000000000 DUP2 MSTORE POP DUP2 MSTORE PUSH1 0x20 ADD PUSH1 0x40 MLOAD DUP1 PUSH1 0x40 ADD PUSH1 0x40 MSTORE DUP1 PUSH1 0x8 DUP2 MSTORE PUSH1 0x20 ADD PUSH32 0x3078303038333737000000000000000000000000000000000000000000000000 DUP2 MSTORE POP DUP2 MSTORE PUSH1 0x20 ADD PUSH1 0x40 MLOAD DUP1 PUSH1 0x40 ADD PUSH1 0x40 MSTORE DUP1 PUSH1 0x8 DUP2 MSTORE PUSH1 0x20 ADD PUSH32 0x3078303036463737000000000000000000000000000000000000000000000000 DUP2 MSTORE POP DUP2 MSTORE PUSH1 0x20 ADD PUSH1 0x40 MLOAD DUP1 PUSH1 0x40 ADD PUSH1 0x40 MSTORE DUP1 PUSH1 0x8 DUP2 MSTORE PUSH1 0x20 ADD PUSH32 0x3078314335423643000000000000000000000000000000000000000000000000 DUP2 MSTORE POP DUP2 MSTORE POP PUSH3 0x69F PUSH1 0x20 SHL PUSH1 0x20 SHR JUMP JUMPDEST DUP5 PUSH1 0xA SWAP1 DUP2 PUSH3 0x61D SWAP2 SWAP1 PUSH3 0xF15 JUMP JUMPDEST POP DUP4 PUSH1 0xB SWAP1 DUP2 PUSH3 0x62F SWAP2 SWAP1 PUSH3 0xF15 JUMP JUMPDEST POP DUP3 PUSH1 0xC SWAP1 DUP2 PUSH3 0x641 SWAP2 SWAP1 PUSH3 0xF15 JUMP JUMPDEST POP DUP2 PUSH1 0xD PUSH1 0x0 PUSH2 0x100 EXP DUP2 SLOAD DUP2 PUSH20 0xFFFFFFFFFFFFFFFFFFFFFFFFFFFFFFFFFFFFFFFF MUL NOT AND SWAP1 DUP4 PUSH20 0xFFFFFFFFFFFFFFFFFFFFFFFFFFFFFFFFFFFFFFFF AND MUL OR SWAP1 SSTORE POP PUSH3 0x694 DUP2 PUSH3 0x76D PUSH1 0x20 SHL PUSH1 0x20 SHR JUMP JUMPDEST POP POP POP POP POP PUSH3 0x1094 JUMP JUMPDEST PUSH3 0x6AF PUSH3 0x864 PUSH1 0x20 SHL PUSH1 0x20 SHR JUMP JUMPDEST PUSH3 0x6B9 JUMPI PUSH1 0x0 DUP1 REVERT JUMPDEST PUSH1 0x3 DUP1 DUP1 SLOAD SWAP1 POP SWAP1 DUP1 PUSH1 0x1 DUP2 SLOAD ADD DUP1 DUP3 SSTORE DUP1 SWAP2 POP POP PUSH1 0x1 SWAP1 SUB SWAP1 PUSH1 0x0 MSTORE PUSH1 0x20 PUSH1 0x0 KECCAK256 ADD PUSH1 0x0 SWAP1 SWAP2 SWAP1 SWAP2 SWAP1 SWAP2 POP SSTORE DUP1 PUSH1 0x4 PUSH1 0x0 PUSH1 0x1 PUSH1 0x3 DUP1 SLOAD SWAP1 POP PUSH3 0x6FF SWAP2 SWAP1 PUSH3 0x102B JUMP JUMPDEST DUP2 MSTORE PUSH1 0x20 ADD SWAP1 DUP2 MSTORE PUSH1 0x20 ADD PUSH1 0x0 KECCAK256 SWAP1 PUSH1 0x5 PUSH3 0x71D SWAP3 SWAP2 SWAP1 PUSH3 0x8BB JUMP JUMPDEST POP PUSH32 0xE1C7C98CDEDED3A25C1C7ADA5B85013B2C7C9879F1678129A413EA685D0FCC78 PUSH1 0x1 PUSH1 0x3 DUP1 SLOAD SWAP1 POP PUSH3 0x753 SWAP2 SWAP1 PUSH3 0x102B JUMP JUMPDEST PUSH1 0x40 MLOAD PUSH3 0x762 SWAP2 SWAP1 PUSH3 0x1077 JUMP JUMPDEST PUSH1 0x40 MLOAD DUP1 SWAP2 SUB SWAP1 LOG1 POP JUMP JUMPDEST PUSH1 0x0 PUSH20 0xFFFFFFFFFFFFFFFFFFFFFFFFFFFFFFFFFFFFFFFF AND DUP2 PUSH20 0xFFFFFFFFFFFFFFFFFFFFFFFFFFFFFFFFFFFFFFFF AND SUB PUSH3 0x7A7 JUMPI PUSH1 0x0 DUP1 REVERT JUMPDEST DUP1 PUSH20 0xFFFFFFFFFFFFFFFFFFFFFFFFFFFFFFFFFFFFFFFF AND PUSH1 0x0 DUP1 SLOAD SWAP1 PUSH2 0x100 EXP SWAP1 DIV PUSH20 0xFFFFFFFFFFFFFFFFFFFFFFFFFFFFFFFFFFFFFFFF AND PUSH20 0xFFFFFFFFFFFFFFFFFFFFFFFFFFFFFFFFFFFFFFFF AND PUSH32 0x8BE0079C531659141344CD1FD0A4F28419497F9722A3DAAFE3B4186F6B6457E0 PUSH1 0x40 MLOAD PUSH1 0x40 MLOAD DUP1 SWAP2 SUB SWAP1 LOG3 DUP1 PUSH1 0x0 DUP1 PUSH2 0x100 EXP DUP2 SLOAD DUP2 PUSH20 0xFFFFFFFFFFFFFFFFFFFFFFFFFFFFFFFFFFFFFFFF MUL NOT AND SWAP1 DUP4 PUSH20 0xFFFFFFFFFFFFFFFFFFFFFFFFFFFFFFFFFFFFFFFF AND MUL OR SWAP1 SSTORE POP POP JUMP JUMPDEST PUSH1 0x0 DUP1 PUSH1 0x0 SWAP1 SLOAD SWAP1 PUSH2 0x100 EXP SWAP1 DIV PUSH20 0xFFFFFFFFFFFFFFFFFFFFFFFFFFFFFFFFFFFFFFFF AND PUSH20 0xFFFFFFFFFFFFFFFFFFFFFFFFFFFFFFFFFFFFFFFF AND CALLER PUSH20 0xFFFFFFFFFFFFFFFFFFFFFFFFFFFFFFFFFFFFFFFF AND EQ SWAP1 POP SWAP1 JUMP JUMPDEST DUP3 DUP1 SLOAD DUP3 DUP3 SSTORE SWAP1 PUSH1 0x0 MSTORE PUSH1 0x20 PUSH1 0x0 KECCAK256 SWAP1 DUP2 ADD SWAP3 DUP3 ISZERO PUSH3 0x908 JUMPI SWAP2 PUSH1 0x20 MUL DUP3 ADD JUMPDEST DUP3 DUP2 GT ISZERO PUSH3 0x907 JUMPI DUP3 MLOAD DUP3 SWAP1 DUP2 PUSH3 0x8F6 SWAP2 SWAP1 PUSH3 0xF15 JUMP JUMPDEST POP SWAP2 PUSH1 0x20 ADD SWAP2 SWAP1 PUSH1 0x1 ADD SWAP1 PUSH3 0x8DC JUMP JUMPDEST JUMPDEST POP SWAP1 POP PUSH3 0x917 SWAP2 SWAP1 PUSH3 0x91B JUMP JUMPDEST POP SWAP1 JUMP JUMPDEST JUMPDEST DUP1 DUP3 GT ISZERO PUSH3 0x93F JUMPI PUSH1 0x0 DUP2 DUP2 PUSH3 0x935 SWAP2 SWAP1 PUSH3 0x943 JUMP JUMPDEST POP PUSH1 0x1 ADD PUSH3 0x91C JUMP JUMPDEST POP SWAP1 JUMP JUMPDEST POP DUP1 SLOAD PUSH3 0x951 SWAP1 PUSH3 0xD04 JUMP JUMPDEST PUSH1 0x0 DUP3 SSTORE DUP1 PUSH1 0x1F LT PUSH3 0x965 JUMPI POP PUSH3 0x986 JUMP JUMPDEST PUSH1 0x1F ADD PUSH1 0x20 SWAP1 DIV SWAP1 PUSH1 0x0 MSTORE PUSH1 0x20 PUSH1 0x0 KECCAK256 SWAP1 DUP2 ADD SWAP1 PUSH3 0x985 SWAP2 SWAP1 PUSH3 0x989 JUMP JUMPDEST JUMPDEST POP JUMP JUMPDEST JUMPDEST DUP1 DUP3 GT ISZERO PUSH3 0x9A4 JUMPI PUSH1 0x0 DUP2 PUSH1 0x0 SWAP1 SSTORE POP PUSH1 0x1 ADD PUSH3 0x98A JUMP JUMPDEST POP SWAP1 JUMP JUMPDEST PUSH1 0x0 PUSH1 0x40 MLOAD SWAP1 POP SWAP1 JUMP JUMPDEST PUSH1 0x0 DUP1 REVERT JUMPDEST PUSH1 0x0 DUP1 REVERT JUMPDEST PUSH1 0x0 DUP1 REVERT JUMPDEST PUSH1 0x0 DUP1 REVERT JUMPDEST PUSH1 0x0 PUSH1 0x1F NOT PUSH1 0x1F DUP4 ADD AND SWAP1 POP SWAP2 SWAP1 POP JUMP JUMPDEST PUSH32 0x4E487B7100000000000000000000000000000000000000000000000000000000 PUSH1 0x0 MSTORE PUSH1 0x41 PUSH1 0x4 MSTORE PUSH1 0x24 PUSH1 0x0 REVERT JUMPDEST PUSH3 0xA11 DUP3 PUSH3 0x9C6 JUMP JUMPDEST DUP2 ADD DUP2 DUP2 LT PUSH8 0xFFFFFFFFFFFFFFFF DUP3 GT OR ISZERO PUSH3 0xA33 JUMPI PUSH3 0xA32 PUSH3 0x9D7 JUMP JUMPDEST JUMPDEST DUP1 PUSH1 0x40 MSTORE POP POP POP JUMP JUMPDEST PUSH1 0x0 PUSH3 0xA48 PUSH3 0x9A8 JUMP JUMPDEST SWAP1 POP PUSH3 0xA56 DUP3 DUP3 PUSH3 0xA06 JUMP JUMPDEST SWAP2 SWAP1 POP JUMP JUMPDEST PUSH1 0x0 PUSH8 0xFFFFFFFFFFFFFFFF DUP3 GT ISZERO PUSH3 0xA79 JUMPI PUSH3 0xA78 PUSH3 0x9D7 JUMP JUMPDEST JUMPDEST PUSH3 0xA84 DUP3 PUSH3 0x9C6 JUMP JUMPDEST SWAP1 POP PUSH1 0x20 DUP2 ADD SWAP1 POP SWAP2 SWAP1 POP JUMP JUMPDEST PUSH1 0x0 JUMPDEST DUP4 DUP2 LT ISZERO PUSH3 0xAB1 JUMPI DUP1 DUP3 ADD MLOAD DUP2 DUP5 ADD MSTORE PUSH1 0x20 DUP2 ADD SWAP1 POP PUSH3 0xA94 JUMP JUMPDEST PUSH1 0x0 DUP5 DUP5 ADD MSTORE POP POP POP POP JUMP JUMPDEST PUSH1 0x0 PUSH3 0xAD4 PUSH3 0xACE DUP5 PUSH3 0xA5B JUMP JUMPDEST PUSH3 0xA3C JUMP JUMPDEST SWAP1 POP DUP3 DUP2 MSTORE PUSH1 0x20 DUP2 ADD DUP5 DUP5 DUP5 ADD GT ISZERO PUSH3 0xAF3 JUMPI PUSH3 0xAF2 PUSH3 0x9C1 JUMP JUMPDEST JUMPDEST PUSH3 0xB00 DUP5 DUP3 DUP6 PUSH3 0xA91 JUMP JUMPDEST POP SWAP4 SWAP3 POP POP POP JUMP JUMPDEST PUSH1 0x0 DUP3 PUSH1 0x1F DUP4 ADD SLT PUSH3 0xB20 JUMPI PUSH3 0xB1F PUSH3 0x9BC JUMP JUMPDEST JUMPDEST DUP2 MLOAD PUSH3 0xB32 DUP5 DUP3 PUSH1 0x20 DUP7 ADD PUSH3 0xABD JUMP JUMPDEST SWAP2 POP POP SWAP3 SWAP2 POP POP JUMP JUMPDEST PUSH1 0x0 PUSH20 0xFFFFFFFFFFFFFFFFFFFFFFFFFFFFFFFFFFFFFFFF DUP3 AND SWAP1 POP SWAP2 SWAP1 POP JUMP JUMPDEST PUSH1 0x0 PUSH3 0xB68 DUP3 PUSH3 0xB3B JUMP JUMPDEST SWAP1 POP SWAP2 SWAP1 POP JUMP JUMPDEST PUSH3 0xB7A DUP2 PUSH3 0xB5B JUMP JUMPDEST DUP2 EQ PUSH3 0xB86 JUMPI PUSH1 0x0 DUP1 REVERT JUMPDEST POP JUMP JUMPDEST PUSH1 0x0 DUP2 MLOAD SWAP1 POP PUSH3 0xB9A DUP2 PUSH3 0xB6F JUMP JUMPDEST SWAP3 SWAP2 POP POP JUMP JUMPDEST PUSH1 0x0 PUSH3 0xBAD DUP3 PUSH3 0xB3B JUMP JUMPDEST SWAP1 POP SWAP2 SWAP1 POP JUMP JUMPDEST PUSH3 0xBBF DUP2 PUSH3 0xBA0 JUMP JUMPDEST DUP2 EQ PUSH3 0xBCB JUMPI PUSH1 0x0 DUP1 REVERT JUMPDEST POP JUMP JUMPDEST PUSH1 0x0 DUP2 MLOAD SWAP1 POP PUSH3 0xBDF DUP2 PUSH3 0xBB4 JUMP JUMPDEST SWAP3 SWAP2 POP POP JUMP JUMPDEST PUSH1 0x0 DUP1 PUSH1 0x0 DUP1 PUSH1 0x0 PUSH1 0xA0 DUP7 DUP9 SUB SLT ISZERO PUSH3 0xC04 JUMPI PUSH3 0xC03 PUSH3 0x9B2 JUMP JUMPDEST JUMPDEST PUSH1 0x0 DUP7 ADD MLOAD PUSH8 0xFFFFFFFFFFFFFFFF DUP2 GT ISZERO PUSH3 0xC25 JUMPI PUSH3 0xC24 PUSH3 0x9B7 JUMP JUMPDEST JUMPDEST PUSH3 0xC33 DUP9 DUP3 DUP10 ADD PUSH3 0xB08 JUMP JUMPDEST SWAP6 POP POP PUSH1 0x20 DUP7 ADD MLOAD PUSH8 0xFFFFFFFFFFFFFFFF DUP2 GT ISZERO PUSH3 0xC57 JUMPI PUSH3 0xC56 PUSH3 0x9B7 JUMP JUMPDEST JUMPDEST PUSH3 0xC65 DUP9 DUP3 DUP10 ADD PUSH3 0xB08 JUMP JUMPDEST SWAP5 POP POP PUSH1 0x40 DUP7 ADD MLOAD PUSH8 0xFFFFFFFFFFFFFFFF DUP2 GT ISZERO PUSH3 0xC89 JUMPI PUSH3 0xC88 PUSH3 0x9B7 JUMP JUMPDEST JUMPDEST PUSH3 0xC97 DUP9 DUP3 DUP10 ADD PUSH3 0xB08 JUMP JUMPDEST SWAP4 POP POP PUSH1 0x60 PUSH3 0xCAA DUP9 DUP3 DUP10 ADD PUSH3 0xB89 JUMP JUMPDEST SWAP3 POP POP PUSH1 0x80 PUSH3 0xCBD DUP9 DUP3 DUP10 ADD PUSH3 0xBCE JUMP JUMPDEST SWAP2 POP POP SWAP3 SWAP6 POP SWAP3 SWAP6 SWAP1 SWAP4 POP JUMP JUMPDEST PUSH1 0x0 DUP2 MLOAD SWAP1 POP SWAP2 SWAP1 POP JUMP JUMPDEST PUSH32 0x4E487B7100000000000000000000000000000000000000000000000000000000 PUSH1 0x0 MSTORE PUSH1 0x22 PUSH1 0x4 MSTORE PUSH1 0x24 PUSH1 0x0 REVERT JUMPDEST PUSH1 0x0 PUSH1 0x2 DUP3 DIV SWAP1 POP PUSH1 0x1 DUP3 AND DUP1 PUSH3 0xD1D JUMPI PUSH1 0x7F DUP3 AND SWAP2 POP JUMPDEST PUSH1 0x20 DUP3 LT DUP2 SUB PUSH3 0xD33 JUMPI PUSH3 0xD32 PUSH3 0xCD5 JUMP JUMPDEST JUMPDEST POP SWAP2 SWAP1 POP JUMP JUMPDEST PUSH1 0x0 DUP2 SWAP1 POP DUP2 PUSH1 0x0 MSTORE PUSH1 0x20 PUSH1 0x0 KECCAK256 SWAP1 POP SWAP2 SWAP1 POP JUMP JUMPDEST PUSH1 0x0 PUSH1 0x20 PUSH1 0x1F DUP4 ADD DIV SWAP1 POP SWAP2 SWAP1 POP JUMP JUMPDEST PUSH1 0x0 DUP3 DUP3 SHL SWAP1 POP SWAP3 SWAP2 POP POP JUMP JUMPDEST PUSH1 0x0 PUSH1 0x8 DUP4 MUL PUSH3 0xD9D PUSH32 0xFFFFFFFFFFFFFFFFFFFFFFFFFFFFFFFFFFFFFFFFFFFFFFFFFFFFFFFFFFFFFFFF DUP3 PUSH3 0xD5E JUMP JUMPDEST PUSH3 0xDA9 DUP7 DUP4 PUSH3 0xD5E JUMP JUMPDEST SWAP6 POP DUP1 NOT DUP5 AND SWAP4 POP DUP1 DUP7 AND DUP5 OR SWAP3 POP POP POP SWAP4 SWAP3 POP POP POP JUMP JUMPDEST PUSH1 0x0 DUP2 SWAP1 POP SWAP2 SWAP1 POP JUMP JUMPDEST PUSH1 0x0 DUP2 SWAP1 POP SWAP2 SWAP1 POP JUMP JUMPDEST PUSH1 0x0 PUSH3 0xDF6 PUSH3 0xDF0 PUSH3 0xDEA DUP5 PUSH3 0xDC1 JUMP JUMPDEST PUSH3 0xDCB JUMP JUMPDEST PUSH3 0xDC1 JUMP JUMPDEST SWAP1 POP SWAP2 SWAP1 POP JUMP JUMPDEST PUSH1 0x0 DUP2 SWAP1 POP SWAP2 SWAP1 POP JUMP JUMPDEST PUSH3 0xE12 DUP4 PUSH3 0xDD5 JUMP JUMPDEST PUSH3 0xE2A PUSH3 0xE21 DUP3 PUSH3 0xDFD JUMP JUMPDEST DUP5 DUP5 SLOAD PUSH3 0xD6B JUMP JUMPDEST DUP3 SSTORE POP POP POP POP JUMP JUMPDEST PUSH1 0x0 SWAP1 JUMP JUMPDEST PUSH3 0xE41 PUSH3 0xE32 JUMP JUMPDEST PUSH3 0xE4E DUP2 DUP5 DUP5 PUSH3 0xE07 JUMP JUMPDEST POP POP POP JUMP JUMPDEST JUMPDEST DUP2 DUP2 LT ISZERO PUSH3 0xE76 JUMPI PUSH3 0xE6A PUSH1 0x0 DUP3 PUSH3 0xE37 JUMP JUMPDEST PUSH1 0x1 DUP2 ADD SWAP1 POP PUSH3 0xE54 JUMP JUMPDEST POP POP JUMP JUMPDEST PUSH1 0x1F DUP3 GT ISZERO PUSH3 0xEC5 JUMPI PUSH3 0xE8F DUP2 PUSH3 0xD39 JUMP JUMPDEST PUSH3 0xE9A DUP5 PUSH3 0xD4E JUMP JUMPDEST DUP2 ADD PUSH1 0x20 DUP6 LT ISZERO PUSH3 0xEAA JUMPI DUP2 SWAP1 POP JUMPDEST PUSH3 0xEC2 PUSH3 0xEB9 DUP6 PUSH3 0xD4E JUMP JUMPDEST DUP4 ADD DUP3 PUSH3 0xE53 JUMP JUMPDEST POP POP JUMPDEST POP POP POP JUMP JUMPDEST PUSH1 0x0 DUP3 DUP3 SHR SWAP1 POP SWAP3 SWAP2 POP POP JUMP JUMPDEST PUSH1 0x0 PUSH3 0xEEA PUSH1 0x0 NOT DUP5 PUSH1 0x8 MUL PUSH3 0xECA JUMP JUMPDEST NOT DUP1 DUP4 AND SWAP2 POP POP SWAP3 SWAP2 POP POP JUMP JUMPDEST PUSH1 0x0 PUSH3 0xF05 DUP4 DUP4 PUSH3 0xED7 JUMP JUMPDEST SWAP2 POP DUP3 PUSH1 0x2 MUL DUP3 OR SWAP1 POP SWAP3 SWAP2 POP POP JUMP JUMPDEST PUSH3 0xF20 DUP3 PUSH3 0xCCA JUMP JUMPDEST PUSH8 0xFFFFFFFFFFFFFFFF DUP2 GT ISZERO PUSH3 0xF3C JUMPI PUSH3 0xF3B PUSH3 0x9D7 JUMP JUMPDEST JUMPDEST PUSH3 0xF48 DUP3 SLOAD PUSH3 0xD04 JUMP JUMPDEST PUSH3 0xF55 DUP3 DUP3 DUP6 PUSH3 0xE7A JUMP JUMPDEST PUSH1 0x0 PUSH1 0x20 SWAP1 POP PUSH1 0x1F DUP4 GT PUSH1 0x1 DUP2 EQ PUSH3 0xF8D JUMPI PUSH1 0x0 DUP5 ISZERO PUSH3 0xF78 JUMPI DUP3 DUP8 ADD MLOAD SWAP1 POP JUMPDEST PUSH3 0xF84 DUP6 DUP3 PUSH3 0xEF7 JUMP JUMPDEST DUP7 SSTORE POP PUSH3 0xFF4 JUMP JUMPDEST PUSH1 0x1F NOT DUP5 AND PUSH3 0xF9D DUP7 PUSH3 0xD39 JUMP JUMPDEST PUSH1 0x0 JUMPDEST DUP3 DUP2 LT ISZERO PUSH3 0xFC7 JUMPI DUP5 DUP10 ADD MLOAD DUP3 SSTORE PUSH1 0x1 DUP3 ADD SWAP2 POP PUSH1 0x20 DUP6 ADD SWAP5 POP PUSH1 0x20 DUP2 ADD SWAP1 POP PUSH3 0xFA0 JUMP JUMPDEST DUP7 DUP4 LT ISZERO PUSH3 0xFE7 JUMPI DUP5 DUP10 ADD MLOAD PUSH3 0xFE3 PUSH1 0x1F DUP10 AND DUP3 PUSH3 0xED7 JUMP JUMPDEST DUP4 SSTORE POP JUMPDEST PUSH1 0x1 PUSH1 0x2 DUP9 MUL ADD DUP9 SSTORE POP POP POP JUMPDEST POP POP POP POP POP POP JUMP JUMPDEST PUSH32 0x4E487B7100000000000000000000000000000000000000000000000000000000 PUSH1 0x0 MSTORE PUSH1 0x11 PUSH1 0x4 MSTORE PUSH1 0x24 PUSH1 0x0 REVERT JUMPDEST PUSH1 0x0 PUSH3 0x1038 DUP3 PUSH3 0xDC1 JUMP JUMPDEST SWAP2 POP PUSH3 0x1045 DUP4 PUSH3 0xDC1 JUMP JUMPDEST SWAP3 POP DUP3 DUP3 SUB SWAP1 POP DUP2 DUP2 GT ISZERO PUSH3 0x1060 JUMPI PUSH3 0x105F PUSH3 0xFFC JUMP JUMPDEST JUMPDEST SWAP3 SWAP2 POP POP JUMP JUMPDEST PUSH3 0x1071 DUP2 PUSH3 0xDC1 JUMP JUMPDEST DUP3 MSTORE POP POP JUMP JUMPDEST PUSH1 0x0 PUSH1 0x20 DUP3 ADD SWAP1 POP PUSH3 0x108E PUSH1 0x0 DUP4 ADD DUP5 PUSH3 0x1066 JUMP JUMPDEST SWAP3 SWAP2 POP POP JUMP JUMPDEST PUSH2 0x1BFA DUP1 PUSH3 0x10A4 PUSH1 0x0 CODECOPY PUSH1 0x0 RETURN INVALID PUSH1 0x80 PUSH1 0x40 MSTORE PUSH1 0x4 CALLDATASIZE LT PUSH2 0x114 JUMPI PUSH1 0x0 CALLDATALOAD PUSH1 0xE0 SHR DUP1 PUSH4 0x80CEF3CC GT PUSH2 0xA0 JUMPI DUP1 PUSH4 0xDC070657 GT PUSH2 0x64 JUMPI DUP1 PUSH4 0xDC070657 EQ PUSH2 0x35D JUMPI DUP1 PUSH4 0xDCF7EEFE EQ PUSH2 0x386 JUMPI DUP1 PUSH4 0xED88C68E EQ PUSH2 0x3C3 JUMPI DUP1 PUSH4 0xF2FDE38B EQ PUSH2 0x3CD JUMPI DUP1 PUSH4 0xF3CCAAC0 EQ PUSH2 0x3F6 JUMPI PUSH2 0x114 JUMP JUMPDEST DUP1 PUSH4 0x80CEF3CC EQ PUSH2 0x277 JUMPI DUP1 PUSH4 0x8DA5CB5B EQ PUSH2 0x2A0 JUMPI DUP1 PUSH4 0x8F32D59B EQ PUSH2 0x2CB JUMPI DUP1 PUSH4 0xB8F7F42A EQ PUSH2 0x2F6 JUMPI DUP1 PUSH4 0xDC0661BE EQ PUSH2 0x31F JUMPI PUSH2 0x114 JUMP JUMPDEST DUP1 PUSH4 0x3CCFD60B GT PUSH2 0xE7 JUMPI DUP1 PUSH4 0x3CCFD60B EQ PUSH2 0x1C5 JUMPI DUP1 PUSH4 0x4315399F EQ PUSH2 0x1DC JUMPI DUP1 PUSH4 0x6F442154 EQ PUSH2 0x1F8 JUMPI DUP1 PUSH4 0x715018A6 EQ PUSH2 0x235 JUMPI DUP1 PUSH4 0x7284E416 EQ PUSH2 0x24C JUMPI PUSH2 0x114 JUMP JUMPDEST DUP1 PUSH4 0x6FDDE03 EQ PUSH2 0x119 JUMPI DUP1 PUSH4 0x109C1238 EQ PUSH2 0x144 JUMPI DUP1 PUSH4 0x1F522595 EQ PUSH2 0x16F JUMPI DUP1 PUSH4 0x38AF3EED EQ PUSH2 0x19A JUMPI JUMPDEST PUSH1 0x0 DUP1 REVERT JUMPDEST CALLVALUE DUP1 ISZERO PUSH2 0x125 JUMPI PUSH1 0x0 DUP1 REVERT JUMPDEST POP PUSH2 0x12E PUSH2 0x421 JUMP JUMPDEST PUSH1 0x40 MLOAD PUSH2 0x13B SWAP2 SWAP1 PUSH2 0x11B7 JUMP JUMPDEST PUSH1 0x40 MLOAD DUP1 SWAP2 SUB SWAP1 RETURN JUMPDEST CALLVALUE DUP1 ISZERO PUSH2 0x150 JUMPI PUSH1 0x0 DUP1 REVERT JUMPDEST POP PUSH2 0x159 PUSH2 0x4AF JUMP JUMPDEST PUSH1 0x40 MLOAD PUSH2 0x166 SWAP2 SWAP1 PUSH2 0x11F2 JUMP JUMPDEST PUSH1 0x40 MLOAD DUP1 SWAP2 SUB SWAP1 RETURN JUMPDEST CALLVALUE DUP1 ISZERO PUSH2 0x17B JUMPI PUSH1 0x0 DUP1 REVERT JUMPDEST POP PUSH2 0x184 PUSH2 0x4B5 JUMP JUMPDEST PUSH1 0x40 MLOAD PUSH2 0x191 SWAP2 SWAP1 PUSH2 0x11F2 JUMP JUMPDEST PUSH1 0x40 MLOAD DUP1 SWAP2 SUB SWAP1 RETURN JUMPDEST CALLVALUE DUP1 ISZERO PUSH2 0x1A6 JUMPI PUSH1 0x0 DUP1 REVERT JUMPDEST POP PUSH2 0x1AF PUSH2 0x4BB JUMP JUMPDEST PUSH1 0x40 MLOAD PUSH2 0x1BC SWAP2 SWAP1 PUSH2 0x124E JUMP JUMPDEST PUSH1 0x40 MLOAD DUP1 SWAP2 SUB SWAP1 RETURN JUMPDEST CALLVALUE DUP1 ISZERO PUSH2 0x1D1 JUMPI PUSH1 0x0 DUP1 REVERT JUMPDEST POP PUSH2 0x1DA PUSH2 0x4E1 JUMP JUMPDEST STOP JUMPDEST PUSH2 0x1F6 PUSH1 0x4 DUP1 CALLDATASIZE SUB DUP2 ADD SWAP1 PUSH2 0x1F1 SWAP2 SWAP1 PUSH2 0x12A9 JUMP JUMPDEST PUSH2 0x59A JUMP JUMPDEST STOP JUMPDEST CALLVALUE DUP1 ISZERO PUSH2 0x204 JUMPI PUSH1 0x0 DUP1 REVERT JUMPDEST POP PUSH2 0x21F PUSH1 0x4 DUP1 CALLDATASIZE SUB DUP2 ADD SWAP1 PUSH2 0x21A SWAP2 SWAP1 PUSH2 0x1327 JUMP JUMPDEST PUSH2 0x5E7 JUMP JUMPDEST PUSH1 0x40 MLOAD PUSH2 0x22C SWAP2 SWAP1 PUSH2 0x11F2 JUMP JUMPDEST PUSH1 0x40 MLOAD DUP1 SWAP2 SUB SWAP1 RETURN JUMPDEST CALLVALUE DUP1 ISZERO PUSH2 0x241 JUMPI PUSH1 0x0 DUP1 REVERT JUMPDEST POP PUSH2 0x24A PUSH2 0x630 JUMP JUMPDEST STOP JUMPDEST CALLVALUE DUP1 ISZERO PUSH2 0x258 JUMPI PUSH1 0x0 DUP1 REVERT JUMPDEST POP PUSH2 0x261 PUSH2 0x6FF JUMP JUMPDEST PUSH1 0x40 MLOAD PUSH2 0x26E SWAP2 SWAP1 PUSH2 0x11B7 JUMP JUMPDEST PUSH1 0x40 MLOAD DUP1 SWAP2 SUB SWAP1 RETURN JUMPDEST CALLVALUE DUP1 ISZERO PUSH2 0x283 JUMPI PUSH1 0x0 DUP1 REVERT JUMPDEST POP PUSH2 0x29E PUSH1 0x4 DUP1 CALLDATASIZE SUB DUP2 ADD SWAP1 PUSH2 0x299 SWAP2 SWAP1 PUSH2 0x1327 JUMP JUMPDEST PUSH2 0x78D JUMP JUMPDEST STOP JUMPDEST CALLVALUE DUP1 ISZERO PUSH2 0x2AC JUMPI PUSH1 0x0 DUP1 REVERT JUMPDEST POP PUSH2 0x2B5 PUSH2 0x8E1 JUMP JUMPDEST PUSH1 0x40 MLOAD PUSH2 0x2C2 SWAP2 SWAP1 PUSH2 0x1363 JUMP JUMPDEST PUSH1 0x40 MLOAD DUP1 SWAP2 SUB SWAP1 RETURN JUMPDEST CALLVALUE DUP1 ISZERO PUSH2 0x2D7 JUMPI PUSH1 0x0 DUP1 REVERT JUMPDEST POP PUSH2 0x2E0 PUSH2 0x90A JUMP JUMPDEST PUSH1 0x40 MLOAD PUSH2 0x2ED SWAP2 SWAP1 PUSH2 0x1399 JUMP JUMPDEST PUSH1 0x40 MLOAD DUP1 SWAP2 SUB SWAP1 RETURN JUMPDEST CALLVALUE DUP1 ISZERO PUSH2 0x302 JUMPI PUSH1 0x0 DUP1 REVERT JUMPDEST POP PUSH2 0x31D PUSH1 0x4 DUP1 CALLDATASIZE SUB DUP2 ADD SWAP1 PUSH2 0x318 SWAP2 SWAP1 PUSH2 0x15BD JUMP JUMPDEST PUSH2 0x961 JUMP JUMPDEST STOP JUMPDEST CALLVALUE DUP1 ISZERO PUSH2 0x32B JUMPI PUSH1 0x0 DUP1 REVERT JUMPDEST POP PUSH2 0x346 PUSH1 0x4 DUP1 CALLDATASIZE SUB DUP2 ADD SWAP1 PUSH2 0x341 SWAP2 SWAP1 PUSH2 0x1606 JUMP JUMPDEST PUSH2 0xA1E JUMP JUMPDEST PUSH1 0x40 MLOAD PUSH2 0x354 SWAP3 SWAP2 SWAP1 PUSH2 0x1646 JUMP JUMPDEST PUSH1 0x40 MLOAD DUP1 SWAP2 SUB SWAP1 RETURN JUMPDEST CALLVALUE DUP1 ISZERO PUSH2 0x369 JUMPI PUSH1 0x0 DUP1 REVERT JUMPDEST POP PUSH2 0x384 PUSH1 0x4 DUP1 CALLDATASIZE SUB DUP2 ADD SWAP1 PUSH2 0x37F SWAP2 SWAP1 PUSH2 0x169B JUMP JUMPDEST PUSH2 0xA5F JUMP JUMPDEST STOP JUMPDEST CALLVALUE DUP1 ISZERO PUSH2 0x392 JUMPI PUSH1 0x0 DUP1 REVERT JUMPDEST POP PUSH2 0x3AD PUSH1 0x4 DUP1 CALLDATASIZE SUB DUP2 ADD SWAP1 PUSH2 0x3A8 SWAP2 SWAP1 PUSH2 0x16C8 JUMP JUMPDEST PUSH2 0xAB4 JUMP JUMPDEST PUSH1 0x40 MLOAD PUSH2 0x3BA SWAP2 SWAP1 PUSH2 0x11F2 JUMP JUMPDEST PUSH1 0x40 MLOAD DUP1 SWAP2 SUB SWAP1 RETURN JUMPDEST PUSH2 0x3CB PUSH2 0xAD8 JUMP JUMPDEST STOP JUMPDEST CALLVALUE DUP1 ISZERO PUSH2 0x3D9 JUMPI PUSH1 0x0 DUP1 REVERT JUMPDEST POP PUSH2 0x3F4 PUSH1 0x4 DUP1 CALLDATASIZE SUB DUP2 ADD SWAP1 PUSH2 0x3EF SWAP2 SWAP1 PUSH2 0x1327 JUMP JUMPDEST PUSH2 0xC82 JUMP JUMPDEST STOP JUMPDEST CALLVALUE DUP1 ISZERO PUSH2 0x402 JUMPI PUSH1 0x0 DUP1 REVERT JUMPDEST POP PUSH2 0x40B PUSH2 0xC9F JUMP JUMPDEST PUSH1 0x40 MLOAD PUSH2 0x418 SWAP2 SWAP1 PUSH2 0x11B7 JUMP JUMPDEST PUSH1 0x40 MLOAD DUP1 SWAP2 SUB SWAP1 RETURN JUMPDEST PUSH1 0xA DUP1 SLOAD PUSH2 0x42E SWAP1 PUSH2 0x1724 JUMP JUMPDEST DUP1 PUSH1 0x1F ADD PUSH1 0x20 DUP1 SWAP2 DIV MUL PUSH1 0x20 ADD PUSH1 0x40 MLOAD SWAP1 DUP2 ADD PUSH1 0x40 MSTORE DUP1 SWAP3 SWAP2 SWAP1 DUP2 DUP2 MSTORE PUSH1 0x20 ADD DUP3 DUP1 SLOAD PUSH2 0x45A SWAP1 PUSH2 0x1724 JUMP JUMPDEST DUP1 ISZERO PUSH2 0x4A7 JUMPI DUP1 PUSH1 0x1F LT PUSH2 0x47C JUMPI PUSH2 0x100 DUP1 DUP4 SLOAD DIV MUL DUP4 MSTORE SWAP2 PUSH1 0x20 ADD SWAP2 PUSH2 0x4A7 JUMP JUMPDEST DUP3 ADD SWAP2 SWAP1 PUSH1 0x0 MSTORE PUSH1 0x20 PUSH1 0x0 KECCAK256 SWAP1 JUMPDEST DUP2 SLOAD DUP2 MSTORE SWAP1 PUSH1 0x1 ADD SWAP1 PUSH1 0x20 ADD DUP1 DUP4 GT PUSH2 0x48A JUMPI DUP3 SWAP1 SUB PUSH1 0x1F AND DUP3 ADD SWAP2 JUMPDEST POP POP POP POP POP DUP2 JUMP JUMPDEST PUSH1 0x1 SLOAD DUP2 JUMP JUMPDEST PUSH1 0xE SLOAD DUP2 JUMP JUMPDEST PUSH1 0xD PUSH1 0x0 SWAP1 SLOAD SWAP1 PUSH2 0x100 EXP SWAP1 DIV PUSH20 0xFFFFFFFFFFFFFFFFFFFFFFFFFFFFFFFFFFFFFFFF AND DUP2 JUMP JUMPDEST PUSH2 0x4E9 PUSH2 0x90A JUMP JUMPDEST PUSH2 0x4F2 JUMPI PUSH1 0x0 DUP1 REVERT JUMPDEST PUSH1 0x0 SELFBALANCE SWAP1 POP PUSH1 0xD PUSH1 0x0 SWAP1 SLOAD SWAP1 PUSH2 0x100 EXP SWAP1 DIV PUSH20 0xFFFFFFFFFFFFFFFFFFFFFFFFFFFFFFFFFFFFFFFF AND PUSH20 0xFFFFFFFFFFFFFFFFFFFFFFFFFFFFFFFFFFFFFFFF AND PUSH2 0x8FC DUP3 SWAP1 DUP2 ISZERO MUL SWAP1 PUSH1 0x40 MLOAD PUSH1 0x0 PUSH1 0x40 MLOAD DUP1 DUP4 SUB DUP2 DUP6 DUP9 DUP9 CALL SWAP4 POP POP POP POP ISZERO DUP1 ISZERO PUSH2 0x55F JUMPI RETURNDATASIZE PUSH1 0x0 DUP1 RETURNDATACOPY RETURNDATASIZE PUSH1 0x0 REVERT JUMPDEST POP PUSH32 0x5B6B431D4476A211BB7D41C20D1AAB9AE2321DEEE0D20BE3D9FC9B1093FA6E3D DUP2 PUSH1 0x40 MLOAD PUSH2 0x58F SWAP2 SWAP1 PUSH2 0x11F2 JUMP JUMPDEST PUSH1 0x40 MLOAD DUP1 SWAP2 SUB SWAP1 LOG1 POP JUMP JUMPDEST PUSH1 0x6 SLOAD CALLVALUE EQ PUSH2 0x5A8 JUMPI PUSH1 0x0 DUP1 REVERT JUMPDEST PUSH1 0x3 DUP1 SLOAD SWAP1 POP DUP2 LT PUSH2 0x5B9 JUMPI PUSH1 0x0 DUP1 REVERT JUMPDEST DUP1 PUSH1 0x7 DUP4 DUP2 SLOAD DUP2 LT PUSH2 0x5CE JUMPI PUSH2 0x5CD PUSH2 0x1755 JUMP JUMPDEST JUMPDEST SWAP1 PUSH1 0x0 MSTORE PUSH1 0x20 PUSH1 0x0 KECCAK256 SWAP1 PUSH1 0x2 MUL ADD PUSH1 0x0 ADD DUP2 SWAP1 SSTORE POP POP POP JUMP JUMPDEST PUSH1 0x0 PUSH1 0x8 PUSH1 0x0 DUP4 PUSH20 0xFFFFFFFFFFFFFFFFFFFFFFFFFFFFFFFFFFFFFFFF AND PUSH20 0xFFFFFFFFFFFFFFFFFFFFFFFFFFFFFFFFFFFFFFFF AND DUP2 MSTORE PUSH1 0x20 ADD SWAP1 DUP2 MSTORE PUSH1 0x20 ADD PUSH1 0x0 KECCAK256 SLOAD SWAP1 POP SWAP2 SWAP1 POP JUMP JUMPDEST PUSH2 0x638 PUSH2 0x90A JUMP JUMPDEST PUSH2 0x641 JUMPI PUSH1 0x0 DUP1 REVERT JUMPDEST PUSH1 0x0 PUSH20 0xFFFFFFFFFFFFFFFFFFFFFFFFFFFFFFFFFFFFFFFF AND PUSH1 0x0 DUP1 SLOAD SWAP1 PUSH2 0x100 EXP SWAP1 DIV PUSH20 0xFFFFFFFFFFFFFFFFFFFFFFFFFFFFFFFFFFFFFFFF AND PUSH20 0xFFFFFFFFFFFFFFFFFFFFFFFFFFFFFFFFFFFFFFFF AND PUSH32 0x8BE0079C531659141344CD1FD0A4F28419497F9722A3DAAFE3B4186F6B6457E0 PUSH1 0x40 MLOAD PUSH1 0x40 MLOAD DUP1 SWAP2 SUB SWAP1 LOG3 PUSH1 0x0 DUP1 PUSH1 0x0 PUSH2 0x100 EXP DUP2 SLOAD DUP2 PUSH20 0xFFFFFFFFFFFFFFFFFFFFFFFFFFFFFFFFFFFFFFFF MUL NOT AND SWAP1 DUP4 PUSH20 0xFFFFFFFFFFFFFFFFFFFFFFFFFFFFFFFFFFFFFFFF AND MUL OR SWAP1 SSTORE POP JUMP JUMPDEST PUSH1 0xC DUP1 SLOAD PUSH2 0x70C SWAP1 PUSH2 0x1724 JUMP JUMPDEST DUP1 PUSH1 0x1F ADD PUSH1 0x20 DUP1 SWAP2 DIV MUL PUSH1 0x20 ADD PUSH1 0x40 MLOAD SWAP1 DUP2 ADD PUSH1 0x40 MSTORE DUP1 SWAP3 SWAP2 SWAP1 DUP2 DUP2 MSTORE PUSH1 0x20 ADD DUP3 DUP1 SLOAD PUSH2 0x738 SWAP1 PUSH2 0x1724 JUMP JUMPDEST DUP1 ISZERO PUSH2 0x785 JUMPI DUP1 PUSH1 0x1F LT PUSH2 0x75A JUMPI PUSH2 0x100 DUP1 DUP4 SLOAD DIV MUL DUP4 MSTORE SWAP2 PUSH1 0x20 ADD SWAP2 PUSH2 0x785 JUMP JUMPDEST DUP3 ADD SWAP2 SWAP1 PUSH1 0x0 MSTORE PUSH1 0x20 PUSH1 0x0 KECCAK256 SWAP1 JUMPDEST DUP2 SLOAD DUP2 MSTORE SWAP1 PUSH1 0x1 ADD SWAP1 PUSH1 0x20 ADD DUP1 DUP4 GT PUSH2 0x768 JUMPI DUP3 SWAP1 SUB PUSH1 0x1F AND DUP3 ADD SWAP2 JUMPDEST POP POP POP POP POP DUP2 JUMP JUMPDEST PUSH1 0x0 PUSH1 0x1 PUSH8 0xFFFFFFFFFFFFFFFF DUP2 GT ISZERO PUSH2 0x7AA JUMPI PUSH2 0x7A9 PUSH2 0x13B9 JUMP JUMPDEST JUMPDEST PUSH1 0x40 MLOAD SWAP1 DUP1 DUP3 MSTORE DUP1 PUSH1 0x20 MUL PUSH1 0x20 ADD DUP3 ADD PUSH1 0x40 MSTORE DUP1 ISZERO PUSH2 0x7D8 JUMPI DUP2 PUSH1 0x20 ADD PUSH1 0x20 DUP3 MUL DUP1 CALLDATASIZE DUP4 CALLDATACOPY DUP1 DUP3 ADD SWAP2 POP POP SWAP1 POP JUMPDEST POP SWAP1 POP PUSH1 0x7 PUSH1 0x40 MLOAD DUP1 PUSH1 0x40 ADD PUSH1 0x40 MSTORE DUP1 PUSH2 0x7F0 PUSH2 0xD2D JUMP JUMPDEST DUP2 MSTORE PUSH1 0x20 ADD DUP4 DUP2 MSTORE POP SWAP1 DUP1 PUSH1 0x1 DUP2 SLOAD ADD DUP1 DUP3 SSTORE DUP1 SWAP2 POP POP PUSH1 0x1 SWAP1 SUB SWAP1 PUSH1 0x0 MSTORE PUSH1 0x20 PUSH1 0x0 KECCAK256 SWAP1 PUSH1 0x2 MUL ADD PUSH1 0x0 SWAP1 SWAP2 SWAP1 SWAP2 SWAP1 SWAP2 POP PUSH1 0x0 DUP3 ADD MLOAD DUP2 PUSH1 0x0 ADD SSTORE PUSH1 0x20 DUP3 ADD MLOAD DUP2 PUSH1 0x1 ADD SWAP1 DUP1 MLOAD SWAP1 PUSH1 0x20 ADD SWAP1 PUSH2 0x848 SWAP3 SWAP2 SWAP1 PUSH2 0x1000 JUMP JUMPDEST POP POP POP PUSH1 0x0 PUSH1 0x1 PUSH1 0x7 DUP1 SLOAD SWAP1 POP PUSH2 0x85F SWAP2 SWAP1 PUSH2 0x17B3 JUMP JUMPDEST SWAP1 POP DUP1 PUSH1 0x8 PUSH1 0x0 DUP6 PUSH20 0xFFFFFFFFFFFFFFFFFFFFFFFFFFFFFFFFFFFFFFFF AND PUSH20 0xFFFFFFFFFFFFFFFFFFFFFFFFFFFFFFFFFFFFFFFF AND DUP2 MSTORE PUSH1 0x20 ADD SWAP1 DUP2 MSTORE PUSH1 0x20 ADD PUSH1 0x0 KECCAK256 DUP2 SWAP1 SSTORE POP PUSH32 0xAF101D6EB202A80391AEB3BCCFDF77A63A9DD196386BF69AE819408C466875B6 DUP2 PUSH1 0x40 MLOAD PUSH2 0x8D4 SWAP2 SWAP1 PUSH2 0x11F2 JUMP JUMPDEST PUSH1 0x40 MLOAD DUP1 SWAP2 SUB SWAP1 LOG1 POP POP POP JUMP JUMPDEST PUSH1 0x0 DUP1 PUSH1 0x0 SWAP1 SLOAD SWAP1 PUSH2 0x100 EXP SWAP1 DIV PUSH20 0xFFFFFFFFFFFFFFFFFFFFFFFFFFFFFFFFFFFFFFFF AND SWAP1 POP SWAP1 JUMP JUMPDEST PUSH1 0x0 DUP1 PUSH1 0x0 SWAP1 SLOAD SWAP1 PUSH2 0x100 EXP SWAP1 DIV PUSH20 0xFFFFFFFFFFFFFFFFFFFFFFFFFFFFFFFFFFFFFFFF AND PUSH20 0xFFFFFFFFFFFFFFFFFFFFFFFFFFFFFFFFFFFFFFFF AND CALLER PUSH20 0xFFFFFFFFFFFFFFFFFFFFFFFFFFFFFFFFFFFFFFFF AND EQ SWAP1 POP SWAP1 JUMP JUMPDEST PUSH2 0x969 PUSH2 0x90A JUMP JUMPDEST PUSH2 0x972 JUMPI PUSH1 0x0 DUP1 REVERT JUMPDEST PUSH1 0x3 DUP1 DUP1 SLOAD SWAP1 POP SWAP1 DUP1 PUSH1 0x1 DUP2 SLOAD ADD DUP1 DUP3 SSTORE DUP1 SWAP2 POP POP PUSH1 0x1 SWAP1 SUB SWAP1 PUSH1 0x0 MSTORE PUSH1 0x20 PUSH1 0x0 KECCAK256 ADD PUSH1 0x0 SWAP1 SWAP2 SWAP1 SWAP2 SWAP1 SWAP2 POP SSTORE DUP1 PUSH1 0x4 PUSH1 0x0 PUSH1 0x1 PUSH1 0x3 DUP1 SLOAD SWAP1 POP PUSH2 0x9B6 SWAP2 SWAP1 PUSH2 0x17B3 JUMP JUMPDEST DUP2 MSTORE PUSH1 0x20 ADD SWAP1 DUP2 MSTORE PUSH1 0x20 ADD PUSH1 0x0 KECCAK256 SWAP1 PUSH1 0x5 PUSH2 0x9D2 SWAP3 SWAP2 SWAP1 PUSH2 0x104D JUMP JUMPDEST POP PUSH32 0xE1C7C98CDEDED3A25C1C7ADA5B85013B2C7C9879F1678129A413EA685D0FCC78 PUSH1 0x1 PUSH1 0x3 DUP1 SLOAD SWAP1 POP PUSH2 0xA06 SWAP2 SWAP1 PUSH2 0x17B3 JUMP JUMPDEST PUSH1 0x40 MLOAD PUSH2 0xA13 SWAP2 SWAP1 PUSH2 0x11F2 JUMP JUMPDEST PUSH1 0x40 MLOAD DUP1 SWAP2 SUB SWAP1 LOG1 POP JUMP JUMPDEST PUSH1 0xF PUSH1 0x20 MSTORE DUP2 PUSH1 0x0 MSTORE PUSH1 0x40 PUSH1 0x0 KECCAK256 DUP2 DUP2 SLOAD DUP2 LT PUSH2 0xA3A JUMPI PUSH1 0x0 DUP1 REVERT JUMPDEST SWAP1 PUSH1 0x0 MSTORE PUSH1 0x20 PUSH1 0x0 KECCAK256 SWAP1 PUSH1 0x2 MUL ADD PUSH1 0x0 SWAP2 POP SWAP2 POP POP DUP1 PUSH1 0x0 ADD SLOAD SWAP1 DUP1 PUSH1 0x1 ADD SLOAD SWAP1 POP DUP3 JUMP JUMPDEST PUSH2 0xA67 PUSH2 0x90A JUMP JUMPDEST PUSH2 0xA70 JUMPI PUSH1 0x0 DUP1 REVERT JUMPDEST DUP1 PUSH1 0xD PUSH1 0x0 PUSH2 0x100 EXP DUP2 SLOAD DUP2 PUSH20 0xFFFFFFFFFFFFFFFFFFFFFFFFFFFFFFFFFFFFFFFF MUL NOT AND SWAP1 DUP4 PUSH20 0xFFFFFFFFFFFFFFFFFFFFFFFFFFFFFFFFFFFFFFFF AND MUL OR SWAP1 SSTORE POP POP JUMP JUMPDEST PUSH1 0x3 DUP2 DUP2 SLOAD DUP2 LT PUSH2 0xAC4 JUMPI PUSH1 0x0 DUP1 REVERT JUMPDEST SWAP1 PUSH1 0x0 MSTORE PUSH1 0x20 PUSH1 0x0 KECCAK256 ADD PUSH1 0x0 SWAP2 POP SWAP1 POP SLOAD DUP2 JUMP JUMPDEST PUSH1 0x0 PUSH1 0x40 MLOAD DUP1 PUSH1 0x40 ADD PUSH1 0x40 MSTORE DUP1 CALLVALUE DUP2 MSTORE PUSH1 0x20 ADD TIMESTAMP DUP2 MSTORE POP SWAP1 POP PUSH1 0xF PUSH1 0x0 CALLER PUSH20 0xFFFFFFFFFFFFFFFFFFFFFFFFFFFFFFFFFFFFFFFF AND PUSH20 0xFFFFFFFFFFFFFFFFFFFFFFFFFFFFFFFFFFFFFFFF AND DUP2 MSTORE PUSH1 0x20 ADD SWAP1 DUP2 MSTORE PUSH1 0x20 ADD PUSH1 0x0 KECCAK256 DUP2 SWAP1 DUP1 PUSH1 0x1 DUP2 SLOAD ADD DUP1 DUP3 SSTORE DUP1 SWAP2 POP POP PUSH1 0x1 SWAP1 SUB SWAP1 PUSH1 0x0 MSTORE PUSH1 0x20 PUSH1 0x0 KECCAK256 SWAP1 PUSH1 0x2 MUL ADD PUSH1 0x0 SWAP1 SWAP2 SWAP1 SWAP2 SWAP1 SWAP2 POP PUSH1 0x0 DUP3 ADD MLOAD DUP2 PUSH1 0x0 ADD SSTORE PUSH1 0x20 DUP3 ADD MLOAD DUP2 PUSH1 0x1 ADD SSTORE POP POP PUSH1 0xE PUSH1 0x0 DUP2 SLOAD DUP1 SWAP3 SWAP2 SWAP1 PUSH2 0xB83 SWAP1 PUSH2 0x17E7 JUMP JUMPDEST SWAP2 SWAP1 POP SSTORE POP PUSH1 0x9 PUSH1 0x0 CALLER PUSH20 0xFFFFFFFFFFFFFFFFFFFFFFFFFFFFFFFFFFFFFFFF AND PUSH20 0xFFFFFFFFFFFFFFFFFFFFFFFFFFFFFFFFFFFFFFFF AND DUP2 MSTORE PUSH1 0x20 ADD SWAP1 DUP2 MSTORE PUSH1 0x20 ADD PUSH1 0x0 KECCAK256 PUSH1 0x0 SWAP1 SLOAD SWAP1 PUSH2 0x100 EXP SWAP1 DIV PUSH1 0xFF AND PUSH2 0xBE3 JUMPI PUSH2 0xBE2 CALLER PUSH2 0x78D JUMP JUMPDEST JUMPDEST PUSH1 0x0 PUSH1 0x8 PUSH1 0x0 CALLER PUSH20 0xFFFFFFFFFFFFFFFFFFFFFFFFFFFFFFFFFFFFFFFF AND PUSH20 0xFFFFFFFFFFFFFFFFFFFFFFFFFFFFFFFFFFFFFFFF AND DUP2 MSTORE PUSH1 0x20 ADD SWAP1 DUP2 MSTORE PUSH1 0x20 ADD PUSH1 0x0 KECCAK256 SLOAD SWAP1 POP PUSH2 0xC30 DUP2 PUSH2 0xD4E JUMP JUMPDEST CALLER PUSH20 0xFFFFFFFFFFFFFFFFFFFFFFFFFFFFFFFFFFFFFFFF AND PUSH32 0x264F630D9EFA0D07053A31163641D9FCC0ADAFC9D9E76F1C37C2CE3A558D2C52 CALLVALUE PUSH1 0x40 MLOAD PUSH2 0xC76 SWAP2 SWAP1 PUSH2 0x11F2 JUMP JUMPDEST PUSH1 0x40 MLOAD DUP1 SWAP2 SUB SWAP1 LOG2 POP POP JUMP JUMPDEST PUSH2 0xC8A PUSH2 0x90A JUMP JUMPDEST PUSH2 0xC93 JUMPI PUSH1 0x0 DUP1 REVERT JUMPDEST PUSH2 0xC9C DUP2 PUSH2 0xDB4 JUMP JUMPDEST POP JUMP JUMPDEST PUSH1 0xB DUP1 SLOAD PUSH2 0xCAC SWAP1 PUSH2 0x1724 JUMP JUMPDEST DUP1 PUSH1 0x1F ADD PUSH1 0x20 DUP1 SWAP2 DIV MUL PUSH1 0x20 ADD PUSH1 0x40 MLOAD SWAP1 DUP2 ADD PUSH1 0x40 MSTORE DUP1 SWAP3 SWAP2 SWAP1 DUP2 DUP2 MSTORE PUSH1 0x20 ADD DUP3 DUP1 SLOAD PUSH2 0xCD8 SWAP1 PUSH2 0x1724 JUMP JUMPDEST DUP1 ISZERO PUSH2 0xD25 JUMPI DUP1 PUSH1 0x1F LT PUSH2 0xCFA JUMPI PUSH2 0x100 DUP1 DUP4 SLOAD DIV MUL DUP4 MSTORE SWAP2 PUSH1 0x20 ADD SWAP2 PUSH2 0xD25 JUMP JUMPDEST DUP3 ADD SWAP2 SWAP1 PUSH1 0x0 MSTORE PUSH1 0x20 PUSH1 0x0 KECCAK256 SWAP1 JUMPDEST DUP2 SLOAD DUP2 MSTORE SWAP1 PUSH1 0x1 ADD SWAP1 PUSH1 0x20 ADD DUP1 DUP4 GT PUSH2 0xD08 JUMPI DUP3 SWAP1 SUB PUSH1 0x1F AND DUP3 ADD SWAP2 JUMPDEST POP POP POP POP POP DUP2 JUMP JUMPDEST PUSH1 0x0 PUSH2 0xD49 PUSH1 0x1 PUSH1 0x3 DUP1 SLOAD SWAP1 POP PUSH2 0xD44 SWAP2 SWAP1 PUSH2 0x17B3 JUMP JUMPDEST PUSH2 0xEAA JUMP JUMPDEST SWAP1 POP SWAP1 JUMP JUMPDEST PUSH1 0x0 PUSH2 0xD62 PUSH2 0xD5B PUSH2 0xF08 JUMP JUMPDEST PUSH1 0x0 PUSH2 0xF25 JUMP JUMPDEST SWAP1 POP PUSH1 0x7 DUP3 DUP2 SLOAD DUP2 LT PUSH2 0xD78 JUMPI PUSH2 0xD77 PUSH2 0x1755 JUMP JUMPDEST JUMPDEST SWAP1 PUSH1 0x0 MSTORE PUSH1 0x20 PUSH1 0x0 KECCAK256 SWAP1 PUSH1 0x2 MUL ADD PUSH1 0x1 ADD DUP2 SWAP1 DUP1 PUSH1 0x1 DUP2 SLOAD ADD DUP1 DUP3 SSTORE DUP1 SWAP2 POP POP PUSH1 0x1 SWAP1 SUB SWAP1 PUSH1 0x0 MSTORE PUSH1 0x20 PUSH1 0x0 KECCAK256 ADD PUSH1 0x0 SWAP1 SWAP2 SWAP1 SWAP2 SWAP1 SWAP2 POP SSTORE POP POP JUMP JUMPDEST PUSH1 0x0 PUSH20 0xFFFFFFFFFFFFFFFFFFFFFFFFFFFFFFFFFFFFFFFF AND DUP2 PUSH20 0xFFFFFFFFFFFFFFFFFFFFFFFFFFFFFFFFFFFFFFFF AND SUB PUSH2 0xDED JUMPI PUSH1 0x0 DUP1 REVERT JUMPDEST DUP1 PUSH20 0xFFFFFFFFFFFFFFFFFFFFFFFFFFFFFFFFFFFFFFFF AND PUSH1 0x0 DUP1 SLOAD SWAP1 PUSH2 0x100 EXP SWAP1 DIV PUSH20 0xFFFFFFFFFFFFFFFFFFFFFFFFFFFFFFFFFFFFFFFF AND PUSH20 0xFFFFFFFFFFFFFFFFFFFFFFFFFFFFFFFFFFFFFFFF AND PUSH32 0x8BE0079C531659141344CD1FD0A4F28419497F9722A3DAAFE3B4186F6B6457E0 PUSH1 0x40 MLOAD PUSH1 0x40 MLOAD DUP1 SWAP2 SUB SWAP1 LOG3 DUP1 PUSH1 0x0 DUP1 PUSH2 0x100 EXP DUP2 SLOAD DUP2 PUSH20 0xFFFFFFFFFFFFFFFFFFFFFFFFFFFFFFFFFFFFFFFF MUL NOT AND SWAP1 DUP4 PUSH20 0xFFFFFFFFFFFFFFFFFFFFFFFFFFFFFFFFFFFFFFFF AND MUL OR SWAP1 SSTORE POP POP JUMP JUMPDEST PUSH1 0x0 PUSH1 0x2 PUSH1 0x0 DUP2 SLOAD DUP1 SWAP3 SWAP2 SWAP1 PUSH2 0xEBF SWAP1 PUSH2 0x17E7 JUMP JUMPDEST SWAP2 SWAP1 POP SSTORE POP DUP2 TIMESTAMP PREVRANDAO CALLER PUSH1 0x2 SLOAD PUSH1 0x40 MLOAD PUSH1 0x20 ADD PUSH2 0xEDE SWAP5 SWAP4 SWAP3 SWAP2 SWAP1 PUSH2 0x1898 JUMP JUMPDEST PUSH1 0x40 MLOAD PUSH1 0x20 DUP2 DUP4 SUB SUB DUP2 MSTORE SWAP1 PUSH1 0x40 MSTORE DUP1 MLOAD SWAP1 PUSH1 0x20 ADD KECCAK256 PUSH1 0x0 SHR PUSH2 0xF01 SWAP2 SWAP1 PUSH2 0x1915 JUMP JUMPDEST SWAP1 POP SWAP2 SWAP1 POP JUMP JUMPDEST PUSH1 0x0 PUSH2 0xF20 PUSH1 0x1 DUP1 SLOAD PUSH2 0xF1B SWAP2 SWAP1 PUSH2 0x17B3 JUMP JUMPDEST PUSH2 0xEAA JUMP JUMPDEST SWAP1 POP SWAP1 JUMP JUMPDEST PUSH1 0x0 PUSH1 0x5 PUSH1 0x40 MLOAD DUP1 PUSH1 0x60 ADD PUSH1 0x40 MSTORE DUP1 CALLER PUSH20 0xFFFFFFFFFFFFFFFFFFFFFFFFFFFFFFFFFFFFFFFF AND DUP2 MSTORE PUSH1 0x20 ADD DUP6 DUP2 MSTORE PUSH1 0x20 ADD DUP5 DUP2 MSTORE POP SWAP1 DUP1 PUSH1 0x1 DUP2 SLOAD ADD DUP1 DUP3 SSTORE DUP1 SWAP2 POP POP PUSH1 0x1 SWAP1 SUB SWAP1 PUSH1 0x0 MSTORE PUSH1 0x20 PUSH1 0x0 KECCAK256 SWAP1 PUSH1 0x3 MUL ADD PUSH1 0x0 SWAP1 SWAP2 SWAP1 SWAP2 SWAP1 SWAP2 POP PUSH1 0x0 DUP3 ADD MLOAD DUP2 PUSH1 0x0 ADD PUSH1 0x0 PUSH2 0x100 EXP DUP2 SLOAD DUP2 PUSH20 0xFFFFFFFFFFFFFFFFFFFFFFFFFFFFFFFFFFFFFFFF MUL NOT AND SWAP1 DUP4 PUSH20 0xFFFFFFFFFFFFFFFFFFFFFFFFFFFFFFFFFFFFFFFF AND MUL OR SWAP1 SSTORE POP PUSH1 0x20 DUP3 ADD MLOAD DUP2 PUSH1 0x1 ADD SSTORE PUSH1 0x40 DUP3 ADD MLOAD DUP2 PUSH1 0x2 ADD SSTORE POP POP PUSH1 0x0 PUSH1 0x1 PUSH1 0x5 DUP1 SLOAD SWAP1 POP PUSH2 0xFF4 SWAP2 SWAP1 PUSH2 0x17B3 JUMP JUMPDEST SWAP1 POP DUP1 SWAP2 POP POP SWAP3 SWAP2 POP POP JUMP JUMPDEST DUP3 DUP1 SLOAD DUP3 DUP3 SSTORE SWAP1 PUSH1 0x0 MSTORE PUSH1 0x20 PUSH1 0x0 KECCAK256 SWAP1 DUP2 ADD SWAP3 DUP3 ISZERO PUSH2 0x103C JUMPI SWAP2 PUSH1 0x20 MUL DUP3 ADD JUMPDEST DUP3 DUP2 GT ISZERO PUSH2 0x103B JUMPI DUP3 MLOAD DUP3 SSTORE SWAP2 PUSH1 0x20 ADD SWAP2 SWAP1 PUSH1 0x1 ADD SWAP1 PUSH2 0x1020 JUMP JUMPDEST JUMPDEST POP SWAP1 POP PUSH2 0x1049 SWAP2 SWAP1 PUSH2 0x10A6 JUMP JUMPDEST POP SWAP1 JUMP JUMPDEST DUP3 DUP1 SLOAD DUP3 DUP3 SSTORE SWAP1 PUSH1 0x0 MSTORE PUSH1 0x20 PUSH1 0x0 KECCAK256 SWAP1 DUP2 ADD SWAP3 DUP3 ISZERO PUSH2 0x1095 JUMPI SWAP2 PUSH1 0x20 MUL DUP3 ADD JUMPDEST DUP3 DUP2 GT ISZERO PUSH2 0x1094 JUMPI DUP3 MLOAD DUP3 SWAP1 DUP2 PUSH2 0x1084 SWAP2 SWAP1 PUSH2 0x1AF2 JUMP JUMPDEST POP SWAP2 PUSH1 0x20 ADD SWAP2 SWAP1 PUSH1 0x1 ADD SWAP1 PUSH2 0x106D JUMP JUMPDEST JUMPDEST POP SWAP1 POP PUSH2 0x10A2 SWAP2 SWAP1 PUSH2 0x10C3 JUMP JUMPDEST POP SWAP1 JUMP JUMPDEST JUMPDEST DUP1 DUP3 GT ISZERO PUSH2 0x10BF JUMPI PUSH1 0x0 DUP2 PUSH1 0x0 SWAP1 SSTORE POP PUSH1 0x1 ADD PUSH2 0x10A7 JUMP JUMPDEST POP SWAP1 JUMP JUMPDEST JUMPDEST DUP1 DUP3 GT ISZERO PUSH2 0x10E3 JUMPI PUSH1 0x0 DUP2 DUP2 PUSH2 0x10DA SWAP2 SWAP1 PUSH2 0x10E7 JUMP JUMPDEST POP PUSH1 0x1 ADD PUSH2 0x10C4 JUMP JUMPDEST POP SWAP1 JUMP JUMPDEST POP DUP1 SLOAD PUSH2 0x10F3 SWAP1 PUSH2 0x1724 JUMP JUMPDEST PUSH1 0x0 DUP3 SSTORE DUP1 PUSH1 0x1F LT PUSH2 0x1105 JUMPI POP PUSH2 0x1124 JUMP JUMPDEST PUSH1 0x1F ADD PUSH1 0x20 SWAP1 DIV SWAP1 PUSH1 0x0 MSTORE PUSH1 0x20 PUSH1 0x0 KECCAK256 SWAP1 DUP2 ADD SWAP1 PUSH2 0x1123 SWAP2 SWAP1 PUSH2 0x10A6 JUMP JUMPDEST JUMPDEST POP JUMP JUMPDEST PUSH1 0x0 DUP2 MLOAD SWAP1 POP SWAP2 SWAP1 POP JUMP JUMPDEST PUSH1 0x0 DUP3 DUP3 MSTORE PUSH1 0x20 DUP3 ADD SWAP1 POP SWAP3 SWAP2 POP POP JUMP JUMPDEST PUSH1 0x0 JUMPDEST DUP4 DUP2 LT ISZERO PUSH2 0x1161 JUMPI DUP1 DUP3 ADD MLOAD DUP2 DUP5 ADD MSTORE PUSH1 0x20 DUP2 ADD SWAP1 POP PUSH2 0x1146 JUMP JUMPDEST PUSH1 0x0 DUP5 DUP5 ADD MSTORE POP POP POP POP JUMP JUMPDEST PUSH1 0x0 PUSH1 0x1F NOT PUSH1 0x1F DUP4 ADD AND SWAP1 POP SWAP2 SWAP1 POP JUMP JUMPDEST PUSH1 0x0 PUSH2 0x1189 DUP3 PUSH2 0x1127 JUMP JUMPDEST PUSH2 0x1193 DUP2 DUP6 PUSH2 0x1132 JUMP JUMPDEST SWAP4 POP PUSH2 0x11A3 DUP2 DUP6 PUSH1 0x20 DUP7 ADD PUSH2 0x1143 JUMP JUMPDEST PUSH2 0x11AC DUP2 PUSH2 0x116D JUMP JUMPDEST DUP5 ADD SWAP2 POP POP SWAP3 SWAP2 POP POP JUMP JUMPDEST PUSH1 0x0 PUSH1 0x20 DUP3 ADD SWAP1 POP DUP2 DUP2 SUB PUSH1 0x0 DUP4 ADD MSTORE PUSH2 0x11D1 DUP2 DUP5 PUSH2 0x117E JUMP JUMPDEST SWAP1 POP SWAP3 SWAP2 POP POP JUMP JUMPDEST PUSH1 0x0 DUP2 SWAP1 POP SWAP2 SWAP1 POP JUMP JUMPDEST PUSH2 0x11EC DUP2 PUSH2 0x11D9 JUMP JUMPDEST DUP3 MSTORE POP POP JUMP JUMPDEST PUSH1 0x0 PUSH1 0x20 DUP3 ADD SWAP1 POP PUSH2 0x1207 PUSH1 0x0 DUP4 ADD DUP5 PUSH2 0x11E3 JUMP JUMPDEST SWAP3 SWAP2 POP POP JUMP JUMPDEST PUSH1 0x0 PUSH20 0xFFFFFFFFFFFFFFFFFFFFFFFFFFFFFFFFFFFFFFFF DUP3 AND SWAP1 POP SWAP2 SWAP1 POP JUMP JUMPDEST PUSH1 0x0 PUSH2 0x1238 DUP3 PUSH2 0x120D JUMP JUMPDEST SWAP1 POP SWAP2 SWAP1 POP JUMP JUMPDEST PUSH2 0x1248 DUP2 PUSH2 0x122D JUMP JUMPDEST DUP3 MSTORE POP POP JUMP JUMPDEST PUSH1 0x0 PUSH1 0x20 DUP3 ADD SWAP1 POP PUSH2 0x1263 PUSH1 0x0 DUP4 ADD DUP5 PUSH2 0x123F JUMP JUMPDEST SWAP3 SWAP2 POP POP JUMP JUMPDEST PUSH1 0x0 PUSH1 0x40 MLOAD SWAP1 POP SWAP1 JUMP JUMPDEST PUSH1 0x0 DUP1 REVERT JUMPDEST PUSH1 0x0 DUP1 REVERT JUMPDEST PUSH2 0x1286 DUP2 PUSH2 0x11D9 JUMP JUMPDEST DUP2 EQ PUSH2 0x1291 JUMPI PUSH1 0x0 DUP1 REVERT JUMPDEST POP JUMP JUMPDEST PUSH1 0x0 DUP2 CALLDATALOAD SWAP1 POP PUSH2 0x12A3 DUP2 PUSH2 0x127D JUMP JUMPDEST SWAP3 SWAP2 POP POP JUMP JUMPDEST PUSH1 0x0 DUP1 PUSH1 0x40 DUP4 DUP6 SUB SLT ISZERO PUSH2 0x12C0 JUMPI PUSH2 0x12BF PUSH2 0x1273 JUMP JUMPDEST JUMPDEST PUSH1 0x0 PUSH2 0x12CE DUP6 DUP3 DUP7 ADD PUSH2 0x1294 JUMP JUMPDEST SWAP3 POP POP PUSH1 0x20 PUSH2 0x12DF DUP6 DUP3 DUP7 ADD PUSH2 0x1294 JUMP JUMPDEST SWAP2 POP POP SWAP3 POP SWAP3 SWAP1 POP JUMP JUMPDEST PUSH1 0x0 PUSH2 0x12F4 DUP3 PUSH2 0x120D JUMP JUMPDEST SWAP1 POP SWAP2 SWAP1 POP JUMP JUMPDEST PUSH2 0x1304 DUP2 PUSH2 0x12E9 JUMP JUMPDEST DUP2 EQ PUSH2 0x130F JUMPI PUSH1 0x0 DUP1 REVERT JUMPDEST POP JUMP JUMPDEST PUSH1 0x0 DUP2 CALLDATALOAD SWAP1 POP PUSH2 0x1321 DUP2 PUSH2 0x12FB JUMP JUMPDEST SWAP3 SWAP2 POP POP JUMP JUMPDEST PUSH1 0x0 PUSH1 0x20 DUP3 DUP5 SUB SLT ISZERO PUSH2 0x133D JUMPI PUSH2 0x133C PUSH2 0x1273 JUMP JUMPDEST JUMPDEST PUSH1 0x0 PUSH2 0x134B DUP5 DUP3 DUP6 ADD PUSH2 0x1312 JUMP JUMPDEST SWAP2 POP POP SWAP3 SWAP2 POP POP JUMP JUMPDEST PUSH2 0x135D DUP2 PUSH2 0x12E9 JUMP JUMPDEST DUP3 MSTORE POP POP JUMP JUMPDEST PUSH1 0x0 PUSH1 0x20 DUP3 ADD SWAP1 POP PUSH2 0x1378 PUSH1 0x0 DUP4 ADD DUP5 PUSH2 0x1354 JUMP JUMPDEST SWAP3 SWAP2 POP POP JUMP JUMPDEST PUSH1 0x0 DUP2 ISZERO ISZERO SWAP1 POP SWAP2 SWAP1 POP JUMP JUMPDEST PUSH2 0x1393 DUP2 PUSH2 0x137E JUMP JUMPDEST DUP3 MSTORE POP POP JUMP JUMPDEST PUSH1 0x0 PUSH1 0x20 DUP3 ADD SWAP1 POP PUSH2 0x13AE PUSH1 0x0 DUP4 ADD DUP5 PUSH2 0x138A JUMP JUMPDEST SWAP3 SWAP2 POP POP JUMP JUMPDEST PUSH1 0x0 DUP1 REVERT JUMPDEST PUSH32 0x4E487B7100000000000000000000000000000000000000000000000000000000 PUSH1 0x0 MSTORE PUSH1 0x41 PUSH1 0x4 MSTORE PUSH1 0x24 PUSH1 0x0 REVERT JUMPDEST PUSH2 0x13F1 DUP3 PUSH2 0x116D JUMP JUMPDEST DUP2 ADD DUP2 DUP2 LT PUSH8 0xFFFFFFFFFFFFFFFF DUP3 GT OR ISZERO PUSH2 0x1410 JUMPI PUSH2 0x140F PUSH2 0x13B9 JUMP JUMPDEST JUMPDEST DUP1 PUSH1 0x40 MSTORE POP POP POP JUMP JUMPDEST PUSH1 0x0 PUSH2 0x1423 PUSH2 0x1269 JUMP JUMPDEST SWAP1 POP PUSH2 0x142F DUP3 DUP3 PUSH2 0x13E8 JUMP JUMPDEST SWAP2 SWAP1 POP JUMP JUMPDEST PUSH1 0x0 PUSH8 0xFFFFFFFFFFFFFFFF DUP3 GT ISZERO PUSH2 0x144F JUMPI PUSH2 0x144E PUSH2 0x13B9 JUMP JUMPDEST JUMPDEST PUSH1 0x20 DUP3 MUL SWAP1 POP SWAP2 SWAP1 POP JUMP JUMPDEST PUSH1 0x0 DUP1 REVERT JUMPDEST PUSH1 0x0 DUP1 REVERT JUMPDEST PUSH1 0x0 PUSH8 0xFFFFFFFFFFFFFFFF DUP3 GT ISZERO PUSH2 0x147F JUMPI PUSH2 0x147E PUSH2 0x13B9 JUMP JUMPDEST JUMPDEST PUSH2 0x1488 DUP3 PUSH2 0x116D JUMP JUMPDEST SWAP1 POP PUSH1 0x20 DUP2 ADD SWAP1 POP SWAP2 SWAP1 POP JUMP JUMPDEST DUP3 DUP2 DUP4 CALLDATACOPY PUSH1 0x0 DUP4 DUP4 ADD MSTORE POP POP POP JUMP JUMPDEST PUSH1 0x0 PUSH2 0x14B7 PUSH2 0x14B2 DUP5 PUSH2 0x1464 JUMP JUMPDEST PUSH2 0x1419 JUMP JUMPDEST SWAP1 POP DUP3 DUP2 MSTORE PUSH1 0x20 DUP2 ADD DUP5 DUP5 DUP5 ADD GT ISZERO PUSH2 0x14D3 JUMPI PUSH2 0x14D2 PUSH2 0x145F JUMP JUMPDEST JUMPDEST PUSH2 0x14DE DUP5 DUP3 DUP6 PUSH2 0x1495 JUMP JUMPDEST POP SWAP4 SWAP3 POP POP POP JUMP JUMPDEST PUSH1 0x0 DUP3 PUSH1 0x1F DUP4 ADD SLT PUSH2 0x14FB JUMPI PUSH2 0x14FA PUSH2 0x13B4 JUMP JUMPDEST JUMPDEST DUP2 CALLDATALOAD PUSH2 0x150B DUP5 DUP3 PUSH1 0x20 DUP7 ADD PUSH2 0x14A4 JUMP JUMPDEST SWAP2 POP POP SWAP3 SWAP2 POP POP JUMP JUMPDEST PUSH1 0x0 PUSH2 0x1527 PUSH2 0x1522 DUP5 PUSH2 0x1434 JUMP JUMPDEST PUSH2 0x1419 JUMP JUMPDEST SWAP1 POP DUP1 PUSH1 0x20 DUP5 MUL DUP4 ADD DUP6 DUP2 GT ISZERO PUSH2 0x1541 JUMPI PUSH2 0x1540 PUSH2 0x145A JUMP JUMPDEST JUMPDEST DUP4 JUMPDEST DUP2 DUP2 LT ISZERO PUSH2 0x1588 JUMPI DUP1 CALLDATALOAD PUSH8 0xFFFFFFFFFFFFFFFF DUP2 GT ISZERO PUSH2 0x1566 JUMPI PUSH2 0x1565 PUSH2 0x13B4 JUMP JUMPDEST JUMPDEST DUP1 DUP7 ADD PUSH2 0x1573 DUP10 DUP3 PUSH2 0x14E6 JUMP JUMPDEST DUP6 MSTORE PUSH1 0x20 DUP6 ADD SWAP5 POP POP POP PUSH1 0x20 DUP2 ADD SWAP1 POP PUSH2 0x1543 JUMP JUMPDEST POP POP POP SWAP4 SWAP3 POP POP POP JUMP JUMPDEST PUSH1 0x0 DUP3 PUSH1 0x1F DUP4 ADD SLT PUSH2 0x15A7 JUMPI PUSH2 0x15A6 PUSH2 0x13B4 JUMP JUMPDEST JUMPDEST PUSH1 0x5 PUSH2 0x15B4 DUP5 DUP3 DUP6 PUSH2 0x1514 JUMP JUMPDEST SWAP2 POP POP SWAP3 SWAP2 POP POP JUMP JUMPDEST PUSH1 0x0 PUSH1 0x20 DUP3 DUP5 SUB SLT ISZERO PUSH2 0x15D3 JUMPI PUSH2 0x15D2 PUSH2 0x1273 JUMP JUMPDEST JUMPDEST PUSH1 0x0 DUP3 ADD CALLDATALOAD PUSH8 0xFFFFFFFFFFFFFFFF DUP2 GT ISZERO PUSH2 0x15F1 JUMPI PUSH2 0x15F0 PUSH2 0x1278 JUMP JUMPDEST JUMPDEST PUSH2 0x15FD DUP5 DUP3 DUP6 ADD PUSH2 0x1592 JUMP JUMPDEST SWAP2 POP POP SWAP3 SWAP2 POP POP JUMP JUMPDEST PUSH1 0x0 DUP1 PUSH1 0x40 DUP4 DUP6 SUB SLT ISZERO PUSH2 0x161D JUMPI PUSH2 0x161C PUSH2 0x1273 JUMP JUMPDEST JUMPDEST PUSH1 0x0 PUSH2 0x162B DUP6 DUP3 DUP7 ADD PUSH2 0x1312 JUMP JUMPDEST SWAP3 POP POP PUSH1 0x20 PUSH2 0x163C DUP6 DUP3 DUP7 ADD PUSH2 0x1294 JUMP JUMPDEST SWAP2 POP POP SWAP3 POP SWAP3 SWAP1 POP JUMP JUMPDEST PUSH1 0x0 PUSH1 0x40 DUP3 ADD SWAP1 POP PUSH2 0x165B PUSH1 0x0 DUP4 ADD DUP6 PUSH2 0x11E3 JUMP JUMPDEST PUSH2 0x1668 PUSH1 0x20 DUP4 ADD DUP5 PUSH2 0x11E3 JUMP JUMPDEST SWAP4 SWAP3 POP POP POP JUMP JUMPDEST PUSH2 0x1678 DUP2 PUSH2 0x122D JUMP JUMPDEST DUP2 EQ PUSH2 0x1683 JUMPI PUSH1 0x0 DUP1 REVERT JUMPDEST POP JUMP JUMPDEST PUSH1 0x0 DUP2 CALLDATALOAD SWAP1 POP PUSH2 0x1695 DUP2 PUSH2 0x166F JUMP JUMPDEST SWAP3 SWAP2 POP POP JUMP JUMPDEST PUSH1 0x0 PUSH1 0x20 DUP3 DUP5 SUB SLT ISZERO PUSH2 0x16B1 JUMPI PUSH2 0x16B0 PUSH2 0x1273 JUMP JUMPDEST JUMPDEST PUSH1 0x0 PUSH2 0x16BF DUP5 DUP3 DUP6 ADD PUSH2 0x1686 JUMP JUMPDEST SWAP2 POP POP SWAP3 SWAP2 POP POP JUMP JUMPDEST PUSH1 0x0 PUSH1 0x20 DUP3 DUP5 SUB SLT ISZERO PUSH2 0x16DE JUMPI PUSH2 0x16DD PUSH2 0x1273 JUMP JUMPDEST JUMPDEST PUSH1 0x0 PUSH2 0x16EC DUP5 DUP3 DUP6 ADD PUSH2 0x1294 JUMP JUMPDEST SWAP2 POP POP SWAP3 SWAP2 POP POP JUMP JUMPDEST PUSH32 0x4E487B7100000000000000000000000000000000000000000000000000000000 PUSH1 0x0 MSTORE PUSH1 0x22 PUSH1 0x4 MSTORE PUSH1 0x24 PUSH1 0x0 REVERT JUMPDEST PUSH1 0x0 PUSH1 0x2 DUP3 DIV SWAP1 POP PUSH1 0x1 DUP3 AND DUP1 PUSH2 0x173C JUMPI PUSH1 0x7F DUP3 AND SWAP2 POP JUMPDEST PUSH1 0x20 DUP3 LT DUP2 SUB PUSH2 0x174F JUMPI PUSH2 0x174E PUSH2 0x16F5 JUMP JUMPDEST JUMPDEST POP SWAP2 SWAP1 POP JUMP JUMPDEST PUSH32 0x4E487B7100000000000000000000000000000000000000000000000000000000 PUSH1 0x0 MSTORE PUSH1 0x32 PUSH1 0x4 MSTORE PUSH1 0x24 PUSH1 0x0 REVERT JUMPDEST PUSH32 0x4E487B7100000000000000000000000000000000000000000000000000000000 PUSH1 0x0 MSTORE PUSH1 0x11 PUSH1 0x4 MSTORE PUSH1 0x24 PUSH1 0x0 REVERT JUMPDEST PUSH1 0x0 PUSH2 0x17BE DUP3 PUSH2 0x11D9 JUMP JUMPDEST SWAP2 POP PUSH2 0x17C9 DUP4 PUSH2 0x11D9 JUMP JUMPDEST SWAP3 POP DUP3 DUP3 SUB SWAP1 POP DUP2 DUP2 GT ISZERO PUSH2 0x17E1 JUMPI PUSH2 0x17E0 PUSH2 0x1784 JUMP JUMPDEST JUMPDEST SWAP3 SWAP2 POP POP JUMP JUMPDEST PUSH1 0x0 PUSH2 0x17F2 DUP3 PUSH2 0x11D9 JUMP JUMPDEST SWAP2 POP PUSH32 0xFFFFFFFFFFFFFFFFFFFFFFFFFFFFFFFFFFFFFFFFFFFFFFFFFFFFFFFFFFFFFFFF DUP3 SUB PUSH2 0x1824 JUMPI PUSH2 0x1823 PUSH2 0x1784 JUMP JUMPDEST JUMPDEST PUSH1 0x1 DUP3 ADD SWAP1 POP SWAP2 SWAP1 POP JUMP JUMPDEST PUSH1 0x0 DUP2 SWAP1 POP SWAP2 SWAP1 POP JUMP JUMPDEST PUSH2 0x184A PUSH2 0x1845 DUP3 PUSH2 0x11D9 JUMP JUMPDEST PUSH2 0x182F JUMP JUMPDEST DUP3 MSTORE POP POP JUMP JUMPDEST PUSH1 0x0 DUP2 PUSH1 0x60 SHL SWAP1 POP SWAP2 SWAP1 POP JUMP JUMPDEST PUSH1 0x0 PUSH2 0x1868 DUP3 PUSH2 0x1850 JUMP JUMPDEST SWAP1 POP SWAP2 SWAP1 POP JUMP JUMPDEST PUSH1 0x0 PUSH2 0x187A DUP3 PUSH2 0x185D JUMP JUMPDEST SWAP1 POP SWAP2 SWAP1 POP JUMP JUMPDEST PUSH2 0x1892 PUSH2 0x188D DUP3 PUSH2 0x12E9 JUMP JUMPDEST PUSH2 0x186F JUMP JUMPDEST DUP3 MSTORE POP POP JUMP JUMPDEST PUSH1 0x0 PUSH2 0x18A4 DUP3 DUP8 PUSH2 0x1839 JUMP JUMPDEST PUSH1 0x20 DUP3 ADD SWAP2 POP PUSH2 0x18B4 DUP3 DUP7 PUSH2 0x1839 JUMP JUMPDEST PUSH1 0x20 DUP3 ADD SWAP2 POP PUSH2 0x18C4 DUP3 DUP6 PUSH2 0x1881 JUMP JUMPDEST PUSH1 0x14 DUP3 ADD SWAP2 POP PUSH2 0x18D4 DUP3 DUP5 PUSH2 0x1839 JUMP JUMPDEST PUSH1 0x20 DUP3 ADD SWAP2 POP DUP2 SWAP1 POP SWAP6 SWAP5 POP POP POP POP POP JUMP JUMPDEST PUSH32 0x4E487B7100000000000000000000000000000000000000000000000000000000 PUSH1 0x0 MSTORE PUSH1 0x12 PUSH1 0x4 MSTORE PUSH1 0x24 PUSH1 0x0 REVERT JUMPDEST PUSH1 0x0 PUSH2 0x1920 DUP3 PUSH2 0x11D9 JUMP JUMPDEST SWAP2 POP PUSH2 0x192B DUP4 PUSH2 0x11D9 JUMP JUMPDEST SWAP3 POP DUP3 PUSH2 0x193B JUMPI PUSH2 0x193A PUSH2 0x18E6 JUMP JUMPDEST JUMPDEST DUP3 DUP3 MOD SWAP1 POP SWAP3 SWAP2 POP POP JUMP JUMPDEST PUSH1 0x0 DUP2 SWAP1 POP DUP2 PUSH1 0x0 MSTORE PUSH1 0x20 PUSH1 0x0 KECCAK256 SWAP1 POP SWAP2 SWAP1 POP JUMP JUMPDEST PUSH1 0x0 PUSH1 0x20 PUSH1 0x1F DUP4 ADD DIV SWAP1 POP SWAP2 SWAP1 POP JUMP JUMPDEST PUSH1 0x0 DUP3 DUP3 SHL SWAP1 POP SWAP3 SWAP2 POP POP JUMP JUMPDEST PUSH1 0x0 PUSH1 0x8 DUP4 MUL PUSH2 0x19A8 PUSH32 0xFFFFFFFFFFFFFFFFFFFFFFFFFFFFFFFFFFFFFFFFFFFFFFFFFFFFFFFFFFFFFFFF DUP3 PUSH2 0x196B JUMP JUMPDEST PUSH2 0x19B2 DUP7 DUP4 PUSH2 0x196B JUMP JUMPDEST SWAP6 POP DUP1 NOT DUP5 AND SWAP4 POP DUP1 DUP7 AND DUP5 OR SWAP3 POP POP POP SWAP4 SWAP3 POP POP POP JUMP JUMPDEST PUSH1 0x0 DUP2 SWAP1 POP SWAP2 SWAP1 POP JUMP JUMPDEST PUSH1 0x0 PUSH2 0x19EF PUSH2 0x19EA PUSH2 0x19E5 DUP5 PUSH2 0x11D9 JUMP JUMPDEST PUSH2 0x19CA JUMP JUMPDEST PUSH2 0x11D9 JUMP JUMPDEST SWAP1 POP SWAP2 SWAP1 POP JUMP JUMPDEST PUSH1 0x0 DUP2 SWAP1 POP SWAP2 SWAP1 POP JUMP JUMPDEST PUSH2 0x1A09 DUP4 PUSH2 0x19D4 JUMP JUMPDEST PUSH2 0x1A1D PUSH2 0x1A15 DUP3 PUSH2 0x19F6 JUMP JUMPDEST DUP5 DUP5 SLOAD PUSH2 0x1978 JUMP JUMPDEST DUP3 SSTORE POP POP POP POP JUMP JUMPDEST PUSH1 0x0 SWAP1 JUMP JUMPDEST PUSH2 0x1A32 PUSH2 0x1A25 JUMP JUMPDEST PUSH2 0x1A3D DUP2 DUP5 DUP5 PUSH2 0x1A00 JUMP JUMPDEST POP POP POP JUMP JUMPDEST JUMPDEST DUP2 DUP2 LT ISZERO PUSH2 0x1A61 JUMPI PUSH2 0x1A56 PUSH1 0x0 DUP3 PUSH2 0x1A2A JUMP JUMPDEST PUSH1 0x1 DUP2 ADD SWAP1 POP PUSH2 0x1A43 JUMP JUMPDEST POP POP JUMP JUMPDEST PUSH1 0x1F DUP3 GT ISZERO PUSH2 0x1AA6 JUMPI PUSH2 0x1A77 DUP2 PUSH2 0x1946 JUMP JUMPDEST PUSH2 0x1A80 DUP5 PUSH2 0x195B JUMP JUMPDEST DUP2 ADD PUSH1 0x20 DUP6 LT ISZERO PUSH2 0x1A8F JUMPI DUP2 SWAP1 POP JUMPDEST PUSH2 0x1AA3 PUSH2 0x1A9B DUP6 PUSH2 0x195B JUMP JUMPDEST DUP4 ADD DUP3 PUSH2 0x1A42 JUMP JUMPDEST POP POP JUMPDEST POP POP POP JUMP JUMPDEST PUSH1 0x0 DUP3 DUP3 SHR SWAP1 POP SWAP3 SWAP2 POP POP JUMP JUMPDEST PUSH1 0x0 PUSH2 0x1AC9 PUSH1 0x0 NOT DUP5 PUSH1 0x8 MUL PUSH2 0x1AAB JUMP JUMPDEST NOT DUP1 DUP4 AND SWAP2 POP POP SWAP3 SWAP2 POP POP JUMP JUMPDEST PUSH1 0x0 PUSH2 0x1AE2 DUP4 DUP4 PUSH2 0x1AB8 JUMP JUMPDEST SWAP2 POP DUP3 PUSH1 0x2 MUL DUP3 OR SWAP1 POP SWAP3 SWAP2 POP POP JUMP JUMPDEST PUSH2 0x1AFB DUP3 PUSH2 0x1127 JUMP JUMPDEST PUSH8 0xFFFFFFFFFFFFFFFF DUP2 GT ISZERO PUSH2 0x1B14 JUMPI PUSH2 0x1B13 PUSH2 0x13B9 JUMP JUMPDEST JUMPDEST PUSH2 0x1B1E DUP3 SLOAD PUSH2 0x1724 JUMP JUMPDEST PUSH2 0x1B29 DUP3 DUP3 DUP6 PUSH2 0x1A65 JUMP JUMPDEST PUSH1 0x0 PUSH1 0x20 SWAP1 POP PUSH1 0x1F DUP4 GT PUSH1 0x1 DUP2 EQ PUSH2 0x1B5C JUMPI PUSH1 0x0 DUP5 ISZERO PUSH2 0x1B4A JUMPI DUP3 DUP8 ADD MLOAD SWAP1 POP JUMPDEST PUSH2 0x1B54 DUP6 DUP3 PUSH2 0x1AD6 JUMP JUMPDEST DUP7 SSTORE POP PUSH2 0x1BBC JUMP JUMPDEST PUSH1 0x1F NOT DUP5 AND PUSH2 0x1B6A DUP7 PUSH2 0x1946 JUMP JUMPDEST PUSH1 0x0 JUMPDEST DUP3 DUP2 LT ISZERO PUSH2 0x1B92 JUMPI DUP5 DUP10 ADD MLOAD DUP3 SSTORE PUSH1 0x1 DUP3 ADD SWAP2 POP PUSH1 0x20 DUP6 ADD SWAP5 POP PUSH1 0x20 DUP2 ADD SWAP1 POP PUSH2 0x1B6D JUMP JUMPDEST DUP7 DUP4 LT ISZERO PUSH2 0x1BAF JUMPI DUP5 DUP10 ADD MLOAD PUSH2 0x1BAB PUSH1 0x1F DUP10 AND DUP3 PUSH2 0x1AB8 JUMP JUMPDEST DUP4 SSTORE POP JUMPDEST PUSH1 0x1 PUSH1 0x2 DUP9 MUL ADD DUP9 SSTORE POP POP POP JUMPDEST POP POP POP POP POP POP JUMP INVALID LOG2 PUSH5 0x6970667358 0x22 SLT KECCAK256 0x5F CALLDATASIZE LOG3 CREATE2 0xF9 0xEF 0x28 XOR RETURN 0xAF EXTCODECOPY 0xDC SELFBALANCE REVERT POP AND PUSH22 0x366A902A560E7BCCFF570A896E784364736F6C634300 ADDMOD SLT STOP CALLER "
		},
		"gasEstimates": {
			"creation": {
				"codeDepositCost": "1432400",
				"executionCost": "infinite",
				"totalCost": "infinite"
			},
			"external": {
				"_createDonor(address)": "infinite",
				"_donations(address,uint256)": "infinite",
				"addPalette(string[5])": "infinite",
				"beneficiary()": "2604",
				"changeBeneficiary(address)": "26949",
				"changeColorPalette(uint256,uint256)": "infinite",
				"colorAmountPerPalette()": "2475",
				"description()": "infinite",
				"donate()": "infinite",
				"donationsCount()": "2497",
				"getOwnerByAddress(address)": "2908",
				"image()": "infinite",
				"isOwner()": "2563",
				"name()": "infinite",
				"owner()": "2567",
				"palettes(uint256)": "infinite",
				"renounceOwnership()": "30383",
				"transferOwnership(address)": "30757",
				"withdraw()": "infinite"
			}
		},
		"methodIdentifiers": {
			"_createDonor(address)": "80cef3cc",
			"_donations(address,uint256)": "dc0661be",
			"addPalette(string[5])": "b8f7f42a",
			"beneficiary()": "38af3eed",
			"changeBeneficiary(address)": "dc070657",
			"changeColorPalette(uint256,uint256)": "4315399f",
			"colorAmountPerPalette()": "109c1238",
			"description()": "7284e416",
			"donate()": "ed88c68e",
			"donationsCount()": "1f522595",
			"getOwnerByAddress(address)": "6f442154",
			"image()": "f3ccaac0",
			"isOwner()": "8f32d59b",
			"name()": "06fdde03",
			"owner()": "8da5cb5b",
			"palettes(uint256)": "dcf7eefe",
			"renounceOwnership()": "715018a6",
			"transferOwnership(address)": "f2fde38b",
			"withdraw()": "3ccfd60b"
		}
	},
	"abi": [
		{
			"inputs": [
				{
					"internalType": "string",
					"name": "_name",
					"type": "string"
				},
				{
					"internalType": "string",
					"name": "_image",
					"type": "string"
				},
				{
					"internalType": "string",
					"name": "_description",
					"type": "string"
				},
				{
					"internalType": "address payable",
					"name": "_beneficiary",
					"type": "address"
				},
				{
					"internalType": "address",
					"name": "_custodian",
					"type": "address"
				}
			],
			"stateMutability": "nonpayable",
			"type": "constructor"
		},
		{
			"anonymous": false,
			"inputs": [
				{
					"indexed": true,
					"internalType": "address",
					"name": "donor",
					"type": "address"
				},
				{
					"indexed": false,
					"internalType": "uint256",
					"name": "value",
					"type": "uint256"
				}
			],
			"name": "DonationReceived",
			"type": "event"
		},
		{
			"anonymous": false,
			"inputs": [
				{
					"indexed": false,
					"internalType": "uint256",
					"name": "donorId",
					"type": "uint256"
				}
			],
			"name": "DonorCreated",
			"type": "event"
		},
		{
			"anonymous": false,
			"inputs": [
				{
					"indexed": false,
					"internalType": "uint256",
					"name": "itemId",
					"type": "uint256"
				},
				{
					"indexed": false,
					"internalType": "uint256",
					"name": "itemColorId",
					"type": "uint256"
				}
			],
			"name": "ItemAdded",
			"type": "event"
		},
		{
			"anonymous": false,
			"inputs": [
				{
					"indexed": true,
					"internalType": "address",
					"name": "previousOwner",
					"type": "address"
				},
				{
					"indexed": true,
					"internalType": "address",
					"name": "newOwner",
					"type": "address"
				}
			],
			"name": "OwnershipTransferred",
			"type": "event"
		},
		{
			"anonymous": false,
			"inputs": [
				{
					"indexed": false,
					"internalType": "uint256",
					"name": "paletteId",
					"type": "uint256"
				}
			],
			"name": "PaletteCreated",
			"type": "event"
		},
		{
			"anonymous": false,
			"inputs": [
				{
					"indexed": false,
					"internalType": "uint256",
					"name": "amount",
					"type": "uint256"
				}
			],
			"name": "Withdraw",
			"type": "event"
		},
		{
			"inputs": [
				{
					"internalType": "address",
					"name": "_donorAddress",
					"type": "address"
				}
			],
			"name": "_createDonor",
			"outputs": [],
			"stateMutability": "nonpayable",
			"type": "function"
		},
		{
			"inputs": [
				{
					"internalType": "address",
					"name": "",
					"type": "address"
				},
				{
					"internalType": "uint256",
					"name": "",
					"type": "uint256"
				}
			],
			"name": "_donations",
			"outputs": [
				{
					"internalType": "uint256",
					"name": "value",
					"type": "uint256"
				},
				{
					"internalType": "uint256",
					"name": "date",
					"type": "uint256"
				}
			],
			"stateMutability": "view",
			"type": "function"
		},
		{
			"inputs": [
				{
					"internalType": "string[5]",
					"name": "_colors",
					"type": "string[5]"
				}
			],
			"name": "addPalette",
			"outputs": [],
			"stateMutability": "nonpayable",
			"type": "function"
		},
		{
			"inputs": [],
			"name": "beneficiary",
			"outputs": [
				{
					"internalType": "address payable",
					"name": "",
					"type": "address"
				}
			],
			"stateMutability": "view",
			"type": "function"
		},
		{
			"inputs": [
				{
					"internalType": "address payable",
					"name": "_beneficiary",
					"type": "address"
				}
			],
			"name": "changeBeneficiary",
			"outputs": [],
			"stateMutability": "nonpayable",
			"type": "function"
		},
		{
			"inputs": [
				{
					"internalType": "uint256",
					"name": "_donorId",
					"type": "uint256"
				},
				{
					"internalType": "uint256",
					"name": "_paletteId",
					"type": "uint256"
				}
			],
			"name": "changeColorPalette",
			"outputs": [],
			"stateMutability": "payable",
			"type": "function"
		},
		{
			"inputs": [],
			"name": "colorAmountPerPalette",
			"outputs": [
				{
					"internalType": "uint256",
					"name": "",
					"type": "uint256"
				}
			],
			"stateMutability": "view",
			"type": "function"
		},
		{
			"inputs": [],
			"name": "description",
			"outputs": [
				{
					"internalType": "string",
					"name": "",
					"type": "string"
				}
			],
			"stateMutability": "view",
			"type": "function"
		},
		{
			"inputs": [],
			"name": "donate",
			"outputs": [],
			"stateMutability": "payable",
			"type": "function"
		},
		{
			"inputs": [],
			"name": "donationsCount",
			"outputs": [
				{
					"internalType": "uint256",
					"name": "",
					"type": "uint256"
				}
			],
			"stateMutability": "view",
			"type": "function"
		},
		{
			"inputs": [
				{
					"internalType": "address",
					"name": "_owner",
					"type": "address"
				}
			],
			"name": "getOwnerByAddress",
			"outputs": [
				{
					"internalType": "uint256",
					"name": "",
					"type": "uint256"
				}
			],
			"stateMutability": "view",
			"type": "function"
		},
		{
			"inputs": [],
			"name": "image",
			"outputs": [
				{
					"internalType": "string",
					"name": "",
					"type": "string"
				}
			],
			"stateMutability": "view",
			"type": "function"
		},
		{
			"inputs": [],
			"name": "isOwner",
			"outputs": [
				{
					"internalType": "bool",
					"name": "",
					"type": "bool"
				}
			],
			"stateMutability": "view",
			"type": "function"
		},
		{
			"inputs": [],
			"name": "name",
			"outputs": [
				{
					"internalType": "string",
					"name": "",
					"type": "string"
				}
			],
			"stateMutability": "view",
			"type": "function"
		},
		{
			"inputs": [],
			"name": "owner",
			"outputs": [
				{
					"internalType": "address",
					"name": "",
					"type": "address"
				}
			],
			"stateMutability": "view",
			"type": "function"
		},
		{
			"inputs": [
				{
					"internalType": "uint256",
					"name": "",
					"type": "uint256"
				}
			],
			"name": "palettes",
			"outputs": [
				{
					"internalType": "uint256",
					"name": "",
					"type": "uint256"
				}
			],
			"stateMutability": "view",
			"type": "function"
		},
		{
			"inputs": [],
			"name": "renounceOwnership",
			"outputs": [],
			"stateMutability": "nonpayable",
			"type": "function"
		},
		{
			"inputs": [
				{
					"internalType": "address",
					"name": "newOwner",
					"type": "address"
				}
			],
			"name": "transferOwnership",
			"outputs": [],
			"stateMutability": "nonpayable",
			"type": "function"
		},
		{
			"inputs": [],
			"name": "withdraw",
			"outputs": [],
			"stateMutability": "nonpayable",
			"type": "function"
		}
	]
}