{
	"contracts/StrawberryColorPaletteFactory.sol": {
		"StrawberryColorPaletteFactory": {
			"abi": [
				{
					"inputs": [],
					"stateMutability": "nonpayable",
					"type": "constructor"
				},
				{
					"anonymous": false,
					"inputs": [
						{
							"indexed": true,
							"internalType": "address",
							"name": "previousOwner",
							"type": "address"
						},
						{
							"indexed": true,
							"internalType": "address",
							"name": "newOwner",
							"type": "address"
						}
					],
					"name": "OwnershipTransferred",
					"type": "event"
				},
				{
					"anonymous": false,
					"inputs": [
						{
							"indexed": false,
							"internalType": "uint256",
							"name": "paletteId",
							"type": "uint256"
						}
					],
					"name": "PaletteCreated",
					"type": "event"
				},
				{
					"inputs": [
						{
							"internalType": "string[5]",
							"name": "_colors",
							"type": "string[5]"
						}
					],
					"name": "addPalette",
					"outputs": [],
					"stateMutability": "nonpayable",
					"type": "function"
				},
				{
					"inputs": [],
					"name": "colorAmountPerPalette",
					"outputs": [
						{
							"internalType": "uint256",
							"name": "",
							"type": "uint256"
						}
					],
					"stateMutability": "view",
					"type": "function"
				},
				{
					"inputs": [],
					"name": "isOwner",
					"outputs": [
						{
							"internalType": "bool",
							"name": "",
							"type": "bool"
						}
					],
					"stateMutability": "view",
					"type": "function"
				},
				{
					"inputs": [],
					"name": "owner",
					"outputs": [
						{
							"internalType": "address",
							"name": "",
							"type": "address"
						}
					],
					"stateMutability": "view",
					"type": "function"
				},
				{
					"inputs": [
						{
							"internalType": "uint256",
							"name": "",
							"type": "uint256"
						}
					],
					"name": "palettes",
					"outputs": [
						{
							"internalType": "uint256",
							"name": "",
							"type": "uint256"
						}
					],
					"stateMutability": "view",
					"type": "function"
				},
				{
					"inputs": [],
					"name": "renounceOwnership",
					"outputs": [],
					"stateMutability": "nonpayable",
					"type": "function"
				},
				{
					"inputs": [
						{
							"internalType": "address",
							"name": "newOwner",
							"type": "address"
						}
					],
					"name": "transferOwnership",
					"outputs": [],
					"stateMutability": "nonpayable",
					"type": "function"
				}
			],
			"devdoc": {
				"kind": "dev",
				"methods": {
					"isOwner()": {
						"returns": {
							"_0": "true if `msg.sender` is the owner of the contract."
						}
					},
					"owner()": {
						"returns": {
							"_0": "the address of the owner."
						}
					},
					"renounceOwnership()": {
						"details": "Allows the current owner to relinquish control of the contract."
					},
					"transferOwnership(address)": {
						"details": "Allows the current owner to transfer control of the contract to a newOwner.",
						"params": {
							"newOwner": "The address to transfer ownership to."
						}
					}
				},
				"version": 1
			},
			"evm": {
				"assembly": "    /* \"contracts/StrawberryColorPaletteFactory.sol\":95:1404  contract StrawberryColorPaletteFactory is Ownable {... */\n  mstore(0x40, 0x80)\n    /* \"contracts/StrawberryColorPaletteFactory.sol\":187:188  5 */\n  0x05\n    /* \"contracts/StrawberryColorPaletteFactory.sol\":151:188  uint public colorAmountPerPalette = 5 */\n  0x01\n  sstore\n    /* \"contracts/StrawberryColorPaletteFactory.sol\":219:220  0 */\n  0x00\n    /* \"contracts/StrawberryColorPaletteFactory.sol\":194:220  uint private randNonce = 0 */\n  0x02\n  sstore\n    /* \"contracts/StrawberryColorPaletteFactory.sol\":352:701  constructor() {... */\n  callvalue\n  dup1\n  iszero\n  tag_1\n  jumpi\n  0x00\n  dup1\n  revert\ntag_1:\n  pop\n    /* \"contracts/Ownable.sol\":574:584  msg.sender */\n  caller\n    /* \"contracts/Ownable.sol\":565:571  _owner */\n  0x00\n  dup1\n    /* \"contracts/Ownable.sol\":565:584  _owner = msg.sender */\n  0x0100\n  exp\n  dup2\n  sload\n  dup2\n  0xffffffffffffffffffffffffffffffffffffffff\n  mul\n  not\n  and\n  swap1\n  dup4\n  0xffffffffffffffffffffffffffffffffffffffff\n  and\n  mul\n  or\n  swap1\n  sstore\n  pop\n    /* \"contracts/Ownable.sol\":632:638  _owner */\n  0x00\n  dup1\n  sload\n  swap1\n  0x0100\n  exp\n  swap1\n  div\n  0xffffffffffffffffffffffffffffffffffffffff\n  and\n    /* \"contracts/Ownable.sol\":599:639  OwnershipTransferred(address(0), _owner) */\n  0xffffffffffffffffffffffffffffffffffffffff\n  and\n    /* \"contracts/Ownable.sol\":628:629  0 */\n  0x00\n    /* \"contracts/Ownable.sol\":599:639  OwnershipTransferred(address(0), _owner) */\n  0xffffffffffffffffffffffffffffffffffffffff\n  and\n  0x8be0079c531659141344cd1fd0a4f28419497f9722a3daafe3b4186f6b6457e0\n  mload(0x40)\n  mload(0x40)\n  dup1\n  swap2\n  sub\n  swap1\n  log3\n    /* \"contracts/StrawberryColorPaletteFactory.sol\":376:448  addPalette([\"0x845EC2\", \"0x4B4453\", \"0xB0A8B9\", \"0xC34A36\", \"0xFF8066\"]) */\n  tag_6\n  mload(0x40)\n  dup1\n  0xa0\n  add\n  0x40\n  mstore\n  dup1\n  mload(0x40)\n  dup1\n  0x40\n  add\n  0x40\n  mstore\n  dup1\n  0x08\n  dup2\n  mstore\n  0x20\n  add\n  0x3078383435454332000000000000000000000000000000000000000000000000\n  dup2\n  mstore\n  pop\n  dup2\n  mstore\n  0x20\n  add\n  mload(0x40)\n  dup1\n  0x40\n  add\n  0x40\n  mstore\n  dup1\n  0x08\n  dup2\n  mstore\n  0x20\n  add\n  0x3078344234343533000000000000000000000000000000000000000000000000\n  dup2\n  mstore\n  pop\n  dup2\n  mstore\n  0x20\n  add\n  mload(0x40)\n  dup1\n  0x40\n  add\n  0x40\n  mstore\n  dup1\n  0x08\n  dup2\n  mstore\n  0x20\n  add\n  0x3078423041384239000000000000000000000000000000000000000000000000\n  dup2\n  mstore\n  pop\n  dup2\n  mstore\n  0x20\n  add\n  mload(0x40)\n  dup1\n  0x40\n  add\n  0x40\n  mstore\n  dup1\n  0x08\n  dup2\n  mstore\n  0x20\n  add\n  0x3078433334413336000000000000000000000000000000000000000000000000\n  dup2\n  mstore\n  pop\n  dup2\n  mstore\n  0x20\n  add\n  mload(0x40)\n  dup1\n  0x40\n  add\n  0x40\n  mstore\n  dup1\n  0x08\n  dup2\n  mstore\n  0x20\n  add\n  0x3078464638303636000000000000000000000000000000000000000000000000\n  dup2\n  mstore\n  pop\n  dup2\n  mstore\n  pop\n    /* \"contracts/StrawberryColorPaletteFactory.sol\":376:386  addPalette */\n  shl(0x20, tag_7)\n    /* \"contracts/StrawberryColorPaletteFactory.sol\":376:448  addPalette([\"0x845EC2\", \"0x4B4453\", \"0xB0A8B9\", \"0xC34A36\", \"0xFF8066\"]) */\n  0x20\n  shr\n  jump\t// in\ntag_6:\n    /* \"contracts/StrawberryColorPaletteFactory.sol\":458:530  addPalette([\"0x699674\", \"0x3B4A3F\", \"0x9EAFA2\", \"0x4E94B3\", \"0x03617E\"]) */\n  tag_8\n  mload(0x40)\n  dup1\n  0xa0\n  add\n  0x40\n  mstore\n  dup1\n  mload(0x40)\n  dup1\n  0x40\n  add\n  0x40\n  mstore\n  dup1\n  0x08\n  dup2\n  mstore\n  0x20\n  add\n  0x3078363939363734000000000000000000000000000000000000000000000000\n  dup2\n  mstore\n  pop\n  dup2\n  mstore\n  0x20\n  add\n  mload(0x40)\n  dup1\n  0x40\n  add\n  0x40\n  mstore\n  dup1\n  0x08\n  dup2\n  mstore\n  0x20\n  add\n  0x3078334234413346000000000000000000000000000000000000000000000000\n  dup2\n  mstore\n  pop\n  dup2\n  mstore\n  0x20\n  add\n  mload(0x40)\n  dup1\n  0x40\n  add\n  0x40\n  mstore\n  dup1\n  0x08\n  dup2\n  mstore\n  0x20\n  add\n  0x3078394541464132000000000000000000000000000000000000000000000000\n  dup2\n  mstore\n  pop\n  dup2\n  mstore\n  0x20\n  add\n  mload(0x40)\n  dup1\n  0x40\n  add\n  0x40\n  mstore\n  dup1\n  0x08\n  dup2\n  mstore\n  0x20\n  add\n  0x3078344539344233000000000000000000000000000000000000000000000000\n  dup2\n  mstore\n  pop\n  dup2\n  mstore\n  0x20\n  add\n  mload(0x40)\n  dup1\n  0x40\n  add\n  0x40\n  mstore\n  dup1\n  0x08\n  dup2\n  mstore\n  0x20\n  add\n  0x3078303336313745000000000000000000000000000000000000000000000000\n  dup2\n  mstore\n  pop\n  dup2\n  mstore\n  pop\n    /* \"contracts/StrawberryColorPaletteFactory.sol\":458:468  addPalette */\n  shl(0x20, tag_7)\n    /* \"contracts/StrawberryColorPaletteFactory.sol\":458:530  addPalette([\"0x699674\", \"0x3B4A3F\", \"0x9EAFA2\", \"0x4E94B3\", \"0x03617E\"]) */\n  0x20\n  shr\n  jump\t// in\ntag_8:\n    /* \"contracts/StrawberryColorPaletteFactory.sol\":540:612  addPalette([\"0x27B6D8\", \"0x334A52\", \"0x96AFB8\", \"0xC498D4\", \"0x8E649D\"]) */\n  tag_9\n  mload(0x40)\n  dup1\n  0xa0\n  add\n  0x40\n  mstore\n  dup1\n  mload(0x40)\n  dup1\n  0x40\n  add\n  0x40\n  mstore\n  dup1\n  0x08\n  dup2\n  mstore\n  0x20\n  add\n  0x3078323742364438000000000000000000000000000000000000000000000000\n  dup2\n  mstore\n  pop\n  dup2\n  mstore\n  0x20\n  add\n  mload(0x40)\n  dup1\n  0x40\n  add\n  0x40\n  mstore\n  dup1\n  0x08\n  dup2\n  mstore\n  0x20\n  add\n  0x3078333334413532000000000000000000000000000000000000000000000000\n  dup2\n  mstore\n  pop\n  dup2\n  mstore\n  0x20\n  add\n  mload(0x40)\n  dup1\n  0x40\n  add\n  0x40\n  mstore\n  dup1\n  0x08\n  dup2\n  mstore\n  0x20\n  add\n  0x3078393641464238000000000000000000000000000000000000000000000000\n  dup2\n  mstore\n  pop\n  dup2\n  mstore\n  0x20\n  add\n  mload(0x40)\n  dup1\n  0x40\n  add\n  0x40\n  mstore\n  dup1\n  0x08\n  dup2\n  mstore\n  0x20\n  add\n  0x3078433439384434000000000000000000000000000000000000000000000000\n  dup2\n  mstore\n  pop\n  dup2\n  mstore\n  0x20\n  add\n  mload(0x40)\n  dup1\n  0x40\n  add\n  0x40\n  mstore\n  dup1\n  0x08\n  dup2\n  mstore\n  0x20\n  add\n  0x3078384536343944000000000000000000000000000000000000000000000000\n  dup2\n  mstore\n  pop\n  dup2\n  mstore\n  pop\n    /* \"contracts/StrawberryColorPaletteFactory.sol\":540:550  addPalette */\n  shl(0x20, tag_7)\n    /* \"contracts/StrawberryColorPaletteFactory.sol\":540:612  addPalette([\"0x27B6D8\", \"0x334A52\", \"0x96AFB8\", \"0xC498D4\", \"0x8E649D\"]) */\n  0x20\n  shr\n  jump\t// in\ntag_9:\n    /* \"contracts/StrawberryColorPaletteFactory.sol\":622:694  addPalette([\"0x5AA55B\", \"0x24956D\", \"0x008377\", \"0x006F77\", \"0x1C5B6C\"]) */\n  tag_10\n  mload(0x40)\n  dup1\n  0xa0\n  add\n  0x40\n  mstore\n  dup1\n  mload(0x40)\n  dup1\n  0x40\n  add\n  0x40\n  mstore\n  dup1\n  0x08\n  dup2\n  mstore\n  0x20\n  add\n  0x3078354141353542000000000000000000000000000000000000000000000000\n  dup2\n  mstore\n  pop\n  dup2\n  mstore\n  0x20\n  add\n  mload(0x40)\n  dup1\n  0x40\n  add\n  0x40\n  mstore\n  dup1\n  0x08\n  dup2\n  mstore\n  0x20\n  add\n  0x3078323439353644000000000000000000000000000000000000000000000000\n  dup2\n  mstore\n  pop\n  dup2\n  mstore\n  0x20\n  add\n  mload(0x40)\n  dup1\n  0x40\n  add\n  0x40\n  mstore\n  dup1\n  0x08\n  dup2\n  mstore\n  0x20\n  add\n  0x3078303038333737000000000000000000000000000000000000000000000000\n  dup2\n  mstore\n  pop\n  dup2\n  mstore\n  0x20\n  add\n  mload(0x40)\n  dup1\n  0x40\n  add\n  0x40\n  mstore\n  dup1\n  0x08\n  dup2\n  mstore\n  0x20\n  add\n  0x3078303036463737000000000000000000000000000000000000000000000000\n  dup2\n  mstore\n  pop\n  dup2\n  mstore\n  0x20\n  add\n  mload(0x40)\n  dup1\n  0x40\n  add\n  0x40\n  mstore\n  dup1\n  0x08\n  dup2\n  mstore\n  0x20\n  add\n  0x3078314335423643000000000000000000000000000000000000000000000000\n  dup2\n  mstore\n  pop\n  dup2\n  mstore\n  pop\n    /* \"contracts/StrawberryColorPaletteFactory.sol\":622:632  addPalette */\n  shl(0x20, tag_7)\n    /* \"contracts/StrawberryColorPaletteFactory.sol\":622:694  addPalette([\"0x5AA55B\", \"0x24956D\", \"0x008377\", \"0x006F77\", \"0x1C5B6C\"]) */\n  0x20\n  shr\n  jump\t// in\ntag_10:\n    /* \"contracts/StrawberryColorPaletteFactory.sol\":95:1404  contract StrawberryColorPaletteFactory is Ownable {... */\n  jump(tag_11)\n    /* \"contracts/StrawberryColorPaletteFactory.sol\":720:936  function addPalette(string[5] memory _colors) public onlyOwner {... */\ntag_7:\n    /* \"contracts/Ownable.sol\":910:919  isOwner() */\n  tag_13\n    /* \"contracts/Ownable.sol\":910:917  isOwner */\n  shl(0x20, tag_14)\n    /* \"contracts/Ownable.sol\":910:919  isOwner() */\n  0x20\n  shr\n  jump\t// in\ntag_13:\n    /* \"contracts/Ownable.sol\":902:920  require(isOwner()) */\n  tag_15\n  jumpi\n  0x00\n  dup1\n  revert\ntag_15:\n    /* \"contracts/StrawberryColorPaletteFactory.sol\":793:801  palettes */\n  0x03\n    /* \"contracts/StrawberryColorPaletteFactory.sol\":807:815  palettes */\n  dup1\n    /* \"contracts/StrawberryColorPaletteFactory.sol\":807:822  palettes.length */\n  dup1\n  sload\n  swap1\n  pop\n    /* \"contracts/StrawberryColorPaletteFactory.sol\":793:823  palettes.push(palettes.length) */\n  swap1\n  dup1\n  0x01\n  dup2\n  sload\n  add\n  dup1\n  dup3\n  sstore\n  dup1\n  swap2\n  pop\n  pop\n  0x01\n  swap1\n  sub\n  swap1\n  0x00\n  mstore\n  keccak256(0x00, 0x20)\n  add\n  0x00\n  swap1\n  swap2\n  swap1\n  swap2\n  swap1\n  swap2\n  pop\n  sstore\n    /* \"contracts/StrawberryColorPaletteFactory.sol\":872:879  _colors */\n  dup1\n    /* \"contracts/StrawberryColorPaletteFactory.sol\":833:848  paletteToColors */\n  0x04\n    /* \"contracts/StrawberryColorPaletteFactory.sol\":833:869  paletteToColors[palettes.length - 1] */\n  0x00\n    /* \"contracts/StrawberryColorPaletteFactory.sol\":867:868  1 */\n  0x01\n    /* \"contracts/StrawberryColorPaletteFactory.sol\":849:857  palettes */\n  0x03\n    /* \"contracts/StrawberryColorPaletteFactory.sol\":849:864  palettes.length */\n  dup1\n  sload\n  swap1\n  pop\n    /* \"contracts/StrawberryColorPaletteFactory.sol\":849:868  palettes.length - 1 */\n  tag_18\n  swap2\n  swap1\n  tag_19\n  jump\t// in\ntag_18:\n    /* \"contracts/StrawberryColorPaletteFactory.sol\":833:869  paletteToColors[palettes.length - 1] */\n  dup2\n  mstore\n  0x20\n  add\n  swap1\n  dup2\n  mstore\n  0x20\n  add\n  0x00\n  keccak256\n    /* \"contracts/StrawberryColorPaletteFactory.sol\":833:879  paletteToColors[palettes.length - 1] = _colors */\n  swap1\n  0x05\n  tag_20\n  swap3\n  swap2\n  swap1\n  tag_21\n  jump\t// in\ntag_20:\n  pop\n    /* \"contracts/StrawberryColorPaletteFactory.sol\":894:929  PaletteCreated(palettes.length - 1) */\n  0xe1c7c98cdeded3a25c1c7ada5b85013b2c7c9879f1678129a413ea685d0fcc78\n    /* \"contracts/StrawberryColorPaletteFactory.sol\":927:928  1 */\n  0x01\n    /* \"contracts/StrawberryColorPaletteFactory.sol\":909:917  palettes */\n  0x03\n    /* \"contracts/StrawberryColorPaletteFactory.sol\":909:924  palettes.length */\n  dup1\n  sload\n  swap1\n  pop\n    /* \"contracts/StrawberryColorPaletteFactory.sol\":909:928  palettes.length - 1 */\n  tag_22\n  swap2\n  swap1\n  tag_19\n  jump\t// in\ntag_22:\n    /* \"contracts/StrawberryColorPaletteFactory.sol\":894:929  PaletteCreated(palettes.length - 1) */\n  mload(0x40)\n  tag_23\n  swap2\n  swap1\n  tag_24\n  jump\t// in\ntag_23:\n  mload(0x40)\n  dup1\n  swap2\n  sub\n  swap1\n  log1\n    /* \"contracts/StrawberryColorPaletteFactory.sol\":720:936  function addPalette(string[5] memory _colors) public onlyOwner {... */\n  pop\n  jump\t// out\n    /* \"contracts/Ownable.sol\":1024:1113  function isOwner() public view returns(bool) {... */\ntag_14:\n    /* \"contracts/Ownable.sol\":1063:1067  bool */\n  0x00\n    /* \"contracts/Ownable.sol\":1100:1106  _owner */\n  dup1\n  0x00\n  swap1\n  sload\n  swap1\n  0x0100\n  exp\n  swap1\n  div\n  0xffffffffffffffffffffffffffffffffffffffff\n  and\n    /* \"contracts/Ownable.sol\":1086:1106  msg.sender == _owner */\n  0xffffffffffffffffffffffffffffffffffffffff\n  and\n    /* \"contracts/Ownable.sol\":1086:1096  msg.sender */\n  caller\n    /* \"contracts/Ownable.sol\":1086:1106  msg.sender == _owner */\n  0xffffffffffffffffffffffffffffffffffffffff\n  and\n  eq\n    /* \"contracts/Ownable.sol\":1079:1106  return msg.sender == _owner */\n  swap1\n  pop\n    /* \"contracts/Ownable.sol\":1024:1113  function isOwner() public view returns(bool) {... */\n  swap1\n  jump\t// out\n    /* \"contracts/StrawberryColorPaletteFactory.sol\":95:1404  contract StrawberryColorPaletteFactory is Ownable {... */\ntag_21:\n  dup3\n  dup1\n  sload\n  dup3\n  dup3\n  sstore\n  swap1\n  0x00\n  mstore\n  keccak256(0x00, 0x20)\n  swap1\n  dup2\n  add\n  swap3\n  dup3\n  iszero\n  tag_26\n  jumpi\n  swap2\n  0x20\n  mul\n  dup3\n  add\ntag_27:\n  dup3\n  dup2\n  gt\n  iszero\n  tag_28\n  jumpi\n  dup3\n  mload\n  dup3\n  swap1\n  dup2\n  tag_29\n  swap2\n  swap1\n  tag_30\n  jump\t// in\ntag_29:\n  pop\n  swap2\n  0x20\n  add\n  swap2\n  swap1\n  0x01\n  add\n  swap1\n  jump(tag_27)\ntag_28:\ntag_26:\n  pop\n  swap1\n  pop\n  tag_31\n  swap2\n  swap1\n  tag_32\n  jump\t// in\ntag_31:\n  pop\n  swap1\n  jump\t// out\ntag_32:\ntag_33:\n  dup1\n  dup3\n  gt\n  iszero\n  tag_34\n  jumpi\n  0x00\n  dup2\n  dup2\n  tag_35\n  swap2\n  swap1\n  tag_36\n  jump\t// in\ntag_35:\n  pop\n  0x01\n  add\n  jump(tag_33)\ntag_34:\n  pop\n  swap1\n  jump\t// out\ntag_36:\n  pop\n  dup1\n  sload\n  tag_37\n  swap1\n  tag_38\n  jump\t// in\ntag_37:\n  0x00\n  dup3\n  sstore\n  dup1\n  0x1f\n  lt\n  tag_40\n  jumpi\n  pop\n  jump(tag_39)\ntag_40:\n  0x1f\n  add\n  0x20\n  swap1\n  div\n  swap1\n  0x00\n  mstore\n  keccak256(0x00, 0x20)\n  swap1\n  dup2\n  add\n  swap1\n  tag_41\n  swap2\n  swap1\n  tag_42\n  jump\t// in\ntag_41:\ntag_39:\n  pop\n  jump\t// out\ntag_42:\ntag_43:\n  dup1\n  dup3\n  gt\n  iszero\n  tag_44\n  jumpi\n  0x00\n  dup2\n  0x00\n  swap1\n  sstore\n  pop\n  0x01\n  add\n  jump(tag_43)\ntag_44:\n  pop\n  swap1\n  jump\t// out\n    /* \"#utility.yul\":7:84   */\ntag_45:\n    /* \"#utility.yul\":44:51   */\n  0x00\n    /* \"#utility.yul\":73:78   */\n  dup2\n    /* \"#utility.yul\":62:78   */\n  swap1\n  pop\n    /* \"#utility.yul\":7:84   */\n  swap2\n  swap1\n  pop\n  jump\t// out\n    /* \"#utility.yul\":90:270   */\ntag_46:\n    /* \"#utility.yul\":138:215   */\n  0x4e487b7100000000000000000000000000000000000000000000000000000000\n    /* \"#utility.yul\":135:136   */\n  0x00\n    /* \"#utility.yul\":128:216   */\n  mstore\n    /* \"#utility.yul\":235:239   */\n  0x11\n    /* \"#utility.yul\":232:233   */\n  0x04\n    /* \"#utility.yul\":225:240   */\n  mstore\n    /* \"#utility.yul\":259:263   */\n  0x24\n    /* \"#utility.yul\":256:257   */\n  0x00\n    /* \"#utility.yul\":249:264   */\n  revert\n    /* \"#utility.yul\":276:470   */\ntag_19:\n    /* \"#utility.yul\":316:320   */\n  0x00\n    /* \"#utility.yul\":336:356   */\n  tag_70\n    /* \"#utility.yul\":354:355   */\n  dup3\n    /* \"#utility.yul\":336:356   */\n  tag_45\n  jump\t// in\ntag_70:\n    /* \"#utility.yul\":331:356   */\n  swap2\n  pop\n    /* \"#utility.yul\":370:390   */\n  tag_71\n    /* \"#utility.yul\":388:389   */\n  dup4\n    /* \"#utility.yul\":370:390   */\n  tag_45\n  jump\t// in\ntag_71:\n    /* \"#utility.yul\":365:390   */\n  swap3\n  pop\n    /* \"#utility.yul\":414:415   */\n  dup3\n    /* \"#utility.yul\":411:412   */\n  dup3\n    /* \"#utility.yul\":407:416   */\n  sub\n    /* \"#utility.yul\":399:416   */\n  swap1\n  pop\n    /* \"#utility.yul\":438:439   */\n  dup2\n    /* \"#utility.yul\":432:436   */\n  dup2\n    /* \"#utility.yul\":429:440   */\n  gt\n    /* \"#utility.yul\":426:463   */\n  iszero\n  tag_72\n  jumpi\n    /* \"#utility.yul\":443:461   */\n  tag_73\n  tag_46\n  jump\t// in\ntag_73:\n    /* \"#utility.yul\":426:463   */\ntag_72:\n    /* \"#utility.yul\":276:470   */\n  swap3\n  swap2\n  pop\n  pop\n  jump\t// out\n    /* \"#utility.yul\":476:594   */\ntag_47:\n    /* \"#utility.yul\":563:587   */\n  tag_75\n    /* \"#utility.yul\":581:586   */\n  dup2\n    /* \"#utility.yul\":563:587   */\n  tag_45\n  jump\t// in\ntag_75:\n    /* \"#utility.yul\":558:561   */\n  dup3\n    /* \"#utility.yul\":551:588   */\n  mstore\n    /* \"#utility.yul\":476:594   */\n  pop\n  pop\n  jump\t// out\n    /* \"#utility.yul\":600:822   */\ntag_24:\n    /* \"#utility.yul\":693:697   */\n  0x00\n    /* \"#utility.yul\":731:733   */\n  0x20\n    /* \"#utility.yul\":720:729   */\n  dup3\n    /* \"#utility.yul\":716:734   */\n  add\n    /* \"#utility.yul\":708:734   */\n  swap1\n  pop\n    /* \"#utility.yul\":744:815   */\n  tag_77\n    /* \"#utility.yul\":812:813   */\n  0x00\n    /* \"#utility.yul\":801:810   */\n  dup4\n    /* \"#utility.yul\":797:814   */\n  add\n    /* \"#utility.yul\":788:794   */\n  dup5\n    /* \"#utility.yul\":744:815   */\n  tag_47\n  jump\t// in\ntag_77:\n    /* \"#utility.yul\":600:822   */\n  swap3\n  swap2\n  pop\n  pop\n  jump\t// out\n    /* \"#utility.yul\":828:927   */\ntag_48:\n    /* \"#utility.yul\":880:886   */\n  0x00\n    /* \"#utility.yul\":914:919   */\n  dup2\n    /* \"#utility.yul\":908:920   */\n  mload\n    /* \"#utility.yul\":898:920   */\n  swap1\n  pop\n    /* \"#utility.yul\":828:927   */\n  swap2\n  swap1\n  pop\n  jump\t// out\n    /* \"#utility.yul\":933:1113   */\ntag_49:\n    /* \"#utility.yul\":981:1058   */\n  0x4e487b7100000000000000000000000000000000000000000000000000000000\n    /* \"#utility.yul\":978:979   */\n  0x00\n    /* \"#utility.yul\":971:1059   */\n  mstore\n    /* \"#utility.yul\":1078:1082   */\n  0x41\n    /* \"#utility.yul\":1075:1076   */\n  0x04\n    /* \"#utility.yul\":1068:1083   */\n  mstore\n    /* \"#utility.yul\":1102:1106   */\n  0x24\n    /* \"#utility.yul\":1099:1100   */\n  0x00\n    /* \"#utility.yul\":1092:1107   */\n  revert\n    /* \"#utility.yul\":1119:1299   */\ntag_50:\n    /* \"#utility.yul\":1167:1244   */\n  0x4e487b7100000000000000000000000000000000000000000000000000000000\n    /* \"#utility.yul\":1164:1165   */\n  0x00\n    /* \"#utility.yul\":1157:1245   */\n  mstore\n    /* \"#utility.yul\":1264:1268   */\n  0x22\n    /* \"#utility.yul\":1261:1262   */\n  0x04\n    /* \"#utility.yul\":1254:1269   */\n  mstore\n    /* \"#utility.yul\":1288:1292   */\n  0x24\n    /* \"#utility.yul\":1285:1286   */\n  0x00\n    /* \"#utility.yul\":1278:1293   */\n  revert\n    /* \"#utility.yul\":1305:1625   */\ntag_38:\n    /* \"#utility.yul\":1349:1355   */\n  0x00\n    /* \"#utility.yul\":1386:1387   */\n  0x02\n    /* \"#utility.yul\":1380:1384   */\n  dup3\n    /* \"#utility.yul\":1376:1388   */\n  div\n    /* \"#utility.yul\":1366:1388   */\n  swap1\n  pop\n    /* \"#utility.yul\":1433:1434   */\n  0x01\n    /* \"#utility.yul\":1427:1431   */\n  dup3\n    /* \"#utility.yul\":1423:1435   */\n  and\n    /* \"#utility.yul\":1454:1472   */\n  dup1\n    /* \"#utility.yul\":1444:1525   */\n  tag_82\n  jumpi\n    /* \"#utility.yul\":1510:1514   */\n  0x7f\n    /* \"#utility.yul\":1502:1508   */\n  dup3\n    /* \"#utility.yul\":1498:1515   */\n  and\n    /* \"#utility.yul\":1488:1515   */\n  swap2\n  pop\n    /* \"#utility.yul\":1444:1525   */\ntag_82:\n    /* \"#utility.yul\":1572:1574   */\n  0x20\n    /* \"#utility.yul\":1564:1570   */\n  dup3\n    /* \"#utility.yul\":1561:1575   */\n  lt\n    /* \"#utility.yul\":1541:1559   */\n  dup2\n    /* \"#utility.yul\":1538:1576   */\n  sub\n    /* \"#utility.yul\":1535:1619   */\n  tag_83\n  jumpi\n    /* \"#utility.yul\":1591:1609   */\n  tag_84\n  tag_50\n  jump\t// in\ntag_84:\n    /* \"#utility.yul\":1535:1619   */\ntag_83:\n    /* \"#utility.yul\":1356:1625   */\n  pop\n    /* \"#utility.yul\":1305:1625   */\n  swap2\n  swap1\n  pop\n  jump\t// out\n    /* \"#utility.yul\":1631:1772   */\ntag_51:\n    /* \"#utility.yul\":1680:1684   */\n  0x00\n    /* \"#utility.yul\":1703:1706   */\n  dup2\n    /* \"#utility.yul\":1695:1706   */\n  swap1\n  pop\n    /* \"#utility.yul\":1726:1729   */\n  dup2\n    /* \"#utility.yul\":1723:1724   */\n  0x00\n    /* \"#utility.yul\":1716:1730   */\n  mstore\n    /* \"#utility.yul\":1760:1764   */\n  0x20\n    /* \"#utility.yul\":1757:1758   */\n  0x00\n    /* \"#utility.yul\":1747:1765   */\n  keccak256\n    /* \"#utility.yul\":1739:1765   */\n  swap1\n  pop\n    /* \"#utility.yul\":1631:1772   */\n  swap2\n  swap1\n  pop\n  jump\t// out\n    /* \"#utility.yul\":1778:1871   */\ntag_52:\n    /* \"#utility.yul\":1815:1821   */\n  0x00\n    /* \"#utility.yul\":1862:1864   */\n  0x20\n    /* \"#utility.yul\":1857:1859   */\n  0x1f\n    /* \"#utility.yul\":1850:1855   */\n  dup4\n    /* \"#utility.yul\":1846:1860   */\n  add\n    /* \"#utility.yul\":1842:1865   */\n  div\n    /* \"#utility.yul\":1832:1865   */\n  swap1\n  pop\n    /* \"#utility.yul\":1778:1871   */\n  swap2\n  swap1\n  pop\n  jump\t// out\n    /* \"#utility.yul\":1877:1984   */\ntag_53:\n    /* \"#utility.yul\":1921:1929   */\n  0x00\n    /* \"#utility.yul\":1971:1976   */\n  dup3\n    /* \"#utility.yul\":1965:1969   */\n  dup3\n    /* \"#utility.yul\":1961:1977   */\n  shl\n    /* \"#utility.yul\":1940:1977   */\n  swap1\n  pop\n    /* \"#utility.yul\":1877:1984   */\n  swap3\n  swap2\n  pop\n  pop\n  jump\t// out\n    /* \"#utility.yul\":1990:2383   */\ntag_54:\n    /* \"#utility.yul\":2059:2065   */\n  0x00\n    /* \"#utility.yul\":2109:2110   */\n  0x08\n    /* \"#utility.yul\":2097:2107   */\n  dup4\n    /* \"#utility.yul\":2093:2111   */\n  mul\n    /* \"#utility.yul\":2132:2229   */\n  tag_89\n    /* \"#utility.yul\":2162:2228   */\n  0xffffffffffffffffffffffffffffffffffffffffffffffffffffffffffffffff\n    /* \"#utility.yul\":2151:2160   */\n  dup3\n    /* \"#utility.yul\":2132:2229   */\n  tag_53\n  jump\t// in\ntag_89:\n    /* \"#utility.yul\":2250:2289   */\n  tag_90\n    /* \"#utility.yul\":2280:2288   */\n  dup7\n    /* \"#utility.yul\":2269:2278   */\n  dup4\n    /* \"#utility.yul\":2250:2289   */\n  tag_53\n  jump\t// in\ntag_90:\n    /* \"#utility.yul\":2238:2289   */\n  swap6\n  pop\n    /* \"#utility.yul\":2322:2326   */\n  dup1\n    /* \"#utility.yul\":2318:2327   */\n  not\n    /* \"#utility.yul\":2311:2316   */\n  dup5\n    /* \"#utility.yul\":2307:2328   */\n  and\n    /* \"#utility.yul\":2298:2328   */\n  swap4\n  pop\n    /* \"#utility.yul\":2371:2375   */\n  dup1\n    /* \"#utility.yul\":2361:2369   */\n  dup7\n    /* \"#utility.yul\":2357:2376   */\n  and\n    /* \"#utility.yul\":2350:2355   */\n  dup5\n    /* \"#utility.yul\":2347:2377   */\n  or\n    /* \"#utility.yul\":2337:2377   */\n  swap3\n  pop\n    /* \"#utility.yul\":2066:2383   */\n  pop\n  pop\n    /* \"#utility.yul\":1990:2383   */\n  swap4\n  swap3\n  pop\n  pop\n  pop\n  jump\t// out\n    /* \"#utility.yul\":2389:2449   */\ntag_55:\n    /* \"#utility.yul\":2417:2420   */\n  0x00\n    /* \"#utility.yul\":2438:2443   */\n  dup2\n    /* \"#utility.yul\":2431:2443   */\n  swap1\n  pop\n    /* \"#utility.yul\":2389:2449   */\n  swap2\n  swap1\n  pop\n  jump\t// out\n    /* \"#utility.yul\":2455:2597   */\ntag_56:\n    /* \"#utility.yul\":2505:2514   */\n  0x00\n    /* \"#utility.yul\":2538:2591   */\n  tag_93\n    /* \"#utility.yul\":2556:2590   */\n  tag_94\n    /* \"#utility.yul\":2565:2589   */\n  tag_95\n    /* \"#utility.yul\":2583:2588   */\n  dup5\n    /* \"#utility.yul\":2565:2589   */\n  tag_45\n  jump\t// in\ntag_95:\n    /* \"#utility.yul\":2556:2590   */\n  tag_55\n  jump\t// in\ntag_94:\n    /* \"#utility.yul\":2538:2591   */\n  tag_45\n  jump\t// in\ntag_93:\n    /* \"#utility.yul\":2525:2591   */\n  swap1\n  pop\n    /* \"#utility.yul\":2455:2597   */\n  swap2\n  swap1\n  pop\n  jump\t// out\n    /* \"#utility.yul\":2603:2678   */\ntag_57:\n    /* \"#utility.yul\":2646:2649   */\n  0x00\n    /* \"#utility.yul\":2667:2672   */\n  dup2\n    /* \"#utility.yul\":2660:2672   */\n  swap1\n  pop\n    /* \"#utility.yul\":2603:2678   */\n  swap2\n  swap1\n  pop\n  jump\t// out\n    /* \"#utility.yul\":2684:2953   */\ntag_58:\n    /* \"#utility.yul\":2794:2833   */\n  tag_98\n    /* \"#utility.yul\":2825:2832   */\n  dup4\n    /* \"#utility.yul\":2794:2833   */\n  tag_56\n  jump\t// in\ntag_98:\n    /* \"#utility.yul\":2855:2946   */\n  tag_99\n    /* \"#utility.yul\":2904:2945   */\n  tag_100\n    /* \"#utility.yul\":2928:2944   */\n  dup3\n    /* \"#utility.yul\":2904:2945   */\n  tag_57\n  jump\t// in\ntag_100:\n    /* \"#utility.yul\":2896:2902   */\n  dup5\n    /* \"#utility.yul\":2889:2893   */\n  dup5\n    /* \"#utility.yul\":2883:2894   */\n  sload\n    /* \"#utility.yul\":2855:2946   */\n  tag_54\n  jump\t// in\ntag_99:\n    /* \"#utility.yul\":2849:2853   */\n  dup3\n    /* \"#utility.yul\":2842:2947   */\n  sstore\n    /* \"#utility.yul\":2760:2953   */\n  pop\n    /* \"#utility.yul\":2684:2953   */\n  pop\n  pop\n  pop\n  jump\t// out\n    /* \"#utility.yul\":2959:3032   */\ntag_59:\n    /* \"#utility.yul\":3004:3007   */\n  0x00\n    /* \"#utility.yul\":2959:3032   */\n  swap1\n  jump\t// out\n    /* \"#utility.yul\":3038:3227   */\ntag_60:\n    /* \"#utility.yul\":3115:3147   */\n  tag_103\n  tag_59\n  jump\t// in\ntag_103:\n    /* \"#utility.yul\":3156:3221   */\n  tag_104\n    /* \"#utility.yul\":3214:3220   */\n  dup2\n    /* \"#utility.yul\":3206:3212   */\n  dup5\n    /* \"#utility.yul\":3200:3204   */\n  dup5\n    /* \"#utility.yul\":3156:3221   */\n  tag_58\n  jump\t// in\ntag_104:\n    /* \"#utility.yul\":3091:3227   */\n  pop\n    /* \"#utility.yul\":3038:3227   */\n  pop\n  pop\n  jump\t// out\n    /* \"#utility.yul\":3233:3419   */\ntag_61:\n    /* \"#utility.yul\":3293:3413   */\ntag_106:\n    /* \"#utility.yul\":3310:3313   */\n  dup2\n    /* \"#utility.yul\":3303:3308   */\n  dup2\n    /* \"#utility.yul\":3300:3314   */\n  lt\n    /* \"#utility.yul\":3293:3413   */\n  iszero\n  tag_108\n  jumpi\n    /* \"#utility.yul\":3364:3403   */\n  tag_109\n    /* \"#utility.yul\":3401:3402   */\n  0x00\n    /* \"#utility.yul\":3394:3399   */\n  dup3\n    /* \"#utility.yul\":3364:3403   */\n  tag_60\n  jump\t// in\ntag_109:\n    /* \"#utility.yul\":3337:3338   */\n  0x01\n    /* \"#utility.yul\":3330:3335   */\n  dup2\n    /* \"#utility.yul\":3326:3339   */\n  add\n    /* \"#utility.yul\":3317:3339   */\n  swap1\n  pop\n    /* \"#utility.yul\":3293:3413   */\n  jump(tag_106)\ntag_108:\n    /* \"#utility.yul\":3233:3419   */\n  pop\n  pop\n  jump\t// out\n    /* \"#utility.yul\":3425:3968   */\ntag_62:\n    /* \"#utility.yul\":3526:3528   */\n  0x1f\n    /* \"#utility.yul\":3521:3524   */\n  dup3\n    /* \"#utility.yul\":3518:3529   */\n  gt\n    /* \"#utility.yul\":3515:3961   */\n  iszero\n  tag_111\n  jumpi\n    /* \"#utility.yul\":3560:3598   */\n  tag_112\n    /* \"#utility.yul\":3592:3597   */\n  dup2\n    /* \"#utility.yul\":3560:3598   */\n  tag_51\n  jump\t// in\ntag_112:\n    /* \"#utility.yul\":3644:3673   */\n  tag_113\n    /* \"#utility.yul\":3662:3672   */\n  dup5\n    /* \"#utility.yul\":3644:3673   */\n  tag_52\n  jump\t// in\ntag_113:\n    /* \"#utility.yul\":3634:3642   */\n  dup2\n    /* \"#utility.yul\":3630:3674   */\n  add\n    /* \"#utility.yul\":3827:3829   */\n  0x20\n    /* \"#utility.yul\":3815:3825   */\n  dup6\n    /* \"#utility.yul\":3812:3830   */\n  lt\n    /* \"#utility.yul\":3809:3858   */\n  iszero\n  tag_114\n  jumpi\n    /* \"#utility.yul\":3848:3856   */\n  dup2\n    /* \"#utility.yul\":3833:3856   */\n  swap1\n  pop\n    /* \"#utility.yul\":3809:3858   */\ntag_114:\n    /* \"#utility.yul\":3871:3951   */\n  tag_115\n    /* \"#utility.yul\":3927:3949   */\n  tag_116\n    /* \"#utility.yul\":3945:3948   */\n  dup6\n    /* \"#utility.yul\":3927:3949   */\n  tag_52\n  jump\t// in\ntag_116:\n    /* \"#utility.yul\":3917:3925   */\n  dup4\n    /* \"#utility.yul\":3913:3950   */\n  add\n    /* \"#utility.yul\":3900:3911   */\n  dup3\n    /* \"#utility.yul\":3871:3951   */\n  tag_61\n  jump\t// in\ntag_115:\n    /* \"#utility.yul\":3530:3961   */\n  pop\n  pop\n    /* \"#utility.yul\":3515:3961   */\ntag_111:\n    /* \"#utility.yul\":3425:3968   */\n  pop\n  pop\n  pop\n  jump\t// out\n    /* \"#utility.yul\":3974:4091   */\ntag_63:\n    /* \"#utility.yul\":4028:4036   */\n  0x00\n    /* \"#utility.yul\":4078:4083   */\n  dup3\n    /* \"#utility.yul\":4072:4076   */\n  dup3\n    /* \"#utility.yul\":4068:4084   */\n  shr\n    /* \"#utility.yul\":4047:4084   */\n  swap1\n  pop\n    /* \"#utility.yul\":3974:4091   */\n  swap3\n  swap2\n  pop\n  pop\n  jump\t// out\n    /* \"#utility.yul\":4097:4266   */\ntag_64:\n    /* \"#utility.yul\":4141:4147   */\n  0x00\n    /* \"#utility.yul\":4174:4225   */\n  tag_119\n    /* \"#utility.yul\":4222:4223   */\n  0x00\n    /* \"#utility.yul\":4218:4224   */\n  not\n    /* \"#utility.yul\":4210:4215   */\n  dup5\n    /* \"#utility.yul\":4207:4208   */\n  0x08\n    /* \"#utility.yul\":4203:4216   */\n  mul\n    /* \"#utility.yul\":4174:4225   */\n  tag_63\n  jump\t// in\ntag_119:\n    /* \"#utility.yul\":4170:4226   */\n  not\n    /* \"#utility.yul\":4255:4259   */\n  dup1\n    /* \"#utility.yul\":4249:4253   */\n  dup4\n    /* \"#utility.yul\":4245:4260   */\n  and\n    /* \"#utility.yul\":4235:4260   */\n  swap2\n  pop\n    /* \"#utility.yul\":4148:4266   */\n  pop\n    /* \"#utility.yul\":4097:4266   */\n  swap3\n  swap2\n  pop\n  pop\n  jump\t// out\n    /* \"#utility.yul\":4271:4566   */\ntag_65:\n    /* \"#utility.yul\":4347:4351   */\n  0x00\n    /* \"#utility.yul\":4493:4522   */\n  tag_121\n    /* \"#utility.yul\":4518:4521   */\n  dup4\n    /* \"#utility.yul\":4512:4516   */\n  dup4\n    /* \"#utility.yul\":4493:4522   */\n  tag_64\n  jump\t// in\ntag_121:\n    /* \"#utility.yul\":4485:4522   */\n  swap2\n  pop\n    /* \"#utility.yul\":4555:4558   */\n  dup3\n    /* \"#utility.yul\":4552:4553   */\n  0x02\n    /* \"#utility.yul\":4548:4559   */\n  mul\n    /* \"#utility.yul\":4542:4546   */\n  dup3\n    /* \"#utility.yul\":4539:4560   */\n  or\n    /* \"#utility.yul\":4531:4560   */\n  swap1\n  pop\n    /* \"#utility.yul\":4271:4566   */\n  swap3\n  swap2\n  pop\n  pop\n  jump\t// out\n    /* \"#utility.yul\":4571:5966   */\ntag_30:\n    /* \"#utility.yul\":4688:4725   */\n  tag_123\n    /* \"#utility.yul\":4721:4724   */\n  dup3\n    /* \"#utility.yul\":4688:4725   */\n  tag_48\n  jump\t// in\ntag_123:\n    /* \"#utility.yul\":4790:4808   */\n  0xffffffffffffffff\n    /* \"#utility.yul\":4782:4788   */\n  dup2\n    /* \"#utility.yul\":4779:4809   */\n  gt\n    /* \"#utility.yul\":4776:4832   */\n  iszero\n  tag_124\n  jumpi\n    /* \"#utility.yul\":4812:4830   */\n  tag_125\n  tag_49\n  jump\t// in\ntag_125:\n    /* \"#utility.yul\":4776:4832   */\ntag_124:\n    /* \"#utility.yul\":4856:4894   */\n  tag_126\n    /* \"#utility.yul\":4888:4892   */\n  dup3\n    /* \"#utility.yul\":4882:4893   */\n  sload\n    /* \"#utility.yul\":4856:4894   */\n  tag_38\n  jump\t// in\ntag_126:\n    /* \"#utility.yul\":4941:5008   */\n  tag_127\n    /* \"#utility.yul\":5001:5007   */\n  dup3\n    /* \"#utility.yul\":4993:4999   */\n  dup3\n    /* \"#utility.yul\":4987:4991   */\n  dup6\n    /* \"#utility.yul\":4941:5008   */\n  tag_62\n  jump\t// in\ntag_127:\n    /* \"#utility.yul\":5035:5036   */\n  0x00\n    /* \"#utility.yul\":5059:5063   */\n  0x20\n    /* \"#utility.yul\":5046:5063   */\n  swap1\n  pop\n    /* \"#utility.yul\":5091:5093   */\n  0x1f\n    /* \"#utility.yul\":5083:5089   */\n  dup4\n    /* \"#utility.yul\":5080:5094   */\n  gt\n    /* \"#utility.yul\":5108:5109   */\n  0x01\n    /* \"#utility.yul\":5103:5721   */\n  dup2\n  eq\n  tag_129\n  jumpi\n    /* \"#utility.yul\":5765:5766   */\n  0x00\n    /* \"#utility.yul\":5782:5788   */\n  dup5\n    /* \"#utility.yul\":5779:5856   */\n  iszero\n  tag_130\n  jumpi\n    /* \"#utility.yul\":5831:5840   */\n  dup3\n    /* \"#utility.yul\":5826:5829   */\n  dup8\n    /* \"#utility.yul\":5822:5841   */\n  add\n    /* \"#utility.yul\":5816:5842   */\n  mload\n    /* \"#utility.yul\":5807:5842   */\n  swap1\n  pop\n    /* \"#utility.yul\":5779:5856   */\ntag_130:\n    /* \"#utility.yul\":5882:5949   */\n  tag_131\n    /* \"#utility.yul\":5942:5948   */\n  dup6\n    /* \"#utility.yul\":5935:5940   */\n  dup3\n    /* \"#utility.yul\":5882:5949   */\n  tag_65\n  jump\t// in\ntag_131:\n    /* \"#utility.yul\":5876:5880   */\n  dup7\n    /* \"#utility.yul\":5869:5950   */\n  sstore\n    /* \"#utility.yul\":5738:5960   */\n  pop\n    /* \"#utility.yul\":5073:5960   */\n  jump(tag_128)\n    /* \"#utility.yul\":5103:5721   */\ntag_129:\n    /* \"#utility.yul\":5155:5159   */\n  0x1f\n    /* \"#utility.yul\":5151:5160   */\n  not\n    /* \"#utility.yul\":5143:5149   */\n  dup5\n    /* \"#utility.yul\":5139:5161   */\n  and\n    /* \"#utility.yul\":5189:5226   */\n  tag_132\n    /* \"#utility.yul\":5221:5225   */\n  dup7\n    /* \"#utility.yul\":5189:5226   */\n  tag_51\n  jump\t// in\ntag_132:\n    /* \"#utility.yul\":5248:5249   */\n  0x00\n    /* \"#utility.yul\":5262:5470   */\ntag_133:\n    /* \"#utility.yul\":5276:5283   */\n  dup3\n    /* \"#utility.yul\":5273:5274   */\n  dup2\n    /* \"#utility.yul\":5270:5284   */\n  lt\n    /* \"#utility.yul\":5262:5470   */\n  iszero\n  tag_135\n  jumpi\n    /* \"#utility.yul\":5355:5364   */\n  dup5\n    /* \"#utility.yul\":5350:5353   */\n  dup10\n    /* \"#utility.yul\":5346:5365   */\n  add\n    /* \"#utility.yul\":5340:5366   */\n  mload\n    /* \"#utility.yul\":5332:5338   */\n  dup3\n    /* \"#utility.yul\":5325:5367   */\n  sstore\n    /* \"#utility.yul\":5406:5407   */\n  0x01\n    /* \"#utility.yul\":5398:5404   */\n  dup3\n    /* \"#utility.yul\":5394:5408   */\n  add\n    /* \"#utility.yul\":5384:5408   */\n  swap2\n  pop\n    /* \"#utility.yul\":5453:5455   */\n  0x20\n    /* \"#utility.yul\":5442:5451   */\n  dup6\n    /* \"#utility.yul\":5438:5456   */\n  add\n    /* \"#utility.yul\":5425:5456   */\n  swap5\n  pop\n    /* \"#utility.yul\":5299:5303   */\n  0x20\n    /* \"#utility.yul\":5296:5297   */\n  dup2\n    /* \"#utility.yul\":5292:5304   */\n  add\n    /* \"#utility.yul\":5287:5304   */\n  swap1\n  pop\n    /* \"#utility.yul\":5262:5470   */\n  jump(tag_133)\ntag_135:\n    /* \"#utility.yul\":5498:5504   */\n  dup7\n    /* \"#utility.yul\":5489:5496   */\n  dup4\n    /* \"#utility.yul\":5486:5505   */\n  lt\n    /* \"#utility.yul\":5483:5662   */\n  iszero\n  tag_136\n  jumpi\n    /* \"#utility.yul\":5556:5565   */\n  dup5\n    /* \"#utility.yul\":5551:5554   */\n  dup10\n    /* \"#utility.yul\":5547:5566   */\n  add\n    /* \"#utility.yul\":5541:5567   */\n  mload\n    /* \"#utility.yul\":5599:5647   */\n  tag_137\n    /* \"#utility.yul\":5641:5645   */\n  0x1f\n    /* \"#utility.yul\":5633:5639   */\n  dup10\n    /* \"#utility.yul\":5629:5646   */\n  and\n    /* \"#utility.yul\":5618:5627   */\n  dup3\n    /* \"#utility.yul\":5599:5647   */\n  tag_64\n  jump\t// in\ntag_137:\n    /* \"#utility.yul\":5591:5597   */\n  dup4\n    /* \"#utility.yul\":5584:5648   */\n  sstore\n    /* \"#utility.yul\":5506:5662   */\n  pop\n    /* \"#utility.yul\":5483:5662   */\ntag_136:\n    /* \"#utility.yul\":5708:5709   */\n  0x01\n    /* \"#utility.yul\":5704:5705   */\n  0x02\n    /* \"#utility.yul\":5696:5702   */\n  dup9\n    /* \"#utility.yul\":5692:5706   */\n  mul\n    /* \"#utility.yul\":5688:5710   */\n  add\n    /* \"#utility.yul\":5682:5686   */\n  dup9\n    /* \"#utility.yul\":5675:5711   */\n  sstore\n    /* \"#utility.yul\":5110:5721   */\n  pop\n  pop\n  pop\n    /* \"#utility.yul\":5073:5960   */\ntag_128:\n  pop\n    /* \"#utility.yul\":4663:5966   */\n  pop\n  pop\n  pop\n    /* \"#utility.yul\":4571:5966   */\n  pop\n  pop\n  jump\t// out\n    /* \"contracts/StrawberryColorPaletteFactory.sol\":95:1404  contract StrawberryColorPaletteFactory is Ownable {... */\ntag_11:\n  dataSize(sub_0)\n  dup1\n  dataOffset(sub_0)\n  0x00\n  codecopy\n  0x00\n  return\nstop\n\nsub_0: assembly {\n        /* \"contracts/StrawberryColorPaletteFactory.sol\":95:1404  contract StrawberryColorPaletteFactory is Ownable {... */\n      mstore(0x40, 0x80)\n      callvalue\n      dup1\n      iszero\n      tag_1\n      jumpi\n      0x00\n      dup1\n      revert\n    tag_1:\n      pop\n      jumpi(tag_2, lt(calldatasize, 0x04))\n      shr(0xe0, calldataload(0x00))\n      dup1\n      0x8f32d59b\n      gt\n      tag_10\n      jumpi\n      dup1\n      0x8f32d59b\n      eq\n      tag_6\n      jumpi\n      dup1\n      0xb8f7f42a\n      eq\n      tag_7\n      jumpi\n      dup1\n      0xdcf7eefe\n      eq\n      tag_8\n      jumpi\n      dup1\n      0xf2fde38b\n      eq\n      tag_9\n      jumpi\n      jump(tag_2)\n    tag_10:\n      dup1\n      0x109c1238\n      eq\n      tag_3\n      jumpi\n      dup1\n      0x715018a6\n      eq\n      tag_4\n      jumpi\n      dup1\n      0x8da5cb5b\n      eq\n      tag_5\n      jumpi\n    tag_2:\n      0x00\n      dup1\n      revert\n        /* \"contracts/StrawberryColorPaletteFactory.sol\":151:188  uint public colorAmountPerPalette = 5 */\n    tag_3:\n      tag_11\n      tag_12\n      jump\t// in\n    tag_11:\n      mload(0x40)\n      tag_13\n      swap2\n      swap1\n      tag_14\n      jump\t// in\n    tag_13:\n      mload(0x40)\n      dup1\n      swap2\n      sub\n      swap1\n      return\n        /* \"contracts/Ownable.sol\":1386:1523  function renounceOwnership() public onlyOwner {... */\n    tag_4:\n      tag_15\n      tag_16\n      jump\t// in\n    tag_15:\n      stop\n        /* \"contracts/Ownable.sol\":707:785  function owner() public view returns(address) {... */\n    tag_5:\n      tag_17\n      tag_18\n      jump\t// in\n    tag_17:\n      mload(0x40)\n      tag_19\n      swap2\n      swap1\n      tag_20\n      jump\t// in\n    tag_19:\n      mload(0x40)\n      dup1\n      swap2\n      sub\n      swap1\n      return\n        /* \"contracts/Ownable.sol\":1024:1113  function isOwner() public view returns(bool) {... */\n    tag_6:\n      tag_21\n      tag_22\n      jump\t// in\n    tag_21:\n      mload(0x40)\n      tag_23\n      swap2\n      swap1\n      tag_24\n      jump\t// in\n    tag_23:\n      mload(0x40)\n      dup1\n      swap2\n      sub\n      swap1\n      return\n        /* \"contracts/StrawberryColorPaletteFactory.sol\":720:936  function addPalette(string[5] memory _colors) public onlyOwner {... */\n    tag_7:\n      tag_25\n      0x04\n      dup1\n      calldatasize\n      sub\n      dup2\n      add\n      swap1\n      tag_26\n      swap2\n      swap1\n      tag_27\n      jump\t// in\n    tag_26:\n      tag_28\n      jump\t// in\n    tag_25:\n      stop\n        /* \"contracts/StrawberryColorPaletteFactory.sol\":227:249  uint[] public palettes */\n    tag_8:\n      tag_29\n      0x04\n      dup1\n      calldatasize\n      sub\n      dup2\n      add\n      swap1\n      tag_30\n      swap2\n      swap1\n      tag_31\n      jump\t// in\n    tag_30:\n      tag_32\n      jump\t// in\n    tag_29:\n      mload(0x40)\n      tag_33\n      swap2\n      swap1\n      tag_14\n      jump\t// in\n    tag_33:\n      mload(0x40)\n      dup1\n      swap2\n      sub\n      swap1\n      return\n        /* \"contracts/Ownable.sol\":1691:1798  function transferOwnership(address newOwner) public onlyOwner {... */\n    tag_9:\n      tag_34\n      0x04\n      dup1\n      calldatasize\n      sub\n      dup2\n      add\n      swap1\n      tag_35\n      swap2\n      swap1\n      tag_36\n      jump\t// in\n    tag_35:\n      tag_37\n      jump\t// in\n    tag_34:\n      stop\n        /* \"contracts/StrawberryColorPaletteFactory.sol\":151:188  uint public colorAmountPerPalette = 5 */\n    tag_12:\n      sload(0x01)\n      dup2\n      jump\t// out\n        /* \"contracts/Ownable.sol\":1386:1523  function renounceOwnership() public onlyOwner {... */\n    tag_16:\n        /* \"contracts/Ownable.sol\":910:919  isOwner() */\n      tag_39\n        /* \"contracts/Ownable.sol\":910:917  isOwner */\n      tag_22\n        /* \"contracts/Ownable.sol\":910:919  isOwner() */\n      jump\t// in\n    tag_39:\n        /* \"contracts/Ownable.sol\":902:920  require(isOwner()) */\n      tag_40\n      jumpi\n      0x00\n      dup1\n      revert\n    tag_40:\n        /* \"contracts/Ownable.sol\":1484:1485  0 */\n      0x00\n        /* \"contracts/Ownable.sol\":1447:1487  OwnershipTransferred(_owner, address(0)) */\n      0xffffffffffffffffffffffffffffffffffffffff\n      and\n        /* \"contracts/Ownable.sol\":1468:1474  _owner */\n      0x00\n      dup1\n      sload\n      swap1\n      0x0100\n      exp\n      swap1\n      div\n      0xffffffffffffffffffffffffffffffffffffffff\n      and\n        /* \"contracts/Ownable.sol\":1447:1487  OwnershipTransferred(_owner, address(0)) */\n      0xffffffffffffffffffffffffffffffffffffffff\n      and\n      0x8be0079c531659141344cd1fd0a4f28419497f9722a3daafe3b4186f6b6457e0\n      mload(0x40)\n      mload(0x40)\n      dup1\n      swap2\n      sub\n      swap1\n      log3\n        /* \"contracts/Ownable.sol\":1514:1515  0 */\n      0x00\n        /* \"contracts/Ownable.sol\":1497:1503  _owner */\n      dup1\n      0x00\n        /* \"contracts/Ownable.sol\":1497:1516  _owner = address(0) */\n      0x0100\n      exp\n      dup2\n      sload\n      dup2\n      0xffffffffffffffffffffffffffffffffffffffff\n      mul\n      not\n      and\n      swap1\n      dup4\n      0xffffffffffffffffffffffffffffffffffffffff\n      and\n      mul\n      or\n      swap1\n      sstore\n      pop\n        /* \"contracts/Ownable.sol\":1386:1523  function renounceOwnership() public onlyOwner {... */\n      jump\t// out\n        /* \"contracts/Ownable.sol\":707:785  function owner() public view returns(address) {... */\n    tag_18:\n        /* \"contracts/Ownable.sol\":744:751  address */\n      0x00\n        /* \"contracts/Ownable.sol\":770:776  _owner */\n      dup1\n      0x00\n      swap1\n      sload\n      swap1\n      0x0100\n      exp\n      swap1\n      div\n      0xffffffffffffffffffffffffffffffffffffffff\n      and\n        /* \"contracts/Ownable.sol\":763:776  return _owner */\n      swap1\n      pop\n        /* \"contracts/Ownable.sol\":707:785  function owner() public view returns(address) {... */\n      swap1\n      jump\t// out\n        /* \"contracts/Ownable.sol\":1024:1113  function isOwner() public view returns(bool) {... */\n    tag_22:\n        /* \"contracts/Ownable.sol\":1063:1067  bool */\n      0x00\n        /* \"contracts/Ownable.sol\":1100:1106  _owner */\n      dup1\n      0x00\n      swap1\n      sload\n      swap1\n      0x0100\n      exp\n      swap1\n      div\n      0xffffffffffffffffffffffffffffffffffffffff\n      and\n        /* \"contracts/Ownable.sol\":1086:1106  msg.sender == _owner */\n      0xffffffffffffffffffffffffffffffffffffffff\n      and\n        /* \"contracts/Ownable.sol\":1086:1096  msg.sender */\n      caller\n        /* \"contracts/Ownable.sol\":1086:1106  msg.sender == _owner */\n      0xffffffffffffffffffffffffffffffffffffffff\n      and\n      eq\n        /* \"contracts/Ownable.sol\":1079:1106  return msg.sender == _owner */\n      swap1\n      pop\n        /* \"contracts/Ownable.sol\":1024:1113  function isOwner() public view returns(bool) {... */\n      swap1\n      jump\t// out\n        /* \"contracts/StrawberryColorPaletteFactory.sol\":720:936  function addPalette(string[5] memory _colors) public onlyOwner {... */\n    tag_28:\n        /* \"contracts/Ownable.sol\":910:919  isOwner() */\n      tag_45\n        /* \"contracts/Ownable.sol\":910:917  isOwner */\n      tag_22\n        /* \"contracts/Ownable.sol\":910:919  isOwner() */\n      jump\t// in\n    tag_45:\n        /* \"contracts/Ownable.sol\":902:920  require(isOwner()) */\n      tag_46\n      jumpi\n      0x00\n      dup1\n      revert\n    tag_46:\n        /* \"contracts/StrawberryColorPaletteFactory.sol\":793:801  palettes */\n      0x03\n        /* \"contracts/StrawberryColorPaletteFactory.sol\":807:815  palettes */\n      dup1\n        /* \"contracts/StrawberryColorPaletteFactory.sol\":807:822  palettes.length */\n      dup1\n      sload\n      swap1\n      pop\n        /* \"contracts/StrawberryColorPaletteFactory.sol\":793:823  palettes.push(palettes.length) */\n      swap1\n      dup1\n      0x01\n      dup2\n      sload\n      add\n      dup1\n      dup3\n      sstore\n      dup1\n      swap2\n      pop\n      pop\n      0x01\n      swap1\n      sub\n      swap1\n      0x00\n      mstore\n      keccak256(0x00, 0x20)\n      add\n      0x00\n      swap1\n      swap2\n      swap1\n      swap2\n      swap1\n      swap2\n      pop\n      sstore\n        /* \"contracts/StrawberryColorPaletteFactory.sol\":872:879  _colors */\n      dup1\n        /* \"contracts/StrawberryColorPaletteFactory.sol\":833:848  paletteToColors */\n      0x04\n        /* \"contracts/StrawberryColorPaletteFactory.sol\":833:869  paletteToColors[palettes.length - 1] */\n      0x00\n        /* \"contracts/StrawberryColorPaletteFactory.sol\":867:868  1 */\n      0x01\n        /* \"contracts/StrawberryColorPaletteFactory.sol\":849:857  palettes */\n      0x03\n        /* \"contracts/StrawberryColorPaletteFactory.sol\":849:864  palettes.length */\n      dup1\n      sload\n      swap1\n      pop\n        /* \"contracts/StrawberryColorPaletteFactory.sol\":849:868  palettes.length - 1 */\n      tag_49\n      swap2\n      swap1\n      tag_50\n      jump\t// in\n    tag_49:\n        /* \"contracts/StrawberryColorPaletteFactory.sol\":833:869  paletteToColors[palettes.length - 1] */\n      dup2\n      mstore\n      0x20\n      add\n      swap1\n      dup2\n      mstore\n      0x20\n      add\n      0x00\n      keccak256\n        /* \"contracts/StrawberryColorPaletteFactory.sol\":833:879  paletteToColors[palettes.length - 1] = _colors */\n      swap1\n      0x05\n      tag_51\n      swap3\n      swap2\n      swap1\n      tag_52\n      jump\t// in\n    tag_51:\n      pop\n        /* \"contracts/StrawberryColorPaletteFactory.sol\":894:929  PaletteCreated(palettes.length - 1) */\n      0xe1c7c98cdeded3a25c1c7ada5b85013b2c7c9879f1678129a413ea685d0fcc78\n        /* \"contracts/StrawberryColorPaletteFactory.sol\":927:928  1 */\n      0x01\n        /* \"contracts/StrawberryColorPaletteFactory.sol\":909:917  palettes */\n      0x03\n        /* \"contracts/StrawberryColorPaletteFactory.sol\":909:924  palettes.length */\n      dup1\n      sload\n      swap1\n      pop\n        /* \"contracts/StrawberryColorPaletteFactory.sol\":909:928  palettes.length - 1 */\n      tag_53\n      swap2\n      swap1\n      tag_50\n      jump\t// in\n    tag_53:\n        /* \"contracts/StrawberryColorPaletteFactory.sol\":894:929  PaletteCreated(palettes.length - 1) */\n      mload(0x40)\n      tag_54\n      swap2\n      swap1\n      tag_14\n      jump\t// in\n    tag_54:\n      mload(0x40)\n      dup1\n      swap2\n      sub\n      swap1\n      log1\n        /* \"contracts/StrawberryColorPaletteFactory.sol\":720:936  function addPalette(string[5] memory _colors) public onlyOwner {... */\n      pop\n      jump\t// out\n        /* \"contracts/StrawberryColorPaletteFactory.sol\":227:249  uint[] public palettes */\n    tag_32:\n      0x03\n      dup2\n      dup2\n      sload\n      dup2\n      lt\n      tag_55\n      jumpi\n      0x00\n      dup1\n      revert\n    tag_55:\n      swap1\n      0x00\n      mstore\n      keccak256(0x00, 0x20)\n      add\n      0x00\n      swap2\n      pop\n      swap1\n      pop\n      sload\n      dup2\n      jump\t// out\n        /* \"contracts/Ownable.sol\":1691:1798  function transferOwnership(address newOwner) public onlyOwner {... */\n    tag_37:\n        /* \"contracts/Ownable.sol\":910:919  isOwner() */\n      tag_58\n        /* \"contracts/Ownable.sol\":910:917  isOwner */\n      tag_22\n        /* \"contracts/Ownable.sol\":910:919  isOwner() */\n      jump\t// in\n    tag_58:\n        /* \"contracts/Ownable.sol\":902:920  require(isOwner()) */\n      tag_59\n      jumpi\n      0x00\n      dup1\n      revert\n    tag_59:\n        /* \"contracts/Ownable.sol\":1763:1791  _transferOwnership(newOwner) */\n      tag_61\n        /* \"contracts/Ownable.sol\":1782:1790  newOwner */\n      dup2\n        /* \"contracts/Ownable.sol\":1763:1781  _transferOwnership */\n      tag_62\n        /* \"contracts/Ownable.sol\":1763:1791  _transferOwnership(newOwner) */\n      jump\t// in\n    tag_61:\n        /* \"contracts/Ownable.sol\":1691:1798  function transferOwnership(address newOwner) public onlyOwner {... */\n      pop\n      jump\t// out\n        /* \"contracts/Ownable.sol\":1939:2122  function _transferOwnership(address newOwner) internal {... */\n    tag_62:\n        /* \"contracts/Ownable.sol\":2032:2033  0 */\n      0x00\n        /* \"contracts/Ownable.sol\":2012:2034  newOwner != address(0) */\n      0xffffffffffffffffffffffffffffffffffffffff\n      and\n        /* \"contracts/Ownable.sol\":2012:2020  newOwner */\n      dup2\n        /* \"contracts/Ownable.sol\":2012:2034  newOwner != address(0) */\n      0xffffffffffffffffffffffffffffffffffffffff\n      and\n      sub\n        /* \"contracts/Ownable.sol\":2004:2035  require(newOwner != address(0)) */\n      tag_64\n      jumpi\n      0x00\n      dup1\n      revert\n    tag_64:\n        /* \"contracts/Ownable.sol\":2079:2087  newOwner */\n      dup1\n        /* \"contracts/Ownable.sol\":2050:2088  OwnershipTransferred(_owner, newOwner) */\n      0xffffffffffffffffffffffffffffffffffffffff\n      and\n        /* \"contracts/Ownable.sol\":2071:2077  _owner */\n      0x00\n      dup1\n      sload\n      swap1\n      0x0100\n      exp\n      swap1\n      div\n      0xffffffffffffffffffffffffffffffffffffffff\n      and\n        /* \"contracts/Ownable.sol\":2050:2088  OwnershipTransferred(_owner, newOwner) */\n      0xffffffffffffffffffffffffffffffffffffffff\n      and\n      0x8be0079c531659141344cd1fd0a4f28419497f9722a3daafe3b4186f6b6457e0\n      mload(0x40)\n      mload(0x40)\n      dup1\n      swap2\n      sub\n      swap1\n      log3\n        /* \"contracts/Ownable.sol\":2107:2115  newOwner */\n      dup1\n        /* \"contracts/Ownable.sol\":2098:2104  _owner */\n      0x00\n      dup1\n        /* \"contracts/Ownable.sol\":2098:2115  _owner = newOwner */\n      0x0100\n      exp\n      dup2\n      sload\n      dup2\n      0xffffffffffffffffffffffffffffffffffffffff\n      mul\n      not\n      and\n      swap1\n      dup4\n      0xffffffffffffffffffffffffffffffffffffffff\n      and\n      mul\n      or\n      swap1\n      sstore\n      pop\n        /* \"contracts/Ownable.sol\":1939:2122  function _transferOwnership(address newOwner) internal {... */\n      pop\n      jump\t// out\n    tag_52:\n      dup3\n      dup1\n      sload\n      dup3\n      dup3\n      sstore\n      swap1\n      0x00\n      mstore\n      keccak256(0x00, 0x20)\n      swap1\n      dup2\n      add\n      swap3\n      dup3\n      iszero\n      tag_65\n      jumpi\n      swap2\n      0x20\n      mul\n      dup3\n      add\n    tag_66:\n      dup3\n      dup2\n      gt\n      iszero\n      tag_67\n      jumpi\n      dup3\n      mload\n      dup3\n      swap1\n      dup2\n      tag_68\n      swap2\n      swap1\n      tag_69\n      jump\t// in\n    tag_68:\n      pop\n      swap2\n      0x20\n      add\n      swap2\n      swap1\n      0x01\n      add\n      swap1\n      jump(tag_66)\n    tag_67:\n    tag_65:\n      pop\n      swap1\n      pop\n      tag_70\n      swap2\n      swap1\n      tag_71\n      jump\t// in\n    tag_70:\n      pop\n      swap1\n      jump\t// out\n    tag_71:\n    tag_72:\n      dup1\n      dup3\n      gt\n      iszero\n      tag_73\n      jumpi\n      0x00\n      dup2\n      dup2\n      tag_74\n      swap2\n      swap1\n      tag_75\n      jump\t// in\n    tag_74:\n      pop\n      0x01\n      add\n      jump(tag_72)\n    tag_73:\n      pop\n      swap1\n      jump\t// out\n    tag_75:\n      pop\n      dup1\n      sload\n      tag_76\n      swap1\n      tag_77\n      jump\t// in\n    tag_76:\n      0x00\n      dup3\n      sstore\n      dup1\n      0x1f\n      lt\n      tag_79\n      jumpi\n      pop\n      jump(tag_78)\n    tag_79:\n      0x1f\n      add\n      0x20\n      swap1\n      div\n      swap1\n      0x00\n      mstore\n      keccak256(0x00, 0x20)\n      swap1\n      dup2\n      add\n      swap1\n      tag_80\n      swap2\n      swap1\n      tag_81\n      jump\t// in\n    tag_80:\n    tag_78:\n      pop\n      jump\t// out\n    tag_81:\n    tag_82:\n      dup1\n      dup3\n      gt\n      iszero\n      tag_83\n      jumpi\n      0x00\n      dup2\n      0x00\n      swap1\n      sstore\n      pop\n      0x01\n      add\n      jump(tag_82)\n    tag_83:\n      pop\n      swap1\n      jump\t// out\n        /* \"#utility.yul\":7:84   */\n    tag_84:\n        /* \"#utility.yul\":44:51   */\n      0x00\n        /* \"#utility.yul\":73:78   */\n      dup2\n        /* \"#utility.yul\":62:78   */\n      swap1\n      pop\n        /* \"#utility.yul\":7:84   */\n      swap2\n      swap1\n      pop\n      jump\t// out\n        /* \"#utility.yul\":90:208   */\n    tag_85:\n        /* \"#utility.yul\":177:201   */\n      tag_133\n        /* \"#utility.yul\":195:200   */\n      dup2\n        /* \"#utility.yul\":177:201   */\n      tag_84\n      jump\t// in\n    tag_133:\n        /* \"#utility.yul\":172:175   */\n      dup3\n        /* \"#utility.yul\":165:202   */\n      mstore\n        /* \"#utility.yul\":90:208   */\n      pop\n      pop\n      jump\t// out\n        /* \"#utility.yul\":214:436   */\n    tag_14:\n        /* \"#utility.yul\":307:311   */\n      0x00\n        /* \"#utility.yul\":345:347   */\n      0x20\n        /* \"#utility.yul\":334:343   */\n      dup3\n        /* \"#utility.yul\":330:348   */\n      add\n        /* \"#utility.yul\":322:348   */\n      swap1\n      pop\n        /* \"#utility.yul\":358:429   */\n      tag_135\n        /* \"#utility.yul\":426:427   */\n      0x00\n        /* \"#utility.yul\":415:424   */\n      dup4\n        /* \"#utility.yul\":411:428   */\n      add\n        /* \"#utility.yul\":402:408   */\n      dup5\n        /* \"#utility.yul\":358:429   */\n      tag_85\n      jump\t// in\n    tag_135:\n        /* \"#utility.yul\":214:436   */\n      swap3\n      swap2\n      pop\n      pop\n      jump\t// out\n        /* \"#utility.yul\":442:568   */\n    tag_86:\n        /* \"#utility.yul\":479:486   */\n      0x00\n        /* \"#utility.yul\":519:561   */\n      0xffffffffffffffffffffffffffffffffffffffff\n        /* \"#utility.yul\":512:517   */\n      dup3\n        /* \"#utility.yul\":508:562   */\n      and\n        /* \"#utility.yul\":497:562   */\n      swap1\n      pop\n        /* \"#utility.yul\":442:568   */\n      swap2\n      swap1\n      pop\n      jump\t// out\n        /* \"#utility.yul\":574:670   */\n    tag_87:\n        /* \"#utility.yul\":611:618   */\n      0x00\n        /* \"#utility.yul\":640:664   */\n      tag_138\n        /* \"#utility.yul\":658:663   */\n      dup3\n        /* \"#utility.yul\":640:664   */\n      tag_86\n      jump\t// in\n    tag_138:\n        /* \"#utility.yul\":629:664   */\n      swap1\n      pop\n        /* \"#utility.yul\":574:670   */\n      swap2\n      swap1\n      pop\n      jump\t// out\n        /* \"#utility.yul\":676:794   */\n    tag_88:\n        /* \"#utility.yul\":763:787   */\n      tag_140\n        /* \"#utility.yul\":781:786   */\n      dup2\n        /* \"#utility.yul\":763:787   */\n      tag_87\n      jump\t// in\n    tag_140:\n        /* \"#utility.yul\":758:761   */\n      dup3\n        /* \"#utility.yul\":751:788   */\n      mstore\n        /* \"#utility.yul\":676:794   */\n      pop\n      pop\n      jump\t// out\n        /* \"#utility.yul\":800:1022   */\n    tag_20:\n        /* \"#utility.yul\":893:897   */\n      0x00\n        /* \"#utility.yul\":931:933   */\n      0x20\n        /* \"#utility.yul\":920:929   */\n      dup3\n        /* \"#utility.yul\":916:934   */\n      add\n        /* \"#utility.yul\":908:934   */\n      swap1\n      pop\n        /* \"#utility.yul\":944:1015   */\n      tag_142\n        /* \"#utility.yul\":1012:1013   */\n      0x00\n        /* \"#utility.yul\":1001:1010   */\n      dup4\n        /* \"#utility.yul\":997:1014   */\n      add\n        /* \"#utility.yul\":988:994   */\n      dup5\n        /* \"#utility.yul\":944:1015   */\n      tag_88\n      jump\t// in\n    tag_142:\n        /* \"#utility.yul\":800:1022   */\n      swap3\n      swap2\n      pop\n      pop\n      jump\t// out\n        /* \"#utility.yul\":1028:1118   */\n    tag_89:\n        /* \"#utility.yul\":1062:1069   */\n      0x00\n        /* \"#utility.yul\":1105:1110   */\n      dup2\n        /* \"#utility.yul\":1098:1111   */\n      iszero\n        /* \"#utility.yul\":1091:1112   */\n      iszero\n        /* \"#utility.yul\":1080:1112   */\n      swap1\n      pop\n        /* \"#utility.yul\":1028:1118   */\n      swap2\n      swap1\n      pop\n      jump\t// out\n        /* \"#utility.yul\":1124:1233   */\n    tag_90:\n        /* \"#utility.yul\":1205:1226   */\n      tag_145\n        /* \"#utility.yul\":1220:1225   */\n      dup2\n        /* \"#utility.yul\":1205:1226   */\n      tag_89\n      jump\t// in\n    tag_145:\n        /* \"#utility.yul\":1200:1203   */\n      dup3\n        /* \"#utility.yul\":1193:1227   */\n      mstore\n        /* \"#utility.yul\":1124:1233   */\n      pop\n      pop\n      jump\t// out\n        /* \"#utility.yul\":1239:1449   */\n    tag_24:\n        /* \"#utility.yul\":1326:1330   */\n      0x00\n        /* \"#utility.yul\":1364:1366   */\n      0x20\n        /* \"#utility.yul\":1353:1362   */\n      dup3\n        /* \"#utility.yul\":1349:1367   */\n      add\n        /* \"#utility.yul\":1341:1367   */\n      swap1\n      pop\n        /* \"#utility.yul\":1377:1442   */\n      tag_147\n        /* \"#utility.yul\":1439:1440   */\n      0x00\n        /* \"#utility.yul\":1428:1437   */\n      dup4\n        /* \"#utility.yul\":1424:1441   */\n      add\n        /* \"#utility.yul\":1415:1421   */\n      dup5\n        /* \"#utility.yul\":1377:1442   */\n      tag_90\n      jump\t// in\n    tag_147:\n        /* \"#utility.yul\":1239:1449   */\n      swap3\n      swap2\n      pop\n      pop\n      jump\t// out\n        /* \"#utility.yul\":1455:1530   */\n    tag_91:\n        /* \"#utility.yul\":1488:1494   */\n      0x00\n        /* \"#utility.yul\":1521:1523   */\n      0x40\n        /* \"#utility.yul\":1515:1524   */\n      mload\n        /* \"#utility.yul\":1505:1524   */\n      swap1\n      pop\n        /* \"#utility.yul\":1455:1530   */\n      swap1\n      jump\t// out\n        /* \"#utility.yul\":1536:1653   */\n    tag_92:\n        /* \"#utility.yul\":1645:1646   */\n      0x00\n        /* \"#utility.yul\":1642:1643   */\n      dup1\n        /* \"#utility.yul\":1635:1647   */\n      revert\n        /* \"#utility.yul\":1659:1776   */\n    tag_93:\n        /* \"#utility.yul\":1768:1769   */\n      0x00\n        /* \"#utility.yul\":1765:1766   */\n      dup1\n        /* \"#utility.yul\":1758:1770   */\n      revert\n        /* \"#utility.yul\":1782:1899   */\n    tag_94:\n        /* \"#utility.yul\":1891:1892   */\n      0x00\n        /* \"#utility.yul\":1888:1889   */\n      dup1\n        /* \"#utility.yul\":1881:1893   */\n      revert\n        /* \"#utility.yul\":1905:2007   */\n    tag_95:\n        /* \"#utility.yul\":1946:1952   */\n      0x00\n        /* \"#utility.yul\":1997:1999   */\n      0x1f\n        /* \"#utility.yul\":1993:2000   */\n      not\n        /* \"#utility.yul\":1988:1990   */\n      0x1f\n        /* \"#utility.yul\":1981:1986   */\n      dup4\n        /* \"#utility.yul\":1977:1991   */\n      add\n        /* \"#utility.yul\":1973:2001   */\n      and\n        /* \"#utility.yul\":1963:2001   */\n      swap1\n      pop\n        /* \"#utility.yul\":1905:2007   */\n      swap2\n      swap1\n      pop\n      jump\t// out\n        /* \"#utility.yul\":2013:2193   */\n    tag_96:\n        /* \"#utility.yul\":2061:2138   */\n      0x4e487b7100000000000000000000000000000000000000000000000000000000\n        /* \"#utility.yul\":2058:2059   */\n      0x00\n        /* \"#utility.yul\":2051:2139   */\n      mstore\n        /* \"#utility.yul\":2158:2162   */\n      0x41\n        /* \"#utility.yul\":2155:2156   */\n      0x04\n        /* \"#utility.yul\":2148:2163   */\n      mstore\n        /* \"#utility.yul\":2182:2186   */\n      0x24\n        /* \"#utility.yul\":2179:2180   */\n      0x00\n        /* \"#utility.yul\":2172:2187   */\n      revert\n        /* \"#utility.yul\":2199:2480   */\n    tag_97:\n        /* \"#utility.yul\":2282:2309   */\n      tag_155\n        /* \"#utility.yul\":2304:2308   */\n      dup3\n        /* \"#utility.yul\":2282:2309   */\n      tag_95\n      jump\t// in\n    tag_155:\n        /* \"#utility.yul\":2274:2280   */\n      dup2\n        /* \"#utility.yul\":2270:2310   */\n      add\n        /* \"#utility.yul\":2412:2418   */\n      dup2\n        /* \"#utility.yul\":2400:2410   */\n      dup2\n        /* \"#utility.yul\":2397:2419   */\n      lt\n        /* \"#utility.yul\":2376:2394   */\n      0xffffffffffffffff\n        /* \"#utility.yul\":2364:2374   */\n      dup3\n        /* \"#utility.yul\":2361:2395   */\n      gt\n        /* \"#utility.yul\":2358:2420   */\n      or\n        /* \"#utility.yul\":2355:2443   */\n      iszero\n      tag_156\n      jumpi\n        /* \"#utility.yul\":2423:2441   */\n      tag_157\n      tag_96\n      jump\t// in\n    tag_157:\n        /* \"#utility.yul\":2355:2443   */\n    tag_156:\n        /* \"#utility.yul\":2463:2473   */\n      dup1\n        /* \"#utility.yul\":2459:2461   */\n      0x40\n        /* \"#utility.yul\":2452:2474   */\n      mstore\n        /* \"#utility.yul\":2242:2480   */\n      pop\n        /* \"#utility.yul\":2199:2480   */\n      pop\n      pop\n      jump\t// out\n        /* \"#utility.yul\":2486:2615   */\n    tag_98:\n        /* \"#utility.yul\":2520:2526   */\n      0x00\n        /* \"#utility.yul\":2547:2567   */\n      tag_159\n      tag_91\n      jump\t// in\n    tag_159:\n        /* \"#utility.yul\":2537:2567   */\n      swap1\n      pop\n        /* \"#utility.yul\":2576:2609   */\n      tag_160\n        /* \"#utility.yul\":2604:2608   */\n      dup3\n        /* \"#utility.yul\":2596:2602   */\n      dup3\n        /* \"#utility.yul\":2576:2609   */\n      tag_97\n      jump\t// in\n    tag_160:\n        /* \"#utility.yul\":2486:2615   */\n      swap2\n      swap1\n      pop\n      jump\t// out\n        /* \"#utility.yul\":2621:2880   */\n    tag_99:\n        /* \"#utility.yul\":2706:2710   */\n      0x00\n        /* \"#utility.yul\":2796:2814   */\n      0xffffffffffffffff\n        /* \"#utility.yul\":2788:2794   */\n      dup3\n        /* \"#utility.yul\":2785:2815   */\n      gt\n        /* \"#utility.yul\":2782:2838   */\n      iszero\n      tag_162\n      jumpi\n        /* \"#utility.yul\":2818:2836   */\n      tag_163\n      tag_96\n      jump\t// in\n    tag_163:\n        /* \"#utility.yul\":2782:2838   */\n    tag_162:\n        /* \"#utility.yul\":2868:2872   */\n      0x20\n        /* \"#utility.yul\":2860:2866   */\n      dup3\n        /* \"#utility.yul\":2856:2873   */\n      mul\n        /* \"#utility.yul\":2848:2873   */\n      swap1\n      pop\n        /* \"#utility.yul\":2621:2880   */\n      swap2\n      swap1\n      pop\n      jump\t// out\n        /* \"#utility.yul\":2886:3003   */\n    tag_100:\n        /* \"#utility.yul\":2995:2996   */\n      0x00\n        /* \"#utility.yul\":2992:2993   */\n      dup1\n        /* \"#utility.yul\":2985:2997   */\n      revert\n        /* \"#utility.yul\":3009:3126   */\n    tag_101:\n        /* \"#utility.yul\":3118:3119   */\n      0x00\n        /* \"#utility.yul\":3115:3116   */\n      dup1\n        /* \"#utility.yul\":3108:3120   */\n      revert\n        /* \"#utility.yul\":3132:3440   */\n    tag_102:\n        /* \"#utility.yul\":3194:3198   */\n      0x00\n        /* \"#utility.yul\":3284:3302   */\n      0xffffffffffffffff\n        /* \"#utility.yul\":3276:3282   */\n      dup3\n        /* \"#utility.yul\":3273:3303   */\n      gt\n        /* \"#utility.yul\":3270:3326   */\n      iszero\n      tag_167\n      jumpi\n        /* \"#utility.yul\":3306:3324   */\n      tag_168\n      tag_96\n      jump\t// in\n    tag_168:\n        /* \"#utility.yul\":3270:3326   */\n    tag_167:\n        /* \"#utility.yul\":3344:3373   */\n      tag_169\n        /* \"#utility.yul\":3366:3372   */\n      dup3\n        /* \"#utility.yul\":3344:3373   */\n      tag_95\n      jump\t// in\n    tag_169:\n        /* \"#utility.yul\":3336:3373   */\n      swap1\n      pop\n        /* \"#utility.yul\":3428:3432   */\n      0x20\n        /* \"#utility.yul\":3422:3426   */\n      dup2\n        /* \"#utility.yul\":3418:3433   */\n      add\n        /* \"#utility.yul\":3410:3433   */\n      swap1\n      pop\n        /* \"#utility.yul\":3132:3440   */\n      swap2\n      swap1\n      pop\n      jump\t// out\n        /* \"#utility.yul\":3446:3592   */\n    tag_103:\n        /* \"#utility.yul\":3543:3549   */\n      dup3\n        /* \"#utility.yul\":3538:3541   */\n      dup2\n        /* \"#utility.yul\":3533:3536   */\n      dup4\n        /* \"#utility.yul\":3520:3550   */\n      calldatacopy\n        /* \"#utility.yul\":3584:3585   */\n      0x00\n        /* \"#utility.yul\":3575:3581   */\n      dup4\n        /* \"#utility.yul\":3570:3573   */\n      dup4\n        /* \"#utility.yul\":3566:3582   */\n      add\n        /* \"#utility.yul\":3559:3586   */\n      mstore\n        /* \"#utility.yul\":3446:3592   */\n      pop\n      pop\n      pop\n      jump\t// out\n        /* \"#utility.yul\":3598:4023   */\n    tag_104:\n        /* \"#utility.yul\":3676:3681   */\n      0x00\n        /* \"#utility.yul\":3701:3767   */\n      tag_172\n        /* \"#utility.yul\":3717:3766   */\n      tag_173\n        /* \"#utility.yul\":3759:3765   */\n      dup5\n        /* \"#utility.yul\":3717:3766   */\n      tag_102\n      jump\t// in\n    tag_173:\n        /* \"#utility.yul\":3701:3767   */\n      tag_98\n      jump\t// in\n    tag_172:\n        /* \"#utility.yul\":3692:3767   */\n      swap1\n      pop\n        /* \"#utility.yul\":3790:3796   */\n      dup3\n        /* \"#utility.yul\":3783:3788   */\n      dup2\n        /* \"#utility.yul\":3776:3797   */\n      mstore\n        /* \"#utility.yul\":3828:3832   */\n      0x20\n        /* \"#utility.yul\":3821:3826   */\n      dup2\n        /* \"#utility.yul\":3817:3833   */\n      add\n        /* \"#utility.yul\":3866:3869   */\n      dup5\n        /* \"#utility.yul\":3857:3863   */\n      dup5\n        /* \"#utility.yul\":3852:3855   */\n      dup5\n        /* \"#utility.yul\":3848:3864   */\n      add\n        /* \"#utility.yul\":3845:3870   */\n      gt\n        /* \"#utility.yul\":3842:3954   */\n      iszero\n      tag_174\n      jumpi\n        /* \"#utility.yul\":3873:3952   */\n      tag_175\n      tag_101\n      jump\t// in\n    tag_175:\n        /* \"#utility.yul\":3842:3954   */\n    tag_174:\n        /* \"#utility.yul\":3963:4017   */\n      tag_176\n        /* \"#utility.yul\":4010:4016   */\n      dup5\n        /* \"#utility.yul\":4005:4008   */\n      dup3\n        /* \"#utility.yul\":4000:4003   */\n      dup6\n        /* \"#utility.yul\":3963:4017   */\n      tag_103\n      jump\t// in\n    tag_176:\n        /* \"#utility.yul\":3682:4023   */\n      pop\n        /* \"#utility.yul\":3598:4023   */\n      swap4\n      swap3\n      pop\n      pop\n      pop\n      jump\t// out\n        /* \"#utility.yul\":4043:4383   */\n    tag_105:\n        /* \"#utility.yul\":4099:4104   */\n      0x00\n        /* \"#utility.yul\":4148:4151   */\n      dup3\n        /* \"#utility.yul\":4141:4145   */\n      0x1f\n        /* \"#utility.yul\":4133:4139   */\n      dup4\n        /* \"#utility.yul\":4129:4146   */\n      add\n        /* \"#utility.yul\":4125:4152   */\n      slt\n        /* \"#utility.yul\":4115:4237   */\n      tag_178\n      jumpi\n        /* \"#utility.yul\":4156:4235   */\n      tag_179\n      tag_94\n      jump\t// in\n    tag_179:\n        /* \"#utility.yul\":4115:4237   */\n    tag_178:\n        /* \"#utility.yul\":4273:4279   */\n      dup2\n        /* \"#utility.yul\":4260:4280   */\n      calldataload\n        /* \"#utility.yul\":4298:4377   */\n      tag_180\n        /* \"#utility.yul\":4373:4376   */\n      dup5\n        /* \"#utility.yul\":4365:4371   */\n      dup3\n        /* \"#utility.yul\":4358:4362   */\n      0x20\n        /* \"#utility.yul\":4350:4356   */\n      dup7\n        /* \"#utility.yul\":4346:4363   */\n      add\n        /* \"#utility.yul\":4298:4377   */\n      tag_104\n      jump\t// in\n    tag_180:\n        /* \"#utility.yul\":4289:4377   */\n      swap2\n      pop\n        /* \"#utility.yul\":4105:4383   */\n      pop\n        /* \"#utility.yul\":4043:4383   */\n      swap3\n      swap2\n      pop\n      pop\n      jump\t// out\n        /* \"#utility.yul\":4406:5284   */\n    tag_106:\n        /* \"#utility.yul\":4510:4515   */\n      0x00\n        /* \"#utility.yul\":4535:4624   */\n      tag_182\n        /* \"#utility.yul\":4551:4623   */\n      tag_183\n        /* \"#utility.yul\":4616:4622   */\n      dup5\n        /* \"#utility.yul\":4551:4623   */\n      tag_99\n      jump\t// in\n    tag_183:\n        /* \"#utility.yul\":4535:4624   */\n      tag_98\n      jump\t// in\n    tag_182:\n        /* \"#utility.yul\":4526:4624   */\n      swap1\n      pop\n        /* \"#utility.yul\":4644:4649   */\n      dup1\n        /* \"#utility.yul\":4697:4701   */\n      0x20\n        /* \"#utility.yul\":4689:4695   */\n      dup5\n        /* \"#utility.yul\":4685:4702   */\n      mul\n        /* \"#utility.yul\":4677:4683   */\n      dup4\n        /* \"#utility.yul\":4673:4703   */\n      add\n        /* \"#utility.yul\":4726:4729   */\n      dup6\n        /* \"#utility.yul\":4718:4724   */\n      dup2\n        /* \"#utility.yul\":4715:4730   */\n      gt\n        /* \"#utility.yul\":4712:4834   */\n      iszero\n      tag_184\n      jumpi\n        /* \"#utility.yul\":4745:4824   */\n      tag_185\n      tag_100\n      jump\t// in\n    tag_185:\n        /* \"#utility.yul\":4712:4834   */\n    tag_184:\n        /* \"#utility.yul\":4860:4866   */\n      dup4\n        /* \"#utility.yul\":4843:5278   */\n    tag_186:\n        /* \"#utility.yul\":4877:4883   */\n      dup2\n        /* \"#utility.yul\":4872:4875   */\n      dup2\n        /* \"#utility.yul\":4869:4884   */\n      lt\n        /* \"#utility.yul\":4843:5278   */\n      iszero\n      tag_188\n      jumpi\n        /* \"#utility.yul\":4966:4969   */\n      dup1\n        /* \"#utility.yul\":4953:4970   */\n      calldataload\n        /* \"#utility.yul\":5002:5020   */\n      0xffffffffffffffff\n        /* \"#utility.yul\":4989:5000   */\n      dup2\n        /* \"#utility.yul\":4986:5021   */\n      gt\n        /* \"#utility.yul\":4983:5105   */\n      iszero\n      tag_189\n      jumpi\n        /* \"#utility.yul\":5024:5103   */\n      tag_190\n      tag_94\n      jump\t// in\n    tag_190:\n        /* \"#utility.yul\":4983:5105   */\n    tag_189:\n        /* \"#utility.yul\":5148:5159   */\n      dup1\n        /* \"#utility.yul\":5140:5146   */\n      dup7\n        /* \"#utility.yul\":5136:5160   */\n      add\n        /* \"#utility.yul\":5186:5233   */\n      tag_191\n        /* \"#utility.yul\":5229:5232   */\n      dup10\n        /* \"#utility.yul\":5217:5227   */\n      dup3\n        /* \"#utility.yul\":5186:5233   */\n      tag_105\n      jump\t// in\n    tag_191:\n        /* \"#utility.yul\":5181:5184   */\n      dup6\n        /* \"#utility.yul\":5174:5234   */\n      mstore\n        /* \"#utility.yul\":5263:5267   */\n      0x20\n        /* \"#utility.yul\":5258:5261   */\n      dup6\n        /* \"#utility.yul\":5254:5268   */\n      add\n        /* \"#utility.yul\":5247:5268   */\n      swap5\n      pop\n        /* \"#utility.yul\":4919:5278   */\n      pop\n      pop\n        /* \"#utility.yul\":4903:4907   */\n      0x20\n        /* \"#utility.yul\":4898:4901   */\n      dup2\n        /* \"#utility.yul\":4894:4908   */\n      add\n        /* \"#utility.yul\":4887:4908   */\n      swap1\n      pop\n        /* \"#utility.yul\":4843:5278   */\n      jump(tag_186)\n    tag_188:\n        /* \"#utility.yul\":4847:4868   */\n      pop\n        /* \"#utility.yul\":4516:5284   */\n      pop\n      pop\n        /* \"#utility.yul\":4406:5284   */\n      swap4\n      swap3\n      pop\n      pop\n      pop\n      jump\t// out\n        /* \"#utility.yul\":5307:5666   */\n    tag_107:\n        /* \"#utility.yul\":5386:5391   */\n      0x00\n        /* \"#utility.yul\":5435:5438   */\n      dup3\n        /* \"#utility.yul\":5428:5432   */\n      0x1f\n        /* \"#utility.yul\":5420:5426   */\n      dup4\n        /* \"#utility.yul\":5416:5433   */\n      add\n        /* \"#utility.yul\":5412:5439   */\n      slt\n        /* \"#utility.yul\":5402:5524   */\n      tag_193\n      jumpi\n        /* \"#utility.yul\":5443:5522   */\n      tag_194\n      tag_94\n      jump\t// in\n    tag_194:\n        /* \"#utility.yul\":5402:5524   */\n    tag_193:\n        /* \"#utility.yul\":5547:5551   */\n      0x05\n        /* \"#utility.yul\":5569:5660   */\n      tag_195\n        /* \"#utility.yul\":5656:5659   */\n      dup5\n        /* \"#utility.yul\":5648:5654   */\n      dup3\n        /* \"#utility.yul\":5640:5646   */\n      dup6\n        /* \"#utility.yul\":5569:5660   */\n      tag_106\n      jump\t// in\n    tag_195:\n        /* \"#utility.yul\":5560:5660   */\n      swap2\n      pop\n        /* \"#utility.yul\":5392:5666   */\n      pop\n        /* \"#utility.yul\":5307:5666   */\n      swap3\n      swap2\n      pop\n      pop\n      jump\t// out\n        /* \"#utility.yul\":5672:6227   */\n    tag_27:\n        /* \"#utility.yul\":5764:5770   */\n      0x00\n        /* \"#utility.yul\":5813:5815   */\n      0x20\n        /* \"#utility.yul\":5801:5810   */\n      dup3\n        /* \"#utility.yul\":5792:5799   */\n      dup5\n        /* \"#utility.yul\":5788:5811   */\n      sub\n        /* \"#utility.yul\":5784:5816   */\n      slt\n        /* \"#utility.yul\":5781:5900   */\n      iszero\n      tag_197\n      jumpi\n        /* \"#utility.yul\":5819:5898   */\n      tag_198\n      tag_92\n      jump\t// in\n    tag_198:\n        /* \"#utility.yul\":5781:5900   */\n    tag_197:\n        /* \"#utility.yul\":5967:5968   */\n      0x00\n        /* \"#utility.yul\":5956:5965   */\n      dup3\n        /* \"#utility.yul\":5952:5969   */\n      add\n        /* \"#utility.yul\":5939:5970   */\n      calldataload\n        /* \"#utility.yul\":5997:6015   */\n      0xffffffffffffffff\n        /* \"#utility.yul\":5989:5995   */\n      dup2\n        /* \"#utility.yul\":5986:6016   */\n      gt\n        /* \"#utility.yul\":5983:6100   */\n      iszero\n      tag_199\n      jumpi\n        /* \"#utility.yul\":6019:6098   */\n      tag_200\n      tag_93\n      jump\t// in\n    tag_200:\n        /* \"#utility.yul\":5983:6100   */\n    tag_199:\n        /* \"#utility.yul\":6124:6210   */\n      tag_201\n        /* \"#utility.yul\":6202:6209   */\n      dup5\n        /* \"#utility.yul\":6193:6199   */\n      dup3\n        /* \"#utility.yul\":6182:6191   */\n      dup6\n        /* \"#utility.yul\":6178:6200   */\n      add\n        /* \"#utility.yul\":6124:6210   */\n      tag_107\n      jump\t// in\n    tag_201:\n        /* \"#utility.yul\":6114:6210   */\n      swap2\n      pop\n        /* \"#utility.yul\":5910:6220   */\n      pop\n        /* \"#utility.yul\":5672:6227   */\n      swap3\n      swap2\n      pop\n      pop\n      jump\t// out\n        /* \"#utility.yul\":6233:6355   */\n    tag_108:\n        /* \"#utility.yul\":6306:6330   */\n      tag_203\n        /* \"#utility.yul\":6324:6329   */\n      dup2\n        /* \"#utility.yul\":6306:6330   */\n      tag_84\n      jump\t// in\n    tag_203:\n        /* \"#utility.yul\":6299:6304   */\n      dup2\n        /* \"#utility.yul\":6296:6331   */\n      eq\n        /* \"#utility.yul\":6286:6349   */\n      tag_204\n      jumpi\n        /* \"#utility.yul\":6345:6346   */\n      0x00\n        /* \"#utility.yul\":6342:6343   */\n      dup1\n        /* \"#utility.yul\":6335:6347   */\n      revert\n        /* \"#utility.yul\":6286:6349   */\n    tag_204:\n        /* \"#utility.yul\":6233:6355   */\n      pop\n      jump\t// out\n        /* \"#utility.yul\":6361:6500   */\n    tag_109:\n        /* \"#utility.yul\":6407:6412   */\n      0x00\n        /* \"#utility.yul\":6445:6451   */\n      dup2\n        /* \"#utility.yul\":6432:6452   */\n      calldataload\n        /* \"#utility.yul\":6423:6452   */\n      swap1\n      pop\n        /* \"#utility.yul\":6461:6494   */\n      tag_206\n        /* \"#utility.yul\":6488:6493   */\n      dup2\n        /* \"#utility.yul\":6461:6494   */\n      tag_108\n      jump\t// in\n    tag_206:\n        /* \"#utility.yul\":6361:6500   */\n      swap3\n      swap2\n      pop\n      pop\n      jump\t// out\n        /* \"#utility.yul\":6506:6835   */\n    tag_31:\n        /* \"#utility.yul\":6565:6571   */\n      0x00\n        /* \"#utility.yul\":6614:6616   */\n      0x20\n        /* \"#utility.yul\":6602:6611   */\n      dup3\n        /* \"#utility.yul\":6593:6600   */\n      dup5\n        /* \"#utility.yul\":6589:6612   */\n      sub\n        /* \"#utility.yul\":6585:6617   */\n      slt\n        /* \"#utility.yul\":6582:6701   */\n      iszero\n      tag_208\n      jumpi\n        /* \"#utility.yul\":6620:6699   */\n      tag_209\n      tag_92\n      jump\t// in\n    tag_209:\n        /* \"#utility.yul\":6582:6701   */\n    tag_208:\n        /* \"#utility.yul\":6740:6741   */\n      0x00\n        /* \"#utility.yul\":6765:6818   */\n      tag_210\n        /* \"#utility.yul\":6810:6817   */\n      dup5\n        /* \"#utility.yul\":6801:6807   */\n      dup3\n        /* \"#utility.yul\":6790:6799   */\n      dup6\n        /* \"#utility.yul\":6786:6808   */\n      add\n        /* \"#utility.yul\":6765:6818   */\n      tag_109\n      jump\t// in\n    tag_210:\n        /* \"#utility.yul\":6755:6818   */\n      swap2\n      pop\n        /* \"#utility.yul\":6711:6828   */\n      pop\n        /* \"#utility.yul\":6506:6835   */\n      swap3\n      swap2\n      pop\n      pop\n      jump\t// out\n        /* \"#utility.yul\":6841:6963   */\n    tag_110:\n        /* \"#utility.yul\":6914:6938   */\n      tag_212\n        /* \"#utility.yul\":6932:6937   */\n      dup2\n        /* \"#utility.yul\":6914:6938   */\n      tag_87\n      jump\t// in\n    tag_212:\n        /* \"#utility.yul\":6907:6912   */\n      dup2\n        /* \"#utility.yul\":6904:6939   */\n      eq\n        /* \"#utility.yul\":6894:6957   */\n      tag_213\n      jumpi\n        /* \"#utility.yul\":6953:6954   */\n      0x00\n        /* \"#utility.yul\":6950:6951   */\n      dup1\n        /* \"#utility.yul\":6943:6955   */\n      revert\n        /* \"#utility.yul\":6894:6957   */\n    tag_213:\n        /* \"#utility.yul\":6841:6963   */\n      pop\n      jump\t// out\n        /* \"#utility.yul\":6969:7108   */\n    tag_111:\n        /* \"#utility.yul\":7015:7020   */\n      0x00\n        /* \"#utility.yul\":7053:7059   */\n      dup2\n        /* \"#utility.yul\":7040:7060   */\n      calldataload\n        /* \"#utility.yul\":7031:7060   */\n      swap1\n      pop\n        /* \"#utility.yul\":7069:7102   */\n      tag_215\n        /* \"#utility.yul\":7096:7101   */\n      dup2\n        /* \"#utility.yul\":7069:7102   */\n      tag_110\n      jump\t// in\n    tag_215:\n        /* \"#utility.yul\":6969:7108   */\n      swap3\n      swap2\n      pop\n      pop\n      jump\t// out\n        /* \"#utility.yul\":7114:7443   */\n    tag_36:\n        /* \"#utility.yul\":7173:7179   */\n      0x00\n        /* \"#utility.yul\":7222:7224   */\n      0x20\n        /* \"#utility.yul\":7210:7219   */\n      dup3\n        /* \"#utility.yul\":7201:7208   */\n      dup5\n        /* \"#utility.yul\":7197:7220   */\n      sub\n        /* \"#utility.yul\":7193:7225   */\n      slt\n        /* \"#utility.yul\":7190:7309   */\n      iszero\n      tag_217\n      jumpi\n        /* \"#utility.yul\":7228:7307   */\n      tag_218\n      tag_92\n      jump\t// in\n    tag_218:\n        /* \"#utility.yul\":7190:7309   */\n    tag_217:\n        /* \"#utility.yul\":7348:7349   */\n      0x00\n        /* \"#utility.yul\":7373:7426   */\n      tag_219\n        /* \"#utility.yul\":7418:7425   */\n      dup5\n        /* \"#utility.yul\":7409:7415   */\n      dup3\n        /* \"#utility.yul\":7398:7407   */\n      dup6\n        /* \"#utility.yul\":7394:7416   */\n      add\n        /* \"#utility.yul\":7373:7426   */\n      tag_111\n      jump\t// in\n    tag_219:\n        /* \"#utility.yul\":7363:7426   */\n      swap2\n      pop\n        /* \"#utility.yul\":7319:7436   */\n      pop\n        /* \"#utility.yul\":7114:7443   */\n      swap3\n      swap2\n      pop\n      pop\n      jump\t// out\n        /* \"#utility.yul\":7449:7629   */\n    tag_112:\n        /* \"#utility.yul\":7497:7574   */\n      0x4e487b7100000000000000000000000000000000000000000000000000000000\n        /* \"#utility.yul\":7494:7495   */\n      0x00\n        /* \"#utility.yul\":7487:7575   */\n      mstore\n        /* \"#utility.yul\":7594:7598   */\n      0x11\n        /* \"#utility.yul\":7591:7592   */\n      0x04\n        /* \"#utility.yul\":7584:7599   */\n      mstore\n        /* \"#utility.yul\":7618:7622   */\n      0x24\n        /* \"#utility.yul\":7615:7616   */\n      0x00\n        /* \"#utility.yul\":7608:7623   */\n      revert\n        /* \"#utility.yul\":7635:7829   */\n    tag_50:\n        /* \"#utility.yul\":7675:7679   */\n      0x00\n        /* \"#utility.yul\":7695:7715   */\n      tag_222\n        /* \"#utility.yul\":7713:7714   */\n      dup3\n        /* \"#utility.yul\":7695:7715   */\n      tag_84\n      jump\t// in\n    tag_222:\n        /* \"#utility.yul\":7690:7715   */\n      swap2\n      pop\n        /* \"#utility.yul\":7729:7749   */\n      tag_223\n        /* \"#utility.yul\":7747:7748   */\n      dup4\n        /* \"#utility.yul\":7729:7749   */\n      tag_84\n      jump\t// in\n    tag_223:\n        /* \"#utility.yul\":7724:7749   */\n      swap3\n      pop\n        /* \"#utility.yul\":7773:7774   */\n      dup3\n        /* \"#utility.yul\":7770:7771   */\n      dup3\n        /* \"#utility.yul\":7766:7775   */\n      sub\n        /* \"#utility.yul\":7758:7775   */\n      swap1\n      pop\n        /* \"#utility.yul\":7797:7798   */\n      dup2\n        /* \"#utility.yul\":7791:7795   */\n      dup2\n        /* \"#utility.yul\":7788:7799   */\n      gt\n        /* \"#utility.yul\":7785:7822   */\n      iszero\n      tag_224\n      jumpi\n        /* \"#utility.yul\":7802:7820   */\n      tag_225\n      tag_112\n      jump\t// in\n    tag_225:\n        /* \"#utility.yul\":7785:7822   */\n    tag_224:\n        /* \"#utility.yul\":7635:7829   */\n      swap3\n      swap2\n      pop\n      pop\n      jump\t// out\n        /* \"#utility.yul\":7835:7934   */\n    tag_113:\n        /* \"#utility.yul\":7887:7893   */\n      0x00\n        /* \"#utility.yul\":7921:7926   */\n      dup2\n        /* \"#utility.yul\":7915:7927   */\n      mload\n        /* \"#utility.yul\":7905:7927   */\n      swap1\n      pop\n        /* \"#utility.yul\":7835:7934   */\n      swap2\n      swap1\n      pop\n      jump\t// out\n        /* \"#utility.yul\":7940:8120   */\n    tag_114:\n        /* \"#utility.yul\":7988:8065   */\n      0x4e487b7100000000000000000000000000000000000000000000000000000000\n        /* \"#utility.yul\":7985:7986   */\n      0x00\n        /* \"#utility.yul\":7978:8066   */\n      mstore\n        /* \"#utility.yul\":8085:8089   */\n      0x22\n        /* \"#utility.yul\":8082:8083   */\n      0x04\n        /* \"#utility.yul\":8075:8090   */\n      mstore\n        /* \"#utility.yul\":8109:8113   */\n      0x24\n        /* \"#utility.yul\":8106:8107   */\n      0x00\n        /* \"#utility.yul\":8099:8114   */\n      revert\n        /* \"#utility.yul\":8126:8446   */\n    tag_77:\n        /* \"#utility.yul\":8170:8176   */\n      0x00\n        /* \"#utility.yul\":8207:8208   */\n      0x02\n        /* \"#utility.yul\":8201:8205   */\n      dup3\n        /* \"#utility.yul\":8197:8209   */\n      div\n        /* \"#utility.yul\":8187:8209   */\n      swap1\n      pop\n        /* \"#utility.yul\":8254:8255   */\n      0x01\n        /* \"#utility.yul\":8248:8252   */\n      dup3\n        /* \"#utility.yul\":8244:8256   */\n      and\n        /* \"#utility.yul\":8275:8293   */\n      dup1\n        /* \"#utility.yul\":8265:8346   */\n      tag_229\n      jumpi\n        /* \"#utility.yul\":8331:8335   */\n      0x7f\n        /* \"#utility.yul\":8323:8329   */\n      dup3\n        /* \"#utility.yul\":8319:8336   */\n      and\n        /* \"#utility.yul\":8309:8336   */\n      swap2\n      pop\n        /* \"#utility.yul\":8265:8346   */\n    tag_229:\n        /* \"#utility.yul\":8393:8395   */\n      0x20\n        /* \"#utility.yul\":8385:8391   */\n      dup3\n        /* \"#utility.yul\":8382:8396   */\n      lt\n        /* \"#utility.yul\":8362:8380   */\n      dup2\n        /* \"#utility.yul\":8359:8397   */\n      sub\n        /* \"#utility.yul\":8356:8440   */\n      tag_230\n      jumpi\n        /* \"#utility.yul\":8412:8430   */\n      tag_231\n      tag_114\n      jump\t// in\n    tag_231:\n        /* \"#utility.yul\":8356:8440   */\n    tag_230:\n        /* \"#utility.yul\":8177:8446   */\n      pop\n        /* \"#utility.yul\":8126:8446   */\n      swap2\n      swap1\n      pop\n      jump\t// out\n        /* \"#utility.yul\":8452:8593   */\n    tag_115:\n        /* \"#utility.yul\":8501:8505   */\n      0x00\n        /* \"#utility.yul\":8524:8527   */\n      dup2\n        /* \"#utility.yul\":8516:8527   */\n      swap1\n      pop\n        /* \"#utility.yul\":8547:8550   */\n      dup2\n        /* \"#utility.yul\":8544:8545   */\n      0x00\n        /* \"#utility.yul\":8537:8551   */\n      mstore\n        /* \"#utility.yul\":8581:8585   */\n      0x20\n        /* \"#utility.yul\":8578:8579   */\n      0x00\n        /* \"#utility.yul\":8568:8586   */\n      keccak256\n        /* \"#utility.yul\":8560:8586   */\n      swap1\n      pop\n        /* \"#utility.yul\":8452:8593   */\n      swap2\n      swap1\n      pop\n      jump\t// out\n        /* \"#utility.yul\":8599:8692   */\n    tag_116:\n        /* \"#utility.yul\":8636:8642   */\n      0x00\n        /* \"#utility.yul\":8683:8685   */\n      0x20\n        /* \"#utility.yul\":8678:8680   */\n      0x1f\n        /* \"#utility.yul\":8671:8676   */\n      dup4\n        /* \"#utility.yul\":8667:8681   */\n      add\n        /* \"#utility.yul\":8663:8686   */\n      div\n        /* \"#utility.yul\":8653:8686   */\n      swap1\n      pop\n        /* \"#utility.yul\":8599:8692   */\n      swap2\n      swap1\n      pop\n      jump\t// out\n        /* \"#utility.yul\":8698:8805   */\n    tag_117:\n        /* \"#utility.yul\":8742:8750   */\n      0x00\n        /* \"#utility.yul\":8792:8797   */\n      dup3\n        /* \"#utility.yul\":8786:8790   */\n      dup3\n        /* \"#utility.yul\":8782:8798   */\n      shl\n        /* \"#utility.yul\":8761:8798   */\n      swap1\n      pop\n        /* \"#utility.yul\":8698:8805   */\n      swap3\n      swap2\n      pop\n      pop\n      jump\t// out\n        /* \"#utility.yul\":8811:9204   */\n    tag_118:\n        /* \"#utility.yul\":8880:8886   */\n      0x00\n        /* \"#utility.yul\":8930:8931   */\n      0x08\n        /* \"#utility.yul\":8918:8928   */\n      dup4\n        /* \"#utility.yul\":8914:8932   */\n      mul\n        /* \"#utility.yul\":8953:9050   */\n      tag_236\n        /* \"#utility.yul\":8983:9049   */\n      0xffffffffffffffffffffffffffffffffffffffffffffffffffffffffffffffff\n        /* \"#utility.yul\":8972:8981   */\n      dup3\n        /* \"#utility.yul\":8953:9050   */\n      tag_117\n      jump\t// in\n    tag_236:\n        /* \"#utility.yul\":9071:9110   */\n      tag_237\n        /* \"#utility.yul\":9101:9109   */\n      dup7\n        /* \"#utility.yul\":9090:9099   */\n      dup4\n        /* \"#utility.yul\":9071:9110   */\n      tag_117\n      jump\t// in\n    tag_237:\n        /* \"#utility.yul\":9059:9110   */\n      swap6\n      pop\n        /* \"#utility.yul\":9143:9147   */\n      dup1\n        /* \"#utility.yul\":9139:9148   */\n      not\n        /* \"#utility.yul\":9132:9137   */\n      dup5\n        /* \"#utility.yul\":9128:9149   */\n      and\n        /* \"#utility.yul\":9119:9149   */\n      swap4\n      pop\n        /* \"#utility.yul\":9192:9196   */\n      dup1\n        /* \"#utility.yul\":9182:9190   */\n      dup7\n        /* \"#utility.yul\":9178:9197   */\n      and\n        /* \"#utility.yul\":9171:9176   */\n      dup5\n        /* \"#utility.yul\":9168:9198   */\n      or\n        /* \"#utility.yul\":9158:9198   */\n      swap3\n      pop\n        /* \"#utility.yul\":8887:9204   */\n      pop\n      pop\n        /* \"#utility.yul\":8811:9204   */\n      swap4\n      swap3\n      pop\n      pop\n      pop\n      jump\t// out\n        /* \"#utility.yul\":9210:9270   */\n    tag_119:\n        /* \"#utility.yul\":9238:9241   */\n      0x00\n        /* \"#utility.yul\":9259:9264   */\n      dup2\n        /* \"#utility.yul\":9252:9264   */\n      swap1\n      pop\n        /* \"#utility.yul\":9210:9270   */\n      swap2\n      swap1\n      pop\n      jump\t// out\n        /* \"#utility.yul\":9276:9418   */\n    tag_120:\n        /* \"#utility.yul\":9326:9335   */\n      0x00\n        /* \"#utility.yul\":9359:9412   */\n      tag_240\n        /* \"#utility.yul\":9377:9411   */\n      tag_241\n        /* \"#utility.yul\":9386:9410   */\n      tag_242\n        /* \"#utility.yul\":9404:9409   */\n      dup5\n        /* \"#utility.yul\":9386:9410   */\n      tag_84\n      jump\t// in\n    tag_242:\n        /* \"#utility.yul\":9377:9411   */\n      tag_119\n      jump\t// in\n    tag_241:\n        /* \"#utility.yul\":9359:9412   */\n      tag_84\n      jump\t// in\n    tag_240:\n        /* \"#utility.yul\":9346:9412   */\n      swap1\n      pop\n        /* \"#utility.yul\":9276:9418   */\n      swap2\n      swap1\n      pop\n      jump\t// out\n        /* \"#utility.yul\":9424:9499   */\n    tag_121:\n        /* \"#utility.yul\":9467:9470   */\n      0x00\n        /* \"#utility.yul\":9488:9493   */\n      dup2\n        /* \"#utility.yul\":9481:9493   */\n      swap1\n      pop\n        /* \"#utility.yul\":9424:9499   */\n      swap2\n      swap1\n      pop\n      jump\t// out\n        /* \"#utility.yul\":9505:9774   */\n    tag_122:\n        /* \"#utility.yul\":9615:9654   */\n      tag_245\n        /* \"#utility.yul\":9646:9653   */\n      dup4\n        /* \"#utility.yul\":9615:9654   */\n      tag_120\n      jump\t// in\n    tag_245:\n        /* \"#utility.yul\":9676:9767   */\n      tag_246\n        /* \"#utility.yul\":9725:9766   */\n      tag_247\n        /* \"#utility.yul\":9749:9765   */\n      dup3\n        /* \"#utility.yul\":9725:9766   */\n      tag_121\n      jump\t// in\n    tag_247:\n        /* \"#utility.yul\":9717:9723   */\n      dup5\n        /* \"#utility.yul\":9710:9714   */\n      dup5\n        /* \"#utility.yul\":9704:9715   */\n      sload\n        /* \"#utility.yul\":9676:9767   */\n      tag_118\n      jump\t// in\n    tag_246:\n        /* \"#utility.yul\":9670:9674   */\n      dup3\n        /* \"#utility.yul\":9663:9768   */\n      sstore\n        /* \"#utility.yul\":9581:9774   */\n      pop\n        /* \"#utility.yul\":9505:9774   */\n      pop\n      pop\n      pop\n      jump\t// out\n        /* \"#utility.yul\":9780:9853   */\n    tag_123:\n        /* \"#utility.yul\":9825:9828   */\n      0x00\n        /* \"#utility.yul\":9780:9853   */\n      swap1\n      jump\t// out\n        /* \"#utility.yul\":9859:10048   */\n    tag_124:\n        /* \"#utility.yul\":9936:9968   */\n      tag_250\n      tag_123\n      jump\t// in\n    tag_250:\n        /* \"#utility.yul\":9977:10042   */\n      tag_251\n        /* \"#utility.yul\":10035:10041   */\n      dup2\n        /* \"#utility.yul\":10027:10033   */\n      dup5\n        /* \"#utility.yul\":10021:10025   */\n      dup5\n        /* \"#utility.yul\":9977:10042   */\n      tag_122\n      jump\t// in\n    tag_251:\n        /* \"#utility.yul\":9912:10048   */\n      pop\n        /* \"#utility.yul\":9859:10048   */\n      pop\n      pop\n      jump\t// out\n        /* \"#utility.yul\":10054:10240   */\n    tag_125:\n        /* \"#utility.yul\":10114:10234   */\n    tag_253:\n        /* \"#utility.yul\":10131:10134   */\n      dup2\n        /* \"#utility.yul\":10124:10129   */\n      dup2\n        /* \"#utility.yul\":10121:10135   */\n      lt\n        /* \"#utility.yul\":10114:10234   */\n      iszero\n      tag_255\n      jumpi\n        /* \"#utility.yul\":10185:10224   */\n      tag_256\n        /* \"#utility.yul\":10222:10223   */\n      0x00\n        /* \"#utility.yul\":10215:10220   */\n      dup3\n        /* \"#utility.yul\":10185:10224   */\n      tag_124\n      jump\t// in\n    tag_256:\n        /* \"#utility.yul\":10158:10159   */\n      0x01\n        /* \"#utility.yul\":10151:10156   */\n      dup2\n        /* \"#utility.yul\":10147:10160   */\n      add\n        /* \"#utility.yul\":10138:10160   */\n      swap1\n      pop\n        /* \"#utility.yul\":10114:10234   */\n      jump(tag_253)\n    tag_255:\n        /* \"#utility.yul\":10054:10240   */\n      pop\n      pop\n      jump\t// out\n        /* \"#utility.yul\":10246:10789   */\n    tag_126:\n        /* \"#utility.yul\":10347:10349   */\n      0x1f\n        /* \"#utility.yul\":10342:10345   */\n      dup3\n        /* \"#utility.yul\":10339:10350   */\n      gt\n        /* \"#utility.yul\":10336:10782   */\n      iszero\n      tag_258\n      jumpi\n        /* \"#utility.yul\":10381:10419   */\n      tag_259\n        /* \"#utility.yul\":10413:10418   */\n      dup2\n        /* \"#utility.yul\":10381:10419   */\n      tag_115\n      jump\t// in\n    tag_259:\n        /* \"#utility.yul\":10465:10494   */\n      tag_260\n        /* \"#utility.yul\":10483:10493   */\n      dup5\n        /* \"#utility.yul\":10465:10494   */\n      tag_116\n      jump\t// in\n    tag_260:\n        /* \"#utility.yul\":10455:10463   */\n      dup2\n        /* \"#utility.yul\":10451:10495   */\n      add\n        /* \"#utility.yul\":10648:10650   */\n      0x20\n        /* \"#utility.yul\":10636:10646   */\n      dup6\n        /* \"#utility.yul\":10633:10651   */\n      lt\n        /* \"#utility.yul\":10630:10679   */\n      iszero\n      tag_261\n      jumpi\n        /* \"#utility.yul\":10669:10677   */\n      dup2\n        /* \"#utility.yul\":10654:10677   */\n      swap1\n      pop\n        /* \"#utility.yul\":10630:10679   */\n    tag_261:\n        /* \"#utility.yul\":10692:10772   */\n      tag_262\n        /* \"#utility.yul\":10748:10770   */\n      tag_263\n        /* \"#utility.yul\":10766:10769   */\n      dup6\n        /* \"#utility.yul\":10748:10770   */\n      tag_116\n      jump\t// in\n    tag_263:\n        /* \"#utility.yul\":10738:10746   */\n      dup4\n        /* \"#utility.yul\":10734:10771   */\n      add\n        /* \"#utility.yul\":10721:10732   */\n      dup3\n        /* \"#utility.yul\":10692:10772   */\n      tag_125\n      jump\t// in\n    tag_262:\n        /* \"#utility.yul\":10351:10782   */\n      pop\n      pop\n        /* \"#utility.yul\":10336:10782   */\n    tag_258:\n        /* \"#utility.yul\":10246:10789   */\n      pop\n      pop\n      pop\n      jump\t// out\n        /* \"#utility.yul\":10795:10912   */\n    tag_127:\n        /* \"#utility.yul\":10849:10857   */\n      0x00\n        /* \"#utility.yul\":10899:10904   */\n      dup3\n        /* \"#utility.yul\":10893:10897   */\n      dup3\n        /* \"#utility.yul\":10889:10905   */\n      shr\n        /* \"#utility.yul\":10868:10905   */\n      swap1\n      pop\n        /* \"#utility.yul\":10795:10912   */\n      swap3\n      swap2\n      pop\n      pop\n      jump\t// out\n        /* \"#utility.yul\":10918:11087   */\n    tag_128:\n        /* \"#utility.yul\":10962:10968   */\n      0x00\n        /* \"#utility.yul\":10995:11046   */\n      tag_266\n        /* \"#utility.yul\":11043:11044   */\n      0x00\n        /* \"#utility.yul\":11039:11045   */\n      not\n        /* \"#utility.yul\":11031:11036   */\n      dup5\n        /* \"#utility.yul\":11028:11029   */\n      0x08\n        /* \"#utility.yul\":11024:11037   */\n      mul\n        /* \"#utility.yul\":10995:11046   */\n      tag_127\n      jump\t// in\n    tag_266:\n        /* \"#utility.yul\":10991:11047   */\n      not\n        /* \"#utility.yul\":11076:11080   */\n      dup1\n        /* \"#utility.yul\":11070:11074   */\n      dup4\n        /* \"#utility.yul\":11066:11081   */\n      and\n        /* \"#utility.yul\":11056:11081   */\n      swap2\n      pop\n        /* \"#utility.yul\":10969:11087   */\n      pop\n        /* \"#utility.yul\":10918:11087   */\n      swap3\n      swap2\n      pop\n      pop\n      jump\t// out\n        /* \"#utility.yul\":11092:11387   */\n    tag_129:\n        /* \"#utility.yul\":11168:11172   */\n      0x00\n        /* \"#utility.yul\":11314:11343   */\n      tag_268\n        /* \"#utility.yul\":11339:11342   */\n      dup4\n        /* \"#utility.yul\":11333:11337   */\n      dup4\n        /* \"#utility.yul\":11314:11343   */\n      tag_128\n      jump\t// in\n    tag_268:\n        /* \"#utility.yul\":11306:11343   */\n      swap2\n      pop\n        /* \"#utility.yul\":11376:11379   */\n      dup3\n        /* \"#utility.yul\":11373:11374   */\n      0x02\n        /* \"#utility.yul\":11369:11380   */\n      mul\n        /* \"#utility.yul\":11363:11367   */\n      dup3\n        /* \"#utility.yul\":11360:11381   */\n      or\n        /* \"#utility.yul\":11352:11381   */\n      swap1\n      pop\n        /* \"#utility.yul\":11092:11387   */\n      swap3\n      swap2\n      pop\n      pop\n      jump\t// out\n        /* \"#utility.yul\":11392:12787   */\n    tag_69:\n        /* \"#utility.yul\":11509:11546   */\n      tag_270\n        /* \"#utility.yul\":11542:11545   */\n      dup3\n        /* \"#utility.yul\":11509:11546   */\n      tag_113\n      jump\t// in\n    tag_270:\n        /* \"#utility.yul\":11611:11629   */\n      0xffffffffffffffff\n        /* \"#utility.yul\":11603:11609   */\n      dup2\n        /* \"#utility.yul\":11600:11630   */\n      gt\n        /* \"#utility.yul\":11597:11653   */\n      iszero\n      tag_271\n      jumpi\n        /* \"#utility.yul\":11633:11651   */\n      tag_272\n      tag_96\n      jump\t// in\n    tag_272:\n        /* \"#utility.yul\":11597:11653   */\n    tag_271:\n        /* \"#utility.yul\":11677:11715   */\n      tag_273\n        /* \"#utility.yul\":11709:11713   */\n      dup3\n        /* \"#utility.yul\":11703:11714   */\n      sload\n        /* \"#utility.yul\":11677:11715   */\n      tag_77\n      jump\t// in\n    tag_273:\n        /* \"#utility.yul\":11762:11829   */\n      tag_274\n        /* \"#utility.yul\":11822:11828   */\n      dup3\n        /* \"#utility.yul\":11814:11820   */\n      dup3\n        /* \"#utility.yul\":11808:11812   */\n      dup6\n        /* \"#utility.yul\":11762:11829   */\n      tag_126\n      jump\t// in\n    tag_274:\n        /* \"#utility.yul\":11856:11857   */\n      0x00\n        /* \"#utility.yul\":11880:11884   */\n      0x20\n        /* \"#utility.yul\":11867:11884   */\n      swap1\n      pop\n        /* \"#utility.yul\":11912:11914   */\n      0x1f\n        /* \"#utility.yul\":11904:11910   */\n      dup4\n        /* \"#utility.yul\":11901:11915   */\n      gt\n        /* \"#utility.yul\":11929:11930   */\n      0x01\n        /* \"#utility.yul\":11924:12542   */\n      dup2\n      eq\n      tag_276\n      jumpi\n        /* \"#utility.yul\":12586:12587   */\n      0x00\n        /* \"#utility.yul\":12603:12609   */\n      dup5\n        /* \"#utility.yul\":12600:12677   */\n      iszero\n      tag_277\n      jumpi\n        /* \"#utility.yul\":12652:12661   */\n      dup3\n        /* \"#utility.yul\":12647:12650   */\n      dup8\n        /* \"#utility.yul\":12643:12662   */\n      add\n        /* \"#utility.yul\":12637:12663   */\n      mload\n        /* \"#utility.yul\":12628:12663   */\n      swap1\n      pop\n        /* \"#utility.yul\":12600:12677   */\n    tag_277:\n        /* \"#utility.yul\":12703:12770   */\n      tag_278\n        /* \"#utility.yul\":12763:12769   */\n      dup6\n        /* \"#utility.yul\":12756:12761   */\n      dup3\n        /* \"#utility.yul\":12703:12770   */\n      tag_129\n      jump\t// in\n    tag_278:\n        /* \"#utility.yul\":12697:12701   */\n      dup7\n        /* \"#utility.yul\":12690:12771   */\n      sstore\n        /* \"#utility.yul\":12559:12781   */\n      pop\n        /* \"#utility.yul\":11894:12781   */\n      jump(tag_275)\n        /* \"#utility.yul\":11924:12542   */\n    tag_276:\n        /* \"#utility.yul\":11976:11980   */\n      0x1f\n        /* \"#utility.yul\":11972:11981   */\n      not\n        /* \"#utility.yul\":11964:11970   */\n      dup5\n        /* \"#utility.yul\":11960:11982   */\n      and\n        /* \"#utility.yul\":12010:12047   */\n      tag_279\n        /* \"#utility.yul\":12042:12046   */\n      dup7\n        /* \"#utility.yul\":12010:12047   */\n      tag_115\n      jump\t// in\n    tag_279:\n        /* \"#utility.yul\":12069:12070   */\n      0x00\n        /* \"#utility.yul\":12083:12291   */\n    tag_280:\n        /* \"#utility.yul\":12097:12104   */\n      dup3\n        /* \"#utility.yul\":12094:12095   */\n      dup2\n        /* \"#utility.yul\":12091:12105   */\n      lt\n        /* \"#utility.yul\":12083:12291   */\n      iszero\n      tag_282\n      jumpi\n        /* \"#utility.yul\":12176:12185   */\n      dup5\n        /* \"#utility.yul\":12171:12174   */\n      dup10\n        /* \"#utility.yul\":12167:12186   */\n      add\n        /* \"#utility.yul\":12161:12187   */\n      mload\n        /* \"#utility.yul\":12153:12159   */\n      dup3\n        /* \"#utility.yul\":12146:12188   */\n      sstore\n        /* \"#utility.yul\":12227:12228   */\n      0x01\n        /* \"#utility.yul\":12219:12225   */\n      dup3\n        /* \"#utility.yul\":12215:12229   */\n      add\n        /* \"#utility.yul\":12205:12229   */\n      swap2\n      pop\n        /* \"#utility.yul\":12274:12276   */\n      0x20\n        /* \"#utility.yul\":12263:12272   */\n      dup6\n        /* \"#utility.yul\":12259:12277   */\n      add\n        /* \"#utility.yul\":12246:12277   */\n      swap5\n      pop\n        /* \"#utility.yul\":12120:12124   */\n      0x20\n        /* \"#utility.yul\":12117:12118   */\n      dup2\n        /* \"#utility.yul\":12113:12125   */\n      add\n        /* \"#utility.yul\":12108:12125   */\n      swap1\n      pop\n        /* \"#utility.yul\":12083:12291   */\n      jump(tag_280)\n    tag_282:\n        /* \"#utility.yul\":12319:12325   */\n      dup7\n        /* \"#utility.yul\":12310:12317   */\n      dup4\n        /* \"#utility.yul\":12307:12326   */\n      lt\n        /* \"#utility.yul\":12304:12483   */\n      iszero\n      tag_283\n      jumpi\n        /* \"#utility.yul\":12377:12386   */\n      dup5\n        /* \"#utility.yul\":12372:12375   */\n      dup10\n        /* \"#utility.yul\":12368:12387   */\n      add\n        /* \"#utility.yul\":12362:12388   */\n      mload\n        /* \"#utility.yul\":12420:12468   */\n      tag_284\n        /* \"#utility.yul\":12462:12466   */\n      0x1f\n        /* \"#utility.yul\":12454:12460   */\n      dup10\n        /* \"#utility.yul\":12450:12467   */\n      and\n        /* \"#utility.yul\":12439:12448   */\n      dup3\n        /* \"#utility.yul\":12420:12468   */\n      tag_128\n      jump\t// in\n    tag_284:\n        /* \"#utility.yul\":12412:12418   */\n      dup4\n        /* \"#utility.yul\":12405:12469   */\n      sstore\n        /* \"#utility.yul\":12327:12483   */\n      pop\n        /* \"#utility.yul\":12304:12483   */\n    tag_283:\n        /* \"#utility.yul\":12529:12530   */\n      0x01\n        /* \"#utility.yul\":12525:12526   */\n      0x02\n        /* \"#utility.yul\":12517:12523   */\n      dup9\n        /* \"#utility.yul\":12513:12527   */\n      mul\n        /* \"#utility.yul\":12509:12531   */\n      add\n        /* \"#utility.yul\":12503:12507   */\n      dup9\n        /* \"#utility.yul\":12496:12532   */\n      sstore\n        /* \"#utility.yul\":11931:12542   */\n      pop\n      pop\n      pop\n        /* \"#utility.yul\":11894:12781   */\n    tag_275:\n      pop\n        /* \"#utility.yul\":11484:12787   */\n      pop\n      pop\n      pop\n        /* \"#utility.yul\":11392:12787   */\n      pop\n      pop\n      jump\t// out\n\n    auxdata: 0xa26469706673582212208bcf6eeda295c1f9f0d431500ab07ee3e5af40f8941fb0482f3c27d53501a3a664736f6c63430008120033\n}\n",
				"bytecode": {
					"linkReferences": {},
					"object": "6080604052600560015560006002553480156200001b57600080fd5b50336000806101000a81548173ffffffffffffffffffffffffffffffffffffffff021916908373ffffffffffffffffffffffffffffffffffffffff16021790555060008054906101000a900473ffffffffffffffffffffffffffffffffffffffff1673ffffffffffffffffffffffffffffffffffffffff16600073ffffffffffffffffffffffffffffffffffffffff167f8be0079c531659141344cd1fd0a4f28419497f9722a3daafe3b4186f6b6457e060405160405180910390a3620002176040518060a001604052806040518060400160405280600881526020017f307838343545433200000000000000000000000000000000000000000000000081525081526020016040518060400160405280600881526020017f307834423434353300000000000000000000000000000000000000000000000081525081526020016040518060400160405280600881526020017f307842304138423900000000000000000000000000000000000000000000000081525081526020016040518060400160405280600881526020017f307843333441333600000000000000000000000000000000000000000000000081525081526020016040518060400160405280600881526020017f3078464638303636000000000000000000000000000000000000000000000000815250815250620005dd60201b60201c565b620003576040518060a001604052806040518060400160405280600881526020017f307836393936373400000000000000000000000000000000000000000000000081525081526020016040518060400160405280600881526020017f307833423441334600000000000000000000000000000000000000000000000081525081526020016040518060400160405280600881526020017f307839454146413200000000000000000000000000000000000000000000000081525081526020016040518060400160405280600881526020017f307834453934423300000000000000000000000000000000000000000000000081525081526020016040518060400160405280600881526020017f3078303336313745000000000000000000000000000000000000000000000000815250815250620005dd60201b60201c565b620004976040518060a001604052806040518060400160405280600881526020017f307832374236443800000000000000000000000000000000000000000000000081525081526020016040518060400160405280600881526020017f307833333441353200000000000000000000000000000000000000000000000081525081526020016040518060400160405280600881526020017f307839364146423800000000000000000000000000000000000000000000000081525081526020016040518060400160405280600881526020017f307843343938443400000000000000000000000000000000000000000000000081525081526020016040518060400160405280600881526020017f3078384536343944000000000000000000000000000000000000000000000000815250815250620005dd60201b60201c565b620005d76040518060a001604052806040518060400160405280600881526020017f307835414135354200000000000000000000000000000000000000000000000081525081526020016040518060400160405280600881526020017f307832343935364400000000000000000000000000000000000000000000000081525081526020016040518060400160405280600881526020017f307830303833373700000000000000000000000000000000000000000000000081525081526020016040518060400160405280600881526020017f307830303646373700000000000000000000000000000000000000000000000081525081526020016040518060400160405280600881526020017f3078314335423643000000000000000000000000000000000000000000000000815250815250620005dd60201b60201c565b62000be8565b620005ed620006ab60201b60201c565b620005f757600080fd5b600380805490509080600181540180825580915050600190039060005260206000200160009091909190915055806004600060016003805490506200063d919062000828565b81526020019081526020016000209060056200065b92919062000702565b507fe1c7c98cdeded3a25c1c7ada5b85013b2c7c9879f1678129a413ea685d0fcc78600160038054905062000691919062000828565b604051620006a0919062000874565b60405180910390a150565b60008060009054906101000a900473ffffffffffffffffffffffffffffffffffffffff1673ffffffffffffffffffffffffffffffffffffffff163373ffffffffffffffffffffffffffffffffffffffff1614905090565b8280548282559060005260206000209081019282156200074f579160200282015b828111156200074e5782518290816200073d919062000b01565b509160200191906001019062000723565b5b5090506200075e919062000762565b5090565b5b808211156200078657600081816200077c91906200078a565b5060010162000763565b5090565b5080546200079890620008fa565b6000825580601f10620007ac5750620007cd565b601f016020900490600052602060002090810190620007cc9190620007d0565b5b50565b5b80821115620007eb576000816000905550600101620007d1565b5090565b6000819050919050565b7f4e487b7100000000000000000000000000000000000000000000000000000000600052601160045260246000fd5b60006200083582620007ef565b91506200084283620007ef565b92508282039050818111156200085d576200085c620007f9565b5b92915050565b6200086e81620007ef565b82525050565b60006020820190506200088b600083018462000863565b92915050565b600081519050919050565b7f4e487b7100000000000000000000000000000000000000000000000000000000600052604160045260246000fd5b7f4e487b7100000000000000000000000000000000000000000000000000000000600052602260045260246000fd5b600060028204905060018216806200091357607f821691505b602082108103620009295762000928620008cb565b5b50919050565b60008190508160005260206000209050919050565b60006020601f8301049050919050565b600082821b905092915050565b600060088302620009937fffffffffffffffffffffffffffffffffffffffffffffffffffffffffffffffff8262000954565b6200099f868362000954565b95508019841693508086168417925050509392505050565b6000819050919050565b6000620009e2620009dc620009d684620007ef565b620009b7565b620007ef565b9050919050565b6000819050919050565b620009fe83620009c1565b62000a1662000a0d82620009e9565b84845462000961565b825550505050565b600090565b62000a2d62000a1e565b62000a3a818484620009f3565b505050565b5b8181101562000a625762000a5660008262000a23565b60018101905062000a40565b5050565b601f82111562000ab15762000a7b816200092f565b62000a868462000944565b8101602085101562000a96578190505b62000aae62000aa58562000944565b83018262000a3f565b50505b505050565b600082821c905092915050565b600062000ad66000198460080262000ab6565b1980831691505092915050565b600062000af1838362000ac3565b9150826002028217905092915050565b62000b0c8262000891565b67ffffffffffffffff81111562000b285762000b276200089c565b5b62000b348254620008fa565b62000b4182828562000a66565b600060209050601f83116001811462000b79576000841562000b64578287015190505b62000b70858262000ae3565b86555062000be0565b601f19841662000b89866200092f565b60005b8281101562000bb35784890151825560018201915060208501945060208101905062000b8c565b8683101562000bd3578489015162000bcf601f89168262000ac3565b8355505b6001600288020188555050505b505050505050565b610ce28062000bf86000396000f3fe608060405234801561001057600080fd5b506004361061007d5760003560e01c80638f32d59b1161005b5780638f32d59b146100c8578063b8f7f42a146100e6578063dcf7eefe14610102578063f2fde38b146101325761007d565b8063109c123814610082578063715018a6146100a05780638da5cb5b146100aa575b600080fd5b61008a61014e565b604051610097919061058a565b60405180910390f35b6100a8610154565b005b6100b2610223565b6040516100bf91906105e6565b60405180910390f35b6100d061024c565b6040516100dd919061061c565b60405180910390f35b61010060048036038101906100fb9190610865565b6102a3565b005b61011c600480360381019061011791906108da565b610360565b604051610129919061058a565b60405180910390f35b61014c60048036038101906101479190610933565b610384565b005b60015481565b61015c61024c565b61016557600080fd5b600073ffffffffffffffffffffffffffffffffffffffff1660008054906101000a900473ffffffffffffffffffffffffffffffffffffffff1673ffffffffffffffffffffffffffffffffffffffff167f8be0079c531659141344cd1fd0a4f28419497f9722a3daafe3b4186f6b6457e060405160405180910390a360008060006101000a81548173ffffffffffffffffffffffffffffffffffffffff021916908373ffffffffffffffffffffffffffffffffffffffff160217905550565b60008060009054906101000a900473ffffffffffffffffffffffffffffffffffffffff16905090565b60008060009054906101000a900473ffffffffffffffffffffffffffffffffffffffff1673ffffffffffffffffffffffffffffffffffffffff163373ffffffffffffffffffffffffffffffffffffffff1614905090565b6102ab61024c565b6102b457600080fd5b600380805490509080600181540180825580915050600190039060005260206000200160009091909190915055806004600060016003805490506102f8919061098f565b8152602001908152602001600020906005610314929190610497565b507fe1c7c98cdeded3a25c1c7ada5b85013b2c7c9879f1678129a413ea685d0fcc786001600380549050610348919061098f565b604051610355919061058a565b60405180910390a150565b6003818154811061037057600080fd5b906000526020600020016000915090505481565b61038c61024c565b61039557600080fd5b61039e816103a1565b50565b600073ffffffffffffffffffffffffffffffffffffffff168173ffffffffffffffffffffffffffffffffffffffff16036103da57600080fd5b8073ffffffffffffffffffffffffffffffffffffffff1660008054906101000a900473ffffffffffffffffffffffffffffffffffffffff1673ffffffffffffffffffffffffffffffffffffffff167f8be0079c531659141344cd1fd0a4f28419497f9722a3daafe3b4186f6b6457e060405160405180910390a3806000806101000a81548173ffffffffffffffffffffffffffffffffffffffff021916908373ffffffffffffffffffffffffffffffffffffffff16021790555050565b8280548282559060005260206000209081019282156104df579160200282015b828111156104de5782518290816104ce9190610bda565b50916020019190600101906104b7565b5b5090506104ec91906104f0565b5090565b5b8082111561051057600081816105079190610514565b506001016104f1565b5090565b508054610520906109fd565b6000825580601f106105325750610551565b601f0160209004906000526020600020908101906105509190610554565b5b50565b5b8082111561056d576000816000905550600101610555565b5090565b6000819050919050565b61058481610571565b82525050565b600060208201905061059f600083018461057b565b92915050565b600073ffffffffffffffffffffffffffffffffffffffff82169050919050565b60006105d0826105a5565b9050919050565b6105e0816105c5565b82525050565b60006020820190506105fb60008301846105d7565b92915050565b60008115159050919050565b61061681610601565b82525050565b6000602082019050610631600083018461060d565b92915050565b6000604051905090565b600080fd5b600080fd5b600080fd5b6000601f19601f8301169050919050565b7f4e487b7100000000000000000000000000000000000000000000000000000000600052604160045260246000fd5b61069982610650565b810181811067ffffffffffffffff821117156106b8576106b7610661565b5b80604052505050565b60006106cb610637565b90506106d78282610690565b919050565b600067ffffffffffffffff8211156106f7576106f6610661565b5b602082029050919050565b600080fd5b600080fd5b600067ffffffffffffffff82111561072757610726610661565b5b61073082610650565b9050602081019050919050565b82818337600083830152505050565b600061075f61075a8461070c565b6106c1565b90508281526020810184848401111561077b5761077a610707565b5b61078684828561073d565b509392505050565b600082601f8301126107a3576107a261064b565b5b81356107b384826020860161074c565b91505092915050565b60006107cf6107ca846106dc565b6106c1565b905080602084028301858111156107e9576107e8610702565b5b835b8181101561083057803567ffffffffffffffff81111561080e5761080d61064b565b5b80860161081b898261078e565b855260208501945050506020810190506107eb565b5050509392505050565b600082601f83011261084f5761084e61064b565b5b600561085c8482856107bc565b91505092915050565b60006020828403121561087b5761087a610641565b5b600082013567ffffffffffffffff81111561089957610898610646565b5b6108a58482850161083a565b91505092915050565b6108b781610571565b81146108c257600080fd5b50565b6000813590506108d4816108ae565b92915050565b6000602082840312156108f0576108ef610641565b5b60006108fe848285016108c5565b91505092915050565b610910816105c5565b811461091b57600080fd5b50565b60008135905061092d81610907565b92915050565b60006020828403121561094957610948610641565b5b60006109578482850161091e565b91505092915050565b7f4e487b7100000000000000000000000000000000000000000000000000000000600052601160045260246000fd5b600061099a82610571565b91506109a583610571565b92508282039050818111156109bd576109bc610960565b5b92915050565b600081519050919050565b7f4e487b7100000000000000000000000000000000000000000000000000000000600052602260045260246000fd5b60006002820490506001821680610a1557607f821691505b602082108103610a2857610a276109ce565b5b50919050565b60008190508160005260206000209050919050565b60006020601f8301049050919050565b600082821b905092915050565b600060088302610a907fffffffffffffffffffffffffffffffffffffffffffffffffffffffffffffffff82610a53565b610a9a8683610a53565b95508019841693508086168417925050509392505050565b6000819050919050565b6000610ad7610ad2610acd84610571565b610ab2565b610571565b9050919050565b6000819050919050565b610af183610abc565b610b05610afd82610ade565b848454610a60565b825550505050565b600090565b610b1a610b0d565b610b25818484610ae8565b505050565b5b81811015610b4957610b3e600082610b12565b600181019050610b2b565b5050565b601f821115610b8e57610b5f81610a2e565b610b6884610a43565b81016020851015610b77578190505b610b8b610b8385610a43565b830182610b2a565b50505b505050565b600082821c905092915050565b6000610bb160001984600802610b93565b1980831691505092915050565b6000610bca8383610ba0565b9150826002028217905092915050565b610be3826109c3565b67ffffffffffffffff811115610bfc57610bfb610661565b5b610c0682546109fd565b610c11828285610b4d565b600060209050601f831160018114610c445760008415610c32578287015190505b610c3c8582610bbe565b865550610ca4565b601f198416610c5286610a2e565b60005b82811015610c7a57848901518255600182019150602085019450602081019050610c55565b86831015610c975784890151610c93601f891682610ba0565b8355505b6001600288020188555050505b50505050505056fea26469706673582212208bcf6eeda295c1f9f0d431500ab07ee3e5af40f8941fb0482f3c27d53501a3a664736f6c63430008120033",
					"opcodes": "PUSH1 0x80 PUSH1 0x40 MSTORE PUSH1 0x5 PUSH1 0x1 SSTORE PUSH1 0x0 PUSH1 0x2 SSTORE CALLVALUE DUP1 ISZERO PUSH3 0x1B JUMPI PUSH1 0x0 DUP1 REVERT JUMPDEST POP CALLER PUSH1 0x0 DUP1 PUSH2 0x100 EXP DUP2 SLOAD DUP2 PUSH20 0xFFFFFFFFFFFFFFFFFFFFFFFFFFFFFFFFFFFFFFFF MUL NOT AND SWAP1 DUP4 PUSH20 0xFFFFFFFFFFFFFFFFFFFFFFFFFFFFFFFFFFFFFFFF AND MUL OR SWAP1 SSTORE POP PUSH1 0x0 DUP1 SLOAD SWAP1 PUSH2 0x100 EXP SWAP1 DIV PUSH20 0xFFFFFFFFFFFFFFFFFFFFFFFFFFFFFFFFFFFFFFFF AND PUSH20 0xFFFFFFFFFFFFFFFFFFFFFFFFFFFFFFFFFFFFFFFF AND PUSH1 0x0 PUSH20 0xFFFFFFFFFFFFFFFFFFFFFFFFFFFFFFFFFFFFFFFF AND PUSH32 0x8BE0079C531659141344CD1FD0A4F28419497F9722A3DAAFE3B4186F6B6457E0 PUSH1 0x40 MLOAD PUSH1 0x40 MLOAD DUP1 SWAP2 SUB SWAP1 LOG3 PUSH3 0x217 PUSH1 0x40 MLOAD DUP1 PUSH1 0xA0 ADD PUSH1 0x40 MSTORE DUP1 PUSH1 0x40 MLOAD DUP1 PUSH1 0x40 ADD PUSH1 0x40 MSTORE DUP1 PUSH1 0x8 DUP2 MSTORE PUSH1 0x20 ADD PUSH32 0x3078383435454332000000000000000000000000000000000000000000000000 DUP2 MSTORE POP DUP2 MSTORE PUSH1 0x20 ADD PUSH1 0x40 MLOAD DUP1 PUSH1 0x40 ADD PUSH1 0x40 MSTORE DUP1 PUSH1 0x8 DUP2 MSTORE PUSH1 0x20 ADD PUSH32 0x3078344234343533000000000000000000000000000000000000000000000000 DUP2 MSTORE POP DUP2 MSTORE PUSH1 0x20 ADD PUSH1 0x40 MLOAD DUP1 PUSH1 0x40 ADD PUSH1 0x40 MSTORE DUP1 PUSH1 0x8 DUP2 MSTORE PUSH1 0x20 ADD PUSH32 0x3078423041384239000000000000000000000000000000000000000000000000 DUP2 MSTORE POP DUP2 MSTORE PUSH1 0x20 ADD PUSH1 0x40 MLOAD DUP1 PUSH1 0x40 ADD PUSH1 0x40 MSTORE DUP1 PUSH1 0x8 DUP2 MSTORE PUSH1 0x20 ADD PUSH32 0x3078433334413336000000000000000000000000000000000000000000000000 DUP2 MSTORE POP DUP2 MSTORE PUSH1 0x20 ADD PUSH1 0x40 MLOAD DUP1 PUSH1 0x40 ADD PUSH1 0x40 MSTORE DUP1 PUSH1 0x8 DUP2 MSTORE PUSH1 0x20 ADD PUSH32 0x3078464638303636000000000000000000000000000000000000000000000000 DUP2 MSTORE POP DUP2 MSTORE POP PUSH3 0x5DD PUSH1 0x20 SHL PUSH1 0x20 SHR JUMP JUMPDEST PUSH3 0x357 PUSH1 0x40 MLOAD DUP1 PUSH1 0xA0 ADD PUSH1 0x40 MSTORE DUP1 PUSH1 0x40 MLOAD DUP1 PUSH1 0x40 ADD PUSH1 0x40 MSTORE DUP1 PUSH1 0x8 DUP2 MSTORE PUSH1 0x20 ADD PUSH32 0x3078363939363734000000000000000000000000000000000000000000000000 DUP2 MSTORE POP DUP2 MSTORE PUSH1 0x20 ADD PUSH1 0x40 MLOAD DUP1 PUSH1 0x40 ADD PUSH1 0x40 MSTORE DUP1 PUSH1 0x8 DUP2 MSTORE PUSH1 0x20 ADD PUSH32 0x3078334234413346000000000000000000000000000000000000000000000000 DUP2 MSTORE POP DUP2 MSTORE PUSH1 0x20 ADD PUSH1 0x40 MLOAD DUP1 PUSH1 0x40 ADD PUSH1 0x40 MSTORE DUP1 PUSH1 0x8 DUP2 MSTORE PUSH1 0x20 ADD PUSH32 0x3078394541464132000000000000000000000000000000000000000000000000 DUP2 MSTORE POP DUP2 MSTORE PUSH1 0x20 ADD PUSH1 0x40 MLOAD DUP1 PUSH1 0x40 ADD PUSH1 0x40 MSTORE DUP1 PUSH1 0x8 DUP2 MSTORE PUSH1 0x20 ADD PUSH32 0x3078344539344233000000000000000000000000000000000000000000000000 DUP2 MSTORE POP DUP2 MSTORE PUSH1 0x20 ADD PUSH1 0x40 MLOAD DUP1 PUSH1 0x40 ADD PUSH1 0x40 MSTORE DUP1 PUSH1 0x8 DUP2 MSTORE PUSH1 0x20 ADD PUSH32 0x3078303336313745000000000000000000000000000000000000000000000000 DUP2 MSTORE POP DUP2 MSTORE POP PUSH3 0x5DD PUSH1 0x20 SHL PUSH1 0x20 SHR JUMP JUMPDEST PUSH3 0x497 PUSH1 0x40 MLOAD DUP1 PUSH1 0xA0 ADD PUSH1 0x40 MSTORE DUP1 PUSH1 0x40 MLOAD DUP1 PUSH1 0x40 ADD PUSH1 0x40 MSTORE DUP1 PUSH1 0x8 DUP2 MSTORE PUSH1 0x20 ADD PUSH32 0x3078323742364438000000000000000000000000000000000000000000000000 DUP2 MSTORE POP DUP2 MSTORE PUSH1 0x20 ADD PUSH1 0x40 MLOAD DUP1 PUSH1 0x40 ADD PUSH1 0x40 MSTORE DUP1 PUSH1 0x8 DUP2 MSTORE PUSH1 0x20 ADD PUSH32 0x3078333334413532000000000000000000000000000000000000000000000000 DUP2 MSTORE POP DUP2 MSTORE PUSH1 0x20 ADD PUSH1 0x40 MLOAD DUP1 PUSH1 0x40 ADD PUSH1 0x40 MSTORE DUP1 PUSH1 0x8 DUP2 MSTORE PUSH1 0x20 ADD PUSH32 0x3078393641464238000000000000000000000000000000000000000000000000 DUP2 MSTORE POP DUP2 MSTORE PUSH1 0x20 ADD PUSH1 0x40 MLOAD DUP1 PUSH1 0x40 ADD PUSH1 0x40 MSTORE DUP1 PUSH1 0x8 DUP2 MSTORE PUSH1 0x20 ADD PUSH32 0x3078433439384434000000000000000000000000000000000000000000000000 DUP2 MSTORE POP DUP2 MSTORE PUSH1 0x20 ADD PUSH1 0x40 MLOAD DUP1 PUSH1 0x40 ADD PUSH1 0x40 MSTORE DUP1 PUSH1 0x8 DUP2 MSTORE PUSH1 0x20 ADD PUSH32 0x3078384536343944000000000000000000000000000000000000000000000000 DUP2 MSTORE POP DUP2 MSTORE POP PUSH3 0x5DD PUSH1 0x20 SHL PUSH1 0x20 SHR JUMP JUMPDEST PUSH3 0x5D7 PUSH1 0x40 MLOAD DUP1 PUSH1 0xA0 ADD PUSH1 0x40 MSTORE DUP1 PUSH1 0x40 MLOAD DUP1 PUSH1 0x40 ADD PUSH1 0x40 MSTORE DUP1 PUSH1 0x8 DUP2 MSTORE PUSH1 0x20 ADD PUSH32 0x3078354141353542000000000000000000000000000000000000000000000000 DUP2 MSTORE POP DUP2 MSTORE PUSH1 0x20 ADD PUSH1 0x40 MLOAD DUP1 PUSH1 0x40 ADD PUSH1 0x40 MSTORE DUP1 PUSH1 0x8 DUP2 MSTORE PUSH1 0x20 ADD PUSH32 0x3078323439353644000000000000000000000000000000000000000000000000 DUP2 MSTORE POP DUP2 MSTORE PUSH1 0x20 ADD PUSH1 0x40 MLOAD DUP1 PUSH1 0x40 ADD PUSH1 0x40 MSTORE DUP1 PUSH1 0x8 DUP2 MSTORE PUSH1 0x20 ADD PUSH32 0x3078303038333737000000000000000000000000000000000000000000000000 DUP2 MSTORE POP DUP2 MSTORE PUSH1 0x20 ADD PUSH1 0x40 MLOAD DUP1 PUSH1 0x40 ADD PUSH1 0x40 MSTORE DUP1 PUSH1 0x8 DUP2 MSTORE PUSH1 0x20 ADD PUSH32 0x3078303036463737000000000000000000000000000000000000000000000000 DUP2 MSTORE POP DUP2 MSTORE PUSH1 0x20 ADD PUSH1 0x40 MLOAD DUP1 PUSH1 0x40 ADD PUSH1 0x40 MSTORE DUP1 PUSH1 0x8 DUP2 MSTORE PUSH1 0x20 ADD PUSH32 0x3078314335423643000000000000000000000000000000000000000000000000 DUP2 MSTORE POP DUP2 MSTORE POP PUSH3 0x5DD PUSH1 0x20 SHL PUSH1 0x20 SHR JUMP JUMPDEST PUSH3 0xBE8 JUMP JUMPDEST PUSH3 0x5ED PUSH3 0x6AB PUSH1 0x20 SHL PUSH1 0x20 SHR JUMP JUMPDEST PUSH3 0x5F7 JUMPI PUSH1 0x0 DUP1 REVERT JUMPDEST PUSH1 0x3 DUP1 DUP1 SLOAD SWAP1 POP SWAP1 DUP1 PUSH1 0x1 DUP2 SLOAD ADD DUP1 DUP3 SSTORE DUP1 SWAP2 POP POP PUSH1 0x1 SWAP1 SUB SWAP1 PUSH1 0x0 MSTORE PUSH1 0x20 PUSH1 0x0 KECCAK256 ADD PUSH1 0x0 SWAP1 SWAP2 SWAP1 SWAP2 SWAP1 SWAP2 POP SSTORE DUP1 PUSH1 0x4 PUSH1 0x0 PUSH1 0x1 PUSH1 0x3 DUP1 SLOAD SWAP1 POP PUSH3 0x63D SWAP2 SWAP1 PUSH3 0x828 JUMP JUMPDEST DUP2 MSTORE PUSH1 0x20 ADD SWAP1 DUP2 MSTORE PUSH1 0x20 ADD PUSH1 0x0 KECCAK256 SWAP1 PUSH1 0x5 PUSH3 0x65B SWAP3 SWAP2 SWAP1 PUSH3 0x702 JUMP JUMPDEST POP PUSH32 0xE1C7C98CDEDED3A25C1C7ADA5B85013B2C7C9879F1678129A413EA685D0FCC78 PUSH1 0x1 PUSH1 0x3 DUP1 SLOAD SWAP1 POP PUSH3 0x691 SWAP2 SWAP1 PUSH3 0x828 JUMP JUMPDEST PUSH1 0x40 MLOAD PUSH3 0x6A0 SWAP2 SWAP1 PUSH3 0x874 JUMP JUMPDEST PUSH1 0x40 MLOAD DUP1 SWAP2 SUB SWAP1 LOG1 POP JUMP JUMPDEST PUSH1 0x0 DUP1 PUSH1 0x0 SWAP1 SLOAD SWAP1 PUSH2 0x100 EXP SWAP1 DIV PUSH20 0xFFFFFFFFFFFFFFFFFFFFFFFFFFFFFFFFFFFFFFFF AND PUSH20 0xFFFFFFFFFFFFFFFFFFFFFFFFFFFFFFFFFFFFFFFF AND CALLER PUSH20 0xFFFFFFFFFFFFFFFFFFFFFFFFFFFFFFFFFFFFFFFF AND EQ SWAP1 POP SWAP1 JUMP JUMPDEST DUP3 DUP1 SLOAD DUP3 DUP3 SSTORE SWAP1 PUSH1 0x0 MSTORE PUSH1 0x20 PUSH1 0x0 KECCAK256 SWAP1 DUP2 ADD SWAP3 DUP3 ISZERO PUSH3 0x74F JUMPI SWAP2 PUSH1 0x20 MUL DUP3 ADD JUMPDEST DUP3 DUP2 GT ISZERO PUSH3 0x74E JUMPI DUP3 MLOAD DUP3 SWAP1 DUP2 PUSH3 0x73D SWAP2 SWAP1 PUSH3 0xB01 JUMP JUMPDEST POP SWAP2 PUSH1 0x20 ADD SWAP2 SWAP1 PUSH1 0x1 ADD SWAP1 PUSH3 0x723 JUMP JUMPDEST JUMPDEST POP SWAP1 POP PUSH3 0x75E SWAP2 SWAP1 PUSH3 0x762 JUMP JUMPDEST POP SWAP1 JUMP JUMPDEST JUMPDEST DUP1 DUP3 GT ISZERO PUSH3 0x786 JUMPI PUSH1 0x0 DUP2 DUP2 PUSH3 0x77C SWAP2 SWAP1 PUSH3 0x78A JUMP JUMPDEST POP PUSH1 0x1 ADD PUSH3 0x763 JUMP JUMPDEST POP SWAP1 JUMP JUMPDEST POP DUP1 SLOAD PUSH3 0x798 SWAP1 PUSH3 0x8FA JUMP JUMPDEST PUSH1 0x0 DUP3 SSTORE DUP1 PUSH1 0x1F LT PUSH3 0x7AC JUMPI POP PUSH3 0x7CD JUMP JUMPDEST PUSH1 0x1F ADD PUSH1 0x20 SWAP1 DIV SWAP1 PUSH1 0x0 MSTORE PUSH1 0x20 PUSH1 0x0 KECCAK256 SWAP1 DUP2 ADD SWAP1 PUSH3 0x7CC SWAP2 SWAP1 PUSH3 0x7D0 JUMP JUMPDEST JUMPDEST POP JUMP JUMPDEST JUMPDEST DUP1 DUP3 GT ISZERO PUSH3 0x7EB JUMPI PUSH1 0x0 DUP2 PUSH1 0x0 SWAP1 SSTORE POP PUSH1 0x1 ADD PUSH3 0x7D1 JUMP JUMPDEST POP SWAP1 JUMP JUMPDEST PUSH1 0x0 DUP2 SWAP1 POP SWAP2 SWAP1 POP JUMP JUMPDEST PUSH32 0x4E487B7100000000000000000000000000000000000000000000000000000000 PUSH1 0x0 MSTORE PUSH1 0x11 PUSH1 0x4 MSTORE PUSH1 0x24 PUSH1 0x0 REVERT JUMPDEST PUSH1 0x0 PUSH3 0x835 DUP3 PUSH3 0x7EF JUMP JUMPDEST SWAP2 POP PUSH3 0x842 DUP4 PUSH3 0x7EF JUMP JUMPDEST SWAP3 POP DUP3 DUP3 SUB SWAP1 POP DUP2 DUP2 GT ISZERO PUSH3 0x85D JUMPI PUSH3 0x85C PUSH3 0x7F9 JUMP JUMPDEST JUMPDEST SWAP3 SWAP2 POP POP JUMP JUMPDEST PUSH3 0x86E DUP2 PUSH3 0x7EF JUMP JUMPDEST DUP3 MSTORE POP POP JUMP JUMPDEST PUSH1 0x0 PUSH1 0x20 DUP3 ADD SWAP1 POP PUSH3 0x88B PUSH1 0x0 DUP4 ADD DUP5 PUSH3 0x863 JUMP JUMPDEST SWAP3 SWAP2 POP POP JUMP JUMPDEST PUSH1 0x0 DUP2 MLOAD SWAP1 POP SWAP2 SWAP1 POP JUMP JUMPDEST PUSH32 0x4E487B7100000000000000000000000000000000000000000000000000000000 PUSH1 0x0 MSTORE PUSH1 0x41 PUSH1 0x4 MSTORE PUSH1 0x24 PUSH1 0x0 REVERT JUMPDEST PUSH32 0x4E487B7100000000000000000000000000000000000000000000000000000000 PUSH1 0x0 MSTORE PUSH1 0x22 PUSH1 0x4 MSTORE PUSH1 0x24 PUSH1 0x0 REVERT JUMPDEST PUSH1 0x0 PUSH1 0x2 DUP3 DIV SWAP1 POP PUSH1 0x1 DUP3 AND DUP1 PUSH3 0x913 JUMPI PUSH1 0x7F DUP3 AND SWAP2 POP JUMPDEST PUSH1 0x20 DUP3 LT DUP2 SUB PUSH3 0x929 JUMPI PUSH3 0x928 PUSH3 0x8CB JUMP JUMPDEST JUMPDEST POP SWAP2 SWAP1 POP JUMP JUMPDEST PUSH1 0x0 DUP2 SWAP1 POP DUP2 PUSH1 0x0 MSTORE PUSH1 0x20 PUSH1 0x0 KECCAK256 SWAP1 POP SWAP2 SWAP1 POP JUMP JUMPDEST PUSH1 0x0 PUSH1 0x20 PUSH1 0x1F DUP4 ADD DIV SWAP1 POP SWAP2 SWAP1 POP JUMP JUMPDEST PUSH1 0x0 DUP3 DUP3 SHL SWAP1 POP SWAP3 SWAP2 POP POP JUMP JUMPDEST PUSH1 0x0 PUSH1 0x8 DUP4 MUL PUSH3 0x993 PUSH32 0xFFFFFFFFFFFFFFFFFFFFFFFFFFFFFFFFFFFFFFFFFFFFFFFFFFFFFFFFFFFFFFFF DUP3 PUSH3 0x954 JUMP JUMPDEST PUSH3 0x99F DUP7 DUP4 PUSH3 0x954 JUMP JUMPDEST SWAP6 POP DUP1 NOT DUP5 AND SWAP4 POP DUP1 DUP7 AND DUP5 OR SWAP3 POP POP POP SWAP4 SWAP3 POP POP POP JUMP JUMPDEST PUSH1 0x0 DUP2 SWAP1 POP SWAP2 SWAP1 POP JUMP JUMPDEST PUSH1 0x0 PUSH3 0x9E2 PUSH3 0x9DC PUSH3 0x9D6 DUP5 PUSH3 0x7EF JUMP JUMPDEST PUSH3 0x9B7 JUMP JUMPDEST PUSH3 0x7EF JUMP JUMPDEST SWAP1 POP SWAP2 SWAP1 POP JUMP JUMPDEST PUSH1 0x0 DUP2 SWAP1 POP SWAP2 SWAP1 POP JUMP JUMPDEST PUSH3 0x9FE DUP4 PUSH3 0x9C1 JUMP JUMPDEST PUSH3 0xA16 PUSH3 0xA0D DUP3 PUSH3 0x9E9 JUMP JUMPDEST DUP5 DUP5 SLOAD PUSH3 0x961 JUMP JUMPDEST DUP3 SSTORE POP POP POP POP JUMP JUMPDEST PUSH1 0x0 SWAP1 JUMP JUMPDEST PUSH3 0xA2D PUSH3 0xA1E JUMP JUMPDEST PUSH3 0xA3A DUP2 DUP5 DUP5 PUSH3 0x9F3 JUMP JUMPDEST POP POP POP JUMP JUMPDEST JUMPDEST DUP2 DUP2 LT ISZERO PUSH3 0xA62 JUMPI PUSH3 0xA56 PUSH1 0x0 DUP3 PUSH3 0xA23 JUMP JUMPDEST PUSH1 0x1 DUP2 ADD SWAP1 POP PUSH3 0xA40 JUMP JUMPDEST POP POP JUMP JUMPDEST PUSH1 0x1F DUP3 GT ISZERO PUSH3 0xAB1 JUMPI PUSH3 0xA7B DUP2 PUSH3 0x92F JUMP JUMPDEST PUSH3 0xA86 DUP5 PUSH3 0x944 JUMP JUMPDEST DUP2 ADD PUSH1 0x20 DUP6 LT ISZERO PUSH3 0xA96 JUMPI DUP2 SWAP1 POP JUMPDEST PUSH3 0xAAE PUSH3 0xAA5 DUP6 PUSH3 0x944 JUMP JUMPDEST DUP4 ADD DUP3 PUSH3 0xA3F JUMP JUMPDEST POP POP JUMPDEST POP POP POP JUMP JUMPDEST PUSH1 0x0 DUP3 DUP3 SHR SWAP1 POP SWAP3 SWAP2 POP POP JUMP JUMPDEST PUSH1 0x0 PUSH3 0xAD6 PUSH1 0x0 NOT DUP5 PUSH1 0x8 MUL PUSH3 0xAB6 JUMP JUMPDEST NOT DUP1 DUP4 AND SWAP2 POP POP SWAP3 SWAP2 POP POP JUMP JUMPDEST PUSH1 0x0 PUSH3 0xAF1 DUP4 DUP4 PUSH3 0xAC3 JUMP JUMPDEST SWAP2 POP DUP3 PUSH1 0x2 MUL DUP3 OR SWAP1 POP SWAP3 SWAP2 POP POP JUMP JUMPDEST PUSH3 0xB0C DUP3 PUSH3 0x891 JUMP JUMPDEST PUSH8 0xFFFFFFFFFFFFFFFF DUP2 GT ISZERO PUSH3 0xB28 JUMPI PUSH3 0xB27 PUSH3 0x89C JUMP JUMPDEST JUMPDEST PUSH3 0xB34 DUP3 SLOAD PUSH3 0x8FA JUMP JUMPDEST PUSH3 0xB41 DUP3 DUP3 DUP6 PUSH3 0xA66 JUMP JUMPDEST PUSH1 0x0 PUSH1 0x20 SWAP1 POP PUSH1 0x1F DUP4 GT PUSH1 0x1 DUP2 EQ PUSH3 0xB79 JUMPI PUSH1 0x0 DUP5 ISZERO PUSH3 0xB64 JUMPI DUP3 DUP8 ADD MLOAD SWAP1 POP JUMPDEST PUSH3 0xB70 DUP6 DUP3 PUSH3 0xAE3 JUMP JUMPDEST DUP7 SSTORE POP PUSH3 0xBE0 JUMP JUMPDEST PUSH1 0x1F NOT DUP5 AND PUSH3 0xB89 DUP7 PUSH3 0x92F JUMP JUMPDEST PUSH1 0x0 JUMPDEST DUP3 DUP2 LT ISZERO PUSH3 0xBB3 JUMPI DUP5 DUP10 ADD MLOAD DUP3 SSTORE PUSH1 0x1 DUP3 ADD SWAP2 POP PUSH1 0x20 DUP6 ADD SWAP5 POP PUSH1 0x20 DUP2 ADD SWAP1 POP PUSH3 0xB8C JUMP JUMPDEST DUP7 DUP4 LT ISZERO PUSH3 0xBD3 JUMPI DUP5 DUP10 ADD MLOAD PUSH3 0xBCF PUSH1 0x1F DUP10 AND DUP3 PUSH3 0xAC3 JUMP JUMPDEST DUP4 SSTORE POP JUMPDEST PUSH1 0x1 PUSH1 0x2 DUP9 MUL ADD DUP9 SSTORE POP POP POP JUMPDEST POP POP POP POP POP POP JUMP JUMPDEST PUSH2 0xCE2 DUP1 PUSH3 0xBF8 PUSH1 0x0 CODECOPY PUSH1 0x0 RETURN INVALID PUSH1 0x80 PUSH1 0x40 MSTORE CALLVALUE DUP1 ISZERO PUSH2 0x10 JUMPI PUSH1 0x0 DUP1 REVERT JUMPDEST POP PUSH1 0x4 CALLDATASIZE LT PUSH2 0x7D JUMPI PUSH1 0x0 CALLDATALOAD PUSH1 0xE0 SHR DUP1 PUSH4 0x8F32D59B GT PUSH2 0x5B JUMPI DUP1 PUSH4 0x8F32D59B EQ PUSH2 0xC8 JUMPI DUP1 PUSH4 0xB8F7F42A EQ PUSH2 0xE6 JUMPI DUP1 PUSH4 0xDCF7EEFE EQ PUSH2 0x102 JUMPI DUP1 PUSH4 0xF2FDE38B EQ PUSH2 0x132 JUMPI PUSH2 0x7D JUMP JUMPDEST DUP1 PUSH4 0x109C1238 EQ PUSH2 0x82 JUMPI DUP1 PUSH4 0x715018A6 EQ PUSH2 0xA0 JUMPI DUP1 PUSH4 0x8DA5CB5B EQ PUSH2 0xAA JUMPI JUMPDEST PUSH1 0x0 DUP1 REVERT JUMPDEST PUSH2 0x8A PUSH2 0x14E JUMP JUMPDEST PUSH1 0x40 MLOAD PUSH2 0x97 SWAP2 SWAP1 PUSH2 0x58A JUMP JUMPDEST PUSH1 0x40 MLOAD DUP1 SWAP2 SUB SWAP1 RETURN JUMPDEST PUSH2 0xA8 PUSH2 0x154 JUMP JUMPDEST STOP JUMPDEST PUSH2 0xB2 PUSH2 0x223 JUMP JUMPDEST PUSH1 0x40 MLOAD PUSH2 0xBF SWAP2 SWAP1 PUSH2 0x5E6 JUMP JUMPDEST PUSH1 0x40 MLOAD DUP1 SWAP2 SUB SWAP1 RETURN JUMPDEST PUSH2 0xD0 PUSH2 0x24C JUMP JUMPDEST PUSH1 0x40 MLOAD PUSH2 0xDD SWAP2 SWAP1 PUSH2 0x61C JUMP JUMPDEST PUSH1 0x40 MLOAD DUP1 SWAP2 SUB SWAP1 RETURN JUMPDEST PUSH2 0x100 PUSH1 0x4 DUP1 CALLDATASIZE SUB DUP2 ADD SWAP1 PUSH2 0xFB SWAP2 SWAP1 PUSH2 0x865 JUMP JUMPDEST PUSH2 0x2A3 JUMP JUMPDEST STOP JUMPDEST PUSH2 0x11C PUSH1 0x4 DUP1 CALLDATASIZE SUB DUP2 ADD SWAP1 PUSH2 0x117 SWAP2 SWAP1 PUSH2 0x8DA JUMP JUMPDEST PUSH2 0x360 JUMP JUMPDEST PUSH1 0x40 MLOAD PUSH2 0x129 SWAP2 SWAP1 PUSH2 0x58A JUMP JUMPDEST PUSH1 0x40 MLOAD DUP1 SWAP2 SUB SWAP1 RETURN JUMPDEST PUSH2 0x14C PUSH1 0x4 DUP1 CALLDATASIZE SUB DUP2 ADD SWAP1 PUSH2 0x147 SWAP2 SWAP1 PUSH2 0x933 JUMP JUMPDEST PUSH2 0x384 JUMP JUMPDEST STOP JUMPDEST PUSH1 0x1 SLOAD DUP2 JUMP JUMPDEST PUSH2 0x15C PUSH2 0x24C JUMP JUMPDEST PUSH2 0x165 JUMPI PUSH1 0x0 DUP1 REVERT JUMPDEST PUSH1 0x0 PUSH20 0xFFFFFFFFFFFFFFFFFFFFFFFFFFFFFFFFFFFFFFFF AND PUSH1 0x0 DUP1 SLOAD SWAP1 PUSH2 0x100 EXP SWAP1 DIV PUSH20 0xFFFFFFFFFFFFFFFFFFFFFFFFFFFFFFFFFFFFFFFF AND PUSH20 0xFFFFFFFFFFFFFFFFFFFFFFFFFFFFFFFFFFFFFFFF AND PUSH32 0x8BE0079C531659141344CD1FD0A4F28419497F9722A3DAAFE3B4186F6B6457E0 PUSH1 0x40 MLOAD PUSH1 0x40 MLOAD DUP1 SWAP2 SUB SWAP1 LOG3 PUSH1 0x0 DUP1 PUSH1 0x0 PUSH2 0x100 EXP DUP2 SLOAD DUP2 PUSH20 0xFFFFFFFFFFFFFFFFFFFFFFFFFFFFFFFFFFFFFFFF MUL NOT AND SWAP1 DUP4 PUSH20 0xFFFFFFFFFFFFFFFFFFFFFFFFFFFFFFFFFFFFFFFF AND MUL OR SWAP1 SSTORE POP JUMP JUMPDEST PUSH1 0x0 DUP1 PUSH1 0x0 SWAP1 SLOAD SWAP1 PUSH2 0x100 EXP SWAP1 DIV PUSH20 0xFFFFFFFFFFFFFFFFFFFFFFFFFFFFFFFFFFFFFFFF AND SWAP1 POP SWAP1 JUMP JUMPDEST PUSH1 0x0 DUP1 PUSH1 0x0 SWAP1 SLOAD SWAP1 PUSH2 0x100 EXP SWAP1 DIV PUSH20 0xFFFFFFFFFFFFFFFFFFFFFFFFFFFFFFFFFFFFFFFF AND PUSH20 0xFFFFFFFFFFFFFFFFFFFFFFFFFFFFFFFFFFFFFFFF AND CALLER PUSH20 0xFFFFFFFFFFFFFFFFFFFFFFFFFFFFFFFFFFFFFFFF AND EQ SWAP1 POP SWAP1 JUMP JUMPDEST PUSH2 0x2AB PUSH2 0x24C JUMP JUMPDEST PUSH2 0x2B4 JUMPI PUSH1 0x0 DUP1 REVERT JUMPDEST PUSH1 0x3 DUP1 DUP1 SLOAD SWAP1 POP SWAP1 DUP1 PUSH1 0x1 DUP2 SLOAD ADD DUP1 DUP3 SSTORE DUP1 SWAP2 POP POP PUSH1 0x1 SWAP1 SUB SWAP1 PUSH1 0x0 MSTORE PUSH1 0x20 PUSH1 0x0 KECCAK256 ADD PUSH1 0x0 SWAP1 SWAP2 SWAP1 SWAP2 SWAP1 SWAP2 POP SSTORE DUP1 PUSH1 0x4 PUSH1 0x0 PUSH1 0x1 PUSH1 0x3 DUP1 SLOAD SWAP1 POP PUSH2 0x2F8 SWAP2 SWAP1 PUSH2 0x98F JUMP JUMPDEST DUP2 MSTORE PUSH1 0x20 ADD SWAP1 DUP2 MSTORE PUSH1 0x20 ADD PUSH1 0x0 KECCAK256 SWAP1 PUSH1 0x5 PUSH2 0x314 SWAP3 SWAP2 SWAP1 PUSH2 0x497 JUMP JUMPDEST POP PUSH32 0xE1C7C98CDEDED3A25C1C7ADA5B85013B2C7C9879F1678129A413EA685D0FCC78 PUSH1 0x1 PUSH1 0x3 DUP1 SLOAD SWAP1 POP PUSH2 0x348 SWAP2 SWAP1 PUSH2 0x98F JUMP JUMPDEST PUSH1 0x40 MLOAD PUSH2 0x355 SWAP2 SWAP1 PUSH2 0x58A JUMP JUMPDEST PUSH1 0x40 MLOAD DUP1 SWAP2 SUB SWAP1 LOG1 POP JUMP JUMPDEST PUSH1 0x3 DUP2 DUP2 SLOAD DUP2 LT PUSH2 0x370 JUMPI PUSH1 0x0 DUP1 REVERT JUMPDEST SWAP1 PUSH1 0x0 MSTORE PUSH1 0x20 PUSH1 0x0 KECCAK256 ADD PUSH1 0x0 SWAP2 POP SWAP1 POP SLOAD DUP2 JUMP JUMPDEST PUSH2 0x38C PUSH2 0x24C JUMP JUMPDEST PUSH2 0x395 JUMPI PUSH1 0x0 DUP1 REVERT JUMPDEST PUSH2 0x39E DUP2 PUSH2 0x3A1 JUMP JUMPDEST POP JUMP JUMPDEST PUSH1 0x0 PUSH20 0xFFFFFFFFFFFFFFFFFFFFFFFFFFFFFFFFFFFFFFFF AND DUP2 PUSH20 0xFFFFFFFFFFFFFFFFFFFFFFFFFFFFFFFFFFFFFFFF AND SUB PUSH2 0x3DA JUMPI PUSH1 0x0 DUP1 REVERT JUMPDEST DUP1 PUSH20 0xFFFFFFFFFFFFFFFFFFFFFFFFFFFFFFFFFFFFFFFF AND PUSH1 0x0 DUP1 SLOAD SWAP1 PUSH2 0x100 EXP SWAP1 DIV PUSH20 0xFFFFFFFFFFFFFFFFFFFFFFFFFFFFFFFFFFFFFFFF AND PUSH20 0xFFFFFFFFFFFFFFFFFFFFFFFFFFFFFFFFFFFFFFFF AND PUSH32 0x8BE0079C531659141344CD1FD0A4F28419497F9722A3DAAFE3B4186F6B6457E0 PUSH1 0x40 MLOAD PUSH1 0x40 MLOAD DUP1 SWAP2 SUB SWAP1 LOG3 DUP1 PUSH1 0x0 DUP1 PUSH2 0x100 EXP DUP2 SLOAD DUP2 PUSH20 0xFFFFFFFFFFFFFFFFFFFFFFFFFFFFFFFFFFFFFFFF MUL NOT AND SWAP1 DUP4 PUSH20 0xFFFFFFFFFFFFFFFFFFFFFFFFFFFFFFFFFFFFFFFF AND MUL OR SWAP1 SSTORE POP POP JUMP JUMPDEST DUP3 DUP1 SLOAD DUP3 DUP3 SSTORE SWAP1 PUSH1 0x0 MSTORE PUSH1 0x20 PUSH1 0x0 KECCAK256 SWAP1 DUP2 ADD SWAP3 DUP3 ISZERO PUSH2 0x4DF JUMPI SWAP2 PUSH1 0x20 MUL DUP3 ADD JUMPDEST DUP3 DUP2 GT ISZERO PUSH2 0x4DE JUMPI DUP3 MLOAD DUP3 SWAP1 DUP2 PUSH2 0x4CE SWAP2 SWAP1 PUSH2 0xBDA JUMP JUMPDEST POP SWAP2 PUSH1 0x20 ADD SWAP2 SWAP1 PUSH1 0x1 ADD SWAP1 PUSH2 0x4B7 JUMP JUMPDEST JUMPDEST POP SWAP1 POP PUSH2 0x4EC SWAP2 SWAP1 PUSH2 0x4F0 JUMP JUMPDEST POP SWAP1 JUMP JUMPDEST JUMPDEST DUP1 DUP3 GT ISZERO PUSH2 0x510 JUMPI PUSH1 0x0 DUP2 DUP2 PUSH2 0x507 SWAP2 SWAP1 PUSH2 0x514 JUMP JUMPDEST POP PUSH1 0x1 ADD PUSH2 0x4F1 JUMP JUMPDEST POP SWAP1 JUMP JUMPDEST POP DUP1 SLOAD PUSH2 0x520 SWAP1 PUSH2 0x9FD JUMP JUMPDEST PUSH1 0x0 DUP3 SSTORE DUP1 PUSH1 0x1F LT PUSH2 0x532 JUMPI POP PUSH2 0x551 JUMP JUMPDEST PUSH1 0x1F ADD PUSH1 0x20 SWAP1 DIV SWAP1 PUSH1 0x0 MSTORE PUSH1 0x20 PUSH1 0x0 KECCAK256 SWAP1 DUP2 ADD SWAP1 PUSH2 0x550 SWAP2 SWAP1 PUSH2 0x554 JUMP JUMPDEST JUMPDEST POP JUMP JUMPDEST JUMPDEST DUP1 DUP3 GT ISZERO PUSH2 0x56D JUMPI PUSH1 0x0 DUP2 PUSH1 0x0 SWAP1 SSTORE POP PUSH1 0x1 ADD PUSH2 0x555 JUMP JUMPDEST POP SWAP1 JUMP JUMPDEST PUSH1 0x0 DUP2 SWAP1 POP SWAP2 SWAP1 POP JUMP JUMPDEST PUSH2 0x584 DUP2 PUSH2 0x571 JUMP JUMPDEST DUP3 MSTORE POP POP JUMP JUMPDEST PUSH1 0x0 PUSH1 0x20 DUP3 ADD SWAP1 POP PUSH2 0x59F PUSH1 0x0 DUP4 ADD DUP5 PUSH2 0x57B JUMP JUMPDEST SWAP3 SWAP2 POP POP JUMP JUMPDEST PUSH1 0x0 PUSH20 0xFFFFFFFFFFFFFFFFFFFFFFFFFFFFFFFFFFFFFFFF DUP3 AND SWAP1 POP SWAP2 SWAP1 POP JUMP JUMPDEST PUSH1 0x0 PUSH2 0x5D0 DUP3 PUSH2 0x5A5 JUMP JUMPDEST SWAP1 POP SWAP2 SWAP1 POP JUMP JUMPDEST PUSH2 0x5E0 DUP2 PUSH2 0x5C5 JUMP JUMPDEST DUP3 MSTORE POP POP JUMP JUMPDEST PUSH1 0x0 PUSH1 0x20 DUP3 ADD SWAP1 POP PUSH2 0x5FB PUSH1 0x0 DUP4 ADD DUP5 PUSH2 0x5D7 JUMP JUMPDEST SWAP3 SWAP2 POP POP JUMP JUMPDEST PUSH1 0x0 DUP2 ISZERO ISZERO SWAP1 POP SWAP2 SWAP1 POP JUMP JUMPDEST PUSH2 0x616 DUP2 PUSH2 0x601 JUMP JUMPDEST DUP3 MSTORE POP POP JUMP JUMPDEST PUSH1 0x0 PUSH1 0x20 DUP3 ADD SWAP1 POP PUSH2 0x631 PUSH1 0x0 DUP4 ADD DUP5 PUSH2 0x60D JUMP JUMPDEST SWAP3 SWAP2 POP POP JUMP JUMPDEST PUSH1 0x0 PUSH1 0x40 MLOAD SWAP1 POP SWAP1 JUMP JUMPDEST PUSH1 0x0 DUP1 REVERT JUMPDEST PUSH1 0x0 DUP1 REVERT JUMPDEST PUSH1 0x0 DUP1 REVERT JUMPDEST PUSH1 0x0 PUSH1 0x1F NOT PUSH1 0x1F DUP4 ADD AND SWAP1 POP SWAP2 SWAP1 POP JUMP JUMPDEST PUSH32 0x4E487B7100000000000000000000000000000000000000000000000000000000 PUSH1 0x0 MSTORE PUSH1 0x41 PUSH1 0x4 MSTORE PUSH1 0x24 PUSH1 0x0 REVERT JUMPDEST PUSH2 0x699 DUP3 PUSH2 0x650 JUMP JUMPDEST DUP2 ADD DUP2 DUP2 LT PUSH8 0xFFFFFFFFFFFFFFFF DUP3 GT OR ISZERO PUSH2 0x6B8 JUMPI PUSH2 0x6B7 PUSH2 0x661 JUMP JUMPDEST JUMPDEST DUP1 PUSH1 0x40 MSTORE POP POP POP JUMP JUMPDEST PUSH1 0x0 PUSH2 0x6CB PUSH2 0x637 JUMP JUMPDEST SWAP1 POP PUSH2 0x6D7 DUP3 DUP3 PUSH2 0x690 JUMP JUMPDEST SWAP2 SWAP1 POP JUMP JUMPDEST PUSH1 0x0 PUSH8 0xFFFFFFFFFFFFFFFF DUP3 GT ISZERO PUSH2 0x6F7 JUMPI PUSH2 0x6F6 PUSH2 0x661 JUMP JUMPDEST JUMPDEST PUSH1 0x20 DUP3 MUL SWAP1 POP SWAP2 SWAP1 POP JUMP JUMPDEST PUSH1 0x0 DUP1 REVERT JUMPDEST PUSH1 0x0 DUP1 REVERT JUMPDEST PUSH1 0x0 PUSH8 0xFFFFFFFFFFFFFFFF DUP3 GT ISZERO PUSH2 0x727 JUMPI PUSH2 0x726 PUSH2 0x661 JUMP JUMPDEST JUMPDEST PUSH2 0x730 DUP3 PUSH2 0x650 JUMP JUMPDEST SWAP1 POP PUSH1 0x20 DUP2 ADD SWAP1 POP SWAP2 SWAP1 POP JUMP JUMPDEST DUP3 DUP2 DUP4 CALLDATACOPY PUSH1 0x0 DUP4 DUP4 ADD MSTORE POP POP POP JUMP JUMPDEST PUSH1 0x0 PUSH2 0x75F PUSH2 0x75A DUP5 PUSH2 0x70C JUMP JUMPDEST PUSH2 0x6C1 JUMP JUMPDEST SWAP1 POP DUP3 DUP2 MSTORE PUSH1 0x20 DUP2 ADD DUP5 DUP5 DUP5 ADD GT ISZERO PUSH2 0x77B JUMPI PUSH2 0x77A PUSH2 0x707 JUMP JUMPDEST JUMPDEST PUSH2 0x786 DUP5 DUP3 DUP6 PUSH2 0x73D JUMP JUMPDEST POP SWAP4 SWAP3 POP POP POP JUMP JUMPDEST PUSH1 0x0 DUP3 PUSH1 0x1F DUP4 ADD SLT PUSH2 0x7A3 JUMPI PUSH2 0x7A2 PUSH2 0x64B JUMP JUMPDEST JUMPDEST DUP2 CALLDATALOAD PUSH2 0x7B3 DUP5 DUP3 PUSH1 0x20 DUP7 ADD PUSH2 0x74C JUMP JUMPDEST SWAP2 POP POP SWAP3 SWAP2 POP POP JUMP JUMPDEST PUSH1 0x0 PUSH2 0x7CF PUSH2 0x7CA DUP5 PUSH2 0x6DC JUMP JUMPDEST PUSH2 0x6C1 JUMP JUMPDEST SWAP1 POP DUP1 PUSH1 0x20 DUP5 MUL DUP4 ADD DUP6 DUP2 GT ISZERO PUSH2 0x7E9 JUMPI PUSH2 0x7E8 PUSH2 0x702 JUMP JUMPDEST JUMPDEST DUP4 JUMPDEST DUP2 DUP2 LT ISZERO PUSH2 0x830 JUMPI DUP1 CALLDATALOAD PUSH8 0xFFFFFFFFFFFFFFFF DUP2 GT ISZERO PUSH2 0x80E JUMPI PUSH2 0x80D PUSH2 0x64B JUMP JUMPDEST JUMPDEST DUP1 DUP7 ADD PUSH2 0x81B DUP10 DUP3 PUSH2 0x78E JUMP JUMPDEST DUP6 MSTORE PUSH1 0x20 DUP6 ADD SWAP5 POP POP POP PUSH1 0x20 DUP2 ADD SWAP1 POP PUSH2 0x7EB JUMP JUMPDEST POP POP POP SWAP4 SWAP3 POP POP POP JUMP JUMPDEST PUSH1 0x0 DUP3 PUSH1 0x1F DUP4 ADD SLT PUSH2 0x84F JUMPI PUSH2 0x84E PUSH2 0x64B JUMP JUMPDEST JUMPDEST PUSH1 0x5 PUSH2 0x85C DUP5 DUP3 DUP6 PUSH2 0x7BC JUMP JUMPDEST SWAP2 POP POP SWAP3 SWAP2 POP POP JUMP JUMPDEST PUSH1 0x0 PUSH1 0x20 DUP3 DUP5 SUB SLT ISZERO PUSH2 0x87B JUMPI PUSH2 0x87A PUSH2 0x641 JUMP JUMPDEST JUMPDEST PUSH1 0x0 DUP3 ADD CALLDATALOAD PUSH8 0xFFFFFFFFFFFFFFFF DUP2 GT ISZERO PUSH2 0x899 JUMPI PUSH2 0x898 PUSH2 0x646 JUMP JUMPDEST JUMPDEST PUSH2 0x8A5 DUP5 DUP3 DUP6 ADD PUSH2 0x83A JUMP JUMPDEST SWAP2 POP POP SWAP3 SWAP2 POP POP JUMP JUMPDEST PUSH2 0x8B7 DUP2 PUSH2 0x571 JUMP JUMPDEST DUP2 EQ PUSH2 0x8C2 JUMPI PUSH1 0x0 DUP1 REVERT JUMPDEST POP JUMP JUMPDEST PUSH1 0x0 DUP2 CALLDATALOAD SWAP1 POP PUSH2 0x8D4 DUP2 PUSH2 0x8AE JUMP JUMPDEST SWAP3 SWAP2 POP POP JUMP JUMPDEST PUSH1 0x0 PUSH1 0x20 DUP3 DUP5 SUB SLT ISZERO PUSH2 0x8F0 JUMPI PUSH2 0x8EF PUSH2 0x641 JUMP JUMPDEST JUMPDEST PUSH1 0x0 PUSH2 0x8FE DUP5 DUP3 DUP6 ADD PUSH2 0x8C5 JUMP JUMPDEST SWAP2 POP POP SWAP3 SWAP2 POP POP JUMP JUMPDEST PUSH2 0x910 DUP2 PUSH2 0x5C5 JUMP JUMPDEST DUP2 EQ PUSH2 0x91B JUMPI PUSH1 0x0 DUP1 REVERT JUMPDEST POP JUMP JUMPDEST PUSH1 0x0 DUP2 CALLDATALOAD SWAP1 POP PUSH2 0x92D DUP2 PUSH2 0x907 JUMP JUMPDEST SWAP3 SWAP2 POP POP JUMP JUMPDEST PUSH1 0x0 PUSH1 0x20 DUP3 DUP5 SUB SLT ISZERO PUSH2 0x949 JUMPI PUSH2 0x948 PUSH2 0x641 JUMP JUMPDEST JUMPDEST PUSH1 0x0 PUSH2 0x957 DUP5 DUP3 DUP6 ADD PUSH2 0x91E JUMP JUMPDEST SWAP2 POP POP SWAP3 SWAP2 POP POP JUMP JUMPDEST PUSH32 0x4E487B7100000000000000000000000000000000000000000000000000000000 PUSH1 0x0 MSTORE PUSH1 0x11 PUSH1 0x4 MSTORE PUSH1 0x24 PUSH1 0x0 REVERT JUMPDEST PUSH1 0x0 PUSH2 0x99A DUP3 PUSH2 0x571 JUMP JUMPDEST SWAP2 POP PUSH2 0x9A5 DUP4 PUSH2 0x571 JUMP JUMPDEST SWAP3 POP DUP3 DUP3 SUB SWAP1 POP DUP2 DUP2 GT ISZERO PUSH2 0x9BD JUMPI PUSH2 0x9BC PUSH2 0x960 JUMP JUMPDEST JUMPDEST SWAP3 SWAP2 POP POP JUMP JUMPDEST PUSH1 0x0 DUP2 MLOAD SWAP1 POP SWAP2 SWAP1 POP JUMP JUMPDEST PUSH32 0x4E487B7100000000000000000000000000000000000000000000000000000000 PUSH1 0x0 MSTORE PUSH1 0x22 PUSH1 0x4 MSTORE PUSH1 0x24 PUSH1 0x0 REVERT JUMPDEST PUSH1 0x0 PUSH1 0x2 DUP3 DIV SWAP1 POP PUSH1 0x1 DUP3 AND DUP1 PUSH2 0xA15 JUMPI PUSH1 0x7F DUP3 AND SWAP2 POP JUMPDEST PUSH1 0x20 DUP3 LT DUP2 SUB PUSH2 0xA28 JUMPI PUSH2 0xA27 PUSH2 0x9CE JUMP JUMPDEST JUMPDEST POP SWAP2 SWAP1 POP JUMP JUMPDEST PUSH1 0x0 DUP2 SWAP1 POP DUP2 PUSH1 0x0 MSTORE PUSH1 0x20 PUSH1 0x0 KECCAK256 SWAP1 POP SWAP2 SWAP1 POP JUMP JUMPDEST PUSH1 0x0 PUSH1 0x20 PUSH1 0x1F DUP4 ADD DIV SWAP1 POP SWAP2 SWAP1 POP JUMP JUMPDEST PUSH1 0x0 DUP3 DUP3 SHL SWAP1 POP SWAP3 SWAP2 POP POP JUMP JUMPDEST PUSH1 0x0 PUSH1 0x8 DUP4 MUL PUSH2 0xA90 PUSH32 0xFFFFFFFFFFFFFFFFFFFFFFFFFFFFFFFFFFFFFFFFFFFFFFFFFFFFFFFFFFFFFFFF DUP3 PUSH2 0xA53 JUMP JUMPDEST PUSH2 0xA9A DUP7 DUP4 PUSH2 0xA53 JUMP JUMPDEST SWAP6 POP DUP1 NOT DUP5 AND SWAP4 POP DUP1 DUP7 AND DUP5 OR SWAP3 POP POP POP SWAP4 SWAP3 POP POP POP JUMP JUMPDEST PUSH1 0x0 DUP2 SWAP1 POP SWAP2 SWAP1 POP JUMP JUMPDEST PUSH1 0x0 PUSH2 0xAD7 PUSH2 0xAD2 PUSH2 0xACD DUP5 PUSH2 0x571 JUMP JUMPDEST PUSH2 0xAB2 JUMP JUMPDEST PUSH2 0x571 JUMP JUMPDEST SWAP1 POP SWAP2 SWAP1 POP JUMP JUMPDEST PUSH1 0x0 DUP2 SWAP1 POP SWAP2 SWAP1 POP JUMP JUMPDEST PUSH2 0xAF1 DUP4 PUSH2 0xABC JUMP JUMPDEST PUSH2 0xB05 PUSH2 0xAFD DUP3 PUSH2 0xADE JUMP JUMPDEST DUP5 DUP5 SLOAD PUSH2 0xA60 JUMP JUMPDEST DUP3 SSTORE POP POP POP POP JUMP JUMPDEST PUSH1 0x0 SWAP1 JUMP JUMPDEST PUSH2 0xB1A PUSH2 0xB0D JUMP JUMPDEST PUSH2 0xB25 DUP2 DUP5 DUP5 PUSH2 0xAE8 JUMP JUMPDEST POP POP POP JUMP JUMPDEST JUMPDEST DUP2 DUP2 LT ISZERO PUSH2 0xB49 JUMPI PUSH2 0xB3E PUSH1 0x0 DUP3 PUSH2 0xB12 JUMP JUMPDEST PUSH1 0x1 DUP2 ADD SWAP1 POP PUSH2 0xB2B JUMP JUMPDEST POP POP JUMP JUMPDEST PUSH1 0x1F DUP3 GT ISZERO PUSH2 0xB8E JUMPI PUSH2 0xB5F DUP2 PUSH2 0xA2E JUMP JUMPDEST PUSH2 0xB68 DUP5 PUSH2 0xA43 JUMP JUMPDEST DUP2 ADD PUSH1 0x20 DUP6 LT ISZERO PUSH2 0xB77 JUMPI DUP2 SWAP1 POP JUMPDEST PUSH2 0xB8B PUSH2 0xB83 DUP6 PUSH2 0xA43 JUMP JUMPDEST DUP4 ADD DUP3 PUSH2 0xB2A JUMP JUMPDEST POP POP JUMPDEST POP POP POP JUMP JUMPDEST PUSH1 0x0 DUP3 DUP3 SHR SWAP1 POP SWAP3 SWAP2 POP POP JUMP JUMPDEST PUSH1 0x0 PUSH2 0xBB1 PUSH1 0x0 NOT DUP5 PUSH1 0x8 MUL PUSH2 0xB93 JUMP JUMPDEST NOT DUP1 DUP4 AND SWAP2 POP POP SWAP3 SWAP2 POP POP JUMP JUMPDEST PUSH1 0x0 PUSH2 0xBCA DUP4 DUP4 PUSH2 0xBA0 JUMP JUMPDEST SWAP2 POP DUP3 PUSH1 0x2 MUL DUP3 OR SWAP1 POP SWAP3 SWAP2 POP POP JUMP JUMPDEST PUSH2 0xBE3 DUP3 PUSH2 0x9C3 JUMP JUMPDEST PUSH8 0xFFFFFFFFFFFFFFFF DUP2 GT ISZERO PUSH2 0xBFC JUMPI PUSH2 0xBFB PUSH2 0x661 JUMP JUMPDEST JUMPDEST PUSH2 0xC06 DUP3 SLOAD PUSH2 0x9FD JUMP JUMPDEST PUSH2 0xC11 DUP3 DUP3 DUP6 PUSH2 0xB4D JUMP JUMPDEST PUSH1 0x0 PUSH1 0x20 SWAP1 POP PUSH1 0x1F DUP4 GT PUSH1 0x1 DUP2 EQ PUSH2 0xC44 JUMPI PUSH1 0x0 DUP5 ISZERO PUSH2 0xC32 JUMPI DUP3 DUP8 ADD MLOAD SWAP1 POP JUMPDEST PUSH2 0xC3C DUP6 DUP3 PUSH2 0xBBE JUMP JUMPDEST DUP7 SSTORE POP PUSH2 0xCA4 JUMP JUMPDEST PUSH1 0x1F NOT DUP5 AND PUSH2 0xC52 DUP7 PUSH2 0xA2E JUMP JUMPDEST PUSH1 0x0 JUMPDEST DUP3 DUP2 LT ISZERO PUSH2 0xC7A JUMPI DUP5 DUP10 ADD MLOAD DUP3 SSTORE PUSH1 0x1 DUP3 ADD SWAP2 POP PUSH1 0x20 DUP6 ADD SWAP5 POP PUSH1 0x20 DUP2 ADD SWAP1 POP PUSH2 0xC55 JUMP JUMPDEST DUP7 DUP4 LT ISZERO PUSH2 0xC97 JUMPI DUP5 DUP10 ADD MLOAD PUSH2 0xC93 PUSH1 0x1F DUP10 AND DUP3 PUSH2 0xBA0 JUMP JUMPDEST DUP4 SSTORE POP JUMPDEST PUSH1 0x1 PUSH1 0x2 DUP9 MUL ADD DUP9 SSTORE POP POP POP JUMPDEST POP POP POP POP POP POP JUMP INVALID LOG2 PUSH5 0x6970667358 0x22 SLT KECCAK256 DUP12 0xCF PUSH15 0xEDA295C1F9F0D431500AB07EE3E5AF BLOCKHASH 0xF8 SWAP5 0x1F 0xB0 BASEFEE 0x2F EXTCODECOPY 0x27 0xD5 CALLDATALOAD ADD LOG3 0xA6 PUSH5 0x736F6C6343 STOP ADDMOD SLT STOP CALLER "
				},
				"gasEstimates": {
					"creation": {
						"codeDepositCost": "659600",
						"executionCost": "infinite",
						"totalCost": "infinite"
					},
					"external": {
						"addPalette(string[5])": "infinite",
						"colorAmountPerPalette()": "2430",
						"isOwner()": "2496",
						"owner()": "2567",
						"palettes(uint256)": "infinite",
						"renounceOwnership()": "30317",
						"transferOwnership(address)": "30735"
					},
					"internal": {
						"_getRandomColorIndex()": "infinite",
						"_getRandomPalleteIndex()": "infinite",
						"_random(uint256)": "infinite"
					}
				},
				"methodIdentifiers": {
					"addPalette(string[5])": "b8f7f42a",
					"colorAmountPerPalette()": "109c1238",
					"isOwner()": "8f32d59b",
					"owner()": "8da5cb5b",
					"palettes(uint256)": "dcf7eefe",
					"renounceOwnership()": "715018a6",
					"transferOwnership(address)": "f2fde38b"
				}
			},
			"storageLayout": {
				"storage": [
					{
						"astId": 4,
						"contract": "contracts/StrawberryColorPaletteFactory.sol:StrawberryColorPaletteFactory",
						"label": "_owner",
						"offset": 0,
						"slot": "0",
						"type": "t_address"
					},
					{
						"astId": 128,
						"contract": "contracts/StrawberryColorPaletteFactory.sol:StrawberryColorPaletteFactory",
						"label": "colorAmountPerPalette",
						"offset": 0,
						"slot": "1",
						"type": "t_uint256"
					},
					{
						"astId": 131,
						"contract": "contracts/StrawberryColorPaletteFactory.sol:StrawberryColorPaletteFactory",
						"label": "randNonce",
						"offset": 0,
						"slot": "2",
						"type": "t_uint256"
					},
					{
						"astId": 134,
						"contract": "contracts/StrawberryColorPaletteFactory.sol:StrawberryColorPaletteFactory",
						"label": "palettes",
						"offset": 0,
						"slot": "3",
						"type": "t_array(t_uint256)dyn_storage"
					},
					{
						"astId": 139,
						"contract": "contracts/StrawberryColorPaletteFactory.sol:StrawberryColorPaletteFactory",
						"label": "paletteToColors",
						"offset": 0,
						"slot": "4",
						"type": "t_mapping(t_uint256,t_array(t_string_storage)dyn_storage)"
					}
				],
				"types": {
					"t_address": {
						"encoding": "inplace",
						"label": "address",
						"numberOfBytes": "20"
					},
					"t_array(t_string_storage)dyn_storage": {
						"base": "t_string_storage",
						"encoding": "dynamic_array",
						"label": "string[]",
						"numberOfBytes": "32"
					},
					"t_array(t_uint256)dyn_storage": {
						"base": "t_uint256",
						"encoding": "dynamic_array",
						"label": "uint256[]",
						"numberOfBytes": "32"
					},
					"t_mapping(t_uint256,t_array(t_string_storage)dyn_storage)": {
						"encoding": "mapping",
						"key": "t_uint256",
						"label": "mapping(uint256 => string[])",
						"numberOfBytes": "32",
						"value": "t_array(t_string_storage)dyn_storage"
					},
					"t_string_storage": {
						"encoding": "bytes",
						"label": "string",
						"numberOfBytes": "32"
					},
					"t_uint256": {
						"encoding": "inplace",
						"label": "uint256",
						"numberOfBytes": "32"
					}
				}
			},
			"userdoc": {
				"kind": "user",
				"methods": {
					"renounceOwnership()": {
						"notice": "Renouncing to ownership will leave the contract without an owner. It will not be possible to call the functions with the `onlyOwner` modifier anymore."
					}
				},
				"version": 1
			}
		}
	}
}