{
	"contracts/StrawberryDonorFactory.sol": {
		"StrawberryDonorFactory": {
			"abi": [
				{
					"anonymous": false,
					"inputs": [
						{
							"indexed": false,
							"internalType": "uint256",
							"name": "donorId",
							"type": "uint256"
						},
						{
							"indexed": false,
							"internalType": "string",
							"name": "donorName",
							"type": "string"
						}
					],
					"name": "DonorCreated",
					"type": "event"
				},
				{
					"anonymous": false,
					"inputs": [
						{
							"indexed": false,
							"internalType": "uint256",
							"name": "itemId",
							"type": "uint256"
						},
						{
							"indexed": false,
							"internalType": "uint256",
							"name": "itemColorId",
							"type": "uint256"
						}
					],
					"name": "ItemAdded",
					"type": "event"
				},
				{
					"anonymous": false,
					"inputs": [
						{
							"indexed": true,
							"internalType": "address",
							"name": "previousOwner",
							"type": "address"
						},
						{
							"indexed": true,
							"internalType": "address",
							"name": "newOwner",
							"type": "address"
						}
					],
					"name": "OwnershipTransferred",
					"type": "event"
				},
				{
					"anonymous": false,
					"inputs": [
						{
							"indexed": false,
							"internalType": "uint256",
							"name": "paletteId",
							"type": "uint256"
						}
					],
					"name": "PaletteCreated",
					"type": "event"
				},
				{
					"inputs": [
						{
							"internalType": "uint256",
							"name": "_donorId",
							"type": "uint256"
						}
					],
					"name": "_addItem",
					"outputs": [],
					"stateMutability": "nonpayable",
					"type": "function"
				},
				{
					"inputs": [
						{
							"internalType": "string[5]",
							"name": "_colors",
							"type": "string[5]"
						}
					],
					"name": "addPalette",
					"outputs": [],
					"stateMutability": "nonpayable",
					"type": "function"
				},
				{
					"inputs": [
						{
							"internalType": "uint256",
							"name": "_donorId",
							"type": "uint256"
						},
						{
							"internalType": "uint256",
							"name": "_paletteId",
							"type": "uint256"
						}
					],
					"name": "changeColorPalette",
					"outputs": [],
					"stateMutability": "payable",
					"type": "function"
				},
				{
					"inputs": [],
					"name": "colorAmountPerPalette",
					"outputs": [
						{
							"internalType": "uint256",
							"name": "",
							"type": "uint256"
						}
					],
					"stateMutability": "view",
					"type": "function"
				},
				{
					"inputs": [
						{
							"internalType": "address",
							"name": "_owner",
							"type": "address"
						}
					],
					"name": "getOwnerByAddress",
					"outputs": [
						{
							"internalType": "uint256",
							"name": "",
							"type": "uint256"
						}
					],
					"stateMutability": "view",
					"type": "function"
				},
				{
					"inputs": [],
					"name": "isOwner",
					"outputs": [
						{
							"internalType": "bool",
							"name": "",
							"type": "bool"
						}
					],
					"stateMutability": "view",
					"type": "function"
				},
				{
					"inputs": [],
					"name": "owner",
					"outputs": [
						{
							"internalType": "address",
							"name": "",
							"type": "address"
						}
					],
					"stateMutability": "view",
					"type": "function"
				},
				{
					"inputs": [
						{
							"internalType": "uint256",
							"name": "",
							"type": "uint256"
						}
					],
					"name": "palettes",
					"outputs": [
						{
							"internalType": "uint256",
							"name": "",
							"type": "uint256"
						}
					],
					"stateMutability": "view",
					"type": "function"
				},
				{
					"inputs": [],
					"name": "renounceOwnership",
					"outputs": [],
					"stateMutability": "nonpayable",
					"type": "function"
				},
				{
					"inputs": [
						{
							"internalType": "address",
							"name": "newOwner",
							"type": "address"
						}
					],
					"name": "transferOwnership",
					"outputs": [],
					"stateMutability": "nonpayable",
					"type": "function"
				}
			],
			"devdoc": {
				"kind": "dev",
				"methods": {
					"isOwner()": {
						"returns": {
							"_0": "true if `msg.sender` is the owner of the contract."
						}
					},
					"owner()": {
						"returns": {
							"_0": "the address of the owner."
						}
					},
					"renounceOwnership()": {
						"details": "Allows the current owner to relinquish control of the contract."
					},
					"transferOwnership(address)": {
						"details": "Allows the current owner to transfer control of the contract to a newOwner.",
						"params": {
							"newOwner": "The address to transfer ownership to."
						}
					}
				},
				"version": 1
			},
			"evm": {
				"assembly": "    /* \"contracts/StrawberryDonorFactory.sol\":155:1485  contract StrawberryDonorFactory is StrawberryColorPaletteFactory, StrawberryItemFactory {... */\n  mstore(0x40, 0x80)\n    /* \"contracts/StrawberryColorPaletteFactory.sol\":187:188  5 */\n  0x05\n    /* \"contracts/StrawberryColorPaletteFactory.sol\":151:188  uint public colorAmountPerPalette = 5 */\n  0x01\n  sstore\n    /* \"contracts/StrawberryColorPaletteFactory.sol\":219:220  0 */\n  0x00\n    /* \"contracts/StrawberryColorPaletteFactory.sol\":194:220  uint private randNonce = 0 */\n  0x02\n  sstore\n    /* \"contracts/StrawberryDonorFactory.sol\":381:392  0.001 ether */\n  0x038d7ea4c68000\n    /* \"contracts/StrawberryDonorFactory.sol\":352:392  uint changeColorPaletteFee = 0.001 ether */\n  0x06\n  sstore\n    /* \"contracts/StrawberryDonorFactory.sol\":155:1485  contract StrawberryDonorFactory is StrawberryColorPaletteFactory, StrawberryItemFactory {... */\n  callvalue\n  dup1\n  iszero\n  tag_1\n  jumpi\n  0x00\n  dup1\n  revert\ntag_1:\n  pop\n    /* \"contracts/Ownable.sol\":574:584  msg.sender */\n  caller\n    /* \"contracts/Ownable.sol\":565:571  _owner */\n  0x00\n  dup1\n    /* \"contracts/Ownable.sol\":565:584  _owner = msg.sender */\n  0x0100\n  exp\n  dup2\n  sload\n  dup2\n  0xffffffffffffffffffffffffffffffffffffffff\n  mul\n  not\n  and\n  swap1\n  dup4\n  0xffffffffffffffffffffffffffffffffffffffff\n  and\n  mul\n  or\n  swap1\n  sstore\n  pop\n    /* \"contracts/Ownable.sol\":632:638  _owner */\n  0x00\n  dup1\n  sload\n  swap1\n  0x0100\n  exp\n  swap1\n  div\n  0xffffffffffffffffffffffffffffffffffffffff\n  and\n    /* \"contracts/Ownable.sol\":599:639  OwnershipTransferred(address(0), _owner) */\n  0xffffffffffffffffffffffffffffffffffffffff\n  and\n    /* \"contracts/Ownable.sol\":628:629  0 */\n  0x00\n    /* \"contracts/Ownable.sol\":599:639  OwnershipTransferred(address(0), _owner) */\n  0xffffffffffffffffffffffffffffffffffffffff\n  and\n  0x8be0079c531659141344cd1fd0a4f28419497f9722a3daafe3b4186f6b6457e0\n  mload(0x40)\n  mload(0x40)\n  dup1\n  swap2\n  sub\n  swap1\n  log3\n    /* \"contracts/StrawberryColorPaletteFactory.sol\":376:448  addPalette([\"0x845EC2\", \"0x4B4453\", \"0xB0A8B9\", \"0xC34A36\", \"0xFF8066\"]) */\n  tag_6\n  mload(0x40)\n  dup1\n  0xa0\n  add\n  0x40\n  mstore\n  dup1\n  mload(0x40)\n  dup1\n  0x40\n  add\n  0x40\n  mstore\n  dup1\n  0x08\n  dup2\n  mstore\n  0x20\n  add\n  0x3078383435454332000000000000000000000000000000000000000000000000\n  dup2\n  mstore\n  pop\n  dup2\n  mstore\n  0x20\n  add\n  mload(0x40)\n  dup1\n  0x40\n  add\n  0x40\n  mstore\n  dup1\n  0x08\n  dup2\n  mstore\n  0x20\n  add\n  0x3078344234343533000000000000000000000000000000000000000000000000\n  dup2\n  mstore\n  pop\n  dup2\n  mstore\n  0x20\n  add\n  mload(0x40)\n  dup1\n  0x40\n  add\n  0x40\n  mstore\n  dup1\n  0x08\n  dup2\n  mstore\n  0x20\n  add\n  0x3078423041384239000000000000000000000000000000000000000000000000\n  dup2\n  mstore\n  pop\n  dup2\n  mstore\n  0x20\n  add\n  mload(0x40)\n  dup1\n  0x40\n  add\n  0x40\n  mstore\n  dup1\n  0x08\n  dup2\n  mstore\n  0x20\n  add\n  0x3078433334413336000000000000000000000000000000000000000000000000\n  dup2\n  mstore\n  pop\n  dup2\n  mstore\n  0x20\n  add\n  mload(0x40)\n  dup1\n  0x40\n  add\n  0x40\n  mstore\n  dup1\n  0x08\n  dup2\n  mstore\n  0x20\n  add\n  0x3078464638303636000000000000000000000000000000000000000000000000\n  dup2\n  mstore\n  pop\n  dup2\n  mstore\n  pop\n    /* \"contracts/StrawberryColorPaletteFactory.sol\":376:386  addPalette */\n  shl(0x20, tag_7)\n    /* \"contracts/StrawberryColorPaletteFactory.sol\":376:448  addPalette([\"0x845EC2\", \"0x4B4453\", \"0xB0A8B9\", \"0xC34A36\", \"0xFF8066\"]) */\n  0x20\n  shr\n  jump\t// in\ntag_6:\n    /* \"contracts/StrawberryColorPaletteFactory.sol\":458:530  addPalette([\"0x699674\", \"0x3B4A3F\", \"0x9EAFA2\", \"0x4E94B3\", \"0x03617E\"]) */\n  tag_8\n  mload(0x40)\n  dup1\n  0xa0\n  add\n  0x40\n  mstore\n  dup1\n  mload(0x40)\n  dup1\n  0x40\n  add\n  0x40\n  mstore\n  dup1\n  0x08\n  dup2\n  mstore\n  0x20\n  add\n  0x3078363939363734000000000000000000000000000000000000000000000000\n  dup2\n  mstore\n  pop\n  dup2\n  mstore\n  0x20\n  add\n  mload(0x40)\n  dup1\n  0x40\n  add\n  0x40\n  mstore\n  dup1\n  0x08\n  dup2\n  mstore\n  0x20\n  add\n  0x3078334234413346000000000000000000000000000000000000000000000000\n  dup2\n  mstore\n  pop\n  dup2\n  mstore\n  0x20\n  add\n  mload(0x40)\n  dup1\n  0x40\n  add\n  0x40\n  mstore\n  dup1\n  0x08\n  dup2\n  mstore\n  0x20\n  add\n  0x3078394541464132000000000000000000000000000000000000000000000000\n  dup2\n  mstore\n  pop\n  dup2\n  mstore\n  0x20\n  add\n  mload(0x40)\n  dup1\n  0x40\n  add\n  0x40\n  mstore\n  dup1\n  0x08\n  dup2\n  mstore\n  0x20\n  add\n  0x3078344539344233000000000000000000000000000000000000000000000000\n  dup2\n  mstore\n  pop\n  dup2\n  mstore\n  0x20\n  add\n  mload(0x40)\n  dup1\n  0x40\n  add\n  0x40\n  mstore\n  dup1\n  0x08\n  dup2\n  mstore\n  0x20\n  add\n  0x3078303336313745000000000000000000000000000000000000000000000000\n  dup2\n  mstore\n  pop\n  dup2\n  mstore\n  pop\n    /* \"contracts/StrawberryColorPaletteFactory.sol\":458:468  addPalette */\n  shl(0x20, tag_7)\n    /* \"contracts/StrawberryColorPaletteFactory.sol\":458:530  addPalette([\"0x699674\", \"0x3B4A3F\", \"0x9EAFA2\", \"0x4E94B3\", \"0x03617E\"]) */\n  0x20\n  shr\n  jump\t// in\ntag_8:\n    /* \"contracts/StrawberryColorPaletteFactory.sol\":540:612  addPalette([\"0x27B6D8\", \"0x334A52\", \"0x96AFB8\", \"0xC498D4\", \"0x8E649D\"]) */\n  tag_9\n  mload(0x40)\n  dup1\n  0xa0\n  add\n  0x40\n  mstore\n  dup1\n  mload(0x40)\n  dup1\n  0x40\n  add\n  0x40\n  mstore\n  dup1\n  0x08\n  dup2\n  mstore\n  0x20\n  add\n  0x3078323742364438000000000000000000000000000000000000000000000000\n  dup2\n  mstore\n  pop\n  dup2\n  mstore\n  0x20\n  add\n  mload(0x40)\n  dup1\n  0x40\n  add\n  0x40\n  mstore\n  dup1\n  0x08\n  dup2\n  mstore\n  0x20\n  add\n  0x3078333334413532000000000000000000000000000000000000000000000000\n  dup2\n  mstore\n  pop\n  dup2\n  mstore\n  0x20\n  add\n  mload(0x40)\n  dup1\n  0x40\n  add\n  0x40\n  mstore\n  dup1\n  0x08\n  dup2\n  mstore\n  0x20\n  add\n  0x3078393641464238000000000000000000000000000000000000000000000000\n  dup2\n  mstore\n  pop\n  dup2\n  mstore\n  0x20\n  add\n  mload(0x40)\n  dup1\n  0x40\n  add\n  0x40\n  mstore\n  dup1\n  0x08\n  dup2\n  mstore\n  0x20\n  add\n  0x3078433439384434000000000000000000000000000000000000000000000000\n  dup2\n  mstore\n  pop\n  dup2\n  mstore\n  0x20\n  add\n  mload(0x40)\n  dup1\n  0x40\n  add\n  0x40\n  mstore\n  dup1\n  0x08\n  dup2\n  mstore\n  0x20\n  add\n  0x3078384536343944000000000000000000000000000000000000000000000000\n  dup2\n  mstore\n  pop\n  dup2\n  mstore\n  pop\n    /* \"contracts/StrawberryColorPaletteFactory.sol\":540:550  addPalette */\n  shl(0x20, tag_7)\n    /* \"contracts/StrawberryColorPaletteFactory.sol\":540:612  addPalette([\"0x27B6D8\", \"0x334A52\", \"0x96AFB8\", \"0xC498D4\", \"0x8E649D\"]) */\n  0x20\n  shr\n  jump\t// in\ntag_9:\n    /* \"contracts/StrawberryColorPaletteFactory.sol\":622:694  addPalette([\"0x5AA55B\", \"0x24956D\", \"0x008377\", \"0x006F77\", \"0x1C5B6C\"]) */\n  tag_10\n  mload(0x40)\n  dup1\n  0xa0\n  add\n  0x40\n  mstore\n  dup1\n  mload(0x40)\n  dup1\n  0x40\n  add\n  0x40\n  mstore\n  dup1\n  0x08\n  dup2\n  mstore\n  0x20\n  add\n  0x3078354141353542000000000000000000000000000000000000000000000000\n  dup2\n  mstore\n  pop\n  dup2\n  mstore\n  0x20\n  add\n  mload(0x40)\n  dup1\n  0x40\n  add\n  0x40\n  mstore\n  dup1\n  0x08\n  dup2\n  mstore\n  0x20\n  add\n  0x3078323439353644000000000000000000000000000000000000000000000000\n  dup2\n  mstore\n  pop\n  dup2\n  mstore\n  0x20\n  add\n  mload(0x40)\n  dup1\n  0x40\n  add\n  0x40\n  mstore\n  dup1\n  0x08\n  dup2\n  mstore\n  0x20\n  add\n  0x3078303038333737000000000000000000000000000000000000000000000000\n  dup2\n  mstore\n  pop\n  dup2\n  mstore\n  0x20\n  add\n  mload(0x40)\n  dup1\n  0x40\n  add\n  0x40\n  mstore\n  dup1\n  0x08\n  dup2\n  mstore\n  0x20\n  add\n  0x3078303036463737000000000000000000000000000000000000000000000000\n  dup2\n  mstore\n  pop\n  dup2\n  mstore\n  0x20\n  add\n  mload(0x40)\n  dup1\n  0x40\n  add\n  0x40\n  mstore\n  dup1\n  0x08\n  dup2\n  mstore\n  0x20\n  add\n  0x3078314335423643000000000000000000000000000000000000000000000000\n  dup2\n  mstore\n  pop\n  dup2\n  mstore\n  pop\n    /* \"contracts/StrawberryColorPaletteFactory.sol\":622:632  addPalette */\n  shl(0x20, tag_7)\n    /* \"contracts/StrawberryColorPaletteFactory.sol\":622:694  addPalette([\"0x5AA55B\", \"0x24956D\", \"0x008377\", \"0x006F77\", \"0x1C5B6C\"]) */\n  0x20\n  shr\n  jump\t// in\ntag_10:\n    /* \"contracts/StrawberryDonorFactory.sol\":155:1485  contract StrawberryDonorFactory is StrawberryColorPaletteFactory, StrawberryItemFactory {... */\n  jump(tag_11)\n    /* \"contracts/StrawberryColorPaletteFactory.sol\":720:936  function addPalette(string[5] memory _colors) public onlyOwner {... */\ntag_7:\n    /* \"contracts/Ownable.sol\":910:919  isOwner() */\n  tag_13\n    /* \"contracts/Ownable.sol\":910:917  isOwner */\n  shl(0x20, tag_14)\n    /* \"contracts/Ownable.sol\":910:919  isOwner() */\n  0x20\n  shr\n  jump\t// in\ntag_13:\n    /* \"contracts/Ownable.sol\":902:920  require(isOwner()) */\n  tag_15\n  jumpi\n  0x00\n  dup1\n  revert\ntag_15:\n    /* \"contracts/StrawberryColorPaletteFactory.sol\":793:801  palettes */\n  0x03\n    /* \"contracts/StrawberryColorPaletteFactory.sol\":807:815  palettes */\n  dup1\n    /* \"contracts/StrawberryColorPaletteFactory.sol\":807:822  palettes.length */\n  dup1\n  sload\n  swap1\n  pop\n    /* \"contracts/StrawberryColorPaletteFactory.sol\":793:823  palettes.push(palettes.length) */\n  swap1\n  dup1\n  0x01\n  dup2\n  sload\n  add\n  dup1\n  dup3\n  sstore\n  dup1\n  swap2\n  pop\n  pop\n  0x01\n  swap1\n  sub\n  swap1\n  0x00\n  mstore\n  keccak256(0x00, 0x20)\n  add\n  0x00\n  swap1\n  swap2\n  swap1\n  swap2\n  swap1\n  swap2\n  pop\n  sstore\n    /* \"contracts/StrawberryColorPaletteFactory.sol\":872:879  _colors */\n  dup1\n    /* \"contracts/StrawberryColorPaletteFactory.sol\":833:848  paletteToColors */\n  0x04\n    /* \"contracts/StrawberryColorPaletteFactory.sol\":833:869  paletteToColors[palettes.length - 1] */\n  0x00\n    /* \"contracts/StrawberryColorPaletteFactory.sol\":867:868  1 */\n  0x01\n    /* \"contracts/StrawberryColorPaletteFactory.sol\":849:857  palettes */\n  0x03\n    /* \"contracts/StrawberryColorPaletteFactory.sol\":849:864  palettes.length */\n  dup1\n  sload\n  swap1\n  pop\n    /* \"contracts/StrawberryColorPaletteFactory.sol\":849:868  palettes.length - 1 */\n  tag_18\n  swap2\n  swap1\n  tag_19\n  jump\t// in\ntag_18:\n    /* \"contracts/StrawberryColorPaletteFactory.sol\":833:869  paletteToColors[palettes.length - 1] */\n  dup2\n  mstore\n  0x20\n  add\n  swap1\n  dup2\n  mstore\n  0x20\n  add\n  0x00\n  keccak256\n    /* \"contracts/StrawberryColorPaletteFactory.sol\":833:879  paletteToColors[palettes.length - 1] = _colors */\n  swap1\n  0x05\n  tag_20\n  swap3\n  swap2\n  swap1\n  tag_21\n  jump\t// in\ntag_20:\n  pop\n    /* \"contracts/StrawberryColorPaletteFactory.sol\":894:929  PaletteCreated(palettes.length - 1) */\n  0xe1c7c98cdeded3a25c1c7ada5b85013b2c7c9879f1678129a413ea685d0fcc78\n    /* \"contracts/StrawberryColorPaletteFactory.sol\":927:928  1 */\n  0x01\n    /* \"contracts/StrawberryColorPaletteFactory.sol\":909:917  palettes */\n  0x03\n    /* \"contracts/StrawberryColorPaletteFactory.sol\":909:924  palettes.length */\n  dup1\n  sload\n  swap1\n  pop\n    /* \"contracts/StrawberryColorPaletteFactory.sol\":909:928  palettes.length - 1 */\n  tag_22\n  swap2\n  swap1\n  tag_19\n  jump\t// in\ntag_22:\n    /* \"contracts/StrawberryColorPaletteFactory.sol\":894:929  PaletteCreated(palettes.length - 1) */\n  mload(0x40)\n  tag_23\n  swap2\n  swap1\n  tag_24\n  jump\t// in\ntag_23:\n  mload(0x40)\n  dup1\n  swap2\n  sub\n  swap1\n  log1\n    /* \"contracts/StrawberryColorPaletteFactory.sol\":720:936  function addPalette(string[5] memory _colors) public onlyOwner {... */\n  pop\n  jump\t// out\n    /* \"contracts/Ownable.sol\":1024:1113  function isOwner() public view returns(bool) {... */\ntag_14:\n    /* \"contracts/Ownable.sol\":1063:1067  bool */\n  0x00\n    /* \"contracts/Ownable.sol\":1100:1106  _owner */\n  dup1\n  0x00\n  swap1\n  sload\n  swap1\n  0x0100\n  exp\n  swap1\n  div\n  0xffffffffffffffffffffffffffffffffffffffff\n  and\n    /* \"contracts/Ownable.sol\":1086:1106  msg.sender == _owner */\n  0xffffffffffffffffffffffffffffffffffffffff\n  and\n    /* \"contracts/Ownable.sol\":1086:1096  msg.sender */\n  caller\n    /* \"contracts/Ownable.sol\":1086:1106  msg.sender == _owner */\n  0xffffffffffffffffffffffffffffffffffffffff\n  and\n  eq\n    /* \"contracts/Ownable.sol\":1079:1106  return msg.sender == _owner */\n  swap1\n  pop\n    /* \"contracts/Ownable.sol\":1024:1113  function isOwner() public view returns(bool) {... */\n  swap1\n  jump\t// out\n    /* \"contracts/StrawberryDonorFactory.sol\":155:1485  contract StrawberryDonorFactory is StrawberryColorPaletteFactory, StrawberryItemFactory {... */\ntag_21:\n  dup3\n  dup1\n  sload\n  dup3\n  dup3\n  sstore\n  swap1\n  0x00\n  mstore\n  keccak256(0x00, 0x20)\n  swap1\n  dup2\n  add\n  swap3\n  dup3\n  iszero\n  tag_26\n  jumpi\n  swap2\n  0x20\n  mul\n  dup3\n  add\ntag_27:\n  dup3\n  dup2\n  gt\n  iszero\n  tag_28\n  jumpi\n  dup3\n  mload\n  dup3\n  swap1\n  dup2\n  tag_29\n  swap2\n  swap1\n  tag_30\n  jump\t// in\ntag_29:\n  pop\n  swap2\n  0x20\n  add\n  swap2\n  swap1\n  0x01\n  add\n  swap1\n  jump(tag_27)\ntag_28:\ntag_26:\n  pop\n  swap1\n  pop\n  tag_31\n  swap2\n  swap1\n  tag_32\n  jump\t// in\ntag_31:\n  pop\n  swap1\n  jump\t// out\ntag_32:\ntag_33:\n  dup1\n  dup3\n  gt\n  iszero\n  tag_34\n  jumpi\n  0x00\n  dup2\n  dup2\n  tag_35\n  swap2\n  swap1\n  tag_36\n  jump\t// in\ntag_35:\n  pop\n  0x01\n  add\n  jump(tag_33)\ntag_34:\n  pop\n  swap1\n  jump\t// out\ntag_36:\n  pop\n  dup1\n  sload\n  tag_37\n  swap1\n  tag_38\n  jump\t// in\ntag_37:\n  0x00\n  dup3\n  sstore\n  dup1\n  0x1f\n  lt\n  tag_40\n  jumpi\n  pop\n  jump(tag_39)\ntag_40:\n  0x1f\n  add\n  0x20\n  swap1\n  div\n  swap1\n  0x00\n  mstore\n  keccak256(0x00, 0x20)\n  swap1\n  dup2\n  add\n  swap1\n  tag_41\n  swap2\n  swap1\n  tag_42\n  jump\t// in\ntag_41:\ntag_39:\n  pop\n  jump\t// out\ntag_42:\ntag_43:\n  dup1\n  dup3\n  gt\n  iszero\n  tag_44\n  jumpi\n  0x00\n  dup2\n  0x00\n  swap1\n  sstore\n  pop\n  0x01\n  add\n  jump(tag_43)\ntag_44:\n  pop\n  swap1\n  jump\t// out\n    /* \"#utility.yul\":7:84   */\ntag_45:\n    /* \"#utility.yul\":44:51   */\n  0x00\n    /* \"#utility.yul\":73:78   */\n  dup2\n    /* \"#utility.yul\":62:78   */\n  swap1\n  pop\n    /* \"#utility.yul\":7:84   */\n  swap2\n  swap1\n  pop\n  jump\t// out\n    /* \"#utility.yul\":90:270   */\ntag_46:\n    /* \"#utility.yul\":138:215   */\n  0x4e487b7100000000000000000000000000000000000000000000000000000000\n    /* \"#utility.yul\":135:136   */\n  0x00\n    /* \"#utility.yul\":128:216   */\n  mstore\n    /* \"#utility.yul\":235:239   */\n  0x11\n    /* \"#utility.yul\":232:233   */\n  0x04\n    /* \"#utility.yul\":225:240   */\n  mstore\n    /* \"#utility.yul\":259:263   */\n  0x24\n    /* \"#utility.yul\":256:257   */\n  0x00\n    /* \"#utility.yul\":249:264   */\n  revert\n    /* \"#utility.yul\":276:470   */\ntag_19:\n    /* \"#utility.yul\":316:320   */\n  0x00\n    /* \"#utility.yul\":336:356   */\n  tag_70\n    /* \"#utility.yul\":354:355   */\n  dup3\n    /* \"#utility.yul\":336:356   */\n  tag_45\n  jump\t// in\ntag_70:\n    /* \"#utility.yul\":331:356   */\n  swap2\n  pop\n    /* \"#utility.yul\":370:390   */\n  tag_71\n    /* \"#utility.yul\":388:389   */\n  dup4\n    /* \"#utility.yul\":370:390   */\n  tag_45\n  jump\t// in\ntag_71:\n    /* \"#utility.yul\":365:390   */\n  swap3\n  pop\n    /* \"#utility.yul\":414:415   */\n  dup3\n    /* \"#utility.yul\":411:412   */\n  dup3\n    /* \"#utility.yul\":407:416   */\n  sub\n    /* \"#utility.yul\":399:416   */\n  swap1\n  pop\n    /* \"#utility.yul\":438:439   */\n  dup2\n    /* \"#utility.yul\":432:436   */\n  dup2\n    /* \"#utility.yul\":429:440   */\n  gt\n    /* \"#utility.yul\":426:463   */\n  iszero\n  tag_72\n  jumpi\n    /* \"#utility.yul\":443:461   */\n  tag_73\n  tag_46\n  jump\t// in\ntag_73:\n    /* \"#utility.yul\":426:463   */\ntag_72:\n    /* \"#utility.yul\":276:470   */\n  swap3\n  swap2\n  pop\n  pop\n  jump\t// out\n    /* \"#utility.yul\":476:594   */\ntag_47:\n    /* \"#utility.yul\":563:587   */\n  tag_75\n    /* \"#utility.yul\":581:586   */\n  dup2\n    /* \"#utility.yul\":563:587   */\n  tag_45\n  jump\t// in\ntag_75:\n    /* \"#utility.yul\":558:561   */\n  dup3\n    /* \"#utility.yul\":551:588   */\n  mstore\n    /* \"#utility.yul\":476:594   */\n  pop\n  pop\n  jump\t// out\n    /* \"#utility.yul\":600:822   */\ntag_24:\n    /* \"#utility.yul\":693:697   */\n  0x00\n    /* \"#utility.yul\":731:733   */\n  0x20\n    /* \"#utility.yul\":720:729   */\n  dup3\n    /* \"#utility.yul\":716:734   */\n  add\n    /* \"#utility.yul\":708:734   */\n  swap1\n  pop\n    /* \"#utility.yul\":744:815   */\n  tag_77\n    /* \"#utility.yul\":812:813   */\n  0x00\n    /* \"#utility.yul\":801:810   */\n  dup4\n    /* \"#utility.yul\":797:814   */\n  add\n    /* \"#utility.yul\":788:794   */\n  dup5\n    /* \"#utility.yul\":744:815   */\n  tag_47\n  jump\t// in\ntag_77:\n    /* \"#utility.yul\":600:822   */\n  swap3\n  swap2\n  pop\n  pop\n  jump\t// out\n    /* \"#utility.yul\":828:927   */\ntag_48:\n    /* \"#utility.yul\":880:886   */\n  0x00\n    /* \"#utility.yul\":914:919   */\n  dup2\n    /* \"#utility.yul\":908:920   */\n  mload\n    /* \"#utility.yul\":898:920   */\n  swap1\n  pop\n    /* \"#utility.yul\":828:927   */\n  swap2\n  swap1\n  pop\n  jump\t// out\n    /* \"#utility.yul\":933:1113   */\ntag_49:\n    /* \"#utility.yul\":981:1058   */\n  0x4e487b7100000000000000000000000000000000000000000000000000000000\n    /* \"#utility.yul\":978:979   */\n  0x00\n    /* \"#utility.yul\":971:1059   */\n  mstore\n    /* \"#utility.yul\":1078:1082   */\n  0x41\n    /* \"#utility.yul\":1075:1076   */\n  0x04\n    /* \"#utility.yul\":1068:1083   */\n  mstore\n    /* \"#utility.yul\":1102:1106   */\n  0x24\n    /* \"#utility.yul\":1099:1100   */\n  0x00\n    /* \"#utility.yul\":1092:1107   */\n  revert\n    /* \"#utility.yul\":1119:1299   */\ntag_50:\n    /* \"#utility.yul\":1167:1244   */\n  0x4e487b7100000000000000000000000000000000000000000000000000000000\n    /* \"#utility.yul\":1164:1165   */\n  0x00\n    /* \"#utility.yul\":1157:1245   */\n  mstore\n    /* \"#utility.yul\":1264:1268   */\n  0x22\n    /* \"#utility.yul\":1261:1262   */\n  0x04\n    /* \"#utility.yul\":1254:1269   */\n  mstore\n    /* \"#utility.yul\":1288:1292   */\n  0x24\n    /* \"#utility.yul\":1285:1286   */\n  0x00\n    /* \"#utility.yul\":1278:1293   */\n  revert\n    /* \"#utility.yul\":1305:1625   */\ntag_38:\n    /* \"#utility.yul\":1349:1355   */\n  0x00\n    /* \"#utility.yul\":1386:1387   */\n  0x02\n    /* \"#utility.yul\":1380:1384   */\n  dup3\n    /* \"#utility.yul\":1376:1388   */\n  div\n    /* \"#utility.yul\":1366:1388   */\n  swap1\n  pop\n    /* \"#utility.yul\":1433:1434   */\n  0x01\n    /* \"#utility.yul\":1427:1431   */\n  dup3\n    /* \"#utility.yul\":1423:1435   */\n  and\n    /* \"#utility.yul\":1454:1472   */\n  dup1\n    /* \"#utility.yul\":1444:1525   */\n  tag_82\n  jumpi\n    /* \"#utility.yul\":1510:1514   */\n  0x7f\n    /* \"#utility.yul\":1502:1508   */\n  dup3\n    /* \"#utility.yul\":1498:1515   */\n  and\n    /* \"#utility.yul\":1488:1515   */\n  swap2\n  pop\n    /* \"#utility.yul\":1444:1525   */\ntag_82:\n    /* \"#utility.yul\":1572:1574   */\n  0x20\n    /* \"#utility.yul\":1564:1570   */\n  dup3\n    /* \"#utility.yul\":1561:1575   */\n  lt\n    /* \"#utility.yul\":1541:1559   */\n  dup2\n    /* \"#utility.yul\":1538:1576   */\n  sub\n    /* \"#utility.yul\":1535:1619   */\n  tag_83\n  jumpi\n    /* \"#utility.yul\":1591:1609   */\n  tag_84\n  tag_50\n  jump\t// in\ntag_84:\n    /* \"#utility.yul\":1535:1619   */\ntag_83:\n    /* \"#utility.yul\":1356:1625   */\n  pop\n    /* \"#utility.yul\":1305:1625   */\n  swap2\n  swap1\n  pop\n  jump\t// out\n    /* \"#utility.yul\":1631:1772   */\ntag_51:\n    /* \"#utility.yul\":1680:1684   */\n  0x00\n    /* \"#utility.yul\":1703:1706   */\n  dup2\n    /* \"#utility.yul\":1695:1706   */\n  swap1\n  pop\n    /* \"#utility.yul\":1726:1729   */\n  dup2\n    /* \"#utility.yul\":1723:1724   */\n  0x00\n    /* \"#utility.yul\":1716:1730   */\n  mstore\n    /* \"#utility.yul\":1760:1764   */\n  0x20\n    /* \"#utility.yul\":1757:1758   */\n  0x00\n    /* \"#utility.yul\":1747:1765   */\n  keccak256\n    /* \"#utility.yul\":1739:1765   */\n  swap1\n  pop\n    /* \"#utility.yul\":1631:1772   */\n  swap2\n  swap1\n  pop\n  jump\t// out\n    /* \"#utility.yul\":1778:1871   */\ntag_52:\n    /* \"#utility.yul\":1815:1821   */\n  0x00\n    /* \"#utility.yul\":1862:1864   */\n  0x20\n    /* \"#utility.yul\":1857:1859   */\n  0x1f\n    /* \"#utility.yul\":1850:1855   */\n  dup4\n    /* \"#utility.yul\":1846:1860   */\n  add\n    /* \"#utility.yul\":1842:1865   */\n  div\n    /* \"#utility.yul\":1832:1865   */\n  swap1\n  pop\n    /* \"#utility.yul\":1778:1871   */\n  swap2\n  swap1\n  pop\n  jump\t// out\n    /* \"#utility.yul\":1877:1984   */\ntag_53:\n    /* \"#utility.yul\":1921:1929   */\n  0x00\n    /* \"#utility.yul\":1971:1976   */\n  dup3\n    /* \"#utility.yul\":1965:1969   */\n  dup3\n    /* \"#utility.yul\":1961:1977   */\n  shl\n    /* \"#utility.yul\":1940:1977   */\n  swap1\n  pop\n    /* \"#utility.yul\":1877:1984   */\n  swap3\n  swap2\n  pop\n  pop\n  jump\t// out\n    /* \"#utility.yul\":1990:2383   */\ntag_54:\n    /* \"#utility.yul\":2059:2065   */\n  0x00\n    /* \"#utility.yul\":2109:2110   */\n  0x08\n    /* \"#utility.yul\":2097:2107   */\n  dup4\n    /* \"#utility.yul\":2093:2111   */\n  mul\n    /* \"#utility.yul\":2132:2229   */\n  tag_89\n    /* \"#utility.yul\":2162:2228   */\n  0xffffffffffffffffffffffffffffffffffffffffffffffffffffffffffffffff\n    /* \"#utility.yul\":2151:2160   */\n  dup3\n    /* \"#utility.yul\":2132:2229   */\n  tag_53\n  jump\t// in\ntag_89:\n    /* \"#utility.yul\":2250:2289   */\n  tag_90\n    /* \"#utility.yul\":2280:2288   */\n  dup7\n    /* \"#utility.yul\":2269:2278   */\n  dup4\n    /* \"#utility.yul\":2250:2289   */\n  tag_53\n  jump\t// in\ntag_90:\n    /* \"#utility.yul\":2238:2289   */\n  swap6\n  pop\n    /* \"#utility.yul\":2322:2326   */\n  dup1\n    /* \"#utility.yul\":2318:2327   */\n  not\n    /* \"#utility.yul\":2311:2316   */\n  dup5\n    /* \"#utility.yul\":2307:2328   */\n  and\n    /* \"#utility.yul\":2298:2328   */\n  swap4\n  pop\n    /* \"#utility.yul\":2371:2375   */\n  dup1\n    /* \"#utility.yul\":2361:2369   */\n  dup7\n    /* \"#utility.yul\":2357:2376   */\n  and\n    /* \"#utility.yul\":2350:2355   */\n  dup5\n    /* \"#utility.yul\":2347:2377   */\n  or\n    /* \"#utility.yul\":2337:2377   */\n  swap3\n  pop\n    /* \"#utility.yul\":2066:2383   */\n  pop\n  pop\n    /* \"#utility.yul\":1990:2383   */\n  swap4\n  swap3\n  pop\n  pop\n  pop\n  jump\t// out\n    /* \"#utility.yul\":2389:2449   */\ntag_55:\n    /* \"#utility.yul\":2417:2420   */\n  0x00\n    /* \"#utility.yul\":2438:2443   */\n  dup2\n    /* \"#utility.yul\":2431:2443   */\n  swap1\n  pop\n    /* \"#utility.yul\":2389:2449   */\n  swap2\n  swap1\n  pop\n  jump\t// out\n    /* \"#utility.yul\":2455:2597   */\ntag_56:\n    /* \"#utility.yul\":2505:2514   */\n  0x00\n    /* \"#utility.yul\":2538:2591   */\n  tag_93\n    /* \"#utility.yul\":2556:2590   */\n  tag_94\n    /* \"#utility.yul\":2565:2589   */\n  tag_95\n    /* \"#utility.yul\":2583:2588   */\n  dup5\n    /* \"#utility.yul\":2565:2589   */\n  tag_45\n  jump\t// in\ntag_95:\n    /* \"#utility.yul\":2556:2590   */\n  tag_55\n  jump\t// in\ntag_94:\n    /* \"#utility.yul\":2538:2591   */\n  tag_45\n  jump\t// in\ntag_93:\n    /* \"#utility.yul\":2525:2591   */\n  swap1\n  pop\n    /* \"#utility.yul\":2455:2597   */\n  swap2\n  swap1\n  pop\n  jump\t// out\n    /* \"#utility.yul\":2603:2678   */\ntag_57:\n    /* \"#utility.yul\":2646:2649   */\n  0x00\n    /* \"#utility.yul\":2667:2672   */\n  dup2\n    /* \"#utility.yul\":2660:2672   */\n  swap1\n  pop\n    /* \"#utility.yul\":2603:2678   */\n  swap2\n  swap1\n  pop\n  jump\t// out\n    /* \"#utility.yul\":2684:2953   */\ntag_58:\n    /* \"#utility.yul\":2794:2833   */\n  tag_98\n    /* \"#utility.yul\":2825:2832   */\n  dup4\n    /* \"#utility.yul\":2794:2833   */\n  tag_56\n  jump\t// in\ntag_98:\n    /* \"#utility.yul\":2855:2946   */\n  tag_99\n    /* \"#utility.yul\":2904:2945   */\n  tag_100\n    /* \"#utility.yul\":2928:2944   */\n  dup3\n    /* \"#utility.yul\":2904:2945   */\n  tag_57\n  jump\t// in\ntag_100:\n    /* \"#utility.yul\":2896:2902   */\n  dup5\n    /* \"#utility.yul\":2889:2893   */\n  dup5\n    /* \"#utility.yul\":2883:2894   */\n  sload\n    /* \"#utility.yul\":2855:2946   */\n  tag_54\n  jump\t// in\ntag_99:\n    /* \"#utility.yul\":2849:2853   */\n  dup3\n    /* \"#utility.yul\":2842:2947   */\n  sstore\n    /* \"#utility.yul\":2760:2953   */\n  pop\n    /* \"#utility.yul\":2684:2953   */\n  pop\n  pop\n  pop\n  jump\t// out\n    /* \"#utility.yul\":2959:3032   */\ntag_59:\n    /* \"#utility.yul\":3004:3007   */\n  0x00\n    /* \"#utility.yul\":2959:3032   */\n  swap1\n  jump\t// out\n    /* \"#utility.yul\":3038:3227   */\ntag_60:\n    /* \"#utility.yul\":3115:3147   */\n  tag_103\n  tag_59\n  jump\t// in\ntag_103:\n    /* \"#utility.yul\":3156:3221   */\n  tag_104\n    /* \"#utility.yul\":3214:3220   */\n  dup2\n    /* \"#utility.yul\":3206:3212   */\n  dup5\n    /* \"#utility.yul\":3200:3204   */\n  dup5\n    /* \"#utility.yul\":3156:3221   */\n  tag_58\n  jump\t// in\ntag_104:\n    /* \"#utility.yul\":3091:3227   */\n  pop\n    /* \"#utility.yul\":3038:3227   */\n  pop\n  pop\n  jump\t// out\n    /* \"#utility.yul\":3233:3419   */\ntag_61:\n    /* \"#utility.yul\":3293:3413   */\ntag_106:\n    /* \"#utility.yul\":3310:3313   */\n  dup2\n    /* \"#utility.yul\":3303:3308   */\n  dup2\n    /* \"#utility.yul\":3300:3314   */\n  lt\n    /* \"#utility.yul\":3293:3413   */\n  iszero\n  tag_108\n  jumpi\n    /* \"#utility.yul\":3364:3403   */\n  tag_109\n    /* \"#utility.yul\":3401:3402   */\n  0x00\n    /* \"#utility.yul\":3394:3399   */\n  dup3\n    /* \"#utility.yul\":3364:3403   */\n  tag_60\n  jump\t// in\ntag_109:\n    /* \"#utility.yul\":3337:3338   */\n  0x01\n    /* \"#utility.yul\":3330:3335   */\n  dup2\n    /* \"#utility.yul\":3326:3339   */\n  add\n    /* \"#utility.yul\":3317:3339   */\n  swap1\n  pop\n    /* \"#utility.yul\":3293:3413   */\n  jump(tag_106)\ntag_108:\n    /* \"#utility.yul\":3233:3419   */\n  pop\n  pop\n  jump\t// out\n    /* \"#utility.yul\":3425:3968   */\ntag_62:\n    /* \"#utility.yul\":3526:3528   */\n  0x1f\n    /* \"#utility.yul\":3521:3524   */\n  dup3\n    /* \"#utility.yul\":3518:3529   */\n  gt\n    /* \"#utility.yul\":3515:3961   */\n  iszero\n  tag_111\n  jumpi\n    /* \"#utility.yul\":3560:3598   */\n  tag_112\n    /* \"#utility.yul\":3592:3597   */\n  dup2\n    /* \"#utility.yul\":3560:3598   */\n  tag_51\n  jump\t// in\ntag_112:\n    /* \"#utility.yul\":3644:3673   */\n  tag_113\n    /* \"#utility.yul\":3662:3672   */\n  dup5\n    /* \"#utility.yul\":3644:3673   */\n  tag_52\n  jump\t// in\ntag_113:\n    /* \"#utility.yul\":3634:3642   */\n  dup2\n    /* \"#utility.yul\":3630:3674   */\n  add\n    /* \"#utility.yul\":3827:3829   */\n  0x20\n    /* \"#utility.yul\":3815:3825   */\n  dup6\n    /* \"#utility.yul\":3812:3830   */\n  lt\n    /* \"#utility.yul\":3809:3858   */\n  iszero\n  tag_114\n  jumpi\n    /* \"#utility.yul\":3848:3856   */\n  dup2\n    /* \"#utility.yul\":3833:3856   */\n  swap1\n  pop\n    /* \"#utility.yul\":3809:3858   */\ntag_114:\n    /* \"#utility.yul\":3871:3951   */\n  tag_115\n    /* \"#utility.yul\":3927:3949   */\n  tag_116\n    /* \"#utility.yul\":3945:3948   */\n  dup6\n    /* \"#utility.yul\":3927:3949   */\n  tag_52\n  jump\t// in\ntag_116:\n    /* \"#utility.yul\":3917:3925   */\n  dup4\n    /* \"#utility.yul\":3913:3950   */\n  add\n    /* \"#utility.yul\":3900:3911   */\n  dup3\n    /* \"#utility.yul\":3871:3951   */\n  tag_61\n  jump\t// in\ntag_115:\n    /* \"#utility.yul\":3530:3961   */\n  pop\n  pop\n    /* \"#utility.yul\":3515:3961   */\ntag_111:\n    /* \"#utility.yul\":3425:3968   */\n  pop\n  pop\n  pop\n  jump\t// out\n    /* \"#utility.yul\":3974:4091   */\ntag_63:\n    /* \"#utility.yul\":4028:4036   */\n  0x00\n    /* \"#utility.yul\":4078:4083   */\n  dup3\n    /* \"#utility.yul\":4072:4076   */\n  dup3\n    /* \"#utility.yul\":4068:4084   */\n  shr\n    /* \"#utility.yul\":4047:4084   */\n  swap1\n  pop\n    /* \"#utility.yul\":3974:4091   */\n  swap3\n  swap2\n  pop\n  pop\n  jump\t// out\n    /* \"#utility.yul\":4097:4266   */\ntag_64:\n    /* \"#utility.yul\":4141:4147   */\n  0x00\n    /* \"#utility.yul\":4174:4225   */\n  tag_119\n    /* \"#utility.yul\":4222:4223   */\n  0x00\n    /* \"#utility.yul\":4218:4224   */\n  not\n    /* \"#utility.yul\":4210:4215   */\n  dup5\n    /* \"#utility.yul\":4207:4208   */\n  0x08\n    /* \"#utility.yul\":4203:4216   */\n  mul\n    /* \"#utility.yul\":4174:4225   */\n  tag_63\n  jump\t// in\ntag_119:\n    /* \"#utility.yul\":4170:4226   */\n  not\n    /* \"#utility.yul\":4255:4259   */\n  dup1\n    /* \"#utility.yul\":4249:4253   */\n  dup4\n    /* \"#utility.yul\":4245:4260   */\n  and\n    /* \"#utility.yul\":4235:4260   */\n  swap2\n  pop\n    /* \"#utility.yul\":4148:4266   */\n  pop\n    /* \"#utility.yul\":4097:4266   */\n  swap3\n  swap2\n  pop\n  pop\n  jump\t// out\n    /* \"#utility.yul\":4271:4566   */\ntag_65:\n    /* \"#utility.yul\":4347:4351   */\n  0x00\n    /* \"#utility.yul\":4493:4522   */\n  tag_121\n    /* \"#utility.yul\":4518:4521   */\n  dup4\n    /* \"#utility.yul\":4512:4516   */\n  dup4\n    /* \"#utility.yul\":4493:4522   */\n  tag_64\n  jump\t// in\ntag_121:\n    /* \"#utility.yul\":4485:4522   */\n  swap2\n  pop\n    /* \"#utility.yul\":4555:4558   */\n  dup3\n    /* \"#utility.yul\":4552:4553   */\n  0x02\n    /* \"#utility.yul\":4548:4559   */\n  mul\n    /* \"#utility.yul\":4542:4546   */\n  dup3\n    /* \"#utility.yul\":4539:4560   */\n  or\n    /* \"#utility.yul\":4531:4560   */\n  swap1\n  pop\n    /* \"#utility.yul\":4271:4566   */\n  swap3\n  swap2\n  pop\n  pop\n  jump\t// out\n    /* \"#utility.yul\":4571:5966   */\ntag_30:\n    /* \"#utility.yul\":4688:4725   */\n  tag_123\n    /* \"#utility.yul\":4721:4724   */\n  dup3\n    /* \"#utility.yul\":4688:4725   */\n  tag_48\n  jump\t// in\ntag_123:\n    /* \"#utility.yul\":4790:4808   */\n  0xffffffffffffffff\n    /* \"#utility.yul\":4782:4788   */\n  dup2\n    /* \"#utility.yul\":4779:4809   */\n  gt\n    /* \"#utility.yul\":4776:4832   */\n  iszero\n  tag_124\n  jumpi\n    /* \"#utility.yul\":4812:4830   */\n  tag_125\n  tag_49\n  jump\t// in\ntag_125:\n    /* \"#utility.yul\":4776:4832   */\ntag_124:\n    /* \"#utility.yul\":4856:4894   */\n  tag_126\n    /* \"#utility.yul\":4888:4892   */\n  dup3\n    /* \"#utility.yul\":4882:4893   */\n  sload\n    /* \"#utility.yul\":4856:4894   */\n  tag_38\n  jump\t// in\ntag_126:\n    /* \"#utility.yul\":4941:5008   */\n  tag_127\n    /* \"#utility.yul\":5001:5007   */\n  dup3\n    /* \"#utility.yul\":4993:4999   */\n  dup3\n    /* \"#utility.yul\":4987:4991   */\n  dup6\n    /* \"#utility.yul\":4941:5008   */\n  tag_62\n  jump\t// in\ntag_127:\n    /* \"#utility.yul\":5035:5036   */\n  0x00\n    /* \"#utility.yul\":5059:5063   */\n  0x20\n    /* \"#utility.yul\":5046:5063   */\n  swap1\n  pop\n    /* \"#utility.yul\":5091:5093   */\n  0x1f\n    /* \"#utility.yul\":5083:5089   */\n  dup4\n    /* \"#utility.yul\":5080:5094   */\n  gt\n    /* \"#utility.yul\":5108:5109   */\n  0x01\n    /* \"#utility.yul\":5103:5721   */\n  dup2\n  eq\n  tag_129\n  jumpi\n    /* \"#utility.yul\":5765:5766   */\n  0x00\n    /* \"#utility.yul\":5782:5788   */\n  dup5\n    /* \"#utility.yul\":5779:5856   */\n  iszero\n  tag_130\n  jumpi\n    /* \"#utility.yul\":5831:5840   */\n  dup3\n    /* \"#utility.yul\":5826:5829   */\n  dup8\n    /* \"#utility.yul\":5822:5841   */\n  add\n    /* \"#utility.yul\":5816:5842   */\n  mload\n    /* \"#utility.yul\":5807:5842   */\n  swap1\n  pop\n    /* \"#utility.yul\":5779:5856   */\ntag_130:\n    /* \"#utility.yul\":5882:5949   */\n  tag_131\n    /* \"#utility.yul\":5942:5948   */\n  dup6\n    /* \"#utility.yul\":5935:5940   */\n  dup3\n    /* \"#utility.yul\":5882:5949   */\n  tag_65\n  jump\t// in\ntag_131:\n    /* \"#utility.yul\":5876:5880   */\n  dup7\n    /* \"#utility.yul\":5869:5950   */\n  sstore\n    /* \"#utility.yul\":5738:5960   */\n  pop\n    /* \"#utility.yul\":5073:5960   */\n  jump(tag_128)\n    /* \"#utility.yul\":5103:5721   */\ntag_129:\n    /* \"#utility.yul\":5155:5159   */\n  0x1f\n    /* \"#utility.yul\":5151:5160   */\n  not\n    /* \"#utility.yul\":5143:5149   */\n  dup5\n    /* \"#utility.yul\":5139:5161   */\n  and\n    /* \"#utility.yul\":5189:5226   */\n  tag_132\n    /* \"#utility.yul\":5221:5225   */\n  dup7\n    /* \"#utility.yul\":5189:5226   */\n  tag_51\n  jump\t// in\ntag_132:\n    /* \"#utility.yul\":5248:5249   */\n  0x00\n    /* \"#utility.yul\":5262:5470   */\ntag_133:\n    /* \"#utility.yul\":5276:5283   */\n  dup3\n    /* \"#utility.yul\":5273:5274   */\n  dup2\n    /* \"#utility.yul\":5270:5284   */\n  lt\n    /* \"#utility.yul\":5262:5470   */\n  iszero\n  tag_135\n  jumpi\n    /* \"#utility.yul\":5355:5364   */\n  dup5\n    /* \"#utility.yul\":5350:5353   */\n  dup10\n    /* \"#utility.yul\":5346:5365   */\n  add\n    /* \"#utility.yul\":5340:5366   */\n  mload\n    /* \"#utility.yul\":5332:5338   */\n  dup3\n    /* \"#utility.yul\":5325:5367   */\n  sstore\n    /* \"#utility.yul\":5406:5407   */\n  0x01\n    /* \"#utility.yul\":5398:5404   */\n  dup3\n    /* \"#utility.yul\":5394:5408   */\n  add\n    /* \"#utility.yul\":5384:5408   */\n  swap2\n  pop\n    /* \"#utility.yul\":5453:5455   */\n  0x20\n    /* \"#utility.yul\":5442:5451   */\n  dup6\n    /* \"#utility.yul\":5438:5456   */\n  add\n    /* \"#utility.yul\":5425:5456   */\n  swap5\n  pop\n    /* \"#utility.yul\":5299:5303   */\n  0x20\n    /* \"#utility.yul\":5296:5297   */\n  dup2\n    /* \"#utility.yul\":5292:5304   */\n  add\n    /* \"#utility.yul\":5287:5304   */\n  swap1\n  pop\n    /* \"#utility.yul\":5262:5470   */\n  jump(tag_133)\ntag_135:\n    /* \"#utility.yul\":5498:5504   */\n  dup7\n    /* \"#utility.yul\":5489:5496   */\n  dup4\n    /* \"#utility.yul\":5486:5505   */\n  lt\n    /* \"#utility.yul\":5483:5662   */\n  iszero\n  tag_136\n  jumpi\n    /* \"#utility.yul\":5556:5565   */\n  dup5\n    /* \"#utility.yul\":5551:5554   */\n  dup10\n    /* \"#utility.yul\":5547:5566   */\n  add\n    /* \"#utility.yul\":5541:5567   */\n  mload\n    /* \"#utility.yul\":5599:5647   */\n  tag_137\n    /* \"#utility.yul\":5641:5645   */\n  0x1f\n    /* \"#utility.yul\":5633:5639   */\n  dup10\n    /* \"#utility.yul\":5629:5646   */\n  and\n    /* \"#utility.yul\":5618:5627   */\n  dup3\n    /* \"#utility.yul\":5599:5647   */\n  tag_64\n  jump\t// in\ntag_137:\n    /* \"#utility.yul\":5591:5597   */\n  dup4\n    /* \"#utility.yul\":5584:5648   */\n  sstore\n    /* \"#utility.yul\":5506:5662   */\n  pop\n    /* \"#utility.yul\":5483:5662   */\ntag_136:\n    /* \"#utility.yul\":5708:5709   */\n  0x01\n    /* \"#utility.yul\":5704:5705   */\n  0x02\n    /* \"#utility.yul\":5696:5702   */\n  dup9\n    /* \"#utility.yul\":5692:5706   */\n  mul\n    /* \"#utility.yul\":5688:5710   */\n  add\n    /* \"#utility.yul\":5682:5686   */\n  dup9\n    /* \"#utility.yul\":5675:5711   */\n  sstore\n    /* \"#utility.yul\":5110:5721   */\n  pop\n  pop\n  pop\n    /* \"#utility.yul\":5073:5960   */\ntag_128:\n  pop\n    /* \"#utility.yul\":4663:5966   */\n  pop\n  pop\n  pop\n    /* \"#utility.yul\":4571:5966   */\n  pop\n  pop\n  jump\t// out\n    /* \"contracts/StrawberryDonorFactory.sol\":155:1485  contract StrawberryDonorFactory is StrawberryColorPaletteFactory, StrawberryItemFactory {... */\ntag_11:\n  dataSize(sub_0)\n  dup1\n  dataOffset(sub_0)\n  0x00\n  codecopy\n  0x00\n  return\nstop\n\nsub_0: assembly {\n        /* \"contracts/StrawberryDonorFactory.sol\":155:1485  contract StrawberryDonorFactory is StrawberryColorPaletteFactory, StrawberryItemFactory {... */\n      mstore(0x40, 0x80)\n      jumpi(tag_1, lt(calldatasize, 0x04))\n      shr(0xe0, calldataload(0x00))\n      dup1\n      0x8da5cb5b\n      gt\n      tag_12\n      jumpi\n      dup1\n      0x8da5cb5b\n      eq\n      tag_7\n      jumpi\n      dup1\n      0x8f32d59b\n      eq\n      tag_8\n      jumpi\n      dup1\n      0xb8f7f42a\n      eq\n      tag_9\n      jumpi\n      dup1\n      0xdcf7eefe\n      eq\n      tag_10\n      jumpi\n      dup1\n      0xf2fde38b\n      eq\n      tag_11\n      jumpi\n      jump(tag_1)\n    tag_12:\n      dup1\n      0x109c1238\n      eq\n      tag_2\n      jumpi\n      dup1\n      0x4315399f\n      eq\n      tag_3\n      jumpi\n      dup1\n      0x60063cc6\n      eq\n      tag_4\n      jumpi\n      dup1\n      0x6f442154\n      eq\n      tag_5\n      jumpi\n      dup1\n      0x715018a6\n      eq\n      tag_6\n      jumpi\n    tag_1:\n      0x00\n      dup1\n      revert\n        /* \"contracts/StrawberryColorPaletteFactory.sol\":151:188  uint public colorAmountPerPalette = 5 */\n    tag_2:\n      callvalue\n      dup1\n      iszero\n      tag_13\n      jumpi\n      0x00\n      dup1\n      revert\n    tag_13:\n      pop\n      tag_14\n      tag_15\n      jump\t// in\n    tag_14:\n      mload(0x40)\n      tag_16\n      swap2\n      swap1\n      tag_17\n      jump\t// in\n    tag_16:\n      mload(0x40)\n      dup1\n      swap2\n      sub\n      swap1\n      return\n        /* \"contracts/StrawberryDonorFactory.sol\":707:940  function changeColorPalette(uint _donorId, uint _paletteId) external payable {... */\n    tag_3:\n      tag_18\n      0x04\n      dup1\n      calldatasize\n      sub\n      dup2\n      add\n      swap1\n      tag_19\n      swap2\n      swap1\n      tag_20\n      jump\t// in\n    tag_19:\n      tag_21\n      jump\t// in\n    tag_18:\n      stop\n        /* \"contracts/StrawberryDonorFactory.sol\":946:1094  function _addItem(uint _donorId) external {... */\n    tag_4:\n      callvalue\n      dup1\n      iszero\n      tag_22\n      jumpi\n      0x00\n      dup1\n      revert\n    tag_22:\n      pop\n      tag_23\n      0x04\n      dup1\n      calldatasize\n      sub\n      dup2\n      add\n      swap1\n      tag_24\n      swap2\n      swap1\n      tag_25\n      jump\t// in\n    tag_24:\n      tag_26\n      jump\t// in\n    tag_23:\n      stop\n        /* \"contracts/StrawberryDonorFactory.sol\":584:701  function getOwnerByAddress(address _owner) external view returns(uint) {... */\n    tag_5:\n      callvalue\n      dup1\n      iszero\n      tag_27\n      jumpi\n      0x00\n      dup1\n      revert\n    tag_27:\n      pop\n      tag_28\n      0x04\n      dup1\n      calldatasize\n      sub\n      dup2\n      add\n      swap1\n      tag_29\n      swap2\n      swap1\n      tag_30\n      jump\t// in\n    tag_29:\n      tag_31\n      jump\t// in\n    tag_28:\n      mload(0x40)\n      tag_32\n      swap2\n      swap1\n      tag_17\n      jump\t// in\n    tag_32:\n      mload(0x40)\n      dup1\n      swap2\n      sub\n      swap1\n      return\n        /* \"contracts/Ownable.sol\":1386:1523  function renounceOwnership() public onlyOwner {... */\n    tag_6:\n      callvalue\n      dup1\n      iszero\n      tag_33\n      jumpi\n      0x00\n      dup1\n      revert\n    tag_33:\n      pop\n      tag_34\n      tag_35\n      jump\t// in\n    tag_34:\n      stop\n        /* \"contracts/Ownable.sol\":707:785  function owner() public view returns(address) {... */\n    tag_7:\n      callvalue\n      dup1\n      iszero\n      tag_36\n      jumpi\n      0x00\n      dup1\n      revert\n    tag_36:\n      pop\n      tag_37\n      tag_38\n      jump\t// in\n    tag_37:\n      mload(0x40)\n      tag_39\n      swap2\n      swap1\n      tag_40\n      jump\t// in\n    tag_39:\n      mload(0x40)\n      dup1\n      swap2\n      sub\n      swap1\n      return\n        /* \"contracts/Ownable.sol\":1024:1113  function isOwner() public view returns(bool) {... */\n    tag_8:\n      callvalue\n      dup1\n      iszero\n      tag_41\n      jumpi\n      0x00\n      dup1\n      revert\n    tag_41:\n      pop\n      tag_42\n      tag_43\n      jump\t// in\n    tag_42:\n      mload(0x40)\n      tag_44\n      swap2\n      swap1\n      tag_45\n      jump\t// in\n    tag_44:\n      mload(0x40)\n      dup1\n      swap2\n      sub\n      swap1\n      return\n        /* \"contracts/StrawberryColorPaletteFactory.sol\":720:936  function addPalette(string[5] memory _colors) public onlyOwner {... */\n    tag_9:\n      callvalue\n      dup1\n      iszero\n      tag_46\n      jumpi\n      0x00\n      dup1\n      revert\n    tag_46:\n      pop\n      tag_47\n      0x04\n      dup1\n      calldatasize\n      sub\n      dup2\n      add\n      swap1\n      tag_48\n      swap2\n      swap1\n      tag_49\n      jump\t// in\n    tag_48:\n      tag_50\n      jump\t// in\n    tag_47:\n      stop\n        /* \"contracts/StrawberryColorPaletteFactory.sol\":227:249  uint[] public palettes */\n    tag_10:\n      callvalue\n      dup1\n      iszero\n      tag_51\n      jumpi\n      0x00\n      dup1\n      revert\n    tag_51:\n      pop\n      tag_52\n      0x04\n      dup1\n      calldatasize\n      sub\n      dup2\n      add\n      swap1\n      tag_53\n      swap2\n      swap1\n      tag_25\n      jump\t// in\n    tag_53:\n      tag_54\n      jump\t// in\n    tag_52:\n      mload(0x40)\n      tag_55\n      swap2\n      swap1\n      tag_17\n      jump\t// in\n    tag_55:\n      mload(0x40)\n      dup1\n      swap2\n      sub\n      swap1\n      return\n        /* \"contracts/Ownable.sol\":1691:1798  function transferOwnership(address newOwner) public onlyOwner {... */\n    tag_11:\n      callvalue\n      dup1\n      iszero\n      tag_56\n      jumpi\n      0x00\n      dup1\n      revert\n    tag_56:\n      pop\n      tag_57\n      0x04\n      dup1\n      calldatasize\n      sub\n      dup2\n      add\n      swap1\n      tag_58\n      swap2\n      swap1\n      tag_30\n      jump\t// in\n    tag_58:\n      tag_59\n      jump\t// in\n    tag_57:\n      stop\n        /* \"contracts/StrawberryColorPaletteFactory.sol\":151:188  uint public colorAmountPerPalette = 5 */\n    tag_15:\n      sload(0x01)\n      dup2\n      jump\t// out\n        /* \"contracts/StrawberryDonorFactory.sol\":707:940  function changeColorPalette(uint _donorId, uint _paletteId) external payable {... */\n    tag_21:\n        /* \"contracts/StrawberryDonorFactory.sol\":815:836  changeColorPaletteFee */\n      sload(0x06)\n        /* \"contracts/StrawberryDonorFactory.sol\":802:811  msg.value */\n      callvalue\n        /* \"contracts/StrawberryDonorFactory.sol\":802:836  msg.value == changeColorPaletteFee */\n      eq\n        /* \"contracts/StrawberryDonorFactory.sol\":794:837  require(msg.value == changeColorPaletteFee) */\n      tag_61\n      jumpi\n      0x00\n      dup1\n      revert\n    tag_61:\n        /* \"contracts/StrawberryDonorFactory.sol\":868:876  palettes */\n      0x03\n        /* \"contracts/StrawberryDonorFactory.sol\":868:883  palettes.length */\n      dup1\n      sload\n      swap1\n      pop\n        /* \"contracts/StrawberryDonorFactory.sol\":855:865  _paletteId */\n      dup2\n        /* \"contracts/StrawberryDonorFactory.sol\":855:883  _paletteId < palettes.length */\n      lt\n        /* \"contracts/StrawberryDonorFactory.sol\":847:884  require(_paletteId < palettes.length) */\n      tag_62\n      jumpi\n      0x00\n      dup1\n      revert\n    tag_62:\n        /* \"contracts/StrawberryDonorFactory.sol\":923:933  _paletteId */\n      dup1\n        /* \"contracts/StrawberryDonorFactory.sol\":894:900  donors */\n      0x07\n        /* \"contracts/StrawberryDonorFactory.sol\":901:909  _donorId */\n      dup4\n        /* \"contracts/StrawberryDonorFactory.sol\":894:910  donors[_donorId] */\n      dup2\n      sload\n      dup2\n      lt\n      tag_63\n      jumpi\n      tag_64\n      tag_65\n      jump\t// in\n    tag_64:\n    tag_63:\n      swap1\n      0x00\n      mstore\n      keccak256(0x00, 0x20)\n      swap1\n      0x03\n      mul\n      add\n        /* \"contracts/StrawberryDonorFactory.sol\":894:920  donors[_donorId].paletteId */\n      0x01\n      add\n        /* \"contracts/StrawberryDonorFactory.sol\":894:933  donors[_donorId].paletteId = _paletteId */\n      dup2\n      swap1\n      sstore\n      pop\n        /* \"contracts/StrawberryDonorFactory.sol\":707:940  function changeColorPalette(uint _donorId, uint _paletteId) external payable {... */\n      pop\n      pop\n      jump\t// out\n        /* \"contracts/StrawberryDonorFactory.sol\":946:1094  function _addItem(uint _donorId) external {... */\n    tag_26:\n        /* \"contracts/StrawberryDonorFactory.sol\":998:1005  uint id */\n      0x00\n        /* \"contracts/StrawberryDonorFactory.sol\":1008:1046  _createItem(_getRandomColorIndex(), 0) */\n      tag_68\n        /* \"contracts/StrawberryDonorFactory.sol\":1020:1042  _getRandomColorIndex() */\n      tag_69\n        /* \"contracts/StrawberryDonorFactory.sol\":1020:1040  _getRandomColorIndex */\n      tag_70\n        /* \"contracts/StrawberryDonorFactory.sol\":1020:1042  _getRandomColorIndex() */\n      jump\t// in\n    tag_69:\n        /* \"contracts/StrawberryDonorFactory.sol\":1044:1045  0 */\n      0x00\n        /* \"contracts/StrawberryDonorFactory.sol\":1008:1019  _createItem */\n      tag_71\n        /* \"contracts/StrawberryDonorFactory.sol\":1008:1046  _createItem(_getRandomColorIndex(), 0) */\n      jump\t// in\n    tag_68:\n        /* \"contracts/StrawberryDonorFactory.sol\":998:1046  uint id = _createItem(_getRandomColorIndex(), 0) */\n      swap1\n      pop\n        /* \"contracts/StrawberryDonorFactory.sol\":1056:1062  donors */\n      0x07\n        /* \"contracts/StrawberryDonorFactory.sol\":1063:1071  _donorId */\n      dup3\n        /* \"contracts/StrawberryDonorFactory.sol\":1056:1072  donors[_donorId] */\n      dup2\n      sload\n      dup2\n      lt\n      tag_72\n      jumpi\n      tag_73\n      tag_65\n      jump\t// in\n    tag_73:\n    tag_72:\n      swap1\n      0x00\n      mstore\n      keccak256(0x00, 0x20)\n      swap1\n      0x03\n      mul\n      add\n        /* \"contracts/StrawberryDonorFactory.sol\":1056:1078  donors[_donorId].items */\n      0x02\n      add\n        /* \"contracts/StrawberryDonorFactory.sol\":1084:1086  id */\n      dup2\n        /* \"contracts/StrawberryDonorFactory.sol\":1056:1087  donors[_donorId].items.push(id) */\n      swap1\n      dup1\n      0x01\n      dup2\n      sload\n      add\n      dup1\n      dup3\n      sstore\n      dup1\n      swap2\n      pop\n      pop\n      0x01\n      swap1\n      sub\n      swap1\n      0x00\n      mstore\n      keccak256(0x00, 0x20)\n      add\n      0x00\n      swap1\n      swap2\n      swap1\n      swap2\n      swap1\n      swap2\n      pop\n      sstore\n        /* \"contracts/StrawberryDonorFactory.sol\":988:1094  {... */\n      pop\n        /* \"contracts/StrawberryDonorFactory.sol\":946:1094  function _addItem(uint _donorId) external {... */\n      pop\n      jump\t// out\n        /* \"contracts/StrawberryDonorFactory.sol\":584:701  function getOwnerByAddress(address _owner) external view returns(uint) {... */\n    tag_31:\n        /* \"contracts/StrawberryDonorFactory.sol\":649:653  uint */\n      0x00\n        /* \"contracts/StrawberryDonorFactory.sol\":672:686  addressToDonor */\n      0x08\n        /* \"contracts/StrawberryDonorFactory.sol\":672:694  addressToDonor[_owner] */\n      0x00\n        /* \"contracts/StrawberryDonorFactory.sol\":687:693  _owner */\n      dup4\n        /* \"contracts/StrawberryDonorFactory.sol\":672:694  addressToDonor[_owner] */\n      0xffffffffffffffffffffffffffffffffffffffff\n      and\n      0xffffffffffffffffffffffffffffffffffffffff\n      and\n      dup2\n      mstore\n      0x20\n      add\n      swap1\n      dup2\n      mstore\n      0x20\n      add\n      0x00\n      keccak256\n      sload\n        /* \"contracts/StrawberryDonorFactory.sol\":665:694  return addressToDonor[_owner] */\n      swap1\n      pop\n        /* \"contracts/StrawberryDonorFactory.sol\":584:701  function getOwnerByAddress(address _owner) external view returns(uint) {... */\n      swap2\n      swap1\n      pop\n      jump\t// out\n        /* \"contracts/Ownable.sol\":1386:1523  function renounceOwnership() public onlyOwner {... */\n    tag_35:\n        /* \"contracts/Ownable.sol\":910:919  isOwner() */\n      tag_78\n        /* \"contracts/Ownable.sol\":910:917  isOwner */\n      tag_43\n        /* \"contracts/Ownable.sol\":910:919  isOwner() */\n      jump\t// in\n    tag_78:\n        /* \"contracts/Ownable.sol\":902:920  require(isOwner()) */\n      tag_79\n      jumpi\n      0x00\n      dup1\n      revert\n    tag_79:\n        /* \"contracts/Ownable.sol\":1484:1485  0 */\n      0x00\n        /* \"contracts/Ownable.sol\":1447:1487  OwnershipTransferred(_owner, address(0)) */\n      0xffffffffffffffffffffffffffffffffffffffff\n      and\n        /* \"contracts/Ownable.sol\":1468:1474  _owner */\n      0x00\n      dup1\n      sload\n      swap1\n      0x0100\n      exp\n      swap1\n      div\n      0xffffffffffffffffffffffffffffffffffffffff\n      and\n        /* \"contracts/Ownable.sol\":1447:1487  OwnershipTransferred(_owner, address(0)) */\n      0xffffffffffffffffffffffffffffffffffffffff\n      and\n      0x8be0079c531659141344cd1fd0a4f28419497f9722a3daafe3b4186f6b6457e0\n      mload(0x40)\n      mload(0x40)\n      dup1\n      swap2\n      sub\n      swap1\n      log3\n        /* \"contracts/Ownable.sol\":1514:1515  0 */\n      0x00\n        /* \"contracts/Ownable.sol\":1497:1503  _owner */\n      dup1\n      0x00\n        /* \"contracts/Ownable.sol\":1497:1516  _owner = address(0) */\n      0x0100\n      exp\n      dup2\n      sload\n      dup2\n      0xffffffffffffffffffffffffffffffffffffffff\n      mul\n      not\n      and\n      swap1\n      dup4\n      0xffffffffffffffffffffffffffffffffffffffff\n      and\n      mul\n      or\n      swap1\n      sstore\n      pop\n        /* \"contracts/Ownable.sol\":1386:1523  function renounceOwnership() public onlyOwner {... */\n      jump\t// out\n        /* \"contracts/Ownable.sol\":707:785  function owner() public view returns(address) {... */\n    tag_38:\n        /* \"contracts/Ownable.sol\":744:751  address */\n      0x00\n        /* \"contracts/Ownable.sol\":770:776  _owner */\n      dup1\n      0x00\n      swap1\n      sload\n      swap1\n      0x0100\n      exp\n      swap1\n      div\n      0xffffffffffffffffffffffffffffffffffffffff\n      and\n        /* \"contracts/Ownable.sol\":763:776  return _owner */\n      swap1\n      pop\n        /* \"contracts/Ownable.sol\":707:785  function owner() public view returns(address) {... */\n      swap1\n      jump\t// out\n        /* \"contracts/Ownable.sol\":1024:1113  function isOwner() public view returns(bool) {... */\n    tag_43:\n        /* \"contracts/Ownable.sol\":1063:1067  bool */\n      0x00\n        /* \"contracts/Ownable.sol\":1100:1106  _owner */\n      dup1\n      0x00\n      swap1\n      sload\n      swap1\n      0x0100\n      exp\n      swap1\n      div\n      0xffffffffffffffffffffffffffffffffffffffff\n      and\n        /* \"contracts/Ownable.sol\":1086:1106  msg.sender == _owner */\n      0xffffffffffffffffffffffffffffffffffffffff\n      and\n        /* \"contracts/Ownable.sol\":1086:1096  msg.sender */\n      caller\n        /* \"contracts/Ownable.sol\":1086:1106  msg.sender == _owner */\n      0xffffffffffffffffffffffffffffffffffffffff\n      and\n      eq\n        /* \"contracts/Ownable.sol\":1079:1106  return msg.sender == _owner */\n      swap1\n      pop\n        /* \"contracts/Ownable.sol\":1024:1113  function isOwner() public view returns(bool) {... */\n      swap1\n      jump\t// out\n        /* \"contracts/StrawberryColorPaletteFactory.sol\":720:936  function addPalette(string[5] memory _colors) public onlyOwner {... */\n    tag_50:\n        /* \"contracts/Ownable.sol\":910:919  isOwner() */\n      tag_84\n        /* \"contracts/Ownable.sol\":910:917  isOwner */\n      tag_43\n        /* \"contracts/Ownable.sol\":910:919  isOwner() */\n      jump\t// in\n    tag_84:\n        /* \"contracts/Ownable.sol\":902:920  require(isOwner()) */\n      tag_85\n      jumpi\n      0x00\n      dup1\n      revert\n    tag_85:\n        /* \"contracts/StrawberryColorPaletteFactory.sol\":793:801  palettes */\n      0x03\n        /* \"contracts/StrawberryColorPaletteFactory.sol\":807:815  palettes */\n      dup1\n        /* \"contracts/StrawberryColorPaletteFactory.sol\":807:822  palettes.length */\n      dup1\n      sload\n      swap1\n      pop\n        /* \"contracts/StrawberryColorPaletteFactory.sol\":793:823  palettes.push(palettes.length) */\n      swap1\n      dup1\n      0x01\n      dup2\n      sload\n      add\n      dup1\n      dup3\n      sstore\n      dup1\n      swap2\n      pop\n      pop\n      0x01\n      swap1\n      sub\n      swap1\n      0x00\n      mstore\n      keccak256(0x00, 0x20)\n      add\n      0x00\n      swap1\n      swap2\n      swap1\n      swap2\n      swap1\n      swap2\n      pop\n      sstore\n        /* \"contracts/StrawberryColorPaletteFactory.sol\":872:879  _colors */\n      dup1\n        /* \"contracts/StrawberryColorPaletteFactory.sol\":833:848  paletteToColors */\n      0x04\n        /* \"contracts/StrawberryColorPaletteFactory.sol\":833:869  paletteToColors[palettes.length - 1] */\n      0x00\n        /* \"contracts/StrawberryColorPaletteFactory.sol\":867:868  1 */\n      0x01\n        /* \"contracts/StrawberryColorPaletteFactory.sol\":849:857  palettes */\n      0x03\n        /* \"contracts/StrawberryColorPaletteFactory.sol\":849:864  palettes.length */\n      dup1\n      sload\n      swap1\n      pop\n        /* \"contracts/StrawberryColorPaletteFactory.sol\":849:868  palettes.length - 1 */\n      tag_88\n      swap2\n      swap1\n      tag_89\n      jump\t// in\n    tag_88:\n        /* \"contracts/StrawberryColorPaletteFactory.sol\":833:869  paletteToColors[palettes.length - 1] */\n      dup2\n      mstore\n      0x20\n      add\n      swap1\n      dup2\n      mstore\n      0x20\n      add\n      0x00\n      keccak256\n        /* \"contracts/StrawberryColorPaletteFactory.sol\":833:879  paletteToColors[palettes.length - 1] = _colors */\n      swap1\n      0x05\n      tag_90\n      swap3\n      swap2\n      swap1\n      tag_91\n      jump\t// in\n    tag_90:\n      pop\n        /* \"contracts/StrawberryColorPaletteFactory.sol\":894:929  PaletteCreated(palettes.length - 1) */\n      0xe1c7c98cdeded3a25c1c7ada5b85013b2c7c9879f1678129a413ea685d0fcc78\n        /* \"contracts/StrawberryColorPaletteFactory.sol\":927:928  1 */\n      0x01\n        /* \"contracts/StrawberryColorPaletteFactory.sol\":909:917  palettes */\n      0x03\n        /* \"contracts/StrawberryColorPaletteFactory.sol\":909:924  palettes.length */\n      dup1\n      sload\n      swap1\n      pop\n        /* \"contracts/StrawberryColorPaletteFactory.sol\":909:928  palettes.length - 1 */\n      tag_92\n      swap2\n      swap1\n      tag_89\n      jump\t// in\n    tag_92:\n        /* \"contracts/StrawberryColorPaletteFactory.sol\":894:929  PaletteCreated(palettes.length - 1) */\n      mload(0x40)\n      tag_93\n      swap2\n      swap1\n      tag_17\n      jump\t// in\n    tag_93:\n      mload(0x40)\n      dup1\n      swap2\n      sub\n      swap1\n      log1\n        /* \"contracts/StrawberryColorPaletteFactory.sol\":720:936  function addPalette(string[5] memory _colors) public onlyOwner {... */\n      pop\n      jump\t// out\n        /* \"contracts/StrawberryColorPaletteFactory.sol\":227:249  uint[] public palettes */\n    tag_54:\n      0x03\n      dup2\n      dup2\n      sload\n      dup2\n      lt\n      tag_94\n      jumpi\n      0x00\n      dup1\n      revert\n    tag_94:\n      swap1\n      0x00\n      mstore\n      keccak256(0x00, 0x20)\n      add\n      0x00\n      swap2\n      pop\n      swap1\n      pop\n      sload\n      dup2\n      jump\t// out\n        /* \"contracts/Ownable.sol\":1691:1798  function transferOwnership(address newOwner) public onlyOwner {... */\n    tag_59:\n        /* \"contracts/Ownable.sol\":910:919  isOwner() */\n      tag_97\n        /* \"contracts/Ownable.sol\":910:917  isOwner */\n      tag_43\n        /* \"contracts/Ownable.sol\":910:919  isOwner() */\n      jump\t// in\n    tag_97:\n        /* \"contracts/Ownable.sol\":902:920  require(isOwner()) */\n      tag_98\n      jumpi\n      0x00\n      dup1\n      revert\n    tag_98:\n        /* \"contracts/Ownable.sol\":1763:1791  _transferOwnership(newOwner) */\n      tag_100\n        /* \"contracts/Ownable.sol\":1782:1790  newOwner */\n      dup2\n        /* \"contracts/Ownable.sol\":1763:1781  _transferOwnership */\n      tag_101\n        /* \"contracts/Ownable.sol\":1763:1791  _transferOwnership(newOwner) */\n      jump\t// in\n    tag_100:\n        /* \"contracts/Ownable.sol\":1691:1798  function transferOwnership(address newOwner) public onlyOwner {... */\n      pop\n      jump\t// out\n        /* \"contracts/StrawberryColorPaletteFactory.sol\":1072:1185  function _getRandomColorIndex() internal returns(uint) {... */\n    tag_70:\n        /* \"contracts/StrawberryColorPaletteFactory.sol\":1121:1125  uint */\n      0x00\n        /* \"contracts/StrawberryColorPaletteFactory.sol\":1144:1178  _random(colorAmountPerPalette - 1) */\n      tag_103\n        /* \"contracts/StrawberryColorPaletteFactory.sol\":1176:1177  1 */\n      0x01\n        /* \"contracts/StrawberryColorPaletteFactory.sol\":1152:1173  colorAmountPerPalette */\n      dup1\n      sload\n        /* \"contracts/StrawberryColorPaletteFactory.sol\":1152:1177  colorAmountPerPalette - 1 */\n      tag_104\n      swap2\n      swap1\n      tag_89\n      jump\t// in\n    tag_104:\n        /* \"contracts/StrawberryColorPaletteFactory.sol\":1144:1151  _random */\n      tag_105\n        /* \"contracts/StrawberryColorPaletteFactory.sol\":1144:1178  _random(colorAmountPerPalette - 1) */\n      jump\t// in\n    tag_103:\n        /* \"contracts/StrawberryColorPaletteFactory.sol\":1137:1178  return _random(colorAmountPerPalette - 1) */\n      swap1\n      pop\n        /* \"contracts/StrawberryColorPaletteFactory.sol\":1072:1185  function _getRandomColorIndex() internal returns(uint) {... */\n      swap1\n      jump\t// out\n        /* \"contracts/StrawberryItemFactory.sol\":237:439  function _createItem(uint _colorId, uint _tierId) internal returns(uint) {... */\n    tag_71:\n        /* \"contracts/StrawberryItemFactory.sol\":304:308  uint */\n      0x00\n        /* \"contracts/StrawberryItemFactory.sol\":320:325  items */\n      0x05\n        /* \"contracts/StrawberryItemFactory.sol\":331:376  StrawberryItem(msg.sender, _colorId, _tierId) */\n      mload(0x40)\n      dup1\n      0x60\n      add\n      0x40\n      mstore\n      dup1\n        /* \"contracts/StrawberryItemFactory.sol\":346:356  msg.sender */\n      caller\n        /* \"contracts/StrawberryItemFactory.sol\":331:376  StrawberryItem(msg.sender, _colorId, _tierId) */\n      0xffffffffffffffffffffffffffffffffffffffff\n      and\n      dup2\n      mstore\n      0x20\n      add\n        /* \"contracts/StrawberryItemFactory.sol\":358:366  _colorId */\n      dup6\n        /* \"contracts/StrawberryItemFactory.sol\":331:376  StrawberryItem(msg.sender, _colorId, _tierId) */\n      dup2\n      mstore\n      0x20\n      add\n        /* \"contracts/StrawberryItemFactory.sol\":368:375  _tierId */\n      dup5\n        /* \"contracts/StrawberryItemFactory.sol\":331:376  StrawberryItem(msg.sender, _colorId, _tierId) */\n      dup2\n      mstore\n      pop\n        /* \"contracts/StrawberryItemFactory.sol\":320:377  items.push(StrawberryItem(msg.sender, _colorId, _tierId)) */\n      swap1\n      dup1\n      0x01\n      dup2\n      sload\n      add\n      dup1\n      dup3\n      sstore\n      dup1\n      swap2\n      pop\n      pop\n      0x01\n      swap1\n      sub\n      swap1\n      0x00\n      mstore\n      keccak256(0x00, 0x20)\n      swap1\n      0x03\n      mul\n      add\n      0x00\n      swap1\n      swap2\n      swap1\n      swap2\n      swap1\n      swap2\n      pop\n      0x00\n      dup3\n      add\n      mload\n      dup2\n      0x00\n      add\n      exp(0x0100, 0x00)\n      dup2\n      sload\n      dup2\n      0xffffffffffffffffffffffffffffffffffffffff\n      mul\n      not\n      and\n      swap1\n      dup4\n      0xffffffffffffffffffffffffffffffffffffffff\n      and\n      mul\n      or\n      swap1\n      sstore\n      pop\n      0x20\n      dup3\n      add\n      mload\n      dup2\n      0x01\n      add\n      sstore\n      0x40\n      dup3\n      add\n      mload\n      dup2\n      0x02\n      add\n      sstore\n      pop\n      pop\n        /* \"contracts/StrawberryItemFactory.sol\":387:394  uint id */\n      0x00\n        /* \"contracts/StrawberryItemFactory.sol\":412:413  1 */\n      0x01\n        /* \"contracts/StrawberryItemFactory.sol\":397:402  items */\n      0x05\n        /* \"contracts/StrawberryItemFactory.sol\":397:409  items.length */\n      dup1\n      sload\n      swap1\n      pop\n        /* \"contracts/StrawberryItemFactory.sol\":397:413  items.length - 1 */\n      tag_108\n      swap2\n      swap1\n      tag_89\n      jump\t// in\n    tag_108:\n        /* \"contracts/StrawberryItemFactory.sol\":387:413  uint id = items.length - 1 */\n      swap1\n      pop\n        /* \"contracts/StrawberryItemFactory.sol\":430:432  id */\n      dup1\n        /* \"contracts/StrawberryItemFactory.sol\":423:432  return id */\n      swap2\n      pop\n      pop\n        /* \"contracts/StrawberryItemFactory.sol\":237:439  function _createItem(uint _colorId, uint _tierId) internal returns(uint) {... */\n      swap3\n      swap2\n      pop\n      pop\n      jump\t// out\n        /* \"contracts/Ownable.sol\":1939:2122  function _transferOwnership(address newOwner) internal {... */\n    tag_101:\n        /* \"contracts/Ownable.sol\":2032:2033  0 */\n      0x00\n        /* \"contracts/Ownable.sol\":2012:2034  newOwner != address(0) */\n      0xffffffffffffffffffffffffffffffffffffffff\n      and\n        /* \"contracts/Ownable.sol\":2012:2020  newOwner */\n      dup2\n        /* \"contracts/Ownable.sol\":2012:2034  newOwner != address(0) */\n      0xffffffffffffffffffffffffffffffffffffffff\n      and\n      sub\n        /* \"contracts/Ownable.sol\":2004:2035  require(newOwner != address(0)) */\n      tag_110\n      jumpi\n      0x00\n      dup1\n      revert\n    tag_110:\n        /* \"contracts/Ownable.sol\":2079:2087  newOwner */\n      dup1\n        /* \"contracts/Ownable.sol\":2050:2088  OwnershipTransferred(_owner, newOwner) */\n      0xffffffffffffffffffffffffffffffffffffffff\n      and\n        /* \"contracts/Ownable.sol\":2071:2077  _owner */\n      0x00\n      dup1\n      sload\n      swap1\n      0x0100\n      exp\n      swap1\n      div\n      0xffffffffffffffffffffffffffffffffffffffff\n      and\n        /* \"contracts/Ownable.sol\":2050:2088  OwnershipTransferred(_owner, newOwner) */\n      0xffffffffffffffffffffffffffffffffffffffff\n      and\n      0x8be0079c531659141344cd1fd0a4f28419497f9722a3daafe3b4186f6b6457e0\n      mload(0x40)\n      mload(0x40)\n      dup1\n      swap2\n      sub\n      swap1\n      log3\n        /* \"contracts/Ownable.sol\":2107:2115  newOwner */\n      dup1\n        /* \"contracts/Ownable.sol\":2098:2104  _owner */\n      0x00\n      dup1\n        /* \"contracts/Ownable.sol\":2098:2115  _owner = newOwner */\n      0x0100\n      exp\n      dup2\n      sload\n      dup2\n      0xffffffffffffffffffffffffffffffffffffffff\n      mul\n      not\n      and\n      swap1\n      dup4\n      0xffffffffffffffffffffffffffffffffffffffff\n      and\n      mul\n      or\n      swap1\n      sstore\n      pop\n        /* \"contracts/Ownable.sol\":1939:2122  function _transferOwnership(address newOwner) internal {... */\n      pop\n      jump\t// out\n        /* \"contracts/StrawberryColorPaletteFactory.sol\":1205:1402  function _random(uint number) private returns(uint) {... */\n    tag_105:\n        /* \"contracts/StrawberryColorPaletteFactory.sol\":1251:1255  uint */\n      0x00\n        /* \"contracts/StrawberryColorPaletteFactory.sol\":1267:1276  randNonce */\n      0x02\n      0x00\n        /* \"contracts/StrawberryColorPaletteFactory.sol\":1267:1278  randNonce++ */\n      dup2\n      sload\n      dup1\n      swap3\n      swap2\n      swap1\n      tag_112\n      swap1\n      tag_113\n      jump\t// in\n    tag_112:\n      swap2\n      swap1\n      pop\n      sstore\n      pop\n        /* \"contracts/StrawberryColorPaletteFactory.sol\":1389:1395  number */\n      dup2\n        /* \"contracts/StrawberryColorPaletteFactory.sol\":1327:1342  block.timestamp */\n      timestamp\n        /* \"contracts/StrawberryColorPaletteFactory.sol\":1344:1360  block.difficulty */\n      prevrandao\n        /* \"contracts/StrawberryColorPaletteFactory.sol\":1362:1372  msg.sender */\n      caller\n        /* \"contracts/StrawberryColorPaletteFactory.sol\":1374:1383  randNonce */\n      sload(0x02)\n        /* \"contracts/StrawberryColorPaletteFactory.sol\":1310:1384  abi.encodePacked(block.timestamp, block.difficulty, msg.sender, randNonce) */\n      add(0x20, mload(0x40))\n      tag_114\n      swap5\n      swap4\n      swap3\n      swap2\n      swap1\n      tag_115\n      jump\t// in\n    tag_114:\n      mload(0x40)\n      0x20\n      dup2\n      dup4\n      sub\n      sub\n      dup2\n      mstore\n      swap1\n      0x40\n      mstore\n        /* \"contracts/StrawberryColorPaletteFactory.sol\":1300:1385  keccak256(abi.encodePacked(block.timestamp, block.difficulty, msg.sender, randNonce)) */\n      dup1\n      mload\n      swap1\n      0x20\n      add\n      keccak256\n        /* \"contracts/StrawberryColorPaletteFactory.sol\":1295:1386  uint(keccak256(abi.encodePacked(block.timestamp, block.difficulty, msg.sender, randNonce))) */\n      0x00\n      shr\n        /* \"contracts/StrawberryColorPaletteFactory.sol\":1295:1395  uint(keccak256(abi.encodePacked(block.timestamp, block.difficulty, msg.sender, randNonce))) % number */\n      tag_116\n      swap2\n      swap1\n      tag_117\n      jump\t// in\n    tag_116:\n        /* \"contracts/StrawberryColorPaletteFactory.sol\":1288:1395  return uint(keccak256(abi.encodePacked(block.timestamp, block.difficulty, msg.sender, randNonce))) % number */\n      swap1\n      pop\n        /* \"contracts/StrawberryColorPaletteFactory.sol\":1205:1402  function _random(uint number) private returns(uint) {... */\n      swap2\n      swap1\n      pop\n      jump\t// out\n    tag_91:\n      dup3\n      dup1\n      sload\n      dup3\n      dup3\n      sstore\n      swap1\n      0x00\n      mstore\n      keccak256(0x00, 0x20)\n      swap1\n      dup2\n      add\n      swap3\n      dup3\n      iszero\n      tag_118\n      jumpi\n      swap2\n      0x20\n      mul\n      dup3\n      add\n    tag_119:\n      dup3\n      dup2\n      gt\n      iszero\n      tag_120\n      jumpi\n      dup3\n      mload\n      dup3\n      swap1\n      dup2\n      tag_121\n      swap2\n      swap1\n      tag_122\n      jump\t// in\n    tag_121:\n      pop\n      swap2\n      0x20\n      add\n      swap2\n      swap1\n      0x01\n      add\n      swap1\n      jump(tag_119)\n    tag_120:\n    tag_118:\n      pop\n      swap1\n      pop\n      tag_123\n      swap2\n      swap1\n      tag_124\n      jump\t// in\n    tag_123:\n      pop\n      swap1\n      jump\t// out\n    tag_124:\n    tag_125:\n      dup1\n      dup3\n      gt\n      iszero\n      tag_126\n      jumpi\n      0x00\n      dup2\n      dup2\n      tag_127\n      swap2\n      swap1\n      tag_128\n      jump\t// in\n    tag_127:\n      pop\n      0x01\n      add\n      jump(tag_125)\n    tag_126:\n      pop\n      swap1\n      jump\t// out\n    tag_128:\n      pop\n      dup1\n      sload\n      tag_129\n      swap1\n      tag_130\n      jump\t// in\n    tag_129:\n      0x00\n      dup3\n      sstore\n      dup1\n      0x1f\n      lt\n      tag_132\n      jumpi\n      pop\n      jump(tag_131)\n    tag_132:\n      0x1f\n      add\n      0x20\n      swap1\n      div\n      swap1\n      0x00\n      mstore\n      keccak256(0x00, 0x20)\n      swap1\n      dup2\n      add\n      swap1\n      tag_133\n      swap2\n      swap1\n      tag_134\n      jump\t// in\n    tag_133:\n    tag_131:\n      pop\n      jump\t// out\n    tag_134:\n    tag_135:\n      dup1\n      dup3\n      gt\n      iszero\n      tag_136\n      jumpi\n      0x00\n      dup2\n      0x00\n      swap1\n      sstore\n      pop\n      0x01\n      add\n      jump(tag_135)\n    tag_136:\n      pop\n      swap1\n      jump\t// out\n        /* \"#utility.yul\":7:84   */\n    tag_137:\n        /* \"#utility.yul\":44:51   */\n      0x00\n        /* \"#utility.yul\":73:78   */\n      dup2\n        /* \"#utility.yul\":62:78   */\n      swap1\n      pop\n        /* \"#utility.yul\":7:84   */\n      swap2\n      swap1\n      pop\n      jump\t// out\n        /* \"#utility.yul\":90:208   */\n    tag_138:\n        /* \"#utility.yul\":177:201   */\n      tag_193\n        /* \"#utility.yul\":195:200   */\n      dup2\n        /* \"#utility.yul\":177:201   */\n      tag_137\n      jump\t// in\n    tag_193:\n        /* \"#utility.yul\":172:175   */\n      dup3\n        /* \"#utility.yul\":165:202   */\n      mstore\n        /* \"#utility.yul\":90:208   */\n      pop\n      pop\n      jump\t// out\n        /* \"#utility.yul\":214:436   */\n    tag_17:\n        /* \"#utility.yul\":307:311   */\n      0x00\n        /* \"#utility.yul\":345:347   */\n      0x20\n        /* \"#utility.yul\":334:343   */\n      dup3\n        /* \"#utility.yul\":330:348   */\n      add\n        /* \"#utility.yul\":322:348   */\n      swap1\n      pop\n        /* \"#utility.yul\":358:429   */\n      tag_195\n        /* \"#utility.yul\":426:427   */\n      0x00\n        /* \"#utility.yul\":415:424   */\n      dup4\n        /* \"#utility.yul\":411:428   */\n      add\n        /* \"#utility.yul\":402:408   */\n      dup5\n        /* \"#utility.yul\":358:429   */\n      tag_138\n      jump\t// in\n    tag_195:\n        /* \"#utility.yul\":214:436   */\n      swap3\n      swap2\n      pop\n      pop\n      jump\t// out\n        /* \"#utility.yul\":442:517   */\n    tag_139:\n        /* \"#utility.yul\":475:481   */\n      0x00\n        /* \"#utility.yul\":508:510   */\n      0x40\n        /* \"#utility.yul\":502:511   */\n      mload\n        /* \"#utility.yul\":492:511   */\n      swap1\n      pop\n        /* \"#utility.yul\":442:517   */\n      swap1\n      jump\t// out\n        /* \"#utility.yul\":523:640   */\n    tag_140:\n        /* \"#utility.yul\":632:633   */\n      0x00\n        /* \"#utility.yul\":629:630   */\n      dup1\n        /* \"#utility.yul\":622:634   */\n      revert\n        /* \"#utility.yul\":646:763   */\n    tag_141:\n        /* \"#utility.yul\":755:756   */\n      0x00\n        /* \"#utility.yul\":752:753   */\n      dup1\n        /* \"#utility.yul\":745:757   */\n      revert\n        /* \"#utility.yul\":769:891   */\n    tag_142:\n        /* \"#utility.yul\":842:866   */\n      tag_200\n        /* \"#utility.yul\":860:865   */\n      dup2\n        /* \"#utility.yul\":842:866   */\n      tag_137\n      jump\t// in\n    tag_200:\n        /* \"#utility.yul\":835:840   */\n      dup2\n        /* \"#utility.yul\":832:867   */\n      eq\n        /* \"#utility.yul\":822:885   */\n      tag_201\n      jumpi\n        /* \"#utility.yul\":881:882   */\n      0x00\n        /* \"#utility.yul\":878:879   */\n      dup1\n        /* \"#utility.yul\":871:883   */\n      revert\n        /* \"#utility.yul\":822:885   */\n    tag_201:\n        /* \"#utility.yul\":769:891   */\n      pop\n      jump\t// out\n        /* \"#utility.yul\":897:1036   */\n    tag_143:\n        /* \"#utility.yul\":943:948   */\n      0x00\n        /* \"#utility.yul\":981:987   */\n      dup2\n        /* \"#utility.yul\":968:988   */\n      calldataload\n        /* \"#utility.yul\":959:988   */\n      swap1\n      pop\n        /* \"#utility.yul\":997:1030   */\n      tag_203\n        /* \"#utility.yul\":1024:1029   */\n      dup2\n        /* \"#utility.yul\":997:1030   */\n      tag_142\n      jump\t// in\n    tag_203:\n        /* \"#utility.yul\":897:1036   */\n      swap3\n      swap2\n      pop\n      pop\n      jump\t// out\n        /* \"#utility.yul\":1042:1516   */\n    tag_20:\n        /* \"#utility.yul\":1110:1116   */\n      0x00\n        /* \"#utility.yul\":1118:1124   */\n      dup1\n        /* \"#utility.yul\":1167:1169   */\n      0x40\n        /* \"#utility.yul\":1155:1164   */\n      dup4\n        /* \"#utility.yul\":1146:1153   */\n      dup6\n        /* \"#utility.yul\":1142:1165   */\n      sub\n        /* \"#utility.yul\":1138:1170   */\n      slt\n        /* \"#utility.yul\":1135:1254   */\n      iszero\n      tag_205\n      jumpi\n        /* \"#utility.yul\":1173:1252   */\n      tag_206\n      tag_140\n      jump\t// in\n    tag_206:\n        /* \"#utility.yul\":1135:1254   */\n    tag_205:\n        /* \"#utility.yul\":1293:1294   */\n      0x00\n        /* \"#utility.yul\":1318:1371   */\n      tag_207\n        /* \"#utility.yul\":1363:1370   */\n      dup6\n        /* \"#utility.yul\":1354:1360   */\n      dup3\n        /* \"#utility.yul\":1343:1352   */\n      dup7\n        /* \"#utility.yul\":1339:1361   */\n      add\n        /* \"#utility.yul\":1318:1371   */\n      tag_143\n      jump\t// in\n    tag_207:\n        /* \"#utility.yul\":1308:1371   */\n      swap3\n      pop\n        /* \"#utility.yul\":1264:1381   */\n      pop\n        /* \"#utility.yul\":1420:1422   */\n      0x20\n        /* \"#utility.yul\":1446:1499   */\n      tag_208\n        /* \"#utility.yul\":1491:1498   */\n      dup6\n        /* \"#utility.yul\":1482:1488   */\n      dup3\n        /* \"#utility.yul\":1471:1480   */\n      dup7\n        /* \"#utility.yul\":1467:1489   */\n      add\n        /* \"#utility.yul\":1446:1499   */\n      tag_143\n      jump\t// in\n    tag_208:\n        /* \"#utility.yul\":1436:1499   */\n      swap2\n      pop\n        /* \"#utility.yul\":1391:1509   */\n      pop\n        /* \"#utility.yul\":1042:1516   */\n      swap3\n      pop\n      swap3\n      swap1\n      pop\n      jump\t// out\n        /* \"#utility.yul\":1522:1851   */\n    tag_25:\n        /* \"#utility.yul\":1581:1587   */\n      0x00\n        /* \"#utility.yul\":1630:1632   */\n      0x20\n        /* \"#utility.yul\":1618:1627   */\n      dup3\n        /* \"#utility.yul\":1609:1616   */\n      dup5\n        /* \"#utility.yul\":1605:1628   */\n      sub\n        /* \"#utility.yul\":1601:1633   */\n      slt\n        /* \"#utility.yul\":1598:1717   */\n      iszero\n      tag_210\n      jumpi\n        /* \"#utility.yul\":1636:1715   */\n      tag_211\n      tag_140\n      jump\t// in\n    tag_211:\n        /* \"#utility.yul\":1598:1717   */\n    tag_210:\n        /* \"#utility.yul\":1756:1757   */\n      0x00\n        /* \"#utility.yul\":1781:1834   */\n      tag_212\n        /* \"#utility.yul\":1826:1833   */\n      dup5\n        /* \"#utility.yul\":1817:1823   */\n      dup3\n        /* \"#utility.yul\":1806:1815   */\n      dup6\n        /* \"#utility.yul\":1802:1824   */\n      add\n        /* \"#utility.yul\":1781:1834   */\n      tag_143\n      jump\t// in\n    tag_212:\n        /* \"#utility.yul\":1771:1834   */\n      swap2\n      pop\n        /* \"#utility.yul\":1727:1844   */\n      pop\n        /* \"#utility.yul\":1522:1851   */\n      swap3\n      swap2\n      pop\n      pop\n      jump\t// out\n        /* \"#utility.yul\":1857:1983   */\n    tag_144:\n        /* \"#utility.yul\":1894:1901   */\n      0x00\n        /* \"#utility.yul\":1934:1976   */\n      0xffffffffffffffffffffffffffffffffffffffff\n        /* \"#utility.yul\":1927:1932   */\n      dup3\n        /* \"#utility.yul\":1923:1977   */\n      and\n        /* \"#utility.yul\":1912:1977   */\n      swap1\n      pop\n        /* \"#utility.yul\":1857:1983   */\n      swap2\n      swap1\n      pop\n      jump\t// out\n        /* \"#utility.yul\":1989:2085   */\n    tag_145:\n        /* \"#utility.yul\":2026:2033   */\n      0x00\n        /* \"#utility.yul\":2055:2079   */\n      tag_215\n        /* \"#utility.yul\":2073:2078   */\n      dup3\n        /* \"#utility.yul\":2055:2079   */\n      tag_144\n      jump\t// in\n    tag_215:\n        /* \"#utility.yul\":2044:2079   */\n      swap1\n      pop\n        /* \"#utility.yul\":1989:2085   */\n      swap2\n      swap1\n      pop\n      jump\t// out\n        /* \"#utility.yul\":2091:2213   */\n    tag_146:\n        /* \"#utility.yul\":2164:2188   */\n      tag_217\n        /* \"#utility.yul\":2182:2187   */\n      dup2\n        /* \"#utility.yul\":2164:2188   */\n      tag_145\n      jump\t// in\n    tag_217:\n        /* \"#utility.yul\":2157:2162   */\n      dup2\n        /* \"#utility.yul\":2154:2189   */\n      eq\n        /* \"#utility.yul\":2144:2207   */\n      tag_218\n      jumpi\n        /* \"#utility.yul\":2203:2204   */\n      0x00\n        /* \"#utility.yul\":2200:2201   */\n      dup1\n        /* \"#utility.yul\":2193:2205   */\n      revert\n        /* \"#utility.yul\":2144:2207   */\n    tag_218:\n        /* \"#utility.yul\":2091:2213   */\n      pop\n      jump\t// out\n        /* \"#utility.yul\":2219:2358   */\n    tag_147:\n        /* \"#utility.yul\":2265:2270   */\n      0x00\n        /* \"#utility.yul\":2303:2309   */\n      dup2\n        /* \"#utility.yul\":2290:2310   */\n      calldataload\n        /* \"#utility.yul\":2281:2310   */\n      swap1\n      pop\n        /* \"#utility.yul\":2319:2352   */\n      tag_220\n        /* \"#utility.yul\":2346:2351   */\n      dup2\n        /* \"#utility.yul\":2319:2352   */\n      tag_146\n      jump\t// in\n    tag_220:\n        /* \"#utility.yul\":2219:2358   */\n      swap3\n      swap2\n      pop\n      pop\n      jump\t// out\n        /* \"#utility.yul\":2364:2693   */\n    tag_30:\n        /* \"#utility.yul\":2423:2429   */\n      0x00\n        /* \"#utility.yul\":2472:2474   */\n      0x20\n        /* \"#utility.yul\":2460:2469   */\n      dup3\n        /* \"#utility.yul\":2451:2458   */\n      dup5\n        /* \"#utility.yul\":2447:2470   */\n      sub\n        /* \"#utility.yul\":2443:2475   */\n      slt\n        /* \"#utility.yul\":2440:2559   */\n      iszero\n      tag_222\n      jumpi\n        /* \"#utility.yul\":2478:2557   */\n      tag_223\n      tag_140\n      jump\t// in\n    tag_223:\n        /* \"#utility.yul\":2440:2559   */\n    tag_222:\n        /* \"#utility.yul\":2598:2599   */\n      0x00\n        /* \"#utility.yul\":2623:2676   */\n      tag_224\n        /* \"#utility.yul\":2668:2675   */\n      dup5\n        /* \"#utility.yul\":2659:2665   */\n      dup3\n        /* \"#utility.yul\":2648:2657   */\n      dup6\n        /* \"#utility.yul\":2644:2666   */\n      add\n        /* \"#utility.yul\":2623:2676   */\n      tag_147\n      jump\t// in\n    tag_224:\n        /* \"#utility.yul\":2613:2676   */\n      swap2\n      pop\n        /* \"#utility.yul\":2569:2686   */\n      pop\n        /* \"#utility.yul\":2364:2693   */\n      swap3\n      swap2\n      pop\n      pop\n      jump\t// out\n        /* \"#utility.yul\":2699:2817   */\n    tag_148:\n        /* \"#utility.yul\":2786:2810   */\n      tag_226\n        /* \"#utility.yul\":2804:2809   */\n      dup2\n        /* \"#utility.yul\":2786:2810   */\n      tag_145\n      jump\t// in\n    tag_226:\n        /* \"#utility.yul\":2781:2784   */\n      dup3\n        /* \"#utility.yul\":2774:2811   */\n      mstore\n        /* \"#utility.yul\":2699:2817   */\n      pop\n      pop\n      jump\t// out\n        /* \"#utility.yul\":2823:3045   */\n    tag_40:\n        /* \"#utility.yul\":2916:2920   */\n      0x00\n        /* \"#utility.yul\":2954:2956   */\n      0x20\n        /* \"#utility.yul\":2943:2952   */\n      dup3\n        /* \"#utility.yul\":2939:2957   */\n      add\n        /* \"#utility.yul\":2931:2957   */\n      swap1\n      pop\n        /* \"#utility.yul\":2967:3038   */\n      tag_228\n        /* \"#utility.yul\":3035:3036   */\n      0x00\n        /* \"#utility.yul\":3024:3033   */\n      dup4\n        /* \"#utility.yul\":3020:3037   */\n      add\n        /* \"#utility.yul\":3011:3017   */\n      dup5\n        /* \"#utility.yul\":2967:3038   */\n      tag_148\n      jump\t// in\n    tag_228:\n        /* \"#utility.yul\":2823:3045   */\n      swap3\n      swap2\n      pop\n      pop\n      jump\t// out\n        /* \"#utility.yul\":3051:3141   */\n    tag_149:\n        /* \"#utility.yul\":3085:3092   */\n      0x00\n        /* \"#utility.yul\":3128:3133   */\n      dup2\n        /* \"#utility.yul\":3121:3134   */\n      iszero\n        /* \"#utility.yul\":3114:3135   */\n      iszero\n        /* \"#utility.yul\":3103:3135   */\n      swap1\n      pop\n        /* \"#utility.yul\":3051:3141   */\n      swap2\n      swap1\n      pop\n      jump\t// out\n        /* \"#utility.yul\":3147:3256   */\n    tag_150:\n        /* \"#utility.yul\":3228:3249   */\n      tag_231\n        /* \"#utility.yul\":3243:3248   */\n      dup2\n        /* \"#utility.yul\":3228:3249   */\n      tag_149\n      jump\t// in\n    tag_231:\n        /* \"#utility.yul\":3223:3226   */\n      dup3\n        /* \"#utility.yul\":3216:3250   */\n      mstore\n        /* \"#utility.yul\":3147:3256   */\n      pop\n      pop\n      jump\t// out\n        /* \"#utility.yul\":3262:3472   */\n    tag_45:\n        /* \"#utility.yul\":3349:3353   */\n      0x00\n        /* \"#utility.yul\":3387:3389   */\n      0x20\n        /* \"#utility.yul\":3376:3385   */\n      dup3\n        /* \"#utility.yul\":3372:3390   */\n      add\n        /* \"#utility.yul\":3364:3390   */\n      swap1\n      pop\n        /* \"#utility.yul\":3400:3465   */\n      tag_233\n        /* \"#utility.yul\":3462:3463   */\n      0x00\n        /* \"#utility.yul\":3451:3460   */\n      dup4\n        /* \"#utility.yul\":3447:3464   */\n      add\n        /* \"#utility.yul\":3438:3444   */\n      dup5\n        /* \"#utility.yul\":3400:3465   */\n      tag_150\n      jump\t// in\n    tag_233:\n        /* \"#utility.yul\":3262:3472   */\n      swap3\n      swap2\n      pop\n      pop\n      jump\t// out\n        /* \"#utility.yul\":3478:3595   */\n    tag_151:\n        /* \"#utility.yul\":3587:3588   */\n      0x00\n        /* \"#utility.yul\":3584:3585   */\n      dup1\n        /* \"#utility.yul\":3577:3589   */\n      revert\n        /* \"#utility.yul\":3601:3703   */\n    tag_152:\n        /* \"#utility.yul\":3642:3648   */\n      0x00\n        /* \"#utility.yul\":3693:3695   */\n      0x1f\n        /* \"#utility.yul\":3689:3696   */\n      not\n        /* \"#utility.yul\":3684:3686   */\n      0x1f\n        /* \"#utility.yul\":3677:3682   */\n      dup4\n        /* \"#utility.yul\":3673:3687   */\n      add\n        /* \"#utility.yul\":3669:3697   */\n      and\n        /* \"#utility.yul\":3659:3697   */\n      swap1\n      pop\n        /* \"#utility.yul\":3601:3703   */\n      swap2\n      swap1\n      pop\n      jump\t// out\n        /* \"#utility.yul\":3709:3889   */\n    tag_153:\n        /* \"#utility.yul\":3757:3834   */\n      0x4e487b7100000000000000000000000000000000000000000000000000000000\n        /* \"#utility.yul\":3754:3755   */\n      0x00\n        /* \"#utility.yul\":3747:3835   */\n      mstore\n        /* \"#utility.yul\":3854:3858   */\n      0x41\n        /* \"#utility.yul\":3851:3852   */\n      0x04\n        /* \"#utility.yul\":3844:3859   */\n      mstore\n        /* \"#utility.yul\":3878:3882   */\n      0x24\n        /* \"#utility.yul\":3875:3876   */\n      0x00\n        /* \"#utility.yul\":3868:3883   */\n      revert\n        /* \"#utility.yul\":3895:4176   */\n    tag_154:\n        /* \"#utility.yul\":3978:4005   */\n      tag_238\n        /* \"#utility.yul\":4000:4004   */\n      dup3\n        /* \"#utility.yul\":3978:4005   */\n      tag_152\n      jump\t// in\n    tag_238:\n        /* \"#utility.yul\":3970:3976   */\n      dup2\n        /* \"#utility.yul\":3966:4006   */\n      add\n        /* \"#utility.yul\":4108:4114   */\n      dup2\n        /* \"#utility.yul\":4096:4106   */\n      dup2\n        /* \"#utility.yul\":4093:4115   */\n      lt\n        /* \"#utility.yul\":4072:4090   */\n      0xffffffffffffffff\n        /* \"#utility.yul\":4060:4070   */\n      dup3\n        /* \"#utility.yul\":4057:4091   */\n      gt\n        /* \"#utility.yul\":4054:4116   */\n      or\n        /* \"#utility.yul\":4051:4139   */\n      iszero\n      tag_239\n      jumpi\n        /* \"#utility.yul\":4119:4137   */\n      tag_240\n      tag_153\n      jump\t// in\n    tag_240:\n        /* \"#utility.yul\":4051:4139   */\n    tag_239:\n        /* \"#utility.yul\":4159:4169   */\n      dup1\n        /* \"#utility.yul\":4155:4157   */\n      0x40\n        /* \"#utility.yul\":4148:4170   */\n      mstore\n        /* \"#utility.yul\":3938:4176   */\n      pop\n        /* \"#utility.yul\":3895:4176   */\n      pop\n      pop\n      jump\t// out\n        /* \"#utility.yul\":4182:4311   */\n    tag_155:\n        /* \"#utility.yul\":4216:4222   */\n      0x00\n        /* \"#utility.yul\":4243:4263   */\n      tag_242\n      tag_139\n      jump\t// in\n    tag_242:\n        /* \"#utility.yul\":4233:4263   */\n      swap1\n      pop\n        /* \"#utility.yul\":4272:4305   */\n      tag_243\n        /* \"#utility.yul\":4300:4304   */\n      dup3\n        /* \"#utility.yul\":4292:4298   */\n      dup3\n        /* \"#utility.yul\":4272:4305   */\n      tag_154\n      jump\t// in\n    tag_243:\n        /* \"#utility.yul\":4182:4311   */\n      swap2\n      swap1\n      pop\n      jump\t// out\n        /* \"#utility.yul\":4317:4576   */\n    tag_156:\n        /* \"#utility.yul\":4402:4406   */\n      0x00\n        /* \"#utility.yul\":4492:4510   */\n      0xffffffffffffffff\n        /* \"#utility.yul\":4484:4490   */\n      dup3\n        /* \"#utility.yul\":4481:4511   */\n      gt\n        /* \"#utility.yul\":4478:4534   */\n      iszero\n      tag_245\n      jumpi\n        /* \"#utility.yul\":4514:4532   */\n      tag_246\n      tag_153\n      jump\t// in\n    tag_246:\n        /* \"#utility.yul\":4478:4534   */\n    tag_245:\n        /* \"#utility.yul\":4564:4568   */\n      0x20\n        /* \"#utility.yul\":4556:4562   */\n      dup3\n        /* \"#utility.yul\":4552:4569   */\n      mul\n        /* \"#utility.yul\":4544:4569   */\n      swap1\n      pop\n        /* \"#utility.yul\":4317:4576   */\n      swap2\n      swap1\n      pop\n      jump\t// out\n        /* \"#utility.yul\":4582:4699   */\n    tag_157:\n        /* \"#utility.yul\":4691:4692   */\n      0x00\n        /* \"#utility.yul\":4688:4689   */\n      dup1\n        /* \"#utility.yul\":4681:4693   */\n      revert\n        /* \"#utility.yul\":4705:4822   */\n    tag_158:\n        /* \"#utility.yul\":4814:4815   */\n      0x00\n        /* \"#utility.yul\":4811:4812   */\n      dup1\n        /* \"#utility.yul\":4804:4816   */\n      revert\n        /* \"#utility.yul\":4828:5136   */\n    tag_159:\n        /* \"#utility.yul\":4890:4894   */\n      0x00\n        /* \"#utility.yul\":4980:4998   */\n      0xffffffffffffffff\n        /* \"#utility.yul\":4972:4978   */\n      dup3\n        /* \"#utility.yul\":4969:4999   */\n      gt\n        /* \"#utility.yul\":4966:5022   */\n      iszero\n      tag_250\n      jumpi\n        /* \"#utility.yul\":5002:5020   */\n      tag_251\n      tag_153\n      jump\t// in\n    tag_251:\n        /* \"#utility.yul\":4966:5022   */\n    tag_250:\n        /* \"#utility.yul\":5040:5069   */\n      tag_252\n        /* \"#utility.yul\":5062:5068   */\n      dup3\n        /* \"#utility.yul\":5040:5069   */\n      tag_152\n      jump\t// in\n    tag_252:\n        /* \"#utility.yul\":5032:5069   */\n      swap1\n      pop\n        /* \"#utility.yul\":5124:5128   */\n      0x20\n        /* \"#utility.yul\":5118:5122   */\n      dup2\n        /* \"#utility.yul\":5114:5129   */\n      add\n        /* \"#utility.yul\":5106:5129   */\n      swap1\n      pop\n        /* \"#utility.yul\":4828:5136   */\n      swap2\n      swap1\n      pop\n      jump\t// out\n        /* \"#utility.yul\":5142:5288   */\n    tag_160:\n        /* \"#utility.yul\":5239:5245   */\n      dup3\n        /* \"#utility.yul\":5234:5237   */\n      dup2\n        /* \"#utility.yul\":5229:5232   */\n      dup4\n        /* \"#utility.yul\":5216:5246   */\n      calldatacopy\n        /* \"#utility.yul\":5280:5281   */\n      0x00\n        /* \"#utility.yul\":5271:5277   */\n      dup4\n        /* \"#utility.yul\":5266:5269   */\n      dup4\n        /* \"#utility.yul\":5262:5278   */\n      add\n        /* \"#utility.yul\":5255:5282   */\n      mstore\n        /* \"#utility.yul\":5142:5288   */\n      pop\n      pop\n      pop\n      jump\t// out\n        /* \"#utility.yul\":5294:5719   */\n    tag_161:\n        /* \"#utility.yul\":5372:5377   */\n      0x00\n        /* \"#utility.yul\":5397:5463   */\n      tag_255\n        /* \"#utility.yul\":5413:5462   */\n      tag_256\n        /* \"#utility.yul\":5455:5461   */\n      dup5\n        /* \"#utility.yul\":5413:5462   */\n      tag_159\n      jump\t// in\n    tag_256:\n        /* \"#utility.yul\":5397:5463   */\n      tag_155\n      jump\t// in\n    tag_255:\n        /* \"#utility.yul\":5388:5463   */\n      swap1\n      pop\n        /* \"#utility.yul\":5486:5492   */\n      dup3\n        /* \"#utility.yul\":5479:5484   */\n      dup2\n        /* \"#utility.yul\":5472:5493   */\n      mstore\n        /* \"#utility.yul\":5524:5528   */\n      0x20\n        /* \"#utility.yul\":5517:5522   */\n      dup2\n        /* \"#utility.yul\":5513:5529   */\n      add\n        /* \"#utility.yul\":5562:5565   */\n      dup5\n        /* \"#utility.yul\":5553:5559   */\n      dup5\n        /* \"#utility.yul\":5548:5551   */\n      dup5\n        /* \"#utility.yul\":5544:5560   */\n      add\n        /* \"#utility.yul\":5541:5566   */\n      gt\n        /* \"#utility.yul\":5538:5650   */\n      iszero\n      tag_257\n      jumpi\n        /* \"#utility.yul\":5569:5648   */\n      tag_258\n      tag_158\n      jump\t// in\n    tag_258:\n        /* \"#utility.yul\":5538:5650   */\n    tag_257:\n        /* \"#utility.yul\":5659:5713   */\n      tag_259\n        /* \"#utility.yul\":5706:5712   */\n      dup5\n        /* \"#utility.yul\":5701:5704   */\n      dup3\n        /* \"#utility.yul\":5696:5699   */\n      dup6\n        /* \"#utility.yul\":5659:5713   */\n      tag_160\n      jump\t// in\n    tag_259:\n        /* \"#utility.yul\":5378:5719   */\n      pop\n        /* \"#utility.yul\":5294:5719   */\n      swap4\n      swap3\n      pop\n      pop\n      pop\n      jump\t// out\n        /* \"#utility.yul\":5739:6079   */\n    tag_162:\n        /* \"#utility.yul\":5795:5800   */\n      0x00\n        /* \"#utility.yul\":5844:5847   */\n      dup3\n        /* \"#utility.yul\":5837:5841   */\n      0x1f\n        /* \"#utility.yul\":5829:5835   */\n      dup4\n        /* \"#utility.yul\":5825:5842   */\n      add\n        /* \"#utility.yul\":5821:5848   */\n      slt\n        /* \"#utility.yul\":5811:5933   */\n      tag_261\n      jumpi\n        /* \"#utility.yul\":5852:5931   */\n      tag_262\n      tag_151\n      jump\t// in\n    tag_262:\n        /* \"#utility.yul\":5811:5933   */\n    tag_261:\n        /* \"#utility.yul\":5969:5975   */\n      dup2\n        /* \"#utility.yul\":5956:5976   */\n      calldataload\n        /* \"#utility.yul\":5994:6073   */\n      tag_263\n        /* \"#utility.yul\":6069:6072   */\n      dup5\n        /* \"#utility.yul\":6061:6067   */\n      dup3\n        /* \"#utility.yul\":6054:6058   */\n      0x20\n        /* \"#utility.yul\":6046:6052   */\n      dup7\n        /* \"#utility.yul\":6042:6059   */\n      add\n        /* \"#utility.yul\":5994:6073   */\n      tag_161\n      jump\t// in\n    tag_263:\n        /* \"#utility.yul\":5985:6073   */\n      swap2\n      pop\n        /* \"#utility.yul\":5801:6079   */\n      pop\n        /* \"#utility.yul\":5739:6079   */\n      swap3\n      swap2\n      pop\n      pop\n      jump\t// out\n        /* \"#utility.yul\":6102:6980   */\n    tag_163:\n        /* \"#utility.yul\":6206:6211   */\n      0x00\n        /* \"#utility.yul\":6231:6320   */\n      tag_265\n        /* \"#utility.yul\":6247:6319   */\n      tag_266\n        /* \"#utility.yul\":6312:6318   */\n      dup5\n        /* \"#utility.yul\":6247:6319   */\n      tag_156\n      jump\t// in\n    tag_266:\n        /* \"#utility.yul\":6231:6320   */\n      tag_155\n      jump\t// in\n    tag_265:\n        /* \"#utility.yul\":6222:6320   */\n      swap1\n      pop\n        /* \"#utility.yul\":6340:6345   */\n      dup1\n        /* \"#utility.yul\":6393:6397   */\n      0x20\n        /* \"#utility.yul\":6385:6391   */\n      dup5\n        /* \"#utility.yul\":6381:6398   */\n      mul\n        /* \"#utility.yul\":6373:6379   */\n      dup4\n        /* \"#utility.yul\":6369:6399   */\n      add\n        /* \"#utility.yul\":6422:6425   */\n      dup6\n        /* \"#utility.yul\":6414:6420   */\n      dup2\n        /* \"#utility.yul\":6411:6426   */\n      gt\n        /* \"#utility.yul\":6408:6530   */\n      iszero\n      tag_267\n      jumpi\n        /* \"#utility.yul\":6441:6520   */\n      tag_268\n      tag_157\n      jump\t// in\n    tag_268:\n        /* \"#utility.yul\":6408:6530   */\n    tag_267:\n        /* \"#utility.yul\":6556:6562   */\n      dup4\n        /* \"#utility.yul\":6539:6974   */\n    tag_269:\n        /* \"#utility.yul\":6573:6579   */\n      dup2\n        /* \"#utility.yul\":6568:6571   */\n      dup2\n        /* \"#utility.yul\":6565:6580   */\n      lt\n        /* \"#utility.yul\":6539:6974   */\n      iszero\n      tag_271\n      jumpi\n        /* \"#utility.yul\":6662:6665   */\n      dup1\n        /* \"#utility.yul\":6649:6666   */\n      calldataload\n        /* \"#utility.yul\":6698:6716   */\n      0xffffffffffffffff\n        /* \"#utility.yul\":6685:6696   */\n      dup2\n        /* \"#utility.yul\":6682:6717   */\n      gt\n        /* \"#utility.yul\":6679:6801   */\n      iszero\n      tag_272\n      jumpi\n        /* \"#utility.yul\":6720:6799   */\n      tag_273\n      tag_151\n      jump\t// in\n    tag_273:\n        /* \"#utility.yul\":6679:6801   */\n    tag_272:\n        /* \"#utility.yul\":6844:6855   */\n      dup1\n        /* \"#utility.yul\":6836:6842   */\n      dup7\n        /* \"#utility.yul\":6832:6856   */\n      add\n        /* \"#utility.yul\":6882:6929   */\n      tag_274\n        /* \"#utility.yul\":6925:6928   */\n      dup10\n        /* \"#utility.yul\":6913:6923   */\n      dup3\n        /* \"#utility.yul\":6882:6929   */\n      tag_162\n      jump\t// in\n    tag_274:\n        /* \"#utility.yul\":6877:6880   */\n      dup6\n        /* \"#utility.yul\":6870:6930   */\n      mstore\n        /* \"#utility.yul\":6959:6963   */\n      0x20\n        /* \"#utility.yul\":6954:6957   */\n      dup6\n        /* \"#utility.yul\":6950:6964   */\n      add\n        /* \"#utility.yul\":6943:6964   */\n      swap5\n      pop\n        /* \"#utility.yul\":6615:6974   */\n      pop\n      pop\n        /* \"#utility.yul\":6599:6603   */\n      0x20\n        /* \"#utility.yul\":6594:6597   */\n      dup2\n        /* \"#utility.yul\":6590:6604   */\n      add\n        /* \"#utility.yul\":6583:6604   */\n      swap1\n      pop\n        /* \"#utility.yul\":6539:6974   */\n      jump(tag_269)\n    tag_271:\n        /* \"#utility.yul\":6543:6564   */\n      pop\n        /* \"#utility.yul\":6212:6980   */\n      pop\n      pop\n        /* \"#utility.yul\":6102:6980   */\n      swap4\n      swap3\n      pop\n      pop\n      pop\n      jump\t// out\n        /* \"#utility.yul\":7003:7362   */\n    tag_164:\n        /* \"#utility.yul\":7082:7087   */\n      0x00\n        /* \"#utility.yul\":7131:7134   */\n      dup3\n        /* \"#utility.yul\":7124:7128   */\n      0x1f\n        /* \"#utility.yul\":7116:7122   */\n      dup4\n        /* \"#utility.yul\":7112:7129   */\n      add\n        /* \"#utility.yul\":7108:7135   */\n      slt\n        /* \"#utility.yul\":7098:7220   */\n      tag_276\n      jumpi\n        /* \"#utility.yul\":7139:7218   */\n      tag_277\n      tag_151\n      jump\t// in\n    tag_277:\n        /* \"#utility.yul\":7098:7220   */\n    tag_276:\n        /* \"#utility.yul\":7243:7247   */\n      0x05\n        /* \"#utility.yul\":7265:7356   */\n      tag_278\n        /* \"#utility.yul\":7352:7355   */\n      dup5\n        /* \"#utility.yul\":7344:7350   */\n      dup3\n        /* \"#utility.yul\":7336:7342   */\n      dup6\n        /* \"#utility.yul\":7265:7356   */\n      tag_163\n      jump\t// in\n    tag_278:\n        /* \"#utility.yul\":7256:7356   */\n      swap2\n      pop\n        /* \"#utility.yul\":7088:7362   */\n      pop\n        /* \"#utility.yul\":7003:7362   */\n      swap3\n      swap2\n      pop\n      pop\n      jump\t// out\n        /* \"#utility.yul\":7368:7923   */\n    tag_49:\n        /* \"#utility.yul\":7460:7466   */\n      0x00\n        /* \"#utility.yul\":7509:7511   */\n      0x20\n        /* \"#utility.yul\":7497:7506   */\n      dup3\n        /* \"#utility.yul\":7488:7495   */\n      dup5\n        /* \"#utility.yul\":7484:7507   */\n      sub\n        /* \"#utility.yul\":7480:7512   */\n      slt\n        /* \"#utility.yul\":7477:7596   */\n      iszero\n      tag_280\n      jumpi\n        /* \"#utility.yul\":7515:7594   */\n      tag_281\n      tag_140\n      jump\t// in\n    tag_281:\n        /* \"#utility.yul\":7477:7596   */\n    tag_280:\n        /* \"#utility.yul\":7663:7664   */\n      0x00\n        /* \"#utility.yul\":7652:7661   */\n      dup3\n        /* \"#utility.yul\":7648:7665   */\n      add\n        /* \"#utility.yul\":7635:7666   */\n      calldataload\n        /* \"#utility.yul\":7693:7711   */\n      0xffffffffffffffff\n        /* \"#utility.yul\":7685:7691   */\n      dup2\n        /* \"#utility.yul\":7682:7712   */\n      gt\n        /* \"#utility.yul\":7679:7796   */\n      iszero\n      tag_282\n      jumpi\n        /* \"#utility.yul\":7715:7794   */\n      tag_283\n      tag_141\n      jump\t// in\n    tag_283:\n        /* \"#utility.yul\":7679:7796   */\n    tag_282:\n        /* \"#utility.yul\":7820:7906   */\n      tag_284\n        /* \"#utility.yul\":7898:7905   */\n      dup5\n        /* \"#utility.yul\":7889:7895   */\n      dup3\n        /* \"#utility.yul\":7878:7887   */\n      dup6\n        /* \"#utility.yul\":7874:7896   */\n      add\n        /* \"#utility.yul\":7820:7906   */\n      tag_164\n      jump\t// in\n    tag_284:\n        /* \"#utility.yul\":7810:7906   */\n      swap2\n      pop\n        /* \"#utility.yul\":7606:7916   */\n      pop\n        /* \"#utility.yul\":7368:7923   */\n      swap3\n      swap2\n      pop\n      pop\n      jump\t// out\n        /* \"#utility.yul\":7929:8109   */\n    tag_65:\n        /* \"#utility.yul\":7977:8054   */\n      0x4e487b7100000000000000000000000000000000000000000000000000000000\n        /* \"#utility.yul\":7974:7975   */\n      0x00\n        /* \"#utility.yul\":7967:8055   */\n      mstore\n        /* \"#utility.yul\":8074:8078   */\n      0x32\n        /* \"#utility.yul\":8071:8072   */\n      0x04\n        /* \"#utility.yul\":8064:8079   */\n      mstore\n        /* \"#utility.yul\":8098:8102   */\n      0x24\n        /* \"#utility.yul\":8095:8096   */\n      0x00\n        /* \"#utility.yul\":8088:8103   */\n      revert\n        /* \"#utility.yul\":8115:8295   */\n    tag_165:\n        /* \"#utility.yul\":8163:8240   */\n      0x4e487b7100000000000000000000000000000000000000000000000000000000\n        /* \"#utility.yul\":8160:8161   */\n      0x00\n        /* \"#utility.yul\":8153:8241   */\n      mstore\n        /* \"#utility.yul\":8260:8264   */\n      0x11\n        /* \"#utility.yul\":8257:8258   */\n      0x04\n        /* \"#utility.yul\":8250:8265   */\n      mstore\n        /* \"#utility.yul\":8284:8288   */\n      0x24\n        /* \"#utility.yul\":8281:8282   */\n      0x00\n        /* \"#utility.yul\":8274:8289   */\n      revert\n        /* \"#utility.yul\":8301:8495   */\n    tag_89:\n        /* \"#utility.yul\":8341:8345   */\n      0x00\n        /* \"#utility.yul\":8361:8381   */\n      tag_288\n        /* \"#utility.yul\":8379:8380   */\n      dup3\n        /* \"#utility.yul\":8361:8381   */\n      tag_137\n      jump\t// in\n    tag_288:\n        /* \"#utility.yul\":8356:8381   */\n      swap2\n      pop\n        /* \"#utility.yul\":8395:8415   */\n      tag_289\n        /* \"#utility.yul\":8413:8414   */\n      dup4\n        /* \"#utility.yul\":8395:8415   */\n      tag_137\n      jump\t// in\n    tag_289:\n        /* \"#utility.yul\":8390:8415   */\n      swap3\n      pop\n        /* \"#utility.yul\":8439:8440   */\n      dup3\n        /* \"#utility.yul\":8436:8437   */\n      dup3\n        /* \"#utility.yul\":8432:8441   */\n      sub\n        /* \"#utility.yul\":8424:8441   */\n      swap1\n      pop\n        /* \"#utility.yul\":8463:8464   */\n      dup2\n        /* \"#utility.yul\":8457:8461   */\n      dup2\n        /* \"#utility.yul\":8454:8465   */\n      gt\n        /* \"#utility.yul\":8451:8488   */\n      iszero\n      tag_290\n      jumpi\n        /* \"#utility.yul\":8468:8486   */\n      tag_291\n      tag_165\n      jump\t// in\n    tag_291:\n        /* \"#utility.yul\":8451:8488   */\n    tag_290:\n        /* \"#utility.yul\":8301:8495   */\n      swap3\n      swap2\n      pop\n      pop\n      jump\t// out\n        /* \"#utility.yul\":8501:8734   */\n    tag_113:\n        /* \"#utility.yul\":8540:8543   */\n      0x00\n        /* \"#utility.yul\":8563:8587   */\n      tag_293\n        /* \"#utility.yul\":8581:8586   */\n      dup3\n        /* \"#utility.yul\":8563:8587   */\n      tag_137\n      jump\t// in\n    tag_293:\n        /* \"#utility.yul\":8554:8587   */\n      swap2\n      pop\n        /* \"#utility.yul\":8609:8675   */\n      0xffffffffffffffffffffffffffffffffffffffffffffffffffffffffffffffff\n        /* \"#utility.yul\":8602:8607   */\n      dup3\n        /* \"#utility.yul\":8599:8676   */\n      sub\n        /* \"#utility.yul\":8596:8699   */\n      tag_294\n      jumpi\n        /* \"#utility.yul\":8679:8697   */\n      tag_295\n      tag_165\n      jump\t// in\n    tag_295:\n        /* \"#utility.yul\":8596:8699   */\n    tag_294:\n        /* \"#utility.yul\":8726:8727   */\n      0x01\n        /* \"#utility.yul\":8719:8724   */\n      dup3\n        /* \"#utility.yul\":8715:8728   */\n      add\n        /* \"#utility.yul\":8708:8728   */\n      swap1\n      pop\n        /* \"#utility.yul\":8501:8734   */\n      swap2\n      swap1\n      pop\n      jump\t// out\n        /* \"#utility.yul\":8740:8819   */\n    tag_166:\n        /* \"#utility.yul\":8779:8786   */\n      0x00\n        /* \"#utility.yul\":8808:8813   */\n      dup2\n        /* \"#utility.yul\":8797:8813   */\n      swap1\n      pop\n        /* \"#utility.yul\":8740:8819   */\n      swap2\n      swap1\n      pop\n      jump\t// out\n        /* \"#utility.yul\":8825:8982   */\n    tag_167:\n        /* \"#utility.yul\":8930:8975   */\n      tag_298\n        /* \"#utility.yul\":8950:8974   */\n      tag_299\n        /* \"#utility.yul\":8968:8973   */\n      dup3\n        /* \"#utility.yul\":8950:8974   */\n      tag_137\n      jump\t// in\n    tag_299:\n        /* \"#utility.yul\":8930:8975   */\n      tag_166\n      jump\t// in\n    tag_298:\n        /* \"#utility.yul\":8925:8928   */\n      dup3\n        /* \"#utility.yul\":8918:8976   */\n      mstore\n        /* \"#utility.yul\":8825:8982   */\n      pop\n      pop\n      jump\t// out\n        /* \"#utility.yul\":8988:9082   */\n    tag_168:\n        /* \"#utility.yul\":9021:9029   */\n      0x00\n        /* \"#utility.yul\":9069:9074   */\n      dup2\n        /* \"#utility.yul\":9065:9067   */\n      0x60\n        /* \"#utility.yul\":9061:9075   */\n      shl\n        /* \"#utility.yul\":9040:9075   */\n      swap1\n      pop\n        /* \"#utility.yul\":8988:9082   */\n      swap2\n      swap1\n      pop\n      jump\t// out\n        /* \"#utility.yul\":9088:9182   */\n    tag_169:\n        /* \"#utility.yul\":9127:9134   */\n      0x00\n        /* \"#utility.yul\":9156:9176   */\n      tag_302\n        /* \"#utility.yul\":9170:9175   */\n      dup3\n        /* \"#utility.yul\":9156:9176   */\n      tag_168\n      jump\t// in\n    tag_302:\n        /* \"#utility.yul\":9145:9176   */\n      swap1\n      pop\n        /* \"#utility.yul\":9088:9182   */\n      swap2\n      swap1\n      pop\n      jump\t// out\n        /* \"#utility.yul\":9188:9288   */\n    tag_170:\n        /* \"#utility.yul\":9227:9234   */\n      0x00\n        /* \"#utility.yul\":9256:9282   */\n      tag_304\n        /* \"#utility.yul\":9276:9281   */\n      dup3\n        /* \"#utility.yul\":9256:9282   */\n      tag_169\n      jump\t// in\n    tag_304:\n        /* \"#utility.yul\":9245:9282   */\n      swap1\n      pop\n        /* \"#utility.yul\":9188:9288   */\n      swap2\n      swap1\n      pop\n      jump\t// out\n        /* \"#utility.yul\":9294:9451   */\n    tag_171:\n        /* \"#utility.yul\":9399:9444   */\n      tag_306\n        /* \"#utility.yul\":9419:9443   */\n      tag_307\n        /* \"#utility.yul\":9437:9442   */\n      dup3\n        /* \"#utility.yul\":9419:9443   */\n      tag_145\n      jump\t// in\n    tag_307:\n        /* \"#utility.yul\":9399:9444   */\n      tag_170\n      jump\t// in\n    tag_306:\n        /* \"#utility.yul\":9394:9397   */\n      dup3\n        /* \"#utility.yul\":9387:9445   */\n      mstore\n        /* \"#utility.yul\":9294:9451   */\n      pop\n      pop\n      jump\t// out\n        /* \"#utility.yul\":9457:10136   */\n    tag_115:\n        /* \"#utility.yul\":9653:9656   */\n      0x00\n        /* \"#utility.yul\":9668:9743   */\n      tag_309\n        /* \"#utility.yul\":9739:9742   */\n      dup3\n        /* \"#utility.yul\":9730:9736   */\n      dup8\n        /* \"#utility.yul\":9668:9743   */\n      tag_167\n      jump\t// in\n    tag_309:\n        /* \"#utility.yul\":9768:9770   */\n      0x20\n        /* \"#utility.yul\":9763:9766   */\n      dup3\n        /* \"#utility.yul\":9759:9771   */\n      add\n        /* \"#utility.yul\":9752:9771   */\n      swap2\n      pop\n        /* \"#utility.yul\":9781:9856   */\n      tag_310\n        /* \"#utility.yul\":9852:9855   */\n      dup3\n        /* \"#utility.yul\":9843:9849   */\n      dup7\n        /* \"#utility.yul\":9781:9856   */\n      tag_167\n      jump\t// in\n    tag_310:\n        /* \"#utility.yul\":9881:9883   */\n      0x20\n        /* \"#utility.yul\":9876:9879   */\n      dup3\n        /* \"#utility.yul\":9872:9884   */\n      add\n        /* \"#utility.yul\":9865:9884   */\n      swap2\n      pop\n        /* \"#utility.yul\":9894:9969   */\n      tag_311\n        /* \"#utility.yul\":9965:9968   */\n      dup3\n        /* \"#utility.yul\":9956:9962   */\n      dup6\n        /* \"#utility.yul\":9894:9969   */\n      tag_171\n      jump\t// in\n    tag_311:\n        /* \"#utility.yul\":9994:9996   */\n      0x14\n        /* \"#utility.yul\":9989:9992   */\n      dup3\n        /* \"#utility.yul\":9985:9997   */\n      add\n        /* \"#utility.yul\":9978:9997   */\n      swap2\n      pop\n        /* \"#utility.yul\":10007:10082   */\n      tag_312\n        /* \"#utility.yul\":10078:10081   */\n      dup3\n        /* \"#utility.yul\":10069:10075   */\n      dup5\n        /* \"#utility.yul\":10007:10082   */\n      tag_167\n      jump\t// in\n    tag_312:\n        /* \"#utility.yul\":10107:10109   */\n      0x20\n        /* \"#utility.yul\":10102:10105   */\n      dup3\n        /* \"#utility.yul\":10098:10110   */\n      add\n        /* \"#utility.yul\":10091:10110   */\n      swap2\n      pop\n        /* \"#utility.yul\":10127:10130   */\n      dup2\n        /* \"#utility.yul\":10120:10130   */\n      swap1\n      pop\n        /* \"#utility.yul\":9457:10136   */\n      swap6\n      swap5\n      pop\n      pop\n      pop\n      pop\n      pop\n      jump\t// out\n        /* \"#utility.yul\":10142:10322   */\n    tag_172:\n        /* \"#utility.yul\":10190:10267   */\n      0x4e487b7100000000000000000000000000000000000000000000000000000000\n        /* \"#utility.yul\":10187:10188   */\n      0x00\n        /* \"#utility.yul\":10180:10268   */\n      mstore\n        /* \"#utility.yul\":10287:10291   */\n      0x12\n        /* \"#utility.yul\":10284:10285   */\n      0x04\n        /* \"#utility.yul\":10277:10292   */\n      mstore\n        /* \"#utility.yul\":10311:10315   */\n      0x24\n        /* \"#utility.yul\":10308:10309   */\n      0x00\n        /* \"#utility.yul\":10301:10316   */\n      revert\n        /* \"#utility.yul\":10328:10504   */\n    tag_117:\n        /* \"#utility.yul\":10360:10361   */\n      0x00\n        /* \"#utility.yul\":10377:10397   */\n      tag_315\n        /* \"#utility.yul\":10395:10396   */\n      dup3\n        /* \"#utility.yul\":10377:10397   */\n      tag_137\n      jump\t// in\n    tag_315:\n        /* \"#utility.yul\":10372:10397   */\n      swap2\n      pop\n        /* \"#utility.yul\":10411:10431   */\n      tag_316\n        /* \"#utility.yul\":10429:10430   */\n      dup4\n        /* \"#utility.yul\":10411:10431   */\n      tag_137\n      jump\t// in\n    tag_316:\n        /* \"#utility.yul\":10406:10431   */\n      swap3\n      pop\n        /* \"#utility.yul\":10450:10451   */\n      dup3\n        /* \"#utility.yul\":10440:10475   */\n      tag_317\n      jumpi\n        /* \"#utility.yul\":10455:10473   */\n      tag_318\n      tag_172\n      jump\t// in\n    tag_318:\n        /* \"#utility.yul\":10440:10475   */\n    tag_317:\n        /* \"#utility.yul\":10496:10497   */\n      dup3\n        /* \"#utility.yul\":10493:10494   */\n      dup3\n        /* \"#utility.yul\":10489:10498   */\n      mod\n        /* \"#utility.yul\":10484:10498   */\n      swap1\n      pop\n        /* \"#utility.yul\":10328:10504   */\n      swap3\n      swap2\n      pop\n      pop\n      jump\t// out\n        /* \"#utility.yul\":10510:10609   */\n    tag_173:\n        /* \"#utility.yul\":10562:10568   */\n      0x00\n        /* \"#utility.yul\":10596:10601   */\n      dup2\n        /* \"#utility.yul\":10590:10602   */\n      mload\n        /* \"#utility.yul\":10580:10602   */\n      swap1\n      pop\n        /* \"#utility.yul\":10510:10609   */\n      swap2\n      swap1\n      pop\n      jump\t// out\n        /* \"#utility.yul\":10615:10795   */\n    tag_174:\n        /* \"#utility.yul\":10663:10740   */\n      0x4e487b7100000000000000000000000000000000000000000000000000000000\n        /* \"#utility.yul\":10660:10661   */\n      0x00\n        /* \"#utility.yul\":10653:10741   */\n      mstore\n        /* \"#utility.yul\":10760:10764   */\n      0x22\n        /* \"#utility.yul\":10757:10758   */\n      0x04\n        /* \"#utility.yul\":10750:10765   */\n      mstore\n        /* \"#utility.yul\":10784:10788   */\n      0x24\n        /* \"#utility.yul\":10781:10782   */\n      0x00\n        /* \"#utility.yul\":10774:10789   */\n      revert\n        /* \"#utility.yul\":10801:11121   */\n    tag_130:\n        /* \"#utility.yul\":10845:10851   */\n      0x00\n        /* \"#utility.yul\":10882:10883   */\n      0x02\n        /* \"#utility.yul\":10876:10880   */\n      dup3\n        /* \"#utility.yul\":10872:10884   */\n      div\n        /* \"#utility.yul\":10862:10884   */\n      swap1\n      pop\n        /* \"#utility.yul\":10929:10930   */\n      0x01\n        /* \"#utility.yul\":10923:10927   */\n      dup3\n        /* \"#utility.yul\":10919:10931   */\n      and\n        /* \"#utility.yul\":10950:10968   */\n      dup1\n        /* \"#utility.yul\":10940:11021   */\n      tag_322\n      jumpi\n        /* \"#utility.yul\":11006:11010   */\n      0x7f\n        /* \"#utility.yul\":10998:11004   */\n      dup3\n        /* \"#utility.yul\":10994:11011   */\n      and\n        /* \"#utility.yul\":10984:11011   */\n      swap2\n      pop\n        /* \"#utility.yul\":10940:11021   */\n    tag_322:\n        /* \"#utility.yul\":11068:11070   */\n      0x20\n        /* \"#utility.yul\":11060:11066   */\n      dup3\n        /* \"#utility.yul\":11057:11071   */\n      lt\n        /* \"#utility.yul\":11037:11055   */\n      dup2\n        /* \"#utility.yul\":11034:11072   */\n      sub\n        /* \"#utility.yul\":11031:11115   */\n      tag_323\n      jumpi\n        /* \"#utility.yul\":11087:11105   */\n      tag_324\n      tag_174\n      jump\t// in\n    tag_324:\n        /* \"#utility.yul\":11031:11115   */\n    tag_323:\n        /* \"#utility.yul\":10852:11121   */\n      pop\n        /* \"#utility.yul\":10801:11121   */\n      swap2\n      swap1\n      pop\n      jump\t// out\n        /* \"#utility.yul\":11127:11268   */\n    tag_175:\n        /* \"#utility.yul\":11176:11180   */\n      0x00\n        /* \"#utility.yul\":11199:11202   */\n      dup2\n        /* \"#utility.yul\":11191:11202   */\n      swap1\n      pop\n        /* \"#utility.yul\":11222:11225   */\n      dup2\n        /* \"#utility.yul\":11219:11220   */\n      0x00\n        /* \"#utility.yul\":11212:11226   */\n      mstore\n        /* \"#utility.yul\":11256:11260   */\n      0x20\n        /* \"#utility.yul\":11253:11254   */\n      0x00\n        /* \"#utility.yul\":11243:11261   */\n      keccak256\n        /* \"#utility.yul\":11235:11261   */\n      swap1\n      pop\n        /* \"#utility.yul\":11127:11268   */\n      swap2\n      swap1\n      pop\n      jump\t// out\n        /* \"#utility.yul\":11274:11367   */\n    tag_176:\n        /* \"#utility.yul\":11311:11317   */\n      0x00\n        /* \"#utility.yul\":11358:11360   */\n      0x20\n        /* \"#utility.yul\":11353:11355   */\n      0x1f\n        /* \"#utility.yul\":11346:11351   */\n      dup4\n        /* \"#utility.yul\":11342:11356   */\n      add\n        /* \"#utility.yul\":11338:11361   */\n      div\n        /* \"#utility.yul\":11328:11361   */\n      swap1\n      pop\n        /* \"#utility.yul\":11274:11367   */\n      swap2\n      swap1\n      pop\n      jump\t// out\n        /* \"#utility.yul\":11373:11480   */\n    tag_177:\n        /* \"#utility.yul\":11417:11425   */\n      0x00\n        /* \"#utility.yul\":11467:11472   */\n      dup3\n        /* \"#utility.yul\":11461:11465   */\n      dup3\n        /* \"#utility.yul\":11457:11473   */\n      shl\n        /* \"#utility.yul\":11436:11473   */\n      swap1\n      pop\n        /* \"#utility.yul\":11373:11480   */\n      swap3\n      swap2\n      pop\n      pop\n      jump\t// out\n        /* \"#utility.yul\":11486:11879   */\n    tag_178:\n        /* \"#utility.yul\":11555:11561   */\n      0x00\n        /* \"#utility.yul\":11605:11606   */\n      0x08\n        /* \"#utility.yul\":11593:11603   */\n      dup4\n        /* \"#utility.yul\":11589:11607   */\n      mul\n        /* \"#utility.yul\":11628:11725   */\n      tag_329\n        /* \"#utility.yul\":11658:11724   */\n      0xffffffffffffffffffffffffffffffffffffffffffffffffffffffffffffffff\n        /* \"#utility.yul\":11647:11656   */\n      dup3\n        /* \"#utility.yul\":11628:11725   */\n      tag_177\n      jump\t// in\n    tag_329:\n        /* \"#utility.yul\":11746:11785   */\n      tag_330\n        /* \"#utility.yul\":11776:11784   */\n      dup7\n        /* \"#utility.yul\":11765:11774   */\n      dup4\n        /* \"#utility.yul\":11746:11785   */\n      tag_177\n      jump\t// in\n    tag_330:\n        /* \"#utility.yul\":11734:11785   */\n      swap6\n      pop\n        /* \"#utility.yul\":11818:11822   */\n      dup1\n        /* \"#utility.yul\":11814:11823   */\n      not\n        /* \"#utility.yul\":11807:11812   */\n      dup5\n        /* \"#utility.yul\":11803:11824   */\n      and\n        /* \"#utility.yul\":11794:11824   */\n      swap4\n      pop\n        /* \"#utility.yul\":11867:11871   */\n      dup1\n        /* \"#utility.yul\":11857:11865   */\n      dup7\n        /* \"#utility.yul\":11853:11872   */\n      and\n        /* \"#utility.yul\":11846:11851   */\n      dup5\n        /* \"#utility.yul\":11843:11873   */\n      or\n        /* \"#utility.yul\":11833:11873   */\n      swap3\n      pop\n        /* \"#utility.yul\":11562:11879   */\n      pop\n      pop\n        /* \"#utility.yul\":11486:11879   */\n      swap4\n      swap3\n      pop\n      pop\n      pop\n      jump\t// out\n        /* \"#utility.yul\":11885:11945   */\n    tag_179:\n        /* \"#utility.yul\":11913:11916   */\n      0x00\n        /* \"#utility.yul\":11934:11939   */\n      dup2\n        /* \"#utility.yul\":11927:11939   */\n      swap1\n      pop\n        /* \"#utility.yul\":11885:11945   */\n      swap2\n      swap1\n      pop\n      jump\t// out\n        /* \"#utility.yul\":11951:12093   */\n    tag_180:\n        /* \"#utility.yul\":12001:12010   */\n      0x00\n        /* \"#utility.yul\":12034:12087   */\n      tag_333\n        /* \"#utility.yul\":12052:12086   */\n      tag_334\n        /* \"#utility.yul\":12061:12085   */\n      tag_335\n        /* \"#utility.yul\":12079:12084   */\n      dup5\n        /* \"#utility.yul\":12061:12085   */\n      tag_137\n      jump\t// in\n    tag_335:\n        /* \"#utility.yul\":12052:12086   */\n      tag_179\n      jump\t// in\n    tag_334:\n        /* \"#utility.yul\":12034:12087   */\n      tag_137\n      jump\t// in\n    tag_333:\n        /* \"#utility.yul\":12021:12087   */\n      swap1\n      pop\n        /* \"#utility.yul\":11951:12093   */\n      swap2\n      swap1\n      pop\n      jump\t// out\n        /* \"#utility.yul\":12099:12174   */\n    tag_181:\n        /* \"#utility.yul\":12142:12145   */\n      0x00\n        /* \"#utility.yul\":12163:12168   */\n      dup2\n        /* \"#utility.yul\":12156:12168   */\n      swap1\n      pop\n        /* \"#utility.yul\":12099:12174   */\n      swap2\n      swap1\n      pop\n      jump\t// out\n        /* \"#utility.yul\":12180:12449   */\n    tag_182:\n        /* \"#utility.yul\":12290:12329   */\n      tag_338\n        /* \"#utility.yul\":12321:12328   */\n      dup4\n        /* \"#utility.yul\":12290:12329   */\n      tag_180\n      jump\t// in\n    tag_338:\n        /* \"#utility.yul\":12351:12442   */\n      tag_339\n        /* \"#utility.yul\":12400:12441   */\n      tag_340\n        /* \"#utility.yul\":12424:12440   */\n      dup3\n        /* \"#utility.yul\":12400:12441   */\n      tag_181\n      jump\t// in\n    tag_340:\n        /* \"#utility.yul\":12392:12398   */\n      dup5\n        /* \"#utility.yul\":12385:12389   */\n      dup5\n        /* \"#utility.yul\":12379:12390   */\n      sload\n        /* \"#utility.yul\":12351:12442   */\n      tag_178\n      jump\t// in\n    tag_339:\n        /* \"#utility.yul\":12345:12349   */\n      dup3\n        /* \"#utility.yul\":12338:12443   */\n      sstore\n        /* \"#utility.yul\":12256:12449   */\n      pop\n        /* \"#utility.yul\":12180:12449   */\n      pop\n      pop\n      pop\n      jump\t// out\n        /* \"#utility.yul\":12455:12528   */\n    tag_183:\n        /* \"#utility.yul\":12500:12503   */\n      0x00\n        /* \"#utility.yul\":12455:12528   */\n      swap1\n      jump\t// out\n        /* \"#utility.yul\":12534:12723   */\n    tag_184:\n        /* \"#utility.yul\":12611:12643   */\n      tag_343\n      tag_183\n      jump\t// in\n    tag_343:\n        /* \"#utility.yul\":12652:12717   */\n      tag_344\n        /* \"#utility.yul\":12710:12716   */\n      dup2\n        /* \"#utility.yul\":12702:12708   */\n      dup5\n        /* \"#utility.yul\":12696:12700   */\n      dup5\n        /* \"#utility.yul\":12652:12717   */\n      tag_182\n      jump\t// in\n    tag_344:\n        /* \"#utility.yul\":12587:12723   */\n      pop\n        /* \"#utility.yul\":12534:12723   */\n      pop\n      pop\n      jump\t// out\n        /* \"#utility.yul\":12729:12915   */\n    tag_185:\n        /* \"#utility.yul\":12789:12909   */\n    tag_346:\n        /* \"#utility.yul\":12806:12809   */\n      dup2\n        /* \"#utility.yul\":12799:12804   */\n      dup2\n        /* \"#utility.yul\":12796:12810   */\n      lt\n        /* \"#utility.yul\":12789:12909   */\n      iszero\n      tag_348\n      jumpi\n        /* \"#utility.yul\":12860:12899   */\n      tag_349\n        /* \"#utility.yul\":12897:12898   */\n      0x00\n        /* \"#utility.yul\":12890:12895   */\n      dup3\n        /* \"#utility.yul\":12860:12899   */\n      tag_184\n      jump\t// in\n    tag_349:\n        /* \"#utility.yul\":12833:12834   */\n      0x01\n        /* \"#utility.yul\":12826:12831   */\n      dup2\n        /* \"#utility.yul\":12822:12835   */\n      add\n        /* \"#utility.yul\":12813:12835   */\n      swap1\n      pop\n        /* \"#utility.yul\":12789:12909   */\n      jump(tag_346)\n    tag_348:\n        /* \"#utility.yul\":12729:12915   */\n      pop\n      pop\n      jump\t// out\n        /* \"#utility.yul\":12921:13464   */\n    tag_186:\n        /* \"#utility.yul\":13022:13024   */\n      0x1f\n        /* \"#utility.yul\":13017:13020   */\n      dup3\n        /* \"#utility.yul\":13014:13025   */\n      gt\n        /* \"#utility.yul\":13011:13457   */\n      iszero\n      tag_351\n      jumpi\n        /* \"#utility.yul\":13056:13094   */\n      tag_352\n        /* \"#utility.yul\":13088:13093   */\n      dup2\n        /* \"#utility.yul\":13056:13094   */\n      tag_175\n      jump\t// in\n    tag_352:\n        /* \"#utility.yul\":13140:13169   */\n      tag_353\n        /* \"#utility.yul\":13158:13168   */\n      dup5\n        /* \"#utility.yul\":13140:13169   */\n      tag_176\n      jump\t// in\n    tag_353:\n        /* \"#utility.yul\":13130:13138   */\n      dup2\n        /* \"#utility.yul\":13126:13170   */\n      add\n        /* \"#utility.yul\":13323:13325   */\n      0x20\n        /* \"#utility.yul\":13311:13321   */\n      dup6\n        /* \"#utility.yul\":13308:13326   */\n      lt\n        /* \"#utility.yul\":13305:13354   */\n      iszero\n      tag_354\n      jumpi\n        /* \"#utility.yul\":13344:13352   */\n      dup2\n        /* \"#utility.yul\":13329:13352   */\n      swap1\n      pop\n        /* \"#utility.yul\":13305:13354   */\n    tag_354:\n        /* \"#utility.yul\":13367:13447   */\n      tag_355\n        /* \"#utility.yul\":13423:13445   */\n      tag_356\n        /* \"#utility.yul\":13441:13444   */\n      dup6\n        /* \"#utility.yul\":13423:13445   */\n      tag_176\n      jump\t// in\n    tag_356:\n        /* \"#utility.yul\":13413:13421   */\n      dup4\n        /* \"#utility.yul\":13409:13446   */\n      add\n        /* \"#utility.yul\":13396:13407   */\n      dup3\n        /* \"#utility.yul\":13367:13447   */\n      tag_185\n      jump\t// in\n    tag_355:\n        /* \"#utility.yul\":13026:13457   */\n      pop\n      pop\n        /* \"#utility.yul\":13011:13457   */\n    tag_351:\n        /* \"#utility.yul\":12921:13464   */\n      pop\n      pop\n      pop\n      jump\t// out\n        /* \"#utility.yul\":13470:13587   */\n    tag_187:\n        /* \"#utility.yul\":13524:13532   */\n      0x00\n        /* \"#utility.yul\":13574:13579   */\n      dup3\n        /* \"#utility.yul\":13568:13572   */\n      dup3\n        /* \"#utility.yul\":13564:13580   */\n      shr\n        /* \"#utility.yul\":13543:13580   */\n      swap1\n      pop\n        /* \"#utility.yul\":13470:13587   */\n      swap3\n      swap2\n      pop\n      pop\n      jump\t// out\n        /* \"#utility.yul\":13593:13762   */\n    tag_188:\n        /* \"#utility.yul\":13637:13643   */\n      0x00\n        /* \"#utility.yul\":13670:13721   */\n      tag_359\n        /* \"#utility.yul\":13718:13719   */\n      0x00\n        /* \"#utility.yul\":13714:13720   */\n      not\n        /* \"#utility.yul\":13706:13711   */\n      dup5\n        /* \"#utility.yul\":13703:13704   */\n      0x08\n        /* \"#utility.yul\":13699:13712   */\n      mul\n        /* \"#utility.yul\":13670:13721   */\n      tag_187\n      jump\t// in\n    tag_359:\n        /* \"#utility.yul\":13666:13722   */\n      not\n        /* \"#utility.yul\":13751:13755   */\n      dup1\n        /* \"#utility.yul\":13745:13749   */\n      dup4\n        /* \"#utility.yul\":13741:13756   */\n      and\n        /* \"#utility.yul\":13731:13756   */\n      swap2\n      pop\n        /* \"#utility.yul\":13644:13762   */\n      pop\n        /* \"#utility.yul\":13593:13762   */\n      swap3\n      swap2\n      pop\n      pop\n      jump\t// out\n        /* \"#utility.yul\":13767:14062   */\n    tag_189:\n        /* \"#utility.yul\":13843:13847   */\n      0x00\n        /* \"#utility.yul\":13989:14018   */\n      tag_361\n        /* \"#utility.yul\":14014:14017   */\n      dup4\n        /* \"#utility.yul\":14008:14012   */\n      dup4\n        /* \"#utility.yul\":13989:14018   */\n      tag_188\n      jump\t// in\n    tag_361:\n        /* \"#utility.yul\":13981:14018   */\n      swap2\n      pop\n        /* \"#utility.yul\":14051:14054   */\n      dup3\n        /* \"#utility.yul\":14048:14049   */\n      0x02\n        /* \"#utility.yul\":14044:14055   */\n      mul\n        /* \"#utility.yul\":14038:14042   */\n      dup3\n        /* \"#utility.yul\":14035:14056   */\n      or\n        /* \"#utility.yul\":14027:14056   */\n      swap1\n      pop\n        /* \"#utility.yul\":13767:14062   */\n      swap3\n      swap2\n      pop\n      pop\n      jump\t// out\n        /* \"#utility.yul\":14067:15462   */\n    tag_122:\n        /* \"#utility.yul\":14184:14221   */\n      tag_363\n        /* \"#utility.yul\":14217:14220   */\n      dup3\n        /* \"#utility.yul\":14184:14221   */\n      tag_173\n      jump\t// in\n    tag_363:\n        /* \"#utility.yul\":14286:14304   */\n      0xffffffffffffffff\n        /* \"#utility.yul\":14278:14284   */\n      dup2\n        /* \"#utility.yul\":14275:14305   */\n      gt\n        /* \"#utility.yul\":14272:14328   */\n      iszero\n      tag_364\n      jumpi\n        /* \"#utility.yul\":14308:14326   */\n      tag_365\n      tag_153\n      jump\t// in\n    tag_365:\n        /* \"#utility.yul\":14272:14328   */\n    tag_364:\n        /* \"#utility.yul\":14352:14390   */\n      tag_366\n        /* \"#utility.yul\":14384:14388   */\n      dup3\n        /* \"#utility.yul\":14378:14389   */\n      sload\n        /* \"#utility.yul\":14352:14390   */\n      tag_130\n      jump\t// in\n    tag_366:\n        /* \"#utility.yul\":14437:14504   */\n      tag_367\n        /* \"#utility.yul\":14497:14503   */\n      dup3\n        /* \"#utility.yul\":14489:14495   */\n      dup3\n        /* \"#utility.yul\":14483:14487   */\n      dup6\n        /* \"#utility.yul\":14437:14504   */\n      tag_186\n      jump\t// in\n    tag_367:\n        /* \"#utility.yul\":14531:14532   */\n      0x00\n        /* \"#utility.yul\":14555:14559   */\n      0x20\n        /* \"#utility.yul\":14542:14559   */\n      swap1\n      pop\n        /* \"#utility.yul\":14587:14589   */\n      0x1f\n        /* \"#utility.yul\":14579:14585   */\n      dup4\n        /* \"#utility.yul\":14576:14590   */\n      gt\n        /* \"#utility.yul\":14604:14605   */\n      0x01\n        /* \"#utility.yul\":14599:15217   */\n      dup2\n      eq\n      tag_369\n      jumpi\n        /* \"#utility.yul\":15261:15262   */\n      0x00\n        /* \"#utility.yul\":15278:15284   */\n      dup5\n        /* \"#utility.yul\":15275:15352   */\n      iszero\n      tag_370\n      jumpi\n        /* \"#utility.yul\":15327:15336   */\n      dup3\n        /* \"#utility.yul\":15322:15325   */\n      dup8\n        /* \"#utility.yul\":15318:15337   */\n      add\n        /* \"#utility.yul\":15312:15338   */\n      mload\n        /* \"#utility.yul\":15303:15338   */\n      swap1\n      pop\n        /* \"#utility.yul\":15275:15352   */\n    tag_370:\n        /* \"#utility.yul\":15378:15445   */\n      tag_371\n        /* \"#utility.yul\":15438:15444   */\n      dup6\n        /* \"#utility.yul\":15431:15436   */\n      dup3\n        /* \"#utility.yul\":15378:15445   */\n      tag_189\n      jump\t// in\n    tag_371:\n        /* \"#utility.yul\":15372:15376   */\n      dup7\n        /* \"#utility.yul\":15365:15446   */\n      sstore\n        /* \"#utility.yul\":15234:15456   */\n      pop\n        /* \"#utility.yul\":14569:15456   */\n      jump(tag_368)\n        /* \"#utility.yul\":14599:15217   */\n    tag_369:\n        /* \"#utility.yul\":14651:14655   */\n      0x1f\n        /* \"#utility.yul\":14647:14656   */\n      not\n        /* \"#utility.yul\":14639:14645   */\n      dup5\n        /* \"#utility.yul\":14635:14657   */\n      and\n        /* \"#utility.yul\":14685:14722   */\n      tag_372\n        /* \"#utility.yul\":14717:14721   */\n      dup7\n        /* \"#utility.yul\":14685:14722   */\n      tag_175\n      jump\t// in\n    tag_372:\n        /* \"#utility.yul\":14744:14745   */\n      0x00\n        /* \"#utility.yul\":14758:14966   */\n    tag_373:\n        /* \"#utility.yul\":14772:14779   */\n      dup3\n        /* \"#utility.yul\":14769:14770   */\n      dup2\n        /* \"#utility.yul\":14766:14780   */\n      lt\n        /* \"#utility.yul\":14758:14966   */\n      iszero\n      tag_375\n      jumpi\n        /* \"#utility.yul\":14851:14860   */\n      dup5\n        /* \"#utility.yul\":14846:14849   */\n      dup10\n        /* \"#utility.yul\":14842:14861   */\n      add\n        /* \"#utility.yul\":14836:14862   */\n      mload\n        /* \"#utility.yul\":14828:14834   */\n      dup3\n        /* \"#utility.yul\":14821:14863   */\n      sstore\n        /* \"#utility.yul\":14902:14903   */\n      0x01\n        /* \"#utility.yul\":14894:14900   */\n      dup3\n        /* \"#utility.yul\":14890:14904   */\n      add\n        /* \"#utility.yul\":14880:14904   */\n      swap2\n      pop\n        /* \"#utility.yul\":14949:14951   */\n      0x20\n        /* \"#utility.yul\":14938:14947   */\n      dup6\n        /* \"#utility.yul\":14934:14952   */\n      add\n        /* \"#utility.yul\":14921:14952   */\n      swap5\n      pop\n        /* \"#utility.yul\":14795:14799   */\n      0x20\n        /* \"#utility.yul\":14792:14793   */\n      dup2\n        /* \"#utility.yul\":14788:14800   */\n      add\n        /* \"#utility.yul\":14783:14800   */\n      swap1\n      pop\n        /* \"#utility.yul\":14758:14966   */\n      jump(tag_373)\n    tag_375:\n        /* \"#utility.yul\":14994:15000   */\n      dup7\n        /* \"#utility.yul\":14985:14992   */\n      dup4\n        /* \"#utility.yul\":14982:15001   */\n      lt\n        /* \"#utility.yul\":14979:15158   */\n      iszero\n      tag_376\n      jumpi\n        /* \"#utility.yul\":15052:15061   */\n      dup5\n        /* \"#utility.yul\":15047:15050   */\n      dup10\n        /* \"#utility.yul\":15043:15062   */\n      add\n        /* \"#utility.yul\":15037:15063   */\n      mload\n        /* \"#utility.yul\":15095:15143   */\n      tag_377\n        /* \"#utility.yul\":15137:15141   */\n      0x1f\n        /* \"#utility.yul\":15129:15135   */\n      dup10\n        /* \"#utility.yul\":15125:15142   */\n      and\n        /* \"#utility.yul\":15114:15123   */\n      dup3\n        /* \"#utility.yul\":15095:15143   */\n      tag_188\n      jump\t// in\n    tag_377:\n        /* \"#utility.yul\":15087:15093   */\n      dup4\n        /* \"#utility.yul\":15080:15144   */\n      sstore\n        /* \"#utility.yul\":15002:15158   */\n      pop\n        /* \"#utility.yul\":14979:15158   */\n    tag_376:\n        /* \"#utility.yul\":15204:15205   */\n      0x01\n        /* \"#utility.yul\":15200:15201   */\n      0x02\n        /* \"#utility.yul\":15192:15198   */\n      dup9\n        /* \"#utility.yul\":15188:15202   */\n      mul\n        /* \"#utility.yul\":15184:15206   */\n      add\n        /* \"#utility.yul\":15178:15182   */\n      dup9\n        /* \"#utility.yul\":15171:15207   */\n      sstore\n        /* \"#utility.yul\":14606:15217   */\n      pop\n      pop\n      pop\n        /* \"#utility.yul\":14569:15456   */\n    tag_368:\n      pop\n        /* \"#utility.yul\":14159:15462   */\n      pop\n      pop\n      pop\n        /* \"#utility.yul\":14067:15462   */\n      pop\n      pop\n      jump\t// out\n\n    auxdata: 0xa264697066735822122006ff792dbe04298e7dc183cdda561c89648d363512979f49b32234a126dd3d2664736f6c63430008120033\n}\n",
				"bytecode": {
					"linkReferences": {},
					"object": "60806040526005600155600060025566038d7ea4c680006006553480156200002657600080fd5b50336000806101000a81548173ffffffffffffffffffffffffffffffffffffffff021916908373ffffffffffffffffffffffffffffffffffffffff16021790555060008054906101000a900473ffffffffffffffffffffffffffffffffffffffff1673ffffffffffffffffffffffffffffffffffffffff16600073ffffffffffffffffffffffffffffffffffffffff167f8be0079c531659141344cd1fd0a4f28419497f9722a3daafe3b4186f6b6457e060405160405180910390a3620002226040518060a001604052806040518060400160405280600881526020017f307838343545433200000000000000000000000000000000000000000000000081525081526020016040518060400160405280600881526020017f307834423434353300000000000000000000000000000000000000000000000081525081526020016040518060400160405280600881526020017f307842304138423900000000000000000000000000000000000000000000000081525081526020016040518060400160405280600881526020017f307843333441333600000000000000000000000000000000000000000000000081525081526020016040518060400160405280600881526020017f3078464638303636000000000000000000000000000000000000000000000000815250815250620005e860201b60201c565b620003626040518060a001604052806040518060400160405280600881526020017f307836393936373400000000000000000000000000000000000000000000000081525081526020016040518060400160405280600881526020017f307833423441334600000000000000000000000000000000000000000000000081525081526020016040518060400160405280600881526020017f307839454146413200000000000000000000000000000000000000000000000081525081526020016040518060400160405280600881526020017f307834453934423300000000000000000000000000000000000000000000000081525081526020016040518060400160405280600881526020017f3078303336313745000000000000000000000000000000000000000000000000815250815250620005e860201b60201c565b620004a26040518060a001604052806040518060400160405280600881526020017f307832374236443800000000000000000000000000000000000000000000000081525081526020016040518060400160405280600881526020017f307833333441353200000000000000000000000000000000000000000000000081525081526020016040518060400160405280600881526020017f307839364146423800000000000000000000000000000000000000000000000081525081526020016040518060400160405280600881526020017f307843343938443400000000000000000000000000000000000000000000000081525081526020016040518060400160405280600881526020017f3078384536343944000000000000000000000000000000000000000000000000815250815250620005e860201b60201c565b620005e26040518060a001604052806040518060400160405280600881526020017f307835414135354200000000000000000000000000000000000000000000000081525081526020016040518060400160405280600881526020017f307832343935364400000000000000000000000000000000000000000000000081525081526020016040518060400160405280600881526020017f307830303833373700000000000000000000000000000000000000000000000081525081526020016040518060400160405280600881526020017f307830303646373700000000000000000000000000000000000000000000000081525081526020016040518060400160405280600881526020017f3078314335423643000000000000000000000000000000000000000000000000815250815250620005e860201b60201c565b62000bf3565b620005f8620006b660201b60201c565b6200060257600080fd5b6003808054905090806001815401808255809150506001900390600052602060002001600090919091909150558060046000600160038054905062000648919062000833565b8152602001908152602001600020906005620006669291906200070d565b507fe1c7c98cdeded3a25c1c7ada5b85013b2c7c9879f1678129a413ea685d0fcc7860016003805490506200069c919062000833565b604051620006ab91906200087f565b60405180910390a150565b60008060009054906101000a900473ffffffffffffffffffffffffffffffffffffffff1673ffffffffffffffffffffffffffffffffffffffff163373ffffffffffffffffffffffffffffffffffffffff1614905090565b8280548282559060005260206000209081019282156200075a579160200282015b828111156200075957825182908162000748919062000b0c565b50916020019190600101906200072e565b5b5090506200076991906200076d565b5090565b5b8082111562000791576000818162000787919062000795565b506001016200076e565b5090565b508054620007a39062000905565b6000825580601f10620007b75750620007d8565b601f016020900490600052602060002090810190620007d79190620007db565b5b50565b5b80821115620007f6576000816000905550600101620007dc565b5090565b6000819050919050565b7f4e487b7100000000000000000000000000000000000000000000000000000000600052601160045260246000fd5b60006200084082620007fa565b91506200084d83620007fa565b925082820390508181111562000868576200086762000804565b5b92915050565b6200087981620007fa565b82525050565b60006020820190506200089660008301846200086e565b92915050565b600081519050919050565b7f4e487b7100000000000000000000000000000000000000000000000000000000600052604160045260246000fd5b7f4e487b7100000000000000000000000000000000000000000000000000000000600052602260045260246000fd5b600060028204905060018216806200091e57607f821691505b602082108103620009345762000933620008d6565b5b50919050565b60008190508160005260206000209050919050565b60006020601f8301049050919050565b600082821b905092915050565b6000600883026200099e7fffffffffffffffffffffffffffffffffffffffffffffffffffffffffffffffff826200095f565b620009aa86836200095f565b95508019841693508086168417925050509392505050565b6000819050919050565b6000620009ed620009e7620009e184620007fa565b620009c2565b620007fa565b9050919050565b6000819050919050565b62000a0983620009cc565b62000a2162000a1882620009f4565b8484546200096c565b825550505050565b600090565b62000a3862000a29565b62000a45818484620009fe565b505050565b5b8181101562000a6d5762000a6160008262000a2e565b60018101905062000a4b565b5050565b601f82111562000abc5762000a86816200093a565b62000a91846200094f565b8101602085101562000aa1578190505b62000ab962000ab0856200094f565b83018262000a4a565b50505b505050565b600082821c905092915050565b600062000ae16000198460080262000ac1565b1980831691505092915050565b600062000afc838362000ace565b9150826002028217905092915050565b62000b17826200089c565b67ffffffffffffffff81111562000b335762000b32620008a7565b5b62000b3f825462000905565b62000b4c82828562000a71565b600060209050601f83116001811462000b84576000841562000b6f578287015190505b62000b7b858262000aee565b86555062000beb565b601f19841662000b94866200093a565b60005b8281101562000bbe5784890151825560018201915060208501945060208101905062000b97565b8683101562000bde578489015162000bda601f89168262000ace565b8355505b6001600288020188555050505b505050505050565b6111f38062000c036000396000f3fe6080604052600436106100915760003560e01c80638da5cb5b116100595780638da5cb5b1461015a5780638f32d59b14610185578063b8f7f42a146101b0578063dcf7eefe146101d9578063f2fde38b1461021657610091565b8063109c1238146100965780634315399f146100c157806360063cc6146100dd5780636f44215414610106578063715018a614610143575b600080fd5b3480156100a257600080fd5b506100ab61023f565b6040516100b891906108cd565b60405180910390f35b6100db60048036038101906100d69190610928565b610245565b005b3480156100e957600080fd5b5061010460048036038101906100ff9190610968565b610292565b005b34801561011257600080fd5b5061012d600480360381019061012891906109f3565b6102f8565b60405161013a91906108cd565b60405180910390f35b34801561014f57600080fd5b50610158610341565b005b34801561016657600080fd5b5061016f610410565b60405161017c9190610a2f565b60405180910390f35b34801561019157600080fd5b5061019a610439565b6040516101a79190610a65565b60405180910390f35b3480156101bc57600080fd5b506101d760048036038101906101d29190610c9a565b610490565b005b3480156101e557600080fd5b5061020060048036038101906101fb9190610968565b61054d565b60405161020d91906108cd565b60405180910390f35b34801561022257600080fd5b5061023d600480360381019061023891906109f3565b610571565b005b60015481565b600654341461025357600080fd5b600380549050811061026457600080fd5b806007838154811061027957610278610ce3565b5b9060005260206000209060030201600101819055505050565b60006102a661029f61058e565b60006105ab565b9050600782815481106102bc576102bb610ce3565b5b90600052602060002090600302016002018190806001815401808255809150506001900390600052602060002001600090919091909150555050565b6000600860008373ffffffffffffffffffffffffffffffffffffffff1673ffffffffffffffffffffffffffffffffffffffff168152602001908152602001600020549050919050565b610349610439565b61035257600080fd5b600073ffffffffffffffffffffffffffffffffffffffff1660008054906101000a900473ffffffffffffffffffffffffffffffffffffffff1673ffffffffffffffffffffffffffffffffffffffff167f8be0079c531659141344cd1fd0a4f28419497f9722a3daafe3b4186f6b6457e060405160405180910390a360008060006101000a81548173ffffffffffffffffffffffffffffffffffffffff021916908373ffffffffffffffffffffffffffffffffffffffff160217905550565b60008060009054906101000a900473ffffffffffffffffffffffffffffffffffffffff16905090565b60008060009054906101000a900473ffffffffffffffffffffffffffffffffffffffff1673ffffffffffffffffffffffffffffffffffffffff163373ffffffffffffffffffffffffffffffffffffffff1614905090565b610498610439565b6104a157600080fd5b600380805490509080600181540180825580915050600190039060005260206000200160009091909190915055806004600060016003805490506104e59190610d41565b81526020019081526020016000209060056105019291906107da565b507fe1c7c98cdeded3a25c1c7ada5b85013b2c7c9879f1678129a413ea685d0fcc7860016003805490506105359190610d41565b60405161054291906108cd565b60405180910390a150565b6003818154811061055d57600080fd5b906000526020600020016000915090505481565b610579610439565b61058257600080fd5b61058b81610686565b50565b60006105a6600180546105a19190610d41565b61077c565b905090565b6000600560405180606001604052803373ffffffffffffffffffffffffffffffffffffffff16815260200185815260200184815250908060018154018082558091505060019003906000526020600020906003020160009091909190915060008201518160000160006101000a81548173ffffffffffffffffffffffffffffffffffffffff021916908373ffffffffffffffffffffffffffffffffffffffff160217905550602082015181600101556040820151816002015550506000600160058054905061067a9190610d41565b90508091505092915050565b600073ffffffffffffffffffffffffffffffffffffffff168173ffffffffffffffffffffffffffffffffffffffff16036106bf57600080fd5b8073ffffffffffffffffffffffffffffffffffffffff1660008054906101000a900473ffffffffffffffffffffffffffffffffffffffff1673ffffffffffffffffffffffffffffffffffffffff167f8be0079c531659141344cd1fd0a4f28419497f9722a3daafe3b4186f6b6457e060405160405180910390a3806000806101000a81548173ffffffffffffffffffffffffffffffffffffffff021916908373ffffffffffffffffffffffffffffffffffffffff16021790555050565b60006002600081548092919061079190610d75565b9190505550814244336002546040516020016107b09493929190610e26565b6040516020818303038152906040528051906020012060001c6107d39190610ea3565b9050919050565b828054828255906000526020600020908101928215610822579160200282015b8281111561082157825182908161081191906110eb565b50916020019190600101906107fa565b5b50905061082f9190610833565b5090565b5b80821115610853576000818161084a9190610857565b50600101610834565b5090565b50805461086390610f0e565b6000825580601f106108755750610894565b601f0160209004906000526020600020908101906108939190610897565b5b50565b5b808211156108b0576000816000905550600101610898565b5090565b6000819050919050565b6108c7816108b4565b82525050565b60006020820190506108e260008301846108be565b92915050565b6000604051905090565b600080fd5b600080fd5b610905816108b4565b811461091057600080fd5b50565b600081359050610922816108fc565b92915050565b6000806040838503121561093f5761093e6108f2565b5b600061094d85828601610913565b925050602061095e85828601610913565b9150509250929050565b60006020828403121561097e5761097d6108f2565b5b600061098c84828501610913565b91505092915050565b600073ffffffffffffffffffffffffffffffffffffffff82169050919050565b60006109c082610995565b9050919050565b6109d0816109b5565b81146109db57600080fd5b50565b6000813590506109ed816109c7565b92915050565b600060208284031215610a0957610a086108f2565b5b6000610a17848285016109de565b91505092915050565b610a29816109b5565b82525050565b6000602082019050610a446000830184610a20565b92915050565b60008115159050919050565b610a5f81610a4a565b82525050565b6000602082019050610a7a6000830184610a56565b92915050565b600080fd5b6000601f19601f8301169050919050565b7f4e487b7100000000000000000000000000000000000000000000000000000000600052604160045260246000fd5b610ace82610a85565b810181811067ffffffffffffffff82111715610aed57610aec610a96565b5b80604052505050565b6000610b006108e8565b9050610b0c8282610ac5565b919050565b600067ffffffffffffffff821115610b2c57610b2b610a96565b5b602082029050919050565b600080fd5b600080fd5b600067ffffffffffffffff821115610b5c57610b5b610a96565b5b610b6582610a85565b9050602081019050919050565b82818337600083830152505050565b6000610b94610b8f84610b41565b610af6565b905082815260208101848484011115610bb057610baf610b3c565b5b610bbb848285610b72565b509392505050565b600082601f830112610bd857610bd7610a80565b5b8135610be8848260208601610b81565b91505092915050565b6000610c04610bff84610b11565b610af6565b90508060208402830185811115610c1e57610c1d610b37565b5b835b81811015610c6557803567ffffffffffffffff811115610c4357610c42610a80565b5b808601610c508982610bc3565b85526020850194505050602081019050610c20565b5050509392505050565b600082601f830112610c8457610c83610a80565b5b6005610c91848285610bf1565b91505092915050565b600060208284031215610cb057610caf6108f2565b5b600082013567ffffffffffffffff811115610cce57610ccd6108f7565b5b610cda84828501610c6f565b91505092915050565b7f4e487b7100000000000000000000000000000000000000000000000000000000600052603260045260246000fd5b7f4e487b7100000000000000000000000000000000000000000000000000000000600052601160045260246000fd5b6000610d4c826108b4565b9150610d57836108b4565b9250828203905081811115610d6f57610d6e610d12565b5b92915050565b6000610d80826108b4565b91507fffffffffffffffffffffffffffffffffffffffffffffffffffffffffffffffff8203610db257610db1610d12565b5b600182019050919050565b6000819050919050565b610dd8610dd3826108b4565b610dbd565b82525050565b60008160601b9050919050565b6000610df682610dde565b9050919050565b6000610e0882610deb565b9050919050565b610e20610e1b826109b5565b610dfd565b82525050565b6000610e328287610dc7565b602082019150610e428286610dc7565b602082019150610e528285610e0f565b601482019150610e628284610dc7565b60208201915081905095945050505050565b7f4e487b7100000000000000000000000000000000000000000000000000000000600052601260045260246000fd5b6000610eae826108b4565b9150610eb9836108b4565b925082610ec957610ec8610e74565b5b828206905092915050565b600081519050919050565b7f4e487b7100000000000000000000000000000000000000000000000000000000600052602260045260246000fd5b60006002820490506001821680610f2657607f821691505b602082108103610f3957610f38610edf565b5b50919050565b60008190508160005260206000209050919050565b60006020601f8301049050919050565b600082821b905092915050565b600060088302610fa17fffffffffffffffffffffffffffffffffffffffffffffffffffffffffffffffff82610f64565b610fab8683610f64565b95508019841693508086168417925050509392505050565b6000819050919050565b6000610fe8610fe3610fde846108b4565b610fc3565b6108b4565b9050919050565b6000819050919050565b61100283610fcd565b61101661100e82610fef565b848454610f71565b825550505050565b600090565b61102b61101e565b611036818484610ff9565b505050565b5b8181101561105a5761104f600082611023565b60018101905061103c565b5050565b601f82111561109f5761107081610f3f565b61107984610f54565b81016020851015611088578190505b61109c61109485610f54565b83018261103b565b50505b505050565b600082821c905092915050565b60006110c2600019846008026110a4565b1980831691505092915050565b60006110db83836110b1565b9150826002028217905092915050565b6110f482610ed4565b67ffffffffffffffff81111561110d5761110c610a96565b5b6111178254610f0e565b61112282828561105e565b600060209050601f8311600181146111555760008415611143578287015190505b61114d85826110cf565b8655506111b5565b601f19841661116386610f3f565b60005b8281101561118b57848901518255600182019150602085019450602081019050611166565b868310156111a857848901516111a4601f8916826110b1565b8355505b6001600288020188555050505b50505050505056fea264697066735822122006ff792dbe04298e7dc183cdda561c89648d363512979f49b32234a126dd3d2664736f6c63430008120033",
					"opcodes": "PUSH1 0x80 PUSH1 0x40 MSTORE PUSH1 0x5 PUSH1 0x1 SSTORE PUSH1 0x0 PUSH1 0x2 SSTORE PUSH7 0x38D7EA4C68000 PUSH1 0x6 SSTORE CALLVALUE DUP1 ISZERO PUSH3 0x26 JUMPI PUSH1 0x0 DUP1 REVERT JUMPDEST POP CALLER PUSH1 0x0 DUP1 PUSH2 0x100 EXP DUP2 SLOAD DUP2 PUSH20 0xFFFFFFFFFFFFFFFFFFFFFFFFFFFFFFFFFFFFFFFF MUL NOT AND SWAP1 DUP4 PUSH20 0xFFFFFFFFFFFFFFFFFFFFFFFFFFFFFFFFFFFFFFFF AND MUL OR SWAP1 SSTORE POP PUSH1 0x0 DUP1 SLOAD SWAP1 PUSH2 0x100 EXP SWAP1 DIV PUSH20 0xFFFFFFFFFFFFFFFFFFFFFFFFFFFFFFFFFFFFFFFF AND PUSH20 0xFFFFFFFFFFFFFFFFFFFFFFFFFFFFFFFFFFFFFFFF AND PUSH1 0x0 PUSH20 0xFFFFFFFFFFFFFFFFFFFFFFFFFFFFFFFFFFFFFFFF AND PUSH32 0x8BE0079C531659141344CD1FD0A4F28419497F9722A3DAAFE3B4186F6B6457E0 PUSH1 0x40 MLOAD PUSH1 0x40 MLOAD DUP1 SWAP2 SUB SWAP1 LOG3 PUSH3 0x222 PUSH1 0x40 MLOAD DUP1 PUSH1 0xA0 ADD PUSH1 0x40 MSTORE DUP1 PUSH1 0x40 MLOAD DUP1 PUSH1 0x40 ADD PUSH1 0x40 MSTORE DUP1 PUSH1 0x8 DUP2 MSTORE PUSH1 0x20 ADD PUSH32 0x3078383435454332000000000000000000000000000000000000000000000000 DUP2 MSTORE POP DUP2 MSTORE PUSH1 0x20 ADD PUSH1 0x40 MLOAD DUP1 PUSH1 0x40 ADD PUSH1 0x40 MSTORE DUP1 PUSH1 0x8 DUP2 MSTORE PUSH1 0x20 ADD PUSH32 0x3078344234343533000000000000000000000000000000000000000000000000 DUP2 MSTORE POP DUP2 MSTORE PUSH1 0x20 ADD PUSH1 0x40 MLOAD DUP1 PUSH1 0x40 ADD PUSH1 0x40 MSTORE DUP1 PUSH1 0x8 DUP2 MSTORE PUSH1 0x20 ADD PUSH32 0x3078423041384239000000000000000000000000000000000000000000000000 DUP2 MSTORE POP DUP2 MSTORE PUSH1 0x20 ADD PUSH1 0x40 MLOAD DUP1 PUSH1 0x40 ADD PUSH1 0x40 MSTORE DUP1 PUSH1 0x8 DUP2 MSTORE PUSH1 0x20 ADD PUSH32 0x3078433334413336000000000000000000000000000000000000000000000000 DUP2 MSTORE POP DUP2 MSTORE PUSH1 0x20 ADD PUSH1 0x40 MLOAD DUP1 PUSH1 0x40 ADD PUSH1 0x40 MSTORE DUP1 PUSH1 0x8 DUP2 MSTORE PUSH1 0x20 ADD PUSH32 0x3078464638303636000000000000000000000000000000000000000000000000 DUP2 MSTORE POP DUP2 MSTORE POP PUSH3 0x5E8 PUSH1 0x20 SHL PUSH1 0x20 SHR JUMP JUMPDEST PUSH3 0x362 PUSH1 0x40 MLOAD DUP1 PUSH1 0xA0 ADD PUSH1 0x40 MSTORE DUP1 PUSH1 0x40 MLOAD DUP1 PUSH1 0x40 ADD PUSH1 0x40 MSTORE DUP1 PUSH1 0x8 DUP2 MSTORE PUSH1 0x20 ADD PUSH32 0x3078363939363734000000000000000000000000000000000000000000000000 DUP2 MSTORE POP DUP2 MSTORE PUSH1 0x20 ADD PUSH1 0x40 MLOAD DUP1 PUSH1 0x40 ADD PUSH1 0x40 MSTORE DUP1 PUSH1 0x8 DUP2 MSTORE PUSH1 0x20 ADD PUSH32 0x3078334234413346000000000000000000000000000000000000000000000000 DUP2 MSTORE POP DUP2 MSTORE PUSH1 0x20 ADD PUSH1 0x40 MLOAD DUP1 PUSH1 0x40 ADD PUSH1 0x40 MSTORE DUP1 PUSH1 0x8 DUP2 MSTORE PUSH1 0x20 ADD PUSH32 0x3078394541464132000000000000000000000000000000000000000000000000 DUP2 MSTORE POP DUP2 MSTORE PUSH1 0x20 ADD PUSH1 0x40 MLOAD DUP1 PUSH1 0x40 ADD PUSH1 0x40 MSTORE DUP1 PUSH1 0x8 DUP2 MSTORE PUSH1 0x20 ADD PUSH32 0x3078344539344233000000000000000000000000000000000000000000000000 DUP2 MSTORE POP DUP2 MSTORE PUSH1 0x20 ADD PUSH1 0x40 MLOAD DUP1 PUSH1 0x40 ADD PUSH1 0x40 MSTORE DUP1 PUSH1 0x8 DUP2 MSTORE PUSH1 0x20 ADD PUSH32 0x3078303336313745000000000000000000000000000000000000000000000000 DUP2 MSTORE POP DUP2 MSTORE POP PUSH3 0x5E8 PUSH1 0x20 SHL PUSH1 0x20 SHR JUMP JUMPDEST PUSH3 0x4A2 PUSH1 0x40 MLOAD DUP1 PUSH1 0xA0 ADD PUSH1 0x40 MSTORE DUP1 PUSH1 0x40 MLOAD DUP1 PUSH1 0x40 ADD PUSH1 0x40 MSTORE DUP1 PUSH1 0x8 DUP2 MSTORE PUSH1 0x20 ADD PUSH32 0x3078323742364438000000000000000000000000000000000000000000000000 DUP2 MSTORE POP DUP2 MSTORE PUSH1 0x20 ADD PUSH1 0x40 MLOAD DUP1 PUSH1 0x40 ADD PUSH1 0x40 MSTORE DUP1 PUSH1 0x8 DUP2 MSTORE PUSH1 0x20 ADD PUSH32 0x3078333334413532000000000000000000000000000000000000000000000000 DUP2 MSTORE POP DUP2 MSTORE PUSH1 0x20 ADD PUSH1 0x40 MLOAD DUP1 PUSH1 0x40 ADD PUSH1 0x40 MSTORE DUP1 PUSH1 0x8 DUP2 MSTORE PUSH1 0x20 ADD PUSH32 0x3078393641464238000000000000000000000000000000000000000000000000 DUP2 MSTORE POP DUP2 MSTORE PUSH1 0x20 ADD PUSH1 0x40 MLOAD DUP1 PUSH1 0x40 ADD PUSH1 0x40 MSTORE DUP1 PUSH1 0x8 DUP2 MSTORE PUSH1 0x20 ADD PUSH32 0x3078433439384434000000000000000000000000000000000000000000000000 DUP2 MSTORE POP DUP2 MSTORE PUSH1 0x20 ADD PUSH1 0x40 MLOAD DUP1 PUSH1 0x40 ADD PUSH1 0x40 MSTORE DUP1 PUSH1 0x8 DUP2 MSTORE PUSH1 0x20 ADD PUSH32 0x3078384536343944000000000000000000000000000000000000000000000000 DUP2 MSTORE POP DUP2 MSTORE POP PUSH3 0x5E8 PUSH1 0x20 SHL PUSH1 0x20 SHR JUMP JUMPDEST PUSH3 0x5E2 PUSH1 0x40 MLOAD DUP1 PUSH1 0xA0 ADD PUSH1 0x40 MSTORE DUP1 PUSH1 0x40 MLOAD DUP1 PUSH1 0x40 ADD PUSH1 0x40 MSTORE DUP1 PUSH1 0x8 DUP2 MSTORE PUSH1 0x20 ADD PUSH32 0x3078354141353542000000000000000000000000000000000000000000000000 DUP2 MSTORE POP DUP2 MSTORE PUSH1 0x20 ADD PUSH1 0x40 MLOAD DUP1 PUSH1 0x40 ADD PUSH1 0x40 MSTORE DUP1 PUSH1 0x8 DUP2 MSTORE PUSH1 0x20 ADD PUSH32 0x3078323439353644000000000000000000000000000000000000000000000000 DUP2 MSTORE POP DUP2 MSTORE PUSH1 0x20 ADD PUSH1 0x40 MLOAD DUP1 PUSH1 0x40 ADD PUSH1 0x40 MSTORE DUP1 PUSH1 0x8 DUP2 MSTORE PUSH1 0x20 ADD PUSH32 0x3078303038333737000000000000000000000000000000000000000000000000 DUP2 MSTORE POP DUP2 MSTORE PUSH1 0x20 ADD PUSH1 0x40 MLOAD DUP1 PUSH1 0x40 ADD PUSH1 0x40 MSTORE DUP1 PUSH1 0x8 DUP2 MSTORE PUSH1 0x20 ADD PUSH32 0x3078303036463737000000000000000000000000000000000000000000000000 DUP2 MSTORE POP DUP2 MSTORE PUSH1 0x20 ADD PUSH1 0x40 MLOAD DUP1 PUSH1 0x40 ADD PUSH1 0x40 MSTORE DUP1 PUSH1 0x8 DUP2 MSTORE PUSH1 0x20 ADD PUSH32 0x3078314335423643000000000000000000000000000000000000000000000000 DUP2 MSTORE POP DUP2 MSTORE POP PUSH3 0x5E8 PUSH1 0x20 SHL PUSH1 0x20 SHR JUMP JUMPDEST PUSH3 0xBF3 JUMP JUMPDEST PUSH3 0x5F8 PUSH3 0x6B6 PUSH1 0x20 SHL PUSH1 0x20 SHR JUMP JUMPDEST PUSH3 0x602 JUMPI PUSH1 0x0 DUP1 REVERT JUMPDEST PUSH1 0x3 DUP1 DUP1 SLOAD SWAP1 POP SWAP1 DUP1 PUSH1 0x1 DUP2 SLOAD ADD DUP1 DUP3 SSTORE DUP1 SWAP2 POP POP PUSH1 0x1 SWAP1 SUB SWAP1 PUSH1 0x0 MSTORE PUSH1 0x20 PUSH1 0x0 KECCAK256 ADD PUSH1 0x0 SWAP1 SWAP2 SWAP1 SWAP2 SWAP1 SWAP2 POP SSTORE DUP1 PUSH1 0x4 PUSH1 0x0 PUSH1 0x1 PUSH1 0x3 DUP1 SLOAD SWAP1 POP PUSH3 0x648 SWAP2 SWAP1 PUSH3 0x833 JUMP JUMPDEST DUP2 MSTORE PUSH1 0x20 ADD SWAP1 DUP2 MSTORE PUSH1 0x20 ADD PUSH1 0x0 KECCAK256 SWAP1 PUSH1 0x5 PUSH3 0x666 SWAP3 SWAP2 SWAP1 PUSH3 0x70D JUMP JUMPDEST POP PUSH32 0xE1C7C98CDEDED3A25C1C7ADA5B85013B2C7C9879F1678129A413EA685D0FCC78 PUSH1 0x1 PUSH1 0x3 DUP1 SLOAD SWAP1 POP PUSH3 0x69C SWAP2 SWAP1 PUSH3 0x833 JUMP JUMPDEST PUSH1 0x40 MLOAD PUSH3 0x6AB SWAP2 SWAP1 PUSH3 0x87F JUMP JUMPDEST PUSH1 0x40 MLOAD DUP1 SWAP2 SUB SWAP1 LOG1 POP JUMP JUMPDEST PUSH1 0x0 DUP1 PUSH1 0x0 SWAP1 SLOAD SWAP1 PUSH2 0x100 EXP SWAP1 DIV PUSH20 0xFFFFFFFFFFFFFFFFFFFFFFFFFFFFFFFFFFFFFFFF AND PUSH20 0xFFFFFFFFFFFFFFFFFFFFFFFFFFFFFFFFFFFFFFFF AND CALLER PUSH20 0xFFFFFFFFFFFFFFFFFFFFFFFFFFFFFFFFFFFFFFFF AND EQ SWAP1 POP SWAP1 JUMP JUMPDEST DUP3 DUP1 SLOAD DUP3 DUP3 SSTORE SWAP1 PUSH1 0x0 MSTORE PUSH1 0x20 PUSH1 0x0 KECCAK256 SWAP1 DUP2 ADD SWAP3 DUP3 ISZERO PUSH3 0x75A JUMPI SWAP2 PUSH1 0x20 MUL DUP3 ADD JUMPDEST DUP3 DUP2 GT ISZERO PUSH3 0x759 JUMPI DUP3 MLOAD DUP3 SWAP1 DUP2 PUSH3 0x748 SWAP2 SWAP1 PUSH3 0xB0C JUMP JUMPDEST POP SWAP2 PUSH1 0x20 ADD SWAP2 SWAP1 PUSH1 0x1 ADD SWAP1 PUSH3 0x72E JUMP JUMPDEST JUMPDEST POP SWAP1 POP PUSH3 0x769 SWAP2 SWAP1 PUSH3 0x76D JUMP JUMPDEST POP SWAP1 JUMP JUMPDEST JUMPDEST DUP1 DUP3 GT ISZERO PUSH3 0x791 JUMPI PUSH1 0x0 DUP2 DUP2 PUSH3 0x787 SWAP2 SWAP1 PUSH3 0x795 JUMP JUMPDEST POP PUSH1 0x1 ADD PUSH3 0x76E JUMP JUMPDEST POP SWAP1 JUMP JUMPDEST POP DUP1 SLOAD PUSH3 0x7A3 SWAP1 PUSH3 0x905 JUMP JUMPDEST PUSH1 0x0 DUP3 SSTORE DUP1 PUSH1 0x1F LT PUSH3 0x7B7 JUMPI POP PUSH3 0x7D8 JUMP JUMPDEST PUSH1 0x1F ADD PUSH1 0x20 SWAP1 DIV SWAP1 PUSH1 0x0 MSTORE PUSH1 0x20 PUSH1 0x0 KECCAK256 SWAP1 DUP2 ADD SWAP1 PUSH3 0x7D7 SWAP2 SWAP1 PUSH3 0x7DB JUMP JUMPDEST JUMPDEST POP JUMP JUMPDEST JUMPDEST DUP1 DUP3 GT ISZERO PUSH3 0x7F6 JUMPI PUSH1 0x0 DUP2 PUSH1 0x0 SWAP1 SSTORE POP PUSH1 0x1 ADD PUSH3 0x7DC JUMP JUMPDEST POP SWAP1 JUMP JUMPDEST PUSH1 0x0 DUP2 SWAP1 POP SWAP2 SWAP1 POP JUMP JUMPDEST PUSH32 0x4E487B7100000000000000000000000000000000000000000000000000000000 PUSH1 0x0 MSTORE PUSH1 0x11 PUSH1 0x4 MSTORE PUSH1 0x24 PUSH1 0x0 REVERT JUMPDEST PUSH1 0x0 PUSH3 0x840 DUP3 PUSH3 0x7FA JUMP JUMPDEST SWAP2 POP PUSH3 0x84D DUP4 PUSH3 0x7FA JUMP JUMPDEST SWAP3 POP DUP3 DUP3 SUB SWAP1 POP DUP2 DUP2 GT ISZERO PUSH3 0x868 JUMPI PUSH3 0x867 PUSH3 0x804 JUMP JUMPDEST JUMPDEST SWAP3 SWAP2 POP POP JUMP JUMPDEST PUSH3 0x879 DUP2 PUSH3 0x7FA JUMP JUMPDEST DUP3 MSTORE POP POP JUMP JUMPDEST PUSH1 0x0 PUSH1 0x20 DUP3 ADD SWAP1 POP PUSH3 0x896 PUSH1 0x0 DUP4 ADD DUP5 PUSH3 0x86E JUMP JUMPDEST SWAP3 SWAP2 POP POP JUMP JUMPDEST PUSH1 0x0 DUP2 MLOAD SWAP1 POP SWAP2 SWAP1 POP JUMP JUMPDEST PUSH32 0x4E487B7100000000000000000000000000000000000000000000000000000000 PUSH1 0x0 MSTORE PUSH1 0x41 PUSH1 0x4 MSTORE PUSH1 0x24 PUSH1 0x0 REVERT JUMPDEST PUSH32 0x4E487B7100000000000000000000000000000000000000000000000000000000 PUSH1 0x0 MSTORE PUSH1 0x22 PUSH1 0x4 MSTORE PUSH1 0x24 PUSH1 0x0 REVERT JUMPDEST PUSH1 0x0 PUSH1 0x2 DUP3 DIV SWAP1 POP PUSH1 0x1 DUP3 AND DUP1 PUSH3 0x91E JUMPI PUSH1 0x7F DUP3 AND SWAP2 POP JUMPDEST PUSH1 0x20 DUP3 LT DUP2 SUB PUSH3 0x934 JUMPI PUSH3 0x933 PUSH3 0x8D6 JUMP JUMPDEST JUMPDEST POP SWAP2 SWAP1 POP JUMP JUMPDEST PUSH1 0x0 DUP2 SWAP1 POP DUP2 PUSH1 0x0 MSTORE PUSH1 0x20 PUSH1 0x0 KECCAK256 SWAP1 POP SWAP2 SWAP1 POP JUMP JUMPDEST PUSH1 0x0 PUSH1 0x20 PUSH1 0x1F DUP4 ADD DIV SWAP1 POP SWAP2 SWAP1 POP JUMP JUMPDEST PUSH1 0x0 DUP3 DUP3 SHL SWAP1 POP SWAP3 SWAP2 POP POP JUMP JUMPDEST PUSH1 0x0 PUSH1 0x8 DUP4 MUL PUSH3 0x99E PUSH32 0xFFFFFFFFFFFFFFFFFFFFFFFFFFFFFFFFFFFFFFFFFFFFFFFFFFFFFFFFFFFFFFFF DUP3 PUSH3 0x95F JUMP JUMPDEST PUSH3 0x9AA DUP7 DUP4 PUSH3 0x95F JUMP JUMPDEST SWAP6 POP DUP1 NOT DUP5 AND SWAP4 POP DUP1 DUP7 AND DUP5 OR SWAP3 POP POP POP SWAP4 SWAP3 POP POP POP JUMP JUMPDEST PUSH1 0x0 DUP2 SWAP1 POP SWAP2 SWAP1 POP JUMP JUMPDEST PUSH1 0x0 PUSH3 0x9ED PUSH3 0x9E7 PUSH3 0x9E1 DUP5 PUSH3 0x7FA JUMP JUMPDEST PUSH3 0x9C2 JUMP JUMPDEST PUSH3 0x7FA JUMP JUMPDEST SWAP1 POP SWAP2 SWAP1 POP JUMP JUMPDEST PUSH1 0x0 DUP2 SWAP1 POP SWAP2 SWAP1 POP JUMP JUMPDEST PUSH3 0xA09 DUP4 PUSH3 0x9CC JUMP JUMPDEST PUSH3 0xA21 PUSH3 0xA18 DUP3 PUSH3 0x9F4 JUMP JUMPDEST DUP5 DUP5 SLOAD PUSH3 0x96C JUMP JUMPDEST DUP3 SSTORE POP POP POP POP JUMP JUMPDEST PUSH1 0x0 SWAP1 JUMP JUMPDEST PUSH3 0xA38 PUSH3 0xA29 JUMP JUMPDEST PUSH3 0xA45 DUP2 DUP5 DUP5 PUSH3 0x9FE JUMP JUMPDEST POP POP POP JUMP JUMPDEST JUMPDEST DUP2 DUP2 LT ISZERO PUSH3 0xA6D JUMPI PUSH3 0xA61 PUSH1 0x0 DUP3 PUSH3 0xA2E JUMP JUMPDEST PUSH1 0x1 DUP2 ADD SWAP1 POP PUSH3 0xA4B JUMP JUMPDEST POP POP JUMP JUMPDEST PUSH1 0x1F DUP3 GT ISZERO PUSH3 0xABC JUMPI PUSH3 0xA86 DUP2 PUSH3 0x93A JUMP JUMPDEST PUSH3 0xA91 DUP5 PUSH3 0x94F JUMP JUMPDEST DUP2 ADD PUSH1 0x20 DUP6 LT ISZERO PUSH3 0xAA1 JUMPI DUP2 SWAP1 POP JUMPDEST PUSH3 0xAB9 PUSH3 0xAB0 DUP6 PUSH3 0x94F JUMP JUMPDEST DUP4 ADD DUP3 PUSH3 0xA4A JUMP JUMPDEST POP POP JUMPDEST POP POP POP JUMP JUMPDEST PUSH1 0x0 DUP3 DUP3 SHR SWAP1 POP SWAP3 SWAP2 POP POP JUMP JUMPDEST PUSH1 0x0 PUSH3 0xAE1 PUSH1 0x0 NOT DUP5 PUSH1 0x8 MUL PUSH3 0xAC1 JUMP JUMPDEST NOT DUP1 DUP4 AND SWAP2 POP POP SWAP3 SWAP2 POP POP JUMP JUMPDEST PUSH1 0x0 PUSH3 0xAFC DUP4 DUP4 PUSH3 0xACE JUMP JUMPDEST SWAP2 POP DUP3 PUSH1 0x2 MUL DUP3 OR SWAP1 POP SWAP3 SWAP2 POP POP JUMP JUMPDEST PUSH3 0xB17 DUP3 PUSH3 0x89C JUMP JUMPDEST PUSH8 0xFFFFFFFFFFFFFFFF DUP2 GT ISZERO PUSH3 0xB33 JUMPI PUSH3 0xB32 PUSH3 0x8A7 JUMP JUMPDEST JUMPDEST PUSH3 0xB3F DUP3 SLOAD PUSH3 0x905 JUMP JUMPDEST PUSH3 0xB4C DUP3 DUP3 DUP6 PUSH3 0xA71 JUMP JUMPDEST PUSH1 0x0 PUSH1 0x20 SWAP1 POP PUSH1 0x1F DUP4 GT PUSH1 0x1 DUP2 EQ PUSH3 0xB84 JUMPI PUSH1 0x0 DUP5 ISZERO PUSH3 0xB6F JUMPI DUP3 DUP8 ADD MLOAD SWAP1 POP JUMPDEST PUSH3 0xB7B DUP6 DUP3 PUSH3 0xAEE JUMP JUMPDEST DUP7 SSTORE POP PUSH3 0xBEB JUMP JUMPDEST PUSH1 0x1F NOT DUP5 AND PUSH3 0xB94 DUP7 PUSH3 0x93A JUMP JUMPDEST PUSH1 0x0 JUMPDEST DUP3 DUP2 LT ISZERO PUSH3 0xBBE JUMPI DUP5 DUP10 ADD MLOAD DUP3 SSTORE PUSH1 0x1 DUP3 ADD SWAP2 POP PUSH1 0x20 DUP6 ADD SWAP5 POP PUSH1 0x20 DUP2 ADD SWAP1 POP PUSH3 0xB97 JUMP JUMPDEST DUP7 DUP4 LT ISZERO PUSH3 0xBDE JUMPI DUP5 DUP10 ADD MLOAD PUSH3 0xBDA PUSH1 0x1F DUP10 AND DUP3 PUSH3 0xACE JUMP JUMPDEST DUP4 SSTORE POP JUMPDEST PUSH1 0x1 PUSH1 0x2 DUP9 MUL ADD DUP9 SSTORE POP POP POP JUMPDEST POP POP POP POP POP POP JUMP JUMPDEST PUSH2 0x11F3 DUP1 PUSH3 0xC03 PUSH1 0x0 CODECOPY PUSH1 0x0 RETURN INVALID PUSH1 0x80 PUSH1 0x40 MSTORE PUSH1 0x4 CALLDATASIZE LT PUSH2 0x91 JUMPI PUSH1 0x0 CALLDATALOAD PUSH1 0xE0 SHR DUP1 PUSH4 0x8DA5CB5B GT PUSH2 0x59 JUMPI DUP1 PUSH4 0x8DA5CB5B EQ PUSH2 0x15A JUMPI DUP1 PUSH4 0x8F32D59B EQ PUSH2 0x185 JUMPI DUP1 PUSH4 0xB8F7F42A EQ PUSH2 0x1B0 JUMPI DUP1 PUSH4 0xDCF7EEFE EQ PUSH2 0x1D9 JUMPI DUP1 PUSH4 0xF2FDE38B EQ PUSH2 0x216 JUMPI PUSH2 0x91 JUMP JUMPDEST DUP1 PUSH4 0x109C1238 EQ PUSH2 0x96 JUMPI DUP1 PUSH4 0x4315399F EQ PUSH2 0xC1 JUMPI DUP1 PUSH4 0x60063CC6 EQ PUSH2 0xDD JUMPI DUP1 PUSH4 0x6F442154 EQ PUSH2 0x106 JUMPI DUP1 PUSH4 0x715018A6 EQ PUSH2 0x143 JUMPI JUMPDEST PUSH1 0x0 DUP1 REVERT JUMPDEST CALLVALUE DUP1 ISZERO PUSH2 0xA2 JUMPI PUSH1 0x0 DUP1 REVERT JUMPDEST POP PUSH2 0xAB PUSH2 0x23F JUMP JUMPDEST PUSH1 0x40 MLOAD PUSH2 0xB8 SWAP2 SWAP1 PUSH2 0x8CD JUMP JUMPDEST PUSH1 0x40 MLOAD DUP1 SWAP2 SUB SWAP1 RETURN JUMPDEST PUSH2 0xDB PUSH1 0x4 DUP1 CALLDATASIZE SUB DUP2 ADD SWAP1 PUSH2 0xD6 SWAP2 SWAP1 PUSH2 0x928 JUMP JUMPDEST PUSH2 0x245 JUMP JUMPDEST STOP JUMPDEST CALLVALUE DUP1 ISZERO PUSH2 0xE9 JUMPI PUSH1 0x0 DUP1 REVERT JUMPDEST POP PUSH2 0x104 PUSH1 0x4 DUP1 CALLDATASIZE SUB DUP2 ADD SWAP1 PUSH2 0xFF SWAP2 SWAP1 PUSH2 0x968 JUMP JUMPDEST PUSH2 0x292 JUMP JUMPDEST STOP JUMPDEST CALLVALUE DUP1 ISZERO PUSH2 0x112 JUMPI PUSH1 0x0 DUP1 REVERT JUMPDEST POP PUSH2 0x12D PUSH1 0x4 DUP1 CALLDATASIZE SUB DUP2 ADD SWAP1 PUSH2 0x128 SWAP2 SWAP1 PUSH2 0x9F3 JUMP JUMPDEST PUSH2 0x2F8 JUMP JUMPDEST PUSH1 0x40 MLOAD PUSH2 0x13A SWAP2 SWAP1 PUSH2 0x8CD JUMP JUMPDEST PUSH1 0x40 MLOAD DUP1 SWAP2 SUB SWAP1 RETURN JUMPDEST CALLVALUE DUP1 ISZERO PUSH2 0x14F JUMPI PUSH1 0x0 DUP1 REVERT JUMPDEST POP PUSH2 0x158 PUSH2 0x341 JUMP JUMPDEST STOP JUMPDEST CALLVALUE DUP1 ISZERO PUSH2 0x166 JUMPI PUSH1 0x0 DUP1 REVERT JUMPDEST POP PUSH2 0x16F PUSH2 0x410 JUMP JUMPDEST PUSH1 0x40 MLOAD PUSH2 0x17C SWAP2 SWAP1 PUSH2 0xA2F JUMP JUMPDEST PUSH1 0x40 MLOAD DUP1 SWAP2 SUB SWAP1 RETURN JUMPDEST CALLVALUE DUP1 ISZERO PUSH2 0x191 JUMPI PUSH1 0x0 DUP1 REVERT JUMPDEST POP PUSH2 0x19A PUSH2 0x439 JUMP JUMPDEST PUSH1 0x40 MLOAD PUSH2 0x1A7 SWAP2 SWAP1 PUSH2 0xA65 JUMP JUMPDEST PUSH1 0x40 MLOAD DUP1 SWAP2 SUB SWAP1 RETURN JUMPDEST CALLVALUE DUP1 ISZERO PUSH2 0x1BC JUMPI PUSH1 0x0 DUP1 REVERT JUMPDEST POP PUSH2 0x1D7 PUSH1 0x4 DUP1 CALLDATASIZE SUB DUP2 ADD SWAP1 PUSH2 0x1D2 SWAP2 SWAP1 PUSH2 0xC9A JUMP JUMPDEST PUSH2 0x490 JUMP JUMPDEST STOP JUMPDEST CALLVALUE DUP1 ISZERO PUSH2 0x1E5 JUMPI PUSH1 0x0 DUP1 REVERT JUMPDEST POP PUSH2 0x200 PUSH1 0x4 DUP1 CALLDATASIZE SUB DUP2 ADD SWAP1 PUSH2 0x1FB SWAP2 SWAP1 PUSH2 0x968 JUMP JUMPDEST PUSH2 0x54D JUMP JUMPDEST PUSH1 0x40 MLOAD PUSH2 0x20D SWAP2 SWAP1 PUSH2 0x8CD JUMP JUMPDEST PUSH1 0x40 MLOAD DUP1 SWAP2 SUB SWAP1 RETURN JUMPDEST CALLVALUE DUP1 ISZERO PUSH2 0x222 JUMPI PUSH1 0x0 DUP1 REVERT JUMPDEST POP PUSH2 0x23D PUSH1 0x4 DUP1 CALLDATASIZE SUB DUP2 ADD SWAP1 PUSH2 0x238 SWAP2 SWAP1 PUSH2 0x9F3 JUMP JUMPDEST PUSH2 0x571 JUMP JUMPDEST STOP JUMPDEST PUSH1 0x1 SLOAD DUP2 JUMP JUMPDEST PUSH1 0x6 SLOAD CALLVALUE EQ PUSH2 0x253 JUMPI PUSH1 0x0 DUP1 REVERT JUMPDEST PUSH1 0x3 DUP1 SLOAD SWAP1 POP DUP2 LT PUSH2 0x264 JUMPI PUSH1 0x0 DUP1 REVERT JUMPDEST DUP1 PUSH1 0x7 DUP4 DUP2 SLOAD DUP2 LT PUSH2 0x279 JUMPI PUSH2 0x278 PUSH2 0xCE3 JUMP JUMPDEST JUMPDEST SWAP1 PUSH1 0x0 MSTORE PUSH1 0x20 PUSH1 0x0 KECCAK256 SWAP1 PUSH1 0x3 MUL ADD PUSH1 0x1 ADD DUP2 SWAP1 SSTORE POP POP POP JUMP JUMPDEST PUSH1 0x0 PUSH2 0x2A6 PUSH2 0x29F PUSH2 0x58E JUMP JUMPDEST PUSH1 0x0 PUSH2 0x5AB JUMP JUMPDEST SWAP1 POP PUSH1 0x7 DUP3 DUP2 SLOAD DUP2 LT PUSH2 0x2BC JUMPI PUSH2 0x2BB PUSH2 0xCE3 JUMP JUMPDEST JUMPDEST SWAP1 PUSH1 0x0 MSTORE PUSH1 0x20 PUSH1 0x0 KECCAK256 SWAP1 PUSH1 0x3 MUL ADD PUSH1 0x2 ADD DUP2 SWAP1 DUP1 PUSH1 0x1 DUP2 SLOAD ADD DUP1 DUP3 SSTORE DUP1 SWAP2 POP POP PUSH1 0x1 SWAP1 SUB SWAP1 PUSH1 0x0 MSTORE PUSH1 0x20 PUSH1 0x0 KECCAK256 ADD PUSH1 0x0 SWAP1 SWAP2 SWAP1 SWAP2 SWAP1 SWAP2 POP SSTORE POP POP JUMP JUMPDEST PUSH1 0x0 PUSH1 0x8 PUSH1 0x0 DUP4 PUSH20 0xFFFFFFFFFFFFFFFFFFFFFFFFFFFFFFFFFFFFFFFF AND PUSH20 0xFFFFFFFFFFFFFFFFFFFFFFFFFFFFFFFFFFFFFFFF AND DUP2 MSTORE PUSH1 0x20 ADD SWAP1 DUP2 MSTORE PUSH1 0x20 ADD PUSH1 0x0 KECCAK256 SLOAD SWAP1 POP SWAP2 SWAP1 POP JUMP JUMPDEST PUSH2 0x349 PUSH2 0x439 JUMP JUMPDEST PUSH2 0x352 JUMPI PUSH1 0x0 DUP1 REVERT JUMPDEST PUSH1 0x0 PUSH20 0xFFFFFFFFFFFFFFFFFFFFFFFFFFFFFFFFFFFFFFFF AND PUSH1 0x0 DUP1 SLOAD SWAP1 PUSH2 0x100 EXP SWAP1 DIV PUSH20 0xFFFFFFFFFFFFFFFFFFFFFFFFFFFFFFFFFFFFFFFF AND PUSH20 0xFFFFFFFFFFFFFFFFFFFFFFFFFFFFFFFFFFFFFFFF AND PUSH32 0x8BE0079C531659141344CD1FD0A4F28419497F9722A3DAAFE3B4186F6B6457E0 PUSH1 0x40 MLOAD PUSH1 0x40 MLOAD DUP1 SWAP2 SUB SWAP1 LOG3 PUSH1 0x0 DUP1 PUSH1 0x0 PUSH2 0x100 EXP DUP2 SLOAD DUP2 PUSH20 0xFFFFFFFFFFFFFFFFFFFFFFFFFFFFFFFFFFFFFFFF MUL NOT AND SWAP1 DUP4 PUSH20 0xFFFFFFFFFFFFFFFFFFFFFFFFFFFFFFFFFFFFFFFF AND MUL OR SWAP1 SSTORE POP JUMP JUMPDEST PUSH1 0x0 DUP1 PUSH1 0x0 SWAP1 SLOAD SWAP1 PUSH2 0x100 EXP SWAP1 DIV PUSH20 0xFFFFFFFFFFFFFFFFFFFFFFFFFFFFFFFFFFFFFFFF AND SWAP1 POP SWAP1 JUMP JUMPDEST PUSH1 0x0 DUP1 PUSH1 0x0 SWAP1 SLOAD SWAP1 PUSH2 0x100 EXP SWAP1 DIV PUSH20 0xFFFFFFFFFFFFFFFFFFFFFFFFFFFFFFFFFFFFFFFF AND PUSH20 0xFFFFFFFFFFFFFFFFFFFFFFFFFFFFFFFFFFFFFFFF AND CALLER PUSH20 0xFFFFFFFFFFFFFFFFFFFFFFFFFFFFFFFFFFFFFFFF AND EQ SWAP1 POP SWAP1 JUMP JUMPDEST PUSH2 0x498 PUSH2 0x439 JUMP JUMPDEST PUSH2 0x4A1 JUMPI PUSH1 0x0 DUP1 REVERT JUMPDEST PUSH1 0x3 DUP1 DUP1 SLOAD SWAP1 POP SWAP1 DUP1 PUSH1 0x1 DUP2 SLOAD ADD DUP1 DUP3 SSTORE DUP1 SWAP2 POP POP PUSH1 0x1 SWAP1 SUB SWAP1 PUSH1 0x0 MSTORE PUSH1 0x20 PUSH1 0x0 KECCAK256 ADD PUSH1 0x0 SWAP1 SWAP2 SWAP1 SWAP2 SWAP1 SWAP2 POP SSTORE DUP1 PUSH1 0x4 PUSH1 0x0 PUSH1 0x1 PUSH1 0x3 DUP1 SLOAD SWAP1 POP PUSH2 0x4E5 SWAP2 SWAP1 PUSH2 0xD41 JUMP JUMPDEST DUP2 MSTORE PUSH1 0x20 ADD SWAP1 DUP2 MSTORE PUSH1 0x20 ADD PUSH1 0x0 KECCAK256 SWAP1 PUSH1 0x5 PUSH2 0x501 SWAP3 SWAP2 SWAP1 PUSH2 0x7DA JUMP JUMPDEST POP PUSH32 0xE1C7C98CDEDED3A25C1C7ADA5B85013B2C7C9879F1678129A413EA685D0FCC78 PUSH1 0x1 PUSH1 0x3 DUP1 SLOAD SWAP1 POP PUSH2 0x535 SWAP2 SWAP1 PUSH2 0xD41 JUMP JUMPDEST PUSH1 0x40 MLOAD PUSH2 0x542 SWAP2 SWAP1 PUSH2 0x8CD JUMP JUMPDEST PUSH1 0x40 MLOAD DUP1 SWAP2 SUB SWAP1 LOG1 POP JUMP JUMPDEST PUSH1 0x3 DUP2 DUP2 SLOAD DUP2 LT PUSH2 0x55D JUMPI PUSH1 0x0 DUP1 REVERT JUMPDEST SWAP1 PUSH1 0x0 MSTORE PUSH1 0x20 PUSH1 0x0 KECCAK256 ADD PUSH1 0x0 SWAP2 POP SWAP1 POP SLOAD DUP2 JUMP JUMPDEST PUSH2 0x579 PUSH2 0x439 JUMP JUMPDEST PUSH2 0x582 JUMPI PUSH1 0x0 DUP1 REVERT JUMPDEST PUSH2 0x58B DUP2 PUSH2 0x686 JUMP JUMPDEST POP JUMP JUMPDEST PUSH1 0x0 PUSH2 0x5A6 PUSH1 0x1 DUP1 SLOAD PUSH2 0x5A1 SWAP2 SWAP1 PUSH2 0xD41 JUMP JUMPDEST PUSH2 0x77C JUMP JUMPDEST SWAP1 POP SWAP1 JUMP JUMPDEST PUSH1 0x0 PUSH1 0x5 PUSH1 0x40 MLOAD DUP1 PUSH1 0x60 ADD PUSH1 0x40 MSTORE DUP1 CALLER PUSH20 0xFFFFFFFFFFFFFFFFFFFFFFFFFFFFFFFFFFFFFFFF AND DUP2 MSTORE PUSH1 0x20 ADD DUP6 DUP2 MSTORE PUSH1 0x20 ADD DUP5 DUP2 MSTORE POP SWAP1 DUP1 PUSH1 0x1 DUP2 SLOAD ADD DUP1 DUP3 SSTORE DUP1 SWAP2 POP POP PUSH1 0x1 SWAP1 SUB SWAP1 PUSH1 0x0 MSTORE PUSH1 0x20 PUSH1 0x0 KECCAK256 SWAP1 PUSH1 0x3 MUL ADD PUSH1 0x0 SWAP1 SWAP2 SWAP1 SWAP2 SWAP1 SWAP2 POP PUSH1 0x0 DUP3 ADD MLOAD DUP2 PUSH1 0x0 ADD PUSH1 0x0 PUSH2 0x100 EXP DUP2 SLOAD DUP2 PUSH20 0xFFFFFFFFFFFFFFFFFFFFFFFFFFFFFFFFFFFFFFFF MUL NOT AND SWAP1 DUP4 PUSH20 0xFFFFFFFFFFFFFFFFFFFFFFFFFFFFFFFFFFFFFFFF AND MUL OR SWAP1 SSTORE POP PUSH1 0x20 DUP3 ADD MLOAD DUP2 PUSH1 0x1 ADD SSTORE PUSH1 0x40 DUP3 ADD MLOAD DUP2 PUSH1 0x2 ADD SSTORE POP POP PUSH1 0x0 PUSH1 0x1 PUSH1 0x5 DUP1 SLOAD SWAP1 POP PUSH2 0x67A SWAP2 SWAP1 PUSH2 0xD41 JUMP JUMPDEST SWAP1 POP DUP1 SWAP2 POP POP SWAP3 SWAP2 POP POP JUMP JUMPDEST PUSH1 0x0 PUSH20 0xFFFFFFFFFFFFFFFFFFFFFFFFFFFFFFFFFFFFFFFF AND DUP2 PUSH20 0xFFFFFFFFFFFFFFFFFFFFFFFFFFFFFFFFFFFFFFFF AND SUB PUSH2 0x6BF JUMPI PUSH1 0x0 DUP1 REVERT JUMPDEST DUP1 PUSH20 0xFFFFFFFFFFFFFFFFFFFFFFFFFFFFFFFFFFFFFFFF AND PUSH1 0x0 DUP1 SLOAD SWAP1 PUSH2 0x100 EXP SWAP1 DIV PUSH20 0xFFFFFFFFFFFFFFFFFFFFFFFFFFFFFFFFFFFFFFFF AND PUSH20 0xFFFFFFFFFFFFFFFFFFFFFFFFFFFFFFFFFFFFFFFF AND PUSH32 0x8BE0079C531659141344CD1FD0A4F28419497F9722A3DAAFE3B4186F6B6457E0 PUSH1 0x40 MLOAD PUSH1 0x40 MLOAD DUP1 SWAP2 SUB SWAP1 LOG3 DUP1 PUSH1 0x0 DUP1 PUSH2 0x100 EXP DUP2 SLOAD DUP2 PUSH20 0xFFFFFFFFFFFFFFFFFFFFFFFFFFFFFFFFFFFFFFFF MUL NOT AND SWAP1 DUP4 PUSH20 0xFFFFFFFFFFFFFFFFFFFFFFFFFFFFFFFFFFFFFFFF AND MUL OR SWAP1 SSTORE POP POP JUMP JUMPDEST PUSH1 0x0 PUSH1 0x2 PUSH1 0x0 DUP2 SLOAD DUP1 SWAP3 SWAP2 SWAP1 PUSH2 0x791 SWAP1 PUSH2 0xD75 JUMP JUMPDEST SWAP2 SWAP1 POP SSTORE POP DUP2 TIMESTAMP PREVRANDAO CALLER PUSH1 0x2 SLOAD PUSH1 0x40 MLOAD PUSH1 0x20 ADD PUSH2 0x7B0 SWAP5 SWAP4 SWAP3 SWAP2 SWAP1 PUSH2 0xE26 JUMP JUMPDEST PUSH1 0x40 MLOAD PUSH1 0x20 DUP2 DUP4 SUB SUB DUP2 MSTORE SWAP1 PUSH1 0x40 MSTORE DUP1 MLOAD SWAP1 PUSH1 0x20 ADD KECCAK256 PUSH1 0x0 SHR PUSH2 0x7D3 SWAP2 SWAP1 PUSH2 0xEA3 JUMP JUMPDEST SWAP1 POP SWAP2 SWAP1 POP JUMP JUMPDEST DUP3 DUP1 SLOAD DUP3 DUP3 SSTORE SWAP1 PUSH1 0x0 MSTORE PUSH1 0x20 PUSH1 0x0 KECCAK256 SWAP1 DUP2 ADD SWAP3 DUP3 ISZERO PUSH2 0x822 JUMPI SWAP2 PUSH1 0x20 MUL DUP3 ADD JUMPDEST DUP3 DUP2 GT ISZERO PUSH2 0x821 JUMPI DUP3 MLOAD DUP3 SWAP1 DUP2 PUSH2 0x811 SWAP2 SWAP1 PUSH2 0x10EB JUMP JUMPDEST POP SWAP2 PUSH1 0x20 ADD SWAP2 SWAP1 PUSH1 0x1 ADD SWAP1 PUSH2 0x7FA JUMP JUMPDEST JUMPDEST POP SWAP1 POP PUSH2 0x82F SWAP2 SWAP1 PUSH2 0x833 JUMP JUMPDEST POP SWAP1 JUMP JUMPDEST JUMPDEST DUP1 DUP3 GT ISZERO PUSH2 0x853 JUMPI PUSH1 0x0 DUP2 DUP2 PUSH2 0x84A SWAP2 SWAP1 PUSH2 0x857 JUMP JUMPDEST POP PUSH1 0x1 ADD PUSH2 0x834 JUMP JUMPDEST POP SWAP1 JUMP JUMPDEST POP DUP1 SLOAD PUSH2 0x863 SWAP1 PUSH2 0xF0E JUMP JUMPDEST PUSH1 0x0 DUP3 SSTORE DUP1 PUSH1 0x1F LT PUSH2 0x875 JUMPI POP PUSH2 0x894 JUMP JUMPDEST PUSH1 0x1F ADD PUSH1 0x20 SWAP1 DIV SWAP1 PUSH1 0x0 MSTORE PUSH1 0x20 PUSH1 0x0 KECCAK256 SWAP1 DUP2 ADD SWAP1 PUSH2 0x893 SWAP2 SWAP1 PUSH2 0x897 JUMP JUMPDEST JUMPDEST POP JUMP JUMPDEST JUMPDEST DUP1 DUP3 GT ISZERO PUSH2 0x8B0 JUMPI PUSH1 0x0 DUP2 PUSH1 0x0 SWAP1 SSTORE POP PUSH1 0x1 ADD PUSH2 0x898 JUMP JUMPDEST POP SWAP1 JUMP JUMPDEST PUSH1 0x0 DUP2 SWAP1 POP SWAP2 SWAP1 POP JUMP JUMPDEST PUSH2 0x8C7 DUP2 PUSH2 0x8B4 JUMP JUMPDEST DUP3 MSTORE POP POP JUMP JUMPDEST PUSH1 0x0 PUSH1 0x20 DUP3 ADD SWAP1 POP PUSH2 0x8E2 PUSH1 0x0 DUP4 ADD DUP5 PUSH2 0x8BE JUMP JUMPDEST SWAP3 SWAP2 POP POP JUMP JUMPDEST PUSH1 0x0 PUSH1 0x40 MLOAD SWAP1 POP SWAP1 JUMP JUMPDEST PUSH1 0x0 DUP1 REVERT JUMPDEST PUSH1 0x0 DUP1 REVERT JUMPDEST PUSH2 0x905 DUP2 PUSH2 0x8B4 JUMP JUMPDEST DUP2 EQ PUSH2 0x910 JUMPI PUSH1 0x0 DUP1 REVERT JUMPDEST POP JUMP JUMPDEST PUSH1 0x0 DUP2 CALLDATALOAD SWAP1 POP PUSH2 0x922 DUP2 PUSH2 0x8FC JUMP JUMPDEST SWAP3 SWAP2 POP POP JUMP JUMPDEST PUSH1 0x0 DUP1 PUSH1 0x40 DUP4 DUP6 SUB SLT ISZERO PUSH2 0x93F JUMPI PUSH2 0x93E PUSH2 0x8F2 JUMP JUMPDEST JUMPDEST PUSH1 0x0 PUSH2 0x94D DUP6 DUP3 DUP7 ADD PUSH2 0x913 JUMP JUMPDEST SWAP3 POP POP PUSH1 0x20 PUSH2 0x95E DUP6 DUP3 DUP7 ADD PUSH2 0x913 JUMP JUMPDEST SWAP2 POP POP SWAP3 POP SWAP3 SWAP1 POP JUMP JUMPDEST PUSH1 0x0 PUSH1 0x20 DUP3 DUP5 SUB SLT ISZERO PUSH2 0x97E JUMPI PUSH2 0x97D PUSH2 0x8F2 JUMP JUMPDEST JUMPDEST PUSH1 0x0 PUSH2 0x98C DUP5 DUP3 DUP6 ADD PUSH2 0x913 JUMP JUMPDEST SWAP2 POP POP SWAP3 SWAP2 POP POP JUMP JUMPDEST PUSH1 0x0 PUSH20 0xFFFFFFFFFFFFFFFFFFFFFFFFFFFFFFFFFFFFFFFF DUP3 AND SWAP1 POP SWAP2 SWAP1 POP JUMP JUMPDEST PUSH1 0x0 PUSH2 0x9C0 DUP3 PUSH2 0x995 JUMP JUMPDEST SWAP1 POP SWAP2 SWAP1 POP JUMP JUMPDEST PUSH2 0x9D0 DUP2 PUSH2 0x9B5 JUMP JUMPDEST DUP2 EQ PUSH2 0x9DB JUMPI PUSH1 0x0 DUP1 REVERT JUMPDEST POP JUMP JUMPDEST PUSH1 0x0 DUP2 CALLDATALOAD SWAP1 POP PUSH2 0x9ED DUP2 PUSH2 0x9C7 JUMP JUMPDEST SWAP3 SWAP2 POP POP JUMP JUMPDEST PUSH1 0x0 PUSH1 0x20 DUP3 DUP5 SUB SLT ISZERO PUSH2 0xA09 JUMPI PUSH2 0xA08 PUSH2 0x8F2 JUMP JUMPDEST JUMPDEST PUSH1 0x0 PUSH2 0xA17 DUP5 DUP3 DUP6 ADD PUSH2 0x9DE JUMP JUMPDEST SWAP2 POP POP SWAP3 SWAP2 POP POP JUMP JUMPDEST PUSH2 0xA29 DUP2 PUSH2 0x9B5 JUMP JUMPDEST DUP3 MSTORE POP POP JUMP JUMPDEST PUSH1 0x0 PUSH1 0x20 DUP3 ADD SWAP1 POP PUSH2 0xA44 PUSH1 0x0 DUP4 ADD DUP5 PUSH2 0xA20 JUMP JUMPDEST SWAP3 SWAP2 POP POP JUMP JUMPDEST PUSH1 0x0 DUP2 ISZERO ISZERO SWAP1 POP SWAP2 SWAP1 POP JUMP JUMPDEST PUSH2 0xA5F DUP2 PUSH2 0xA4A JUMP JUMPDEST DUP3 MSTORE POP POP JUMP JUMPDEST PUSH1 0x0 PUSH1 0x20 DUP3 ADD SWAP1 POP PUSH2 0xA7A PUSH1 0x0 DUP4 ADD DUP5 PUSH2 0xA56 JUMP JUMPDEST SWAP3 SWAP2 POP POP JUMP JUMPDEST PUSH1 0x0 DUP1 REVERT JUMPDEST PUSH1 0x0 PUSH1 0x1F NOT PUSH1 0x1F DUP4 ADD AND SWAP1 POP SWAP2 SWAP1 POP JUMP JUMPDEST PUSH32 0x4E487B7100000000000000000000000000000000000000000000000000000000 PUSH1 0x0 MSTORE PUSH1 0x41 PUSH1 0x4 MSTORE PUSH1 0x24 PUSH1 0x0 REVERT JUMPDEST PUSH2 0xACE DUP3 PUSH2 0xA85 JUMP JUMPDEST DUP2 ADD DUP2 DUP2 LT PUSH8 0xFFFFFFFFFFFFFFFF DUP3 GT OR ISZERO PUSH2 0xAED JUMPI PUSH2 0xAEC PUSH2 0xA96 JUMP JUMPDEST JUMPDEST DUP1 PUSH1 0x40 MSTORE POP POP POP JUMP JUMPDEST PUSH1 0x0 PUSH2 0xB00 PUSH2 0x8E8 JUMP JUMPDEST SWAP1 POP PUSH2 0xB0C DUP3 DUP3 PUSH2 0xAC5 JUMP JUMPDEST SWAP2 SWAP1 POP JUMP JUMPDEST PUSH1 0x0 PUSH8 0xFFFFFFFFFFFFFFFF DUP3 GT ISZERO PUSH2 0xB2C JUMPI PUSH2 0xB2B PUSH2 0xA96 JUMP JUMPDEST JUMPDEST PUSH1 0x20 DUP3 MUL SWAP1 POP SWAP2 SWAP1 POP JUMP JUMPDEST PUSH1 0x0 DUP1 REVERT JUMPDEST PUSH1 0x0 DUP1 REVERT JUMPDEST PUSH1 0x0 PUSH8 0xFFFFFFFFFFFFFFFF DUP3 GT ISZERO PUSH2 0xB5C JUMPI PUSH2 0xB5B PUSH2 0xA96 JUMP JUMPDEST JUMPDEST PUSH2 0xB65 DUP3 PUSH2 0xA85 JUMP JUMPDEST SWAP1 POP PUSH1 0x20 DUP2 ADD SWAP1 POP SWAP2 SWAP1 POP JUMP JUMPDEST DUP3 DUP2 DUP4 CALLDATACOPY PUSH1 0x0 DUP4 DUP4 ADD MSTORE POP POP POP JUMP JUMPDEST PUSH1 0x0 PUSH2 0xB94 PUSH2 0xB8F DUP5 PUSH2 0xB41 JUMP JUMPDEST PUSH2 0xAF6 JUMP JUMPDEST SWAP1 POP DUP3 DUP2 MSTORE PUSH1 0x20 DUP2 ADD DUP5 DUP5 DUP5 ADD GT ISZERO PUSH2 0xBB0 JUMPI PUSH2 0xBAF PUSH2 0xB3C JUMP JUMPDEST JUMPDEST PUSH2 0xBBB DUP5 DUP3 DUP6 PUSH2 0xB72 JUMP JUMPDEST POP SWAP4 SWAP3 POP POP POP JUMP JUMPDEST PUSH1 0x0 DUP3 PUSH1 0x1F DUP4 ADD SLT PUSH2 0xBD8 JUMPI PUSH2 0xBD7 PUSH2 0xA80 JUMP JUMPDEST JUMPDEST DUP2 CALLDATALOAD PUSH2 0xBE8 DUP5 DUP3 PUSH1 0x20 DUP7 ADD PUSH2 0xB81 JUMP JUMPDEST SWAP2 POP POP SWAP3 SWAP2 POP POP JUMP JUMPDEST PUSH1 0x0 PUSH2 0xC04 PUSH2 0xBFF DUP5 PUSH2 0xB11 JUMP JUMPDEST PUSH2 0xAF6 JUMP JUMPDEST SWAP1 POP DUP1 PUSH1 0x20 DUP5 MUL DUP4 ADD DUP6 DUP2 GT ISZERO PUSH2 0xC1E JUMPI PUSH2 0xC1D PUSH2 0xB37 JUMP JUMPDEST JUMPDEST DUP4 JUMPDEST DUP2 DUP2 LT ISZERO PUSH2 0xC65 JUMPI DUP1 CALLDATALOAD PUSH8 0xFFFFFFFFFFFFFFFF DUP2 GT ISZERO PUSH2 0xC43 JUMPI PUSH2 0xC42 PUSH2 0xA80 JUMP JUMPDEST JUMPDEST DUP1 DUP7 ADD PUSH2 0xC50 DUP10 DUP3 PUSH2 0xBC3 JUMP JUMPDEST DUP6 MSTORE PUSH1 0x20 DUP6 ADD SWAP5 POP POP POP PUSH1 0x20 DUP2 ADD SWAP1 POP PUSH2 0xC20 JUMP JUMPDEST POP POP POP SWAP4 SWAP3 POP POP POP JUMP JUMPDEST PUSH1 0x0 DUP3 PUSH1 0x1F DUP4 ADD SLT PUSH2 0xC84 JUMPI PUSH2 0xC83 PUSH2 0xA80 JUMP JUMPDEST JUMPDEST PUSH1 0x5 PUSH2 0xC91 DUP5 DUP3 DUP6 PUSH2 0xBF1 JUMP JUMPDEST SWAP2 POP POP SWAP3 SWAP2 POP POP JUMP JUMPDEST PUSH1 0x0 PUSH1 0x20 DUP3 DUP5 SUB SLT ISZERO PUSH2 0xCB0 JUMPI PUSH2 0xCAF PUSH2 0x8F2 JUMP JUMPDEST JUMPDEST PUSH1 0x0 DUP3 ADD CALLDATALOAD PUSH8 0xFFFFFFFFFFFFFFFF DUP2 GT ISZERO PUSH2 0xCCE JUMPI PUSH2 0xCCD PUSH2 0x8F7 JUMP JUMPDEST JUMPDEST PUSH2 0xCDA DUP5 DUP3 DUP6 ADD PUSH2 0xC6F JUMP JUMPDEST SWAP2 POP POP SWAP3 SWAP2 POP POP JUMP JUMPDEST PUSH32 0x4E487B7100000000000000000000000000000000000000000000000000000000 PUSH1 0x0 MSTORE PUSH1 0x32 PUSH1 0x4 MSTORE PUSH1 0x24 PUSH1 0x0 REVERT JUMPDEST PUSH32 0x4E487B7100000000000000000000000000000000000000000000000000000000 PUSH1 0x0 MSTORE PUSH1 0x11 PUSH1 0x4 MSTORE PUSH1 0x24 PUSH1 0x0 REVERT JUMPDEST PUSH1 0x0 PUSH2 0xD4C DUP3 PUSH2 0x8B4 JUMP JUMPDEST SWAP2 POP PUSH2 0xD57 DUP4 PUSH2 0x8B4 JUMP JUMPDEST SWAP3 POP DUP3 DUP3 SUB SWAP1 POP DUP2 DUP2 GT ISZERO PUSH2 0xD6F JUMPI PUSH2 0xD6E PUSH2 0xD12 JUMP JUMPDEST JUMPDEST SWAP3 SWAP2 POP POP JUMP JUMPDEST PUSH1 0x0 PUSH2 0xD80 DUP3 PUSH2 0x8B4 JUMP JUMPDEST SWAP2 POP PUSH32 0xFFFFFFFFFFFFFFFFFFFFFFFFFFFFFFFFFFFFFFFFFFFFFFFFFFFFFFFFFFFFFFFF DUP3 SUB PUSH2 0xDB2 JUMPI PUSH2 0xDB1 PUSH2 0xD12 JUMP JUMPDEST JUMPDEST PUSH1 0x1 DUP3 ADD SWAP1 POP SWAP2 SWAP1 POP JUMP JUMPDEST PUSH1 0x0 DUP2 SWAP1 POP SWAP2 SWAP1 POP JUMP JUMPDEST PUSH2 0xDD8 PUSH2 0xDD3 DUP3 PUSH2 0x8B4 JUMP JUMPDEST PUSH2 0xDBD JUMP JUMPDEST DUP3 MSTORE POP POP JUMP JUMPDEST PUSH1 0x0 DUP2 PUSH1 0x60 SHL SWAP1 POP SWAP2 SWAP1 POP JUMP JUMPDEST PUSH1 0x0 PUSH2 0xDF6 DUP3 PUSH2 0xDDE JUMP JUMPDEST SWAP1 POP SWAP2 SWAP1 POP JUMP JUMPDEST PUSH1 0x0 PUSH2 0xE08 DUP3 PUSH2 0xDEB JUMP JUMPDEST SWAP1 POP SWAP2 SWAP1 POP JUMP JUMPDEST PUSH2 0xE20 PUSH2 0xE1B DUP3 PUSH2 0x9B5 JUMP JUMPDEST PUSH2 0xDFD JUMP JUMPDEST DUP3 MSTORE POP POP JUMP JUMPDEST PUSH1 0x0 PUSH2 0xE32 DUP3 DUP8 PUSH2 0xDC7 JUMP JUMPDEST PUSH1 0x20 DUP3 ADD SWAP2 POP PUSH2 0xE42 DUP3 DUP7 PUSH2 0xDC7 JUMP JUMPDEST PUSH1 0x20 DUP3 ADD SWAP2 POP PUSH2 0xE52 DUP3 DUP6 PUSH2 0xE0F JUMP JUMPDEST PUSH1 0x14 DUP3 ADD SWAP2 POP PUSH2 0xE62 DUP3 DUP5 PUSH2 0xDC7 JUMP JUMPDEST PUSH1 0x20 DUP3 ADD SWAP2 POP DUP2 SWAP1 POP SWAP6 SWAP5 POP POP POP POP POP JUMP JUMPDEST PUSH32 0x4E487B7100000000000000000000000000000000000000000000000000000000 PUSH1 0x0 MSTORE PUSH1 0x12 PUSH1 0x4 MSTORE PUSH1 0x24 PUSH1 0x0 REVERT JUMPDEST PUSH1 0x0 PUSH2 0xEAE DUP3 PUSH2 0x8B4 JUMP JUMPDEST SWAP2 POP PUSH2 0xEB9 DUP4 PUSH2 0x8B4 JUMP JUMPDEST SWAP3 POP DUP3 PUSH2 0xEC9 JUMPI PUSH2 0xEC8 PUSH2 0xE74 JUMP JUMPDEST JUMPDEST DUP3 DUP3 MOD SWAP1 POP SWAP3 SWAP2 POP POP JUMP JUMPDEST PUSH1 0x0 DUP2 MLOAD SWAP1 POP SWAP2 SWAP1 POP JUMP JUMPDEST PUSH32 0x4E487B7100000000000000000000000000000000000000000000000000000000 PUSH1 0x0 MSTORE PUSH1 0x22 PUSH1 0x4 MSTORE PUSH1 0x24 PUSH1 0x0 REVERT JUMPDEST PUSH1 0x0 PUSH1 0x2 DUP3 DIV SWAP1 POP PUSH1 0x1 DUP3 AND DUP1 PUSH2 0xF26 JUMPI PUSH1 0x7F DUP3 AND SWAP2 POP JUMPDEST PUSH1 0x20 DUP3 LT DUP2 SUB PUSH2 0xF39 JUMPI PUSH2 0xF38 PUSH2 0xEDF JUMP JUMPDEST JUMPDEST POP SWAP2 SWAP1 POP JUMP JUMPDEST PUSH1 0x0 DUP2 SWAP1 POP DUP2 PUSH1 0x0 MSTORE PUSH1 0x20 PUSH1 0x0 KECCAK256 SWAP1 POP SWAP2 SWAP1 POP JUMP JUMPDEST PUSH1 0x0 PUSH1 0x20 PUSH1 0x1F DUP4 ADD DIV SWAP1 POP SWAP2 SWAP1 POP JUMP JUMPDEST PUSH1 0x0 DUP3 DUP3 SHL SWAP1 POP SWAP3 SWAP2 POP POP JUMP JUMPDEST PUSH1 0x0 PUSH1 0x8 DUP4 MUL PUSH2 0xFA1 PUSH32 0xFFFFFFFFFFFFFFFFFFFFFFFFFFFFFFFFFFFFFFFFFFFFFFFFFFFFFFFFFFFFFFFF DUP3 PUSH2 0xF64 JUMP JUMPDEST PUSH2 0xFAB DUP7 DUP4 PUSH2 0xF64 JUMP JUMPDEST SWAP6 POP DUP1 NOT DUP5 AND SWAP4 POP DUP1 DUP7 AND DUP5 OR SWAP3 POP POP POP SWAP4 SWAP3 POP POP POP JUMP JUMPDEST PUSH1 0x0 DUP2 SWAP1 POP SWAP2 SWAP1 POP JUMP JUMPDEST PUSH1 0x0 PUSH2 0xFE8 PUSH2 0xFE3 PUSH2 0xFDE DUP5 PUSH2 0x8B4 JUMP JUMPDEST PUSH2 0xFC3 JUMP JUMPDEST PUSH2 0x8B4 JUMP JUMPDEST SWAP1 POP SWAP2 SWAP1 POP JUMP JUMPDEST PUSH1 0x0 DUP2 SWAP1 POP SWAP2 SWAP1 POP JUMP JUMPDEST PUSH2 0x1002 DUP4 PUSH2 0xFCD JUMP JUMPDEST PUSH2 0x1016 PUSH2 0x100E DUP3 PUSH2 0xFEF JUMP JUMPDEST DUP5 DUP5 SLOAD PUSH2 0xF71 JUMP JUMPDEST DUP3 SSTORE POP POP POP POP JUMP JUMPDEST PUSH1 0x0 SWAP1 JUMP JUMPDEST PUSH2 0x102B PUSH2 0x101E JUMP JUMPDEST PUSH2 0x1036 DUP2 DUP5 DUP5 PUSH2 0xFF9 JUMP JUMPDEST POP POP POP JUMP JUMPDEST JUMPDEST DUP2 DUP2 LT ISZERO PUSH2 0x105A JUMPI PUSH2 0x104F PUSH1 0x0 DUP3 PUSH2 0x1023 JUMP JUMPDEST PUSH1 0x1 DUP2 ADD SWAP1 POP PUSH2 0x103C JUMP JUMPDEST POP POP JUMP JUMPDEST PUSH1 0x1F DUP3 GT ISZERO PUSH2 0x109F JUMPI PUSH2 0x1070 DUP2 PUSH2 0xF3F JUMP JUMPDEST PUSH2 0x1079 DUP5 PUSH2 0xF54 JUMP JUMPDEST DUP2 ADD PUSH1 0x20 DUP6 LT ISZERO PUSH2 0x1088 JUMPI DUP2 SWAP1 POP JUMPDEST PUSH2 0x109C PUSH2 0x1094 DUP6 PUSH2 0xF54 JUMP JUMPDEST DUP4 ADD DUP3 PUSH2 0x103B JUMP JUMPDEST POP POP JUMPDEST POP POP POP JUMP JUMPDEST PUSH1 0x0 DUP3 DUP3 SHR SWAP1 POP SWAP3 SWAP2 POP POP JUMP JUMPDEST PUSH1 0x0 PUSH2 0x10C2 PUSH1 0x0 NOT DUP5 PUSH1 0x8 MUL PUSH2 0x10A4 JUMP JUMPDEST NOT DUP1 DUP4 AND SWAP2 POP POP SWAP3 SWAP2 POP POP JUMP JUMPDEST PUSH1 0x0 PUSH2 0x10DB DUP4 DUP4 PUSH2 0x10B1 JUMP JUMPDEST SWAP2 POP DUP3 PUSH1 0x2 MUL DUP3 OR SWAP1 POP SWAP3 SWAP2 POP POP JUMP JUMPDEST PUSH2 0x10F4 DUP3 PUSH2 0xED4 JUMP JUMPDEST PUSH8 0xFFFFFFFFFFFFFFFF DUP2 GT ISZERO PUSH2 0x110D JUMPI PUSH2 0x110C PUSH2 0xA96 JUMP JUMPDEST JUMPDEST PUSH2 0x1117 DUP3 SLOAD PUSH2 0xF0E JUMP JUMPDEST PUSH2 0x1122 DUP3 DUP3 DUP6 PUSH2 0x105E JUMP JUMPDEST PUSH1 0x0 PUSH1 0x20 SWAP1 POP PUSH1 0x1F DUP4 GT PUSH1 0x1 DUP2 EQ PUSH2 0x1155 JUMPI PUSH1 0x0 DUP5 ISZERO PUSH2 0x1143 JUMPI DUP3 DUP8 ADD MLOAD SWAP1 POP JUMPDEST PUSH2 0x114D DUP6 DUP3 PUSH2 0x10CF JUMP JUMPDEST DUP7 SSTORE POP PUSH2 0x11B5 JUMP JUMPDEST PUSH1 0x1F NOT DUP5 AND PUSH2 0x1163 DUP7 PUSH2 0xF3F JUMP JUMPDEST PUSH1 0x0 JUMPDEST DUP3 DUP2 LT ISZERO PUSH2 0x118B JUMPI DUP5 DUP10 ADD MLOAD DUP3 SSTORE PUSH1 0x1 DUP3 ADD SWAP2 POP PUSH1 0x20 DUP6 ADD SWAP5 POP PUSH1 0x20 DUP2 ADD SWAP1 POP PUSH2 0x1166 JUMP JUMPDEST DUP7 DUP4 LT ISZERO PUSH2 0x11A8 JUMPI DUP5 DUP10 ADD MLOAD PUSH2 0x11A4 PUSH1 0x1F DUP10 AND DUP3 PUSH2 0x10B1 JUMP JUMPDEST DUP4 SSTORE POP JUMPDEST PUSH1 0x1 PUSH1 0x2 DUP9 MUL ADD DUP9 SSTORE POP POP POP JUMPDEST POP POP POP POP POP POP JUMP INVALID LOG2 PUSH5 0x6970667358 0x22 SLT KECCAK256 MOD SELFDESTRUCT PUSH26 0x2DBE04298E7DC183CDDA561C89648D363512979F49B32234A126 0xDD RETURNDATASIZE 0x26 PUSH5 0x736F6C6343 STOP ADDMOD SLT STOP CALLER "
				},
				"gasEstimates": {
					"creation": {
						"codeDepositCost": "919000",
						"executionCost": "infinite",
						"totalCost": "infinite"
					},
					"external": {
						"_addItem(uint256)": "infinite",
						"addPalette(string[5])": "infinite",
						"changeColorPalette(uint256,uint256)": "infinite",
						"colorAmountPerPalette()": "2430",
						"getOwnerByAddress(address)": "2908",
						"isOwner()": "2518",
						"owner()": "2522",
						"palettes(uint256)": "infinite",
						"renounceOwnership()": "30383",
						"transferOwnership(address)": "30757"
					},
					"internal": {
						"_createDonor(string memory)": "infinite"
					}
				},
				"methodIdentifiers": {
					"_addItem(uint256)": "60063cc6",
					"addPalette(string[5])": "b8f7f42a",
					"changeColorPalette(uint256,uint256)": "4315399f",
					"colorAmountPerPalette()": "109c1238",
					"getOwnerByAddress(address)": "6f442154",
					"isOwner()": "8f32d59b",
					"owner()": "8da5cb5b",
					"palettes(uint256)": "dcf7eefe",
					"renounceOwnership()": "715018a6",
					"transferOwnership(address)": "f2fde38b"
				}
			},
			"storageLayout": {
				"storage": [
					{
						"astId": 4,
						"contract": "contracts/StrawberryDonorFactory.sol:StrawberryDonorFactory",
						"label": "_owner",
						"offset": 0,
						"slot": "0",
						"type": "t_address"
					},
					{
						"astId": 128,
						"contract": "contracts/StrawberryDonorFactory.sol:StrawberryDonorFactory",
						"label": "colorAmountPerPalette",
						"offset": 0,
						"slot": "1",
						"type": "t_uint256"
					},
					{
						"astId": 131,
						"contract": "contracts/StrawberryDonorFactory.sol:StrawberryDonorFactory",
						"label": "randNonce",
						"offset": 0,
						"slot": "2",
						"type": "t_uint256"
					},
					{
						"astId": 134,
						"contract": "contracts/StrawberryDonorFactory.sol:StrawberryDonorFactory",
						"label": "palettes",
						"offset": 0,
						"slot": "3",
						"type": "t_array(t_uint256)dyn_storage"
					},
					{
						"astId": 139,
						"contract": "contracts/StrawberryDonorFactory.sol:StrawberryDonorFactory",
						"label": "paletteToColors",
						"offset": 0,
						"slot": "4",
						"type": "t_mapping(t_uint256,t_array(t_string_storage)dyn_storage)"
					},
					{
						"astId": 434,
						"contract": "contracts/StrawberryDonorFactory.sol:StrawberryDonorFactory",
						"label": "items",
						"offset": 0,
						"slot": "5",
						"type": "t_array(t_struct(StrawberryItem)430_storage)dyn_storage"
					},
					{
						"astId": 290,
						"contract": "contracts/StrawberryDonorFactory.sol:StrawberryDonorFactory",
						"label": "changeColorPaletteFee",
						"offset": 0,
						"slot": "6",
						"type": "t_uint256"
					},
					{
						"astId": 294,
						"contract": "contracts/StrawberryDonorFactory.sol:StrawberryDonorFactory",
						"label": "donors",
						"offset": 0,
						"slot": "7",
						"type": "t_array(t_struct(StrawberryDonor)287_storage)dyn_storage"
					},
					{
						"astId": 298,
						"contract": "contracts/StrawberryDonorFactory.sol:StrawberryDonorFactory",
						"label": "addressToDonor",
						"offset": 0,
						"slot": "8",
						"type": "t_mapping(t_address,t_uint256)"
					}
				],
				"types": {
					"t_address": {
						"encoding": "inplace",
						"label": "address",
						"numberOfBytes": "20"
					},
					"t_array(t_string_storage)dyn_storage": {
						"base": "t_string_storage",
						"encoding": "dynamic_array",
						"label": "string[]",
						"numberOfBytes": "32"
					},
					"t_array(t_struct(StrawberryDonor)287_storage)dyn_storage": {
						"base": "t_struct(StrawberryDonor)287_storage",
						"encoding": "dynamic_array",
						"label": "struct StrawberryDonorFactory.StrawberryDonor[]",
						"numberOfBytes": "32"
					},
					"t_array(t_struct(StrawberryItem)430_storage)dyn_storage": {
						"base": "t_struct(StrawberryItem)430_storage",
						"encoding": "dynamic_array",
						"label": "struct StrawberryItemFactory.StrawberryItem[]",
						"numberOfBytes": "32"
					},
					"t_array(t_uint256)dyn_storage": {
						"base": "t_uint256",
						"encoding": "dynamic_array",
						"label": "uint256[]",
						"numberOfBytes": "32"
					},
					"t_mapping(t_address,t_uint256)": {
						"encoding": "mapping",
						"key": "t_address",
						"label": "mapping(address => uint256)",
						"numberOfBytes": "32",
						"value": "t_uint256"
					},
					"t_mapping(t_uint256,t_array(t_string_storage)dyn_storage)": {
						"encoding": "mapping",
						"key": "t_uint256",
						"label": "mapping(uint256 => string[])",
						"numberOfBytes": "32",
						"value": "t_array(t_string_storage)dyn_storage"
					},
					"t_string_storage": {
						"encoding": "bytes",
						"label": "string",
						"numberOfBytes": "32"
					},
					"t_struct(StrawberryDonor)287_storage": {
						"encoding": "inplace",
						"label": "struct StrawberryDonorFactory.StrawberryDonor",
						"members": [
							{
								"astId": 281,
								"contract": "contracts/StrawberryDonorFactory.sol:StrawberryDonorFactory",
								"label": "name",
								"offset": 0,
								"slot": "0",
								"type": "t_string_storage"
							},
							{
								"astId": 283,
								"contract": "contracts/StrawberryDonorFactory.sol:StrawberryDonorFactory",
								"label": "paletteId",
								"offset": 0,
								"slot": "1",
								"type": "t_uint256"
							},
							{
								"astId": 286,
								"contract": "contracts/StrawberryDonorFactory.sol:StrawberryDonorFactory",
								"label": "items",
								"offset": 0,
								"slot": "2",
								"type": "t_array(t_uint256)dyn_storage"
							}
						],
						"numberOfBytes": "96"
					},
					"t_struct(StrawberryItem)430_storage": {
						"encoding": "inplace",
						"label": "struct StrawberryItemFactory.StrawberryItem",
						"members": [
							{
								"astId": 425,
								"contract": "contracts/StrawberryDonorFactory.sol:StrawberryDonorFactory",
								"label": "owner",
								"offset": 0,
								"slot": "0",
								"type": "t_address"
							},
							{
								"astId": 427,
								"contract": "contracts/StrawberryDonorFactory.sol:StrawberryDonorFactory",
								"label": "colorId",
								"offset": 0,
								"slot": "1",
								"type": "t_uint256"
							},
							{
								"astId": 429,
								"contract": "contracts/StrawberryDonorFactory.sol:StrawberryDonorFactory",
								"label": "tierId",
								"offset": 0,
								"slot": "2",
								"type": "t_uint256"
							}
						],
						"numberOfBytes": "96"
					},
					"t_uint256": {
						"encoding": "inplace",
						"label": "uint256",
						"numberOfBytes": "32"
					}
				}
			},
			"userdoc": {
				"kind": "user",
				"methods": {
					"renounceOwnership()": {
						"notice": "Renouncing to ownership will leave the contract without an owner. It will not be possible to call the functions with the `onlyOwner` modifier anymore."
					}
				},
				"version": 1
			}
		}
	}
}