{
  "contractName": "StrawberryCharity",
  "abi": [
    {
      "inputs": [
        {
          "internalType": "string",
          "name": "_name",
          "type": "string"
        },
        {
          "internalType": "string",
          "name": "_image",
          "type": "string"
        },
        {
          "internalType": "string",
          "name": "_description",
          "type": "string"
        },
        {
          "internalType": "address payable",
          "name": "_beneficiary",
          "type": "address"
        },
        {
          "internalType": "address",
          "name": "_custodian",
          "type": "address"
        }
      ],
      "stateMutability": "nonpayable",
      "type": "constructor"
    },
    {
      "anonymous": false,
      "inputs": [
        {
          "indexed": true,
          "internalType": "address",
          "name": "donor",
          "type": "address"
        },
        {
          "indexed": false,
          "internalType": "uint256",
          "name": "value",
          "type": "uint256"
        }
      ],
      "name": "DonationReceived",
      "type": "event"
    },
    {
      "anonymous": false,
      "inputs": [
        {
          "indexed": false,
          "internalType": "uint256",
          "name": "donorId",
          "type": "uint256"
        }
      ],
      "name": "DonorCreated",
      "type": "event"
    },
    {
      "anonymous": false,
      "inputs": [
        {
          "indexed": false,
          "internalType": "uint256",
          "name": "itemId",
          "type": "uint256"
        },
        {
          "indexed": false,
          "internalType": "uint256",
          "name": "itemColorId",
          "type": "uint256"
        }
      ],
      "name": "ItemAdded",
      "type": "event"
    },
    {
      "anonymous": false,
      "inputs": [
        {
          "indexed": true,
          "internalType": "address",
          "name": "previousOwner",
          "type": "address"
        },
        {
          "indexed": true,
          "internalType": "address",
          "name": "newOwner",
          "type": "address"
        }
      ],
      "name": "OwnershipTransferred",
      "type": "event"
    },
    {
      "anonymous": false,
      "inputs": [
        {
          "indexed": false,
          "internalType": "uint256",
          "name": "paletteId",
          "type": "uint256"
        }
      ],
      "name": "PaletteCreated",
      "type": "event"
    },
    {
      "anonymous": false,
      "inputs": [
        {
          "indexed": false,
          "internalType": "uint256",
          "name": "amount",
          "type": "uint256"
        }
      ],
      "name": "Withdraw",
      "type": "event"
    },
    {
      "inputs": [
        {
          "internalType": "address",
          "name": "_donorAddress",
          "type": "address"
        }
      ],
      "name": "_createDonor",
      "outputs": [],
      "stateMutability": "nonpayable",
      "type": "function"
    },
    {
      "inputs": [
        {
          "internalType": "address",
          "name": "",
          "type": "address"
        },
        {
          "internalType": "uint256",
          "name": "",
          "type": "uint256"
        }
      ],
      "name": "_donations",
      "outputs": [
        {
          "internalType": "uint256",
          "name": "value",
          "type": "uint256"
        },
        {
          "internalType": "uint256",
          "name": "date",
          "type": "uint256"
        }
      ],
      "stateMutability": "view",
      "type": "function"
    },
    {
      "inputs": [
        {
          "internalType": "string[5]",
          "name": "_colors",
          "type": "string[5]"
        }
      ],
      "name": "addPalette",
      "outputs": [],
      "stateMutability": "nonpayable",
      "type": "function"
    },
    {
      "inputs": [],
      "name": "beneficiary",
      "outputs": [
        {
          "internalType": "address payable",
          "name": "",
          "type": "address"
        }
      ],
      "stateMutability": "view",
      "type": "function"
    },
    {
      "inputs": [
        {
          "internalType": "uint256",
          "name": "_donorId",
          "type": "uint256"
        },
        {
          "internalType": "uint256",
          "name": "_paletteId",
          "type": "uint256"
        }
      ],
      "name": "changeColorPalette",
      "outputs": [],
      "stateMutability": "payable",
      "type": "function"
    },
    {
      "inputs": [],
      "name": "colorAmountPerPalette",
      "outputs": [
        {
          "internalType": "uint256",
          "name": "",
          "type": "uint256"
        }
      ],
      "stateMutability": "view",
      "type": "function"
    },
    {
      "inputs": [],
      "name": "description",
      "outputs": [
        {
          "internalType": "string",
          "name": "",
          "type": "string"
        }
      ],
      "stateMutability": "view",
      "type": "function"
    },
    {
      "inputs": [],
      "name": "donationsCount",
      "outputs": [
        {
          "internalType": "uint256",
          "name": "",
          "type": "uint256"
        }
      ],
      "stateMutability": "view",
      "type": "function"
    },
    {
      "inputs": [
        {
          "internalType": "address",
          "name": "_owner",
          "type": "address"
        }
      ],
      "name": "getOwnerByAddress",
      "outputs": [
        {
          "internalType": "uint256",
          "name": "",
          "type": "uint256"
        }
      ],
      "stateMutability": "view",
      "type": "function"
    },
    {
      "inputs": [],
      "name": "image",
      "outputs": [
        {
          "internalType": "string",
          "name": "",
          "type": "string"
        }
      ],
      "stateMutability": "view",
      "type": "function"
    },
    {
      "inputs": [],
      "name": "isOwner",
      "outputs": [
        {
          "internalType": "bool",
          "name": "",
          "type": "bool"
        }
      ],
      "stateMutability": "view",
      "type": "function"
    },
    {
      "inputs": [],
      "name": "name",
      "outputs": [
        {
          "internalType": "string",
          "name": "",
          "type": "string"
        }
      ],
      "stateMutability": "view",
      "type": "function"
    },
    {
      "inputs": [],
      "name": "owner",
      "outputs": [
        {
          "internalType": "address",
          "name": "",
          "type": "address"
        }
      ],
      "stateMutability": "view",
      "type": "function"
    },
    {
      "inputs": [
        {
          "internalType": "uint256",
          "name": "",
          "type": "uint256"
        }
      ],
      "name": "palettes",
      "outputs": [
        {
          "internalType": "uint256",
          "name": "",
          "type": "uint256"
        }
      ],
      "stateMutability": "view",
      "type": "function"
    },
    {
      "inputs": [],
      "name": "renounceOwnership",
      "outputs": [],
      "stateMutability": "nonpayable",
      "type": "function"
    },
    {
      "inputs": [
        {
          "internalType": "address",
          "name": "newOwner",
          "type": "address"
        }
      ],
      "name": "transferOwnership",
      "outputs": [],
      "stateMutability": "nonpayable",
      "type": "function"
    },
    {
      "inputs": [],
      "name": "donate",
      "outputs": [],
      "stateMutability": "payable",
      "type": "function"
    },
    {
      "inputs": [
        {
          "internalType": "address payable",
          "name": "_beneficiary",
          "type": "address"
        }
      ],
      "name": "changeBeneficiary",
      "outputs": [],
      "stateMutability": "nonpayable",
      "type": "function"
    },
    {
      "inputs": [],
      "name": "withdraw",
      "outputs": [],
      "stateMutability": "nonpayable",
      "type": "function"
    }
  ],
  "bytecode": "0x60806040526005600155600060025566038d7ea4c680006006556000600e553480156200002b57600080fd5b5060405162002c9e38038062002c9e833981810160405281019062000051919062000be5565b336000806101000a81548173ffffffffffffffffffffffffffffffffffffffff021916908373ffffffffffffffffffffffffffffffffffffffff16021790555060008054906101000a900473ffffffffffffffffffffffffffffffffffffffff1673ffffffffffffffffffffffffffffffffffffffff16600073ffffffffffffffffffffffffffffffffffffffff167f8be0079c531659141344cd1fd0a4f28419497f9722a3daafe3b4186f6b6457e060405160405180910390a36200024c6040518060a001604052806040518060400160405280600881526020017f307838343545433200000000000000000000000000000000000000000000000081525081526020016040518060400160405280600881526020017f307834423434353300000000000000000000000000000000000000000000000081525081526020016040518060400160405280600881526020017f307842304138423900000000000000000000000000000000000000000000000081525081526020016040518060400160405280600881526020017f307843333441333600000000000000000000000000000000000000000000000081525081526020016040518060400160405280600881526020017f30784646383036360000000000000000000000000000000000000000000000008152508152506200069f60201b60201c565b6200038c6040518060a001604052806040518060400160405280600881526020017f307836393936373400000000000000000000000000000000000000000000000081525081526020016040518060400160405280600881526020017f307833423441334600000000000000000000000000000000000000000000000081525081526020016040518060400160405280600881526020017f307839454146413200000000000000000000000000000000000000000000000081525081526020016040518060400160405280600881526020017f307834453934423300000000000000000000000000000000000000000000000081525081526020016040518060400160405280600881526020017f30783033363137450000000000000000000000000000000000000000000000008152508152506200069f60201b60201c565b620004cc6040518060a001604052806040518060400160405280600881526020017f307832374236443800000000000000000000000000000000000000000000000081525081526020016040518060400160405280600881526020017f307833333441353200000000000000000000000000000000000000000000000081525081526020016040518060400160405280600881526020017f307839364146423800000000000000000000000000000000000000000000000081525081526020016040518060400160405280600881526020017f307843343938443400000000000000000000000000000000000000000000000081525081526020016040518060400160405280600881526020017f30783845363439440000000000000000000000000000000000000000000000008152508152506200069f60201b60201c565b6200060c6040518060a001604052806040518060400160405280600881526020017f307835414135354200000000000000000000000000000000000000000000000081525081526020016040518060400160405280600881526020017f307832343935364400000000000000000000000000000000000000000000000081525081526020016040518060400160405280600881526020017f307830303833373700000000000000000000000000000000000000000000000081525081526020016040518060400160405280600881526020017f307830303646373700000000000000000000000000000000000000000000000081525081526020016040518060400160405280600881526020017f30783143354236430000000000000000000000000000000000000000000000008152508152506200069f60201b60201c565b84600a90816200061d919062000f15565b5083600b90816200062f919062000f15565b5082600c908162000641919062000f15565b5081600d60006101000a81548173ffffffffffffffffffffffffffffffffffffffff021916908373ffffffffffffffffffffffffffffffffffffffff16021790555062000694816200076d60201b60201c565b505050505062001094565b620006af6200086460201b60201c565b620006b957600080fd5b60038080549050908060018154018082558091505060019003906000526020600020016000909190919091505580600460006001600380549050620006ff91906200102b565b81526020019081526020016000209060056200071d929190620008bb565b507fe1c7c98cdeded3a25c1c7ada5b85013b2c7c9879f1678129a413ea685d0fcc7860016003805490506200075391906200102b565b60405162000762919062001077565b60405180910390a150565b600073ffffffffffffffffffffffffffffffffffffffff168173ffffffffffffffffffffffffffffffffffffffff1603620007a757600080fd5b8073ffffffffffffffffffffffffffffffffffffffff1660008054906101000a900473ffffffffffffffffffffffffffffffffffffffff1673ffffffffffffffffffffffffffffffffffffffff167f8be0079c531659141344cd1fd0a4f28419497f9722a3daafe3b4186f6b6457e060405160405180910390a3806000806101000a81548173ffffffffffffffffffffffffffffffffffffffff021916908373ffffffffffffffffffffffffffffffffffffffff16021790555050565b60008060009054906101000a900473ffffffffffffffffffffffffffffffffffffffff1673ffffffffffffffffffffffffffffffffffffffff163373ffffffffffffffffffffffffffffffffffffffff1614905090565b82805482825590600052602060002090810192821562000908579160200282015b8281111562000907578251829081620008f6919062000f15565b5091602001919060010190620008dc565b5b5090506200091791906200091b565b5090565b5b808211156200093f576000818162000935919062000943565b506001016200091c565b5090565b508054620009519062000d04565b6000825580601f1062000965575062000986565b601f01602090049060005260206000209081019062000985919062000989565b5b50565b5b80821115620009a45760008160009055506001016200098a565b5090565b6000604051905090565b600080fd5b600080fd5b600080fd5b600080fd5b6000601f19601f8301169050919050565b7f4e487b7100000000000000000000000000000000000000000000000000000000600052604160045260246000fd5b62000a1182620009c6565b810181811067ffffffffffffffff8211171562000a335762000a32620009d7565b5b80604052505050565b600062000a48620009a8565b905062000a56828262000a06565b919050565b600067ffffffffffffffff82111562000a795762000a78620009d7565b5b62000a8482620009c6565b9050602081019050919050565b60005b8381101562000ab157808201518184015260208101905062000a94565b60008484015250505050565b600062000ad462000ace8462000a5b565b62000a3c565b90508281526020810184848401111562000af35762000af2620009c1565b5b62000b0084828562000a91565b509392505050565b600082601f83011262000b205762000b1f620009bc565b5b815162000b3284826020860162000abd565b91505092915050565b600073ffffffffffffffffffffffffffffffffffffffff82169050919050565b600062000b688262000b3b565b9050919050565b62000b7a8162000b5b565b811462000b8657600080fd5b50565b60008151905062000b9a8162000b6f565b92915050565b600062000bad8262000b3b565b9050919050565b62000bbf8162000ba0565b811462000bcb57600080fd5b50565b60008151905062000bdf8162000bb4565b92915050565b600080600080600060a0868803121562000c045762000c03620009b2565b5b600086015167ffffffffffffffff81111562000c255762000c24620009b7565b5b62000c338882890162000b08565b955050602086015167ffffffffffffffff81111562000c575762000c56620009b7565b5b62000c658882890162000b08565b945050604086015167ffffffffffffffff81111562000c895762000c88620009b7565b5b62000c978882890162000b08565b935050606062000caa8882890162000b89565b925050608062000cbd8882890162000bce565b9150509295509295909350565b600081519050919050565b7f4e487b7100000000000000000000000000000000000000000000000000000000600052602260045260246000fd5b6000600282049050600182168062000d1d57607f821691505b60208210810362000d335762000d3262000cd5565b5b50919050565b60008190508160005260206000209050919050565b60006020601f8301049050919050565b600082821b905092915050565b60006008830262000d9d7fffffffffffffffffffffffffffffffffffffffffffffffffffffffffffffffff8262000d5e565b62000da9868362000d5e565b95508019841693508086168417925050509392505050565b6000819050919050565b6000819050919050565b600062000df662000df062000dea8462000dc1565b62000dcb565b62000dc1565b9050919050565b6000819050919050565b62000e128362000dd5565b62000e2a62000e218262000dfd565b84845462000d6b565b825550505050565b600090565b62000e4162000e32565b62000e4e81848462000e07565b505050565b5b8181101562000e765762000e6a60008262000e37565b60018101905062000e54565b5050565b601f82111562000ec55762000e8f8162000d39565b62000e9a8462000d4e565b8101602085101562000eaa578190505b62000ec262000eb98562000d4e565b83018262000e53565b50505b505050565b600082821c905092915050565b600062000eea6000198460080262000eca565b1980831691505092915050565b600062000f05838362000ed7565b9150826002028217905092915050565b62000f208262000cca565b67ffffffffffffffff81111562000f3c5762000f3b620009d7565b5b62000f48825462000d04565b62000f5582828562000e7a565b600060209050601f83116001811462000f8d576000841562000f78578287015190505b62000f84858262000ef7565b86555062000ff4565b601f19841662000f9d8662000d39565b60005b8281101562000fc75784890151825560018201915060208501945060208101905062000fa0565b8683101562000fe7578489015162000fe3601f89168262000ed7565b8355505b6001600288020188555050505b505050505050565b7f4e487b7100000000000000000000000000000000000000000000000000000000600052601160045260246000fd5b6000620010388262000dc1565b9150620010458362000dc1565b925082820390508181111562001060576200105f62000ffc565b5b92915050565b620010718162000dc1565b82525050565b60006020820190506200108e600083018462001066565b92915050565b611bfa80620010a46000396000f3fe6080604052600436106101145760003560e01c806380cef3cc116100a0578063dc07065711610064578063dc0706571461035d578063dcf7eefe14610386578063ed88c68e146103c3578063f2fde38b146103cd578063f3ccaac0146103f657610114565b806380cef3cc146102775780638da5cb5b146102a05780638f32d59b146102cb578063b8f7f42a146102f6578063dc0661be1461031f57610114565b80633ccfd60b116100e75780633ccfd60b146101c55780634315399f146101dc5780636f442154146101f8578063715018a6146102355780637284e4161461024c57610114565b806306fdde0314610119578063109c1238146101445780631f5225951461016f57806338af3eed1461019a575b600080fd5b34801561012557600080fd5b5061012e610421565b60405161013b91906111b7565b60405180910390f35b34801561015057600080fd5b506101596104af565b60405161016691906111f2565b60405180910390f35b34801561017b57600080fd5b506101846104b5565b60405161019191906111f2565b60405180910390f35b3480156101a657600080fd5b506101af6104bb565b6040516101bc919061124e565b60405180910390f35b3480156101d157600080fd5b506101da6104e1565b005b6101f660048036038101906101f191906112a9565b61059a565b005b34801561020457600080fd5b5061021f600480360381019061021a9190611327565b6105e7565b60405161022c91906111f2565b60405180910390f35b34801561024157600080fd5b5061024a610630565b005b34801561025857600080fd5b506102616106ff565b60405161026e91906111b7565b60405180910390f35b34801561028357600080fd5b5061029e60048036038101906102999190611327565b61078d565b005b3480156102ac57600080fd5b506102b56108e1565b6040516102c29190611363565b60405180910390f35b3480156102d757600080fd5b506102e061090a565b6040516102ed9190611399565b60405180910390f35b34801561030257600080fd5b5061031d600480360381019061031891906115bd565b610961565b005b34801561032b57600080fd5b5061034660048036038101906103419190611606565b610a1e565b604051610354929190611646565b60405180910390f35b34801561036957600080fd5b50610384600480360381019061037f919061169b565b610a5f565b005b34801561039257600080fd5b506103ad60048036038101906103a891906116c8565b610ab4565b6040516103ba91906111f2565b60405180910390f35b6103cb610ad8565b005b3480156103d957600080fd5b506103f460048036038101906103ef9190611327565b610c82565b005b34801561040257600080fd5b5061040b610c9f565b60405161041891906111b7565b60405180910390f35b600a805461042e90611724565b80601f016020809104026020016040519081016040528092919081815260200182805461045a90611724565b80156104a75780601f1061047c576101008083540402835291602001916104a7565b820191906000526020600020905b81548152906001019060200180831161048a57829003601f168201915b505050505081565b60015481565b600e5481565b600d60009054906101000a900473ffffffffffffffffffffffffffffffffffffffff1681565b6104e961090a565b6104f257600080fd5b6000479050600d60009054906101000a900473ffffffffffffffffffffffffffffffffffffffff1673ffffffffffffffffffffffffffffffffffffffff166108fc829081150290604051600060405180830381858888f1935050505015801561055f573d6000803e3d6000fd5b507f5b6b431d4476a211bb7d41c20d1aab9ae2321deee0d20be3d9fc9b1093fa6e3d8160405161058f91906111f2565b60405180910390a150565b60065434146105a857600080fd5b60038054905081106105b957600080fd5b80600783815481106105ce576105cd611755565b5b9060005260206000209060020201600001819055505050565b6000600860008373ffffffffffffffffffffffffffffffffffffffff1673ffffffffffffffffffffffffffffffffffffffff168152602001908152602001600020549050919050565b61063861090a565b61064157600080fd5b600073ffffffffffffffffffffffffffffffffffffffff1660008054906101000a900473ffffffffffffffffffffffffffffffffffffffff1673ffffffffffffffffffffffffffffffffffffffff167f8be0079c531659141344cd1fd0a4f28419497f9722a3daafe3b4186f6b6457e060405160405180910390a360008060006101000a81548173ffffffffffffffffffffffffffffffffffffffff021916908373ffffffffffffffffffffffffffffffffffffffff160217905550565b600c805461070c90611724565b80601f016020809104026020016040519081016040528092919081815260200182805461073890611724565b80156107855780601f1061075a57610100808354040283529160200191610785565b820191906000526020600020905b81548152906001019060200180831161076857829003601f168201915b505050505081565b6000600167ffffffffffffffff8111156107aa576107a96113b9565b5b6040519080825280602002602001820160405280156107d85781602001602082028036833780820191505090505b509050600760405180604001604052806107f0610d2d565b8152602001838152509080600181540180825580915050600190039060005260206000209060020201600090919091909150600082015181600001556020820151816001019080519060200190610848929190611000565b5050506000600160078054905061085f91906117b3565b905080600860008573ffffffffffffffffffffffffffffffffffffffff1673ffffffffffffffffffffffffffffffffffffffff168152602001908152602001600020819055507faf101d6eb202a80391aeb3bccfdf77a63a9dd196386bf69ae819408c466875b6816040516108d491906111f2565b60405180910390a1505050565b60008060009054906101000a900473ffffffffffffffffffffffffffffffffffffffff16905090565b60008060009054906101000a900473ffffffffffffffffffffffffffffffffffffffff1673ffffffffffffffffffffffffffffffffffffffff163373ffffffffffffffffffffffffffffffffffffffff1614905090565b61096961090a565b61097257600080fd5b600380805490509080600181540180825580915050600190039060005260206000200160009091909190915055806004600060016003805490506109b691906117b3565b81526020019081526020016000209060056109d292919061104d565b507fe1c7c98cdeded3a25c1c7ada5b85013b2c7c9879f1678129a413ea685d0fcc786001600380549050610a0691906117b3565b604051610a1391906111f2565b60405180910390a150565b600f6020528160005260406000208181548110610a3a57600080fd5b9060005260206000209060020201600091509150508060000154908060010154905082565b610a6761090a565b610a7057600080fd5b80600d60006101000a81548173ffffffffffffffffffffffffffffffffffffffff021916908373ffffffffffffffffffffffffffffffffffffffff16021790555050565b60038181548110610ac457600080fd5b906000526020600020016000915090505481565b60006040518060400160405280348152602001428152509050600f60003373ffffffffffffffffffffffffffffffffffffffff1673ffffffffffffffffffffffffffffffffffffffff16815260200190815260200160002081908060018154018082558091505060019003906000526020600020906002020160009091909190915060008201518160000155602082015181600101555050600e6000815480929190610b83906117e7565b9190505550600960003373ffffffffffffffffffffffffffffffffffffffff1673ffffffffffffffffffffffffffffffffffffffff16815260200190815260200160002060009054906101000a900460ff16610be357610be23361078d565b5b6000600860003373ffffffffffffffffffffffffffffffffffffffff1673ffffffffffffffffffffffffffffffffffffffff168152602001908152602001600020549050610c3081610d4e565b3373ffffffffffffffffffffffffffffffffffffffff167f264f630d9efa0d07053a31163641d9fcc0adafc9d9e76f1c37c2ce3a558d2c5234604051610c7691906111f2565b60405180910390a25050565b610c8a61090a565b610c9357600080fd5b610c9c81610db4565b50565b600b8054610cac90611724565b80601f0160208091040260200160405190810160405280929190818152602001828054610cd890611724565b8015610d255780601f10610cfa57610100808354040283529160200191610d25565b820191906000526020600020905b815481529060010190602001808311610d0857829003601f168201915b505050505081565b6000610d496001600380549050610d4491906117b3565b610eaa565b905090565b6000610d62610d5b610f08565b6000610f25565b905060078281548110610d7857610d77611755565b5b90600052602060002090600202016001018190806001815401808255809150506001900390600052602060002001600090919091909150555050565b600073ffffffffffffffffffffffffffffffffffffffff168173ffffffffffffffffffffffffffffffffffffffff1603610ded57600080fd5b8073ffffffffffffffffffffffffffffffffffffffff1660008054906101000a900473ffffffffffffffffffffffffffffffffffffffff1673ffffffffffffffffffffffffffffffffffffffff167f8be0079c531659141344cd1fd0a4f28419497f9722a3daafe3b4186f6b6457e060405160405180910390a3806000806101000a81548173ffffffffffffffffffffffffffffffffffffffff021916908373ffffffffffffffffffffffffffffffffffffffff16021790555050565b600060026000815480929190610ebf906117e7565b919050555081424433600254604051602001610ede9493929190611898565b6040516020818303038152906040528051906020012060001c610f019190611915565b9050919050565b6000610f2060018054610f1b91906117b3565b610eaa565b905090565b6000600560405180606001604052803373ffffffffffffffffffffffffffffffffffffffff16815260200185815260200184815250908060018154018082558091505060019003906000526020600020906003020160009091909190915060008201518160000160006101000a81548173ffffffffffffffffffffffffffffffffffffffff021916908373ffffffffffffffffffffffffffffffffffffffff1602179055506020820151816001015560408201518160020155505060006001600580549050610ff491906117b3565b90508091505092915050565b82805482825590600052602060002090810192821561103c579160200282015b8281111561103b578251825591602001919060010190611020565b5b50905061104991906110a6565b5090565b828054828255906000526020600020908101928215611095579160200282015b828111156110945782518290816110849190611af2565b509160200191906001019061106d565b5b5090506110a291906110c3565b5090565b5b808211156110bf5760008160009055506001016110a7565b5090565b5b808211156110e357600081816110da91906110e7565b506001016110c4565b5090565b5080546110f390611724565b6000825580601f106111055750611124565b601f01602090049060005260206000209081019061112391906110a6565b5b50565b600081519050919050565b600082825260208201905092915050565b60005b83811015611161578082015181840152602081019050611146565b60008484015250505050565b6000601f19601f8301169050919050565b600061118982611127565b6111938185611132565b93506111a3818560208601611143565b6111ac8161116d565b840191505092915050565b600060208201905081810360008301526111d1818461117e565b905092915050565b6000819050919050565b6111ec816111d9565b82525050565b600060208201905061120760008301846111e3565b92915050565b600073ffffffffffffffffffffffffffffffffffffffff82169050919050565b60006112388261120d565b9050919050565b6112488161122d565b82525050565b6000602082019050611263600083018461123f565b92915050565b6000604051905090565b600080fd5b600080fd5b611286816111d9565b811461129157600080fd5b50565b6000813590506112a38161127d565b92915050565b600080604083850312156112c0576112bf611273565b5b60006112ce85828601611294565b92505060206112df85828601611294565b9150509250929050565b60006112f48261120d565b9050919050565b611304816112e9565b811461130f57600080fd5b50565b600081359050611321816112fb565b92915050565b60006020828403121561133d5761133c611273565b5b600061134b84828501611312565b91505092915050565b61135d816112e9565b82525050565b60006020820190506113786000830184611354565b92915050565b60008115159050919050565b6113938161137e565b82525050565b60006020820190506113ae600083018461138a565b92915050565b600080fd5b7f4e487b7100000000000000000000000000000000000000000000000000000000600052604160045260246000fd5b6113f18261116d565b810181811067ffffffffffffffff821117156114105761140f6113b9565b5b80604052505050565b6000611423611269565b905061142f82826113e8565b919050565b600067ffffffffffffffff82111561144f5761144e6113b9565b5b602082029050919050565b600080fd5b600080fd5b600067ffffffffffffffff82111561147f5761147e6113b9565b5b6114888261116d565b9050602081019050919050565b82818337600083830152505050565b60006114b76114b284611464565b611419565b9050828152602081018484840111156114d3576114d261145f565b5b6114de848285611495565b509392505050565b600082601f8301126114fb576114fa6113b4565b5b813561150b8482602086016114a4565b91505092915050565b600061152761152284611434565b611419565b905080602084028301858111156115415761154061145a565b5b835b8181101561158857803567ffffffffffffffff811115611566576115656113b4565b5b80860161157389826114e6565b85526020850194505050602081019050611543565b5050509392505050565b600082601f8301126115a7576115a66113b4565b5b60056115b4848285611514565b91505092915050565b6000602082840312156115d3576115d2611273565b5b600082013567ffffffffffffffff8111156115f1576115f0611278565b5b6115fd84828501611592565b91505092915050565b6000806040838503121561161d5761161c611273565b5b600061162b85828601611312565b925050602061163c85828601611294565b9150509250929050565b600060408201905061165b60008301856111e3565b61166860208301846111e3565b9392505050565b6116788161122d565b811461168357600080fd5b50565b6000813590506116958161166f565b92915050565b6000602082840312156116b1576116b0611273565b5b60006116bf84828501611686565b91505092915050565b6000602082840312156116de576116dd611273565b5b60006116ec84828501611294565b91505092915050565b7f4e487b7100000000000000000000000000000000000000000000000000000000600052602260045260246000fd5b6000600282049050600182168061173c57607f821691505b60208210810361174f5761174e6116f5565b5b50919050565b7f4e487b7100000000000000000000000000000000000000000000000000000000600052603260045260246000fd5b7f4e487b7100000000000000000000000000000000000000000000000000000000600052601160045260246000fd5b60006117be826111d9565b91506117c9836111d9565b92508282039050818111156117e1576117e0611784565b5b92915050565b60006117f2826111d9565b91507fffffffffffffffffffffffffffffffffffffffffffffffffffffffffffffffff820361182457611823611784565b5b600182019050919050565b6000819050919050565b61184a611845826111d9565b61182f565b82525050565b60008160601b9050919050565b600061186882611850565b9050919050565b600061187a8261185d565b9050919050565b61189261188d826112e9565b61186f565b82525050565b60006118a48287611839565b6020820191506118b48286611839565b6020820191506118c48285611881565b6014820191506118d48284611839565b60208201915081905095945050505050565b7f4e487b7100000000000000000000000000000000000000000000000000000000600052601260045260246000fd5b6000611920826111d9565b915061192b836111d9565b92508261193b5761193a6118e6565b5b828206905092915050565b60008190508160005260206000209050919050565b60006020601f8301049050919050565b600082821b905092915050565b6000600883026119a87fffffffffffffffffffffffffffffffffffffffffffffffffffffffffffffffff8261196b565b6119b2868361196b565b95508019841693508086168417925050509392505050565b6000819050919050565b60006119ef6119ea6119e5846111d9565b6119ca565b6111d9565b9050919050565b6000819050919050565b611a09836119d4565b611a1d611a15826119f6565b848454611978565b825550505050565b600090565b611a32611a25565b611a3d818484611a00565b505050565b5b81811015611a6157611a56600082611a2a565b600181019050611a43565b5050565b601f821115611aa657611a7781611946565b611a808461195b565b81016020851015611a8f578190505b611aa3611a9b8561195b565b830182611a42565b50505b505050565b600082821c905092915050565b6000611ac960001984600802611aab565b1980831691505092915050565b6000611ae28383611ab8565b9150826002028217905092915050565b611afb82611127565b67ffffffffffffffff811115611b1457611b136113b9565b5b611b1e8254611724565b611b29828285611a65565b600060209050601f831160018114611b5c5760008415611b4a578287015190505b611b548582611ad6565b865550611bbc565b601f198416611b6a86611946565b60005b82811015611b9257848901518255600182019150602085019450602081019050611b6d565b86831015611baf5784890151611bab601f891682611ab8565b8355505b6001600288020188555050505b50505050505056fea26469706673582212200165b352a06883adebf1d21989dec028355260a27080baf46e3377bbebab53e164736f6c63430008120033",
  "immutableReferences": {},
  "source": "// SPDX-License-Identifier: GPL-3.0\n\npragma solidity >=0.7.0 <0.9.0;\n\nimport \"./Ownable.sol\";\nimport \"./StrawberryDonorFactory.sol\";\n\ncontract StrawberryCharity is Ownable, StrawberryDonorFactory {\n    struct Donation {\n        uint256 value;\n        uint256 date;\n    }\n\n    string public name;\n    string public image;\n    string public description;\n    address payable public beneficiary;\n    uint256 public donationsCount = 0;\n\n    mapping(address => Donation[]) public _donations;\n\n    event DonationReceived(address indexed donor, uint256 value);\n    event Withdraw(uint256 amount);\n\n    constructor(\n        string memory _name,\n        string memory _image,\n        string memory _description,\n        address payable _beneficiary,\n        address _custodian\n    ) {\n        name = _name;\n        image = _image;\n        description = _description;\n        beneficiary = _beneficiary;\n        _transferOwnership(_custodian);\n    }\n\n    function donate() external payable {\n        Donation memory donation = Donation({\n            value: msg.value,\n            date: block.timestamp\n        });\n\n        _donations[msg.sender].push(donation);\n        donationsCount++;\n\n        if (!donorExists[msg.sender]) {\n            _createDonor(msg.sender);\n        }\n\n        uint id = addressToDonor[msg.sender];\n        _addItem(id);\n\n        emit DonationReceived(msg.sender, msg.value);\n    }\n\n    function changeBeneficiary(address payable _beneficiary) external onlyOwner {\n        beneficiary = _beneficiary;\n    }\n\n    function withdraw() external onlyOwner {\n        uint256 balance = address(this).balance;\n        beneficiary.transfer(balance);\n        emit Withdraw(balance);\n    }\n}",
  "sourcePath": "/Users/elenakapilevich/Documents/strawberry/strawberryContract/contracts/StrawberryCharity.sol",
  "compiler": {
    "name": "solc",
    "version": "0.8.18+commit.87f61d96.Emscripten.clang"
  },
  "schemaVersion": "3.4.13",
  "updatedAt": "2023-04-15T08:03:08.352Z",
  "devdoc": {
    "kind": "dev",
    "methods": {
      "isOwner()": {
        "returns": {
          "_0": "true if `msg.sender` is the owner of the contract."
        }
      },
      "owner()": {
        "returns": {
          "_0": "the address of the owner."
        }
      },
      "renounceOwnership()": {
        "details": "Allows the current owner to relinquish control of the contract."
      },
      "transferOwnership(address)": {
        "details": "Allows the current owner to transfer control of the contract to a newOwner.",
        "params": {
          "newOwner": "The address to transfer ownership to."
        }
      }
    },
    "version": 1
  },
  "userdoc": {
    "kind": "user",
    "methods": {
      "renounceOwnership()": {
        "notice": "Renouncing to ownership will leave the contract without an owner. It will not be possible to call the functions with the `onlyOwner` modifier anymore."
      }
    },
    "version": 1
  }
}