{
  "contractName": "StrawberryColorPaletteFactory",
  "abi": [
    {
      "inputs": [],
      "stateMutability": "nonpayable",
      "type": "constructor"
    },
    {
      "anonymous": false,
      "inputs": [
        {
          "indexed": true,
          "internalType": "address",
          "name": "previousOwner",
          "type": "address"
        },
        {
          "indexed": true,
          "internalType": "address",
          "name": "newOwner",
          "type": "address"
        }
      ],
      "name": "OwnershipTransferred",
      "type": "event"
    },
    {
      "anonymous": false,
      "inputs": [
        {
          "indexed": false,
          "internalType": "uint256",
          "name": "paletteId",
          "type": "uint256"
        }
      ],
      "name": "PaletteCreated",
      "type": "event"
    },
    {
      "inputs": [],
      "name": "colorAmountPerPalette",
      "outputs": [
        {
          "internalType": "uint256",
          "name": "",
          "type": "uint256"
        }
      ],
      "stateMutability": "view",
      "type": "function",
      "constant": true
    },
    {
      "inputs": [],
      "name": "isOwner",
      "outputs": [
        {
          "internalType": "bool",
          "name": "",
          "type": "bool"
        }
      ],
      "stateMutability": "view",
      "type": "function",
      "constant": true
    },
    {
      "inputs": [],
      "name": "owner",
      "outputs": [
        {
          "internalType": "address",
          "name": "",
          "type": "address"
        }
      ],
      "stateMutability": "view",
      "type": "function",
      "constant": true
    },
    {
      "inputs": [
        {
          "internalType": "uint256",
          "name": "",
          "type": "uint256"
        }
      ],
      "name": "palettes",
      "outputs": [
        {
          "internalType": "uint256",
          "name": "",
          "type": "uint256"
        }
      ],
      "stateMutability": "view",
      "type": "function",
      "constant": true
    },
    {
      "inputs": [],
      "name": "renounceOwnership",
      "outputs": [],
      "stateMutability": "nonpayable",
      "type": "function"
    },
    {
      "inputs": [
        {
          "internalType": "address",
          "name": "newOwner",
          "type": "address"
        }
      ],
      "name": "transferOwnership",
      "outputs": [],
      "stateMutability": "nonpayable",
      "type": "function"
    },
    {
      "inputs": [
        {
          "internalType": "string[5]",
          "name": "_colors",
          "type": "string[5]"
        }
      ],
      "name": "addPalette",
      "outputs": [],
      "stateMutability": "nonpayable",
      "type": "function"
    }
  ],
  "bytecode": "0x6080604052600560015560006002553480156200001b57600080fd5b50336000806101000a81548173ffffffffffffffffffffffffffffffffffffffff021916908373ffffffffffffffffffffffffffffffffffffffff16021790555060008054906101000a900473ffffffffffffffffffffffffffffffffffffffff1673ffffffffffffffffffffffffffffffffffffffff16600073ffffffffffffffffffffffffffffffffffffffff167f8be0079c531659141344cd1fd0a4f28419497f9722a3daafe3b4186f6b6457e060405160405180910390a3620002176040518060a001604052806040518060400160405280600881526020017f307838343545433200000000000000000000000000000000000000000000000081525081526020016040518060400160405280600881526020017f307834423434353300000000000000000000000000000000000000000000000081525081526020016040518060400160405280600881526020017f307842304138423900000000000000000000000000000000000000000000000081525081526020016040518060400160405280600881526020017f307843333441333600000000000000000000000000000000000000000000000081525081526020016040518060400160405280600881526020017f3078464638303636000000000000000000000000000000000000000000000000815250815250620005dd60201b60201c565b620003576040518060a001604052806040518060400160405280600881526020017f307836393936373400000000000000000000000000000000000000000000000081525081526020016040518060400160405280600881526020017f307833423441334600000000000000000000000000000000000000000000000081525081526020016040518060400160405280600881526020017f307839454146413200000000000000000000000000000000000000000000000081525081526020016040518060400160405280600881526020017f307834453934423300000000000000000000000000000000000000000000000081525081526020016040518060400160405280600881526020017f3078303336313745000000000000000000000000000000000000000000000000815250815250620005dd60201b60201c565b620004976040518060a001604052806040518060400160405280600881526020017f307832374236443800000000000000000000000000000000000000000000000081525081526020016040518060400160405280600881526020017f307833333441353200000000000000000000000000000000000000000000000081525081526020016040518060400160405280600881526020017f307839364146423800000000000000000000000000000000000000000000000081525081526020016040518060400160405280600881526020017f307843343938443400000000000000000000000000000000000000000000000081525081526020016040518060400160405280600881526020017f3078384536343944000000000000000000000000000000000000000000000000815250815250620005dd60201b60201c565b620005d76040518060a001604052806040518060400160405280600881526020017f307835414135354200000000000000000000000000000000000000000000000081525081526020016040518060400160405280600881526020017f307832343935364400000000000000000000000000000000000000000000000081525081526020016040518060400160405280600881526020017f307830303833373700000000000000000000000000000000000000000000000081525081526020016040518060400160405280600881526020017f307830303646373700000000000000000000000000000000000000000000000081525081526020016040518060400160405280600881526020017f3078314335423643000000000000000000000000000000000000000000000000815250815250620005dd60201b60201c565b62000be8565b620005ed620006ab60201b60201c565b620005f757600080fd5b600380805490509080600181540180825580915050600190039060005260206000200160009091909190915055806004600060016003805490506200063d919062000828565b81526020019081526020016000209060056200065b92919062000702565b507fe1c7c98cdeded3a25c1c7ada5b85013b2c7c9879f1678129a413ea685d0fcc78600160038054905062000691919062000828565b604051620006a0919062000874565b60405180910390a150565b60008060009054906101000a900473ffffffffffffffffffffffffffffffffffffffff1673ffffffffffffffffffffffffffffffffffffffff163373ffffffffffffffffffffffffffffffffffffffff1614905090565b8280548282559060005260206000209081019282156200074f579160200282015b828111156200074e5782518290816200073d919062000b01565b509160200191906001019062000723565b5b5090506200075e919062000762565b5090565b5b808211156200078657600081816200077c91906200078a565b5060010162000763565b5090565b5080546200079890620008fa565b6000825580601f10620007ac5750620007cd565b601f016020900490600052602060002090810190620007cc9190620007d0565b5b50565b5b80821115620007eb576000816000905550600101620007d1565b5090565b6000819050919050565b7f4e487b7100000000000000000000000000000000000000000000000000000000600052601160045260246000fd5b60006200083582620007ef565b91506200084283620007ef565b92508282039050818111156200085d576200085c620007f9565b5b92915050565b6200086e81620007ef565b82525050565b60006020820190506200088b600083018462000863565b92915050565b600081519050919050565b7f4e487b7100000000000000000000000000000000000000000000000000000000600052604160045260246000fd5b7f4e487b7100000000000000000000000000000000000000000000000000000000600052602260045260246000fd5b600060028204905060018216806200091357607f821691505b602082108103620009295762000928620008cb565b5b50919050565b60008190508160005260206000209050919050565b60006020601f8301049050919050565b600082821b905092915050565b600060088302620009937fffffffffffffffffffffffffffffffffffffffffffffffffffffffffffffffff8262000954565b6200099f868362000954565b95508019841693508086168417925050509392505050565b6000819050919050565b6000620009e2620009dc620009d684620007ef565b620009b7565b620007ef565b9050919050565b6000819050919050565b620009fe83620009c1565b62000a1662000a0d82620009e9565b84845462000961565b825550505050565b600090565b62000a2d62000a1e565b62000a3a818484620009f3565b505050565b5b8181101562000a625762000a5660008262000a23565b60018101905062000a40565b5050565b601f82111562000ab15762000a7b816200092f565b62000a868462000944565b8101602085101562000a96578190505b62000aae62000aa58562000944565b83018262000a3f565b50505b505050565b600082821c905092915050565b600062000ad66000198460080262000ab6565b1980831691505092915050565b600062000af1838362000ac3565b9150826002028217905092915050565b62000b0c8262000891565b67ffffffffffffffff81111562000b285762000b276200089c565b5b62000b348254620008fa565b62000b4182828562000a66565b600060209050601f83116001811462000b79576000841562000b64578287015190505b62000b70858262000ae3565b86555062000be0565b601f19841662000b89866200092f565b60005b8281101562000bb35784890151825560018201915060208501945060208101905062000b8c565b8683101562000bd3578489015162000bcf601f89168262000ac3565b8355505b6001600288020188555050505b505050505050565b610ce28062000bf86000396000f3fe608060405234801561001057600080fd5b506004361061007d5760003560e01c80638f32d59b1161005b5780638f32d59b146100c8578063b8f7f42a146100e6578063dcf7eefe14610102578063f2fde38b146101325761007d565b8063109c123814610082578063715018a6146100a05780638da5cb5b146100aa575b600080fd5b61008a61014e565b604051610097919061058a565b60405180910390f35b6100a8610154565b005b6100b2610223565b6040516100bf91906105e6565b60405180910390f35b6100d061024c565b6040516100dd919061061c565b60405180910390f35b61010060048036038101906100fb9190610865565b6102a3565b005b61011c600480360381019061011791906108da565b610360565b604051610129919061058a565b60405180910390f35b61014c60048036038101906101479190610933565b610384565b005b60015481565b61015c61024c565b61016557600080fd5b600073ffffffffffffffffffffffffffffffffffffffff1660008054906101000a900473ffffffffffffffffffffffffffffffffffffffff1673ffffffffffffffffffffffffffffffffffffffff167f8be0079c531659141344cd1fd0a4f28419497f9722a3daafe3b4186f6b6457e060405160405180910390a360008060006101000a81548173ffffffffffffffffffffffffffffffffffffffff021916908373ffffffffffffffffffffffffffffffffffffffff160217905550565b60008060009054906101000a900473ffffffffffffffffffffffffffffffffffffffff16905090565b60008060009054906101000a900473ffffffffffffffffffffffffffffffffffffffff1673ffffffffffffffffffffffffffffffffffffffff163373ffffffffffffffffffffffffffffffffffffffff1614905090565b6102ab61024c565b6102b457600080fd5b600380805490509080600181540180825580915050600190039060005260206000200160009091909190915055806004600060016003805490506102f8919061098f565b8152602001908152602001600020906005610314929190610497565b507fe1c7c98cdeded3a25c1c7ada5b85013b2c7c9879f1678129a413ea685d0fcc786001600380549050610348919061098f565b604051610355919061058a565b60405180910390a150565b6003818154811061037057600080fd5b906000526020600020016000915090505481565b61038c61024c565b61039557600080fd5b61039e816103a1565b50565b600073ffffffffffffffffffffffffffffffffffffffff168173ffffffffffffffffffffffffffffffffffffffff16036103da57600080fd5b8073ffffffffffffffffffffffffffffffffffffffff1660008054906101000a900473ffffffffffffffffffffffffffffffffffffffff1673ffffffffffffffffffffffffffffffffffffffff167f8be0079c531659141344cd1fd0a4f28419497f9722a3daafe3b4186f6b6457e060405160405180910390a3806000806101000a81548173ffffffffffffffffffffffffffffffffffffffff021916908373ffffffffffffffffffffffffffffffffffffffff16021790555050565b8280548282559060005260206000209081019282156104df579160200282015b828111156104de5782518290816104ce9190610bda565b50916020019190600101906104b7565b5b5090506104ec91906104f0565b5090565b5b8082111561051057600081816105079190610514565b506001016104f1565b5090565b508054610520906109fd565b6000825580601f106105325750610551565b601f0160209004906000526020600020908101906105509190610554565b5b50565b5b8082111561056d576000816000905550600101610555565b5090565b6000819050919050565b61058481610571565b82525050565b600060208201905061059f600083018461057b565b92915050565b600073ffffffffffffffffffffffffffffffffffffffff82169050919050565b60006105d0826105a5565b9050919050565b6105e0816105c5565b82525050565b60006020820190506105fb60008301846105d7565b92915050565b60008115159050919050565b61061681610601565b82525050565b6000602082019050610631600083018461060d565b92915050565b6000604051905090565b600080fd5b600080fd5b600080fd5b6000601f19601f8301169050919050565b7f4e487b7100000000000000000000000000000000000000000000000000000000600052604160045260246000fd5b61069982610650565b810181811067ffffffffffffffff821117156106b8576106b7610661565b5b80604052505050565b60006106cb610637565b90506106d78282610690565b919050565b600067ffffffffffffffff8211156106f7576106f6610661565b5b602082029050919050565b600080fd5b600080fd5b600067ffffffffffffffff82111561072757610726610661565b5b61073082610650565b9050602081019050919050565b82818337600083830152505050565b600061075f61075a8461070c565b6106c1565b90508281526020810184848401111561077b5761077a610707565b5b61078684828561073d565b509392505050565b600082601f8301126107a3576107a261064b565b5b81356107b384826020860161074c565b91505092915050565b60006107cf6107ca846106dc565b6106c1565b905080602084028301858111156107e9576107e8610702565b5b835b8181101561083057803567ffffffffffffffff81111561080e5761080d61064b565b5b80860161081b898261078e565b855260208501945050506020810190506107eb565b5050509392505050565b600082601f83011261084f5761084e61064b565b5b600561085c8482856107bc565b91505092915050565b60006020828403121561087b5761087a610641565b5b600082013567ffffffffffffffff81111561089957610898610646565b5b6108a58482850161083a565b91505092915050565b6108b781610571565b81146108c257600080fd5b50565b6000813590506108d4816108ae565b92915050565b6000602082840312156108f0576108ef610641565b5b60006108fe848285016108c5565b91505092915050565b610910816105c5565b811461091b57600080fd5b50565b60008135905061092d81610907565b92915050565b60006020828403121561094957610948610641565b5b60006109578482850161091e565b91505092915050565b7f4e487b7100000000000000000000000000000000000000000000000000000000600052601160045260246000fd5b600061099a82610571565b91506109a583610571565b92508282039050818111156109bd576109bc610960565b5b92915050565b600081519050919050565b7f4e487b7100000000000000000000000000000000000000000000000000000000600052602260045260246000fd5b60006002820490506001821680610a1557607f821691505b602082108103610a2857610a276109ce565b5b50919050565b60008190508160005260206000209050919050565b60006020601f8301049050919050565b600082821b905092915050565b600060088302610a907fffffffffffffffffffffffffffffffffffffffffffffffffffffffffffffffff82610a53565b610a9a8683610a53565b95508019841693508086168417925050509392505050565b6000819050919050565b6000610ad7610ad2610acd84610571565b610ab2565b610571565b9050919050565b6000819050919050565b610af183610abc565b610b05610afd82610ade565b848454610a60565b825550505050565b600090565b610b1a610b0d565b610b25818484610ae8565b505050565b5b81811015610b4957610b3e600082610b12565b600181019050610b2b565b5050565b601f821115610b8e57610b5f81610a2e565b610b6884610a43565b81016020851015610b77578190505b610b8b610b8385610a43565b830182610b2a565b50505b505050565b600082821c905092915050565b6000610bb160001984600802610b93565b1980831691505092915050565b6000610bca8383610ba0565b9150826002028217905092915050565b610be3826109c3565b67ffffffffffffffff811115610bfc57610bfb610661565b5b610c0682546109fd565b610c11828285610b4d565b600060209050601f831160018114610c445760008415610c32578287015190505b610c3c8582610bbe565b865550610ca4565b601f198416610c5286610a2e565b60005b82811015610c7a57848901518255600182019150602085019450602081019050610c55565b86831015610c975784890151610c93601f891682610ba0565b8355505b6001600288020188555050505b50505050505056fea2646970667358221220d92b6b2d4ac57fa291a45373204efcf0e0d0efa5145da4f4b9e2edeca825e25264736f6c63430008130033",
  "immutableReferences": {},
  "source": "// SPDX-License-Identifier: GPL-3.0\n\npragma solidity >=0.7.0 <0.9.0;\n\nimport \"./Ownable.sol\";\n\ncontract StrawberryColorPaletteFactory is Ownable {\n    uint public colorAmountPerPalette = 5;\n    uint private randNonce = 0;\n\n    uint[] public palettes;\n\n    mapping (uint => string[]) paletteToColors;\n    \n    event PaletteCreated(uint paletteId);\n\n    constructor() {\n        addPalette([\"0x845EC2\", \"0x4B4453\", \"0xB0A8B9\", \"0xC34A36\", \"0xFF8066\"]);\n        addPalette([\"0x699674\", \"0x3B4A3F\", \"0x9EAFA2\", \"0x4E94B3\", \"0x03617E\"]);\n        addPalette([\"0x27B6D8\", \"0x334A52\", \"0x96AFB8\", \"0xC498D4\", \"0x8E649D\"]);\n        addPalette([\"0x5AA55B\", \"0x24956D\", \"0x008377\", \"0x006F77\", \"0x1C5B6C\"]);\n    }\n\n    //Public\n    function addPalette(string[5] memory _colors) public onlyOwner {\n        palettes.push(palettes.length);\n        paletteToColors[palettes.length - 1] = _colors;\n        emit PaletteCreated(palettes.length - 1);\n    }\n\n    //Internal\n    function _getRandomPalleteIndex() internal returns(uint) {\n        return _random(palettes.length - 1);\n    }\n\n    function _getRandomColorIndex() internal returns(uint) {\n        return _random(colorAmountPerPalette - 1);\n    }\n\n    //Private\n    function _random(uint number) private returns(uint) {\n        randNonce++;\n        return uint(keccak256(abi.encodePacked(block.timestamp, block.difficulty, msg.sender, randNonce))) % number;\n    }\n}\n",
  "sourcePath": "/Users/shrey/git/strawberry/strawberryContract/contracts/StrawberryColorPaletteFactory.sol",
  "compiler": {
    "name": "solc",
    "version": "0.8.19+commit.7dd6d404.Emscripten.clang"
  },
  "schemaVersion": "3.4.13",
  "updatedAt": "2023-04-15T08:33:04.813Z",
  "networkType": "ethereum",
  "devdoc": {
    "kind": "dev",
    "methods": {
      "isOwner()": {
        "returns": {
          "_0": "true if `msg.sender` is the owner of the contract."
        }
      },
      "owner()": {
        "returns": {
          "_0": "the address of the owner."
        }
      },
      "renounceOwnership()": {
        "details": "Allows the current owner to relinquish control of the contract."
      },
      "transferOwnership(address)": {
        "details": "Allows the current owner to transfer control of the contract to a newOwner.",
        "params": {
          "newOwner": "The address to transfer ownership to."
        }
      }
    },
    "version": 1
  },
  "userdoc": {
    "kind": "user",
    "methods": {
      "renounceOwnership()": {
        "notice": "Renouncing to ownership will leave the contract without an owner. It will not be possible to call the functions with the `onlyOwner` modifier anymore."
      }
    },
    "version": 1
  }
}