{
  "contractName": "StrawberryCharity",
  "abi": [
    {
      "inputs": [
        {
          "internalType": "string",
          "name": "_name",
          "type": "string"
        },
        {
          "internalType": "string",
          "name": "_image",
          "type": "string"
        },
        {
          "internalType": "string",
          "name": "_description",
          "type": "string"
        },
        {
          "internalType": "address payable",
          "name": "_beneficiary",
          "type": "address"
        },
        {
          "internalType": "address",
          "name": "_custodian",
          "type": "address"
        }
      ],
      "stateMutability": "nonpayable",
      "type": "constructor"
    },
    {
      "anonymous": false,
      "inputs": [
        {
          "indexed": true,
          "internalType": "address",
          "name": "donor",
          "type": "address"
        },
        {
          "indexed": false,
          "internalType": "uint256",
          "name": "value",
          "type": "uint256"
        }
      ],
      "name": "DonationReceived",
      "type": "event"
    },
    {
      "anonymous": false,
      "inputs": [
        {
          "indexed": false,
          "internalType": "uint256",
          "name": "donorId",
          "type": "uint256"
        }
      ],
      "name": "DonorCreated",
      "type": "event"
    },
    {
      "anonymous": false,
      "inputs": [
        {
          "indexed": false,
          "internalType": "uint256",
          "name": "itemId",
          "type": "uint256"
        },
        {
          "indexed": false,
          "internalType": "uint256",
          "name": "itemColorId",
          "type": "uint256"
        }
      ],
      "name": "ItemAdded",
      "type": "event"
    },
    {
      "anonymous": false,
      "inputs": [
        {
          "indexed": true,
          "internalType": "address",
          "name": "previousOwner",
          "type": "address"
        },
        {
          "indexed": true,
          "internalType": "address",
          "name": "newOwner",
          "type": "address"
        }
      ],
      "name": "OwnershipTransferred",
      "type": "event"
    },
    {
      "anonymous": false,
      "inputs": [
        {
          "indexed": false,
          "internalType": "uint256",
          "name": "paletteId",
          "type": "uint256"
        }
      ],
      "name": "PaletteCreated",
      "type": "event"
    },
    {
      "anonymous": false,
      "inputs": [
        {
          "indexed": false,
          "internalType": "uint256",
          "name": "amount",
          "type": "uint256"
        }
      ],
      "name": "Withdraw",
      "type": "event"
    },
    {
      "inputs": [
        {
          "internalType": "uint256",
          "name": "_donorId",
          "type": "uint256"
        }
      ],
      "name": "_addItem",
      "outputs": [],
      "stateMutability": "nonpayable",
      "type": "function"
    },
    {
      "inputs": [
        {
          "internalType": "address",
          "name": "_donorAddress",
          "type": "address"
        }
      ],
      "name": "_createDonor",
      "outputs": [],
      "stateMutability": "nonpayable",
      "type": "function"
    },
    {
      "inputs": [
        {
          "internalType": "address",
          "name": "",
          "type": "address"
        },
        {
          "internalType": "uint256",
          "name": "",
          "type": "uint256"
        }
      ],
      "name": "_donations",
      "outputs": [
        {
          "internalType": "uint256",
          "name": "value",
          "type": "uint256"
        },
        {
          "internalType": "uint256",
          "name": "date",
          "type": "uint256"
        }
      ],
      "stateMutability": "view",
      "type": "function"
    },
    {
      "inputs": [
        {
          "internalType": "string[5]",
          "name": "_colors",
          "type": "string[5]"
        }
      ],
      "name": "addPalette",
      "outputs": [],
      "stateMutability": "nonpayable",
      "type": "function"
    },
    {
      "inputs": [],
      "name": "beneficiary",
      "outputs": [
        {
          "internalType": "address payable",
          "name": "",
          "type": "address"
        }
      ],
      "stateMutability": "view",
      "type": "function"
    },
    {
      "inputs": [
        {
          "internalType": "uint256",
          "name": "_donorId",
          "type": "uint256"
        },
        {
          "internalType": "uint256",
          "name": "_paletteId",
          "type": "uint256"
        }
      ],
      "name": "changeColorPalette",
      "outputs": [],
      "stateMutability": "payable",
      "type": "function"
    },
    {
      "inputs": [],
      "name": "colorAmountPerPalette",
      "outputs": [
        {
          "internalType": "uint256",
          "name": "",
          "type": "uint256"
        }
      ],
      "stateMutability": "view",
      "type": "function"
    },
    {
      "inputs": [],
      "name": "description",
      "outputs": [
        {
          "internalType": "string",
          "name": "",
          "type": "string"
        }
      ],
      "stateMutability": "view",
      "type": "function"
    },
    {
      "inputs": [],
      "name": "donationsCount",
      "outputs": [
        {
          "internalType": "uint256",
          "name": "",
          "type": "uint256"
        }
      ],
      "stateMutability": "view",
      "type": "function"
    },
    {
      "inputs": [
        {
          "internalType": "address",
          "name": "_owner",
          "type": "address"
        }
      ],
      "name": "getOwnerByAddress",
      "outputs": [
        {
          "internalType": "uint256",
          "name": "",
          "type": "uint256"
        }
      ],
      "stateMutability": "view",
      "type": "function"
    },
    {
      "inputs": [],
      "name": "image",
      "outputs": [
        {
          "internalType": "string",
          "name": "",
          "type": "string"
        }
      ],
      "stateMutability": "view",
      "type": "function"
    },
    {
      "inputs": [],
      "name": "isOwner",
      "outputs": [
        {
          "internalType": "bool",
          "name": "",
          "type": "bool"
        }
      ],
      "stateMutability": "view",
      "type": "function"
    },
    {
      "inputs": [],
      "name": "name",
      "outputs": [
        {
          "internalType": "string",
          "name": "",
          "type": "string"
        }
      ],
      "stateMutability": "view",
      "type": "function"
    },
    {
      "inputs": [],
      "name": "owner",
      "outputs": [
        {
          "internalType": "address",
          "name": "",
          "type": "address"
        }
      ],
      "stateMutability": "view",
      "type": "function"
    },
    {
      "inputs": [
        {
          "internalType": "uint256",
          "name": "",
          "type": "uint256"
        }
      ],
      "name": "palettes",
      "outputs": [
        {
          "internalType": "uint256",
          "name": "",
          "type": "uint256"
        }
      ],
      "stateMutability": "view",
      "type": "function"
    },
    {
      "inputs": [],
      "name": "renounceOwnership",
      "outputs": [],
      "stateMutability": "nonpayable",
      "type": "function"
    },
    {
      "inputs": [
        {
          "internalType": "address",
          "name": "newOwner",
          "type": "address"
        }
      ],
      "name": "transferOwnership",
      "outputs": [],
      "stateMutability": "nonpayable",
      "type": "function"
    },
    {
      "inputs": [],
      "name": "donate",
      "outputs": [],
      "stateMutability": "payable",
      "type": "function"
    },
    {
      "inputs": [
        {
          "internalType": "address payable",
          "name": "_beneficiary",
          "type": "address"
        }
      ],
      "name": "changeBeneficiary",
      "outputs": [],
      "stateMutability": "nonpayable",
      "type": "function"
    },
    {
      "inputs": [],
      "name": "withdraw",
      "outputs": [],
      "stateMutability": "nonpayable",
      "type": "function"
    }
  ],
  "bytecode": "0x60806040526005600155600060025566038d7ea4c680006006556000600e553480156200002b57600080fd5b5060405162002c8438038062002c84833981810160405281019062000051919062000be5565b336000806101000a81548173ffffffffffffffffffffffffffffffffffffffff021916908373ffffffffffffffffffffffffffffffffffffffff16021790555060008054906101000a900473ffffffffffffffffffffffffffffffffffffffff1673ffffffffffffffffffffffffffffffffffffffff16600073ffffffffffffffffffffffffffffffffffffffff167f8be0079c531659141344cd1fd0a4f28419497f9722a3daafe3b4186f6b6457e060405160405180910390a36200024c6040518060a001604052806040518060400160405280600881526020017f307838343545433200000000000000000000000000000000000000000000000081525081526020016040518060400160405280600881526020017f307834423434353300000000000000000000000000000000000000000000000081525081526020016040518060400160405280600881526020017f307842304138423900000000000000000000000000000000000000000000000081525081526020016040518060400160405280600881526020017f307843333441333600000000000000000000000000000000000000000000000081525081526020016040518060400160405280600881526020017f30784646383036360000000000000000000000000000000000000000000000008152508152506200069f60201b60201c565b6200038c6040518060a001604052806040518060400160405280600881526020017f307836393936373400000000000000000000000000000000000000000000000081525081526020016040518060400160405280600881526020017f307833423441334600000000000000000000000000000000000000000000000081525081526020016040518060400160405280600881526020017f307839454146413200000000000000000000000000000000000000000000000081525081526020016040518060400160405280600881526020017f307834453934423300000000000000000000000000000000000000000000000081525081526020016040518060400160405280600881526020017f30783033363137450000000000000000000000000000000000000000000000008152508152506200069f60201b60201c565b620004cc6040518060a001604052806040518060400160405280600881526020017f307832374236443800000000000000000000000000000000000000000000000081525081526020016040518060400160405280600881526020017f307833333441353200000000000000000000000000000000000000000000000081525081526020016040518060400160405280600881526020017f307839364146423800000000000000000000000000000000000000000000000081525081526020016040518060400160405280600881526020017f307843343938443400000000000000000000000000000000000000000000000081525081526020016040518060400160405280600881526020017f30783845363439440000000000000000000000000000000000000000000000008152508152506200069f60201b60201c565b6200060c6040518060a001604052806040518060400160405280600881526020017f307835414135354200000000000000000000000000000000000000000000000081525081526020016040518060400160405280600881526020017f307832343935364400000000000000000000000000000000000000000000000081525081526020016040518060400160405280600881526020017f307830303833373700000000000000000000000000000000000000000000000081525081526020016040518060400160405280600881526020017f307830303646373700000000000000000000000000000000000000000000000081525081526020016040518060400160405280600881526020017f30783143354236430000000000000000000000000000000000000000000000008152508152506200069f60201b60201c565b84600a90816200061d919062000f15565b5083600b90816200062f919062000f15565b5082600c908162000641919062000f15565b5081600d60006101000a81548173ffffffffffffffffffffffffffffffffffffffff021916908373ffffffffffffffffffffffffffffffffffffffff16021790555062000694816200076d60201b60201c565b505050505062001094565b620006af6200086460201b60201c565b620006b957600080fd5b60038080549050908060018154018082558091505060019003906000526020600020016000909190919091505580600460006001600380549050620006ff91906200102b565b81526020019081526020016000209060056200071d929190620008bb565b507fe1c7c98cdeded3a25c1c7ada5b85013b2c7c9879f1678129a413ea685d0fcc7860016003805490506200075391906200102b565b60405162000762919062001077565b60405180910390a150565b600073ffffffffffffffffffffffffffffffffffffffff168173ffffffffffffffffffffffffffffffffffffffff1603620007a757600080fd5b8073ffffffffffffffffffffffffffffffffffffffff1660008054906101000a900473ffffffffffffffffffffffffffffffffffffffff1673ffffffffffffffffffffffffffffffffffffffff167f8be0079c531659141344cd1fd0a4f28419497f9722a3daafe3b4186f6b6457e060405160405180910390a3806000806101000a81548173ffffffffffffffffffffffffffffffffffffffff021916908373ffffffffffffffffffffffffffffffffffffffff16021790555050565b60008060009054906101000a900473ffffffffffffffffffffffffffffffffffffffff1673ffffffffffffffffffffffffffffffffffffffff163373ffffffffffffffffffffffffffffffffffffffff1614905090565b82805482825590600052602060002090810192821562000908579160200282015b8281111562000907578251829081620008f6919062000f15565b5091602001919060010190620008dc565b5b5090506200091791906200091b565b5090565b5b808211156200093f576000818162000935919062000943565b506001016200091c565b5090565b508054620009519062000d04565b6000825580601f1062000965575062000986565b601f01602090049060005260206000209081019062000985919062000989565b5b50565b5b80821115620009a45760008160009055506001016200098a565b5090565b6000604051905090565b600080fd5b600080fd5b600080fd5b600080fd5b6000601f19601f8301169050919050565b7f4e487b7100000000000000000000000000000000000000000000000000000000600052604160045260246000fd5b62000a1182620009c6565b810181811067ffffffffffffffff8211171562000a335762000a32620009d7565b5b80604052505050565b600062000a48620009a8565b905062000a56828262000a06565b919050565b600067ffffffffffffffff82111562000a795762000a78620009d7565b5b62000a8482620009c6565b9050602081019050919050565b60005b8381101562000ab157808201518184015260208101905062000a94565b60008484015250505050565b600062000ad462000ace8462000a5b565b62000a3c565b90508281526020810184848401111562000af35762000af2620009c1565b5b62000b0084828562000a91565b509392505050565b600082601f83011262000b205762000b1f620009bc565b5b815162000b3284826020860162000abd565b91505092915050565b600073ffffffffffffffffffffffffffffffffffffffff82169050919050565b600062000b688262000b3b565b9050919050565b62000b7a8162000b5b565b811462000b8657600080fd5b50565b60008151905062000b9a8162000b6f565b92915050565b600062000bad8262000b3b565b9050919050565b62000bbf8162000ba0565b811462000bcb57600080fd5b50565b60008151905062000bdf8162000bb4565b92915050565b600080600080600060a0868803121562000c045762000c03620009b2565b5b600086015167ffffffffffffffff81111562000c255762000c24620009b7565b5b62000c338882890162000b08565b955050602086015167ffffffffffffffff81111562000c575762000c56620009b7565b5b62000c658882890162000b08565b945050604086015167ffffffffffffffff81111562000c895762000c88620009b7565b5b62000c978882890162000b08565b935050606062000caa8882890162000b89565b925050608062000cbd8882890162000bce565b9150509295509295909350565b600081519050919050565b7f4e487b7100000000000000000000000000000000000000000000000000000000600052602260045260246000fd5b6000600282049050600182168062000d1d57607f821691505b60208210810362000d335762000d3262000cd5565b5b50919050565b60008190508160005260206000209050919050565b60006020601f8301049050919050565b600082821b905092915050565b60006008830262000d9d7fffffffffffffffffffffffffffffffffffffffffffffffffffffffffffffffff8262000d5e565b62000da9868362000d5e565b95508019841693508086168417925050509392505050565b6000819050919050565b6000819050919050565b600062000df662000df062000dea8462000dc1565b62000dcb565b62000dc1565b9050919050565b6000819050919050565b62000e128362000dd5565b62000e2a62000e218262000dfd565b84845462000d6b565b825550505050565b600090565b62000e4162000e32565b62000e4e81848462000e07565b505050565b5b8181101562000e765762000e6a60008262000e37565b60018101905062000e54565b5050565b601f82111562000ec55762000e8f8162000d39565b62000e9a8462000d4e565b8101602085101562000eaa578190505b62000ec262000eb98562000d4e565b83018262000e53565b50505b505050565b600082821c905092915050565b600062000eea6000198460080262000eca565b1980831691505092915050565b600062000f05838362000ed7565b9150826002028217905092915050565b62000f208262000cca565b67ffffffffffffffff81111562000f3c5762000f3b620009d7565b5b62000f48825462000d04565b62000f5582828562000e7a565b600060209050601f83116001811462000f8d576000841562000f78578287015190505b62000f84858262000ef7565b86555062000ff4565b601f19841662000f9d8662000d39565b60005b8281101562000fc75784890151825560018201915060208501945060208101905062000fa0565b8683101562000fe7578489015162000fe3601f89168262000ed7565b8355505b6001600288020188555050505b505050505050565b7f4e487b7100000000000000000000000000000000000000000000000000000000600052601160045260246000fd5b6000620010388262000dc1565b9150620010458362000dc1565b925082820390508181111562001060576200105f62000ffc565b5b92915050565b620010718162000dc1565b82525050565b60006020820190506200108e600083018462001066565b92915050565b611be080620010a46000396000f3fe60806040526004361061011f5760003560e01c806380cef3cc116100a0578063dc07065711610064578063dc07065714610391578063dcf7eefe146103ba578063ed88c68e146103f7578063f2fde38b14610401578063f3ccaac01461042a5761011f565b806380cef3cc146102ab5780638da5cb5b146102d45780638f32d59b146102ff578063b8f7f42a1461032a578063dc0661be146103535761011f565b80634315399f116100e75780634315399f146101e757806360063cc6146102035780636f4421541461022c578063715018a6146102695780637284e416146102805761011f565b806306fdde0314610124578063109c12381461014f5780631f5225951461017a57806338af3eed146101a55780633ccfd60b146101d0575b600080fd5b34801561013057600080fd5b50610139610455565b604051610146919061119d565b60405180910390f35b34801561015b57600080fd5b506101646104e3565b60405161017191906111d8565b60405180910390f35b34801561018657600080fd5b5061018f6104e9565b60405161019c91906111d8565b60405180910390f35b3480156101b157600080fd5b506101ba6104ef565b6040516101c79190611234565b60405180910390f35b3480156101dc57600080fd5b506101e5610515565b005b61020160048036038101906101fc919061128f565b6105ce565b005b34801561020f57600080fd5b5061022a600480360381019061022591906112cf565b61061b565b005b34801561023857600080fd5b50610253600480360381019061024e919061133a565b610681565b60405161026091906111d8565b60405180910390f35b34801561027557600080fd5b5061027e6106ca565b005b34801561028c57600080fd5b50610295610799565b6040516102a2919061119d565b60405180910390f35b3480156102b757600080fd5b506102d260048036038101906102cd919061133a565b610827565b005b3480156102e057600080fd5b506102e961097b565b6040516102f69190611376565b60405180910390f35b34801561030b57600080fd5b506103146109a4565b60405161032191906113ac565b60405180910390f35b34801561033657600080fd5b50610351600480360381019061034c91906115d0565b6109fb565b005b34801561035f57600080fd5b5061037a60048036038101906103759190611619565b610ab8565b604051610388929190611659565b60405180910390f35b34801561039d57600080fd5b506103b860048036038101906103b391906116ae565b610af9565b005b3480156103c657600080fd5b506103e160048036038101906103dc91906112cf565b610b4e565b6040516103ee91906111d8565b60405180910390f35b6103ff610b72565b005b34801561040d57600080fd5b506104286004803603810190610423919061133a565b610cce565b005b34801561043657600080fd5b5061043f610ceb565b60405161044c919061119d565b60405180910390f35b600a80546104629061170a565b80601f016020809104026020016040519081016040528092919081815260200182805461048e9061170a565b80156104db5780601f106104b0576101008083540402835291602001916104db565b820191906000526020600020905b8154815290600101906020018083116104be57829003601f168201915b505050505081565b60015481565b600e5481565b600d60009054906101000a900473ffffffffffffffffffffffffffffffffffffffff1681565b61051d6109a4565b61052657600080fd5b6000479050600d60009054906101000a900473ffffffffffffffffffffffffffffffffffffffff1673ffffffffffffffffffffffffffffffffffffffff166108fc829081150290604051600060405180830381858888f19350505050158015610593573d6000803e3d6000fd5b507f5b6b431d4476a211bb7d41c20d1aab9ae2321deee0d20be3d9fc9b1093fa6e3d816040516105c391906111d8565b60405180910390a150565b60065434146105dc57600080fd5b60038054905081106105ed57600080fd5b80600783815481106106025761060161173b565b5b9060005260206000209060020201600001819055505050565b600061062f610628610d79565b6000610d96565b9050600782815481106106455761064461173b565b5b90600052602060002090600202016001018190806001815401808255809150506001900390600052602060002001600090919091909150555050565b6000600860008373ffffffffffffffffffffffffffffffffffffffff1673ffffffffffffffffffffffffffffffffffffffff168152602001908152602001600020549050919050565b6106d26109a4565b6106db57600080fd5b600073ffffffffffffffffffffffffffffffffffffffff1660008054906101000a900473ffffffffffffffffffffffffffffffffffffffff1673ffffffffffffffffffffffffffffffffffffffff167f8be0079c531659141344cd1fd0a4f28419497f9722a3daafe3b4186f6b6457e060405160405180910390a360008060006101000a81548173ffffffffffffffffffffffffffffffffffffffff021916908373ffffffffffffffffffffffffffffffffffffffff160217905550565b600c80546107a69061170a565b80601f01602080910402602001604051908101604052809291908181526020018280546107d29061170a565b801561081f5780601f106107f45761010080835404028352916020019161081f565b820191906000526020600020905b81548152906001019060200180831161080257829003601f168201915b505050505081565b6000600167ffffffffffffffff811115610844576108436113cc565b5b6040519080825280602002602001820160405280156108725781602001602082028036833780820191505090505b5090506007604051806040016040528061088a610e71565b81526020018381525090806001815401808255809150506001900390600052602060002090600202016000909190919091506000820151816000015560208201518160010190805190602001906108e2929190610fe6565b505050600060016007805490506108f99190611799565b905080600860008573ffffffffffffffffffffffffffffffffffffffff1673ffffffffffffffffffffffffffffffffffffffff168152602001908152602001600020819055507faf101d6eb202a80391aeb3bccfdf77a63a9dd196386bf69ae819408c466875b68160405161096e91906111d8565b60405180910390a1505050565b60008060009054906101000a900473ffffffffffffffffffffffffffffffffffffffff16905090565b60008060009054906101000a900473ffffffffffffffffffffffffffffffffffffffff1673ffffffffffffffffffffffffffffffffffffffff163373ffffffffffffffffffffffffffffffffffffffff1614905090565b610a036109a4565b610a0c57600080fd5b60038080549050908060018154018082558091505060019003906000526020600020016000909190919091505580600460006001600380549050610a509190611799565b8152602001908152602001600020906005610a6c929190611033565b507fe1c7c98cdeded3a25c1c7ada5b85013b2c7c9879f1678129a413ea685d0fcc786001600380549050610aa09190611799565b604051610aad91906111d8565b60405180910390a150565b600f6020528160005260406000208181548110610ad457600080fd5b9060005260206000209060020201600091509150508060000154908060010154905082565b610b016109a4565b610b0a57600080fd5b80600d60006101000a81548173ffffffffffffffffffffffffffffffffffffffff021916908373ffffffffffffffffffffffffffffffffffffffff16021790555050565b60038181548110610b5e57600080fd5b906000526020600020016000915090505481565b60006040518060400160405280348152602001428152509050600f60003373ffffffffffffffffffffffffffffffffffffffff1673ffffffffffffffffffffffffffffffffffffffff16815260200190815260200160002081908060018154018082558091505060019003906000526020600020906002020160009091909190915060008201518160000155602082015181600101555050600e6000815480929190610c1d906117cd565b9190505550600960003373ffffffffffffffffffffffffffffffffffffffff1673ffffffffffffffffffffffffffffffffffffffff16815260200190815260200160002060009054906101000a900460ff16610c7d57610c7c33610827565b5b3373ffffffffffffffffffffffffffffffffffffffff167f264f630d9efa0d07053a31163641d9fcc0adafc9d9e76f1c37c2ce3a558d2c5234604051610cc391906111d8565b60405180910390a250565b610cd66109a4565b610cdf57600080fd5b610ce881610e92565b50565b600b8054610cf89061170a565b80601f0160208091040260200160405190810160405280929190818152602001828054610d249061170a565b8015610d715780601f10610d4657610100808354040283529160200191610d71565b820191906000526020600020905b815481529060010190602001808311610d5457829003601f168201915b505050505081565b6000610d9160018054610d8c9190611799565b610f88565b905090565b6000600560405180606001604052803373ffffffffffffffffffffffffffffffffffffffff16815260200185815260200184815250908060018154018082558091505060019003906000526020600020906003020160009091909190915060008201518160000160006101000a81548173ffffffffffffffffffffffffffffffffffffffff021916908373ffffffffffffffffffffffffffffffffffffffff1602179055506020820151816001015560408201518160020155505060006001600580549050610e659190611799565b90508091505092915050565b6000610e8d6001600380549050610e889190611799565b610f88565b905090565b600073ffffffffffffffffffffffffffffffffffffffff168173ffffffffffffffffffffffffffffffffffffffff1603610ecb57600080fd5b8073ffffffffffffffffffffffffffffffffffffffff1660008054906101000a900473ffffffffffffffffffffffffffffffffffffffff1673ffffffffffffffffffffffffffffffffffffffff167f8be0079c531659141344cd1fd0a4f28419497f9722a3daafe3b4186f6b6457e060405160405180910390a3806000806101000a81548173ffffffffffffffffffffffffffffffffffffffff021916908373ffffffffffffffffffffffffffffffffffffffff16021790555050565b600060026000815480929190610f9d906117cd565b919050555081424433600254604051602001610fbc949392919061187e565b6040516020818303038152906040528051906020012060001c610fdf91906118fb565b9050919050565b828054828255906000526020600020908101928215611022579160200282015b82811115611021578251825591602001919060010190611006565b5b50905061102f919061108c565b5090565b82805482825590600052602060002090810192821561107b579160200282015b8281111561107a57825182908161106a9190611ad8565b5091602001919060010190611053565b5b50905061108891906110a9565b5090565b5b808211156110a557600081600090555060010161108d565b5090565b5b808211156110c957600081816110c091906110cd565b506001016110aa565b5090565b5080546110d99061170a565b6000825580601f106110eb575061110a565b601f016020900490600052602060002090810190611109919061108c565b5b50565b600081519050919050565b600082825260208201905092915050565b60005b8381101561114757808201518184015260208101905061112c565b60008484015250505050565b6000601f19601f8301169050919050565b600061116f8261110d565b6111798185611118565b9350611189818560208601611129565b61119281611153565b840191505092915050565b600060208201905081810360008301526111b78184611164565b905092915050565b6000819050919050565b6111d2816111bf565b82525050565b60006020820190506111ed60008301846111c9565b92915050565b600073ffffffffffffffffffffffffffffffffffffffff82169050919050565b600061121e826111f3565b9050919050565b61122e81611213565b82525050565b60006020820190506112496000830184611225565b92915050565b6000604051905090565b600080fd5b600080fd5b61126c816111bf565b811461127757600080fd5b50565b60008135905061128981611263565b92915050565b600080604083850312156112a6576112a5611259565b5b60006112b48582860161127a565b92505060206112c58582860161127a565b9150509250929050565b6000602082840312156112e5576112e4611259565b5b60006112f38482850161127a565b91505092915050565b6000611307826111f3565b9050919050565b611317816112fc565b811461132257600080fd5b50565b6000813590506113348161130e565b92915050565b6000602082840312156113505761134f611259565b5b600061135e84828501611325565b91505092915050565b611370816112fc565b82525050565b600060208201905061138b6000830184611367565b92915050565b60008115159050919050565b6113a681611391565b82525050565b60006020820190506113c1600083018461139d565b92915050565b600080fd5b7f4e487b7100000000000000000000000000000000000000000000000000000000600052604160045260246000fd5b61140482611153565b810181811067ffffffffffffffff82111715611423576114226113cc565b5b80604052505050565b600061143661124f565b905061144282826113fb565b919050565b600067ffffffffffffffff821115611462576114616113cc565b5b602082029050919050565b600080fd5b600080fd5b600067ffffffffffffffff821115611492576114916113cc565b5b61149b82611153565b9050602081019050919050565b82818337600083830152505050565b60006114ca6114c584611477565b61142c565b9050828152602081018484840111156114e6576114e5611472565b5b6114f18482856114a8565b509392505050565b600082601f83011261150e5761150d6113c7565b5b813561151e8482602086016114b7565b91505092915050565b600061153a61153584611447565b61142c565b905080602084028301858111156115545761155361146d565b5b835b8181101561159b57803567ffffffffffffffff811115611579576115786113c7565b5b80860161158689826114f9565b85526020850194505050602081019050611556565b5050509392505050565b600082601f8301126115ba576115b96113c7565b5b60056115c7848285611527565b91505092915050565b6000602082840312156115e6576115e5611259565b5b600082013567ffffffffffffffff8111156116045761160361125e565b5b611610848285016115a5565b91505092915050565b600080604083850312156116305761162f611259565b5b600061163e85828601611325565b925050602061164f8582860161127a565b9150509250929050565b600060408201905061166e60008301856111c9565b61167b60208301846111c9565b9392505050565b61168b81611213565b811461169657600080fd5b50565b6000813590506116a881611682565b92915050565b6000602082840312156116c4576116c3611259565b5b60006116d284828501611699565b91505092915050565b7f4e487b7100000000000000000000000000000000000000000000000000000000600052602260045260246000fd5b6000600282049050600182168061172257607f821691505b602082108103611735576117346116db565b5b50919050565b7f4e487b7100000000000000000000000000000000000000000000000000000000600052603260045260246000fd5b7f4e487b7100000000000000000000000000000000000000000000000000000000600052601160045260246000fd5b60006117a4826111bf565b91506117af836111bf565b92508282039050818111156117c7576117c661176a565b5b92915050565b60006117d8826111bf565b91507fffffffffffffffffffffffffffffffffffffffffffffffffffffffffffffffff820361180a5761180961176a565b5b600182019050919050565b6000819050919050565b61183061182b826111bf565b611815565b82525050565b60008160601b9050919050565b600061184e82611836565b9050919050565b600061186082611843565b9050919050565b611878611873826112fc565b611855565b82525050565b600061188a828761181f565b60208201915061189a828661181f565b6020820191506118aa8285611867565b6014820191506118ba828461181f565b60208201915081905095945050505050565b7f4e487b7100000000000000000000000000000000000000000000000000000000600052601260045260246000fd5b6000611906826111bf565b9150611911836111bf565b925082611921576119206118cc565b5b828206905092915050565b60008190508160005260206000209050919050565b60006020601f8301049050919050565b600082821b905092915050565b60006008830261198e7fffffffffffffffffffffffffffffffffffffffffffffffffffffffffffffffff82611951565b6119988683611951565b95508019841693508086168417925050509392505050565b6000819050919050565b60006119d56119d06119cb846111bf565b6119b0565b6111bf565b9050919050565b6000819050919050565b6119ef836119ba565b611a036119fb826119dc565b84845461195e565b825550505050565b600090565b611a18611a0b565b611a238184846119e6565b505050565b5b81811015611a4757611a3c600082611a10565b600181019050611a29565b5050565b601f821115611a8c57611a5d8161192c565b611a6684611941565b81016020851015611a75578190505b611a89611a8185611941565b830182611a28565b50505b505050565b600082821c905092915050565b6000611aaf60001984600802611a91565b1980831691505092915050565b6000611ac88383611a9e565b9150826002028217905092915050565b611ae18261110d565b67ffffffffffffffff811115611afa57611af96113cc565b5b611b04825461170a565b611b0f828285611a4b565b600060209050601f831160018114611b425760008415611b30578287015190505b611b3a8582611abc565b865550611ba2565b601f198416611b508661192c565b60005b82811015611b7857848901518255600182019150602085019450602081019050611b53565b86831015611b955784890151611b91601f891682611a9e565b8355505b6001600288020188555050505b50505050505056fea264697066735822122057e6f4a6e00c64cd7bcc355ff29150f192bfb0d72ad000e30a6d15f0425cd3a964736f6c63430008120033",
  "immutableReferences": {},
  "source": "// SPDX-License-Identifier: GPL-3.0\n\npragma solidity >=0.7.0 <0.9.0;\n\nimport \"./Ownable.sol\";\nimport \"./StrawberryDonorFactory.sol\";\n\ncontract StrawberryCharity is Ownable, StrawberryDonorFactory {\n    struct Donation {\n        uint256 value;\n        uint256 date;\n    }\n\n    string public name;\n    string public image;\n    string public description;\n    address payable public beneficiary;\n    uint256 public donationsCount = 0;\n\n    mapping(address => Donation[]) public _donations;\n\n    event DonationReceived(address indexed donor, uint256 value);\n    event Withdraw(uint256 amount);\n\n    constructor(\n        string memory _name,\n        string memory _image,\n        string memory _description,\n        address payable _beneficiary,\n        address _custodian\n    ) {\n        name = _name;\n        image = _image;\n        description = _description;\n        beneficiary = _beneficiary;\n        _transferOwnership(_custodian);\n    }\n\n    function donate() external payable {\n        Donation memory donation = Donation({\n            value: msg.value,\n            date: block.timestamp\n        });\n\n        _donations[msg.sender].push(donation);\n        donationsCount++;\n\n        if (!donorExists[msg.sender]) {\n            _createDonor(msg.sender);\n        }\n\n        emit DonationReceived(msg.sender, msg.value);\n    }\n\n    function changeBeneficiary(address payable _beneficiary) external onlyOwner {\n        beneficiary = _beneficiary;\n    }\n\n    function withdraw() external onlyOwner {\n        uint256 balance = address(this).balance;\n        beneficiary.transfer(balance);\n        emit Withdraw(balance);\n    }\n}",
  "sourcePath": "/Users/elenakapilevich/Documents/strawberry/strawberryContract/contracts/StrawberryCharity.sol",
  "compiler": {
    "name": "solc",
    "version": "0.8.18+commit.87f61d96.Emscripten.clang"
  },
  "schemaVersion": "3.4.13",
  "updatedAt": "2023-04-15T07:51:03.878Z",
  "devdoc": {
    "kind": "dev",
    "methods": {
      "isOwner()": {
        "returns": {
          "_0": "true if `msg.sender` is the owner of the contract."
        }
      },
      "owner()": {
        "returns": {
          "_0": "the address of the owner."
        }
      },
      "renounceOwnership()": {
        "details": "Allows the current owner to relinquish control of the contract."
      },
      "transferOwnership(address)": {
        "details": "Allows the current owner to transfer control of the contract to a newOwner.",
        "params": {
          "newOwner": "The address to transfer ownership to."
        }
      }
    },
    "version": 1
  },
  "userdoc": {
    "kind": "user",
    "methods": {
      "renounceOwnership()": {
        "notice": "Renouncing to ownership will leave the contract without an owner. It will not be possible to call the functions with the `onlyOwner` modifier anymore."
      }
    },
    "version": 1
  }
}