{
  "contractName": "StrawberryDonorFactory",
  "abi": [
    {
      "anonymous": false,
      "inputs": [
        {
          "indexed": false,
          "internalType": "uint256",
          "name": "donorId",
          "type": "uint256"
        }
      ],
      "name": "DonorCreated",
      "type": "event"
    },
    {
      "anonymous": false,
      "inputs": [
        {
          "indexed": false,
          "internalType": "uint256",
          "name": "itemId",
          "type": "uint256"
        },
        {
          "indexed": false,
          "internalType": "uint256",
          "name": "itemColorId",
          "type": "uint256"
        }
      ],
      "name": "ItemAdded",
      "type": "event"
    },
    {
      "anonymous": false,
      "inputs": [
        {
          "indexed": true,
          "internalType": "address",
          "name": "previousOwner",
          "type": "address"
        },
        {
          "indexed": true,
          "internalType": "address",
          "name": "newOwner",
          "type": "address"
        }
      ],
      "name": "OwnershipTransferred",
      "type": "event"
    },
    {
      "anonymous": false,
      "inputs": [
        {
          "indexed": false,
          "internalType": "uint256",
          "name": "paletteId",
          "type": "uint256"
        }
      ],
      "name": "PaletteCreated",
      "type": "event"
    },
    {
      "inputs": [
        {
          "internalType": "string[5]",
          "name": "_colors",
          "type": "string[5]"
        }
      ],
      "name": "addPalette",
      "outputs": [],
      "stateMutability": "nonpayable",
      "type": "function"
    },
    {
      "inputs": [],
      "name": "colorAmountPerPalette",
      "outputs": [
        {
          "internalType": "uint256",
          "name": "",
          "type": "uint256"
        }
      ],
      "stateMutability": "view",
      "type": "function"
    },
    {
      "inputs": [],
      "name": "isOwner",
      "outputs": [
        {
          "internalType": "bool",
          "name": "",
          "type": "bool"
        }
      ],
      "stateMutability": "view",
      "type": "function"
    },
    {
      "inputs": [],
      "name": "owner",
      "outputs": [
        {
          "internalType": "address",
          "name": "",
          "type": "address"
        }
      ],
      "stateMutability": "view",
      "type": "function"
    },
    {
      "inputs": [
        {
          "internalType": "uint256",
          "name": "",
          "type": "uint256"
        }
      ],
      "name": "palettes",
      "outputs": [
        {
          "internalType": "uint256",
          "name": "",
          "type": "uint256"
        }
      ],
      "stateMutability": "view",
      "type": "function"
    },
    {
      "inputs": [],
      "name": "renounceOwnership",
      "outputs": [],
      "stateMutability": "nonpayable",
      "type": "function"
    },
    {
      "inputs": [
        {
          "internalType": "address",
          "name": "newOwner",
          "type": "address"
        }
      ],
      "name": "transferOwnership",
      "outputs": [],
      "stateMutability": "nonpayable",
      "type": "function"
    },
    {
      "inputs": [
        {
          "internalType": "address",
          "name": "_owner",
          "type": "address"
        }
      ],
      "name": "getOwnerByAddress",
      "outputs": [
        {
          "internalType": "uint256",
          "name": "",
          "type": "uint256"
        }
      ],
      "stateMutability": "view",
      "type": "function"
    },
    {
      "inputs": [
        {
          "internalType": "uint256",
          "name": "_donorId",
          "type": "uint256"
        },
        {
          "internalType": "uint256",
          "name": "_paletteId",
          "type": "uint256"
        }
      ],
      "name": "changeColorPalette",
      "outputs": [],
      "stateMutability": "payable",
      "type": "function"
    },
    {
      "inputs": [
        {
          "internalType": "uint256",
          "name": "_donorId",
          "type": "uint256"
        }
      ],
      "name": "_addItem",
      "outputs": [],
      "stateMutability": "nonpayable",
      "type": "function"
    },
    {
      "inputs": [
        {
          "internalType": "address",
          "name": "_donorAddress",
          "type": "address"
        }
      ],
      "name": "_createDonor",
      "outputs": [],
      "stateMutability": "nonpayable",
      "type": "function"
    }
  ],
  "bytecode": "0x60806040526005600155600060025566038d7ea4c680006006553480156200002657600080fd5b50336000806101000a81548173ffffffffffffffffffffffffffffffffffffffff021916908373ffffffffffffffffffffffffffffffffffffffff16021790555060008054906101000a900473ffffffffffffffffffffffffffffffffffffffff1673ffffffffffffffffffffffffffffffffffffffff16600073ffffffffffffffffffffffffffffffffffffffff167f8be0079c531659141344cd1fd0a4f28419497f9722a3daafe3b4186f6b6457e060405160405180910390a3620002226040518060a001604052806040518060400160405280600881526020017f307838343545433200000000000000000000000000000000000000000000000081525081526020016040518060400160405280600881526020017f307834423434353300000000000000000000000000000000000000000000000081525081526020016040518060400160405280600881526020017f307842304138423900000000000000000000000000000000000000000000000081525081526020016040518060400160405280600881526020017f307843333441333600000000000000000000000000000000000000000000000081525081526020016040518060400160405280600881526020017f3078464638303636000000000000000000000000000000000000000000000000815250815250620005e860201b60201c565b620003626040518060a001604052806040518060400160405280600881526020017f307836393936373400000000000000000000000000000000000000000000000081525081526020016040518060400160405280600881526020017f307833423441334600000000000000000000000000000000000000000000000081525081526020016040518060400160405280600881526020017f307839454146413200000000000000000000000000000000000000000000000081525081526020016040518060400160405280600881526020017f307834453934423300000000000000000000000000000000000000000000000081525081526020016040518060400160405280600881526020017f3078303336313745000000000000000000000000000000000000000000000000815250815250620005e860201b60201c565b620004a26040518060a001604052806040518060400160405280600881526020017f307832374236443800000000000000000000000000000000000000000000000081525081526020016040518060400160405280600881526020017f307833333441353200000000000000000000000000000000000000000000000081525081526020016040518060400160405280600881526020017f307839364146423800000000000000000000000000000000000000000000000081525081526020016040518060400160405280600881526020017f307843343938443400000000000000000000000000000000000000000000000081525081526020016040518060400160405280600881526020017f3078384536343944000000000000000000000000000000000000000000000000815250815250620005e860201b60201c565b620005e26040518060a001604052806040518060400160405280600881526020017f307835414135354200000000000000000000000000000000000000000000000081525081526020016040518060400160405280600881526020017f307832343935364400000000000000000000000000000000000000000000000081525081526020016040518060400160405280600881526020017f307830303833373700000000000000000000000000000000000000000000000081525081526020016040518060400160405280600881526020017f307830303646373700000000000000000000000000000000000000000000000081525081526020016040518060400160405280600881526020017f3078314335423643000000000000000000000000000000000000000000000000815250815250620005e860201b60201c565b62000bf3565b620005f8620006b660201b60201c565b6200060257600080fd5b6003808054905090806001815401808255809150506001900390600052602060002001600090919091909150558060046000600160038054905062000648919062000833565b8152602001908152602001600020906005620006669291906200070d565b507fe1c7c98cdeded3a25c1c7ada5b85013b2c7c9879f1678129a413ea685d0fcc7860016003805490506200069c919062000833565b604051620006ab91906200087f565b60405180910390a150565b60008060009054906101000a900473ffffffffffffffffffffffffffffffffffffffff1673ffffffffffffffffffffffffffffffffffffffff163373ffffffffffffffffffffffffffffffffffffffff1614905090565b8280548282559060005260206000209081019282156200075a579160200282015b828111156200075957825182908162000748919062000b0c565b50916020019190600101906200072e565b5b5090506200076991906200076d565b5090565b5b8082111562000791576000818162000787919062000795565b506001016200076e565b5090565b508054620007a39062000905565b6000825580601f10620007b75750620007d8565b601f016020900490600052602060002090810190620007d79190620007db565b5b50565b5b80821115620007f6576000816000905550600101620007dc565b5090565b6000819050919050565b7f4e487b7100000000000000000000000000000000000000000000000000000000600052601160045260246000fd5b60006200084082620007fa565b91506200084d83620007fa565b925082820390508181111562000868576200086762000804565b5b92915050565b6200087981620007fa565b82525050565b60006020820190506200089660008301846200086e565b92915050565b600081519050919050565b7f4e487b7100000000000000000000000000000000000000000000000000000000600052604160045260246000fd5b7f4e487b7100000000000000000000000000000000000000000000000000000000600052602260045260246000fd5b600060028204905060018216806200091e57607f821691505b602082108103620009345762000933620008d6565b5b50919050565b60008190508160005260206000209050919050565b60006020601f8301049050919050565b600082821b905092915050565b6000600883026200099e7fffffffffffffffffffffffffffffffffffffffffffffffffffffffffffffffff826200095f565b620009aa86836200095f565b95508019841693508086168417925050509392505050565b6000819050919050565b6000620009ed620009e7620009e184620007fa565b620009c2565b620007fa565b9050919050565b6000819050919050565b62000a0983620009cc565b62000a2162000a1882620009f4565b8484546200096c565b825550505050565b600090565b62000a3862000a29565b62000a45818484620009fe565b505050565b5b8181101562000a6d5762000a6160008262000a2e565b60018101905062000a4b565b5050565b601f82111562000abc5762000a86816200093a565b62000a91846200094f565b8101602085101562000aa1578190505b62000ab962000ab0856200094f565b83018262000a4a565b50505b505050565b600082821c905092915050565b600062000ae16000198460080262000ac1565b1980831691505092915050565b600062000afc838362000ace565b9150826002028217905092915050565b62000b17826200089c565b67ffffffffffffffff81111562000b335762000b32620008a7565b5b62000b3f825462000905565b62000b4c82828562000a71565b600060209050601f83116001811462000b84576000841562000b6f578287015190505b62000b7b858262000aee565b86555062000beb565b601f19841662000b94866200093a565b60005b8281101562000bbe5784890151825560018201915060208501945060208101905062000b97565b8683101562000bde578489015162000bda601f89168262000ace565b8355505b6001600288020188555050505b505050505050565b6113e98062000c036000396000f3fe60806040526004361061009c5760003560e01c806380cef3cc1161006457806380cef3cc146101655780638da5cb5b1461018e5780638f32d59b146101b9578063b8f7f42a146101e4578063dcf7eefe1461020d578063f2fde38b1461024a5761009c565b8063109c1238146100a15780634315399f146100cc57806360063cc6146100e85780636f44215414610111578063715018a61461014e575b600080fd5b3480156100ad57600080fd5b506100b6610273565b6040516100c39190610ac3565b60405180910390f35b6100e660048036038101906100e19190610b1e565b610279565b005b3480156100f457600080fd5b5061010f600480360381019061010a9190610b5e565b6102c6565b005b34801561011d57600080fd5b5061013860048036038101906101339190610be9565b61032c565b6040516101459190610ac3565b60405180910390f35b34801561015a57600080fd5b50610163610375565b005b34801561017157600080fd5b5061018c60048036038101906101879190610be9565b610444565b005b34801561019a57600080fd5b506101a3610598565b6040516101b09190610c25565b60405180910390f35b3480156101c557600080fd5b506101ce6105c1565b6040516101db9190610c5b565b60405180910390f35b3480156101f057600080fd5b5061020b60048036038101906102069190610e90565b610618565b005b34801561021957600080fd5b50610234600480360381019061022f9190610b5e565b6106d5565b6040516102419190610ac3565b60405180910390f35b34801561025657600080fd5b50610271600480360381019061026c9190610be9565b6106f9565b005b60015481565b600654341461028757600080fd5b600380549050811061029857600080fd5b80600783815481106102ad576102ac610ed9565b5b9060005260206000209060020201600001819055505050565b60006102da6102d3610716565b6000610733565b9050600782815481106102f0576102ef610ed9565b5b90600052602060002090600202016001018190806001815401808255809150506001900390600052602060002001600090919091909150555050565b6000600860008373ffffffffffffffffffffffffffffffffffffffff1673ffffffffffffffffffffffffffffffffffffffff168152602001908152602001600020549050919050565b61037d6105c1565b61038657600080fd5b600073ffffffffffffffffffffffffffffffffffffffff1660008054906101000a900473ffffffffffffffffffffffffffffffffffffffff1673ffffffffffffffffffffffffffffffffffffffff167f8be0079c531659141344cd1fd0a4f28419497f9722a3daafe3b4186f6b6457e060405160405180910390a360008060006101000a81548173ffffffffffffffffffffffffffffffffffffffff021916908373ffffffffffffffffffffffffffffffffffffffff160217905550565b6000600167ffffffffffffffff81111561046157610460610c8c565b5b60405190808252806020026020018201604052801561048f5781602001602082028036833780820191505090505b509050600760405180604001604052806104a761080e565b81526020018381525090806001815401808255809150506001900390600052602060002090600202016000909190919091506000820151816000015560208201518160010190805190602001906104ff929190610983565b505050600060016007805490506105169190610f37565b905080600860008573ffffffffffffffffffffffffffffffffffffffff1673ffffffffffffffffffffffffffffffffffffffff168152602001908152602001600020819055507faf101d6eb202a80391aeb3bccfdf77a63a9dd196386bf69ae819408c466875b68160405161058b9190610ac3565b60405180910390a1505050565b60008060009054906101000a900473ffffffffffffffffffffffffffffffffffffffff16905090565b60008060009054906101000a900473ffffffffffffffffffffffffffffffffffffffff1673ffffffffffffffffffffffffffffffffffffffff163373ffffffffffffffffffffffffffffffffffffffff1614905090565b6106206105c1565b61062957600080fd5b6003808054905090806001815401808255809150506001900390600052602060002001600090919091909150558060046000600160038054905061066d9190610f37565b81526020019081526020016000209060056106899291906109d0565b507fe1c7c98cdeded3a25c1c7ada5b85013b2c7c9879f1678129a413ea685d0fcc7860016003805490506106bd9190610f37565b6040516106ca9190610ac3565b60405180910390a150565b600381815481106106e557600080fd5b906000526020600020016000915090505481565b6107016105c1565b61070a57600080fd5b6107138161082f565b50565b600061072e600180546107299190610f37565b610925565b905090565b6000600560405180606001604052803373ffffffffffffffffffffffffffffffffffffffff16815260200185815260200184815250908060018154018082558091505060019003906000526020600020906003020160009091909190915060008201518160000160006101000a81548173ffffffffffffffffffffffffffffffffffffffff021916908373ffffffffffffffffffffffffffffffffffffffff16021790555060208201518160010155604082015181600201555050600060016005805490506108029190610f37565b90508091505092915050565b600061082a60016003805490506108259190610f37565b610925565b905090565b600073ffffffffffffffffffffffffffffffffffffffff168173ffffffffffffffffffffffffffffffffffffffff160361086857600080fd5b8073ffffffffffffffffffffffffffffffffffffffff1660008054906101000a900473ffffffffffffffffffffffffffffffffffffffff1673ffffffffffffffffffffffffffffffffffffffff167f8be0079c531659141344cd1fd0a4f28419497f9722a3daafe3b4186f6b6457e060405160405180910390a3806000806101000a81548173ffffffffffffffffffffffffffffffffffffffff021916908373ffffffffffffffffffffffffffffffffffffffff16021790555050565b60006002600081548092919061093a90610f6b565b919050555081424433600254604051602001610959949392919061101c565b6040516020818303038152906040528051906020012060001c61097c9190611099565b9050919050565b8280548282559060005260206000209081019282156109bf579160200282015b828111156109be5782518255916020019190600101906109a3565b5b5090506109cc9190610a29565b5090565b828054828255906000526020600020908101928215610a18579160200282015b82811115610a17578251829081610a0791906112e1565b50916020019190600101906109f0565b5b509050610a259190610a46565b5090565b5b80821115610a42576000816000905550600101610a2a565b5090565b5b80821115610a665760008181610a5d9190610a6a565b50600101610a47565b5090565b508054610a7690611104565b6000825580601f10610a885750610aa7565b601f016020900490600052602060002090810190610aa69190610a29565b5b50565b6000819050919050565b610abd81610aaa565b82525050565b6000602082019050610ad86000830184610ab4565b92915050565b6000604051905090565b600080fd5b600080fd5b610afb81610aaa565b8114610b0657600080fd5b50565b600081359050610b1881610af2565b92915050565b60008060408385031215610b3557610b34610ae8565b5b6000610b4385828601610b09565b9250506020610b5485828601610b09565b9150509250929050565b600060208284031215610b7457610b73610ae8565b5b6000610b8284828501610b09565b91505092915050565b600073ffffffffffffffffffffffffffffffffffffffff82169050919050565b6000610bb682610b8b565b9050919050565b610bc681610bab565b8114610bd157600080fd5b50565b600081359050610be381610bbd565b92915050565b600060208284031215610bff57610bfe610ae8565b5b6000610c0d84828501610bd4565b91505092915050565b610c1f81610bab565b82525050565b6000602082019050610c3a6000830184610c16565b92915050565b60008115159050919050565b610c5581610c40565b82525050565b6000602082019050610c706000830184610c4c565b92915050565b600080fd5b6000601f19601f8301169050919050565b7f4e487b7100000000000000000000000000000000000000000000000000000000600052604160045260246000fd5b610cc482610c7b565b810181811067ffffffffffffffff82111715610ce357610ce2610c8c565b5b80604052505050565b6000610cf6610ade565b9050610d028282610cbb565b919050565b600067ffffffffffffffff821115610d2257610d21610c8c565b5b602082029050919050565b600080fd5b600080fd5b600067ffffffffffffffff821115610d5257610d51610c8c565b5b610d5b82610c7b565b9050602081019050919050565b82818337600083830152505050565b6000610d8a610d8584610d37565b610cec565b905082815260208101848484011115610da657610da5610d32565b5b610db1848285610d68565b509392505050565b600082601f830112610dce57610dcd610c76565b5b8135610dde848260208601610d77565b91505092915050565b6000610dfa610df584610d07565b610cec565b90508060208402830185811115610e1457610e13610d2d565b5b835b81811015610e5b57803567ffffffffffffffff811115610e3957610e38610c76565b5b808601610e468982610db9565b85526020850194505050602081019050610e16565b5050509392505050565b600082601f830112610e7a57610e79610c76565b5b6005610e87848285610de7565b91505092915050565b600060208284031215610ea657610ea5610ae8565b5b600082013567ffffffffffffffff811115610ec457610ec3610aed565b5b610ed084828501610e65565b91505092915050565b7f4e487b7100000000000000000000000000000000000000000000000000000000600052603260045260246000fd5b7f4e487b7100000000000000000000000000000000000000000000000000000000600052601160045260246000fd5b6000610f4282610aaa565b9150610f4d83610aaa565b9250828203905081811115610f6557610f64610f08565b5b92915050565b6000610f7682610aaa565b91507fffffffffffffffffffffffffffffffffffffffffffffffffffffffffffffffff8203610fa857610fa7610f08565b5b600182019050919050565b6000819050919050565b610fce610fc982610aaa565b610fb3565b82525050565b60008160601b9050919050565b6000610fec82610fd4565b9050919050565b6000610ffe82610fe1565b9050919050565b61101661101182610bab565b610ff3565b82525050565b60006110288287610fbd565b6020820191506110388286610fbd565b6020820191506110488285611005565b6014820191506110588284610fbd565b60208201915081905095945050505050565b7f4e487b7100000000000000000000000000000000000000000000000000000000600052601260045260246000fd5b60006110a482610aaa565b91506110af83610aaa565b9250826110bf576110be61106a565b5b828206905092915050565b600081519050919050565b7f4e487b7100000000000000000000000000000000000000000000000000000000600052602260045260246000fd5b6000600282049050600182168061111c57607f821691505b60208210810361112f5761112e6110d5565b5b50919050565b60008190508160005260206000209050919050565b60006020601f8301049050919050565b600082821b905092915050565b6000600883026111977fffffffffffffffffffffffffffffffffffffffffffffffffffffffffffffffff8261115a565b6111a1868361115a565b95508019841693508086168417925050509392505050565b6000819050919050565b60006111de6111d96111d484610aaa565b6111b9565b610aaa565b9050919050565b6000819050919050565b6111f8836111c3565b61120c611204826111e5565b848454611167565b825550505050565b600090565b611221611214565b61122c8184846111ef565b505050565b5b8181101561125057611245600082611219565b600181019050611232565b5050565b601f8211156112955761126681611135565b61126f8461114a565b8101602085101561127e578190505b61129261128a8561114a565b830182611231565b50505b505050565b600082821c905092915050565b60006112b86000198460080261129a565b1980831691505092915050565b60006112d183836112a7565b9150826002028217905092915050565b6112ea826110ca565b67ffffffffffffffff81111561130357611302610c8c565b5b61130d8254611104565b611318828285611254565b600060209050601f83116001811461134b5760008415611339578287015190505b61134385826112c5565b8655506113ab565b601f19841661135986611135565b60005b828110156113815784890151825560018201915060208501945060208101905061135c565b8683101561139e578489015161139a601f8916826112a7565b8355505b6001600288020188555050505b50505050505056fea2646970667358221220defb3adfe3d168053b58f5236fb43cd5af2cbf0a332465c665a80047fb573c5c64736f6c63430008120033",
  "immutableReferences": {},
  "source": "// SPDX-License-Identifier: GPL-3.0\n\npragma solidity >=0.7.0 <0.9.0;\n\nimport \"./StrawberryColorPaletteFactory.sol\";\nimport \"./StrawberryItemFactory.sol\";\n\ncontract StrawberryDonorFactory is StrawberryColorPaletteFactory, StrawberryItemFactory {\n    struct StrawberryDonor {\n        uint paletteId;\n        uint[] items;\n    }\n\n    uint changeColorPaletteFee = 0.001 ether;\n    StrawberryDonor[] donors;\n    mapping (address => uint) addressToDonor;\n    mapping (address => bool) donorExists;\n\n    event DonorCreated(uint donorId);\n    event ItemAdded(uint itemId, uint itemColorId);\n\n    function getOwnerByAddress(address _owner) external view returns(uint) {\n        return addressToDonor[_owner];\n    }\n\n    function changeColorPalette(uint _donorId, uint _paletteId) external payable {\n        require(msg.value == changeColorPaletteFee);\n        require(_paletteId < palettes.length);\n        donors[_donorId].paletteId = _paletteId;\n    }\n\n    function _addItem(uint _donorId) external {\n        uint id = _createItem(_getRandomColorIndex(), 0);\n        donors[_donorId].items.push(id);\n    }\n\n    function _createDonor(address _donorAddress) public {\n        uint[] memory items = new uint[](1);\n        \n        donors.push(StrawberryDonor({\n            paletteId: _getRandomPalleteIndex(), \n            items: items\n        }));\n\n        uint id = donors.length - 1;\n\n        addressToDonor[_donorAddress] = id;\n        emit DonorCreated(id);\n    }\n}\n",
  "sourcePath": "/Users/elenakapilevich/Documents/strawberry/strawberryContract/contracts/StrawberryDonorFactory.sol",
  "compiler": {
    "name": "solc",
    "version": "0.8.18+commit.87f61d96.Emscripten.clang"
  },
  "schemaVersion": "3.4.13",
  "updatedAt": "2023-04-15T07:51:03.886Z",
  "devdoc": {
    "kind": "dev",
    "methods": {
      "isOwner()": {
        "returns": {
          "_0": "true if `msg.sender` is the owner of the contract."
        }
      },
      "owner()": {
        "returns": {
          "_0": "the address of the owner."
        }
      },
      "renounceOwnership()": {
        "details": "Allows the current owner to relinquish control of the contract."
      },
      "transferOwnership(address)": {
        "details": "Allows the current owner to transfer control of the contract to a newOwner.",
        "params": {
          "newOwner": "The address to transfer ownership to."
        }
      }
    },
    "version": 1
  },
  "userdoc": {
    "kind": "user",
    "methods": {
      "renounceOwnership()": {
        "notice": "Renouncing to ownership will leave the contract without an owner. It will not be possible to call the functions with the `onlyOwner` modifier anymore."
      }
    },
    "version": 1
  }
}