{
  "contractName": "StrawberryDonorFactory",
  "abi": [
    {
      "anonymous": false,
      "inputs": [
        {
          "indexed": false,
          "internalType": "uint256",
          "name": "donorId",
          "type": "uint256"
        }
      ],
      "name": "DonorCreated",
      "type": "event"
    },
    {
      "anonymous": false,
      "inputs": [
        {
          "indexed": false,
          "internalType": "uint256",
          "name": "itemId",
          "type": "uint256"
        },
        {
          "indexed": false,
          "internalType": "uint256",
          "name": "itemColorId",
          "type": "uint256"
        }
      ],
      "name": "ItemAdded",
      "type": "event"
    },
    {
      "anonymous": false,
      "inputs": [
        {
          "indexed": true,
          "internalType": "address",
          "name": "previousOwner",
          "type": "address"
        },
        {
          "indexed": true,
          "internalType": "address",
          "name": "newOwner",
          "type": "address"
        }
      ],
      "name": "OwnershipTransferred",
      "type": "event"
    },
    {
      "anonymous": false,
      "inputs": [
        {
          "indexed": false,
          "internalType": "uint256",
          "name": "paletteId",
          "type": "uint256"
        }
      ],
      "name": "PaletteCreated",
      "type": "event"
    },
    {
      "inputs": [
        {
          "internalType": "string[5]",
          "name": "_colors",
          "type": "string[5]"
        }
      ],
      "name": "addPalette",
      "outputs": [],
      "stateMutability": "nonpayable",
      "type": "function"
    },
    {
      "inputs": [],
      "name": "colorAmountPerPalette",
      "outputs": [
        {
          "internalType": "uint256",
          "name": "",
          "type": "uint256"
        }
      ],
      "stateMutability": "view",
      "type": "function",
      "constant": true
    },
    {
      "inputs": [],
      "name": "isOwner",
      "outputs": [
        {
          "internalType": "bool",
          "name": "",
          "type": "bool"
        }
      ],
      "stateMutability": "view",
      "type": "function",
      "constant": true
    },
    {
      "inputs": [],
      "name": "owner",
      "outputs": [
        {
          "internalType": "address",
          "name": "",
          "type": "address"
        }
      ],
      "stateMutability": "view",
      "type": "function",
      "constant": true
    },
    {
      "inputs": [
        {
          "internalType": "uint256",
          "name": "",
          "type": "uint256"
        }
      ],
      "name": "palettes",
      "outputs": [
        {
          "internalType": "uint256",
          "name": "",
          "type": "uint256"
        }
      ],
      "stateMutability": "view",
      "type": "function",
      "constant": true
    },
    {
      "inputs": [],
      "name": "renounceOwnership",
      "outputs": [],
      "stateMutability": "nonpayable",
      "type": "function"
    },
    {
      "inputs": [
        {
          "internalType": "address",
          "name": "newOwner",
          "type": "address"
        }
      ],
      "name": "transferOwnership",
      "outputs": [],
      "stateMutability": "nonpayable",
      "type": "function"
    },
    {
      "inputs": [
        {
          "internalType": "address",
          "name": "_owner",
          "type": "address"
        }
      ],
      "name": "getOwnerByAddress",
      "outputs": [
        {
          "internalType": "uint256",
          "name": "",
          "type": "uint256"
        }
      ],
      "stateMutability": "view",
      "type": "function",
      "constant": true
    },
    {
      "inputs": [
        {
          "internalType": "uint256",
          "name": "_donorId",
          "type": "uint256"
        },
        {
          "internalType": "uint256",
          "name": "_paletteId",
          "type": "uint256"
        }
      ],
      "name": "changeColorPalette",
      "outputs": [],
      "stateMutability": "payable",
      "type": "function",
      "payable": true
    },
    {
      "inputs": [
        {
          "internalType": "address",
          "name": "_donorAddress",
          "type": "address"
        }
      ],
      "name": "_createDonor",
      "outputs": [],
      "stateMutability": "nonpayable",
      "type": "function"
    }
  ],
  "bytecode": "0x60806040526005600155600060025566038d7ea4c680006006553480156200002657600080fd5b50336000806101000a81548173ffffffffffffffffffffffffffffffffffffffff021916908373ffffffffffffffffffffffffffffffffffffffff16021790555060008054906101000a900473ffffffffffffffffffffffffffffffffffffffff1673ffffffffffffffffffffffffffffffffffffffff16600073ffffffffffffffffffffffffffffffffffffffff167f8be0079c531659141344cd1fd0a4f28419497f9722a3daafe3b4186f6b6457e060405160405180910390a3620002226040518060a001604052806040518060400160405280600881526020017f307838343545433200000000000000000000000000000000000000000000000081525081526020016040518060400160405280600881526020017f307834423434353300000000000000000000000000000000000000000000000081525081526020016040518060400160405280600881526020017f307842304138423900000000000000000000000000000000000000000000000081525081526020016040518060400160405280600881526020017f307843333441333600000000000000000000000000000000000000000000000081525081526020016040518060400160405280600881526020017f3078464638303636000000000000000000000000000000000000000000000000815250815250620005e860201b60201c565b620003626040518060a001604052806040518060400160405280600881526020017f307836393936373400000000000000000000000000000000000000000000000081525081526020016040518060400160405280600881526020017f307833423441334600000000000000000000000000000000000000000000000081525081526020016040518060400160405280600881526020017f307839454146413200000000000000000000000000000000000000000000000081525081526020016040518060400160405280600881526020017f307834453934423300000000000000000000000000000000000000000000000081525081526020016040518060400160405280600881526020017f3078303336313745000000000000000000000000000000000000000000000000815250815250620005e860201b60201c565b620004a26040518060a001604052806040518060400160405280600881526020017f307832374236443800000000000000000000000000000000000000000000000081525081526020016040518060400160405280600881526020017f307833333441353200000000000000000000000000000000000000000000000081525081526020016040518060400160405280600881526020017f307839364146423800000000000000000000000000000000000000000000000081525081526020016040518060400160405280600881526020017f307843343938443400000000000000000000000000000000000000000000000081525081526020016040518060400160405280600881526020017f3078384536343944000000000000000000000000000000000000000000000000815250815250620005e860201b60201c565b620005e26040518060a001604052806040518060400160405280600881526020017f307835414135354200000000000000000000000000000000000000000000000081525081526020016040518060400160405280600881526020017f307832343935364400000000000000000000000000000000000000000000000081525081526020016040518060400160405280600881526020017f307830303833373700000000000000000000000000000000000000000000000081525081526020016040518060400160405280600881526020017f307830303646373700000000000000000000000000000000000000000000000081525081526020016040518060400160405280600881526020017f3078314335423643000000000000000000000000000000000000000000000000815250815250620005e860201b60201c565b62000bf3565b620005f8620006b660201b60201c565b6200060257600080fd5b6003808054905090806001815401808255809150506001900390600052602060002001600090919091909150558060046000600160038054905062000648919062000833565b8152602001908152602001600020906005620006669291906200070d565b507fe1c7c98cdeded3a25c1c7ada5b85013b2c7c9879f1678129a413ea685d0fcc7860016003805490506200069c919062000833565b604051620006ab91906200087f565b60405180910390a150565b60008060009054906101000a900473ffffffffffffffffffffffffffffffffffffffff1673ffffffffffffffffffffffffffffffffffffffff163373ffffffffffffffffffffffffffffffffffffffff1614905090565b8280548282559060005260206000209081019282156200075a579160200282015b828111156200075957825182908162000748919062000b0c565b50916020019190600101906200072e565b5b5090506200076991906200076d565b5090565b5b8082111562000791576000818162000787919062000795565b506001016200076e565b5090565b508054620007a39062000905565b6000825580601f10620007b75750620007d8565b601f016020900490600052602060002090810190620007d79190620007db565b5b50565b5b80821115620007f6576000816000905550600101620007dc565b5090565b6000819050919050565b7f4e487b7100000000000000000000000000000000000000000000000000000000600052601160045260246000fd5b60006200084082620007fa565b91506200084d83620007fa565b925082820390508181111562000868576200086762000804565b5b92915050565b6200087981620007fa565b82525050565b60006020820190506200089660008301846200086e565b92915050565b600081519050919050565b7f4e487b7100000000000000000000000000000000000000000000000000000000600052604160045260246000fd5b7f4e487b7100000000000000000000000000000000000000000000000000000000600052602260045260246000fd5b600060028204905060018216806200091e57607f821691505b602082108103620009345762000933620008d6565b5b50919050565b60008190508160005260206000209050919050565b60006020601f8301049050919050565b600082821b905092915050565b6000600883026200099e7fffffffffffffffffffffffffffffffffffffffffffffffffffffffffffffffff826200095f565b620009aa86836200095f565b95508019841693508086168417925050509392505050565b6000819050919050565b6000620009ed620009e7620009e184620007fa565b620009c2565b620007fa565b9050919050565b6000819050919050565b62000a0983620009cc565b62000a2162000a1882620009f4565b8484546200096c565b825550505050565b600090565b62000a3862000a29565b62000a45818484620009fe565b505050565b5b8181101562000a6d5762000a6160008262000a2e565b60018101905062000a4b565b5050565b601f82111562000abc5762000a86816200093a565b62000a91846200094f565b8101602085101562000aa1578190505b62000ab962000ab0856200094f565b83018262000a4a565b50505b505050565b600082821c905092915050565b600062000ae16000198460080262000ac1565b1980831691505092915050565b600062000afc838362000ace565b9150826002028217905092915050565b62000b17826200089c565b67ffffffffffffffff81111562000b335762000b32620008a7565b5b62000b3f825462000905565b62000b4c82828562000a71565b600060209050601f83116001811462000b84576000841562000b6f578287015190505b62000b7b858262000aee565b86555062000beb565b601f19841662000b94866200093a565b60005b8281101562000bbe5784890151825560018201915060208501945060208101905062000b97565b8683101562000bde578489015162000bda601f89168262000ace565b8355505b6001600288020188555050505b505050505050565b6112578062000c036000396000f3fe6080604052600436106100915760003560e01c80638da5cb5b116100595780638da5cb5b1461015a5780638f32d59b14610185578063b8f7f42a146101b0578063dcf7eefe146101d9578063f2fde38b1461021657610091565b8063109c1238146100965780634315399f146100c15780636f442154146100dd578063715018a61461011a57806380cef3cc14610131575b600080fd5b3480156100a257600080fd5b506100ab61023f565b6040516100b89190610931565b60405180910390f35b6100db60048036038101906100d6919061098c565b610245565b005b3480156100e957600080fd5b5061010460048036038101906100ff9190610a2a565b610292565b6040516101119190610931565b60405180910390f35b34801561012657600080fd5b5061012f6102db565b005b34801561013d57600080fd5b5061015860048036038101906101539190610a2a565b6103aa565b005b34801561016657600080fd5b5061016f6104fe565b60405161017c9190610a66565b60405180910390f35b34801561019157600080fd5b5061019a610527565b6040516101a79190610a9c565b60405180910390f35b3480156101bc57600080fd5b506101d760048036038101906101d29190610cd1565b61057e565b005b3480156101e557600080fd5b5061020060048036038101906101fb9190610d1a565b61063b565b60405161020d9190610931565b60405180910390f35b34801561022257600080fd5b5061023d60048036038101906102389190610a2a565b61065f565b005b60015481565b600654341461025357600080fd5b600380549050811061026457600080fd5b806007838154811061027957610278610d47565b5b9060005260206000209060020201600001819055505050565b6000600860008373ffffffffffffffffffffffffffffffffffffffff1673ffffffffffffffffffffffffffffffffffffffff168152602001908152602001600020549050919050565b6102e3610527565b6102ec57600080fd5b600073ffffffffffffffffffffffffffffffffffffffff1660008054906101000a900473ffffffffffffffffffffffffffffffffffffffff1673ffffffffffffffffffffffffffffffffffffffff167f8be0079c531659141344cd1fd0a4f28419497f9722a3daafe3b4186f6b6457e060405160405180910390a360008060006101000a81548173ffffffffffffffffffffffffffffffffffffffff021916908373ffffffffffffffffffffffffffffffffffffffff160217905550565b6000600167ffffffffffffffff8111156103c7576103c6610acd565b5b6040519080825280602002602001820160405280156103f55781602001602082028036833780820191505090505b5090506007604051806040016040528061040d61067c565b81526020018381525090806001815401808255809150506001900390600052602060002090600202016000909190919091506000820151816000015560208201518160010190805190602001906104659291906107f1565b5050506000600160078054905061047c9190610da5565b905080600860008573ffffffffffffffffffffffffffffffffffffffff1673ffffffffffffffffffffffffffffffffffffffff168152602001908152602001600020819055507faf101d6eb202a80391aeb3bccfdf77a63a9dd196386bf69ae819408c466875b6816040516104f19190610931565b60405180910390a1505050565b60008060009054906101000a900473ffffffffffffffffffffffffffffffffffffffff16905090565b60008060009054906101000a900473ffffffffffffffffffffffffffffffffffffffff1673ffffffffffffffffffffffffffffffffffffffff163373ffffffffffffffffffffffffffffffffffffffff1614905090565b610586610527565b61058f57600080fd5b600380805490509080600181540180825580915050600190039060005260206000200160009091909190915055806004600060016003805490506105d39190610da5565b81526020019081526020016000209060056105ef92919061083e565b507fe1c7c98cdeded3a25c1c7ada5b85013b2c7c9879f1678129a413ea685d0fcc7860016003805490506106239190610da5565b6040516106309190610931565b60405180910390a150565b6003818154811061064b57600080fd5b906000526020600020016000915090505481565b610667610527565b61067057600080fd5b6106798161069d565b50565b600061069860016003805490506106939190610da5565b610793565b905090565b600073ffffffffffffffffffffffffffffffffffffffff168173ffffffffffffffffffffffffffffffffffffffff16036106d657600080fd5b8073ffffffffffffffffffffffffffffffffffffffff1660008054906101000a900473ffffffffffffffffffffffffffffffffffffffff1673ffffffffffffffffffffffffffffffffffffffff167f8be0079c531659141344cd1fd0a4f28419497f9722a3daafe3b4186f6b6457e060405160405180910390a3806000806101000a81548173ffffffffffffffffffffffffffffffffffffffff021916908373ffffffffffffffffffffffffffffffffffffffff16021790555050565b6000600260008154809291906107a890610dd9565b9190505550814244336002546040516020016107c79493929190610e8a565b6040516020818303038152906040528051906020012060001c6107ea9190610f07565b9050919050565b82805482825590600052602060002090810192821561082d579160200282015b8281111561082c578251825591602001919060010190610811565b5b50905061083a9190610897565b5090565b828054828255906000526020600020908101928215610886579160200282015b82811115610885578251829081610875919061114f565b509160200191906001019061085e565b5b50905061089391906108b4565b5090565b5b808211156108b0576000816000905550600101610898565b5090565b5b808211156108d457600081816108cb91906108d8565b506001016108b5565b5090565b5080546108e490610f72565b6000825580601f106108f65750610915565b601f0160209004906000526020600020908101906109149190610897565b5b50565b6000819050919050565b61092b81610918565b82525050565b60006020820190506109466000830184610922565b92915050565b6000604051905090565b600080fd5b600080fd5b61096981610918565b811461097457600080fd5b50565b60008135905061098681610960565b92915050565b600080604083850312156109a3576109a2610956565b5b60006109b185828601610977565b92505060206109c285828601610977565b9150509250929050565b600073ffffffffffffffffffffffffffffffffffffffff82169050919050565b60006109f7826109cc565b9050919050565b610a07816109ec565b8114610a1257600080fd5b50565b600081359050610a24816109fe565b92915050565b600060208284031215610a4057610a3f610956565b5b6000610a4e84828501610a15565b91505092915050565b610a60816109ec565b82525050565b6000602082019050610a7b6000830184610a57565b92915050565b60008115159050919050565b610a9681610a81565b82525050565b6000602082019050610ab16000830184610a8d565b92915050565b600080fd5b6000601f19601f8301169050919050565b7f4e487b7100000000000000000000000000000000000000000000000000000000600052604160045260246000fd5b610b0582610abc565b810181811067ffffffffffffffff82111715610b2457610b23610acd565b5b80604052505050565b6000610b3761094c565b9050610b438282610afc565b919050565b600067ffffffffffffffff821115610b6357610b62610acd565b5b602082029050919050565b600080fd5b600080fd5b600067ffffffffffffffff821115610b9357610b92610acd565b5b610b9c82610abc565b9050602081019050919050565b82818337600083830152505050565b6000610bcb610bc684610b78565b610b2d565b905082815260208101848484011115610be757610be6610b73565b5b610bf2848285610ba9565b509392505050565b600082601f830112610c0f57610c0e610ab7565b5b8135610c1f848260208601610bb8565b91505092915050565b6000610c3b610c3684610b48565b610b2d565b90508060208402830185811115610c5557610c54610b6e565b5b835b81811015610c9c57803567ffffffffffffffff811115610c7a57610c79610ab7565b5b808601610c878982610bfa565b85526020850194505050602081019050610c57565b5050509392505050565b600082601f830112610cbb57610cba610ab7565b5b6005610cc8848285610c28565b91505092915050565b600060208284031215610ce757610ce6610956565b5b600082013567ffffffffffffffff811115610d0557610d0461095b565b5b610d1184828501610ca6565b91505092915050565b600060208284031215610d3057610d2f610956565b5b6000610d3e84828501610977565b91505092915050565b7f4e487b7100000000000000000000000000000000000000000000000000000000600052603260045260246000fd5b7f4e487b7100000000000000000000000000000000000000000000000000000000600052601160045260246000fd5b6000610db082610918565b9150610dbb83610918565b9250828203905081811115610dd357610dd2610d76565b5b92915050565b6000610de482610918565b91507fffffffffffffffffffffffffffffffffffffffffffffffffffffffffffffffff8203610e1657610e15610d76565b5b600182019050919050565b6000819050919050565b610e3c610e3782610918565b610e21565b82525050565b60008160601b9050919050565b6000610e5a82610e42565b9050919050565b6000610e6c82610e4f565b9050919050565b610e84610e7f826109ec565b610e61565b82525050565b6000610e968287610e2b565b602082019150610ea68286610e2b565b602082019150610eb68285610e73565b601482019150610ec68284610e2b565b60208201915081905095945050505050565b7f4e487b7100000000000000000000000000000000000000000000000000000000600052601260045260246000fd5b6000610f1282610918565b9150610f1d83610918565b925082610f2d57610f2c610ed8565b5b828206905092915050565b600081519050919050565b7f4e487b7100000000000000000000000000000000000000000000000000000000600052602260045260246000fd5b60006002820490506001821680610f8a57607f821691505b602082108103610f9d57610f9c610f43565b5b50919050565b60008190508160005260206000209050919050565b60006020601f8301049050919050565b600082821b905092915050565b6000600883026110057fffffffffffffffffffffffffffffffffffffffffffffffffffffffffffffffff82610fc8565b61100f8683610fc8565b95508019841693508086168417925050509392505050565b6000819050919050565b600061104c61104761104284610918565b611027565b610918565b9050919050565b6000819050919050565b61106683611031565b61107a61107282611053565b848454610fd5565b825550505050565b600090565b61108f611082565b61109a81848461105d565b505050565b5b818110156110be576110b3600082611087565b6001810190506110a0565b5050565b601f821115611103576110d481610fa3565b6110dd84610fb8565b810160208510156110ec578190505b6111006110f885610fb8565b83018261109f565b50505b505050565b600082821c905092915050565b600061112660001984600802611108565b1980831691505092915050565b600061113f8383611115565b9150826002028217905092915050565b61115882610f38565b67ffffffffffffffff81111561117157611170610acd565b5b61117b8254610f72565b6111868282856110c2565b600060209050601f8311600181146111b957600084156111a7578287015190505b6111b18582611133565b865550611219565b601f1984166111c786610fa3565b60005b828110156111ef578489015182556001820191506020850194506020810190506111ca565b8683101561120c5784890151611208601f891682611115565b8355505b6001600288020188555050505b50505050505056fea2646970667358221220474c248e53cb380c30350c2cd0cd6d843c11e90483291325d0d01ee0eccc537964736f6c63430008130033",
  "immutableReferences": {},
  "source": "// SPDX-License-Identifier: GPL-3.0\n\npragma solidity >=0.7.0 <0.9.0;\n\nimport \"./StrawberryColorPaletteFactory.sol\";\nimport \"./StrawberryItemFactory.sol\";\n\ncontract StrawberryDonorFactory is StrawberryColorPaletteFactory, StrawberryItemFactory {\n    struct StrawberryDonor {\n        uint paletteId;\n        uint[] items;\n    }\n\n    uint changeColorPaletteFee = 0.001 ether;\n    StrawberryDonor[] donors;\n    mapping (address => uint) addressToDonor;\n    mapping (address => bool) donorExists;\n\n    event DonorCreated(uint donorId);\n    event ItemAdded(uint itemId, uint itemColorId);\n\n    function getOwnerByAddress(address _owner) external view returns(uint) {\n        return addressToDonor[_owner];\n    }\n\n    function changeColorPalette(uint _donorId, uint _paletteId) external payable {\n        require(msg.value == changeColorPaletteFee);\n        require(_paletteId < palettes.length);\n        donors[_donorId].paletteId = _paletteId;\n    }\n\n    function _addItem(uint _donorId) internal {\n        uint id = _createItem(_getRandomColorIndex(), 0);\n        donors[_donorId].items.push(id);\n    }\n\n    function _createDonor(address _donorAddress) public {\n        uint[] memory items = new uint[](1);\n        \n        donors.push(StrawberryDonor({\n            paletteId: _getRandomPalleteIndex(), \n            items: items\n        }));\n\n        uint id = donors.length - 1;\n\n        addressToDonor[_donorAddress] = id;\n        emit DonorCreated(id);\n    }\n}\n",
  "sourcePath": "/Users/shrey/git/strawberry/strawberryContract/contracts/StrawberryDonorFactory.sol",
  "compiler": {
    "name": "solc",
    "version": "0.8.19+commit.7dd6d404.Emscripten.clang"
  },
  "schemaVersion": "3.4.13",
  "updatedAt": "2023-04-15T08:21:28.828Z",
  "networkType": "ethereum",
  "devdoc": {
    "kind": "dev",
    "methods": {
      "isOwner()": {
        "returns": {
          "_0": "true if `msg.sender` is the owner of the contract."
        }
      },
      "owner()": {
        "returns": {
          "_0": "the address of the owner."
        }
      },
      "renounceOwnership()": {
        "details": "Allows the current owner to relinquish control of the contract."
      },
      "transferOwnership(address)": {
        "details": "Allows the current owner to transfer control of the contract to a newOwner.",
        "params": {
          "newOwner": "The address to transfer ownership to."
        }
      }
    },
    "version": 1
  },
  "userdoc": {
    "kind": "user",
    "methods": {
      "renounceOwnership()": {
        "notice": "Renouncing to ownership will leave the contract without an owner. It will not be possible to call the functions with the `onlyOwner` modifier anymore."
      }
    },
    "version": 1
  }
}