{
  "contractName": "StrawberryCharity",
  "abi": [
    {
      "inputs": [
        {
          "internalType": "string",
          "name": "_name",
          "type": "string"
        },
        {
          "internalType": "string",
          "name": "_image",
          "type": "string"
        },
        {
          "internalType": "string",
          "name": "_description",
          "type": "string"
        },
        {
          "internalType": "address payable",
          "name": "_beneficiary",
          "type": "address"
        },
        {
          "internalType": "address",
          "name": "_custodian",
          "type": "address"
        }
      ],
      "stateMutability": "nonpayable",
      "type": "constructor"
    },
    {
      "anonymous": false,
      "inputs": [
        {
          "indexed": true,
          "internalType": "address",
          "name": "donor",
          "type": "address"
        },
        {
          "indexed": false,
          "internalType": "uint256",
          "name": "value",
          "type": "uint256"
        }
      ],
      "name": "DonationReceived",
      "type": "event"
    },
    {
      "anonymous": false,
      "inputs": [
        {
          "indexed": false,
          "internalType": "uint256",
          "name": "donorId",
          "type": "uint256"
        }
      ],
      "name": "DonorCreated",
      "type": "event"
    },
    {
      "anonymous": false,
      "inputs": [
        {
          "indexed": false,
          "internalType": "uint256",
          "name": "itemId",
          "type": "uint256"
        },
        {
          "indexed": false,
          "internalType": "uint256",
          "name": "itemColorId",
          "type": "uint256"
        }
      ],
      "name": "ItemAdded",
      "type": "event"
    },
    {
      "anonymous": false,
      "inputs": [
        {
          "indexed": true,
          "internalType": "address",
          "name": "previousOwner",
          "type": "address"
        },
        {
          "indexed": true,
          "internalType": "address",
          "name": "newOwner",
          "type": "address"
        }
      ],
      "name": "OwnershipTransferred",
      "type": "event"
    },
    {
      "anonymous": false,
      "inputs": [
        {
          "indexed": false,
          "internalType": "uint256",
          "name": "paletteId",
          "type": "uint256"
        }
      ],
      "name": "PaletteCreated",
      "type": "event"
    },
    {
      "anonymous": false,
      "inputs": [
        {
          "indexed": false,
          "internalType": "uint256",
          "name": "amount",
          "type": "uint256"
        }
      ],
      "name": "Withdraw",
      "type": "event"
    },
    {
      "inputs": [
        {
          "internalType": "address",
          "name": "_donorAddress",
          "type": "address"
        }
      ],
      "name": "_createDonor",
      "outputs": [],
      "stateMutability": "nonpayable",
      "type": "function"
    },
    {
      "inputs": [
        {
          "internalType": "address",
          "name": "",
          "type": "address"
        },
        {
          "internalType": "uint256",
          "name": "",
          "type": "uint256"
        }
      ],
      "name": "_donations",
      "outputs": [
        {
          "internalType": "uint256",
          "name": "value",
          "type": "uint256"
        },
        {
          "internalType": "uint256",
          "name": "date",
          "type": "uint256"
        }
      ],
      "stateMutability": "view",
      "type": "function"
    },
    {
      "inputs": [
        {
          "internalType": "string[5]",
          "name": "_colors",
          "type": "string[5]"
        }
      ],
      "name": "addPalette",
      "outputs": [],
      "stateMutability": "nonpayable",
      "type": "function"
    },
    {
      "inputs": [],
      "name": "beneficiary",
      "outputs": [
        {
          "internalType": "address payable",
          "name": "",
          "type": "address"
        }
      ],
      "stateMutability": "view",
      "type": "function"
    },
    {
      "inputs": [
        {
          "internalType": "uint256",
          "name": "_donorId",
          "type": "uint256"
        },
        {
          "internalType": "uint256",
          "name": "_paletteId",
          "type": "uint256"
        }
      ],
      "name": "changeColorPalette",
      "outputs": [],
      "stateMutability": "payable",
      "type": "function"
    },
    {
      "inputs": [],
      "name": "colorAmountPerPalette",
      "outputs": [
        {
          "internalType": "uint256",
          "name": "",
          "type": "uint256"
        }
      ],
      "stateMutability": "view",
      "type": "function"
    },
    {
      "inputs": [],
      "name": "description",
      "outputs": [
        {
          "internalType": "string",
          "name": "",
          "type": "string"
        }
      ],
      "stateMutability": "view",
      "type": "function"
    },
    {
      "inputs": [],
      "name": "donationsCount",
      "outputs": [
        {
          "internalType": "uint256",
          "name": "",
          "type": "uint256"
        }
      ],
      "stateMutability": "view",
      "type": "function"
    },
    {
      "inputs": [
        {
          "internalType": "address",
          "name": "_owner",
          "type": "address"
        }
      ],
      "name": "getOwnerByAddress",
      "outputs": [
        {
          "internalType": "uint256",
          "name": "",
          "type": "uint256"
        }
      ],
      "stateMutability": "view",
      "type": "function"
    },
    {
      "inputs": [
        {
          "internalType": "uint256",
          "name": "paletteId",
          "type": "uint256"
        }
      ],
      "name": "getPalette",
      "outputs": [
        {
          "internalType": "string[]",
          "name": "",
          "type": "string[]"
        }
      ],
      "stateMutability": "view",
      "type": "function"
    },
    {
      "inputs": [],
      "name": "getPaletteAmount",
      "outputs": [
        {
          "internalType": "uint256",
          "name": "",
          "type": "uint256"
        }
      ],
      "stateMutability": "view",
      "type": "function"
    },
    {
      "inputs": [],
      "name": "image",
      "outputs": [
        {
          "internalType": "string",
          "name": "",
          "type": "string"
        }
      ],
      "stateMutability": "view",
      "type": "function"
    },
    {
      "inputs": [],
      "name": "isOwner",
      "outputs": [
        {
          "internalType": "bool",
          "name": "",
          "type": "bool"
        }
      ],
      "stateMutability": "view",
      "type": "function"
    },
    {
      "inputs": [],
      "name": "name",
      "outputs": [
        {
          "internalType": "string",
          "name": "",
          "type": "string"
        }
      ],
      "stateMutability": "view",
      "type": "function"
    },
    {
      "inputs": [],
      "name": "owner",
      "outputs": [
        {
          "internalType": "address",
          "name": "",
          "type": "address"
        }
      ],
      "stateMutability": "view",
      "type": "function"
    },
    {
      "inputs": [],
      "name": "renounceOwnership",
      "outputs": [],
      "stateMutability": "nonpayable",
      "type": "function"
    },
    {
      "inputs": [
        {
          "internalType": "address",
          "name": "newOwner",
          "type": "address"
        }
      ],
      "name": "transferOwnership",
      "outputs": [],
      "stateMutability": "nonpayable",
      "type": "function"
    },
    {
      "inputs": [],
      "name": "donate",
      "outputs": [],
      "stateMutability": "payable",
      "type": "function"
    },
    {
      "inputs": [
        {
          "internalType": "address payable",
          "name": "_beneficiary",
          "type": "address"
        }
      ],
      "name": "changeBeneficiary",
      "outputs": [],
      "stateMutability": "nonpayable",
      "type": "function"
    },
    {
      "inputs": [],
      "name": "withdraw",
      "outputs": [],
      "stateMutability": "nonpayable",
      "type": "function"
    }
  ],
  "bytecode": "0x60806040526005600155600060025566038d7ea4c680006006556000600e553480156200002b57600080fd5b5060405162002ed738038062002ed7833981810160405281019062000051919062000be5565b336000806101000a81548173ffffffffffffffffffffffffffffffffffffffff021916908373ffffffffffffffffffffffffffffffffffffffff16021790555060008054906101000a900473ffffffffffffffffffffffffffffffffffffffff1673ffffffffffffffffffffffffffffffffffffffff16600073ffffffffffffffffffffffffffffffffffffffff167f8be0079c531659141344cd1fd0a4f28419497f9722a3daafe3b4186f6b6457e060405160405180910390a36200024c6040518060a001604052806040518060400160405280600881526020017f307838343545433200000000000000000000000000000000000000000000000081525081526020016040518060400160405280600881526020017f307834423434353300000000000000000000000000000000000000000000000081525081526020016040518060400160405280600881526020017f307842304138423900000000000000000000000000000000000000000000000081525081526020016040518060400160405280600881526020017f307843333441333600000000000000000000000000000000000000000000000081525081526020016040518060400160405280600881526020017f30784646383036360000000000000000000000000000000000000000000000008152508152506200069f60201b60201c565b6200038c6040518060a001604052806040518060400160405280600881526020017f307836393936373400000000000000000000000000000000000000000000000081525081526020016040518060400160405280600881526020017f307833423441334600000000000000000000000000000000000000000000000081525081526020016040518060400160405280600881526020017f307839454146413200000000000000000000000000000000000000000000000081525081526020016040518060400160405280600881526020017f307834453934423300000000000000000000000000000000000000000000000081525081526020016040518060400160405280600881526020017f30783033363137450000000000000000000000000000000000000000000000008152508152506200069f60201b60201c565b620004cc6040518060a001604052806040518060400160405280600881526020017f307832374236443800000000000000000000000000000000000000000000000081525081526020016040518060400160405280600881526020017f307833333441353200000000000000000000000000000000000000000000000081525081526020016040518060400160405280600881526020017f307839364146423800000000000000000000000000000000000000000000000081525081526020016040518060400160405280600881526020017f307843343938443400000000000000000000000000000000000000000000000081525081526020016040518060400160405280600881526020017f30783845363439440000000000000000000000000000000000000000000000008152508152506200069f60201b60201c565b6200060c6040518060a001604052806040518060400160405280600881526020017f307835414135354200000000000000000000000000000000000000000000000081525081526020016040518060400160405280600881526020017f307832343935364400000000000000000000000000000000000000000000000081525081526020016040518060400160405280600881526020017f307830303833373700000000000000000000000000000000000000000000000081525081526020016040518060400160405280600881526020017f307830303646373700000000000000000000000000000000000000000000000081525081526020016040518060400160405280600881526020017f30783143354236430000000000000000000000000000000000000000000000008152508152506200069f60201b60201c565b84600a90816200061d919062000f15565b5083600b90816200062f919062000f15565b5082600c908162000641919062000f15565b5081600d60006101000a81548173ffffffffffffffffffffffffffffffffffffffff021916908373ffffffffffffffffffffffffffffffffffffffff16021790555062000694816200076d60201b60201c565b505050505062001094565b620006af6200086460201b60201c565b620006b957600080fd5b60038080549050908060018154018082558091505060019003906000526020600020016000909190919091505580600460006001600380549050620006ff91906200102b565b81526020019081526020016000209060056200071d929190620008bb565b507fe1c7c98cdeded3a25c1c7ada5b85013b2c7c9879f1678129a413ea685d0fcc7860016003805490506200075391906200102b565b60405162000762919062001077565b60405180910390a150565b600073ffffffffffffffffffffffffffffffffffffffff168173ffffffffffffffffffffffffffffffffffffffff1603620007a757600080fd5b8073ffffffffffffffffffffffffffffffffffffffff1660008054906101000a900473ffffffffffffffffffffffffffffffffffffffff1673ffffffffffffffffffffffffffffffffffffffff167f8be0079c531659141344cd1fd0a4f28419497f9722a3daafe3b4186f6b6457e060405160405180910390a3806000806101000a81548173ffffffffffffffffffffffffffffffffffffffff021916908373ffffffffffffffffffffffffffffffffffffffff16021790555050565b60008060009054906101000a900473ffffffffffffffffffffffffffffffffffffffff1673ffffffffffffffffffffffffffffffffffffffff163373ffffffffffffffffffffffffffffffffffffffff1614905090565b82805482825590600052602060002090810192821562000908579160200282015b8281111562000907578251829081620008f6919062000f15565b5091602001919060010190620008dc565b5b5090506200091791906200091b565b5090565b5b808211156200093f576000818162000935919062000943565b506001016200091c565b5090565b508054620009519062000d04565b6000825580601f1062000965575062000986565b601f01602090049060005260206000209081019062000985919062000989565b5b50565b5b80821115620009a45760008160009055506001016200098a565b5090565b6000604051905090565b600080fd5b600080fd5b600080fd5b600080fd5b6000601f19601f8301169050919050565b7f4e487b7100000000000000000000000000000000000000000000000000000000600052604160045260246000fd5b62000a1182620009c6565b810181811067ffffffffffffffff8211171562000a335762000a32620009d7565b5b80604052505050565b600062000a48620009a8565b905062000a56828262000a06565b919050565b600067ffffffffffffffff82111562000a795762000a78620009d7565b5b62000a8482620009c6565b9050602081019050919050565b60005b8381101562000ab157808201518184015260208101905062000a94565b60008484015250505050565b600062000ad462000ace8462000a5b565b62000a3c565b90508281526020810184848401111562000af35762000af2620009c1565b5b62000b0084828562000a91565b509392505050565b600082601f83011262000b205762000b1f620009bc565b5b815162000b3284826020860162000abd565b91505092915050565b600073ffffffffffffffffffffffffffffffffffffffff82169050919050565b600062000b688262000b3b565b9050919050565b62000b7a8162000b5b565b811462000b8657600080fd5b50565b60008151905062000b9a8162000b6f565b92915050565b600062000bad8262000b3b565b9050919050565b62000bbf8162000ba0565b811462000bcb57600080fd5b50565b60008151905062000bdf8162000bb4565b92915050565b600080600080600060a0868803121562000c045762000c03620009b2565b5b600086015167ffffffffffffffff81111562000c255762000c24620009b7565b5b62000c338882890162000b08565b955050602086015167ffffffffffffffff81111562000c575762000c56620009b7565b5b62000c658882890162000b08565b945050604086015167ffffffffffffffff81111562000c895762000c88620009b7565b5b62000c978882890162000b08565b935050606062000caa8882890162000b89565b925050608062000cbd8882890162000bce565b9150509295509295909350565b600081519050919050565b7f4e487b7100000000000000000000000000000000000000000000000000000000600052602260045260246000fd5b6000600282049050600182168062000d1d57607f821691505b60208210810362000d335762000d3262000cd5565b5b50919050565b60008190508160005260206000209050919050565b60006020601f8301049050919050565b600082821b905092915050565b60006008830262000d9d7fffffffffffffffffffffffffffffffffffffffffffffffffffffffffffffffff8262000d5e565b62000da9868362000d5e565b95508019841693508086168417925050509392505050565b6000819050919050565b6000819050919050565b600062000df662000df062000dea8462000dc1565b62000dcb565b62000dc1565b9050919050565b6000819050919050565b62000e128362000dd5565b62000e2a62000e218262000dfd565b84845462000d6b565b825550505050565b600090565b62000e4162000e32565b62000e4e81848462000e07565b505050565b5b8181101562000e765762000e6a60008262000e37565b60018101905062000e54565b5050565b601f82111562000ec55762000e8f8162000d39565b62000e9a8462000d4e565b8101602085101562000eaa578190505b62000ec262000eb98562000d4e565b83018262000e53565b50505b505050565b600082821c905092915050565b600062000eea6000198460080262000eca565b1980831691505092915050565b600062000f05838362000ed7565b9150826002028217905092915050565b62000f208262000cca565b67ffffffffffffffff81111562000f3c5762000f3b620009d7565b5b62000f48825462000d04565b62000f5582828562000e7a565b600060209050601f83116001811462000f8d576000841562000f78578287015190505b62000f84858262000ef7565b86555062000ff4565b601f19841662000f9d8662000d39565b60005b8281101562000fc75784890151825560018201915060208501945060208101905062000fa0565b8683101562000fe7578489015162000fe3601f89168262000ed7565b8355505b6001600288020188555050505b505050505050565b7f4e487b7100000000000000000000000000000000000000000000000000000000600052601160045260246000fd5b6000620010388262000dc1565b9150620010458362000dc1565b925082820390508181111562001060576200105f62000ffc565b5b92915050565b620010718162000dc1565b82525050565b60006020820190506200108e600083018462001066565b92915050565b611e3380620010a46000396000f3fe60806040526004361061011f5760003560e01c80637284e416116100a0578063dc0661be11610064578063dc0661be14610392578063dc070657146103d0578063ed88c68e146103f9578063f2fde38b14610403578063f3ccaac01461042c5761011f565b80637284e416146102bf57806380cef3cc146102ea5780638da5cb5b146103135780638f32d59b1461033e578063b8f7f42a146103695761011f565b80634315399f116100e75780634315399f146101e75780634d9ffa2a14610203578063505e570a1461022e5780636f4421541461026b578063715018a6146102a85761011f565b806306fdde0314610124578063109c12381461014f5780631f5225951461017a57806338af3eed146101a55780633ccfd60b146101d0575b600080fd5b34801561013057600080fd5b50610139610457565b60405161014691906112c2565b60405180910390f35b34801561015b57600080fd5b506101646104e5565b60405161017191906112fd565b60405180910390f35b34801561018657600080fd5b5061018f6104eb565b60405161019c91906112fd565b60405180910390f35b3480156101b157600080fd5b506101ba6104f1565b6040516101c79190611359565b60405180910390f35b3480156101dc57600080fd5b506101e5610517565b005b61020160048036038101906101fc91906113b4565b6105d0565b005b34801561020f57600080fd5b5061021861061d565b60405161022591906112fd565b60405180910390f35b34801561023a57600080fd5b50610255600480360381019061025091906113f4565b61062a565b604051610262919061152d565b60405180910390f35b34801561027757600080fd5b50610292600480360381019061028d919061158d565b610716565b60405161029f91906112fd565b60405180910390f35b3480156102b457600080fd5b506102bd61075f565b005b3480156102cb57600080fd5b506102d461082e565b6040516102e191906112c2565b60405180910390f35b3480156102f657600080fd5b50610311600480360381019061030c919061158d565b6108bc565b005b34801561031f57600080fd5b50610328610a10565b60405161033591906115c9565b60405180910390f35b34801561034a57600080fd5b50610353610a39565b60405161036091906115ff565b60405180910390f35b34801561037557600080fd5b50610390600480360381019061038b9190611823565b610a90565b005b34801561039e57600080fd5b506103b960048036038101906103b4919061186c565b610b4d565b6040516103c79291906118ac565b60405180910390f35b3480156103dc57600080fd5b506103f760048036038101906103f29190611901565b610b8e565b005b610401610be3565b005b34801561040f57600080fd5b5061042a6004803603810190610425919061158d565b610d8d565b005b34801561043857600080fd5b50610441610daa565b60405161044e91906112c2565b60405180910390f35b600a80546104649061195d565b80601f01602080910402602001604051908101604052809291908181526020018280546104909061195d565b80156104dd5780601f106104b2576101008083540402835291602001916104dd565b820191906000526020600020905b8154815290600101906020018083116104c057829003601f168201915b505050505081565b60015481565b600e5481565b600d60009054906101000a900473ffffffffffffffffffffffffffffffffffffffff1681565b61051f610a39565b61052857600080fd5b6000479050600d60009054906101000a900473ffffffffffffffffffffffffffffffffffffffff1673ffffffffffffffffffffffffffffffffffffffff166108fc829081150290604051600060405180830381858888f19350505050158015610595573d6000803e3d6000fd5b507f5b6b431d4476a211bb7d41c20d1aab9ae2321deee0d20be3d9fc9b1093fa6e3d816040516105c591906112fd565b60405180910390a150565b60065434146105de57600080fd5b60038054905081106105ef57600080fd5b80600783815481106106045761060361198e565b5b9060005260206000209060020201600001819055505050565b6000600380549050905090565b606060046000838152602001908152602001600020805480602002602001604051908101604052809291908181526020016000905b8282101561070b57838290600052602060002001805461067e9061195d565b80601f01602080910402602001604051908101604052809291908181526020018280546106aa9061195d565b80156106f75780601f106106cc576101008083540402835291602001916106f7565b820191906000526020600020905b8154815290600101906020018083116106da57829003601f168201915b50505050508152602001906001019061065f565b505050509050919050565b6000600860008373ffffffffffffffffffffffffffffffffffffffff1673ffffffffffffffffffffffffffffffffffffffff168152602001908152602001600020549050919050565b610767610a39565b61077057600080fd5b600073ffffffffffffffffffffffffffffffffffffffff1660008054906101000a900473ffffffffffffffffffffffffffffffffffffffff1673ffffffffffffffffffffffffffffffffffffffff167f8be0079c531659141344cd1fd0a4f28419497f9722a3daafe3b4186f6b6457e060405160405180910390a360008060006101000a81548173ffffffffffffffffffffffffffffffffffffffff021916908373ffffffffffffffffffffffffffffffffffffffff160217905550565b600c805461083b9061195d565b80601f01602080910402602001604051908101604052809291908181526020018280546108679061195d565b80156108b45780601f10610889576101008083540402835291602001916108b4565b820191906000526020600020905b81548152906001019060200180831161089757829003601f168201915b505050505081565b6000600167ffffffffffffffff8111156108d9576108d861161f565b5b6040519080825280602002602001820160405280156109075781602001602082028036833780820191505090505b5090506007604051806040016040528061091f610e38565b815260200183815250908060018154018082558091505060019003906000526020600020906002020160009091909190915060008201518160000155602082015181600101908051906020019061097792919061110b565b5050506000600160078054905061098e91906119ec565b905080600860008573ffffffffffffffffffffffffffffffffffffffff1673ffffffffffffffffffffffffffffffffffffffff168152602001908152602001600020819055507faf101d6eb202a80391aeb3bccfdf77a63a9dd196386bf69ae819408c466875b681604051610a0391906112fd565b60405180910390a1505050565b60008060009054906101000a900473ffffffffffffffffffffffffffffffffffffffff16905090565b60008060009054906101000a900473ffffffffffffffffffffffffffffffffffffffff1673ffffffffffffffffffffffffffffffffffffffff163373ffffffffffffffffffffffffffffffffffffffff1614905090565b610a98610a39565b610aa157600080fd5b60038080549050908060018154018082558091505060019003906000526020600020016000909190919091505580600460006001600380549050610ae591906119ec565b8152602001908152602001600020906005610b01929190611158565b507fe1c7c98cdeded3a25c1c7ada5b85013b2c7c9879f1678129a413ea685d0fcc786001600380549050610b3591906119ec565b604051610b4291906112fd565b60405180910390a150565b600f6020528160005260406000208181548110610b6957600080fd5b9060005260206000209060020201600091509150508060000154908060010154905082565b610b96610a39565b610b9f57600080fd5b80600d60006101000a81548173ffffffffffffffffffffffffffffffffffffffff021916908373ffffffffffffffffffffffffffffffffffffffff16021790555050565b60006040518060400160405280348152602001428152509050600f60003373ffffffffffffffffffffffffffffffffffffffff1673ffffffffffffffffffffffffffffffffffffffff16815260200190815260200160002081908060018154018082558091505060019003906000526020600020906002020160009091909190915060008201518160000155602082015181600101555050600e6000815480929190610c8e90611a20565b9190505550600960003373ffffffffffffffffffffffffffffffffffffffff1673ffffffffffffffffffffffffffffffffffffffff16815260200190815260200160002060009054906101000a900460ff16610cee57610ced336108bc565b5b6000600860003373ffffffffffffffffffffffffffffffffffffffff1673ffffffffffffffffffffffffffffffffffffffff168152602001908152602001600020549050610d3b81610e59565b3373ffffffffffffffffffffffffffffffffffffffff167f264f630d9efa0d07053a31163641d9fcc0adafc9d9e76f1c37c2ce3a558d2c5234604051610d8191906112fd565b60405180910390a25050565b610d95610a39565b610d9e57600080fd5b610da781610ebf565b50565b600b8054610db79061195d565b80601f0160208091040260200160405190810160405280929190818152602001828054610de39061195d565b8015610e305780601f10610e0557610100808354040283529160200191610e30565b820191906000526020600020905b815481529060010190602001808311610e1357829003601f168201915b505050505081565b6000610e546001600380549050610e4f91906119ec565b610fb5565b905090565b6000610e6d610e66611013565b6000611030565b905060078281548110610e8357610e8261198e565b5b90600052602060002090600202016001018190806001815401808255809150506001900390600052602060002001600090919091909150555050565b600073ffffffffffffffffffffffffffffffffffffffff168173ffffffffffffffffffffffffffffffffffffffff1603610ef857600080fd5b8073ffffffffffffffffffffffffffffffffffffffff1660008054906101000a900473ffffffffffffffffffffffffffffffffffffffff1673ffffffffffffffffffffffffffffffffffffffff167f8be0079c531659141344cd1fd0a4f28419497f9722a3daafe3b4186f6b6457e060405160405180910390a3806000806101000a81548173ffffffffffffffffffffffffffffffffffffffff021916908373ffffffffffffffffffffffffffffffffffffffff16021790555050565b600060026000815480929190610fca90611a20565b919050555081424433600254604051602001610fe99493929190611ad1565b6040516020818303038152906040528051906020012060001c61100c9190611b4e565b9050919050565b600061102b6001805461102691906119ec565b610fb5565b905090565b6000600560405180606001604052803373ffffffffffffffffffffffffffffffffffffffff16815260200185815260200184815250908060018154018082558091505060019003906000526020600020906003020160009091909190915060008201518160000160006101000a81548173ffffffffffffffffffffffffffffffffffffffff021916908373ffffffffffffffffffffffffffffffffffffffff16021790555060208201518160010155604082015181600201555050600060016005805490506110ff91906119ec565b90508091505092915050565b828054828255906000526020600020908101928215611147579160200282015b8281111561114657825182559160200191906001019061112b565b5b50905061115491906111b1565b5090565b8280548282559060005260206000209081019282156111a0579160200282015b8281111561119f57825182908161118f9190611d2b565b5091602001919060010190611178565b5b5090506111ad91906111ce565b5090565b5b808211156111ca5760008160009055506001016111b2565b5090565b5b808211156111ee57600081816111e591906111f2565b506001016111cf565b5090565b5080546111fe9061195d565b6000825580601f10611210575061122f565b601f01602090049060005260206000209081019061122e91906111b1565b5b50565b600081519050919050565b600082825260208201905092915050565b60005b8381101561126c578082015181840152602081019050611251565b60008484015250505050565b6000601f19601f8301169050919050565b600061129482611232565b61129e818561123d565b93506112ae81856020860161124e565b6112b781611278565b840191505092915050565b600060208201905081810360008301526112dc8184611289565b905092915050565b6000819050919050565b6112f7816112e4565b82525050565b600060208201905061131260008301846112ee565b92915050565b600073ffffffffffffffffffffffffffffffffffffffff82169050919050565b600061134382611318565b9050919050565b61135381611338565b82525050565b600060208201905061136e600083018461134a565b92915050565b6000604051905090565b600080fd5b600080fd5b611391816112e4565b811461139c57600080fd5b50565b6000813590506113ae81611388565b92915050565b600080604083850312156113cb576113ca61137e565b5b60006113d98582860161139f565b92505060206113ea8582860161139f565b9150509250929050565b60006020828403121561140a5761140961137e565b5b60006114188482850161139f565b91505092915050565b600081519050919050565b600082825260208201905092915050565b6000819050602082019050919050565b600082825260208201905092915050565b600061146982611232565b611473818561144d565b935061148381856020860161124e565b61148c81611278565b840191505092915050565b60006114a3838361145e565b905092915050565b6000602082019050919050565b60006114c382611421565b6114cd818561142c565b9350836020820285016114df8561143d565b8060005b8581101561151b57848403895281516114fc8582611497565b9450611507836114ab565b925060208a019950506001810190506114e3565b50829750879550505050505092915050565b6000602082019050818103600083015261154781846114b8565b905092915050565b600061155a82611318565b9050919050565b61156a8161154f565b811461157557600080fd5b50565b60008135905061158781611561565b92915050565b6000602082840312156115a3576115a261137e565b5b60006115b184828501611578565b91505092915050565b6115c38161154f565b82525050565b60006020820190506115de60008301846115ba565b92915050565b60008115159050919050565b6115f9816115e4565b82525050565b600060208201905061161460008301846115f0565b92915050565b600080fd5b7f4e487b7100000000000000000000000000000000000000000000000000000000600052604160045260246000fd5b61165782611278565b810181811067ffffffffffffffff821117156116765761167561161f565b5b80604052505050565b6000611689611374565b9050611695828261164e565b919050565b600067ffffffffffffffff8211156116b5576116b461161f565b5b602082029050919050565b600080fd5b600080fd5b600067ffffffffffffffff8211156116e5576116e461161f565b5b6116ee82611278565b9050602081019050919050565b82818337600083830152505050565b600061171d611718846116ca565b61167f565b905082815260208101848484011115611739576117386116c5565b5b6117448482856116fb565b509392505050565b600082601f8301126117615761176061161a565b5b813561177184826020860161170a565b91505092915050565b600061178d6117888461169a565b61167f565b905080602084028301858111156117a7576117a66116c0565b5b835b818110156117ee57803567ffffffffffffffff8111156117cc576117cb61161a565b5b8086016117d9898261174c565b855260208501945050506020810190506117a9565b5050509392505050565b600082601f83011261180d5761180c61161a565b5b600561181a84828561177a565b91505092915050565b6000602082840312156118395761183861137e565b5b600082013567ffffffffffffffff81111561185757611856611383565b5b611863848285016117f8565b91505092915050565b600080604083850312156118835761188261137e565b5b600061189185828601611578565b92505060206118a28582860161139f565b9150509250929050565b60006040820190506118c160008301856112ee565b6118ce60208301846112ee565b9392505050565b6118de81611338565b81146118e957600080fd5b50565b6000813590506118fb816118d5565b92915050565b6000602082840312156119175761191661137e565b5b6000611925848285016118ec565b91505092915050565b7f4e487b7100000000000000000000000000000000000000000000000000000000600052602260045260246000fd5b6000600282049050600182168061197557607f821691505b6020821081036119885761198761192e565b5b50919050565b7f4e487b7100000000000000000000000000000000000000000000000000000000600052603260045260246000fd5b7f4e487b7100000000000000000000000000000000000000000000000000000000600052601160045260246000fd5b60006119f7826112e4565b9150611a02836112e4565b9250828203905081811115611a1a57611a196119bd565b5b92915050565b6000611a2b826112e4565b91507fffffffffffffffffffffffffffffffffffffffffffffffffffffffffffffffff8203611a5d57611a5c6119bd565b5b600182019050919050565b6000819050919050565b611a83611a7e826112e4565b611a68565b82525050565b60008160601b9050919050565b6000611aa182611a89565b9050919050565b6000611ab382611a96565b9050919050565b611acb611ac68261154f565b611aa8565b82525050565b6000611add8287611a72565b602082019150611aed8286611a72565b602082019150611afd8285611aba565b601482019150611b0d8284611a72565b60208201915081905095945050505050565b7f4e487b7100000000000000000000000000000000000000000000000000000000600052601260045260246000fd5b6000611b59826112e4565b9150611b64836112e4565b925082611b7457611b73611b1f565b5b828206905092915050565b60008190508160005260206000209050919050565b60006020601f8301049050919050565b600082821b905092915050565b600060088302611be17fffffffffffffffffffffffffffffffffffffffffffffffffffffffffffffffff82611ba4565b611beb8683611ba4565b95508019841693508086168417925050509392505050565b6000819050919050565b6000611c28611c23611c1e846112e4565b611c03565b6112e4565b9050919050565b6000819050919050565b611c4283611c0d565b611c56611c4e82611c2f565b848454611bb1565b825550505050565b600090565b611c6b611c5e565b611c76818484611c39565b505050565b5b81811015611c9a57611c8f600082611c63565b600181019050611c7c565b5050565b601f821115611cdf57611cb081611b7f565b611cb984611b94565b81016020851015611cc8578190505b611cdc611cd485611b94565b830182611c7b565b50505b505050565b600082821c905092915050565b6000611d0260001984600802611ce4565b1980831691505092915050565b6000611d1b8383611cf1565b9150826002028217905092915050565b611d3482611232565b67ffffffffffffffff811115611d4d57611d4c61161f565b5b611d57825461195d565b611d62828285611c9e565b600060209050601f831160018114611d955760008415611d83578287015190505b611d8d8582611d0f565b865550611df5565b601f198416611da386611b7f565b60005b82811015611dcb57848901518255600182019150602085019450602081019050611da6565b86831015611de85784890151611de4601f891682611cf1565b8355505b6001600288020188555050505b50505050505056fea2646970667358221220177d47a74ceed89dfbdacc2f4697fb567744a545fff390270e713848496ae7df64736f6c63430008120033",
  "immutableReferences": {},
  "source": "// SPDX-License-Identifier: GPL-3.0\n\npragma solidity >=0.7.0 <0.9.0;\n\nimport \"./Ownable.sol\";\nimport \"./StrawberryDonorFactory.sol\";\n\ncontract StrawberryCharity is Ownable, StrawberryDonorFactory {\n    struct Donation {\n        uint256 value;\n        uint256 date;\n    }\n\n    string public name;\n    string public image;\n    string public description;\n    address payable public beneficiary;\n    uint256 public donationsCount = 0;\n\n    mapping(address => Donation[]) public _donations;\n\n    event DonationReceived(address indexed donor, uint256 value);\n    event Withdraw(uint256 amount);\n\n    constructor(\n        string memory _name,\n        string memory _image,\n        string memory _description,\n        address payable _beneficiary,\n        address _custodian\n    ) {\n        name = _name;\n        image = _image;\n        description = _description;\n        beneficiary = _beneficiary;\n        _transferOwnership(_custodian);\n    }\n\n    function donate() external payable {\n        Donation memory donation = Donation({\n            value: msg.value,\n            date: block.timestamp\n        });\n\n        _donations[msg.sender].push(donation);\n        donationsCount++;\n\n        if (!donorExists[msg.sender]) {\n            _createDonor(msg.sender);\n        }\n\n        uint id = addressToDonor[msg.sender];\n        _addItem(id);\n\n        emit DonationReceived(msg.sender, msg.value);\n    }\n\n    function changeBeneficiary(address payable _beneficiary) external onlyOwner {\n        beneficiary = _beneficiary;\n    }\n\n    function withdraw() external onlyOwner {\n        uint256 balance = address(this).balance;\n        beneficiary.transfer(balance);\n        emit Withdraw(balance);\n    }\n}",
  "sourcePath": "/Users/elenakapilevich/Documents/strawberry/strawberryContract/contracts/StrawberryCharity.sol",
  "compiler": {
    "name": "solc",
    "version": "0.8.18+commit.87f61d96.Emscripten.clang"
  },
  "schemaVersion": "3.4.13",
  "updatedAt": "2023-04-15T08:41:11.163Z",
  "devdoc": {
    "kind": "dev",
    "methods": {
      "isOwner()": {
        "returns": {
          "_0": "true if `msg.sender` is the owner of the contract."
        }
      },
      "owner()": {
        "returns": {
          "_0": "the address of the owner."
        }
      },
      "renounceOwnership()": {
        "details": "Allows the current owner to relinquish control of the contract."
      },
      "transferOwnership(address)": {
        "details": "Allows the current owner to transfer control of the contract to a newOwner.",
        "params": {
          "newOwner": "The address to transfer ownership to."
        }
      }
    },
    "version": 1
  },
  "userdoc": {
    "kind": "user",
    "methods": {
      "renounceOwnership()": {
        "notice": "Renouncing to ownership will leave the contract without an owner. It will not be possible to call the functions with the `onlyOwner` modifier anymore."
      }
    },
    "version": 1
  }
}