{
  "contractName": "StrawberryColorPaletteFactory",
  "abi": [
    {
      "inputs": [],
      "stateMutability": "nonpayable",
      "type": "constructor"
    },
    {
      "anonymous": false,
      "inputs": [
        {
          "indexed": true,
          "internalType": "address",
          "name": "previousOwner",
          "type": "address"
        },
        {
          "indexed": true,
          "internalType": "address",
          "name": "newOwner",
          "type": "address"
        }
      ],
      "name": "OwnershipTransferred",
      "type": "event"
    },
    {
      "anonymous": false,
      "inputs": [
        {
          "indexed": false,
          "internalType": "uint256",
          "name": "paletteId",
          "type": "uint256"
        }
      ],
      "name": "PaletteCreated",
      "type": "event"
    },
    {
      "inputs": [],
      "name": "colorAmountPerPalette",
      "outputs": [
        {
          "internalType": "uint256",
          "name": "",
          "type": "uint256"
        }
      ],
      "stateMutability": "view",
      "type": "function"
    },
    {
      "inputs": [],
      "name": "isOwner",
      "outputs": [
        {
          "internalType": "bool",
          "name": "",
          "type": "bool"
        }
      ],
      "stateMutability": "view",
      "type": "function"
    },
    {
      "inputs": [],
      "name": "owner",
      "outputs": [
        {
          "internalType": "address",
          "name": "",
          "type": "address"
        }
      ],
      "stateMutability": "view",
      "type": "function"
    },
    {
      "inputs": [],
      "name": "renounceOwnership",
      "outputs": [],
      "stateMutability": "nonpayable",
      "type": "function"
    },
    {
      "inputs": [
        {
          "internalType": "address",
          "name": "newOwner",
          "type": "address"
        }
      ],
      "name": "transferOwnership",
      "outputs": [],
      "stateMutability": "nonpayable",
      "type": "function"
    },
    {
      "inputs": [
        {
          "internalType": "string[5]",
          "name": "_colors",
          "type": "string[5]"
        }
      ],
      "name": "addPalette",
      "outputs": [],
      "stateMutability": "nonpayable",
      "type": "function"
    },
    {
      "inputs": [
        {
          "internalType": "uint256",
          "name": "paletteId",
          "type": "uint256"
        }
      ],
      "name": "getPalette",
      "outputs": [
        {
          "internalType": "string[]",
          "name": "",
          "type": "string[]"
        }
      ],
      "stateMutability": "view",
      "type": "function"
    },
    {
      "inputs": [],
      "name": "getPaletteAmount",
      "outputs": [
        {
          "internalType": "uint256",
          "name": "",
          "type": "uint256"
        }
      ],
      "stateMutability": "view",
      "type": "function"
    }
  ],
  "bytecode": "0x6080604052600560015560006002553480156200001b57600080fd5b50336000806101000a81548173ffffffffffffffffffffffffffffffffffffffff021916908373ffffffffffffffffffffffffffffffffffffffff16021790555060008054906101000a900473ffffffffffffffffffffffffffffffffffffffff1673ffffffffffffffffffffffffffffffffffffffff16600073ffffffffffffffffffffffffffffffffffffffff167f8be0079c531659141344cd1fd0a4f28419497f9722a3daafe3b4186f6b6457e060405160405180910390a3620002176040518060a001604052806040518060400160405280600881526020017f307838343545433200000000000000000000000000000000000000000000000081525081526020016040518060400160405280600881526020017f307834423434353300000000000000000000000000000000000000000000000081525081526020016040518060400160405280600881526020017f307842304138423900000000000000000000000000000000000000000000000081525081526020016040518060400160405280600881526020017f307843333441333600000000000000000000000000000000000000000000000081525081526020016040518060400160405280600881526020017f3078464638303636000000000000000000000000000000000000000000000000815250815250620005dd60201b60201c565b620003576040518060a001604052806040518060400160405280600881526020017f307836393936373400000000000000000000000000000000000000000000000081525081526020016040518060400160405280600881526020017f307833423441334600000000000000000000000000000000000000000000000081525081526020016040518060400160405280600881526020017f307839454146413200000000000000000000000000000000000000000000000081525081526020016040518060400160405280600881526020017f307834453934423300000000000000000000000000000000000000000000000081525081526020016040518060400160405280600881526020017f3078303336313745000000000000000000000000000000000000000000000000815250815250620005dd60201b60201c565b620004976040518060a001604052806040518060400160405280600881526020017f307832374236443800000000000000000000000000000000000000000000000081525081526020016040518060400160405280600881526020017f307833333441353200000000000000000000000000000000000000000000000081525081526020016040518060400160405280600881526020017f307839364146423800000000000000000000000000000000000000000000000081525081526020016040518060400160405280600881526020017f307843343938443400000000000000000000000000000000000000000000000081525081526020016040518060400160405280600881526020017f3078384536343944000000000000000000000000000000000000000000000000815250815250620005dd60201b60201c565b620005d76040518060a001604052806040518060400160405280600881526020017f307835414135354200000000000000000000000000000000000000000000000081525081526020016040518060400160405280600881526020017f307832343935364400000000000000000000000000000000000000000000000081525081526020016040518060400160405280600881526020017f307830303833373700000000000000000000000000000000000000000000000081525081526020016040518060400160405280600881526020017f307830303646373700000000000000000000000000000000000000000000000081525081526020016040518060400160405280600881526020017f3078314335423643000000000000000000000000000000000000000000000000815250815250620005dd60201b60201c565b62000be8565b620005ed620006ab60201b60201c565b620005f757600080fd5b600380805490509080600181540180825580915050600190039060005260206000200160009091909190915055806004600060016003805490506200063d919062000828565b81526020019081526020016000209060056200065b92919062000702565b507fe1c7c98cdeded3a25c1c7ada5b85013b2c7c9879f1678129a413ea685d0fcc78600160038054905062000691919062000828565b604051620006a0919062000874565b60405180910390a150565b60008060009054906101000a900473ffffffffffffffffffffffffffffffffffffffff1673ffffffffffffffffffffffffffffffffffffffff163373ffffffffffffffffffffffffffffffffffffffff1614905090565b8280548282559060005260206000209081019282156200074f579160200282015b828111156200074e5782518290816200073d919062000b01565b509160200191906001019062000723565b5b5090506200075e919062000762565b5090565b5b808211156200078657600081816200077c91906200078a565b5060010162000763565b5090565b5080546200079890620008fa565b6000825580601f10620007ac5750620007cd565b601f016020900490600052602060002090810190620007cc9190620007d0565b5b50565b5b80821115620007eb576000816000905550600101620007d1565b5090565b6000819050919050565b7f4e487b7100000000000000000000000000000000000000000000000000000000600052601160045260246000fd5b60006200083582620007ef565b91506200084283620007ef565b92508282039050818111156200085d576200085c620007f9565b5b92915050565b6200086e81620007ef565b82525050565b60006020820190506200088b600083018462000863565b92915050565b600081519050919050565b7f4e487b7100000000000000000000000000000000000000000000000000000000600052604160045260246000fd5b7f4e487b7100000000000000000000000000000000000000000000000000000000600052602260045260246000fd5b600060028204905060018216806200091357607f821691505b602082108103620009295762000928620008cb565b5b50919050565b60008190508160005260206000209050919050565b60006020601f8301049050919050565b600082821b905092915050565b600060088302620009937fffffffffffffffffffffffffffffffffffffffffffffffffffffffffffffffff8262000954565b6200099f868362000954565b95508019841693508086168417925050509392505050565b6000819050919050565b6000620009e2620009dc620009d684620007ef565b620009b7565b620007ef565b9050919050565b6000819050919050565b620009fe83620009c1565b62000a1662000a0d82620009e9565b84845462000961565b825550505050565b600090565b62000a2d62000a1e565b62000a3a818484620009f3565b505050565b5b8181101562000a625762000a5660008262000a23565b60018101905062000a40565b5050565b601f82111562000ab15762000a7b816200092f565b62000a868462000944565b8101602085101562000a96578190505b62000aae62000aa58562000944565b83018262000a3f565b50505b505050565b600082821c905092915050565b600062000ad66000198460080262000ab6565b1980831691505092915050565b600062000af1838362000ac3565b9150826002028217905092915050565b62000b0c8262000891565b67ffffffffffffffff81111562000b285762000b276200089c565b5b62000b348254620008fa565b62000b4182828562000a66565b600060209050601f83116001811462000b79576000841562000b64578287015190505b62000b70858262000ae3565b86555062000be0565b601f19841662000b89866200092f565b60005b8281101562000bb35784890151825560018201915060208501945060208101905062000b8c565b8683101562000bd3578489015162000bcf601f89168262000ac3565b8355505b6001600288020188555050505b505050505050565b610f388062000bf86000396000f3fe608060405234801561001057600080fd5b50600436106100885760003560e01c80638da5cb5b1161005b5780638da5cb5b146101035780638f32d59b14610121578063b8f7f42a1461013f578063f2fde38b1461015b57610088565b8063109c12381461008d5780634d9ffa2a146100ab578063505e570a146100c9578063715018a6146100f9575b600080fd5b610095610177565b6040516100a29190610688565b60405180910390f35b6100b361017d565b6040516100c09190610688565b60405180910390f35b6100e360048036038101906100de91906106e3565b61018a565b6040516100f09190610862565b60405180910390f35b610101610276565b005b61010b610345565b60405161011891906108c5565b60405180910390f35b61012961036e565b60405161013691906108fb565b60405180910390f35b61015960048036038101906101549190610b1f565b6103c5565b005b61017560048036038101906101709190610b94565b610482565b005b60015481565b6000600380549050905090565b606060046000838152602001908152602001600020805480602002602001604051908101604052809291908181526020016000905b8282101561026b5783829060005260206000200180546101de90610bf0565b80601f016020809104026020016040519081016040528092919081815260200182805461020a90610bf0565b80156102575780601f1061022c57610100808354040283529160200191610257565b820191906000526020600020905b81548152906001019060200180831161023a57829003601f168201915b5050505050815260200190600101906101bf565b505050509050919050565b61027e61036e565b61028757600080fd5b600073ffffffffffffffffffffffffffffffffffffffff1660008054906101000a900473ffffffffffffffffffffffffffffffffffffffff1673ffffffffffffffffffffffffffffffffffffffff167f8be0079c531659141344cd1fd0a4f28419497f9722a3daafe3b4186f6b6457e060405160405180910390a360008060006101000a81548173ffffffffffffffffffffffffffffffffffffffff021916908373ffffffffffffffffffffffffffffffffffffffff160217905550565b60008060009054906101000a900473ffffffffffffffffffffffffffffffffffffffff16905090565b60008060009054906101000a900473ffffffffffffffffffffffffffffffffffffffff1673ffffffffffffffffffffffffffffffffffffffff163373ffffffffffffffffffffffffffffffffffffffff1614905090565b6103cd61036e565b6103d657600080fd5b6003808054905090806001815401808255809150506001900390600052602060002001600090919091909150558060046000600160038054905061041a9190610c50565b8152602001908152602001600020906005610436929190610595565b507fe1c7c98cdeded3a25c1c7ada5b85013b2c7c9879f1678129a413ea685d0fcc78600160038054905061046a9190610c50565b6040516104779190610688565b60405180910390a150565b61048a61036e565b61049357600080fd5b61049c8161049f565b50565b600073ffffffffffffffffffffffffffffffffffffffff168173ffffffffffffffffffffffffffffffffffffffff16036104d857600080fd5b8073ffffffffffffffffffffffffffffffffffffffff1660008054906101000a900473ffffffffffffffffffffffffffffffffffffffff1673ffffffffffffffffffffffffffffffffffffffff167f8be0079c531659141344cd1fd0a4f28419497f9722a3daafe3b4186f6b6457e060405160405180910390a3806000806101000a81548173ffffffffffffffffffffffffffffffffffffffff021916908373ffffffffffffffffffffffffffffffffffffffff16021790555050565b8280548282559060005260206000209081019282156105dd579160200282015b828111156105dc5782518290816105cc9190610e30565b50916020019190600101906105b5565b5b5090506105ea91906105ee565b5090565b5b8082111561060e57600081816106059190610612565b506001016105ef565b5090565b50805461061e90610bf0565b6000825580601f10610630575061064f565b601f01602090049060005260206000209081019061064e9190610652565b5b50565b5b8082111561066b576000816000905550600101610653565b5090565b6000819050919050565b6106828161066f565b82525050565b600060208201905061069d6000830184610679565b92915050565b6000604051905090565b600080fd5b600080fd5b6106c08161066f565b81146106cb57600080fd5b50565b6000813590506106dd816106b7565b92915050565b6000602082840312156106f9576106f86106ad565b5b6000610707848285016106ce565b91505092915050565b600081519050919050565b600082825260208201905092915050565b6000819050602082019050919050565b600081519050919050565b600082825260208201905092915050565b60005b8381101561077657808201518184015260208101905061075b565b60008484015250505050565b6000601f19601f8301169050919050565b600061079e8261073c565b6107a88185610747565b93506107b8818560208601610758565b6107c181610782565b840191505092915050565b60006107d88383610793565b905092915050565b6000602082019050919050565b60006107f882610710565b610802818561071b565b9350836020820285016108148561072c565b8060005b85811015610850578484038952815161083185826107cc565b945061083c836107e0565b925060208a01995050600181019050610818565b50829750879550505050505092915050565b6000602082019050818103600083015261087c81846107ed565b905092915050565b600073ffffffffffffffffffffffffffffffffffffffff82169050919050565b60006108af82610884565b9050919050565b6108bf816108a4565b82525050565b60006020820190506108da60008301846108b6565b92915050565b60008115159050919050565b6108f5816108e0565b82525050565b600060208201905061091060008301846108ec565b92915050565b600080fd5b7f4e487b7100000000000000000000000000000000000000000000000000000000600052604160045260246000fd5b61095382610782565b810181811067ffffffffffffffff821117156109725761097161091b565b5b80604052505050565b60006109856106a3565b9050610991828261094a565b919050565b600067ffffffffffffffff8211156109b1576109b061091b565b5b602082029050919050565b600080fd5b600080fd5b600067ffffffffffffffff8211156109e1576109e061091b565b5b6109ea82610782565b9050602081019050919050565b82818337600083830152505050565b6000610a19610a14846109c6565b61097b565b905082815260208101848484011115610a3557610a346109c1565b5b610a408482856109f7565b509392505050565b600082601f830112610a5d57610a5c610916565b5b8135610a6d848260208601610a06565b91505092915050565b6000610a89610a8484610996565b61097b565b90508060208402830185811115610aa357610aa26109bc565b5b835b81811015610aea57803567ffffffffffffffff811115610ac857610ac7610916565b5b808601610ad58982610a48565b85526020850194505050602081019050610aa5565b5050509392505050565b600082601f830112610b0957610b08610916565b5b6005610b16848285610a76565b91505092915050565b600060208284031215610b3557610b346106ad565b5b600082013567ffffffffffffffff811115610b5357610b526106b2565b5b610b5f84828501610af4565b91505092915050565b610b71816108a4565b8114610b7c57600080fd5b50565b600081359050610b8e81610b68565b92915050565b600060208284031215610baa57610ba96106ad565b5b6000610bb884828501610b7f565b91505092915050565b7f4e487b7100000000000000000000000000000000000000000000000000000000600052602260045260246000fd5b60006002820490506001821680610c0857607f821691505b602082108103610c1b57610c1a610bc1565b5b50919050565b7f4e487b7100000000000000000000000000000000000000000000000000000000600052601160045260246000fd5b6000610c5b8261066f565b9150610c668361066f565b9250828203905081811115610c7e57610c7d610c21565b5b92915050565b60008190508160005260206000209050919050565b60006020601f8301049050919050565b600082821b905092915050565b600060088302610ce67fffffffffffffffffffffffffffffffffffffffffffffffffffffffffffffffff82610ca9565b610cf08683610ca9565b95508019841693508086168417925050509392505050565b6000819050919050565b6000610d2d610d28610d238461066f565b610d08565b61066f565b9050919050565b6000819050919050565b610d4783610d12565b610d5b610d5382610d34565b848454610cb6565b825550505050565b600090565b610d70610d63565b610d7b818484610d3e565b505050565b5b81811015610d9f57610d94600082610d68565b600181019050610d81565b5050565b601f821115610de457610db581610c84565b610dbe84610c99565b81016020851015610dcd578190505b610de1610dd985610c99565b830182610d80565b50505b505050565b600082821c905092915050565b6000610e0760001984600802610de9565b1980831691505092915050565b6000610e208383610df6565b9150826002028217905092915050565b610e398261073c565b67ffffffffffffffff811115610e5257610e5161091b565b5b610e5c8254610bf0565b610e67828285610da3565b600060209050601f831160018114610e9a5760008415610e88578287015190505b610e928582610e14565b865550610efa565b601f198416610ea886610c84565b60005b82811015610ed057848901518255600182019150602085019450602081019050610eab565b86831015610eed5784890151610ee9601f891682610df6565b8355505b6001600288020188555050505b50505050505056fea264697066735822122081edd430adc7267f6eb4c7c0b7b7c1273da8c7e7c5b8571531f4b055ef4b15e664736f6c63430008120033",
  "immutableReferences": {},
  "source": "// SPDX-License-Identifier: GPL-3.0\n\npragma solidity >=0.7.0 <0.9.0;\n\nimport \"./Ownable.sol\";\n\ncontract StrawberryColorPaletteFactory is Ownable {\n    uint public colorAmountPerPalette = 5;\n    uint private randNonce = 0;\n\n    uint[] palettes;\n\n    mapping (uint => string[]) paletteToColors;\n    \n    event PaletteCreated(uint paletteId);\n\n    constructor() {\n        addPalette([\"0x845EC2\", \"0x4B4453\", \"0xB0A8B9\", \"0xC34A36\", \"0xFF8066\"]);\n        addPalette([\"0x699674\", \"0x3B4A3F\", \"0x9EAFA2\", \"0x4E94B3\", \"0x03617E\"]);\n        addPalette([\"0x27B6D8\", \"0x334A52\", \"0x96AFB8\", \"0xC498D4\", \"0x8E649D\"]);\n        addPalette([\"0x5AA55B\", \"0x24956D\", \"0x008377\", \"0x006F77\", \"0x1C5B6C\"]);\n    }\n\n    //Public\n    function addPalette(string[5] memory _colors) public onlyOwner {\n        palettes.push(palettes.length);\n        paletteToColors[palettes.length - 1] = _colors;\n        emit PaletteCreated(palettes.length - 1);\n    }\n\n    function getPalette(uint paletteId) public view returns(string[] memory) {\n        return paletteToColors[paletteId];\n    }\n\n    function getPaletteAmount() public view returns(uint) {\n        return palettes.length;\n    }\n\n    //Internal\n    function _getRandomPalleteIndex() internal returns(uint) {\n        return _random(palettes.length - 1);\n    }\n\n    function _getRandomColorIndex() internal returns(uint) {\n        return _random(colorAmountPerPalette - 1);\n    }\n\n    //Private\n    function _random(uint number) private returns(uint) {\n        randNonce++;\n        return uint(keccak256(abi.encodePacked(block.timestamp, block.difficulty, msg.sender, randNonce))) % number;\n    }\n}\n",
  "sourcePath": "/Users/elenakapilevich/Documents/strawberry/strawberryContract/contracts/StrawberryColorPaletteFactory.sol",
  "compiler": {
    "name": "solc",
    "version": "0.8.18+commit.87f61d96.Emscripten.clang"
  },
  "schemaVersion": "3.4.13",
  "updatedAt": "2023-04-15T08:41:11.172Z",
  "devdoc": {
    "kind": "dev",
    "methods": {
      "isOwner()": {
        "returns": {
          "_0": "true if `msg.sender` is the owner of the contract."
        }
      },
      "owner()": {
        "returns": {
          "_0": "the address of the owner."
        }
      },
      "renounceOwnership()": {
        "details": "Allows the current owner to relinquish control of the contract."
      },
      "transferOwnership(address)": {
        "details": "Allows the current owner to transfer control of the contract to a newOwner.",
        "params": {
          "newOwner": "The address to transfer ownership to."
        }
      }
    },
    "version": 1
  },
  "userdoc": {
    "kind": "user",
    "methods": {
      "renounceOwnership()": {
        "notice": "Renouncing to ownership will leave the contract without an owner. It will not be possible to call the functions with the `onlyOwner` modifier anymore."
      }
    },
    "version": 1
  }
}