{
  "contractName": "StrawberryDonorFactory",
  "abi": [
    {
      "anonymous": false,
      "inputs": [
        {
          "indexed": false,
          "internalType": "uint256",
          "name": "donorId",
          "type": "uint256"
        }
      ],
      "name": "DonorCreated",
      "type": "event"
    },
    {
      "anonymous": false,
      "inputs": [
        {
          "indexed": false,
          "internalType": "uint256",
          "name": "itemId",
          "type": "uint256"
        },
        {
          "indexed": false,
          "internalType": "uint256",
          "name": "itemColorId",
          "type": "uint256"
        }
      ],
      "name": "ItemAdded",
      "type": "event"
    },
    {
      "anonymous": false,
      "inputs": [
        {
          "indexed": true,
          "internalType": "address",
          "name": "previousOwner",
          "type": "address"
        },
        {
          "indexed": true,
          "internalType": "address",
          "name": "newOwner",
          "type": "address"
        }
      ],
      "name": "OwnershipTransferred",
      "type": "event"
    },
    {
      "anonymous": false,
      "inputs": [
        {
          "indexed": false,
          "internalType": "uint256",
          "name": "paletteId",
          "type": "uint256"
        }
      ],
      "name": "PaletteCreated",
      "type": "event"
    },
    {
      "inputs": [
        {
          "internalType": "string[5]",
          "name": "_colors",
          "type": "string[5]"
        }
      ],
      "name": "addPalette",
      "outputs": [],
      "stateMutability": "nonpayable",
      "type": "function"
    },
    {
      "inputs": [],
      "name": "colorAmountPerPalette",
      "outputs": [
        {
          "internalType": "uint256",
          "name": "",
          "type": "uint256"
        }
      ],
      "stateMutability": "view",
      "type": "function"
    },
    {
      "inputs": [
        {
          "internalType": "uint256",
          "name": "paletteId",
          "type": "uint256"
        }
      ],
      "name": "getPalette",
      "outputs": [
        {
          "internalType": "string[]",
          "name": "",
          "type": "string[]"
        }
      ],
      "stateMutability": "view",
      "type": "function"
    },
    {
      "inputs": [],
      "name": "getPaletteAmount",
      "outputs": [
        {
          "internalType": "uint256",
          "name": "",
          "type": "uint256"
        }
      ],
      "stateMutability": "view",
      "type": "function"
    },
    {
      "inputs": [],
      "name": "isOwner",
      "outputs": [
        {
          "internalType": "bool",
          "name": "",
          "type": "bool"
        }
      ],
      "stateMutability": "view",
      "type": "function"
    },
    {
      "inputs": [],
      "name": "owner",
      "outputs": [
        {
          "internalType": "address",
          "name": "",
          "type": "address"
        }
      ],
      "stateMutability": "view",
      "type": "function"
    },
    {
      "inputs": [],
      "name": "renounceOwnership",
      "outputs": [],
      "stateMutability": "nonpayable",
      "type": "function"
    },
    {
      "inputs": [
        {
          "internalType": "address",
          "name": "newOwner",
          "type": "address"
        }
      ],
      "name": "transferOwnership",
      "outputs": [],
      "stateMutability": "nonpayable",
      "type": "function"
    },
    {
      "inputs": [
        {
          "internalType": "address",
          "name": "_owner",
          "type": "address"
        }
      ],
      "name": "getOwnerByAddress",
      "outputs": [
        {
          "internalType": "uint256",
          "name": "",
          "type": "uint256"
        }
      ],
      "stateMutability": "view",
      "type": "function"
    },
    {
      "inputs": [
        {
          "internalType": "uint256",
          "name": "_donorId",
          "type": "uint256"
        },
        {
          "internalType": "uint256",
          "name": "_paletteId",
          "type": "uint256"
        }
      ],
      "name": "changeColorPalette",
      "outputs": [],
      "stateMutability": "payable",
      "type": "function"
    },
    {
      "inputs": [
        {
          "internalType": "address",
          "name": "_donorAddress",
          "type": "address"
        }
      ],
      "name": "_createDonor",
      "outputs": [],
      "stateMutability": "nonpayable",
      "type": "function"
    }
  ],
  "bytecode": "0x60806040526005600155600060025566038d7ea4c680006006553480156200002657600080fd5b50336000806101000a81548173ffffffffffffffffffffffffffffffffffffffff021916908373ffffffffffffffffffffffffffffffffffffffff16021790555060008054906101000a900473ffffffffffffffffffffffffffffffffffffffff1673ffffffffffffffffffffffffffffffffffffffff16600073ffffffffffffffffffffffffffffffffffffffff167f8be0079c531659141344cd1fd0a4f28419497f9722a3daafe3b4186f6b6457e060405160405180910390a3620002226040518060a001604052806040518060400160405280600881526020017f307838343545433200000000000000000000000000000000000000000000000081525081526020016040518060400160405280600881526020017f307834423434353300000000000000000000000000000000000000000000000081525081526020016040518060400160405280600881526020017f307842304138423900000000000000000000000000000000000000000000000081525081526020016040518060400160405280600881526020017f307843333441333600000000000000000000000000000000000000000000000081525081526020016040518060400160405280600881526020017f3078464638303636000000000000000000000000000000000000000000000000815250815250620005e860201b60201c565b620003626040518060a001604052806040518060400160405280600881526020017f307836393936373400000000000000000000000000000000000000000000000081525081526020016040518060400160405280600881526020017f307833423441334600000000000000000000000000000000000000000000000081525081526020016040518060400160405280600881526020017f307839454146413200000000000000000000000000000000000000000000000081525081526020016040518060400160405280600881526020017f307834453934423300000000000000000000000000000000000000000000000081525081526020016040518060400160405280600881526020017f3078303336313745000000000000000000000000000000000000000000000000815250815250620005e860201b60201c565b620004a26040518060a001604052806040518060400160405280600881526020017f307832374236443800000000000000000000000000000000000000000000000081525081526020016040518060400160405280600881526020017f307833333441353200000000000000000000000000000000000000000000000081525081526020016040518060400160405280600881526020017f307839364146423800000000000000000000000000000000000000000000000081525081526020016040518060400160405280600881526020017f307843343938443400000000000000000000000000000000000000000000000081525081526020016040518060400160405280600881526020017f3078384536343944000000000000000000000000000000000000000000000000815250815250620005e860201b60201c565b620005e26040518060a001604052806040518060400160405280600881526020017f307835414135354200000000000000000000000000000000000000000000000081525081526020016040518060400160405280600881526020017f307832343935364400000000000000000000000000000000000000000000000081525081526020016040518060400160405280600881526020017f307830303833373700000000000000000000000000000000000000000000000081525081526020016040518060400160405280600881526020017f307830303646373700000000000000000000000000000000000000000000000081525081526020016040518060400160405280600881526020017f3078314335423643000000000000000000000000000000000000000000000000815250815250620005e860201b60201c565b62000bf3565b620005f8620006b660201b60201c565b6200060257600080fd5b6003808054905090806001815401808255809150506001900390600052602060002001600090919091909150558060046000600160038054905062000648919062000833565b8152602001908152602001600020906005620006669291906200070d565b507fe1c7c98cdeded3a25c1c7ada5b85013b2c7c9879f1678129a413ea685d0fcc7860016003805490506200069c919062000833565b604051620006ab91906200087f565b60405180910390a150565b60008060009054906101000a900473ffffffffffffffffffffffffffffffffffffffff1673ffffffffffffffffffffffffffffffffffffffff163373ffffffffffffffffffffffffffffffffffffffff1614905090565b8280548282559060005260206000209081019282156200075a579160200282015b828111156200075957825182908162000748919062000b0c565b50916020019190600101906200072e565b5b5090506200076991906200076d565b5090565b5b8082111562000791576000818162000787919062000795565b506001016200076e565b5090565b508054620007a39062000905565b6000825580601f10620007b75750620007d8565b601f016020900490600052602060002090810190620007d79190620007db565b5b50565b5b80821115620007f6576000816000905550600101620007dc565b5090565b6000819050919050565b7f4e487b7100000000000000000000000000000000000000000000000000000000600052601160045260246000fd5b60006200084082620007fa565b91506200084d83620007fa565b925082820390508181111562000868576200086762000804565b5b92915050565b6200087981620007fa565b82525050565b60006020820190506200089660008301846200086e565b92915050565b600081519050919050565b7f4e487b7100000000000000000000000000000000000000000000000000000000600052604160045260246000fd5b7f4e487b7100000000000000000000000000000000000000000000000000000000600052602260045260246000fd5b600060028204905060018216806200091e57607f821691505b602082108103620009345762000933620008d6565b5b50919050565b60008190508160005260206000209050919050565b60006020601f8301049050919050565b600082821b905092915050565b6000600883026200099e7fffffffffffffffffffffffffffffffffffffffffffffffffffffffffffffffff826200095f565b620009aa86836200095f565b95508019841693508086168417925050509392505050565b6000819050919050565b6000620009ed620009e7620009e184620007fa565b620009c2565b620007fa565b9050919050565b6000819050919050565b62000a0983620009cc565b62000a2162000a1882620009f4565b8484546200096c565b825550505050565b600090565b62000a3862000a29565b62000a45818484620009fe565b505050565b5b8181101562000a6d5762000a6160008262000a2e565b60018101905062000a4b565b5050565b601f82111562000abc5762000a86816200093a565b62000a91846200094f565b8101602085101562000aa1578190505b62000ab962000ab0856200094f565b83018262000a4a565b50505b505050565b600082821c905092915050565b600062000ae16000198460080262000ac1565b1980831691505092915050565b600062000afc838362000ace565b9150826002028217905092915050565b62000b17826200089c565b67ffffffffffffffff81111562000b335762000b32620008a7565b5b62000b3f825462000905565b62000b4c82828562000a71565b600060209050601f83116001811462000b84576000841562000b6f578287015190505b62000b7b858262000aee565b86555062000beb565b601f19841662000b94866200093a565b60005b8281101562000bbe5784890151825560018201915060208501945060208101905062000b97565b8683101562000bde578489015162000bda601f89168262000ace565b8355505b6001600288020188555050505b505050505050565b6114ba8062000c036000396000f3fe60806040526004361061009c5760003560e01c8063715018a611610064578063715018a61461018d57806380cef3cc146101a45780638da5cb5b146101cd5780638f32d59b146101f8578063b8f7f42a14610223578063f2fde38b1461024c5761009c565b8063109c1238146100a15780634315399f146100cc5780634d9ffa2a146100e8578063505e570a146101135780636f44215414610150575b600080fd5b3480156100ad57600080fd5b506100b6610275565b6040516100c39190610a3c565b60405180910390f35b6100e660048036038101906100e19190610a97565b61027b565b005b3480156100f457600080fd5b506100fd6102c8565b60405161010a9190610a3c565b60405180910390f35b34801561011f57600080fd5b5061013a60048036038101906101359190610ad7565b6102d5565b6040516101479190610c56565b60405180910390f35b34801561015c57600080fd5b5061017760048036038101906101729190610cd6565b6103c1565b6040516101849190610a3c565b60405180910390f35b34801561019957600080fd5b506101a261040a565b005b3480156101b057600080fd5b506101cb60048036038101906101c69190610cd6565b6104d9565b005b3480156101d957600080fd5b506101e261062d565b6040516101ef9190610d12565b60405180910390f35b34801561020457600080fd5b5061020d610656565b60405161021a9190610d48565b60405180910390f35b34801561022f57600080fd5b5061024a60048036038101906102459190610f6c565b6106ad565b005b34801561025857600080fd5b50610273600480360381019061026e9190610cd6565b61076a565b005b60015481565b600654341461028957600080fd5b600380549050811061029a57600080fd5b80600783815481106102af576102ae610fb5565b5b9060005260206000209060020201600001819055505050565b6000600380549050905090565b606060046000838152602001908152602001600020805480602002602001604051908101604052809291908181526020016000905b828210156103b657838290600052602060002001805461032990611013565b80601f016020809104026020016040519081016040528092919081815260200182805461035590611013565b80156103a25780601f10610377576101008083540402835291602001916103a2565b820191906000526020600020905b81548152906001019060200180831161038557829003601f168201915b50505050508152602001906001019061030a565b505050509050919050565b6000600860008373ffffffffffffffffffffffffffffffffffffffff1673ffffffffffffffffffffffffffffffffffffffff168152602001908152602001600020549050919050565b610412610656565b61041b57600080fd5b600073ffffffffffffffffffffffffffffffffffffffff1660008054906101000a900473ffffffffffffffffffffffffffffffffffffffff1673ffffffffffffffffffffffffffffffffffffffff167f8be0079c531659141344cd1fd0a4f28419497f9722a3daafe3b4186f6b6457e060405160405180910390a360008060006101000a81548173ffffffffffffffffffffffffffffffffffffffff021916908373ffffffffffffffffffffffffffffffffffffffff160217905550565b6000600167ffffffffffffffff8111156104f6576104f5610d68565b5b6040519080825280602002602001820160405280156105245781602001602082028036833780820191505090505b5090506007604051806040016040528061053c610787565b81526020018381525090806001815401808255809150506001900390600052602060002090600202016000909190919091506000820151816000015560208201518160010190805190602001906105949291906108fc565b505050600060016007805490506105ab9190611073565b905080600860008573ffffffffffffffffffffffffffffffffffffffff1673ffffffffffffffffffffffffffffffffffffffff168152602001908152602001600020819055507faf101d6eb202a80391aeb3bccfdf77a63a9dd196386bf69ae819408c466875b6816040516106209190610a3c565b60405180910390a1505050565b60008060009054906101000a900473ffffffffffffffffffffffffffffffffffffffff16905090565b60008060009054906101000a900473ffffffffffffffffffffffffffffffffffffffff1673ffffffffffffffffffffffffffffffffffffffff163373ffffffffffffffffffffffffffffffffffffffff1614905090565b6106b5610656565b6106be57600080fd5b600380805490509080600181540180825580915050600190039060005260206000200160009091909190915055806004600060016003805490506107029190611073565b815260200190815260200160002090600561071e929190610949565b507fe1c7c98cdeded3a25c1c7ada5b85013b2c7c9879f1678129a413ea685d0fcc7860016003805490506107529190611073565b60405161075f9190610a3c565b60405180910390a150565b610772610656565b61077b57600080fd5b610784816107a8565b50565b60006107a3600160038054905061079e9190611073565b61089e565b905090565b600073ffffffffffffffffffffffffffffffffffffffff168173ffffffffffffffffffffffffffffffffffffffff16036107e157600080fd5b8073ffffffffffffffffffffffffffffffffffffffff1660008054906101000a900473ffffffffffffffffffffffffffffffffffffffff1673ffffffffffffffffffffffffffffffffffffffff167f8be0079c531659141344cd1fd0a4f28419497f9722a3daafe3b4186f6b6457e060405160405180910390a3806000806101000a81548173ffffffffffffffffffffffffffffffffffffffff021916908373ffffffffffffffffffffffffffffffffffffffff16021790555050565b6000600260008154809291906108b3906110a7565b9190505550814244336002546040516020016108d29493929190611158565b6040516020818303038152906040528051906020012060001c6108f591906111d5565b9050919050565b828054828255906000526020600020908101928215610938579160200282015b8281111561093757825182559160200191906001019061091c565b5b50905061094591906109a2565b5090565b828054828255906000526020600020908101928215610991579160200282015b8281111561099057825182908161098091906113b2565b5091602001919060010190610969565b5b50905061099e91906109bf565b5090565b5b808211156109bb5760008160009055506001016109a3565b5090565b5b808211156109df57600081816109d691906109e3565b506001016109c0565b5090565b5080546109ef90611013565b6000825580601f10610a015750610a20565b601f016020900490600052602060002090810190610a1f91906109a2565b5b50565b6000819050919050565b610a3681610a23565b82525050565b6000602082019050610a516000830184610a2d565b92915050565b6000604051905090565b600080fd5b600080fd5b610a7481610a23565b8114610a7f57600080fd5b50565b600081359050610a9181610a6b565b92915050565b60008060408385031215610aae57610aad610a61565b5b6000610abc85828601610a82565b9250506020610acd85828601610a82565b9150509250929050565b600060208284031215610aed57610aec610a61565b5b6000610afb84828501610a82565b91505092915050565b600081519050919050565b600082825260208201905092915050565b6000819050602082019050919050565b600081519050919050565b600082825260208201905092915050565b60005b83811015610b6a578082015181840152602081019050610b4f565b60008484015250505050565b6000601f19601f8301169050919050565b6000610b9282610b30565b610b9c8185610b3b565b9350610bac818560208601610b4c565b610bb581610b76565b840191505092915050565b6000610bcc8383610b87565b905092915050565b6000602082019050919050565b6000610bec82610b04565b610bf68185610b0f565b935083602082028501610c0885610b20565b8060005b85811015610c445784840389528151610c258582610bc0565b9450610c3083610bd4565b925060208a01995050600181019050610c0c565b50829750879550505050505092915050565b60006020820190508181036000830152610c708184610be1565b905092915050565b600073ffffffffffffffffffffffffffffffffffffffff82169050919050565b6000610ca382610c78565b9050919050565b610cb381610c98565b8114610cbe57600080fd5b50565b600081359050610cd081610caa565b92915050565b600060208284031215610cec57610ceb610a61565b5b6000610cfa84828501610cc1565b91505092915050565b610d0c81610c98565b82525050565b6000602082019050610d276000830184610d03565b92915050565b60008115159050919050565b610d4281610d2d565b82525050565b6000602082019050610d5d6000830184610d39565b92915050565b600080fd5b7f4e487b7100000000000000000000000000000000000000000000000000000000600052604160045260246000fd5b610da082610b76565b810181811067ffffffffffffffff82111715610dbf57610dbe610d68565b5b80604052505050565b6000610dd2610a57565b9050610dde8282610d97565b919050565b600067ffffffffffffffff821115610dfe57610dfd610d68565b5b602082029050919050565b600080fd5b600080fd5b600067ffffffffffffffff821115610e2e57610e2d610d68565b5b610e3782610b76565b9050602081019050919050565b82818337600083830152505050565b6000610e66610e6184610e13565b610dc8565b905082815260208101848484011115610e8257610e81610e0e565b5b610e8d848285610e44565b509392505050565b600082601f830112610eaa57610ea9610d63565b5b8135610eba848260208601610e53565b91505092915050565b6000610ed6610ed184610de3565b610dc8565b90508060208402830185811115610ef057610eef610e09565b5b835b81811015610f3757803567ffffffffffffffff811115610f1557610f14610d63565b5b808601610f228982610e95565b85526020850194505050602081019050610ef2565b5050509392505050565b600082601f830112610f5657610f55610d63565b5b6005610f63848285610ec3565b91505092915050565b600060208284031215610f8257610f81610a61565b5b600082013567ffffffffffffffff811115610fa057610f9f610a66565b5b610fac84828501610f41565b91505092915050565b7f4e487b7100000000000000000000000000000000000000000000000000000000600052603260045260246000fd5b7f4e487b7100000000000000000000000000000000000000000000000000000000600052602260045260246000fd5b6000600282049050600182168061102b57607f821691505b60208210810361103e5761103d610fe4565b5b50919050565b7f4e487b7100000000000000000000000000000000000000000000000000000000600052601160045260246000fd5b600061107e82610a23565b915061108983610a23565b92508282039050818111156110a1576110a0611044565b5b92915050565b60006110b282610a23565b91507fffffffffffffffffffffffffffffffffffffffffffffffffffffffffffffffff82036110e4576110e3611044565b5b600182019050919050565b6000819050919050565b61110a61110582610a23565b6110ef565b82525050565b60008160601b9050919050565b600061112882611110565b9050919050565b600061113a8261111d565b9050919050565b61115261114d82610c98565b61112f565b82525050565b600061116482876110f9565b60208201915061117482866110f9565b6020820191506111848285611141565b60148201915061119482846110f9565b60208201915081905095945050505050565b7f4e487b7100000000000000000000000000000000000000000000000000000000600052601260045260246000fd5b60006111e082610a23565b91506111eb83610a23565b9250826111fb576111fa6111a6565b5b828206905092915050565b60008190508160005260206000209050919050565b60006020601f8301049050919050565b600082821b905092915050565b6000600883026112687fffffffffffffffffffffffffffffffffffffffffffffffffffffffffffffffff8261122b565b611272868361122b565b95508019841693508086168417925050509392505050565b6000819050919050565b60006112af6112aa6112a584610a23565b61128a565b610a23565b9050919050565b6000819050919050565b6112c983611294565b6112dd6112d5826112b6565b848454611238565b825550505050565b600090565b6112f26112e5565b6112fd8184846112c0565b505050565b5b81811015611321576113166000826112ea565b600181019050611303565b5050565b601f8211156113665761133781611206565b6113408461121b565b8101602085101561134f578190505b61136361135b8561121b565b830182611302565b50505b505050565b600082821c905092915050565b60006113896000198460080261136b565b1980831691505092915050565b60006113a28383611378565b9150826002028217905092915050565b6113bb82610b30565b67ffffffffffffffff8111156113d4576113d3610d68565b5b6113de8254611013565b6113e9828285611325565b600060209050601f83116001811461141c576000841561140a578287015190505b6114148582611396565b86555061147c565b601f19841661142a86611206565b60005b828110156114525784890151825560018201915060208501945060208101905061142d565b8683101561146f578489015161146b601f891682611378565b8355505b6001600288020188555050505b50505050505056fea26469706673582212202c20d4c8860dd0fc930ebccb5db12abc31bdcdc17861421b99d13f1d15ea630e64736f6c63430008120033",
  "immutableReferences": {},
  "source": "// SPDX-License-Identifier: GPL-3.0\n\npragma solidity >=0.7.0 <0.9.0;\n\nimport \"./StrawberryColorPaletteFactory.sol\";\nimport \"./StrawberryItemFactory.sol\";\n\ncontract StrawberryDonorFactory is StrawberryColorPaletteFactory, StrawberryItemFactory {\n    struct StrawberryDonor {\n        uint paletteId;\n        uint[] items;\n    }\n\n    uint changeColorPaletteFee = 0.001 ether;\n    StrawberryDonor[] donors;\n    mapping (address => uint) addressToDonor;\n    mapping (address => bool) donorExists;\n\n    event DonorCreated(uint donorId);\n    event ItemAdded(uint itemId, uint itemColorId);\n\n    function getOwnerByAddress(address _owner) external view returns(uint) {\n        return addressToDonor[_owner];\n    }\n\n    function changeColorPalette(uint _donorId, uint _paletteId) external payable {\n        require(msg.value == changeColorPaletteFee);\n        require(_paletteId < palettes.length);\n        donors[_donorId].paletteId = _paletteId;\n    }\n\n    function _addItem(uint _donorId) internal {\n        uint id = _createItem(_getRandomColorIndex(), 0);\n        donors[_donorId].items.push(id);\n    }\n\n    function _createDonor(address _donorAddress) public {\n        uint[] memory items = new uint[](1);\n        \n        donors.push(StrawberryDonor({\n            paletteId: _getRandomPalleteIndex(), \n            items: items\n        }));\n\n        uint id = donors.length - 1;\n\n        addressToDonor[_donorAddress] = id;\n        emit DonorCreated(id);\n    }\n}\n",
  "sourcePath": "/Users/elenakapilevich/Documents/strawberry/strawberryContract/contracts/StrawberryDonorFactory.sol",
  "compiler": {
    "name": "solc",
    "version": "0.8.18+commit.87f61d96.Emscripten.clang"
  },
  "schemaVersion": "3.4.13",
  "updatedAt": "2023-04-15T08:41:11.177Z",
  "devdoc": {
    "kind": "dev",
    "methods": {
      "isOwner()": {
        "returns": {
          "_0": "true if `msg.sender` is the owner of the contract."
        }
      },
      "owner()": {
        "returns": {
          "_0": "the address of the owner."
        }
      },
      "renounceOwnership()": {
        "details": "Allows the current owner to relinquish control of the contract."
      },
      "transferOwnership(address)": {
        "details": "Allows the current owner to transfer control of the contract to a newOwner.",
        "params": {
          "newOwner": "The address to transfer ownership to."
        }
      }
    },
    "version": 1
  },
  "userdoc": {
    "kind": "user",
    "methods": {
      "renounceOwnership()": {
        "notice": "Renouncing to ownership will leave the contract without an owner. It will not be possible to call the functions with the `onlyOwner` modifier anymore."
      }
    },
    "version": 1
  }
}